:020000040800F2
:10000000785B0020B5E60008B1E20008B3E2000822
:10001000B5E20008B7E20008B9E2000800000000FD
:100020000000000000000000000000000191000836
:10003000BBE2000800000000A9900008BDE2000833
:10004000A1E70008A5E70008A9E70008ADE7000858
:10005000B1E70008B5E70008B9E70008BDE7000808
:10006000C1E70008C5E70008C9E70008CDE70008B8
:10007000D1E70008D5E70008D9E70008DDE7000868
:10008000E1E70008E5E70008E9E70008EDE7000818
:10009000D1E20008DBE20008F1E70008F5E700081C
:1000A000F9E70008FDE7000801E8000805E8000896
:1000B000E5E2000809E800080DE8000811E800087A
:1000C00015E8000819E800081DE8000821E8000804
:1000D00025E8000829E800082DE80008EFE20008FC
:1000E00031E8000835E8000839E800083DE8000874
:1000F00041E8000845E8000849E800084DE8000824
:1001000051E80008F9E2000855E8000859E800083D
:100110005DE8000861E8000865E8000869E8000893
:100120006DE8000803E3000871E8000875E80008BE
:1001300079E800087DE8000881E8000885E8000803
:100140000DE3000817E3000889E800088DE80008BF
:1001500091E8000895E8000899E8000821E3000804
:100160009DE80008A1E80008A5E80008A9E8000843
:10017000ADE80008B1E80008B5E80008000000009C
:10018000B9E80008BDE80008C1E80008C5E80008B3
:100190002BE30008C9E80008CDE80008D1E8000812
:1001A0000000000000000000D5E800082DE9F84339
:1001B0002DED028B80460D001600B0EE408AF0EE69
:1001C000608A1F00DFF8D04AD8F808002060D8F80D
:1001D0000C006060D8F81800A060D8F81C00E0603F
:1001E000A8682061E8686061A869A061E869E061C9
:1001F000B0682062F0686062B069A062F069E06295
:1002000084ED0C8AC4ED0D8A3800C0B203F090FF73
:100210000022DFF8883A03F0D5FF04F0C1F8A063AC
:10022000DFF87C9A4FF47A733C222100484604F0B0
:1002300052F9D9F8000080680006FAD43800C0B23C
:10024000002803D03800C0B2052862D1DFF8549AE4
:10025000DFF8244D3900C9B2B0EE682AF0EE481A32
:1002600096ED011AD5ED010A99ED000AD8ED012AA3
:1002700030EE620A200004F081FE012005F091F9C1
:100280003900C9B2B0EE682AF0EE481A96ED001AAD
:10029000D5ED000A99ED010AD8ED002A30EE220AC8
:1002A00014F1480004F06AFE012005F07AF9DFF845
:1002B000C09CDFF8C04C3900C9B2B0EE682AF0EE3D
:1002C000481A96ED051AD5ED050A99ED000AD8ED04
:1002D000052A30EE220A200004F050FE012005F02D
:1002E00060F93900C9B2B0EE682AF0EE481A96ED0E
:1002F000041AD5ED040A99ED010AD8ED042A30EE6E
:10030000620A14F1480004F039FE012005F049F9B1
:100310004DE0DFF8644C3900C9B2B0EE682AF0EE67
:10032000481A96ED011AD5ED010A9FED760A2000D4
:1003300004F024FE012005F034F93900C9B2B0EE12
:10034000682AF0EE481A96ED001AD5ED000A9FEDE6
:100350006D0A14F1480004F011FE012005F021F9A6
:10036000DFF8104C3900C9B2B0EE682AF0EE481A36
:1003700096ED051AD5ED050A9FED620A200004F0FE
:10038000FDFD012005F00DF93900C9B2B0EE682A73
:10039000F0EE481A96ED041AD5ED040A9FED590ABD
:1003A00014F1480004F0EAFD012005F0FAF8BDEC74
:1003B000028BBDE8F183000070B52DED028B0024A7
:1003C000042C13DADFF8B80B00EBC401091D00EBB5
:1003D000C400DFF8A82BD2ED000A9FED4A0A05F011
:1003E000AFFD012840F08A80641CE9E7DFF8A81817
:1003F000DFF88C4BA0680860E0684860A0698860FE
:10040000E069C86004200C2804DA002241F82020AA
:10041000401CF8E79FED3C8A81ED0C8AF1EE048ADE
:10042000C1ED0D8A00208863DFF874584FF47A73A9
:100430003C22280004F04FF8286880680006FBD4AE
:10044000DFF8345BDFF85C680021B0EE682AF0EE7C
:10045000481A9FED2C1ADFED2B0A96ED000AD4ED19
:10046000012A30EE620A280004F088FD012005F020
:1004700098F80021B0EE682AF0EE481A9FED211A94
:10048000DFED200A96ED010AD4ED002A30EE220AB3
:1004900015F1480004F072FD012005F082F8DFF844
:1004A000D45ADFF8CC6A0021B0EE682AF0EE481A80
:1004B0009FED141ADFED130A96ED000AD4ED052A1C
:1004C00030EE220A280004F059FD012005F069F8F9
:1004D0000021B0EE682AF0EE481A9FED0A1ADFED0F
:1004E000090A96ED010AD4ED042A30EE620A15F1EC
:1004F000480004F043FD012005F053F8BDEC028BE9
:1005000070BD0000000000000000C842F8B52DEDED
:10051000068BA0B00600B0EE408AF0EE608A0C00B8
:10052000150096F9010009EE100A1CA8102105F02B
:100530005FFE1CA8B8EEC90A20EE280A80ED020A68
:10054000B8EEC90A20EE280A80ED030A18A8102187
:1005500005F04EFE18A8B8EEC90AF1EE680A20EEC2
:10056000800A80ED020AB8EEC90AF1EE680A20EEB0
:10057000800A80ED030A0CA8102105F039FEB8EEC0
:10058000C90A20EE280A8DED0C0AB8EEC90A20EE41
:10059000280A8DED0D0A08A8102105F029FEB8EEF5
:1005A000C90AF1EE680A20EE800A8DED080AB8EE5D
:1005B000C90AF1EE680A20EE800A8DED090AB1EE53
:1005C000680AF0EE000A80EE200AF8EEC90A20EE72
:1005D000200A8DED140A14A8B1EE680AF0EE000AA4
:1005E00080EE200AF8EEC90A20EE200A80ED010A0A
:1005F000B0EE000A88EE800AF8EEC90A20EE200A62
:1006000080ED020AB0EE000A88EE800AF8EEC90A10
:1006100020EE200A80ED030AB0EE000A88EE800A80
:10062000F8EEC90A20EE200A8DED100A10A8B0EEEF
:10063000000A88EE800AF8EEC90A20EE200A80ED52
:10064000010AB1EE680AF0EE000A80EE200AF8EE28
:10065000C90A20EE200A80ED020AB1EE680AF0EE27
:10066000000A80EE200AF8EEC90A20EE200A80ED8A
:10067000030A04A8102105F0BBFD6846102105F00F
:10068000B7FD9FED64AB6F4618EE100A05F0B4FDA0
:1006900002000B0051EC1A0B03F094FDDFF8E42884
:1006A000DFF85C3D05F0CCFD03F07AFE786018EED3
:1006B000100A05F0A1FD02000B0051EC1A0B03F02B
:1006C00081FDDFF8C028DFF8383D05F0B9FD03F003
:1006D00067FEB8603078002822D1002C05D16A4628
:1006E0001CA9301D05F0D0FE8FE0012C06D104AA14
:1006F00018A916F1280005F0C7FE86E0022C06D1E5
:100700006A461CA916F14C0005F0BEFE7DE0032CE4
:100710007BD104AA18A916F1700005F0B5FE74E0AB
:10072000307801284AD1002D22D1002C05D104AA0D
:1007300010A9301D05F0A8FE67E0012C06D16A461D
:1007400014A916F1280005F09FFE5EE0022C06D1E8
:1007500004AA10A916F14C0005F096FE55E0032CF2
:1007600053D16A4614A916F1700005F08DFE4CE0D5
:10077000012D22D1002C05D16A4614A9301D05F0A7
:1007800083FE42E0012C06D104AA10A916F128002C
:1007900005F07AFE39E0022C06D16A4614A916F15A
:1007A0004C0005F071FE30E0032C2ED104AA10A9F4
:1007B00016F1700005F068FE27E026E03078022888
:1007C00022D1002C05D104AA0CA9301D05F05CFE35
:1007D0001BE0012C06D16A4608A916F1280005F095
:1007E00053FE12E0022C06D104AA0CA916F14C000B
:1007F00005F04AFE09E0032C07D16A4608A916F164
:10080000700005F041FE00E0FFE720B0BDEC068B74
:10081000F1BD00000AD7A3703D0AB73F70B52DEDBA
:10082000088B88B00400F0EE408AB0EE609AB0EE1B
:10083000418A04A8102105F0DBFC6846102105F070
:10084000D7FC0025042D0ADAB7EE000A242000FBAD
:1008500005F02044001D05F028FE6D1CF2E7DFF8CE
:10086000AC5B95ED000ADFEDC50AC0EE209A9FED66
:10087000C4AAB7EE00BAF0EE4BAA2078002877D1D0
:1008800002220021B0EE000AC9EE000AB0EE680AAA
:100890002000FFF73BFE02220121B0EE000AC9EE64
:1008A000000AB0EE680A2000FFF730FE02220221A3
:1008B000B0EE000AC9EE000AB0EE680A2000FFF7A9
:1008C00025FE02220321B0EE000AC9EE000AB0EEB6
:1008D000680A2000FFF71AFE0026042E2CDA68466C
:1008E00000EB860204A800EB8601B0EE690A242022
:1008F00000FB06F02044001D05F0DAFDDFF880065D
:1009000000EBC601091D00EBC6006A4602EB860239
:1009100092ED000A78EE400A04AA02EB860292EDFC
:10092000000A05F00DFB012804D0032020700020F0
:100930002860A7E1761CD0E70023F1EE040A9FEDC2
:10094000D30ADFF8CC2ADFF8CC1ADFF83406FFF739
:100950002DFC95ED000ADFED890AB4EE600AF1EE98
:1009600010FAC0F28F81012020700020286089E1F8
:100970002078012840F00681F5EE409AF1EE10FA59
:100980001BDBF4EE4B9AF1EE10FA16D50022002193
:10099000F0EE490AB0EE680A2000FFF7B7FD00222A
:1009A0000221F0EE490AB0EE680A2000FFF7AEFD22
:1009B00089EE8B0AB0EE40AA27E0F4EE4B9AF1EEF6
:1009C00010FA22DB9FEDB20AF4EE409AF1EE10FA33
:1009D0001BD501220021F0EE490AB0EE680A200082
:1009E000FFF794FD01220221F0EE490AB0EE680AF9
:1009F0002000FFF78BFD39EECB0AF0EE000A70EE17
:100A0000CB0A80EE200AB0EE40AA6A4604A9B0EEF6
:100A10004A0A201D05F04CFD02AA06A9B0EE4A0ABA
:100A200014F14C0005F044FDF5EE409AF1EE10FA99
:100A300023DBB0EE000A30EE4B0AF4EE409AF1EE02
:100A400010FA1AD500220121F0EE490AB0EE680A28
:100A50002000FFF75BFD00220321F0EE490AB0EE13
:100A6000680A2000FFF752FDB0EE000A30EE4B0A94
:100A700089EE800AB0EE40AA2BE0B0EE000A30EE1C
:100A80004B0AF4EE409AF1EE10FA22DB9FED800A59
:100A9000F4EE409AF1EE10FA1BD501220121F0EE9E
:100AA000490AB0EE680A2000FFF730FD0122032159
:100AB000F0EE490AB0EE680A2000FFF727FD39EE94
:100AC0008B0AF8EE000A30EE200A80EE0B0AB0EE38
:100AD00040AA01AA05A9B0EE4A0A14F1280005F0BF
:100AE000E7FC03AA07A9B0EE4A0A14F1700005F06A
:100AF000DFFC0026042E1DDADFF8840400EBC601BB
:100B0000091D00EBC6006A4602EB860292ED000A60
:100B100078EE400A04AA02EB860292ED000A05F084
:100B20000FFA012804D00320207000202860A9E0DB
:100B3000761CDFE70023F1EE040A9FED540ADFF88C
:100B4000D028DFF8D018DFF83804FFF72FFB95ED39
:100B5000000ADFED500AB4EE600AF1EE10FAC0F2BE
:100B60009180DFF8B8080168012940F08B800221EC
:100B70002170002101600020286083E000007A4499
:100B8000000000002078022875D102220021B0EE7A
:100B9000000AC9EE000AB0EE680A2000FFF7B6FCB2
:100BA00002220121B0EE000AC9EE000AB0EE680A86
:100BB0002000FFF7ABFC02220221B0EE000AC9EED2
:100BC000000AB0EE680A2000FFF7A0FC0222032111
:100BD000B0EE000AC9EE000AB0EE680A2000FFF786
:100BE00095FC0026042E2CDA684600EB860204A849
:100BF00000EB8601B0EE690A242000FB06F02044D9
:100C0000001D05F055FCDFF8780300EBC601091D57
:100C100000EBC6006A4602EB860292ED000A78EE0F
:100C2000400A04AA02EB860292ED000A05F088F958
:100C3000012804D0032020700020286022E0761CC8
:100C4000D0E70023F1EE040A9FED100ADFF8C02779
:100C5000DFF8C017CA48FFF7A9FA95ED000ADFEDE3
:100C6000CC0AB4EE600AF1EE10FA0BDB0320207020
:100C70000020286006E02078032802D1FFF79CFBC3
:100C800000E0FFE708B0BDEC088B70BD0000C84273
:100C9000010000400000FA44F05400200000F03F42
:100CA000E85200202C040020F8B52DED068BA0B0F2
:100CB0000600B0EE408AF0EE608A0C00150096F94E
:100CC000010000EE100AB8EEC09A1CA8102105F031
:100CD0008FFA1CA828EE890A80ED020A28EE890AFC
:100CE00080ED030A18A8102105F082FA18A8B1EEC9
:100CF000680A20EE090A80ED020AB1EE680A20EEC9
:100D0000090A80ED030A0CA8102105F071FA28EEFB
:100D1000890A8DED0C0A28EE890A8DED0D0A08A8C6
:100D2000102105F065FAB1EE680A20EE090A8DED92
:100D3000080AB1EE680A20EE090A8DED090AB1EE43
:100D4000680AF0EE000A80EE200A20EE090A8DED16
:100D5000140A14A8B1EE680AF0EE000A80EE200A28
:100D600020EE090A80ED010AB0EE000A88EE800A42
:100D700020EE090A80ED020AB0EE000A88EE800A31
:100D800020EE090A80ED030AB0EE000A88EE800A20
:100D900020EE090A8DED100A10A8B0EE000A88EEC8
:100DA000800A20EE090A80ED010AB1EE680AF0EE31
:100DB000000A80EE200A20EE090A80ED020AB1EE58
:100DC000680AF0EE000A80EE200A20EE090A80EDA3
:100DD000030A04A8102105F00BFA6846102105F05B
:100DE00007FA9FED69AB6F4618EE100A05F004FA9A
:100DF00002000B0051EC1A0B03F0E4F9614ADFF832
:100E0000003605F01DFA03F0CBFA786018EE100AF0
:100E100005F0F2F902000B0051EC1A0B03F0D2F9C5
:100E2000584ADFF8DC3505F00BFA03F0B9FAB86080
:100E30003078002822D1002C05D16A461CA9301D2B
:100E400005F022FB8FE0012C06D104AA1CA916F1A3
:100E5000280005F019FB86E0022C06D16A4618A985
:100E600016F14C0005F010FB7DE0032C7BD104AAA9
:100E700018A916F1700005F007FB74E0307801281E
:100E80004AD1002D22D1002C05D104AA10A9301D71
:100E900005F0FAFA67E0012C06D16A4610A916F1AE
:100EA000280005F0F1FA5EE0022C06D104AA14A98C
:100EB00016F14C0005F0E8FA55E0032C53D16A46D0
:100EC00014A916F1700005F0DFFA4CE0012D22D1D3
:100ED000002C05D16A4614A9301D05F0D5FA42E070
:100EE000012C06D104AA14A916F1280005F0CCFAA9
:100EF00039E0022C06D16A4610A916F14C0005F023
:100F0000C3FA30E0032C2ED104AA10A916F1700008
:100F100005F0BAFA27E026E03078022822D1002C2A
:100F200005D104AA0CA9301D05F0AEFA1BE0012C76
:100F300006D16A460CA916F1280005F0A5FA12E0C0
:100F4000022C06D104AA08A916F14C0005F09CFA5F
:100F500009E0032C07D16A4608A916F1700005F0D4
:100F600093FA00E0FFE720B0BDEC068BF1BD000076
:100F70003C040020104B0020D0480020200400201A
:100F80007C55002048E17A140AD7A3703D0AB73F88
:100F900000007A4470B52DED088B88B00400F0EEA7
:100FA000408AB0EE609AB0EE418A04A8102105F0A4
:100FB0001FF96846102105F01BF90025042D0ADAF7
:100FC000B7EE000A242000FB05F02044001D05F0C8
:100FD0006CFA6D1CF2E7DFF8345495ED000ADFED92
:100FE000C30AC0EE209A9FEDC2AAB7EE00BAF0EE97
:100FF0004BAA2078002875D102220021B0EE000A09
:10100000C9EE000AB0EE680A2000FFF74DFE02228A
:101010000121B0EE000AC9EE000AB0EE680A200015
:10102000FFF742FE02220221B0EE000AC9EE000ADA
:10103000B0EE680A2000FFF737FE02220321B0EE6F
:10104000000AC9EE000AB0EE680A2000FFF72CFE85
:101050000026042E2CDA684600EB860204A800EB7A
:101060008601B0EE690A242000FB06F02044001D32
:1010700005F01EFADFF8200D00EBC601091D00EB9C
:10108000C6006A4602EB860292ED000A78EE400A3C
:1010900004AA02EB860292ED000A04F051FF012837
:1010A00004D00320207000202860A2E1761CD0E745
:1010B0000023F1EE040A9FEDD10AD54AD549DFF8A5
:1010C000D80CFFF773F895ED000ADFED880AB4EE4F
:1010D000600AF1EE10FAC0F28C810120207000202D
:1010E000286086E12078012840F00481F5EE409ADE
:1010F000F1EE10FA1BDBF4EE4B9AF1EE10FA16D576
:1011000000220021F0EE490AB0EE680A2000FFF745
:10111000CBFD00220221F0EE490AB0EE680A200061
:10112000FFF7C2FD89EE8B0AB0EE40AA27E0F4EE8D
:101130004B9AF1EE10FA22DB9FEDB20AF4EE409AE0
:10114000F1EE10FA1BD501220021F0EE490AB0EEB3
:10115000680A2000FFF7A8FD01220221F0EE490AEB
:10116000B0EE680A2000FFF79FFD39EECB0AF0EEE3
:10117000000A70EECB0A80EE200AB0EE40AA6A4662
:1011800004A9B0EE4A0A201D05F092F902AA06A9A8
:10119000B0EE4A0A14F14C0005F08AF9F5EE409AD7
:1011A000F1EE10FA23DBB0EE000A30EE4B0AF4EE5B
:1011B000409AF1EE10FA1AD500220121F0EE490A08
:1011C000B0EE680A2000FFF76FFD00220321F0EE69
:1011D000490AB0EE680A2000FFF766FDB0EE000A8B
:1011E00030EE4B0A89EE800AB0EE40AA2BE0B0EE5A
:1011F000000A30EE4B0AF4EE409AF1EE10FA22DBD0
:101200009FED800AF4EE409AF1EE10FA1BD5012210
:101210000121F0EE490AB0EE680A2000FFF744FD14
:1012200001220321F0EE490AB0EE680A2000FFF720
:101230003BFD39EE8B0AF8EE000A30EE200A80EE14
:101240000B0AB0EE40AA01AA05A9B0EE4A0A14F1B1
:10125000280005F02DF903AA07A9B0EE4A0A14F1F7
:10126000700005F025F90026042E1DDADFF8280BA2
:1012700000EBC601091D00EBC6006A4602EB8602C0
:1012800092ED000A78EE400A04AA02EB860292ED83
:10129000000A04F055FE012804D00320207000202D
:1012A0002860A6E0761CDFE70023F1EE040A9FED3C
:1012B000530A574A5749DFF8E00AFEF777FF95EDE2
:1012C000000ADFED510AB4EE600AF1EE10FAC0F246
:1012D000908052480168012940F08B8002212170E2
:1012E000002101600020286083E000BF00007A44F4
:1012F000000000002078022874D102220021B0EE04
:10130000000AC9EE000AB0EE680A2000FFF7CCFC24
:1013100002220121B0EE000AC9EE000AB0EE680A0E
:101320002000FFF7C1FC02220221B0EE000AC9EE44
:10133000000AB0EE680A2000FFF7B6FC0222032183
:10134000B0EE000AC9EE000AB0EE680A2000FFF70E
:10135000ABFC0026042E2CDA684600EB860204A8BB
:1013600000EB8601B0EE690A242000FB06F0204461
:10137000001D05F09DF8DFF8200A00EBC601091DED
:1013800000EBC6006A4602EB860292ED000A78EE98
:10139000400A04AA02EB860292ED000A04F0D0FD96
:1013A000012804D0032020700020286021E0761C52
:1013B000D0E70023F1EE040A9FED100A144A154904
:1013C000DFF8D409FEF7F2FE95ED000ADFED120A10
:1013D000B4EE600AF1EE10FA0BDB0320207000205F
:1013E000286006E02078032802D1FEF7E5FF00E040
:1013F000FFE708B0BDEC088B70BD00000000C842DC
:10140000AE47B13F010000400000FA44EC56002016
:10141000BC5500209C55002000007A44F456002062
:1014200038B52DED028B90B00400B0EE408AF0EE9E
:10143000608A0CA8102104F0DBFE04A8102104F03F
:10144000D7FE04A880ED028A80ED038AB1EE680A17
:101450008DED080A08A8B1EE680A80ED010A80ED5A
:10146000028A80ED038A6846102104F0C1FE8DEDEA
:10147000008A8DED018A207801280DD10025042DE8
:101480002DDA04AA0CA9242000FB05F02044001D3D
:1014900004F0FAFF6D1CF2E7207803280DD1002537
:1014A000042D1CDA08AA0CA9242000FB05F0204416
:1014B000001D04F0E9FF6D1CF2E7207805280DD12E
:1014C0000025042D0BDA6A460CA9242000FB05F048
:1014D0002044001D04F0D8FF6D1CF2E7FFE710B0B8
:1014E000BDEC028B31BD0000F8B52DED088B88B046
:1014F00004009FEDB58ADFEDB58A9FEDB59ADFED6B
:10150000B59A04A8102104F073FE6846102104F077
:101510006FFE0025042D0ADAB7EE000A242000FB36
:1015200005F02044001D04F0C0FF6D1CF2E7DFF859
:10153000705895ED000ADFEDA80A80EE20AA207809
:10154000012855D1F0EE680AB0EE480A2000FFF7F6
:1015500067FF0026042E2CDA684600EB860204A8FA
:1015600000EB8601B0EE4A0A242000FB06F020447E
:10157000001D04F09DFFDFF8200800EBC601091DE7
:1015800000EBC6006A4602EB860292ED000A79EE95
:10159000C00A04AA02EB860292ED000A04F0D0FC15
:1015A000012804D00620207000202860E8E1761C85
:1015B000D0E70023F1EE040A9FED880ADFF8E42764
:1015C000DFF8E417DFF8D007FEF7F0FD95ED000A2D
:1015D000DFED810AB4EE600AF1EE10FAC0F2D081BC
:1015E00002202070002028600A2003F0DAFFC7E103
:1015F0002078022840F0FC800026042E15DADFF85F
:10160000980700EBC601091D00EBC60079EEA80A99
:101610009FED6F0A04F094FC012804D0062020708E
:1016200000202860ACE1761CE7E7DFF8C80C90EDFD
:10163000080ADFF8C40CD0ED000A30EE600A10EEA4
:10164000100A04F0D9FD31F0004141EC1B0BDFF82A
:101650004857686804F0D0FD02000B0033F00043E7
:1016600051EC1B0B05F098F80022DFF8903C02F0DB
:10167000A9FD02F095FE09EE100A9FEDC30AB4EE33
:10168000409AF1EE10FA03DB9FEDC00AB0EE409AEB
:101690000020042877DA0021022972DADFF808270F
:1016A00002EBC002002342F8213005EBC00202EB3E
:1016B000810292ED000AB5EE400AF1EE10FA2FDD3C
:1016C000002801D0032815D101290AD1DFF8D4263A
:1016D00002EBC00202EB8102B1EE490A82ED000A80
:1016E0004DE0DFF8C02602EBC00202EB810282ED82
:1016F000009A44E0012908D1DFF8A82602EBC002D5
:1017000002EB810282ED009A39E0DFF8982602EBC5
:10171000C00202EB8102B1EE490A82ED000A2EE01E
:10172000002801D0032815D1012908D1DFF874263B
:1017300002EBC00202EB810282ED009A1FE0DFF8AB
:10174000642602EBC00202EB8102B1EE490A82ED8F
:10175000000A14E001290AD1DFF8482602EBC00292
:1017600002EB8102B1EE490A82ED000A07E0DFF8E0
:10177000342602EBC00202EB810282ED009A491C82
:101780008AE7401C85E7DFF82066DFF8187600233B
:10179000F1EE040A9FED7E0A3A0031002800FEF7C0
:1017A00005FD002004281DDA0021022918DA06EBC5
:1017B000C002002342F8213007EBC002002342F8A8
:1017C0002130491CF1E700BF295C8F3D0AD7233E39
:1017D0000000000098DD533E00007A440000C8423B
:1017E000401CDFE7642003F0DCFE03202070C7E02C
:1017F0002078032851D1F0EE680AB0EE480A2000A4
:10180000FFF70EFE0026042E2CDA684600EB860257
:1018100004A800EB8601B0EE4A0A242000FB06F083
:101820002044001D04F044FEDFF86C0500EBC60107
:10183000091D00EBC6006A4602EB860292ED000A23
:1018400079EEC00A04AA02EB860292ED000A04F0C7
:1018500077FB012804D006202070002028608FE04C
:10186000761CD0E70023F1EE040A9FEDA10ADFF811
:101870003425DFF83415DFF82005FEF797FC95EDE9
:10188000000ADFED9C0AB4EE600AF1EE10FA77DB95
:10189000042020700020286072E02078042813D1F2
:1018A0000323F1EE040A9FED940ADFF8F824DFF831
:1018B000F814DFF8E404FEF779FC4FF4FA6003F063
:1018C00070FE052020705BE02078052851D1F0EEF5
:1018D000680AB0EE480A2000FFF7A2FD0026042E99
:1018E0002CDA684600EB860204A800EB8601B0EE15
:1018F0004A0A242000FB06F02044001D04F0D8FD15
:10190000DFF8940400EBC601091D00EBC6006A462F
:1019100002EB860292ED000A79EEC00A04AA02EBFD
:10192000860292ED000A04F00BFB012804D0062089
:1019300020700020286023E0761CD0E70023F1EE21
:10194000040A9FED6B0ADFF85C24DFF85C14DFF813
:101950004804FEF72BFC95ED000ADFED660AB4EEB5
:10196000600AF1EE10FA0BDB0620207000202860E0
:1019700006E02078062802D1FEF71EFD00E0FFE712
:1019800008B0BDEC088BF1BD0100204200002042F0
:101990000000484338B52DED068BA0B00400B0EE32
:1019A000408AF0EE608AB0EE419ADFED549A39EE4B
:1019B000A80A79EEC80A80EE200A20EE09AA0CA82F
:1019C000102104F015FC0CA880ED029A80ED039A1A
:1019D0008DED1C9A1CA880ED019AB1EE490A80EDAC
:1019E000020AB1EE490A80ED030AB1EE4A0A8DED12
:1019F000180A18A8B1EE4A0A80ED010A80ED029A91
:101A000080ED039A08A8102104F0F2FB8DED089AEE
:101A10008DED099A04A8102104F0EAFB04A880EDDA
:101A2000028A80ED038A8DED148A14A880ED018A64
:101A300080ED028A80ED038AB1EE680A8DED100A0E
:101A400010A880ED018A80ED028A80ED038A684645
:101A5000102104F0CDFB8DED008A8DED018A2078F8
:101A600000280DD10025042D3EDA04AA0CA924205B
:101A700000FB05F02044001D04F006FD6D1CF2E79C
:101A8000207801280DD10025042D2DDA14AA1CA9D7
:101A9000242000FB05F02044001D04F0F5FC6D1C23
:101AA000F2E7207803280DD10025042D1CDA10AAB6
:101AB00018A9242000FB05F02044001D04F0E4FCDC
:101AC0006D1CF2E7207805280DD10025042D0BDAD6
:101AD0006A4608A9242000FB05F02044001D04F0FC
:101AE000D3FC6D1CF2E7FFE720B0BDEC068B31BDE7
:101AF0000000C84200007A440000000098DD533E18
:101B000038B52DED0A8BC0B00400B0EE408AF0EE7F
:101B1000608AB0EE419AF0EE619AB0EE42AAF0EE21
:101B200062AA9FED9EBA3BEE280A7BEE480A80EE41
:101B3000200A60EE09BA30A8102104F059FB30A841
:101B4000B1EE490A80ED020AB1EE490A80ED030ABE
:101B50002CA8102104F04CFB2CA8B1EE490A80ED12
:101B6000020AB1EE490A80ED030A28A8102104F008
:101B70003FFBB1EE6B0A8DED280A28A8B1EE490AA9
:101B800080ED010A80ED039A24A8102104F030FBB7
:101B90008DED249A8DED259A20A8102104F028FBC4
:101BA00020A880ED028A80ED038A1CA8102104F091
:101BB0001FFB1CA880ED028A80ED038AB1EE680A43
:101BC0008DED380A38A880ED018A80ED028A80ED1B
:101BD000038A18A8102104F00BFB8DED188A8DEDF7
:101BE000198A3BEE0A0A7BEE690A80EE200A20EE93
:101BF0002ACA14A8102104F0FBFA14A8B1EE6A0A4C
:101C000080ED020AB1EE6A0A80ED030A10A81021E5
:101C100004F0EEFA10A8B1EE6A0A80ED020AB1EE05
:101C20006A0A80ED030A0CA8102104F0E1FAB1EE73
:101C30004C0A8DED0C0A0CA8B1EE6A0A80ED010A7F
:101C4000C0ED03AA08A8102104F0D2FACDED08AA2D
:101C5000CDED09AA3CA8102104F0CAFA04A810216D
:101C600004F0C6FA04A8C0ED029AC0ED039AB1EEE2
:101C70004A0A8DED340A34A8C0ED019AC0ED029AEB
:101C8000C0ED039A6846102104F0B2FACDED009A37
:101C9000CDED019A207800281BD10025022D0ADA0B
:101CA00020AA30A9242000FB05F02044001D04F0E8
:101CB000EBFB6D1CF2E70225042D68DA3CAA14A99F
:101CC000242000FB05F02044001D04F0DDFB6D1C0A
:101CD000F2E7207801281BD10025022D0ADA1CAA80
:101CE0002CA9242000FB05F02044001D04F0CCFBAF
:101CF0006D1CF2E70225042D49DA04AA10A924205C
:101D000000FB05F02044001D04F0BEFB6D1CF2E753
:101D1000207803281BD10025022D0ADA38AA28A929
:101D2000242000FB05F02044001D04F0ADFB6D1CD9
:101D3000F2E70225042D2ADA34AA0CA9242000FB9C
:101D400005F02044001D04F09FFB6D1CF2E7207895
:101D500005281BD10025022D0ADA18AA24A924205F
:101D600000FB05F02044001D04F08EFB6D1CF2E723
:101D70000225042D0BDA6A4608A9242000FB05F091
:101D80002044001D04F080FB6D1CF2E7FFE740B02B
:101D9000BDEC0A8B31BD00007C55002098DD533E20
:101DA000EC560020BC5500209C550020F8B52DEDC8
:101DB000108B8CB004009FEDC7BA8DED0ABA9FED71
:101DC000C6AA8DED09AA8DED08BA9FEDC48AF0EE82
:101DD00048FAB0EE48FA9FEDC29AF0EE498AF0EE6A
:101DE0004B9AF0EE4BAADFEDBFBA9FEDBFCA04A835
:101DF000102104F0FDF96846102104F0F9F90025DE
:101E0000042D0ADAB7EE000A242000FB05F0204476
:101E1000001D04F04AFB6D1CF2E7DFF8745895EDE5
:101E2000000ADFEDB20AC0EE20CA207801285DD199
:101E3000F0EE4B2AB0EE6A2AF0EE4A1AB0EE691ABA
:101E4000F0EE490AB0EE680A2000FFF759FE0026BE
:101E5000042E2CDA684600EB860204A800EB86010B
:101E6000B0EE6C0A242000FB06F02044001D04F0B4
:101E70006FFCDFF8240800EBC601091D00EBC6006B
:101E80006A4602EB860292ED000A7CEE400A04AA42
:101E900002EB860292ED000A04F052F8012804D009
:101EA00006202070002028601BE2761CD0E700236B
:101EB000F1EE040A9FEDC40ADFF8D827DFF8DC173B
:101EC000DFF8D407FEF772F995ED000ADFED870A17
:101ED000B4EE600AF1EE10FAC0F203820220207024
:101EE000002028600A2003F05CFBFAE12078022839
:101EF00040F028813CEE090A7CEE680A80EE200A58
:101F000020EE29EA3CEE2A0A7CEE4A0A80EE200AFC
:101F100060EE0BEA0026022E15DADFF87C0700EBF4
:101F2000C601091D00EBC6007CEE090AB1EE4E0A9F
:101F300004F006F8012804D0062020700020286054
:101F4000CFE1761CE7E70226042E15DADFF8480712
:101F500000EBC601091D00EBC6007CEE2A0AB1EEBB
:101F60006E0A03F0EDFF012804D006202070002047
:101F70002860B6E1761CE7E7DFF8780390ED080A01
:101F8000DFF87403D0ED000A30EE600A10EE100A9C
:101F900004F032F931F0004141EC1D0BDFF8F85646
:101FA000686804F029F902000B0033F0004351EC9B
:101FB0001D0B04F0F1FB0022D04B02F003F902F0FC
:101FC000EFF90BEE900A9FEDC90AF4EE40BAF1EE7C
:101FD00010FA03DB9FEDC60AF0EE40BA0020042899
:101FE00080F288800021022980F28280DFF8AC260E
:101FF00002EBC002002342F8213005EBC00202EBE5
:10200000810292ED000AB5EE400AF1EE10FA2FDDE2
:10201000002801D0032815D101290AD1DFF8742640
:1020200002EBC00202EB8102B1EE6B0A82ED000A04
:102030004DE0DFF8602602EBC00202EB8102C2ED48
:1020400000BA44E0012908D1DFF8482602EBC002BB
:1020500002EB8102C2ED00BA39E0DFF8382602EB6C
:10206000C00202EB8102B1EE6B0A82ED000A2EE0A3
:10207000002801D0032815D1012908D1DFF8142642
:1020800002EBC00202EB8102C2ED00BA1FE0DFF8F2
:10209000042602EBC00202EB8102B1EE6B0A82ED74
:1020A000000A14E001290AD1DFF8E82502EBC0029A
:1020B00002EB8102B1EE6B0A82ED000A07E0DFF865
:1020C000D42502EBC00202EB8102C2ED00BA491C2A
:1020D00089E700BFEC51B83D8FC2753D295C8F3D4B
:1020E0000AD7A33D0000000098DD533E00007A446B
:1020F000401C74E7DFF8A465DFF898750523F1EE5E
:10210000040A9FED7F0A3A0031002800FEF74EF8DE
:102110000020042810DA002102290BDA06EBC002A5
:10212000002342F8213007EBC002002342F821309F
:10213000491CF1E7401CECE7C82003F032FA032009
:102140002070CEE02078032856D1B0EE481AF0EE89
:102150004F0AB0EE6F0A2000FFF71CFC0026042E89
:102160002CDA684600EB860204A800EB8601B0EE8C
:102170006C0A242000FB06F02044001D04F098F9AE
:10218000DFF8140500EBC601091D00EBC6006A4626
:1021900002EB860292ED000A7CEE400A04AA02EBF2
:1021A000860292ED000A03F0CBFE012804D006203F
:1021B00020700020286094E0761CD0E70023F1EE28
:1021C000040A9FED010A01E00000C842DFF8C424C0
:1021D000DFF8C814DFF8C004FDF7E8FF95ED000A4A
:1021E000DFED480AB4EE600AF1EE10FA79DB042064
:1021F00020700020286074E02078042813D1032385
:10220000F1EE040A9FED400ADFF88824DFF88C1411
:10221000DFF88404FDF7CAFF4FF4FA6003F0C1F958
:10222000052020705DE02078052853D1B0EE691AB2
:10223000F0EE490AB0EE680A2000FFF7ABFB00267B
:10224000042E2CDA684600EB860204A800EB860117
:10225000B0EE6C0A242000FB06F02044001D04F0C0
:1022600027F9DFF8340400EBC601091D00EBC600B6
:102270006A4602EB860292ED000A7CEE400A04AA4E
:1022800002EB860292ED000A03F05AFE012804D008
:10229000062020700020286023E0761CD0E7002371
:1022A000F1EE040A9FED120ADFF8E823DFF8EC13E1
:1022B000DFF8E403FDF77AFF95ED000ADFED110A80
:1022C000B4EE600AF1EE10FA0BDB0620207000205D
:1022D000286006E02078062802D1FEF76DF800E0BD
:1022E000FFE70CB0BDEC108BF1BD000001002042F7
:1022F00000002042D04800202C0400200000244090
:102300000000E14300007A4400000000F8B52DED24
:10231000088BB8B00600B0EE408AF0EE608AB0EEEE
:10232000419A0C001500DFED069A9FED05AA707822
:10233000002807D1F0EE489AB0EE68AA09E000BF85
:10234000000000007078012803D1F0EE689AB0EE2A
:1023500048AA96F9020000EE100AF8EEC0AA24A8D6
:10236000102103F045FF24A829EEAA0A80ED020AF5
:1023700029EEAA0A80ED030A20A8102103F038FFF5
:1023800020A8B1EE690A20EE2A0A80ED020AB1EE19
:10239000690A20EE2A0A80ED030A1CA8102103F026
:1023A00027FF29EEAA0A8DED1C0A29EEAA0A8DED57
:1023B0001D0A18A8102103F01BFFB1EE690A20EED8
:1023C0002A0A8DED180AB1EE690A20EE2A0A8DED6F
:1023D000190AB1EE690A20EE2A0A8DED340A34A8F2
:1023E000B1EE690A20EE2A0A80ED010A29EEAA0A56
:1023F00080ED020A29EEAA0A80ED030A29EEAA0A54
:102400008DED300A30A829EEAA0A80ED010AB1EE5E
:10241000690A20EE2A0A80ED020AB1EE690A20EE6E
:102420002A0A80ED030A14A8102103F0E1FE14A883
:102430002AEE2A0A80ED020A2AEE2A0A80ED030A11
:1024400010A8102103F0D4FE10A8B1EE4A0A20EE25
:102450002A0A80ED020AB1EE4A0A20EE2A0A80ED2D
:10246000030A0CA8102103F0C3FE2AEE2A0A8DED00
:102470000C0A2AEE2A0A8DED0D0A08A8102103F095
:10248000B7FEB1EE4A0A20EE2A0A8DED080AB1EE37
:102490004A0A20EE2A0A8DED090AB1EE4A0A20EE18
:1024A0002A0A8DED2C0A2CA8B1EE4A0A20EE2A0A3F
:1024B00080ED010A2AEE2A0A80ED020A2AEE2A0A93
:1024C00080ED030A2AEE2A0A8DED280A28A82AEEB2
:1024D0002A0A80ED010AB1EE4A0A20EE2A0A80EDAE
:1024E000020AB1EE4A0A20EE2A0A80ED030A04A885
:1024F000102103F07DFE6846102103F079FE9FED68
:1025000068BB6F4619EE100A03F076FE02000B005E
:1025100051EC1B0B01F056FEDFF8D027DFF8EC374B
:1025200003F08EFE01F03CFF786019EE100A03F014
:1025300063FE02000B0051EC1B0B01F043FEDFF8C1
:10254000AC27DFF8C83703F07BFE01F029FFB86045
:102550003078002822D1002C05D16A4624A9301DEC
:1025600003F092FF8FE0012C06D104AA10A916F106
:10257000280003F089FF86E0022C06D16A4614A9E0
:1025800016F14C0003F080FF7DE0032C7BD104AA00
:1025900020A916F1700003F077FF74E0307801286D
:1025A0004AD1002D22D1002C05D104AA30A9301D1A
:1025B00003F06AFF67E0012C06D16A462CA916F1E8
:1025C000280003F061FF5EE0022C06D104AA28A9CE
:1025D00016F14C0003F058FF55E0032C53D16A4626
:1025E00034A916F1700003F04FFF4CE0012D22D109
:1025F000002C05D16A4634A9301D03F045FF42E0A6
:10260000012C06D104AA28A916F1280003F03CFFEA
:1026100039E0022C06D16A462CA916F14C0003F0D1
:1026200033FF30E0032C2ED104AA30A916F170003C
:1026300003F02AFF27E026E03078022822D1002C80
:1026400005D104AA1CA9301D03F01EFF1BE0012CBC
:1026500006D16A4608A916F1280003F015FF12E01A
:10266000022C06D104AA0CA916F14C0003F00CFFB1
:1026700009E0032C07D16A4618A916F1700003F08F
:1026800003FF00E0FFE738B0BDEC088BF1BD0000B0
:10269000EC560020BC5500207C5500209C550020A5
:1026A0000AD7A3703D0AB73FF8B52DED088B88B067
:1026B0000600F0EE408AB0EE609AF0EE419AB0EE7D
:1026C000618A04A8102103F093FD6846102103F0ED
:1026D0008FFD0024042C0ADAB7EE000A242000FB48
:1026E00004F03044001D03F0E0FE641CF2E7DFF864
:1026F000007697ED000ADFEDAE0A80EE20AADFED4E
:10270000ADAAF7EE00BAB0EE6BBA3078002840F010
:10271000888002220021B0EE691AB0EE000AC9EEEC
:10272000000AB0EE000A88EE800A3000FFF7EEFDE6
:1027300002220121B0EE691AB0EE000AC9EE000AC9
:10274000B0EE000A88EE800A3000FFF7DFFD0222BB
:102750000221B0EE691AB0EE000AC9EE000AB0EE2E
:10276000000A88EE800A3000FFF7D0FD0222032124
:10277000B0EE691AB0EE000AC9EE000AB0EE000A27
:1027800088EE800A3000FFF7C1FD0024042C2CDA0B
:10279000684600EB840204A800EB8401B0EE4A0A0C
:1027A000242000FB04F03044001D03F081FEDFF81C
:1027B000440500EBC401091D00EBC4006A4602EBAE
:1027C000840292ED000A78EE400A04AA02EB840229
:1027D00092ED000A03F0B4FB012804D0032030700E
:1027E0000020386022E2641CD0E70023F1EE040AE6
:1027F0009FEDC40ADFF80025DFF80015DFF8F404C8
:10280000FDF7D4FC97ED000ADFED690AB4EE600A2B
:10281000F1EE10FAC0F20A82012030700020386018
:1028200004E23078012840F07181B5EE40AAF1EE63
:1028300010FA1FDBB4EE6BAAF1EE10FA1AD50022E3
:102840000021B0EE691AF0EE490AB0EE680A3000D5
:10285000FFF75CFD00220221B0EE691AF0EE490A92
:10286000B0EE680A3000FFF751FD8AEE2B0AF0EE59
:1028700040AA3EE0B4EE6BAAF1EE10FA39DB9FED10
:10288000A20AB4EE40AAF1EE10FA32D501220021DC
:10289000B0EE691AF0EE490AB0EE680A3000FFF7B0
:1028A00035FD01220221B0EE691AF0EE490AB0EEC0
:1028B000680A3000FFF72AFD3AEE6B0A10EE100AA4
:1028C00003F09AFC04000D001BEE900A03F094FC48
:1028D00002000B0000205FF0804104F01BF80200B2
:1028E0000B002000290003F0ABFC01F059FD0AEEBB
:1028F000900A6A4604A9B0EE6A0A301D03F0D8FDBA
:1029000002AA06A9B0EE6A0A16F14C0003F0D0FD47
:10291000B5EE40AAF1EE10FA4EDB1BEE900A03F082
:102920006BFC02000B0000205FF0804103F0F2FF1F
:1029300002000B0014001D001AEE100A03F05CFCEC
:1029400022002B0004F058F836D200220121B0EE0C
:10295000691AF0EE490AB0EE680A3000FFF7D6FCBB
:1029600000220321B0EE691AF0EE490AB0EE680ABF
:102970003000FFF7CBFC1AEE100A03F03DFC040018
:102980000D001BEE900A03F037FC02000B00002044
:102990005FF0804103F0BEFF02000B002000290021
:1029A00003F04EFC01F0FCFC0AEE900A54E000BF7C
:1029B00000007A44000000001BEE900A03F01CFCAB
:1029C00002000B0000205FF0804103F0A3FF020033
:1029D0000B0014001D001AEE100A03F00DFC22007B
:1029E0002B0004F021F837D89FED470AB4EE40AA37
:1029F000F1EE10FA30D501220121B0EE691AF0EEA5
:102A0000490AB0EE680A3000FFF780FC012203217A
:102A1000B0EE691AF0EE490AB0EE680A3000FFF72E
:102A200075FC3AEE2B0A10EE100A03F0E5FB0022CB
:102A30005FF0404303F0B0FE04000D001BEE900A6F
:102A400003F0DAFB02000B002000290003F0F8FB82
:102A500001F0A6FC0AEE900A01AA05A9B0EE6A0AE6
:102A600016F1280003F024FD03AA07A9B0EE6A0AB4
:102A700016F1700003F01CFD0024042C1DDADFF8B1
:102A8000740200EBC401091D00EBC4006A4602EBAE
:102A9000840292ED000A78EE400A04AA02EB840256
:102AA00092ED000A03F04CFA012804D003203070A4
:102AB00000203860BAE0641CDFE70023F1EE040A6E
:102AC0009FED100ADFF83022DFF83012DFF8240221
:102AD000FDF76CFB97ED000ADFED560AB4EE600AD5
:102AE000F1EE10FAC0F2A280DFF8C00501680129FA
:102AF00040F09C800221317000210160002038608C
:102B000094E000BF0000C842010000403078022875
:102B100040F0878002220021B0EE691AB0EE000A70
:102B2000C9EE000AB0EE000A88EE800A3000FFF716
:102B3000EDFB02220121B0EE691AB0EE000AC9EEE7
:102B4000000AB0EE000A88EE800A3000FFF7DEFBD4
:102B500002220221B0EE691AB0EE000AC9EE000AA4
:102B6000B0EE000A88EE800A3000FFF7CFFB0222A9
:102B70000321B0EE691AB0EE000AC9EE000AB0EE09
:102B8000000A88EE800A3000FFF7C0FB0024042C06
:102B90002CDA684600EB840204A800EB8401B0EE56
:102BA0004A0A242000FB04F03044001D03F080FC9E
:102BB000DFF8400100EBC401091D00EBC4006A46C8
:102BC00002EB840292ED000A78EE400A04AA02EBBE
:102BD000840292ED000A03F0B3F9012804D0032027
:102BE00030700020386021E0641CD0E70023F1EE53
:102BF000040A9FED110ADFF80021DFF80011DFF869
:102C0000F400FDF7D3FA97ED000ADFED0C0AB4EEFD
:102C1000600AF1EE10FA09DB032030700020386002
:102C200004E03078032801D1FDF7C6FB08B0BDEC05
:102C3000088BF1BD0000FA440000C84200007A444D
:102C400010B52DED068BB0EE408ADFED2E9A29EE01
:102C500088AAB0EE080ACAEE008AB1EE4A0AF0EE7F
:102C6000080A80EE200AF0EE000A20EE209A0024E6
:102C7000042C2DDA022C14DA1E4800EBC401091DC5
:102C800000EBC400DFF8242B92ED000A70EE680A16
:102C90009FED1B0A03F054F9012817D0FDF78CFBB8
:102CA00020E0144800EBC401091D00EBC400DFF86C
:102CB000FC2A92ED000A70EE490A9FED110A03F01A
:102CC0003FF9012802D0FDF777FB0BE0641CCFE74A
:102CD0000023F1EE040A9FED0C0A074A0749054854
:102CE000FDF764FABDEC068B10BD000048E17A14D4
:102CF000EC5600207C550020BC5500209C5500203F
:102D000000000000CDCCCC3E00004842AE47B13FB1
:102D10002DE9F8432DED048BB0B00600B0EE408AEB
:102D2000F0EE608A0C001500B0EE089A28EE890AD1
:102D300010EE100A03F060FA02000B00904699466C
:102D400018EE100A03F058FADFF8682ADFF8603A44
:102D500003F022FD42464B4603F066FE18D918EEFA
:102D6000100A03F049FADFF84C2ADFF84C3A03F076
:102D700013FD02000B009046994628EE890A10EEDA
:102D8000100A03F039FA42464B4603F04DFE00D8D4
:102D900086E12CA8102103F02BFA2CA880ED028AE2
:102DA00080ED038A28A8102103F022FA28A8B1EEAA
:102DB000480A80ED020AB1EE480A80ED030AB1EE3E
:102DC000480AF0EE000A80EE200A8DED180A18A8D5
:102DD000B1EE480AF0EE000A80EE200A80ED010A0A
:102DE000B0EE000A88EE000A80ED020AB0EE000A9A
:102DF00088EE000A80ED030AB0EE000A88EE000AB1
:102E00008DED140A14A8B0EE000A88EE000A80EDD9
:102E1000010AB1EE480AF0EE000A80EE200A80EDC9
:102E2000020AB1EE480AF0EE000A80EE200A80EDB8
:102E3000030A08A8102103F0DBF98DED088A8DED57
:102E4000098A04A8102103F0D3F9B1EE480A8DEDE8
:102E5000040AB1EE480A8DED050A24A8102103F0FA
:102E6000C7F99FED939B24AF18EE900A03F0C4F9C5
:102E700053EC192B03F090FC01F092FA786018EEF5
:102E8000900A03F0B9F953EC192B03F085FC01F01B
:102E900087FAB860C7ED038A20A8102103F0A8F9CB
:102EA00020A8B1EE680A80ED020AB1EE680A80ED52
:102EB000030AB1EE680AF0EE000A80EE200A8DEDFA
:102EC000100A10AFB0EE000A88EE800A10EE100A69
:102ED00003F092F953EC192B03F05EFC01F060FA59
:102EE0007860B0EE000A88EE800A10EE100A03F057
:102EF00083F953EC192B03F04FFC01F051FAB86041
:102F0000B0EE000A88EE800A87ED030AB0EE000AF0
:102F100088EE800A8DED0C0A0CA8B0EE000A88EE4F
:102F2000800A80ED010AB1EE680AF0EE000A80EE38
:102F3000200A80ED020AB1EE680AF0EE000A80EE87
:102F4000200A80ED030A6846102103F051F9CDED07
:102F5000008ACDED018A1CA8DFF8C41B102203F003
:102F60008BFDB1EE680A8DED1C0A3078002822D165
:102F7000002C05D124AA2CA9301D03F085FA8FE07E
:102F8000012C06D120AA28A916F1280003F07CFA0A
:102F900086E0022C06D124AA2CA916F14C0003F0DD
:102FA00073FA7DE0032C7BD120AA28A916F17000CA
:102FB00003F06AFA74E0307801284AD1002D22D15A
:102FC000002C05D10CAA14A9301D03F05DFA67E0AE
:102FD000012C06D110AA18A916F1280003F054FA02
:102FE0005EE0022C06D10CAA14A916F14C0003F0E5
:102FF0004BFA55E0032C53D110AA18A916F1700012
:1030000003F042FA4CE0012D22D1002C05D110AA88
:1030100018A9301D03F038FA42E0012C06D10CAAA1
:1030200014A916F1280003F02FFA39E0022C06D17A
:1030300010AA18A916F14C0003F026FA30E0032C70
:103040002ED10CAA14A916F1700003F01DFA27E086
:1030500026E03078022822D1002C05D16A4608A942
:10306000301D03F011FA1BE0012C06D11CAA04A9A3
:1030700016F1280003F008FA12E0022C06D16A4685
:1030800008A916F14C0003F0FFF909E0032C07D161
:103090001CAA04A916F1700003F0F6F900E0FFE79E
:1030A00030B0BDEC048BBDE8F1830000F456002085
:1030B0007B14AE47E17A843FF8B52DED0C8B88B0D8
:1030C0000600F0EE409AB0EE60AAB0EE418AF0EE53
:1030D000618AB0EE429ADFF8247A97ED000ADFEDBC
:1030E000C40AC0EE20AA9FEDC3BA2AEE290AF0EE68
:1030F000080A80EE200A78EE40BA2AEE290AF0EE9D
:10310000080A80EE200AF0EE000AB0EE48CA00EE8F
:1031100020CA0024042C0ADAB7EE000A242000FB9F
:1031200004F03044001D03F0C0F9641CF2E7B7EE70
:1031300000DAF0EE4DCA3078002840F09E8002227E
:103140000021B0EE000AC9EE000AB0EE000A88EED7
:10315000800A3000FFF7DCFD02220121B0EE000AF8
:10316000C9EE000AB0EE000A88EE800A3000FFF7D0
:10317000CFFD02220221B0EE000AC9EE000AB0EE35
:10318000000A88EE800A3000FFF7C2FD0222032108
:10319000B0EE000AC9EE000AB0EE000A88EE800A1E
:1031A0003000FFF7B5FD0024042C4ADA684600EB36
:1031B000840204A800EB8401B0EE6A0A242000FB1C
:1031C00004F03044001D03F073F9022C1BDADFF821
:1031D000380900EBC401091D00EBC4006A4602EB8C
:1031E000840292ED000A7BEEC00A04AA02EB84027C
:1031F00092ED000A02F0A4FE012820D09FEDDE0A25
:10320000FFF71EFD68E2DFF8000900EBC401091DAD
:1032100000EBC4006A4602EB840292ED000A7CEEE9
:10322000400A04AA02EB840292ED000A02F088FE32
:10323000012804D09FEDD00AFFF702FD4CE2641C88
:10324000B2E70023F1EE040A9FEDCC0ADFF8B028C4
:10325000DFF8B018DFF8B008FCF7A8FF97ED000A18
:10326000DFED630AB4EE600AF1EE10FAC0F23482C8
:1032700001203070002038602EE23078012840F0C4
:103280008181F5EE40AAF1EE10FA1BDBF4EE4DAAB7
:10329000F1EE10FA16D500220021F0EE490AB0EE48
:1032A000680A3000FFF734FD00220221F0EE490ADF
:1032B000B0EE680A3000FFF72BFD8AEE8D0AB0EE03
:1032C00040BA3AE0F4EE4DAAF1EE10FA35DB9FED8C
:1032D000AC0AF4EE40AAF1EE10FA2ED5012200213C
:1032E000F0EE490AB0EE680A3000FFF711FD012246
:1032F0000221F0EE490AB0EE680A3000FFF708FD3F
:103300003AEECD0A10EE100A02F076FF04000D002E
:103310001DEE100A02F070FF02000B0000205FF0AB
:10332000804103F0F7FA02000B002000290002F0B0
:1033300087FF01F035F80BEE100A6A4604A9B0EEDB
:103340004B0A301D03F0B4F802AA06A9B0EE4B0AEE
:1033500016F14C0003F0ACF8F5EE40AAF1EE10FACD
:103360004ADB1DEE100A02F047FF02000B000020AE
:103370005FF0804103F0CEFA02000B0014001D0044
:103380001AEE900A02F038FF22002B0003F034FB03
:1033900032D200220121F0EE490AB0EE680A300074
:1033A000FFF7B6FC00220321F0EE490AB0EE680AEE
:1033B0003000FFF7ADFC1AEE900A02F01DFF04008A
:1033C0000D001DEE100A02F017FF02000B00002096
:1033D0005FF0804103F09EFA02000B0020002900FC
:1033E00002F02EFF00F0DCFF0BEE100A50E000BFF1
:1033F00000007A44000000001DEE100A02F0FCFEFE
:1034000002000B0000205FF0804103F083FA02000D
:103410000B0014001D001AEE900A02F0EDFE2200CF
:103420002B0003F001FB33D89FED550AF4EE40AAC0
:10343000F1EE10FA2CD501220121F0EE490AB0EE8E
:10344000680A3000FFF764FC01220321F0EE490A0C
:10345000B0EE680A3000FFF75BFC3AEE8D0A10EE22
:10346000100A02F0C9FE00225FF0404303F094F915
:1034700004000D001DEE100A02F0BEFE02000B005B
:103480002000290002F0DCFE00F08AFF0BEE100A9B
:1034900001AA05A9B0EE4B0A16F1280003F008F8BE
:1034A00003AA07A9B0EE4B0A16F1700003F000F86A
:1034B0000024042C3BDA022C1BDADFF84C0600EB6C
:1034C000C401091D00EBC4006A4602EB840292EDC0
:1034D000000A7BEEC00A04AA02EB840292ED000A05
:1034E00002F02EFD012820D09FED230AFFF7A8FB54
:1034F000F2E0DFF8140600EBC401091D00EBC40084
:103500006A4602EB840292ED000A7CEE400A04AAAD
:1035100002EB840292ED000A02F012FD012804D0B1
:103520009FED150AFFF78CFBD6E0641CC1E7002372
:10353000F1EE040A9FED110ADFF8C425DFF8C41587
:10354000DFF8C405FCF732FE97ED000ADFED9B0AB9
:10355000B4EE600AF1EE10FAC0F2BE80DFF8B00BF4
:103560000168012940F0B88002213170002101601A
:1035700000203860B0E000BFABAAAA3E0000C842FD
:10358000010000403078022840F09D800222002196
:10359000B0EE000AC9EE000AB0EE000A88EE800A1A
:1035A0003000FFF7B5FB02220121B0EE000AC9EEA0
:1035B000000AB0EE000A88EE800A3000FFF7A8FB90
:1035C00002220221B0EE000AC9EE000AB0EE000AA3
:1035D00088EE800A3000FFF79BFB02220321B0EE49
:1035E000000AC9EE000AB0EE000A88EE800A300038
:1035F000FFF78EFB0024042C4ADA684600EB8402B5
:1036000004A800EB8401B0EE6A0A242000FB04F059
:103610003044001D02F04CFF022C1BDADFF8E804F6
:1036200000EBC401091D00EBC4006A4602EB8402F2
:1036300092ED000A7BEEC00A04AA02EB840292ED2E
:10364000000A02F07DFC012820D09FED640AFFF7FC
:10365000F7FA41E0DFF8B00400EBC401091D00EB0C
:10366000C4006A4602EB840292ED000A7CEE400A36
:1036700004AA02EB840292ED000A02F061FC012828
:1036800004D09FED560AFFF7DBFA25E0641CB2E791
:103690000023F1EE040A9FED4A0ADFF86424DFF804
:1036A0006414DFF86404FCF781FD97ED000ADFED98
:1036B000450AB4EE600AF1EE10FA0DDB032030701B
:1036C0000020386008E03078032804D19FED430AD9
:1036D000FFF7B6FA00E0FFE708B0BDEC0C8BF1BDD8
:1036E00010B52DED088BB0EE408ADFED379A29EE4C
:1036F00088AA9FED36BB1AEE100A02F07DFD53EC4E
:103700001B2B00F05FFD00F04BFE08EE900AB1EEBF
:103710004A0A10EE100A02F06FFD53EC1B2B00F06A
:1037200051FD00F03DFE09EE100A0024042C2FDAB2
:10373000012C01D0022C14D1DFF8E40900EBC40104
:10374000091D00EBC400194A92ED000A70EE680AE8
:103750009FED200A02F0F4FB012817D0FCF72CFEA5
:1037600021E0DFF8BC0900EBC401091D00EBC40037
:103770000E4A92ED000A70EE490A9FED160A02F019
:10378000DFFB012802D0FCF717FE0CE0641CCDE73C
:103790000023F1EE040A9FED100AD94AD949DFF857
:1037A0008009FCF703FDBDEC088B10BD2004002050
:1037B0004D6250BFFCA9F1D24D62503F0000FA4467
:1037C0000000C84200007A443333B33E00000000DA
:1037D0000000E03F0000000000004842ABAAAA3E03
:1037E0002DE9F8432DED0A8BA8B00600B0EE408A13
:1037F000F0EE608A0C0015009FEDC49A9FEDC4ABFB
:1038000019EE100A02F0F8FC8046894618EE900A7C
:1038100002F0F2FC53EC1A2B00F0D4FC42464B466B
:1038200002F0BAFF00F0BCFD09EE900A19EE100A92
:1038300002F0E2FC8046894618EE900A02F0DCFCB9
:1038400053EC1A2B00F0BEFC02000B004046494628
:1038500003F060F800F0A4FD0AEE100A24A810217D
:1038600002F0C6FC24A880ED028A80ED038A20A81D
:10387000102102F0BDFC20A8B1EE480A80ED020A3A
:10388000B1EE480A80ED030AB1EE480AF0EE000AF4
:1038900080EE200A8DED1C0A1CA8B1EE480AF0EE5D
:1038A000000A80EE200A80ED010AB0EE000A88EEE0
:1038B000000A80ED020AB0EE000A88EE000A80EDF0
:1038C000030AB0EE000A88EE000A8DED180A18A867
:1038D000B0EE000A88EE000A80ED010AB1EE480A57
:1038E000F0EE000A80EE200A80ED020AB1EE480AEE
:1038F000F0EE000A80EE200A80ED030A04A81021F1
:1039000002F076FC8DED048A8DED058A6846102163
:1039100002F06EFCB1EE480A8DED000AB1EE480AE5
:103920008DED010ACDED149A9FED7BBB14AF19EE1E
:10393000900A02F061FC53EC1B2B02F02DFF00F00B
:103940002FFD78609FED77CB19EE900A02F054FCC2
:1039500053EC1C2B02F020FF00F022FDB860C7EDF5
:10396000039A8DED10AA10AF1AEE100A02F044FC73
:1039700053EC1B2B02F010FF00F012FD78601AEEE2
:10398000100A02F039FC53EC1C2B02F005FF00F08A
:1039900007FDB86087ED03AACDED0C9A0CA8C0ED29
:1039A000019AC0ED029AC0ED039A8DED08AA08A80D
:1039B00080ED01AA80ED02AA80ED03AA30780028EC
:1039C00022D1002C05D114AA24A9301D02F05CFDDF
:1039D0008FE0012C06D108AA20A916F1280002F0D8
:1039E00053FD86E0022C06D110AA24A916F14C0042
:1039F00002F04AFD7DE0032C7BD10CAA20A916F130
:103A0000700002F041FD74E0307801284AD1002DA9
:103A100022D1002C05D10CAA18A9301D02F034FDCA
:103A200067E0012C06D110AA1CA916F1280002F0AB
:103A30002BFD5EE0022C06D108AA18A916F14C0055
:103A400002F022FD55E0032C53D114AA1CA916F153
:103A5000700002F019FD4CE0012D22D1002C05D19F
:103A600014AA1CA9301D02F00FFD42E0012C06D162
:103A700008AA18A916F1280002F006FD39E0022C68
:103A800006D110AA1CA916F14C0002F0FDFC30E092
:103A9000032C2ED10CAA18A916F1700002F0F4FC28
:103AA00027E026E03078022822D1002C05D10CAA8C
:103AB00004A9301D02F0E8FC1BE0012C06D110AA7D
:103AC000694616F1280002F0DFFC12E0022C06D154
:103AD00008AA04A916F14C0002F0D6FC09E0032C58
:103AE00007D114AA694616F1700002F0CDFC00E07F
:103AF000FFE728B0BDEC0A8BBDE8F183EC5600204F
:103B0000BC5500209C5500207C55002098DD533E7C
:103B1000000000000000E03F7B14AE47E17AA4BF44
:103B200094E600087B14AE47E17A94BFF8B52DED1A
:103B30000A8B88B00600F0EE409AB0EE60AAB0EEB4
:103B4000418AF0EE618AB0EE429ADFF8D87597EDBF
:103B5000000ADFEDB90AC0EE20AA9FEDB8BA002432
:103B6000042C0ADAB7EE000A242000FB04F03044EB
:103B7000001D02F09AFC641CF2E7B7EE00CAF0EEFA
:103B80004CBA3078002840F09C8002220021B0EE30
:103B9000000AC9EE000AB0EE000A88EE800A300082
:103BA000FFF71EFE02220121B0EE000AC9EE000A54
:103BB000B0EE000A88EE800A3000FFF711FE022204
:103BC0000221B0EE000AC9EE000AB0EE000A88EE4B
:103BD000800A3000FFF704FE02220321B0EE000A43
:103BE000C9EE000AB0EE000A88EE800A3000FFF746
:103BF000F7FD0024042C48DA684600EB840204A890
:103C000000EB8401B0EE6A0A242000FB04F030448B
:103C1000001D02F04DFC012C01D0022C19D1DFF85F
:103C2000000500EBC401091D00EBC4006A4602EB6D
:103C30008402D2ED000A04AA02EB840292ED000A8B
:103C400002F07EF901281ED09FEDD90AFFF748FD4A
:103C500057E2DFF8CC0400EBC401091D00EBC400FF
:103C60006A4602EB8402D2ED000A04AA02EB840247
:103C700092ED000A02F064F9012804D09FEDCC0A0D
:103C8000FFF72EFD3DE2641CB4E70023F1EE040AC9
:103C90009FEDC80ADFF89024DFF89014DFF8800465
:103CA000FCF784FA97ED000ADFED630AB4EE600AD0
:103CB000F1EE10FAC0F22582012030700020386049
:103CC0001FE23078012840F07981F5EE40AAF1EE4C
:103CD00010FA1BDBF4EE4CAAF1EE10FA16D5002216
:103CE0000021F0EE490AB0EE680A3000FFF778FDD7
:103CF00000220221F0EE490AB0EE680A3000FFF718
:103D00006FFD8AEE8C0AB0EE40BA3AE0F4EE4CAAAF
:103D1000F1EE10FA35DB9FEDA80AF4EE40AAF1EEC1
:103D200010FA2ED501220021F0EE490AB0EE680A01
:103D30003000FFF755FD01220221F0EE490AB0EEF6
:103D4000680A3000FFF74CFD3AEECC0A10EE100A7C
:103D500002F052FA04000D001CEE100A02F04CFAB8
:103D600002000B0000205FF0804102F0D3FD020052
:103D70000B002000290002F063FA00F011FB0BEEAB
:103D8000100A6A4604A9B0EE4B0A301D02F090FBFF
:103D900002AA06A9B0EE4B0A16F14C0002F088FB0D
:103DA000F5EE40AAF1EE10FA4ADB1CEE100A02F022
:103DB00023FA02000B0000205FF0804102F0AAFD10
:103DC00002000B0014001D001AEE900A02F014FA13
:103DD00022002B0002F010FE32D200220121F0EE70
:103DE000490AB0EE680A3000FFF7FAFC002203210E
:103DF000F0EE490AB0EE680A3000FFF7F1FC1AEE67
:103E0000900A02F0F9F904000D001CEE100A02F00D
:103E1000F3F902000B0000205FF0804102F07AFD10
:103E200002000B002000290002F00AFA00F0B8FAA4
:103E30000BEE100A50E000BF00007A4400000000C2
:103E40001CEE100A02F0D8F902000B0000205FF00F
:103E5000804102F05FFD02000B0014001D001AEE0D
:103E6000900A02F0C9F922002B0002F0DDFD33D8E0
:103E70009FED510AF4EE40AAF1EE10FA2CD5012282
:103E80000121F0EE490AB0EE680A3000FFF7A8FC05
:103E900001220321F0EE490AB0EE680A3000FFF774
:103EA0009FFC3AEE8C0A10EE100A02F0A5F90022EF
:103EB0005FF0404302F070FC04000D001CEE100A9D
:103EC00002F09AF902000B002000290002F0B8F974
:103ED00000F066FA0BEE100A01AA05A9B0EE4B0A33
:103EE00016F1280002F0E4FA03AA07A9B0EE4B0A83
:103EF00016F1700002F0DCFA0024042C37DA012CF1
:103F000001D0022C18D1864800EBC401091D00EB3A
:103F1000C4006A4602EB8402D2ED000A04AA02EB56
:103F2000840292ED000A02F00BF801281DD09FEDEB
:103F3000200AFFF7D5FBE4E0794800EBC401091D36
:103F400000EBC4006A4602EB8402D2ED000A04AA28
:103F500002EB840292ED000A01F0F2FF012804D086
:103F60009FED130AFFF7BCFBCBE0641CC5E7002301
:103F7000F1EE040A9FED0F0A6B4A6C496848FCF7A2
:103F800015F997ED000ADFED610AB4EE600AF1EE73
:103F900010FAC0F2B6805E480168012940F0B18095
:103FA000022131700021016000203860A9E000BFCB
:103FB000302A893E0000C8420100004030780228C3
:103FC00040F0968002220021B0EE000AC9EE000AFD
:103FD000B0EE000A88EE800A3000FFF701FC0222F2
:103FE0000121B0EE000AC9EE000AB0EE000A88EE28
:103FF000800A3000FFF7F4FB02220221B0EE000A33
:10400000C9EE000AB0EE000A88EE800A3000FFF721
:10401000E7FB02220321B0EE000AC9EE000AB0EE6F
:10402000000A88EE800A3000FFF7DAFB0024042C37
:1040300046DA684600EB840204A800EB8401B0EE87
:104040006A0A242000FB04F03044001D02F030FA1C
:10405000012C01D0022C18D1314800EBC401091DFC
:1040600000EBC4006A4602EB8402D2ED000A04AA07
:1040700002EB840292ED000A01F062FF01281DD0DC
:104080009FED240AFFF72CFB3BE0254800EBC40121
:10409000091D00EBC4006A4602EB8402D2ED000A5F
:1040A00004AA02EB840292ED000A01F049FF012804
:1040B00004D09FED180AFFF713FB22E0641CB6E75B
:1040C0000023F1EE040A9FED140A174A1749144819
:1040D000FCF76CF897ED000ADFED100AB4EE600A09
:1040E000F1EE10FA0DDB032030700020386008E09C
:1040F0003078032804D19FED070AFFF7F1FA00E0BA
:10410000FFE708B0BDEC0A8BF1BD00000000FA44E7
:10411000F4560020302A893E0000C84200007A444C
:104120007C550020EC560020BC5500209C550020FA
:10413000014648B1B0FA80F18840C91CC1F58461DC
:10414000090501EBD02140057047F0B40246106824
:1041500095681318506803EB5004C0071DD54D44F3
:104160001BE013F8017B05F8017B491EF9D1A0B1D2
:10417000B60813F8011B06F00306032E08BF13F858
:10418000016B01EB06214942801C294405D011F83E
:10419000016B05F8016B401EF9D1A3420ED013F854
:1041A000016B16F0030104BF13F8011BC91C300991
:1041B0000F28DAD113F8010B0F30D6E7F0BC02F16B
:1041C0000C007047B0B581EA030C0CF0004C40F2D3
:1041D000FF7515EA11541DBF15EA1357AC42AF42E3
:1041E00039E0E41923EA455343F48013C90241F04E
:1041F000004141EA505EC7021100A7FB02020028FD
:104200004FF00000EEFB01204FF00001E3FB07211F
:1042100018BF42F00102401800214941E3FB0E01A2
:10422000A4F580640F0302D252004041494154F189
:1042300001046CDD470872F1004250F1000051EBBF
:104240000451A1F580115CBF41EA0C01B0BD4CEAFC
:1042500005510020B0BD05EA1357AC4214BFAF4270
:1042600041E050EA410E1CBF52EA430E02E06146B3
:104270000020B0BD24423C441BD15FEA070EF6D0BB
:10428000090302BF01460020AEF1140EB1FA81F716
:10429000AEEB070401FA07FE0C37C7F1200100FA64
:1042A00007F7C8404EEA000E23EA455343F4801353
:1042B000A2E733F00043B3FA83F704BFB2FA82FEF9
:1042C00077440B3FE41BB7F1200E2FBF02FA0EF329
:1042D000BB40C7F1200E22FA0EFE38BF43EA0E03A0
:1042E000BA40641C82E750EA410E14BF52EA430E02
:1042F0006FF000014FF4001717EB430F8ABF194608
:1043000017EB410FB5E74CEA05510020B0BDD4F1E1
:104310000104B4F120070FDAC4F12007520828BFC6
:1043200042F0010210FA07F501FA07F7E1BF2A434C
:10433000E0403843E1400FE0352C98DCC7F1200421
:1043400052EA400220FA07F218BF42F0010231FAA5
:1043500007F0A1400A43002172F1004250F1000031
:1043600051EB0C01B0BD30B4002513E050F8042B24
:10437000D30744BFA9F101039A18091F042942F881
:10438000045BFAD213468C0744BF15809B1CC907F7
:1043900048BF1D7050F8041B0029E7D130BC70479E
:1043A00001F000428B1AA3F16051B1F5801F0ADBC6
:1043B000B1F17F6F1FD242EAC102C10071F1004129
:1043C00042EB507070470B15C3F10903212B10D23B
:1043D000890241EA905180020128494141F000419F
:1043E00021FA03F0C3F12003994071F100415041DB
:1043F0007047100070476FF0000013EB103F5CBF78
:10440000000E42EAC050704710B50400002C01D1E4
:1044100001205FE0606A002806D16068B0F5827F05
:1044200006D00020E06103E00020206100206061F0
:104430000020A06294F85100002805D1002084F8E3
:104440005000200002F07FFB022084F85100206819
:10445000006830F0400021680860606810F48270E5
:10446000A16811F404410843E16811F400610843B4
:10447000217C11F002010843217D11F00101084364
:10448000A16911F400710843217F11F0380108433C
:1044900094F8201011F080010843A16A11F4005132
:1044A000084321680860A069000C10F0040094F82B
:1044B000241011F010010843216848602068C06989
:1044C00030F400602168C86100206065012084F834
:1044D0005100002010BD2DE9F84306000D00170023
:1044E0001C0002F075FB8046B94696F85100012881
:1044F00001D00220CDE0002D03D0380080B200288A
:1045000001D10120C5E096F85000012801D1022018
:10451000BFE0012086F85000032086F851000020FB
:1045200070653563B786F7860020B0630020B087DA
:104530000020F0870020706400203064B068B0F57F
:10454000004F0BD13068006830F0400031680860DF
:104550003068006850F48040316808603068006856
:10456000400605D43068006850F0400031680860AB
:10457000F068B0F5006F35D17068002803D0484668
:1045800080B2012809D1306B00883168C860306B77
:10459000801C3063F08E401EF086F08E002857D0CD
:1045A0003068806880070AD5306B00883168C86041
:1045B000306B801C3063F08E401EF086EDE702F019
:1045C00007FBB0EB0800A04202D314F1010F01D1A8
:1045D000002CE2D1012086F85100002086F850001E
:1045E000032056E07068002803D0484680B20128B6
:1045F00009D1306B007831680873306B401C306330
:10460000F08E401EF086F08E002821D03068806841
:1046100080070AD5306B007831680873306B401C16
:104620003063F08E401EF086EDE702F0D1FAB0EB79
:104630000800A04202D314F1010F01D1002CE2D1F5
:10464000012086F85100002086F85000032020E069
:1046500042462100300000F02CF9002801D0202033
:104660007065B068002808D1002000903068C068EC
:1046700000903068806800900098012086F8510012
:10468000002086F85000706D002801D0012000E065
:104690000020BDE8F2837CB50400206845682068EE
:1046A000866816F04100012805D1680603D5200070
:1046B000216C884782E0B00705D5280603D5200085
:1046C000616C88477AE016F4B07F77D0A80675D57C
:1046D00070061BD594F8510003280DD0606D50F082
:1046E00004006065002000902068C0680090206889
:1046F00080680090009809E0002000902068C06861
:104700000090206880680090009857E0B0060FD5B0
:10471000606D50F0010060650020009020688068A6
:1047200000902068006830F0400021680860009820
:10473000F00509D5606D50F008006065002000901C
:104740002068806800900098606D002835D020684F
:10475000406830F0E00021684860012084F8510092
:1047600015F0030F26D0206840688008800021687B
:104770004860E06C00280CD00FF24500E16C086541
:10478000E06C02F030FB002803D0606D50F0400078
:104790006065A06C002810D00FF22500A16C0865A0
:1047A000A06C02F020FB002807D0606D50F04000A4
:1047B000606502E0200002F0B5FCFFE773BD000079
:1047C00038B50400A56B0020E8870020E8862800A3
:1047D00002F0A8FC31BD00002DE9FC4705000E00E9
:1047E00017009846DDF8289002F0F2F90400B8EBC3
:1047F000040419EB040402F0EBF98246DFF83401FB
:1048000000684001000D00FB04F0009028688068FB
:104810003040B04201D1012000E000203900C9B28F
:10482000884243D018F1010FF0D002F0D1F9B0EB7B
:104830000A00A04201D2002C2FD12868406830F035
:10484000E000296848606868B0F5827F0DD1A868EB
:10485000B0F5004F03D0A868B0F5806F05D1286887
:10486000006830F0400029680860A86AB0F5005F71
:104870000BD12868006830F4005029680860286867
:10488000006850F4005029680860012085F8510044
:10489000002085F85000032009E00098002801D18D
:1048A000002004000098401E0090AFE70020BDE803
:1048B000F6877CB504000D00160000962B0001223F
:1048C00002212000FFF788FF002805D0606D50F01E
:1048D00020006065032029E0154800681821B0FB1E
:1048E000F1F01549B0FBF1F14FF47A7041430191B9
:1048F0006068B0F5827F0ED100962B0000228021E7
:104900002000FFF769FF00280FD0606D50F02000F5
:10491000606503200AE00198002806D00198401E37
:104920000190206880680006F5D4002076BD000064
:10493000540400205404002040420F000100DFED29
:10494000692AB4EE620AF1EE10FA06DA9FED663AD1
:10495000B4EE430AF1EE10FA01D500203EE0F4EE89
:10496000620AF1EE10FA04DAF4EE430AF1EE10FAFC
:1049700001D5002032E0DFED5D3AB4EE631AF1EECE
:1049800010FA04DAB5EE401AF1EE10FA01D5002063
:1049900024E0DFED573AF4EE631AF1EE10FA04DA90
:1049A000F5EE401AF1EE10FA01D5002016E0B4EE53
:1049B000622AF1EE10FA04DAB4EE432AF1EE10FAAC
:1049C00001D500200AE081ED030AC1ED040A81ED62
:1049D000051AC1ED061A81ED072A0120704738B586
:1049E0002DED068B04000D00B0EE408AF0EE608ADB
:1049F000B0EE419AF0EE619AB0EE42AA25712078AD
:104A00002072B0EE4A2AF0EE691AB0EE491AF0EEC2
:104A1000680AB0EE480A2000FFF790FF002801D195
:104A2000002000E00120BDEC068B32BD0171027850
:104A30000272704738B52DED028B04000D009FED1A
:104A40002A8ADFED698A1020B0EE681AF0EE480A73
:104A500094ED010A02F068FBA8600E20B0EE681A1F
:104A6000F0EE480A94ED020A02F05EFBE8600A20CC
:104A70009FED6D1ADFED6D0A94ED030A02F054FB11
:104A8000286108209FED6A1ADFED680A94ED040A98
:104A900002F04AFB68611020B0EE681AF0EE480A96
:104AA00094ED050A02F040FBA861A8682870A86888
:104AB000000A6870E868A870E868000A10F03F0013
:104AC000296950EA8110E8702869800828716869AE
:104AD0006871A869A871A869000AE871BDEC028B29
:104AE00031BD000001002042000020C201C07F440F
:104AF00001004C421300DBB20A2B06D143880B7035
:104B000043889BB21B0A4B7007E01300DBB2092BF2
:104B100003D103780B7000234B7070470A784B78F1
:104B200052EA032202808A788270CA78C2700A79B7
:104B30004B7952EA032282808A79CB7952EA0322A6
:104B4000C28070470A78027070470A78012A02D141
:104B50000122028025E00A78022A02D10222028084
:104B60001FE00A78042A02D10422028019E00A78A0
:104B7000082A02D10822028013E00A78102A02D102
:104B8000102202800DE00A78202A02D12022028021
:104B900007E00A78402A02D14022028001E0002288
:104BA0000280704738B504000D002079042805D133
:104BB000291D14F10800FFF73DFF0CE020790A28B9
:104BC00002D02079092806D1227915F13C0114F18F
:104BD0003400FFF78FFF31BD01000879097850EAF2
:104BE000411080B27047000000002042F8B5040078
:104BF0000D001600257084F8466002212000FFF7A2
:104C000015FFDFF84C76201DFFF7E6FF3880002007
:104C1000B87094F84610380002F0B0FA002801D1BC
:104C2000002000E00120F2BD00C07F440000000031
:104C300000004C4238B52DED048B0400B0EE408AE4
:104C4000F0EE608AB0EE419A9FEDAE2AF0EE491A7E
:104C5000B0EE681ADFEDAB0AB0EE480A042120007E
:104C6000FFF7BDFE002801D1002015E0DFF8E05578
:104C7000201DFFF7B1FF28800820A8702900200020
:104C8000FFF790FF94F84610280002F077FA00280A
:104C900001D1002000E00120BDEC048B32BD0000FA
:104CA00038B52DED028B0400B0EE408AF0EE608A3C
:104CB0009FED942AF0EE681A9FED921AF0EE480AE2
:104CC0009FED900A04212000FFF789FE002801D102
:104CD000002015E0DFF87855201DFFF77DFF2880C4
:104CE0000820A87029002000FFF75CFF94F8461008
:104CF000280002F043FA002801D1002000E0012042
:104D0000BDEC028B32BD000038B52DED028B0400E6
:104D1000B0EE408AB0EE482ADFED7A1A9FED791A9C
:104D2000DFED780A9FED770A04212000FFF757FE98
:104D3000002801D1002015E0DFF81455201DFFF7F1
:104D40004BFF28800820A87029002000FFF72AFFC9
:104D500094F84610280002F011FA002801D1002032
:104D600000E00120BDEC028B32BD000038B52DED16
:104D7000028B0400B0EE408A9FED622AF0EE481AE2
:104D80009FED601ADFED5F0A9FED5E0A04212000AF
:104D9000FFF725FE002801D1002015E0DFF8B05410
:104DA000201DFFF719FF28800820A8702900200087
:104DB000FFF7F8FE94F84610280002F0DFF900280B
:104DC00001D1002000E00120BDEC028B32BD0000CB
:104DD00038B504009FED4B2ADFED4A1A9FED491AC2
:104DE000DFED480A9FED470A04212000FFF7F7FD99
:104DF000002801D1002015E0DFF85454201DFFF7F2
:104E0000EBFE28800820A87029002000FFF7CAFECA
:104E100094F84610280002F0B1F9002801D10020D2
:104E200000E0012032BD000038B52DED048B0400F8
:104E3000B0EE408AF0EE608AB0EE419AF0EE619AF0
:104E4000B0EE682AF0EE691AB0EE491ADFED2D0ACD
:104E5000B0EE480A04212000FFF7C1FD002801D16F
:104E6000002015E0DFF8E853201DFFF7B5FE28808D
:104E70000820A87029002000FFF794FE94F846103F
:104E8000280002F07BF9002801D1002000E0012079
:104E9000BDEC048B32BD000038B52DED048B040051
:104EA000B0EE408AF0EE608AB0EE419AB0EE682A29
:104EB000F0EE491A9FED131AF0EE480A9FED110A21
:104EC00004212000FFF78BFD002801D1002015E010
:104ED000DFF87C53201DFFF77FFE28800820A87094
:104EE00029002000FFF75EFE94F84610280002F02B
:104EF00045F9002801D1002000E00120BDEC048B21
:104F000032BD00000000000038B52DED068B040016
:104F1000B0EE408AF0EE608AB0EE419AF0EE619A0F
:104F2000B0EE42AAB0EE492AF0EE4A1AB0EE691A83
:104F3000F0EE680AB0EE480A04212000FFF74FFDAA
:104F4000002801D1002015E0DFF80453201DFFF7F1
:104F500043FE28800820A87029002000FFF722FEC9
:104F600094F84610280002F009F9002801D1002029
:104F700000E00120BDEC068B32BD000038B52DED00
:104F8000068B0400B0EE408AF0EE608AB0EE419AE3
:104F9000F0EE619AB0EE42AA0D00B0EE492AF0EEB2
:104FA0004A1A9FED851AF0EE680A9FED830A0421E4
:104FB0002000FFF714FD002801D1002078E084F8DC
:104FC00045502800C0B200280BD0022823D016D3A9
:104FD000042834D029D3062849D038D3072854D000
:104FE00065E0B0EE4A1AF0EE690AB0EE480A200019
:104FF000FFF720FE002801D1002059E057E0F0EE35
:105000004A0AB0EE680A2000FFF74AFE002801D1E4
:1050100000204DE04BE0B0EE490A2000FFF774FE9F
:10502000002801D1002043E041E0B0EE4A0A200010
:10503000FFF79CFE002801D1002039E037E0200076
:10504000FFF7C6FE002801D1002031E02FE0F0EE8E
:105050004A1AB0EE691AF0EE490AB0EE480A20008A
:10506000FFF7E2FE002801D1002021E01FE0B0EEB2
:105070004A1AF0EE490AB0EE680A2000FFF70CFF6A
:10508000002801D1002013E011E0B0EE4A2AF0EE32
:10509000691AB0EE491AF0EE680AB0EE480A20002C
:1050A000FFF732FF002801D1002001E0FFE70120D7
:1050B000BDEC068B32BD00002DE9F84F2DED028BC3
:1050C00084B004000D000020029000200190002018
:1050D00000900026002003902F78687857EA002778
:1050E000A878000410F47020074395F802805FFA56
:1050F00088F85FEA18185FFA88F8E87858EA001824
:105100002879000310F47F4050EA080895F80590CC
:10511000A87959EA002995F807A01AF0010A95F82C
:1051200007B05FFA8BFB5FEA5B0B5FFA8BFB9FEDCF
:10513000458ADFED458A1421F0EE680AB0EE480A90
:10514000380002F006F884ED000A1421F0EE680A37
:10515000B0EE480A404601F0FCFF84ED010A102140
:10516000F0EE680AB0EE480A484601F0F2FF84ED1E
:10517000020A84F80CA0207B00280AD10721DFED69
:10518000330ABBEE040A584601F0E3FF84ED040A3B
:105190000CE0207B012809D10721DFED2C0ABBEEB2
:1051A000040A584601F0D5FF84ED040A04B0BDECB2
:1051B000028BBDE8F18F00000000000070B5040014
:1051C0000D0016003000C0B2042806D115F15101BF
:1051D00014F12000FFF770FF1BE03000C0B2182868
:1051E00006D115F1510114F13A00FFF797FC10E0D8
:1051F0003000C0B2172806D115F1510114F1420058
:10520000FFF7A3FC05E015F1510114F14400FFF78D
:1052100099FC70BDF8B504000E4805682E00F6B282
:10522000760915F01F00B0F110073200D2B208491C
:105230003B00DBB24820434304EB03004838FFF750
:10524000BDFFF1BD000020C2000020420000484325
:105250008C520020DC5500202DE9F04F85B006006F
:105260000F0090469946DDF838A00F9C109D002C49
:1052700007D1502080F31188BFF34F8FBFF36F8F9A
:10528000FEE7002D07D1502080F31188BFF34F8F28
:10529000BFF36F8FFEE75C20009000985C2807D07A
:1052A000502080F31188BFF34F8FBFF36F8FFEE75D
:1052B0000098002D19D0002C17D0AB46CBF8304009
:1052C00002208BF8590000200390CDF808B004A804
:1052D0000190CDF800A04B4642463900300000F066
:1052E00047F8584600F0B7F801E000200490049811
:1052F00005B0BDE8F08F2DE9F84F84B006000F002F
:1053000090469946DDF838A0DDF83CB0404680B2C2
:10531000800001F0A5FF0500002D0BD05C2001F0FE
:105320009FFF0400002C01D0256304E0280002F058
:105330002BF800E00024002C15D0002084F8590040
:10534000002003900294CDF804B0CDF800A04B46A5
:10535000424692B23900300000F00AF8200000F016
:105360007AF8012001E05FF0FF3005B0BDE8F08F72
:105370002DE9F94F81B00C0016000C9F0D9DDDF852
:105380003880B00000905FF0A50BD8F830A05A46E6
:105390000099504602F0A8F8D8F8300000EB8600DB
:1053A000B0F1040A5FEADA0A5FEACA0A1AF00700F3
:1053B000002807D0502080F31188BFF34F8FBFF330
:1053C0006F8FFEE7002C15D000208146B9F1100F39
:1053D0000CD214F8090008EB090181F8340014F824
:1053E0000900002802D019F10109EFE7002088F830
:1053F000430002E0002088F83400382F01D3372022
:105400000700C8F82C70C8F84C700020C8F850008D
:1054100018F1040002F0AAF818F1180002F0A6F83A
:10542000C8F81080D7F13800C8F81800C8F82480F0
:105430000020C8F85400002088F85800029A01990A
:10544000504602F0D1F8C8F80000002D01D0C5F890
:105450000080BDE8F78F38B5040002F055F9DFF899
:10546000E8140868401C0860DFF8E0542868002849
:1054700006D12C60086801280DD100F047FB0AE036
:10548000DFF8CC040068002805D1E06A2968C96A01
:10549000884200D32C60DFF8BC040168491C01601D
:1054A00000686064DFF8B0040168E26A914201D2EA
:1054B000E16A0160211DDFF8A424E36A142043435C
:1054C00002EB030002F055F802F038F9DFF880042F
:1054D000006800280DD02868C06AE16A884208D2B6
:1054E0005FF08050DFF858150860BFF34F8FBFF3AF
:1054F0006F8F31BD2DE9F04104000D000026002C16
:1055000007D1502080F31188BFF34F8FBFF36F8F07
:10551000FEE7002D07D1502080F31188BFF34F8F95
:10552000BFF36F8FFEE7DFF8FC040068002807D0A8
:10553000502080F31188BFF34F8FBFF36F8FFEE7CA
:1055400000F0A3F8DFF8E004D0F800802768EF1936
:105550002068804507D2206887420BD2B84509D21F
:105560000120060006E02068874201D3B84501D239
:10557000012006002760002E04D00021B7EB0800B0
:1055800000F08EFC00F087F8002808D15FF0805111
:10559000DFF8AC241160BFF34F8FBFF36F8FBDE80E
:1055A000F08138B505000024002D15D0DFF8740413
:1055B0000068002807D0502080F31188BFF34F8F78
:1055C000BFF36F8FFEE700F060F80021280000F0C5
:1055D00067FC00F060F80400002C08D15FF08050F8
:1055E000DFF85C140860BFF34F8FBFF36F8F31BDDE
:1055F00010B586B0002004900020039005AA03A9EE
:1056000004A802F009FBDFF8B8460498029003985A
:105610000190002000900023059ADFF8A8160FF2F1
:10562000C940FFF719FE20602068002801D001243E
:1056300000E00024012C02D102F0FAFA0400012C4F
:1056400016D1502080F31188BFF34F8FBFF36F8FB7
:105650005FF0FF30DFF8701608600120DFF8F0120D
:1056600008600020DFF8C013086001F0E6FF0AE0E0
:1056700014F1010F07D1502080F31188BFF34F8F31
:10568000BFF36F8FFEE706B010BDDFF89803016827
:10569000491C01607047F8B500250026DFF88443F7
:1056A0002068002807D1502080F31188BFF34F8F66
:1056B000BFF36F8FFEE702F027F82068401E2060DE
:1056C0002068002857D1DFF880020068002852D0F7
:1056D000DFF8E8150868002827D0C868C06805000A
:1056E00015F1180001F06CFF281D01F069FFDFF8CB
:1056F00068020168EA6A914201D2E96A0160291DE3
:10570000DFF85822EB6A1420434302EB030001F058
:1057100030FFE86ADFF834120968C96A8842D7D3D3
:105720000120DFF8A8150860D2E7002D01D000F0B5
:105730005BFADFF838763C68002C0CD000F02BF8D0
:10574000002803D00120DFF884150860641E002CB7
:10575000F4D100203860DFF87405006800280AD012
:10576000012006005FF08050DFF8D4120860BFF31C
:105770004F8FBFF36F8F01F0E1FF3000F2BDDFF814
:10578000A8020068704780B502F002F80021DFF837
:105790009802006802BD2DE9F0410027A148006889
:1057A000002875D1DFF880020468641C0460002CB6
:1057B0001CD1DFF8201308680068002807D05020AB
:1057C00080F31188BFF34F8FBFF36F8FFEE7D1F8DF
:1057D0000080DFF8100302680A60C0F80080DFF87C
:1057E000AC060168491C016000F0FEF9DFF8D884BE
:1057F000D8F80000844238D3DFF8D812086800686F
:10580000002804D15FF0FF30C8F800002DE00868E0
:10581000C068C068050068680600B44202D2C8F8D3
:10582000006022E0281D01F0CBFEA86A002803D00A
:1058300015F1180001F0C4FE47480168EA6A914278
:1058400001D2E96A0160291D444AEB6A14204343EE
:1058500002EB030001F08DFEE86A3C490968C96A61
:105860008842C9D301200700C6E7384800683B4991
:10587000C26A142042438858022801D3012007003D
:10588000DFF848040068002807D00120070004E082
:10589000DFF8D8040168491C01603800BDE8F081D8
:1058A00010B460480068002804D00120DFF81C1400
:1058B00008602CE00020DFF814140860264A106805
:1058C0001423264C03FB00F1615800290BD100285A
:1058D00007D1502181F31188BFF34F8FBFF36F8F32
:1058E000FEE7401EECE703FB00F304EB03014B680B
:1058F0005B684B604B6811F10804A34202D14B680E
:105900005B684B604968C968104B1960106010BC37
:10591000704738B504000D00002C07D1502080F3EB
:105920001188BFF34F8FBFF36F8FFEE7DFF860057D
:10593000006810F11801200001F027FE0121280065
:1059400000F0AEFA31BD0000305700202057002093
:105950003C5700204C570020385700207040002052
:1059600070B505000E001400002D07D1502080F303
:105970001188BFF34F8FBFF36F8FFEE7DFF88C0501
:10598000006810F11801280001F0F3FD002C02D08E
:105990005FF0FF3006002100300000F081FA70BD9A
:1059A00038B50500E868C468002C07D1502080F3A2
:1059B0001188BFF34F8FBFF36F8FFEE714F118000C
:1059C00001F0FEFD17480068002815D1201D01F0E8
:1059D000F7FDDFF8C0040168E26A914201D2E16A92
:1059E0000160211DDFF8B024E36A1420434302EB79
:1059F000030001F0BEFD05E014F11801DFF8BC0260
:105A000001F0B7FDDFF888040068C06AE16A8842E7
:105A100005D201200121DFF8B422116000E000204E
:105A200032BD00005857002034570020DFF85C14C6
:105A300009680160DFF8D814096841607047000008
:105A400004ED00E02DE9F04104000D00002C07D129
:105A5000502080F31188BFF34F8FBFF36F8FFEE7A5
:105A6000002D07D1502080F31188BFF34F8FBFF373
:105A70006F8FFEE701F048FEDFF894040668676860
:105A8000F71B286810F1010F02D15FF000081BE03E
:105A9000DFF8F80300682168884205D06068864214
:105AA00002D35FF001080FE02868874208D2286817
:105AB000C01B28602000FFF7B9FF5FF0000803E07B
:105AC000002028605FF0010801F038FE4046BDE884
:105AD000F0810000245700200120DFF8F011086059
