:020000040800F2
:10000000186E0020D9F8000849F400084BF40008E5
:100010004DF400084FF4000851F4000800000000FF
:1000200000000000000000000000000045A80008DB
:1000300053F4000800000000EDA7000855F4000884
:10004000DDF90008E1F90008E5F90008E9F9000820
:10005000EDF90008F1F90008F5F90008F9F90008D0
:10006000FDF9000801FA000805FA000809FA00087D
:100070000DFA000811FA000815FA000819FA00082C
:100080001DFA000821FA000825FA000829FA0008DC
:1000900069F4000873F400082DFA000831FA00082A
:1000A00035FA000839FA00083DFA000841FA00085C
:1000B0007DF4000845FA000849FA00084DFA0008E6
:1000C00051FA000855FA000859FA00085DFA0008CC
:1000D00061FA000865FA000887F4000891F4000846
:1000E00069FA00086DFA000871FA000875FA00084C
:1000F00079FA00087DFA000881FA000885FA0008FC
:1001000089FA00089BF400088DFA000891FA0008AB
:1001100095FA000899FA00089DFA0008A1FA00086B
:10012000A5FA0008A5F40008A9FA0008ADFA00082D
:10013000B1FA0008B5FA0008B9FA0008BDFA0008DB
:10014000AFF40008B9F40008C1FA0008C5FA0008C5
:10015000C9FA0008CDFA0008D1FA0008C3F4000873
:10016000D5FA0008D9FA0008DDFA0008E1FA00081B
:10017000E5FA0008E9FA0008EDFA000800000000BE
:10018000F1FA0008F5FA0008F9FA0008FDFA00088B
:10019000CDF4000801FB000805FB000809FB00087E
:1001A00000000000000000000DFB00082DE9F843EE
:1001B0002DED028B80460D001600B0EE408AF0EE69
:1001C000608A1F00DFF80C4BD8F808002060D8F8D0
:1001D0000C006060D8F81800A060D8F81C00E0603F
:1001E000A8682061E8686061A869A061E869E061C9
:1001F000B0682062F0686062B069A062F069E06295
:1002000084ED0C8AC4ED0D8A3800C0B204F0F4FC11
:100210000022DFF8C83A04F039FD04F025FEA0639F
:10022000DFF8BC9A4FF47A733C222100484604F070
:10023000B6FED9F8000080680006FAD43800C0B2D3
:10024000002803D03800C0B2052862D1DFF8949AA4
:10025000DFF8944A3900C9B2B0EE682AF0EE481AC5
:1002600096ED011AD5ED010A99ED000AD8ED012AA3
:1002700030EE620A200005F0E5FB012005F0F5FEF6
:100280003900C9B2B0EE682AF0EE481A96ED001AAD
:10029000D5ED000A99ED010AD8ED002A30EE220AC8
:1002A00014F1480005F0CEFB012005F0DEFEDFF87A
:1002B000009DDFF8004D3900C9B2B0EE682AF0EEBB
:1002C000481A96ED051AD5ED050A99ED000AD8ED04
:1002D000052A30EE220A200005F0B4FB012005F0CB
:1002E000C4FE3900C9B2B0EE682AF0EE481A96EDA5
:1002F000041AD5ED040A99ED010AD8ED042A30EE6E
:10030000620A14F1480005F09DFB012005F0ADFEE6
:100310004DE0DFF8D4493900C9B2B0EE682AF0EEFA
:10032000481A96ED011AD5ED010A9FED760A2000D4
:1003300005F088FB012005F098FE3900C9B2B0EE47
:10034000682AF0EE481A96ED001AD5ED000A9FEDE6
:100350006D0A14F1480005F075FB012005F085FEDB
:10036000DFF8504C3900C9B2B0EE682AF0EE481AF6
:1003700096ED051AD5ED050A9FED620A200005F0FD
:1003800061FB012005F071FE3900C9B2B0EE682AA8
:10039000F0EE481A96ED041AD5ED040A9FED590ABD
:1003A00014F1480005F04EFB012005F05EFEBDECA7
:1003B000028BBDE8F183000070B52DED028B0024A7
:1003C000042C13DADFF8F40B00EBC401091D00EB79
:1003D000C400DFF8E42BD2ED000A9FED4A0A06F0D4
:1003E00029FB012840F08A80641CE9E7DFF8E41863
:1003F000DFF8C84BA0680860E0684860A0698860C2
:10040000E069C86004200C2804DA002241F82020AA
:10041000401CF8E79FED3C8A81ED0C8AF1EE048ADE
:10042000C1ED0D8A00208863DFF8B4584FF47A7369
:100430003C22280004F0B3FD286880680006FBD445
:10044000DFF8A458DFF89C680021B0EE682AF0EECF
:10045000481A9FED2C1ADFED2B0A96ED000AD4ED19
:10046000012A30EE620A280005F0ECFA012005F0BE
:10047000FCFD0021B0EE682AF0EE481A9FED211A2B
:10048000DFED200A96ED010AD4ED002A30EE220AB3
:1004900015F1480005F0D6FA012005F0E6FDDFF879
:1004A000145BDFF80C6B0021B0EE682AF0EE481AFE
:1004B0009FED141ADFED130A96ED000AD4ED052A1C
:1004C00030EE220A280005F0BDFA012005F0CDFD2E
:1004D0000021B0EE682AF0EE481A9FED0A1ADFED0F
:1004E000090A96ED010AD4ED042A30EE620A15F1EC
:1004F000480005F0A7FA012005F0B7FDBDEC028B1E
:1005000070BD0000000000000000C842F8B52DEDED
:10051000068BA0B00600B0EE408AF0EE608A0C00B8
:10052000150096F9010009EE100A1CA8102106F02A
:10053000D9FB1CA8B8EEC90A20EE280A80ED020AF1
:10054000B8EEC90A20EE280A80ED030A18A8102187
:1005500006F0C8FB18A8B8EEC90AF1EE680A20EE4A
:10056000800A80ED020AB8EEC90AF1EE680A20EEB0
:10057000800A80ED030A0CA8102106F0B3FBB8EE48
:10058000C90A20EE280A8DED0C0AB8EEC90A20EE41
:10059000280A8DED0D0A08A8102106F0A3FBB8EE7D
:1005A000C90AF1EE680A20EE800A8DED080AB8EE5D
:1005B000C90AF1EE680A20EE800A8DED090AB1EE53
:1005C000680AF0EE000A80EE200AF8EEC90A20EE72
:1005D000200A8DED140A14A8B1EE680AF0EE000AA4
:1005E00080EE200AF8EEC90A20EE200A80ED010A0A
:1005F000B0EE000A88EE800AF8EEC90A20EE200A62
:1006000080ED020AB0EE000A88EE800AF8EEC90A10
:1006100020EE200A80ED030AB0EE000A88EE800A80
:10062000F8EEC90A20EE200A8DED100A10A8B0EEEF
:10063000000A88EE800AF8EEC90A20EE200A80ED52
:10064000010AB1EE680AF0EE000A80EE200AF8EE28
:10065000C90A20EE200A80ED020AB1EE680AF0EE27
:10066000000A80EE200AF8EEC90A20EE200A80ED8A
:10067000030A04A8102106F035FB6846102106F095
:1006800031FB9FED64AB6F4618EE100A06F02EFBAF
:1006900002000B0051EC1A0B04F0F8FADFF82029E5
:1006A000DFF8283906F046FB04F0DEFB786018EE30
:1006B000100A06F01BFB02000B0051EC1A0B04F0B1
:1006C000E5FADFF8FC28DFF8043906F033FB04F024
:1006D000CBFBB8603078002822D1002C05D16A46C7
:1006E0001CA9301D06F04AFC8FE0012C06D104AA9B
:1006F00018A916F1280006F041FC86E0022C06D16C
:100700006A461CA916F14C0006F038FC7DE0032C6B
:100710007BD104AA18A916F1700006F02FFC74E032
:10072000307801284AD1002D22D1002C05D104AA0D
:1007300010A9301D06F022FC67E0012C06D16A46A4
:1007400014A916F1280006F019FC5EE0022C06D16F
:1007500004AA10A916F14C0006F010FC55E0032C79
:1007600053D16A4614A916F1700006F007FC4CE05C
:10077000012D22D1002C05D16A4614A9301D06F0A6
:10078000FDFB42E0012C06D104AA10A916F12800B5
:1007900006F0F4FB39E0022C06D16A4614A916F1E2
:1007A0004C0006F0EBFB30E0032C2ED104AA10A97C
:1007B00016F1700006F0E2FB27E026E03078022810
:1007C00022D1002C05D104AA0CA9301D06F0D6FBBD
:1007D0001BE0012C06D16A4608A916F1280006F094
:1007E000CDFB12E0022C06D104AA0CA916F14C0094
:1007F00006F0C4FB09E0032C07D16A4608A916F1EC
:10080000700006F0BBFB00E0FFE720B0BDEC068BFC
:10081000F1BD00000AD7A3703D0AB73F70B52DEDBA
:10082000088B88B00400F0EE408AB0EE609AB0EE1B
:10083000418A04A8102106F055FA6846102106F0F6
:1008400051FA0025042D0ADAB7EE000A242000FB35
:1008500005F02044001D06F0A2FB6D1CF2E7DFF856
:100860000C5C95ED000ADFEDCE0AC0EE209A9FEDFC
:10087000CDAAB7EE00BAF0EE4BAA2078002840F0DF
:10088000818002220021B0EE000AC9EE000AB0EE1B
:10089000680A2000FFF73AFE02220121B0EE000AAA
:1008A000C9EE000AB0EE680A2000FFF72FFE022210
:1008B0000221B0EE000AC9EE000AB0EE680A20007C
:1008C000FFF724FE02220321B0EE000AC9EE000A5F
:1008D000B0EE680A2000FFF719FE0026042E30DA79
:1008E000684600EB860204A800EB8601B0EE690AB8
:1008F000242000FB06F02044001D06F053FBDFF827
:10090000BC0600EBC601091D00EBC6006A4602EBFF
:10091000860292ED000A78EE400A04AA02EB8602F3
:1009200092ED000A06F086F8012808D00320207016
:1009300000202860DFF83C0B00210160C1E1761C3B
:10094000CCE70023F1EE040A9FEDD20ADFF8282B52
:10095000DFF8281BDFF86406FFF728FC95ED000A96
:10096000DFED8F0AB4EE600AF1EE10FAC0F2A98151
:100970000120207000202860DFF8F80ADFF8001B53
:1009800001609EE12078012840F00E81F5EE409A4A
:10099000F1EE10FA1BDBF4EE4B9AF1EE10FA16D5DD
:1009A00000220021F0EE490AB0EE680A2000FFF7AD
:1009B000ADFD00220221F0EE490AB0EE680A2000E7
:1009C000FFF7A4FD89EE8B0AB0EE40AA27E0F4EE13
:1009D0004B9AF1EE10FA22DB9FEDBC0AF4EE409A3E
:1009E000F1EE10FA1BD501220021F0EE490AB0EE1B
:1009F000680A2000FFF78AFD01220221F0EE490A71
:100A0000B0EE680A2000FFF781FD39EECB0AF0EE68
:100A1000000A70EECB0A80EE200AB0EE40AA6A46C9
:100A200004A9B0EE4A0A201D06F0BCFA02AA06A9E3
:100A3000B0EE4A0A14F14C0006F0B4FAF5EE409A12
:100A4000F1EE10FA23DBB0EE000A30EE4B0AF4EEC2
:100A5000409AF1EE10FA1AD500220121F0EE490A6F
:100A6000B0EE680A2000FFF751FD00220321F0EEEE
:100A7000490AB0EE680A2000FFF748FDB0EE000A10
:100A800030EE4B0A89EE800AB0EE40AA2BE0B0EEC1
:100A9000000A30EE4B0AF4EE409AF1EE10FA22DB37
:100AA0009FED8A0AF4EE409AF1EE10FA1BD501226E
:100AB0000121F0EE490AB0EE680A2000FFF726FD9A
:100AC00001220321F0EE490AB0EE680A2000FFF788
:100AD0001DFD39EE8B0AF8EE000A30EE200A80EE9A
:100AE0000B0AB0EE40AA01AA05A9B0EE4A0A14F119
:100AF000280006F057FA03AA07A9B0EE4A0A14F133
:100B0000700006F04FFA0026042E21DADFF8AC045C
:100B100000EBC601091D00EBC6006A4602EB860227
:100B200092ED000A78EE400A04AA02EB860292EDEA
:100B3000000A05F07FFF012808D003202070002064
:100B40002860DFF8300900210160BAE0761CDBE79D
:100B50000023F1EE040A9FED4F0ADFF81C29DFF8AD
:100B60001C19DFF85804FFF721FB95ED000ADFEDB3
:100B7000580AB4EE600AF1EE10FAC0F2A280DFF873
:100B800008090168012903D10221217000210160B7
:100B900000202860DFF8DC08DFF8E418016090E04E
:100BA00000007A44000000002078022840F0828093
:100BB00002220021B0EE000AC9EE000AB0EE680A77
:100BC0002000FFF7A3FC02220121B0EE000AC9EECB
:100BD000000AB0EE680A2000FFF798FC022202210A
:100BE000B0EE000AC9EE000AB0EE680A2000FFF776
:100BF0008DFC02220321B0EE000AC9EE000AB0EE1D
:100C0000680A2000FFF782FC0026042E30DA6846CE
:100C100000EB860204A800EB8601B0EE690A2420EE
:100C200000FB06F02044001D06F0BCF9DFF88C0341
:100C300000EBC601091D00EBC6006A4602EB860206
:100C400092ED000A78EE400A04AA02EB860292EDC9
:100C5000000A05F0EFFE012808D0032020700020D4
:100C60002860DFF81008002101602AE0761CCCE73C
:100C70000023F1EE040A9FED070ADFF8FC27DFF8F6
:100C8000FC17CE48FFF792FA95ED000ADFED120A45
:100C900002E000BF0000C842B4EE600AF1EE10FAB4
:100CA0000FDB0320207000202860DFF8C807002138
:100CB000016006E02078032802D1FFF77DFB00E009
:100CC000FFE708B0BDEC088B70BD000001000040DC
:100CD0000000FA445467002000007A440000F03F0E
:100CE00004650020C8040020945B0020F8B52DEDB9
:100CF000068BA0B00600B0EE408AF0EE608A0C00D1
:100D0000150096F9010000EE100AB8EEC09A1CA872
:100D1000102105F0E7FF1CA828EE890A80ED020AE1
:100D200028EE890A80ED030A18A8102105F0DAFFE1
:100D300018A8B1EE680A20EE090A80ED020AB1EEA9
:100D4000680A20EE090A80ED030A0CA8102105F0BC
:100D5000C9FF28EE890A8DED0C0A28EE890A8DED6F
:100D60000D0A08A8102105F0BDFFB1EE680A20EEBB
:100D7000090A8DED080AB1EE680A20EE090A8DED28
:100D8000090AB1EE680AF0EE000A80EE200A20EEB1
:100D9000090A8DED140A14A8B1EE680AF0EE000AF3
:100DA00080EE200A20EE090A80ED010AB0EE000A6A
:100DB00088EE800A20EE090A80ED020AB0EE000AF1
:100DC00088EE800A20EE090A80ED030AB0EE000AE0
:100DD00088EE800A20EE090A8DED100A10A8B0EE08
:100DE000000A88EE800A20EE090A80ED010AB1EEC1
:100DF000680AF0EE000A80EE200A20EE090A80ED73
:100E0000020AB1EE680AF0EE000A80EE200A20EE37
:100E1000090A80ED030A04A8102105F063FF684663
:100E2000102105F05FFF9FED67AB6F4618EE100ACB
:100E300005F05CFF02000B0051EC1A0B03F026FFDB
:100E40005F4A624B05F076FF04F00EF8786018EE0A
:100E5000100A05F04BFF02000B0051EC1A0B03F0D7
:100E600015FF574A594B05F065FF03F0FDFFB860C9
:100E70003078002822D1002C05D16A461CA9301DEB
:100E800006F07CF88FE0012C06D104AA1CA916F10B
:100E9000280006F073F886E0022C06D16A4618A9ED
:100EA00016F14C0006F06AF87DE0032C7BD104AA11
:100EB00018A916F1700006F061F874E03078012886
:100EC0004AD1002D22D1002C05D104AA10A9301D31
:100ED00006F054F867E0012C06D16A4610A916F115
:100EE000280006F04BF85EE0022C06D104AA14A9F3
:100EF00016F14C0006F042F855E0032C53D16A4637
:100F000014A916F1700006F039F84CE0012D22D139
:100F1000002C05D16A4614A9301D06F02FF842E0D6
:100F2000012C06D104AA14A916F1280006F026F80F
:100F300039E0022C06D16A4610A916F14C0006F0E1
:100F40001DF830E0032C2ED104AA10A916F1700070
:100F500006F014F827E026E03078022822D1002C91
:100F600005D104AA0CA9301D06F008F81BE0012CDD
:100F700006D16A460CA916F1280005F0FFFF12E021
:100F8000022C06D104AA08A916F14C0005F0F6FFC0
:100F900009E0032C07D16A4608A916F1700005F094
:100FA000EDFF00E0FFE720B0BDEC068BF1BD0000D7
:100FB000D8040020D45D0020BC040020E06700209D
:100FC00048E17A140AD7A3703D0AB73FAE47B13F54
:100FD00070B52DED088B88B00400F0EE408AB0EEBD
:100FE000609AB0EE418A04A8102105F07BFE6846A5
:100FF000102105F077FE0025042D0ADAB7EE000A6D
:10100000242000FB05F02044001D05F0C8FF6D1CE6
:10101000F2E7DFF8585495ED000ADFEDCA0AC0EE9A
:10102000209A9FEDC9AAB7EE00BAF0EE4BAA20783D
:10103000002840F07F8002220021B0EE000AC9EEB5
:10104000000AB0EE680A2000FFF750FE02220121DC
:10105000B0EE000AC9EE000AB0EE680A2000FFF701
:1010600045FE02220221B0EE000AC9EE000AB0EEEF
:10107000680A2000FFF73AFE02220321B0EE000AC0
:10108000C9EE000AB0EE680A2000FFF72FFE002626
:10109000042E30DA684600EB860204A800EB8601D5
:1010A000B0EE690A242000FB06F02044001D05F084
:1010B00079FFDFF8B00A00EBC601091D00EBC6009E
:1010C0006A4602EB860292ED000A78EE400A04AA14
:1010D00002EB860292ED000A05F0ACFC012808D074
:1010E0000320207000202860DFF8880300210160C1
:1010F000B6E1761CCCE70023F1EE040A9FEDCD0AA1
:10110000DFF87423DFF87413DFF8580AFFF74EF89E
:1011100095ED000ADFED8B0AB4EE600AF1EE10FAED
:10112000C0F29E810120207000202860D148D4495F
:10113000016095E12078012840F00881F5EE409AA1
:10114000F1EE10FA1BDBF4EE4B9AF1EE10FA16D525
:1011500000220021F0EE490AB0EE680A2000FFF7F5
:10116000C5FD00220221F0EE490AB0EE680A200017
:10117000FFF7BCFD89EE8B0AB0EE40AA27E0F4EE43
:101180004B9AF1EE10FA22DB9FEDB70AF4EE409A8B
:10119000F1EE10FA1BD501220021F0EE490AB0EE63
:1011A000680A2000FFF7A2FD01220221F0EE490AA1
:1011B000B0EE680A2000FFF799FD39EECB0AF0EE99
:1011C000000A70EECB0A80EE200AB0EE40AA6A4612
:1011D00004A9B0EE4A0A201D05F0E4FE02AA06A901
:1011E000B0EE4A0A14F14C0005F0DCFEF5EE409A30
:1011F000F1EE10FA23DBB0EE000A30EE4B0AF4EE0B
:10120000409AF1EE10FA1AD500220121F0EE490AB7
:10121000B0EE680A2000FFF769FD00220321F0EE1E
:10122000490AB0EE680A2000FFF760FDB0EE000A40
:1012300030EE4B0A89EE800AB0EE40AA2BE0B0EE09
:10124000000A30EE4B0AF4EE409AF1EE10FA22DB7F
:101250009FED850AF4EE409AF1EE10FA1BD50122BB
:101260000121F0EE490AB0EE680A2000FFF73EFDCA
:1012700001220321F0EE490AB0EE680A2000FFF7D0
:1012800035FD39EE8B0AF8EE000A30EE200A80EECA
:101290000B0AB0EE40AA01AA05A9B0EE4A0A14F161
:1012A000280005F07FFE03AA07A9B0EE4A0A14F150
:1012B000700005F077FE0026042E20DADFF8A4087F
:1012C00000EBC601091D00EBC6006A4602EB860270
:1012D00092ED000A78EE400A04AA02EB860292ED33
:1012E000000A05F0A7FB012807D00320207000208A
:1012F0002860604800210160B2E0761CDCE7002332
:10130000F1EE040A9FED4B0A5B4A5C49DFF8540892
:10131000FEF74CFF95ED000ADFED550AB4EE600ACA
:10132000F1EE10FAC0F29C8057480168012903D100
:101330000221217000210160002028604D485049A1
:1013400001608DE000007A4400000000207802284F
:1013500040F07F8002220021B0EE000AC9EE000AB0
:10136000B0EE680A2000FFF7C1FC02220121B0EEB6
:10137000000AC9EE000AB0EE680A2000FFF7B6FCCA
:1013800002220221B0EE000AC9EE000AB0EE680A9D
:101390002000FFF7ABFC02220321B0EE000AC9EEE9
:1013A000000AB0EE680A2000FFF7A0FC0026042E19
:1013B0002FDA684600EB860204A800EB8601B0EE47
:1013C000690A242000FB06F02044001D05F0EAFD18
:1013D000DFF8900700EBC601091D00EBC6006A4666
:1013E00002EB860292ED000A78EE400A04AA02EBB4
:1013F000860292ED000A05F01DFB012807D00320AC
:101400002070002028601B480021016028E0761C25
:10141000CDE70023F1EE040A9FED060A164A1749AC
:10142000DFF84007FEF7C2FE95ED000ADFED150A72
:1014300002E000BF0000C842B4EE600AF1EE10FA0C
:101440000EDB03202070002028600A480021016084
:1014500006E02078032802D1FEF7AEFF00E0FFE7A8
:1014600008B0BDEC088B70BD010000408069002011
:101470000000FA44846900202068002000680020F1
:10148000000080BF00007A448C69002038B52DED43
:10149000028B90B00400B0EE408AF0EE608A0CA897
:1014A000102105F01FFC04A8102105F01BFC04A866
:1014B00080ED028A80ED038AB1EE680A8DED080A9C
:1014C00008A8B1EE680A80ED010A80ED028A80ED7D
:1014D000038A6846102105F005FC8DED008A8DED2C
:1014E000018A207801280DD10025042D2DDA04AAC7
:1014F0000CA9242000FB05F02044001D05F03EFD52
:101500006D1CF2E7207803280DD10025042D1CDA8C
:1015100008AA0CA9242000FB05F02044001D05F0BA
:101520002DFD6D1CF2E7207805280DD10025042D36
:101530000BDA6A460CA9242000FB05F02044001DAC
:1015400005F01CFD6D1CF2E7FFE710B0BDEC028B4F
:1015500031BD0000F8B52DED088B88B004009FED7B
:10156000B58ADFEDB58A9FEDB59ADFEDB59A04A88F
:10157000102105F0B7FB6846102105F0B3FB0025EC
:10158000042D0ADAB7EE000A242000FB05F02044FF
:10159000001D05F004FD6D1CF2E7DFF8685895EDBD
:1015A000000ADFEDA80A80EE20AA2078012855D194
:1015B000F0EE680AB0EE480A2000FFF767FF002649
:1015C000042E2CDA684600EB860204A800EB8601A4
:1015D000B0EE4A0A242000FB06F02044001D05F06E
:1015E000E1FCDFF8800500EBC601091D00EBC60039
:1015F0006A4602EB860292ED000A79EEC00A04AA5E
:1016000002EB860292ED000A05F014FA012804D0DC
:101610000620207000202860E3E1761CD0E700233C
:10162000F1EE040A9FED880ADFF8DC27DFF8DC170B
:10163000DFF83005FEF7BAFD95ED000ADFED810A0F
:10164000B4EE600AF1EE10FAC0F2CB8102202070F5
:10165000002028600A2004F008FDC2E1207802285A
:1016600040F0FC800026042E15DADFF8F80400EBC9
:10167000C601091D00EBC60079EEA80A9FED6F0AAE
:1016800005F0D8F9012804D0062020700020286039
:10169000A7E1761CE7E7DFF8CC0C90ED080ADFF84D
:1016A000C80CD0ED000A30EE600A10EE100A05F00A
:1016B0001DFB31F0004141EC1B0BDFF8A8546868BA
:1016C00005F014FB02000B0033F0004351EC1B0B40
:1016D00005F0DCFD0022DFF8943C03F0D7FA03F0BC
:1016E000C3FB09EE100A9FEDC10AB4EE409AF1EE79
:1016F00010FA03DB9FEDBE0AB0EE409A00200428EA
:1017000077DA0021022972DADFF8002702EBC00243
:10171000002342F8213005EBC00202EB810292ED7A
:10172000000AB5EE400AF1EE10FA2FDD002801D0D4
:10173000032815D101290AD1DFF8CC2602EBC0021B
:1017400002EB8102B1EE490A82ED000A4DE0DFF8BA
:10175000B82602EBC00202EB810282ED009A44E05F
:10176000012908D1DFF8A02602EBC00202EB8102BA
:1017700082ED009A39E0DFF8902602EBC00202EB1E
:101780008102B1EE490A82ED000A2EE0002801D064
:10179000032815D1012908D1DFF86C2602EBC0021D
:1017A00002EB810282ED009A1FE0DFF85C2602EB7B
:1017B000C00202EB8102B1EE490A82ED000A14E098
:1017C00001290AD1DFF8402602EBC00202EB8102B8
:1017D000B1EE490A82ED000A07E0DFF82C2602EBA1
:1017E000C00202EB810282ED009A491C8AE7401C8C
:1017F00085E7DFF81866DFF810760023F1EE040ABB
:101800009FED7C0A3A0031002800FEF7CFFC002053
:1018100004281DDA0021022918DA06EBC002002391
:1018200042F8213007EBC002002342F82130491C66
:10183000F1E700BF295C8F3D0AD7233E000000007E
:1018400098DD533E00007A440000C842401CDFE7A8
:10185000642004F00AFC03202070C2E020780328F2
:101860004FD1F0EE680AB0EE480A2000FFF70EFEF6
:101870000026042E2BDA684600EB860204A800EB53
:101880008601B0EE4A0A242000FB06F02044001D29
:1018900005F088FBB34800EBC601091D00EBC6004C
:1018A0006A4602EB860292ED000A79EEC00A04AAAB
:1018B00002EB860292ED000A05F0BCF8012804D084
:1018C00006202070002028608BE0761CD1E70023E2
:1018D000F1EE040A9FED9F0ADFF82C25DFF82C15A6
:1018E000A048FEF763FC95ED000ADFED9B0AB4EE1D
:1018F000600AF1EE10FA74DB0420207000202860EA
:101900006FE02078042812D10323F1EE040A9FED42
:10191000930ADFF8F424DFF8F4149248FEF746FC4B
:101920004FF4FA6004F0A1FB0520207059E0207804
:1019300005284FD1F0EE680AB0EE480A2000FFF704
:10194000A5FD0026042E2BDA684600EB860204A8CB
:1019500000EB8601B0EE4A0A242000FB06F020448A
:10196000001D05F01FFB7F4800EBC601091D00EBC1
:10197000C6006A4602EB860292ED000A79EEC00AC2
:1019800004AA02EB860292ED000A05F053F8012842
:1019900004D0062020700020286022E0761CD1E7C9
:1019A0000023F1EE040A9FED6B0ADFF85C24DFF8F8
:1019B0005C146C48FEF7FAFB95ED000ADFED660A51
:1019C000B4EE600AF1EE10FA0BDB06202070002066
:1019D000286006E02078062802D1FEF7EDFC00E042
:1019E000FFE708B0BDEC088BF1BD0000010020420C
:1019F000000020420000484338B52DED068BA0B012
:101A00000400B0EE408AF0EE608AB0EE419ADFED5D
:101A1000549A39EEA80A79EEC80A80EE200A20EE20
:101A200009AA0CA8102105F05DF90CA880ED029A16
:101A300080ED039A8DED1C9A1CA880ED019AB1EE01
:101A4000490A80ED020AB1EE490A80ED030AB1EEBF
:101A50004A0A8DED180A18A8B1EE4A0A80ED010A6B
:101A600080ED029A80ED039A08A8102105F03AF95A
:101A70008DED089A8DED099A04A8102105F032F930
:101A800004A880ED028A80ED038A8DED148A14A8E3
:101A900080ED018A80ED028A80ED038AB1EE680A4A
:101AA0008DED100A10A880ED018A80ED028A80ED8C
:101AB000038A6846102105F015F98DED008A8DED39
:101AC000018A207800280DD10025042D3EDA04AAD1
:101AD0000CA9242000FB05F02044001D05F04EFA5F
:101AE0006D1CF2E7207801280DD10025042D2DDA98
:101AF00014AA1CA9242000FB05F02044001D05F0B9
:101B00003DFA6D1CF2E7207803280DD10025042D45
:101B10001CDA10AA18A9242000FB05F02044001D9F
:101B200005F02CFA6D1CF2E7207805280DD1002570
:101B3000042D0BDA6A4608A9242000FB05F0204496
:101B4000001D05F01BFA6D1CF2E7FFE720B0BDECAD
:101B5000068B31BD0000C84200007A44000000003E
:101B600098DD533EE067002038B52DED0A8BC0B0FC
:101B70000400B0EE408AF0EE608AB0EE419AF0EEDA
:101B8000619AB0EE42AAF0EE62AA9FED9DBA3BEEDA
:101B9000280A7BEE480A80EE200A60EE09BA30A8D7
:101BA000102105F09FF830A8B1EE490A80ED020A35
:101BB000B1EE490A80ED030A2CA8102105F092F835
:101BC0002CA8B1EE490A80ED020AB1EE490A80ED77
:101BD000030A28A8102105F085F8B1EE6B0A8DEDF7
:101BE000280A28A8B1EE490A80ED010A80ED039A7F
:101BF00024A8102105F076F88DED249A8DED259A14
:101C000020A8102105F06EF820A880ED028A80ED52
:101C1000038A1CA8102105F065F81CA880ED028A33
:101C200080ED038AB1EE680A8DED380A38A880EDA0
:101C3000018A80ED028A80ED038A18A8102105F040
:101C400051F88DED188A8DED198A3BEE0A0A7BEE6C
:101C5000690A80EE200A20EE2ACA14A8102105F095
:101C600041F814A8B1EE6A0A80ED020AB1EE6A0AE0
:101C700080ED030A10A8102105F034F810A8B1EE89
:101C80006A0A80ED020AB1EE6A0A80ED030A0CA826
:101C9000102105F027F8B1EE4C0A8DED0C0A0CA8C6
:101CA000B1EE6A0A80ED010AC0ED03AA08A810216E
:101CB00005F018F8CDED08AACDED09AA3CA8102131
:101CC00005F010F804A8102105F00CF804A8C0EDE8
:101CD000029AC0ED039AB1EE4A0A8DED340A34A897
:101CE000C0ED019AC0ED029AC0ED039A684610213A
:101CF00004F0F8FFCDED009ACDED019A2078002890
:101D00001BD10025022D0ADA20AA30A9242000FBCD
:101D100005F02044001D05F031F96D1CF2E70225A5
:101D2000042D68DA3CAA14A9242000FB05F0204405
:101D3000001D05F023F96D1CF2E7207801281BD166
:101D40000025022D0ADA1CAA2CA9242000FB05F08C
:101D50002044001D05F012F96D1CF2E70225042D48
:101D600049DA04AA10A9242000FB05F02044001D34
:101D700005F004F96D1CF2E7207803281BD100253B
:101D8000022D0ADA38AA28A9242000FB05F02044F5
:101D9000001D05F0F3F86D1CF2E70225042D2ADA88
:101DA00034AA0CA9242000FB05F02044001D05F0F6
:101DB000E5F86D1CF2E7207805281BD10025022DDF
:101DC0000ADA18AA24A9242000FB05F02044001DEB
:101DD00005F0D4F86D1CF2E70225042D0BDA6A46F3
:101DE00008A9242000FB05F02044001D05F0C6F8DA
:101DF0006D1CF2E7FFE740B0BDEC0A8B31BD00007F
:101E000098DD533E80690020206800200068002093
:101E1000F8B52DED108B8CB004009FEDC80A8DED48
:101E20000A0A9FEDC78A8DED090A9FEDC6DA8DED8E
:101E300008DAF0EE4DEA9FEDC4AAF0EE4A8ADFED33
:101E4000C3AAB0EE6A9A9FEDC2BAF0EE4B9ADFEDEC
:101E5000C1BA9FEDC1CA04A8102104F043FF68462F
:101E6000102104F03FFF0025042D0ADAB7EE000A26
:101E7000242000FB05F02044001D05F090F86D1CA7
:101E8000F2E7DFF87C5895ED000ADFEDB40AC0EE0A
:101E900020CA207801285DD1F0EE4B2AB0EE6A2AE4
:101EA000F0EE4A1AB0EE691AF0EE490AB0EE680A8E
:101EB0002000FFF759FE0026042E2CDA684600EBBE
:101EC000860204A800EB8601B0EE6C0A242000FB19
:101ED00006F02044001D05F0B5F9DFF82C0800EBF2
:101EE000C601091D00EBC6006A4602EB860292EDB0
:101EF000000A7CEE400A04AA02EB860292ED000A78
:101F000004F098FD012804D00620207000202860ED
:101F10001FE2761CD0E70023F1EE040A9FEDC60A0B
:101F2000DFF8E027DFF8E417DFF8DC07FEF73EF91B
:101F300095ED000ADFED890AB4EE600AF1EE10FAC1
:101F4000C0F2078202202070002028600A2004F0DE
:101F50008CF8FEE12078022840F02C813CEE090A42
:101F60007CEE680A80EE200A60EE29DA3CEE2A0A4E
:101F70007CEE4A0A80EE200A20EE0BEA0026022EB2
:101F800015DADFF8840700EBC601091D00EBC60077
:101F90007CEE090AB1EE6D0A04F04CFD012804D074
:101FA0000620207000202860D3E1761CE7E7022697
:101FB000042E15DADFF8500700EBC601091D00EB0F
:101FC000C6007CEE2A0AB1EE4E0A04F033FD012869
:101FD00004D00620207000202860BAE1761CE7E7D4
:101FE000DFF8800390ED080ADFF87C03D0ED000AEB
:101FF00030EE600A10EE100A04F078FE31F0004175
:1020000041EC1F0BDFF80057686804F06FFE020018
:102010000B0033F0004351EC1F0B05F037F90022A1
:10202000D24B02F033FE02F01FFF0BEE900A9FED41
:10203000CB0AF4EE40BAF1EE10FA03DB9FEDC80ACA
:10204000F0EE40BA0020042880F28C8000210229A2
:1020500080F28680DFF8B42602EBC002002342F84B
:10206000213005EBC00202EB810292ED000AB5EED1
:10207000400AF1EE10FA2FDD002801D0032815D117
:1020800001290AD1DFF87C2602EBC00202EB8102B3
:10209000B1EE6B0A82ED000A4DE0DFF8682602EB34
:1020A000C00202EB8102C2ED00BA44E0012908D16E
:1020B000DFF8502602EBC00202EB8102C2ED00BA4B
:1020C00039E0DFF8402602EBC00202EB8102B1EEFC
:1020D0006B0A82ED000A2EE0002801D0032815D1FA
:1020E000012908D1DFF81C2602EBC00202EB8102B5
:1020F000C2ED00BA1FE0DFF80C2602EBC00202EBD3
:102100008102B1EE6B0A82ED000A14E001290AD1C6
:10211000DFF8F02502EBC00202EB8102B1EE6B0AA0
:1021200082ED000A07E0DFF8DC2502EBC00202EBDB
:102130008102C2ED00BA491C89E700BFEC51B83DED
:102140008FC2753D295C8F3D0AD7A33D295C0F3EA8
:10215000CDCC4C3D0000000098DD533E00007A4499
:10216000401C70E7DFF8A465DFF898750523F1EEF1
:10217000040A9FED7F0A3A0031002800FEF716F8A6
:102180000020042810DA002102290BDA06EBC00235
:10219000002342F8213007EBC002002342F821302F
:1021A000491CF1E7401CECE7C82003F05EFF032068
:1021B0002070CEE02078032856D1B0EE4D1AF0EE14
:1021C0006E0A9DED080A2000FFF716FC0026042E7B
:1021D0002CDA684600EB860204A800EB8601B0EE1C
:1021E0006C0A242000FB06F02044001D04F0DAFEF7
:1021F000DFF8140500EBC601091D00EBC6006A46B6
:1022000002EB860292ED000A7CEE400A04AA02EB81
:10221000860292ED000A04F00DFC012804D006208D
:1022200020700020286094E0761CD0E70023F1EEB7
:10223000040A9FED010A01E00000C842DFF8C4244F
:10224000DFF8C814DFF8C004FDF7B0FF95ED000A11
:10225000DFED480AB4EE600AF1EE10FA79DB0420F3
:1022600020700020286074E02078042813D1032314
:10227000F1EE040A9FED400ADFF88824DFF88C14A1
:10228000DFF88404FDF792FF4FF4FA6003F0EDFEEF
:10229000052020705DE02078052853D1B0EE691A42
:1022A000F0EE490AB0EE680A2000FFF7A5FB002611
:1022B000042E2CDA684600EB860204A800EB8601A7
:1022C000B0EE6C0A242000FB06F02044001D04F050
:1022D00069FEDFF8340400EBC601091D00EBC600FF
:1022E0006A4602EB860292ED000A7CEE400A04AADE
:1022F00002EB860292ED000A04F09CFB012804D058
:10230000062020700020286023E0761CD0E7002300
:10231000F1EE040A9FED120ADFF8E823DFF8EC1370
:10232000DFF8E403FDF742FF95ED000ADFED110A47
:10233000B4EE600AF1EE10FA0BDB062020700020EC
:10234000286006E02078062802D1FEF735F800E084
:10235000FFE70CB0BDEC108BF1BD00000100204286
:1023600000002042945B0020C804002000002440AC
:102370000000E14300007A4400000000F8B52DEDB4
:10238000088BB8B00600B0EE408AF0EE608AB0EE7E
:10239000419A0C001500DFED069A9FED05AA7078B2
:1023A000002807D1F0EE489AB0EE68AA09E000BF15
:1023B000000000007078012803D1F0EE689AB0EEBA
:1023C00048AA96F9020000EE100AF8EEC0AA24A866
:1023D000102104F087FC24A829EEAA0A80ED020A45
:1023E00029EEAA0A80ED030A20A8102104F07AFC45
:1023F00020A8B1EE690A20EE2A0A80ED020AB1EEA9
:10240000690A20EE2A0A80ED030A1CA8102104F0B4
:1024100069FC29EEAA0A8DED1C0A29EEAA0A8DEDA7
:102420001D0A18A8102104F05DFCB1EE690A20EE27
:102430002A0A8DED180AB1EE690A20EE2A0A8DEDFE
:10244000190AB1EE690A20EE2A0A8DED340A34A881
:10245000B1EE690A20EE2A0A80ED010A29EEAA0AE5
:1024600080ED020A29EEAA0A80ED030A29EEAA0AE3
:102470008DED300A30A829EEAA0A80ED010AB1EEEE
:10248000690A20EE2A0A80ED020AB1EE690A20EEFE
:102490002A0A80ED030A14A8102104F023FC14A8D2
:1024A0002AEE2A0A80ED020A2AEE2A0A80ED030AA1
:1024B00010A8102104F016FC10A8B1EE4A0A20EE74
:1024C0002A0A80ED020AB1EE4A0A20EE2A0A80EDBD
:1024D000030A0CA8102104F005FC2AEE2A0A8DED4F
:1024E0000C0A2AEE2A0A8DED0D0A08A8102104F024
:1024F000F9FBB1EE4A0A20EE2A0A8DED080AB1EE88
:102500004A0A20EE2A0A8DED090AB1EE4A0A20EEA7
:102510002A0A8DED2C0A2CA8B1EE4A0A20EE2A0ACE
:1025200080ED010A2AEE2A0A80ED020A2AEE2A0A22
:1025300080ED030A2AEE2A0A8DED280A28A82AEE41
:102540002A0A80ED010AB1EE4A0A20EE2A0A80ED3D
:10255000020AB1EE4A0A20EE2A0A80ED030A04A814
:10256000102104F0BFFB6846102104F0BBFB9FED77
:1025700068BB6F4619EE100A04F0B8FB02000B00AE
:1025800051EC1B0B02F082FBDFF89427DFF8603878
:1025900004F0D0FB02F068FC786019EE100A04F039
:1025A000A5FB02000B0051EC1B0B02F06FFBDFF8E8
:1025B0007027DFF83C3804F0BDFB02F055FCB86032
:1025C0003078002822D1002C05D16A4624A9301D7C
:1025D00004F0D4FC8FE0012C06D104AA10A916F156
:1025E000280004F0CBFC86E0022C06D16A4614A930
:1025F00016F14C0004F0C2FC7DE0032C7BD104AA50
:1026000020A916F1700004F0B9FC74E030780128BC
:102610004AD1002D22D1002C05D104AA30A9301DA9
:1026200004F0ACFC67E0012C06D16A462CA916F137
:10263000280004F0A3FC5EE0022C06D104AA28A91D
:1026400016F14C0004F09AFC55E0032C53D16A4675
:1026500034A916F1700004F091FC4CE0012D22D158
:10266000002C05D16A4634A9301D04F087FC42E0F5
:10267000012C06D104AA28A916F1280004F07EFC3A
:1026800039E0022C06D16A462CA916F14C0004F060
:1026900075FC30E0032C2ED104AA30A916F170008D
:1026A00004F06CFC27E026E03078022822D1002CD0
:1026B00005D104AA1CA9301D04F060FC1BE0012C0C
:1026C00006D16A4608A916F1280004F057FC12E06A
:1026D000022C06D104AA0CA916F14C0004F04EFC01
:1026E00009E0032C07D16A4618A916F1700004F01E
:1026F00045FC00E0FFE738B0BDEC088BF1BD000001
:102700008069002020680020E06700200068002029
:102710000AD7A3703D0AB73FF8B52DED088B88B0F6
:102720000600F0EE408AB0EE609AF0EE419AB0EE0C
:10273000618A04A8102104F0D5FA6846102104F03B
:10274000D1FA0024042C0ADAB7EE000A242000FB98
:1027500004F03044001D04F022FC641CF2E7DFF8B2
:10276000707697ED000ADFEDBE0A80EE20AADFED5D
:10277000BDAAF7EE00BAB0EE6BBA3078002840F090
:10278000918002220021B0EE691AB0EE000AC9EE73
:10279000000AB0EE000A88EE800A3000FFF7EEFD76
:1027A00002220121B0EE691AB0EE000AC9EE000A59
:1027B000B0EE000A88EE800A3000FFF7DFFD02224B
:1027C0000221B0EE691AB0EE000AC9EE000AB0EEBE
:1027D000000A88EE800A3000FFF7D0FD02220321B4
:1027E000B0EE691AB0EE000AC9EE000AB0EE000AB7
:1027F00088EE800A3000FFF7C1FD0024042C30DA97
:10280000684600EB840204A800EB8401B0EE4A0A9B
:10281000242000FB04F03044001D04F0C3FBDFF86B
:10282000C00500EBC401091D00EBC4006A4602EBC1
:10283000840292ED000A78EE400A04AA02EB8402B8
:1028400092ED000A04F0F6F8012808D00320307059
:1028500000203860DFF89C050021016056E2641C0E
:10286000CCE70023F1EE040A9FEDDA0ADFF86825D1
:10287000DFF86815DFF86805FDF798FC97ED000AAA
:10288000DFED770AB4EE600AF1EE10FAC0F23E8294
:102890000120307000203860DFF85805DFF834156B
:1028A000016033E23078012840F09881B5EE40AA0B
:1028B000F1EE10FA27DBB4EE6BAAF1EE10FA22D596
:1028C00000220021B0EE691AB0EE000AC9EE000A3B
:1028D000B0EE000A88EE800A3000FFF74FFD0022BC
:1028E0000221B0EE691AB0EE000AC9EE000AB0EE9D
:1028F000000A88EE800A3000FFF740FD8AEE2B0ABE
:10290000F0EE40AA46E0B4EE6BAAF1EE10FA41DB1D
:102910009FEDB10AB4EE40AAF1EE10FA3AD50122C9
:102920000021B0EE691AB0EE000AC9EE000AB0EE5E
:10293000000A88EE800A3000FFF720FD0122022104
:10294000B0EE691AB0EE000AC9EE000AB0EE000A55
:1029500088EE800A3000FFF711FD3AEE6B0A10EEA8
:10296000100A04F0C3F904000D001BEE900A04F0F5
:10297000BDF902000B0000205FF0804104F044FD2F
:1029800002000B002000290004F0D4F902F06CFAD8
:102990000AEE900A6A4604A9B0EE6A0A301D04F0F5
:1029A00001FB02AA06A9B0EE6A0A16F14C0004F077
:1029B000F9FAB5EE40AAF1EE10FA55DB1BEE900ADB
:1029C00004F094F902000B0000205FF0804104F055
:1029D0001BFD02000B0014001D001AEE100A04F08B
:1029E00085F922002B0004F081FD3DD20022012157
:1029F000B0EE691AB0EE000AC9EE000AB0EE000AA5
:102A000088EE800A3000FFF7B9FC00220321B0EE07
:102A1000691AB0EE000AC9EE000AB0EE000A88EEAC
:102A2000800A3000FFF7AAFC1AEE100A04F05EF9E3
:102A300004000D001BEE900A04F058F902000B0090
:102A400000205FF0804104F0DFFC02000B0020005A
:102A5000290004F06FF902F007FA0AEE900A5BE031
:102A600000007A44000000001BEE900A04F03EF9DA
:102A700002000B0000205FF0804104F0C5FC020062
:102A80000B0014001D001AEE100A04F02FF92200AA
:102A90002B0004F043FD3FD89FED4F0AB4EE40AA4F
:102AA000F1EE10FA38D501220121B0EE691AB0EE2C
:102AB000000AC9EE000AB0EE000A88EE800A300073
:102AC000FFF75CFC01220321B0EE691AB0EE000AA8
:102AD000C9EE000AB0EE000A88EE800A3000FFF767
:102AE0004DFC3AEE2B0A10EE100A04F0FFF800221B
:102AF0005FF0404304F0CAFB04000D001BEE900A97
:102B000004F0F4F802000B002000290004F012F990
:102B100002F0AAF90AEE900A01AA05A9B0EE6A0A23
:102B200016F1280004F03EFA03AA07A9B0EE6A0ADB
:102B300016F1700004F036FA0024042C21DADFF8D4
:102B4000A00200EBC401091D00EBC4006A4602EBC1
:102B5000840292ED000A78EE400A04AA02EB840295
:102B600092ED000A03F066FF012808D003203070C0
:102B700000203860DFF87C0200210160C6E0641CA0
:102B8000DBE70023F1EE040A9FED120ADFF848228A
:102B9000DFF84812DFF84802FDF708FB97ED000A5E
:102BA000DFED5C0AB4EE600AF1EE10FAC0F2AE801E
:102BB000DFF8E0050168012903D10221317000210D
:102BC000016000203860DFF82C02DFF80812016095
:102BD0009CE000BF0000C84201000040307802289D
:102BE00040F08F8002220021B0EE691AB0EE000A98
:102BF000C9EE000AB0EE000A88EE800A3000FFF746
:102C0000BDFB02220121B0EE691AB0EE000AC9EE46
:102C1000000AB0EE000A88EE800A3000FFF7AEFB33
:102C200002220221B0EE691AB0EE000AC9EE000AD3
:102C3000B0EE000A88EE800A3000FFF79FFB022208
:102C40000321B0EE691AB0EE000AC9EE000AB0EE38
:102C5000000A88EE800A3000FFF790FB0024042C65
:102C600030DA684600EB840204A800EB8401B0EE81
:102C70004A0A242000FB04F03044001D04F092F9BD
:102C8000DFF85C0100EBC401091D00EBC4006A46DB
:102C900002EB840292ED000A78EE400A04AA02EBED
:102CA000840292ED000A03F0C5FE012808D003203B
:102CB000307000203860DFF83C010021016025E021
:102CC000641CCCE70023F1EE040A9FED130ADFF841
:102CD0000821DFF80811DFF80801FDF767FA97ED22
:102CE000000ADFED0E0AB4EE600AF1EE10FA0DDB19
:102CF0000320307000203860DFF8F8000021016008
:102D000004E03078032801D1FDF756FB08B0BDEC94
:102D1000088BF1BD0000FA440000C84200007A446C
:102D200048E17A1410B52DED068BB0EE408ADFED48
:102D30002E9A29EE88AAB0EE080ACAEE008AB1EEF1
:102D40004A0AF0EE080A80EE200AF0EE000A20EEB1
:102D5000209A0024042C2DDA022C14DA204800EBEF
:102D6000C401091D00EBC400DFF86C2B92ED000AD2
:102D700070EE680A9FED1B0A03F05CFE012817D075
:102D8000FDF71AFB20E0164800EBC401091D00EB1B
:102D9000C400DFF8442B92ED000A70EE490A9FED63
:102DA000110A03F047FE012802D0FDF705FB0BE0F6
:102DB000641CCFE70023F1EE040A9FED0C0A064ADB
:102DC00006490748FDF7F2F9BDEC068B10BD00007F
:102DD00080690020000080BF20680020006800207B
:102DE000E067002000000000CDCCCC3E000048424F
:102DF000AE47B13F846900202DE9F8432DED048BE7
:102E0000B0B00600B0EE408AF0EE608A0C0015000B
:102E1000B0EE089A28EE890A10EE100A03F066FF59
:102E200002000B009046994618EE100A03F05EFF70
:102E3000DFF8AC2ADFF8A43A04F028FA42464B4601
:102E400004F06CFB18D918EE100A03F04FFFDFF8FE
:102E5000902ADFF8903A04F019FA02000B0090462D
:102E6000994628EE890A10EE100A03F03FFF424609
:102E70004B4604F053FB00D886E12CA8102103F048
:102E800031FF2CA880ED028A80ED038A28A810214A
:102E900003F028FF28A8B1EE480A80ED020AB1EE3F
:102EA000480A80ED030AB1EE480AF0EE000A80EE0F
:102EB000200A8DED180A18A8B1EE480AF0EE000AB3
:102EC00080EE200A80ED010AB0EE000A88EE000ACA
:102ED00080ED020AB0EE000A88EE000A80ED030AD7
:102EE000B0EE000A88EE000A8DED140A14A8B0EEC8
:102EF000000A88EE000A80ED010AB1EE480AF0EE01
:102F0000000A80EE200A80ED020AB1EE480AF0EED7
:102F1000000A80EE200A80ED030A08A8102103F0C1
:102F2000E1FE8DED088A8DED098A04A8102103F0D9
:102F3000D9FEB1EE480A8DED040AB1EE480A8DEDD6
:102F4000050A24A8102103F0CDFE9FED939B24AF2A
:102F500018EE900A03F0CAFE53EC192B04F096F910
:102F600001F082FF786018EE900A03F0BFFE53EC88
:102F7000192B04F08BF901F077FFB860C7ED038AD5
:102F800020A8102103F0AEFE20A8B1EE680A80ED63
:102F9000020AB1EE680A80ED030AB1EE680AF0EEAB
:102FA000000A80EE200A8DED100A10AFB0EE000A84
:102FB00088EE800A10EE100A03F098FE53EC192BED
:102FC00004F064F901F050FF7860B0EE000A88EE7A
:102FD000800A10EE100A03F089FE53EC192B04F05E
:102FE00055F901F041FFB860B0EE000A88EE800AA2
:102FF00087ED030AB0EE000A88EE800A8DED0C0A18
:103000000CA8B0EE000A88EE800A80ED010AB1EE4D
:10301000680AF0EE000A80EE200A80ED020AB1EEA6
:10302000680AF0EE000A80EE200A80ED030A684686
:10303000102103F057FECDED008ACDED018A1CA8CA
:10304000DFF8101C102204F091FAB1EE680A8DED41
:103050001C0A3078002822D1002C05D124AA2CA9E2
:10306000301D03F08BFF8FE0012C06D120AA28A988
:1030700016F1280003F082FF86E0022C06D124AA74
:103080002CA916F14C0003F079FF7DE0032C7BD1D5
:1030900020AA28A916F1700003F070FF74E03078C0
:1030A00001284AD1002D22D1002C05D10CAA14A947
:1030B000301D03F063FF67E0012C06D110AA18A9A8
:1030C00016F1280003F05AFF5EE0022C06D10CAA8C
:1030D00014A916F14C0003F051FF55E0032C53D115
:1030E00010AA18A916F1700003F048FF4CE0012D5A
:1030F00022D1002C05D110AA18A9301D03F03EFFE3
:1031000042E0012C06D10CAA14A916F1280003F004
:1031100035FF39E0022C06D110AA18A916F14C008F
:1031200003F02CFF30E0032C2ED10CAA14A916F1C9
:10313000700003F023FF27E026E03078022822D138
:10314000002C05D16A4608A9301D03F017FF1BE0CB
:10315000012C06D11CAA04A916F1280003F00EFFC9
:1031600012E0022C06D16A4608A916F14C0003F0C1
:1031700005FF09E0032C07D11CAA04A916F1700071
:1031800003F0FCFE00E0FFE730B0BDEC048BBDE8CF
:10319000F18300008C6900207B14AE47E17A843F04
:1031A000F8B52DED0C8B88B00600F0EE409AB0EE2D
:1031B00060AAB0EE418AF0EE618AB0EE429ADFF882
:1031C000687A97ED000ADFEDCA0AC0EE20AA9FEDEB
:1031D000C9BA2AEE290AF0EE080A80EE200A78EE33
:1031E00040BA2AEE290AF0EE080A80EE200AF0EE34
:1031F000000AB0EE48CA00EE20CA0024042C0ADA05
:10320000B7EE000A242000FB04F03044001D03F058
:10321000C6FE641CF2E7B7EE00DAF0EE4DCA307875
:10322000002840F0AB8002220021B0EE000AC9EE77
:10323000000AB0EE000A88EE800A3000FFF7DCFDDD
:1032400002220121B0EE000AC9EE000AB0EE000A27
:1032500088EE800A3000FFF7CFFD02220221B0EE97
:10326000000AC9EE000AB0EE000A88EE800A3000BB
:10327000FFF7C2FD02220321B0EE000AC9EE000AE8
:10328000B0EE000A88EE800A3000FFF7B5FD00249A
:10329000042C52DA684600EB840204A800EB840197
:1032A000B0EE6A0A242000FB04F03044001D03F055
:1032B00079FE022C1FDADFF8800900EBC401091D3A
:1032C00000EBC4006A4602EB840292ED000A7BEE3A
:1032D000C00A04AA02EB840292ED000A03F0AAFBE2
:1032E000012828D00320307000203860DFF84C0916
:1032F0000021016086E2DFF8400900EBC401091DEE
:1033000000EBC4006A4602EB840292ED000A7CEEF8
:10331000400A04AA02EB840292ED000A03F08AFB41
:10332000012808D00320307000203860DFF80C0935
:103330000021016066E2641CAAE70023F1EE040AA2
:103340009FEDD30ADFF8E828DFF8E818DFF8E8088F
:10335000FCF72CFF97ED000ADFED650AB4EE600A7A
:10336000F1EE10FAC0F24E82012030700020386079
:10337000DFF8C808DFF8B418016043E230780128AC
:1033800040F08A81F5EE40AAF1EE10FA1BDBF4EE74
:103390004DAAF1EE10FA16D500220021F0EE490AEE
:1033A000B0EE680A3000FFF727FD00220221F0EEA0
:1033B000490AB0EE680A3000FFF71EFD8AEE8D0A5A
:1033C000B0EE40BA3AE0F4EE4DAAF1EE10FA35DB79
:1033D0009FEDB00AF4EE40AAF1EE10FA2ED50122CC
:1033E0000021F0EE490AB0EE680A3000FFF704FD54
:1033F00001220221F0EE490AB0EE680A3000FFF720
:10340000FBFC3AEECD0A10EE100A03F06FFC04004C
:103410000D001DEE100A03F069FC02000B000020F5
:103420005FF0804103F0F0FF02000B002000290054
:1034300003F080FC01F018FD0BEE100A6A4604A9A7
:10344000B0EE4B0A301D03F0ADFD02AA06A9B0EEA6
:103450004B0A16F14C0003F0A5FDF5EE40AAF1EE83
:1034600010FA49DB1DEE100A03F040FC02000B00CD
:1034700000205FF0804103F0C7FF02000B00140042
:103480001D001AEE900A03F031FC22002B0004F01C
:103490002DF831D200220121F0EE490AB0EE680A7F
:1034A0003000FFF7A9FC00220321F0EE490AB0EE3C
:1034B000680A3000FFF7A0FC1AEE900A03F016FC31
:1034C00004000D001DEE100A03F010FC02000B00BA
:1034D00000205FF0804103F097FF02000B00200006
:1034E000290003F027FC01F0BFFC0BEE100A4FE0AF
:1034F00000007A44000000001DEE100A03F0F6FB05
:1035000002000B0000205FF0804103F07DFF02000D
:103510000B0014001D001AEE900A03F0E7FB2200D6
:103520002B0003F0FBFF33D89FED5A0AF4EE40AABC
:10353000F1EE10FA2CD501220121F0EE490AB0EE8D
:10354000680A3000FFF758FC01220321F0EE490A17
:10355000B0EE680A3000FFF74FFC3AEE8D0A10EE2D
:10356000100A03F0C3FB00225FF0404303F08EFE1D
:1035700004000D001DEE100A03F0B8FB02000B0062
:103580002000290003F0D6FB01F06EFC0BEE100AC0
:1035900001AA05A9B0EE4B0A16F1280003F002FDBE
:1035A00003AA07A9B0EE4B0A16F1700003F0FAFC6B
:1035B0000024042C43DA022C1FDADFF87C0600EB2F
:1035C000C401091D00EBC4006A4602EB840292EDBF
:1035D000000A7BEEC00A04AA02EB840292ED000A04
:1035E00003F028FA012828D003203070002038602A
:1035F000DFF848060021016004E1DFF83C0600EB3B
:10360000C401091D00EBC4006A4602EB840292ED7E
:10361000000A7CEE400A04AA02EB840292ED000A42
:1036200003F008FA012808D0032030700020386029
:10363000DFF8080600210160E4E0641CB9E700231C
:10364000F1EE040A9FED120ADFF8E425DFF8E41535
:10365000DFF8E405FCF7AAFD97ED000ADFEDA20A0A
:10366000B4EE600AF1EE10FAC0F2CC80DFF8240C60
:103670000168012903D1022131700021016000207D
:103680003860DFF8B805DFF8A4150160BAE000BFC4
:103690000000C842010000403078022840F0A980B4
:1036A00002220021B0EE000AC9EE000AB0EE000AC4
:1036B00088EE800A3000FFF79FFB02220121B0EE66
:1036C000000AC9EE000AB0EE000A88EE800A300057
:1036D000FFF792FB02220221B0EE000AC9EE000AB7
:1036E000B0EE000A88EE800A3000FFF785FB022268
:1036F0000321B0EE000AC9EE000AB0EE000A88EE1F
:10370000800A3000FFF778FB0024042C52DA684668
:1037100000EB840204A800EB8401B0EE6A0A2420C6
:1037200000FB04F03044001D03F03CFC022C1FDAC7
:10373000DFF8040500EBC401091D00EBC4006A4674
:1037400002EB840292ED000A7BEEC00A04AA02EBAF
:10375000840292ED000A03F06DF9012828D00320BD
:10376000307000203860DFF8D4040021016049E0A7
:10377000DFF8C40400EBC401091D00EBC4006A4675
:1037800002EB840292ED000A7CEE400A04AA02EBEE
:10379000840292ED000A03F04DF9012808D00320BD
:1037A000307000203860DFF894040021016029E0C7
:1037B000641CAAE70023F1EE040A9FED4C0ADFF82F
:1037C0007024DFF87014DFF87004FCF7EFFC97ED5D
:1037D000000ADFED470AB4EE600AF1EE10FA11DBE1
:1037E0000320307000203860DFF8500400210160B1
:1037F00008E03078032804D19FED430AFFF792FADE
:1038000000E0FFE708B0BDEC0C8BF1BD10B52DED6D
:10381000088BB0EE408ADFED379A29EE88AA9FED3B
:1038200036BB1AEE100A03F061FA53EC1B2B01F0C1
:103830002DFA01F019FB08EE900AB1EE4A0A10EEDB
:10384000100A03F053FA53EC1B2B01F01FFA01F09E
:103850000BFB09EE100A0024042C2FDA012C01D0F6
:10386000022C14D1DFF8D00300EBC401091D00EBDA
:10387000C400194A92ED000A70EE680A9FED200A12
:1038800003F0D8F8012817D0FCF796FD20E0DFF808
:10389000A80300EBC401091D00EBC4000E4A92ED21
:1038A000000A70EE490A9FED160A03F0C3F80128DA
:1038B00002D0FCF781FD0BE0641CCDE70023F1EEA4
:1038C000040A9FED100ADA4ADA49DB48FCF76EFC7D
:1038D000BDEC088B10BD0000BC0400204D6250BF41
:1038E000FCA9F1D24D62503F0000FA440000C842EA
:1038F00000007A443333B33E000000000000E03F94
:103900000000000000004842ABAAAA3E2DE9F8439F
:103910002DED0A8BA8B00600B0EE408AF0EE608A6A
:103920000C0015009FEDC69A9FEDC6AB19EE100A6C
:1039300003F0DCF98046894618EE900A03F0D6F9C8
:1039400053EC1A2B01F0A2F942464B4603F09EFCC1
:1039500001F08AFA09EE900A19EE100A03F0C6F98E
:103960008046894618EE900A03F0C0F953EC1A2BF2
:1039700001F08CF902000B004046494603F044FD7B
:1039800001F072FA0AEE100A24A8102103F0AAF935
:1039900024A880ED028A80ED038A20A8102103F07C
:1039A000A1F920A8B1EE480A80ED020AB1EE480A5A
:1039B00080ED030AB1EE480AF0EE000A80EE200A1C
:1039C0008DED1C0A1CA8B1EE480AF0EE000A80EE4C
:1039D000200A80ED010AB0EE000A88EE000A80EDB0
:1039E000020AB0EE000A88EE000A80ED030AB0EE8B
:1039F000000A88EE000A8DED180A18A8B0EE000A39
:103A000088EE000A80ED010AB1EE480AF0EE000AE5
:103A100080EE200A80ED020AB1EE480AF0EE000ABC
:103A200080EE200A80ED030A04A8102103F05AF961
:103A30008DED048A8DED058A6846102103F052F958
:103A4000B1EE480A8DED000AB1EE480A8DED010A8B
:103A5000CDED149A9FED7DBB14AF19EE900A03F0E3
:103A600045F953EC1B2B03F011FC01F0FDF97860D4
:103A70009FED79CB19EE900A03F038F953EC1C2B2B
:103A800003F004FC01F0F0F9B860C7ED039A8DED86
:103A900010AA10AF1AEE100A03F028F953EC1B2BF2
:103AA00003F0F4FB01F0E0F978601AEE100A03F07D
:103AB0001DF953EC1C2B03F0E9FB01F0D5F9B860BC
:103AC00087ED03AACDED0C9A0CA8C0ED019AC0EDCC
:103AD000029AC0ED039A8DED08AA08A880ED01AA0C
:103AE00080ED02AA80ED03AA3078002822D1002CB4
:103AF00005D114AA24A9301D03F040FA8FE0012C4F
:103B000006D108AA20A916F1280003F037FA86E0AA
:103B1000022C06D110AA24A916F14C0003F02EFAAB
:103B20007DE0032C7BD10CAA20A916F1700003F0D4
:103B300025FA74E0307801284AD1002D22D1002CDA
:103B400005D10CAA18A9301D03F018FA67E0012C62
:103B500006D110AA1CA916F1280003F00FFA5EE0A6
:103B6000022C06D108AA18A916F14C0003F006FA97
:103B700055E0032C53D114AA1CA916F1700003F0D0
:103B8000FDF94CE0012D22D1002C05D114AA1CA96D
:103B9000301D03F0F3F942E0012C06D108AA18A960
:103BA00016F1280003F0EAF939E0022C06D110AA38
:103BB0001CA916F14C0003F0E1F930E0032C2ED1E2
:103BC0000CAA18A916F1700003F0D8F927E026E036
:103BD0003078022822D1002C05D10CAA04A9301D6E
:103BE00003F0CCF91BE0012C06D110AA694616F1AE
:103BF000280003F0C3F912E0022C06D108AA04A998
:103C000016F14C0003F0BAF909E0032C07D114AA0D
:103C1000694616F1700003F0B1F900E0FFE728B043
:103C2000BDEC0A8BBDE8F18380690020000080BFF5
:103C30002068002000680020E067002084690020E0
:103C400098DD533E000000000000E03F7B14AE47CB
:103C5000E17AA4BFB8F800087B14AE47E17A94BFBC
:103C6000F8B52DED0A8B88B00600F0EE409AB0EE64
:103C700060AAB0EE418AF0EE618AB0EE429ADFF8B7
:103C8000E87997ED000ADFEDBF0AC0EE20AA9FEDAC
:103C9000BEBA0024042C0ADAB7EE000A242000FB86
:103CA00004F03044001D03F07AF9641CF2E7B7EE2B
:103CB00000CAF0EE4CBA3078002840F0A980022209
:103CC0000021B0EE000AC9EE000AB0EE000A88EE4C
:103CD000800A3000FFF71AFE02220121B0EE000A2E
:103CE000C9EE000AB0EE000A88EE800A3000FFF745
:103CF0000DFE02220221B0EE000AC9EE000AB0EE6B
:103D0000000A88EE800A3000FFF700FE022203213D
:103D1000B0EE000AC9EE000AB0EE000A88EE800A92
:103D20003000FFF7F3FD0024042C50DA684600EB66
:103D3000840204A800EB8401B0EE6A0A242000FB90
:103D400004F03044001D03F02DF9012C01D0022CA9
:103D50001DD1DFF8240900EBC401091D00EBC400EC
:103D60006A4602EB8402D2ED000A04AA02EB840246
:103D700092ED000A02F05EFE012826D0032030708A
:103D800000203860DFF8F408002101607EE2DFF8EF
:103D9000E80800EBC401091D00EBC4006A4602EB11
:103DA0008402D2ED000A04AA02EB840292ED000A1A
:103DB00002F040FE012808D0032030700020386057
:103DC000DFF8B8080021016060E2641CACE7002362
:103DD000F1EE040A9FEDD10ADFF89428DFF8941879
:103DE000DFF89408FCF7E2F997ED000ADFED650AC9
:103DF000B4EE600AF1EE10FAC0F248820120307091
:103E000000203860DFF87408DFF8601801603DE2D8
:103E10003078012840F08681F5EE40AAF1EE10FAE4
:103E20001BDBF4EE4CAAF1EE10FA16D500220021AD
:103E3000F0EE490AB0EE680A3000FFF767FD002295
:103E40000221F0EE490AB0EE680A3000FFF75EFD8D
:103E50008AEE8C0AB0EE40BA3AE0F4EE4CAAF1EEEB
:103E600010FA35DB9FEDAE0AF4EE40AAF1EE10FA3F
:103E70002ED501220021F0EE490AB0EE680A30008A
:103E8000FFF744FD01220221F0EE490AB0EE680A74
:103E90003000FFF73BFD3AEECC0A10EE100A02F0BC
:103EA00025FF04000D001CEE100A02F01FFF0200A7
:103EB0000B0000205FF0804103F0A6FA02000B0027
:103EC0002000290002F036FF00F0CEFF0BEE100AB2
:103ED0006A4604A9B0EE4B0A301D03F063F802AA4B
:103EE00006A9B0EE4B0A16F14C0003F05BF8F5EEB4
:103EF00040AAF1EE10FA49DB1CEE100A02F0F6FEC1
:103F000002000B0000205FF0804103F07DFA020008
:103F10000B0014001D001AEE900A02F0E7FE2200CA
:103F20002B0003F0E3FA31D200220121F0EE490A1E
:103F3000B0EE680A3000FFF7E9FC00220321F0EE42
:103F4000490AB0EE680A3000FFF7E0FC1AEE900A6A
:103F500002F0CCFE04000D001CEE100A02F0C6FEBA
:103F600002000B0000205FF0804103F04DFA0200D8
:103F70000B002000290002F0DDFE00F075FF0BEEC3
:103F8000100A4FE000007A44000000001CEE100A06
:103F900002F0ACFE02000B0000205FF0804103F055
:103FA00033FA02000B0014001D001AEE900A02F012
:103FB0009DFE22002B0003F0B1FA33D89FED580A82
:103FC000F4EE40AAF1EE10FA2CD501220121F0EE18
:103FD000490AB0EE680A3000FFF798FC012203217D
:103FE000F0EE490AB0EE680A3000FFF78FFC3AEEB7
:103FF0008C0A10EE100A02F079FE00225FF04043B6
:1040000003F044F904000D001CEE100A02F06EFEED
:1040100002000B002000290002F08CFE00F024FFBB
:104020000BEE100A01AA05A9B0EE4B0A16F1280002
:1040300002F0B8FF03AA07A9B0EE4B0A16F1700010
:1040400002F0B0FF0024042C41DA012C01D0022C34
:104050001DD1DFF8240600EBC401091D00EBC400EC
:104060006A4602EB8402D2ED000A04AA02EB840243
:1040700092ED000A02F0DEFC012826D00320307009
:1040800000203860DFF8F40500210160FEE0DFF871
:10409000E80500EBC401091D00EBC4006A4602EB11
:1040A0008402D2ED000A04AA02EB840292ED000A17
:1040B00002F0C0FC012808D00320307000203860D6
:1040C000DFF8B80500210160E0E0641CBBE70023D5
:1040D000F1EE040A9FED110ADFF89425DFF894153C
:1040E000DFF89405FCF762F897ED000ADFED6A0A45
:1040F000B4EE600AF1EE10FAC0F2C88065480168BB
:10410000012903D1022131700021016000203860B3
:10411000DFF86805DFF854150160B7E00000C84219
:10412000010000403078022840F0A78002220021E0
:10413000B0EE000AC9EE000AB0EE000A88EE800A6E
:104140003000FFF7E3FB02220121B0EE000AC9EEC6
:10415000000AB0EE000A88EE800A3000FFF7D6FBB6
:1041600002220221B0EE000AC9EE000AB0EE000AF7
:1041700088EE800A3000FFF7C9FB02220321B0EE6F
:10418000000AC9EE000AB0EE000A88EE800A30008C
:10419000FFF7BCFB0024042C50DA684600EB8402D5
:1041A00004A800EB8401B0EE6A0A242000FB04F0AE
:1041B0003044001D02F0F6FE012C01D0022C1DD16E
:1041C000DFF8B40400EBC401091D00EBC4006A462B
:1041D00002EB8402D2ED000A04AA02EB840292ED03
:1041E000000A02F027FC012826D0032030700020AE
:1041F0003860DFF888040021016047E0DFF87804C8
:1042000000EBC401091D00EBC4006A4602EB840206
:10421000D2ED000A04AA02EB840292ED000A02F039
:1042200009FC012808D00320307000203860DFF836
:104230004C040021016029E0641CACE70023F1EE8E
:10424000040A9FED160ADFF82824DFF82814DFF8A7
:104250002804FBF7ABFF97ED000ADFED110AB4EE7F
:10426000600AF1EE10FA11DB032030700020386094
:10427000DFF808040021016008E03078032804D149
:104280009FED080AFFF7C2FA00E0FFE708B0BDECB7
:104290000A8BF1BD8C6900200000FA440000C8427E
:1042A00000007A44302A893E38B52DED0C8BA4B03D
:1042B0000400B0EE408AF0EE608AB0EE419AF0EE73
:1042C000619AB0EE42AAF0EE62AA9FED06CADFED57
:1042D00005CA6078002807D1B0EE68CAF0EE48CA77
:1042E00009E000BF000000006078012803D1B0EEB3
:1042F00048CAF0EE68CA39EE4CDA79EE6CDA6846F4
:10430000102102F0EFFC10A8102102F0EBFC10A825
:10431000B0EE080A8DEE000A80ED010AB0EE000A48
:10432000F0EE080ACDEE200A60EE800AC0ED020A27
:1043300080ED03DA0CA8102102F0D4FC0CA8F0EEFA
:10434000080ACDEEA00AC0ED010AF0EE080ACDEE93
:10435000A00A60EE800AC0ED020AC0ED03DA08A8E8
:10436000102102F0BFFC8DED08DA08A8F0EE080A73
:10437000CDEE200A60EE800AC0ED010AF0EE080AD8
:10438000CDEE200AC0ED020A04A8102102F0AAFC1A
:10439000CDED04DA04A8F0EE080ACDEEA00A20EE76
:1043A000800A80ED010AB0EE080A8DEE800A80EDE9
:1043B000020A8DED20DA9FEDB2BB20AD3DEE290A59
:1043C00010EE100A02F092FC53EC1B2B00F05EFC86
:1043D000DFF80028DFF8003802F0ACFC00F044FD04
:1043E00068603DEE290A10EE100A02F07FFC53ECE3
:1043F0001B2B00F04BFCDFF8DC27DFF8DC3702F08A
:1044000099FC00F031FDA86085ED03DACDED1CDAF2
:104410001CAD3DEEA90A10EE100A02F067FC53EC49
:104420001B2B00F033FCDFF8AC27DFF8AC3702F0D1
:1044300081FC00F019FD68603DEEA90A10EE100A3B
:1044400002F054FC53EC1B2B00F020FCDFF8842717
:10445000DFF8843702F06EFC00F006FDA860C5EDC1
:1044600003DA8DED18DA18A880ED01DA80ED02DAB2
:1044700080ED03DACDED14DA14A8C0ED01DAC0ED59
:1044800002DAC0ED03DA2078002835D1B5EE40AA73
:10449000F1EE10FA05D110AA6946201D02F06EFD5A
:1044A000DDE0B7EE000AB4EE40AAF1EE10FA06D154
:1044B0000CAA694614F1280002F060FDCFE0B0EECE
:1044C000000AB4EE40AAF1EE10FA06D10CAA694631
:1044D00014F14C0002F052FDC1E0B0EE080AB4EE57
:1044E00040AAF1EE10FA40F0BA8010AA694614F121
:1044F000700002F043FDB2E02078012876D1F5EE9D
:1045000040AAF1EE10FA34D1B5EE40AAF1EE10FA5D
:1045100005D120AA6946201D02F030FD9FE0B7EECC
:10452000000AB4EE40AAF1EE10FA06D114AA6946C8
:1045300014F1280002F022FD91E0B0EE000AB4EE82
:1045400040AAF1EE10FA06D11CAA694614F14C00FB
:1045500002F014FD83E0B0EE080AB4EE40AAF1EEDA
:1045600010FA7CD118AA694614F1700002F006FD19
:1045700075E0B7EE000AF4EE40AAF1EE10FA34D17D
:10458000B5EE40AAF1EE10FA05D118AA6946201D31
:1045900002F0F4FC63E0B7EE000AB4EE40AAF1EEDC
:1045A00010FA06D11CAA694614F1280002F0E6FCB4
:1045B00055E0B0EE000AB4EE40AAF1EE10FA06D1D2
:1045C00014AA694614F14C0002F0D8FC47E0B0EEA2
:1045D000080AB4EE40AAF1EE10FA40D120AA6946CA
:1045E00014F1700002F0CAFC39E038E020780228AB
:1045F00034D1B5EE40AAF1EE10FA05D108AA694609
:10460000201D02F0BBFC2AE0B7EE000AB4EE40AA7F
:10461000F1EE10FA06D104AA694614F1280002F05E
:10462000ADFC1CE0B0EE000AB4EE40AAF1EE10FAC8
:1046300006D104AA694614F14C0002F09FFC0EE07A
:10464000B0EE080AB4EE40AAF1EE10FA07D108AABB
:10465000694614F1700002F091FC00E0FFE724B01D
:10466000BDEC0C8B31BD000080690020000080BFD4
:104670002068002000680020E06700208469002096
:104680000AD7A3703D0AB73F70B52DED088B88B0EF
:104690000400B0EE408AF0EE608AB0EE419AF0EE8F
:1046A000619A04A8102102F01DFB6846102102F057
:1046B00019FB0025042D0ADAB7EE000A242000FBBE
:1046C00005F02044001D02F06AFC6D1CF2E7DFF8E3
:1046D0000C5595ED000ADFEDA40A80EE20AADFED6F
:1046E000A3AAF7EE00BAB0EE6BBA2078002840F02B
:1046F0009180F0EE002A9FED9D2AF0EE691AB0EE4F
:10470000491AF0EE680AB0EE480A2000FFF7CCFD27
:10471000F0EE002AB7EE002AF0EE691AB0EE491A60
:10472000F0EE680AB0EE480A2000FFF7BDFDF0EE9B
:10473000002AB0EE002AF0EE691AB0EE491AF0EE47
:10474000680AB0EE480A2000FFF7AEFDF0EE002A3E
:10475000B0EE082AF0EE691AB0EE491AF0EE680AD7
:10476000B0EE480A2000FFF79FFD0026042E30DA45
:10477000684600EB860204A800EB8601B0EE4A0A08
:10478000242000FB06F02044001D02F00BFCDFF8A3
:10479000500400EBC601091D00EBC6006A4602EB9F
:1047A000860292ED000A79EE400A04AA02EB860224
:1047B00092ED000A02F03EF9012808D00320207093
:1047C00000202860DFF81C0400210160F4E1761C61
:1047D000CCE70023F1EE040A9FEDAC0ADFF80824D1
:1047E000DFF80814DFF8F803FBF7E0FC95ED000AAA
:1047F000DFED5D0AB4EE600AF1EE10FAC0F2DC8182
:104800000120207000202860DFF8D803DFF8E013D3
:104810000160D1E12078012840F03A81B5EE40AA4C
:10482000F1EE10FA27DBB4EE6BAAF1EE10FA22D506
:10483000DFED4E2A9FED4D2AF0EE691AB0EE491ACF
:10484000F0EE680AB0EE480A2000FFF72DFDDFED1C
:10485000472AB0EE082AF0EE691AB0EE491AF0EED7
:10486000680AB0EE480A2000FFF71EFD8AEE2B0A08
:10487000F0EE40AA33E0B4EE6BAAF1EE10FA2EDBB4
:104880009FEDCF0AB4EE40AAF1EE10FA27D5F7EE6D
:10489000002A9FED362AF0EE691AB0EE491AF0EEC2
:1048A000680AB0EE480A2000FFF7FEFCF7EE002A87
:1048B000B0EE082AF0EE691AB0EE491AF0EE680A76
:1048C000B0EE480A2000FFF7EFFC3AEE6B0AF0EE7C
:1048D000000A70EEEB0A80EE200AF0EE40AA6A466B
:1048E00004A9B0EE6A0A201D02F05CFB03AA07A926
:1048F000B0EE6A0A14F1700002F054FBB5EE40AA63
:10490000F1EE10FA34DBB0EE000A30EE6B0AB4EED2
:1049100040AAF1EE10FA2BD5DFED142AB7EE002AEB
:10492000F0EE691AB0EE491AF0EE680AB0EE480AE5
:104930002000FFF7B9FCDFED0D2AB0EE002AF0EE03
:10494000691AB0EE491AF0EE680AB0EE480A200083
:10495000FFF7AAFCB0EE000A30EE6B0A8AEE000AFE
:10496000F0EE40AA3CE000BF00007A4400000000E6
:10497000B0EE000A30EE6B0AB4EE40AAF1EE10FA87
:104980002EDB9FED8F0AB4EE40AAF1EE10FA27D588
:10499000F7EE002AB7EE002AF0EE691AB0EE491AD7
:1049A000F0EE680AB0EE480A2000FFF77DFCF7EE53
:1049B000002AB0EE002AF0EE691AB0EE491AF0EEC5
:1049C000680AB0EE480A2000FFF76EFC3AEE2B0AA8
:1049D000F8EE000A30EE200A80EE2B0AF0EE40AA34
:1049E00001AA05A9B0EE6A0A14F1280002F0DAFA69
:1049F00002AA06A9B0EE6A0A14F14C0002F0D2FA3B
:104A00000026042E1FDA764800EBC601091D00EBD4
:104A1000C6006A4602EB860292ED000A79EE400A71
:104A200004AA02EB860292ED000A02F003F80128C4
:104A300007D003202070002028606A480021016010
:104A4000BAE0761CDDE70023F1EE040A9FED0F0AC1
:104A5000654A66496248FBF7A9FB95ED000ADFED60
:104A6000590AB4EE600AF1EE10FAC0F2A58061486E
:104A70000168012903D10221217000210160002079
:104A8000286058485A49016096E000BF0000C842BB
:104A90002078022840F08980F0EE002A9FED4A2A13
:104AA000F0EE691AB0EE491AF0EE680AB0EE480A64
:104AB0002000FFF7F9FBF0EE002AB7EE002AF0EE37
:104AC000691AB0EE491AF0EE680AB0EE480A200002
:104AD000FFF7EAFBF0EE002AB0EE002AF0EE691ACA
:104AE000B0EE491AF0EE680AB0EE480A2000FFF76F
:104AF000DBFBF0EE002AB0EE082AF0EE691AB0EE09
:104B0000491AF0EE680AB0EE480A2000FFF7CCFB25
:104B10000026042E2EDA684600EB860204A800EB7D
:104B20008601B0EE4A0A242000FB06F02044001D56
:104B300002F038FA2A4800EBC601091D00EBC60056
:104B40006A4602EB860292ED000A79EE400A04AA58
:104B500002EB860292ED000A01F06CFF012807D0FB
:104B600003202070002028601E480021016023E0FF
:104B7000761CCEE70023F1EE040A9FED140A1A4AD0
:104B80001A491748FBF712FB95ED000ADFED100AF2
:104B9000B4EE600AF1EE10FA0EDB03202070002064
:104BA000286010480021016006E02078032802D127
:104BB000FBF702FC00E0FFE708B0BDEC088B70BD1E
:104BC000010000400000FA44000000000000C8425C
:104BD00000007A4448E17A14AE47B13F8069002072
:104BE000E067002084690020206800200068002021
:104BF000000080BF8C690020014648B1B0FA80F106
:104C00008840C91CC1F58461090501EBD02140052C
:104C10007047F0B40246106895681318506803EBAB
:104C20005004C0071DD54D441BE013F8017B05F867
:104C3000017B491EF9D1A0B1B60813F8011B06F09B
:104C40000306032E08BF13F8016B01EB062149424E
:104C5000801C294405D011F8016B05F8016B401E3A
:104C6000F9D1A3420ED013F8016B16F0030104BF73
:104C700013F8011BC91C30090F28DAD113F8010BF6
:104C80000F30D6E7F0BC02F10C007047B0B581EAF6
:104C9000030C0CF0004C40F2FF7515EA11541DBFD7
:104CA00015EA1357AC42AF4239E0E41923EA455301
:104CB00043F48013C90241F0004141EA505EC7024B
:104CC0001100A7FB020200284FF00000EEFB0120BC
:104CD0004FF00001E3FB072118BF42F0010240182A
:104CE00000214941E3FB0E01A4F580640F0302D2C9
:104CF00052004041494154F101046CDD470872F112
:104D0000004250F1000051EB0451A1F580115CBF4D
:104D100041EA0C01B0BD4CEA05510020B0BD05EAE6
:104D20001357AC4214BFAF4241E050EA410E1CBFE2
:104D300052EA430E02E061460020B0BD24423C44EA
:104D40001BD15FEA070EF6D0090302BF014600201F
:104D5000AEF1140EB1FA81F7AEEB070401FA07FECB
:104D60000C37C7F1200100FA07F7C8404EEA000EE1
:104D700023EA455343F48013A2E733F00043B3FA28
:104D800083F704BFB2FA82FE77440B3FE41BB7F10E
:104D9000200E2FBF02FA0EF3BB40C7F1200E22FAFD
:104DA0000EFE38BF43EA0E03BA40641C82E750EAA5
:104DB000410E14BF52EA430E6FF000014FF400178A
:104DC00017EB430F8ABF194617EB410FB5E74CEAC3
:104DD00005510020B0BDD4F10104B4F120070FDA71
:104DE000C4F12007520828BF42F0010210FA07F56B
:104DF00001FA07F7E1BF2A43E0403843E1400FE002
:104E0000352C98DCC7F1200452EA400220FA07F260
:104E100018BF42F0010231FA07F0A1400A43002115
:104E200072F1004250F1000051EB0C01B0BD30B402
:104E3000002513E050F8042BD30744BFA9F1010368
:104E40009A18091F042942F8045BFAD213468C070A
:104E500044BF15809B1CC90748BF1D7050F8041B38
:104E60000029E7D130BC704701F000428B1AA3F152
:104E70006051B1F5801F0ADBB1F17F6F1FD242EAAA
:104E8000C102C10071F1004142EB507070470B1537
:104E9000C3F10903212B10D2890241EA905180020B
:104EA0000128494141F0004121FA03F0C3F12003F8
:104EB000994071F1004150417047100070476FF008
:104EC000000013EB103F5CBF000E42EAC050704779
:104ED00010B50400002C01D101205FE0606A0028B9
:104EE00006D16068B0F5827F06D00020E06103E063
:104EF00000202061002060610020A06294F8510031
:104F0000002805D1002084F85000200002F0B5FBF5
:104F1000022084F851002068006830F040002168C9
:104F20000860606810F48270A16811F404410843BD
:104F3000E16811F400610843217C11F0020108438B
:104F4000217D11F001010843A16911F400710843AA
:104F5000217F11F03801084394F8201011F08001EE
:104F60000843A16A11F40051084321680860A06950
:104F7000000C10F0040094F8241011F01001084304
:104F8000216848602068C06930F400602168C86109
:104F900000206065012084F85100002010BD2DE93B
:104FA000F84306000D0017001C0002F0DFFB8046EE
:104FB000B94696F85100012801D00220CDE0002D1D
:104FC00003D0380080B2002801D10120C5E096F856
:104FD0005000012801D10220BFE0012086F85000D6
:104FE000032086F85100002070653563B786F78688
:104FF0000020B0630020B0870020F087002070649C
:1050000000203064B068B0F5004F0BD13068006804
:1050100030F04000316808603068006850F480402B
:105020003168086030680068400605D43068006860
:1050300050F0400031680860F068B0F5006F35D17D
:105040007068002803D0484680B2012809D1306B2F
:1050500000883168C860306B801C3063F08E401E61
:10506000F086F08E002857D03068806880070AD517
:10507000306B00883168C860306B801C3063F08E04
:10508000401EF086EDE702F071FBB0EB0800A04295
:1050900002D314F1010F01D1002CE2D1012086F8D6
:1050A0005100002086F85000032056E07068002868
:1050B00003D0484680B2012809D1306B00783168AE
:1050C0000873306B401C3063F08E401EF086F08E0B
:1050D000002821D03068806880070AD5306B0078BE
:1050E00031680873306B401C3063F08E401EF086D0
:1050F000EDE702F03BFBB0EB0800A04202D314F155
:10510000010F01D1002CE2D1012086F851000020CE
:1051100086F85000032020E042462100300000F0D5
:105120002CF9002801D020207065B068002808D133
:10513000002000903068C06800903068806800905F
:105140000098012086F85100002086F85000706D0C
:10515000002801D0012000E00020BDE8F2837CB5EA
:105160000400206845682068866816F04100012820
:1051700005D1680603D52000216C884782E0B0077E
:1051800005D5280603D52000616C88477AE016F41F
:10519000B07F77D0A80675D570061BD594F851005E
:1051A00003280DD0606D50F0040060650020009071
:1051B0002068C0680090206880680090009809E02E
:1051C000002000902068C0680090206880680090EF
:1051D000009857E0B0060FD5606D50F00100606593
:1051E000002000902068806800902068006830F0FF
:1051F0004000216808600098F00509D5606D50F006
:105200000800606500200090206880680090009889
:10521000606D002835D02068406830F0E0002168DB
:105220004860012084F8510015F0030F26D0206853
:1052300040688008800021684860E06C00280CD03D
:105240000FF24500E16C0865E06C02F09AFB002863
:1052500003D0606D50F040006065A06C002810D055
:105260000FF22500A16C0865A06C02F08AFB0028F3
:1052700007D0606D50F04000606502E0200002F051
:105280001FFDFFE773BD000038B50400A56B0020CB
:10529000E8870020E886280002F012FD31BD0000FA
:1052A0002DE9FC4705000E0017009846DDF8289010
:1052B00002F05CFA0400B8EB040419EB040402F0F9
:1052C00055FA8246DFF8340100684001000D00FB0A
:1052D00004F00090286880683040B04201D101207D
:1052E00000E000203900C9B2884243D018F1010F14
:1052F000F0D002F03BFAB0EB0A00A04201D2002C41
:105300002FD12868406830F0E0002968486068685C
:10531000B0F5827F0DD1A868B0F5004F03D0A86822
:10532000B0F5806F05D12868006830F0400029682A
:105330000860A86AB0F5005F0BD12868006830F4F7
:105340000050296808602868006850F400502968F7
:105350000860012085F85100002085F850000320E6
:1053600009E00098002801D1002004000098401EA8
:105370000090AFE70020BDE8F6877CB504000D0083
:10538000160000962B00012202212000FFF788FF63
:10539000002805D0606D50F020006065032029E0F2
:1053A000154800681821B0FBF1F01549B0FBF1F188
:1053B0004FF47A70414301916068B0F5827F0ED15D
:1053C00000962B00002280212000FFF769FF0028B3
:1053D0000FD0606D50F02000606503200AE0019856
:1053E000002806D00198401E0190206880680006C1
:1053F000F5D4002076BD0000F8040020F804002059
:1054000040420F000100DFED692AB4EE620AF1EEBE
:1054100010FA06DA9FED663AB4EE430AF1EE10FA9E
:1054200001D500203EE0F4EE620AF1EE10FA04DA53
:10543000F4EE430AF1EE10FA01D5002032E0DFED80
:105440005D3AB4EE631AF1EE10FA04DAB5EE401AE2
:10545000F1EE10FA01D5002024E0DFED573AF4EE2A
:10546000631AF1EE10FA04DAF5EE401AF1EE10FAD2
:1054700001D5002016E0B4EE622AF1EE10FA04DA4B
:10548000B4EE432AF1EE10FA01D500200AE081EDD6
:10549000030AC1ED040A81ED051AC1ED061A81ED7A
:1054A000072A0120704738B52DED068B04000D004A
:1054B000B0EE408AF0EE608AB0EE419AF0EE619A6A
:1054C000B0EE42AA257120782072B0EE4A2AF0EEA2
:1054D000691AB0EE491AF0EE680AB0EE480A2000E8
:1054E000FFF790FF002801D1002000E00120BDEC73
:1054F000068B32BD017102780272704738B52DED0E
:10550000028B04000D009FED2A8ADFED698A1020CE
:10551000B0EE681AF0EE480A94ED010A02F0D2FBF0
:10552000A8600E20B0EE681AF0EE480A94ED020A68
:1055300002F0C8FBE8600A209FED6D1ADFED6D0AEE
:1055400094ED030A02F0BEFB286108209FED6A1A61
:10555000DFED680A94ED040A02F0B4FB68611020E4
:10556000B0EE681AF0EE480A94ED050A02F0AAFBC4
:10557000A861A8682870A868000A6870E868A87020
:10558000E868000A10F03F00296950EA8110E870CD
:1055900028698008287168696871A869A871A86974
:1055A000000AE871BDEC028B31BD00000100204211
:1055B000000020C201C07F4401004C421300DBB256
:1055C0000A2B06D143880B7043889BB21B0A4B7091
:1055D00007E01300DBB2092B03D103780B70002323
:1055E0004B7070470A784B7852EA032202808A781F
:1055F0008270CA78C2700A794B7952EA032282809B
:105600008A79CB7952EA0322C28070470A78027005
:1056100070470A78012A02D10122028025E00A7827
:10562000022A02D1022202801FE00A78042A02D153
:105630000422028019E00A78082A02D10822028096
:1056400013E00A78102A02D1102202800DE00A78B5
:10565000202A02D12022028007E00A78402A02D1C3
:105660004022028001E000220280704738B5040029
:105670000D002079042805D1291D14F10800FFF739
:105680003DFF0CE020790A2802D02079092806D1B4
:10569000227915F13C0114F13400FFF78FFF31BD81
:1056A00001000879097850EA411080B27047000083
:1056B00000002042F8B504000D001600257084F8A3
:1056C000466002212000FFF715FFDFF84C76201D11
:1056D000FFF7E6FF38800020B87094F846103800D5
:1056E00002F01AFB002801D1002000E00120F2BDE9
:1056F00000C07F440000000000004C4238B52DED92
:10570000048B0400B0EE408AF0EE608AB0EE419A5D
:105710009FEDAE2AF0EE491AB0EE681ADFEDAB0A43
:10572000B0EE480A04212000FFF7BDFE002801D199
:10573000002015E0DFF8E055201DFFF7B1FF2880BD
:105740000820A87029002000FFF790FF94F8461069
:10575000280002F0E1FA002801D1002000E0012039
:10576000BDEC048B32BD000038B52DED028B04007A
:10577000B0EE408AF0EE608A9FED942AF0EE681A4F
:105780009FED921AF0EE480A9FED900A0421200046
:10579000FFF789FE002801D1002015E0DFF87855D9
:1057A000201DFFF77DFF28800820A8702900200019
:1057B000FFF75CFF94F84610280002F0ADFA0028CD
:1057C00001D1002000E00120BDEC028B32BD0000C1
:1057D00038B52DED028B0400B0EE408AB0EE482AB9
:1057E000DFED7A1A9FED791ADFED780A9FED770ADF
:1057F00004212000FFF757FE002801D1002015E00A
:10580000DFF81455201DFFF74BFF28800820A870F3
:1058100029002000FFF72AFF94F84610280002F024
:105820007BFA002801D1002000E00120BDEC028BB2
:1058300032BD000038B52DED028B0400B0EE408A79
:105840009FED622AF0EE481A9FED601ADFED5F0AC5
:105850009FED5E0A04212000FFF725FE002801D1FC
:10586000002015E0DFF8B054201DFFF719FF288055
:105870000820A87029002000FFF7F8FE94F84610D1
:10588000280002F049FA002801D1002000E00120A0
:10589000BDEC028B32BD000038B504009FED4B2AF1
:1058A000DFED4A1A9FED491ADFED480A9FED470ADE
:1058B00004212000FFF7F7FD002801D1002015E0AA
:1058C000DFF85454201DFFF7EBFE28800820A87055
:1058D00029002000FFF7CAFE94F84610280002F0C5
:1058E0001BFA002801D1002000E0012032BD000099
:1058F00038B52DED048B0400B0EE408AF0EE608ADE
:10590000B0EE419AF0EE619AB0EE682AF0EE691AB4
:10591000B0EE491ADFED2D0AB0EE480A042120004E
:10592000FFF7C1FD002801D1002015E0DFF8E853A2
:10593000201DFFF7B5FE28800820A8702900200050
:10594000FFF794FE94F84610280002F0E5F90028CD
:1059500001D1002000E00120BDEC048B32BD00002D
:1059600038B52DED048B0400B0EE408AF0EE608A6D
:10597000B0EE419AB0EE682AF0EE491A9FED131A84
:10598000F0EE480A9FED110A04212000FFF78BFD7D
:10599000002801D1002015E0DFF87C53201DFFF71F
:1059A0007FFE28800820A87029002000FFF75EFEF7
:1059B00094F84610280002F0AFF9002801D1002029
:1059C00000E00120BDEC048B32BD000000000000AF
:1059D00038B52DED068B0400B0EE408AF0EE608AFB
:1059E000B0EE419AF0EE619AB0EE42AAB0EE492ACA
:1059F000F0EE4A1AB0EE691AF0EE680AB0EE480A04
:105A000004212000FFF74FFD002801D1002015E000
:105A1000DFF80453201DFFF743FE28800820A870FC
:105A200029002000FFF722FE94F84610280002F01B
:105A300073F9002801D1002000E00120BDEC068BA5
:105A400032BD000038B52DED068B0400B0EE408A63
:105A5000F0EE608AB0EE419AF0EE619AB0EE42AAA2
:105A60000D00B0EE492AF0EE4A1A9FED851AF0EECD
:105A7000680A9FED830A04212000FFF714FD002827
:105A800001D1002078E084F845502800C0B20028F9
:105A90000BD0022823D016D3042834D029D30628CB
:105AA00049D038D3072854D065E0B0EE4A1AF0EE5A
:105AB000690AB0EE480A2000FFF720FE002801D155
:105AC000002059E057E0F0EE4A0AB0EE680A2000E4
:105AD000FFF74AFE002801D100204DE04BE0B0EE78
