:020000040800F2
:10000000906E002041FE0008A5F90008A7F900083D
:10001000A9F90008ABF90008ADF9000800000000DC
:1000200000000000000000000000000019AD000802
:10003000AFF9000800000000C1AC0008B1F90008E9
:1000400045FF000849FF00084DFF000851FF000868
:1000500055FF000859FF00085DFF000861FF000818
:1000600065FF000869FF00086DFF000871FF0008C8
:10007000C5F9000875FF000879FF00087DFF00083A
:1000800081FF000885FF000889FF00088DFF000838
:10009000CFF90008D9F9000891FF000895FF000882
:1000A00099FF00089DFF0008A1FF0008A5FF0008B8
:1000B000E3F90008A9FF0008ADFF0008B1FF000840
:1000C000B5FF0008B9FF0008BDFF0008C1FF000828
:1000D000C5FF0008C9FF0008EDF90008F7F900089E
:1000E000CDFF0008D1FF0008D5FF0008D9FF0008A8
:1000F000DDFF0008E1FF0008E5FF0008E9FF000858
:10010000EDFF000801FA0008F1FF0008F5FF000804
:10011000F9FF0008FDFF00080100010805000108C3
:10012000090001080BFA00080D0001081100010880
:1001300015000108190001081D000108210001082F
:1001400015FA00081FFA0008250001082900010817
:100150002D000108310001083500010829FA0008C6
:10016000390001083D00010841000108450001086F
:10017000490001084D00010851000108000000007D
:1001800055000108590001085D00010861000108DF
:1001900033FA000865000108690001086D000108D4
:1001A0000000000000000000710001082DE9F84384
:1001B0002DED048B80460D001600B0EE408AF0EE67
:1001C000608AB0EE419A1F00DFF8AC4BD8F8080007
:1001D0002060D8F80C006060D8F81800A060D8F84B
:1001E0001C00E060A8682061E8686061A869A061FF
:1001F000E869E061B0682062F0686062B069A0629E
:10020000F069E062C4ED0C8A84ED0D9A3800C0B24A
:1002100004F04CFE0022DFF8643B04F091FE04F091
:100220007DFFA063DFF8589B4FF47A733C222100D6
:10023000484605F00EF8D9F8000080680006FAD4A8
:100240003800C0B2002803D03800C0B2052862D1FF
:10025000DFF8309BDFF8304B3900C9B2B0EE492AE5
:10026000F0EE481A96ED011AD5ED010A99ED000A53
:10027000D8ED012A30EE620A200005F03DFD012094
:1002800006F04DF83900C9B2B0EE492AF0EE481A2E
:1002900096ED001AD5ED000A99ED010AD8ED002A75
:1002A00030EE220A14F1480005F026FD012006F088
:1002B00036F8DFF8E09ADFF8E04A3900C9B2B0EE6C
:1002C000492AF0EE481A96ED051AD5ED050A99ED82
:1002D000000AD8ED052A30EE220A200005F00CFDB8
:1002E000012006F01CF83900C9B2B0EE492AF0EE40
:1002F000481A96ED041AD5ED040A99ED010AD8EDD5
:10030000042A30EE620A14F1480005F0F5FC0120E1
:1003100006F005F84DE0DFF8704A3900C9B2B0EEDA
:10032000492AF0EE481A96ED011AD5ED010A9FED23
:10033000750A200005F0E0FC012005F0F0FF39000F
:10034000C9B2B0EE492AF0EE481A96ED001AD5ED82
:10035000000A9FED6C0A14F1480005F0CDFC012065
:1003600005F0DDFFDFF8304A3900C9B2B0EE492AA6
:10037000F0EE481A96ED051AD5ED050A9FED610AD3
:10038000200005F0B9FC012005F0C9FF3900C9B211
:10039000B0EE492AF0EE481A96ED041AD5ED040A9B
:1003A0009FED580A14F1480005F0A6FC012005F065
:1003B000B6FFBDEC048BBDE8F183000070B52DEDF8
:1003C000028B0024042C13DADFF8980C00EBC40134
:1003D000091D00EBC400DFF8882CD2ED000A9FED68
:1003E000490A06F081FC012840F08980641CE9E795
:1003F000DFF88419DFF86C4CA0680860E06848609A
:10040000A0698860E069C86004200C2804DA002232
:1004100041F82020401CF8E79FED3B8A81ED0C8AD3
:100420005FF08140486300208863DFF854594FF43F
:100430007A733C22280004F00CFF286880680006CC
:10044000FBD4DFF84459DFF83C690021B1EE002A03
:10045000F0EE481A9FED2B1ADFED2A0A96ED000AFE
:10046000D4ED012A30EE620A280005F045FC012097
:1004700005F055FF0021B1EE002AF0EE481A9FED7D
:10048000211ADFED200A96ED010AD4ED002A30EEA4
:10049000220A15F1480005F02FFC012005F03FFF6E
:1004A000DFF8F458DFF8EC680021B1EE002AF0EE36
:1004B000481A9FED141ADFED130A96ED000AD4EDE9
:1004C000052A30EE220A280005F016FC012005F06E
:1004D00026FF0021B1EE002AF0EE481A9FED091A1E
:1004E000DFED080A96ED010AD4ED042A30EE620A27
:1004F00015F1480005F000FC012005F010FFBDECEF
:10050000028B70BD000000000000C842F8B52DED60
:10051000068BA0B00600B0EE408AF0EE608A0C00B8
:10052000150096F9010009EE100A1CA8102106F02A
:1005300033FD1CA8B8EEC90A20EE280A80ED020A95
:10054000B8EEC90A20EE280A80ED030A18A8102187
:1005500006F022FD18A8B8EEC90AF1EE680A20EEEE
:10056000800A80ED020AB8EEC90AF1EE680A20EEB0
:10057000800A80ED030A0CA8102106F00DFDB8EEEC
:10058000C90A20EE280A8DED0C0AB8EEC90A20EE41
:10059000280A8DED0D0A08A8102106F0FDFCB8EE22
:1005A000C90AF1EE680A20EE800A8DED080AB8EE5D
:1005B000C90AF1EE680A20EE800A8DED090AB1EE53
:1005C000680AF0EE000A80EE200AF8EEC90A20EE72
:1005D000200A8DED140A14A8B1EE680AF0EE000AA4
:1005E00080EE200AF8EEC90A20EE200A80ED010A0A
:1005F000B0EE000A88EE800AF8EEC90A20EE200A62
:1006000080ED020AB0EE000A88EE800AF8EEC90A10
:1006100020EE200A80ED030AB0EE000A88EE800A80
:10062000F8EEC90A20EE200A8DED100A10A8B0EEEF
:10063000000A88EE800AF8EEC90A20EE200A80ED52
:10064000010AB1EE680AF0EE000A80EE200AF8EE28
:10065000C90A20EE200A80ED020AB1EE680AF0EE27
:10066000000A80EE200AF8EEC90A20EE200A80ED8A
:10067000030A04A8102106F08FFC6846102106F03A
:100680008BFC9FED64AB6F4618EE100A06F088FCF9
:1006900002000B0051EC1A0B04F052FCDFF8C829E1
:1006A000DFF8D43906F0A0FC04F038FD786018EECD
:1006B000100A06F075FC02000B0051EC1A0B04F056
:1006C0003FFCDFF8A429DFF8B03906F08DFC04F018
:1006D00025FDB8603078002822D1002C05D16A466B
:1006E0001CA9301D06F0A4FD8FE0012C06D104AA40
:1006F00018A916F1280006F09BFD86E0022C06D111
:100700006A461CA916F14C0006F092FD7DE0032C10
:100710007BD104AA18A916F1700006F089FD74E0D7
:10072000307801284AD1002D22D1002C05D104AA0D
:1007300010A9301D06F07CFD67E0012C06D16A4649
:1007400014A916F1280006F073FD5EE0022C06D114
:1007500004AA10A916F14C0006F06AFD55E0032C1E
:1007600053D16A4614A916F1700006F061FD4CE001
:10077000012D22D1002C05D16A4614A9301D06F0A6
:1007800057FD42E0012C06D104AA10A916F1280059
:1007900006F04EFD39E0022C06D16A4614A916F186
:1007A0004C0006F045FD30E0032C2ED104AA10A920
:1007B00016F1700006F03CFD27E026E030780228B4
:1007C00022D1002C05D104AA0CA9301D06F030FD61
:1007D0001BE0012C06D16A4608A916F1280006F094
:1007E00027FD12E0022C06D104AA0CA916F14C0038
:1007F00006F01EFD09E0032C07D16A4608A916F190
:10080000700006F015FD00E0FFE720B0BDEC068BA0
:10081000F1BD00000AD7A3703D0AB73FF8B52DED32
:100820000A8B88B00400B0EE408AF0EE608AB0EE29
:10083000419A04A8102106F0AFFB6846102106F08B
:10084000ABFB0025042D0ADAB7EE000A242000FBDA
:1008500005F02044001D06F0FCFC6D1CF2E7DFF8FB
:100860000C5895ED000ADFEDDC0AC0EE209A9FEDF2
:10087000DBAAB7EE00BAF0EE4BAA2078002840F0D1
:10088000838002220021B0EE000AC8EE800AB0EE9A
:10089000480A2000FFF73AFE02220121B0EE000ACA
:1008A000C8EE800AB0EE480A2000FFF72FFE0222B1
:1008B0000221B0EE000AC8EE800AB0EE480A20001D
:1008C000FFF724FE02220321B0EE000AC8EE800AE0
:1008D000B0EE480A2000FFF719FE0026042E30DA99
:1008E000684600EB860204A800EB8601B0EE690AB8
:1008F000242000FB06F02044001D06F0ADFCDFF8CC
:10090000640700EBC601091D00EBC6006A4602EB56
:10091000860292ED000A79EE400A04AA02EB8602F2
:1009200092ED000A06F0E0F9012808D003202070BB
:1009300000202860DFF8640C002101600BE2761CC7
:10094000CCE79FEDBD0A0023B1EE001AF0EE400A9D
:10095000DFF84C2CDFF84C1CDFF80807FFF726FC0B
:1009600095ED000ADFED9C0AB4EE600AF1EE10FA94
:10097000C0F2F1810120207000202860DFF81C0CFB
:10098000DFF8281C0160E6E12078012840F058815A
:10099000DFEDAABAF4EE6B9AF1EE10FA03DBB0EEDB
:1009A000000AF0EE409A0026F5EE409AF1EE10FAB9
:1009B0001DDBF4EE4B9AF1EE10FA18D5002200215F
:1009C000F0EE680AB0EE480A2000FFF79FFD002213
:1009D0000221F0EE680AB0EE480A2000FFF796FD0B
:1009E00089EE8B0AB0EE40AA0120060027E0F4EE63
:1009F0004B9AF1EE10FA22DBF4EE6B9AF1EE10FA5C
:100A00001DD501220021F0EE680AB0EE480A200050
:100A1000FFF77CFD01220221F0EE680AB0EE480AE1
:100A20002000FFF773FD39EECB0AF0EE000A70EEFE
:100A3000CB0A80EE200AB0EE40AA022006006A46E9
:100A400004A9B0EE4A0A201D06F006FC02AA06A977
:100A5000B0EE4A0A14F14C0006F0FEFBF5EE409AA7
:100A6000F1EE10FA25DBB0EE000A30EE4B0AF4EEA0
:100A7000409AF1EE10FA1CD500220121F0EE680A2E
:100A8000B0EE480A2000FFF741FD00220321F0EEFE
:100A9000680AB0EE480A2000FFF738FDB0EE000A01
:100AA00030EE4B0A89EE800AB0EE40AA0120060023
:100AB0002BE0B0EE000A30EE4B0AF4EE409AF1EE75
:100AC00010FA22DBF4EE6B9AF1EE10FA1DD501223A
:100AD0000121F0EE680AB0EE480A2000FFF716FD8B
:100AE00001220321F0EE680AB0EE480A2000FFF769
:100AF0000DFD39EE8B0AF8EE000A30EE200A80EE8A
:100B00000B0AB0EE40AA0220060001AA05A9B0EE29
:100B10004A0A14F1280006F09FFB03AA07A9B0EEC9
:100B20004A0A14F1700006F097FB0027042F21DA1F
:100B3000DFF8300500EBC701091D00EBC7006A466E
:100B400002EB870292ED000A79EE400A04AA02EB5A
:100B5000870292ED000A06F0C7F8012808D00320AA
:100B6000207000202860DFF8340A00210160F2E0E4
:100B70007F1CDBE79FED190AF1EE00BAD5ED000A04
:100B8000F5EE400AF1EE10FA08DBD5ED000A9FED14
:100B9000741AF4EE410AF1EE10FA1AD4D5ED000AF7
:100BA0009FED701AF4EE410AF1EE10FA08DBD5ED74
:100BB000000A9FED6D1AF4EE410AF1EE10FA08D426
:100BC000D5ED000A9FED691AF4EE410AF1EE10FA34
:100BD00006DB9FED67CA05E000007A4400000000D4
:100BE0009FED63CA0023B0EE6B1AF0EE4C0AB0EE34
:100BF0004C0ADFF8AC29DFF8AC19DFF86804FFF71E
:100C0000D5FA95ED000ADFED5B0AB4EE600AF1EE6D
:100C100010FAC0F2A080DFF8B4090168012903D1FD
:100C2000022121700021016000202860DFF86C099A
:100C3000DFF8781901608EE00000C8420100004032
:100C40002078022840F0808002220021B0EE000AC5
:100C5000C8EE800AB0EE480A2000FFF757FC0222D7
:100C60000121B0EE000AC8EE800AB0EE480A20006A
:100C7000FFF74CFC02220221B0EE000AC8EE800A07
:100C8000B0EE480A2000FFF741FC02220321B0EE3B
:100C9000000AC8EE800AB0EE480A2000FFF736FCD2
:100CA0000026042E30DA684600EB860204A800EB2A
:100CB0008601B0EE690A242000FB06F02044001DE6
:100CC00006F0CAFADFF89C0300EBC601091D00EB31
:100CD000C6006A4602EB860292ED000A79EE400AEF
:100CE00004AA02EB860292ED000A05F0FDFF01283E
:100CF00008D00320207000202860DFF8A008002121
:100D0000016028E0761CCCE79FED200A0023B1EEBD
:100D1000001AF0EE400ADFF88828DFF88818D1487A
:100D2000FFF744FA95ED000ADFED190AB4EE600A08
:100D3000F1EE10FA0FDB0320207000202860DFF8AE
:100D40005C080021016006E02078032802D1FFF74B
:100D500035FB00E0FFE708B0BDEC0A8BF1BD0000F9
:100D60000000A04200007044010082440000F044F2
:100D700000000C420000FA44C46700200000F03F6D
:100D800074650020C8040020A45B00200000C84255
:100D900000007A44D8040020E45D0020F8B52DED71
:100DA000068BA0B00600B0EE408AF0EE608A0C0020
:100DB000150096F9010000EE100AB8EEC09A1CA8C2
:100DC000102106F0E9F81CA828EE890A80ED020A35
:100DD00028EE890A80ED030A18A8102106F0DCF835
:100DE00018A8B1EE680A20EE090A80ED020AB1EEF9
:100DF000680A20EE090A80ED030A0CA8102106F00B
:100E0000CBF828EE890A8DED0C0A28EE890A8DEDC3
:100E10000D0A08A8102106F0BFF8B1EE680A20EE0E
:100E2000090A8DED080AB1EE680A20EE090A8DED77
:100E3000090AB1EE680AF0EE000A80EE200A20EE00
:100E4000090A8DED140A14A8B1EE680AF0EE000A42
:100E500080EE200A20EE090A80ED010AB0EE000AB9
:100E600088EE800A20EE090A80ED020AB0EE000A40
:100E700088EE800A20EE090A80ED030AB0EE000A2F
:100E800088EE800A20EE090A8DED100A10A8B0EE57
:100E9000000A88EE800A20EE090A80ED010AB1EE10
:100EA000680AF0EE000A80EE200A20EE090A80EDC2
:100EB000020AB1EE680AF0EE000A80EE200A20EE87
:100EC000090A80ED030A04A8102106F065F86846B7
:100ED000102106F061F89FED66AB6F4618EE100A20
:100EE00006F05EF802000B0051EC1A0B04F028F833
:100EF0005D4A614B06F078F804F010F9786018EE5E
:100F0000100A06F04DF802000B0051EC1A0B04F029
:100F100017F8554A584B06F067F804F0FFF8B86028
:100F20003078002822D1002C05D16A461CA9301D3A
:100F300006F07EF98FE0012C06D104AA1CA916F157
:100F4000280006F075F986E0022C06D16A4618A939
:100F500016F14C0006F06CF97DE0032C7BD104AA5D
:100F600018A916F1700006F063F974E030780128D2
:100F70004AD1002D22D1002C05D104AA10A9301D80
:100F800006F056F967E0012C06D16A4610A916F161
:100F9000280006F04DF95EE0022C06D104AA14A93F
:100FA00016F14C0006F044F955E0032C53D16A4683
:100FB00014A916F1700006F03BF94CE0012D22D186
:100FC000002C05D16A4614A9301D06F031F942E023
:100FD000012C06D104AA14A916F1280006F028F95C
:100FE00039E0022C06D16A4610A916F14C0006F031
:100FF0001FF930E0032C2ED104AA10A916F17000BD
:1010000006F016F927E026E03078022822D1002CDD
:1010100005D104AA0CA9301D06F00AF91BE0012C29
:1010200006D16A460CA916F1280006F001F912E073
:10103000022C06D104AA08A916F14C0006F0F8F813
:1010400009E0032C07D16A4608A916F1700006F0E2
:10105000EFF800E0FFE720B0BDEC068BF1BD00002B
:10106000BC0400205068002048E17A14F069002098
:101070000AD7A3703D0AB73FAE47B13F70B52DED1B
:101080000A8B88B00400B0EE408AF0EE608AB0EEC1
:10109000419A04A8102105F07FFF6846102105F051
:1010A0007BFF0025042D0ADAB7EE000A242000FB9E
:1010B00005F02044001D06F0CCF86D1CF2E7DFF8C7
:1010C000F85B95ED000ADFEDD70AC0EE209A9FEDA0
:1010D000D6AAB7EE00BAF0EE4BAA2078002840F06E
:1010E000838002220021B0EE000AC8EE800AB0EE32
:1010F000480A2000FFF752FE02220121B0EE000A4A
:10110000C8EE800AB0EE480A2000FFF747FE022230
:101110000221B0EE000AC8EE800AB0EE480A2000B4
:10112000FFF73CFE02220321B0EE000AC8EE800A5F
:10113000B0EE480A2000FFF731FE0026042E30DA18
:10114000684600EB860204A800EB8601B0EE690A4F
:10115000242000FB06F02044001D06F07DF8DFF897
:10116000600B00EBC601091D00EBC6006A4602EBEE
:10117000860292ED000A79EE400A04AA02EB86028A
:1011800092ED000A05F0B0FD012808D00320207080
:1011900000202860DFF8040400210160F9E1761CDA
:1011A000CCE79FEDB60A0023B1EE001AF0EE400A3C
:1011B000DFF8EC23DFF8EC13DFF8040BFEF7F6FFA3
:1011C00095ED000ADFED970AB4EE600AF1EE10FA31
:1011D000C0F2DF810120207000202860DFF8BC030E
:1011E000DFF8C8130160D4E12078012840F04A817B
:1011F000DFEDA3BAF4EE6B9AF1EE10FA03DBB0EE7A
:10120000000AF0EE409AF5EE409AF1EE10FA1BDB80
:10121000F4EE4B9AF1EE10FA16D500220021F0EE12
:10122000680AB0EE480A2000FFF7B8FD002202214C
:10123000F0EE680AB0EE480A2000FFF7AFFD89EE35
:101240008B0AB0EE40AA25E0F4EE4B9AF1EE10FACC
:1012500020DBF4EE6B9AF1EE10FA1BD5012200218F
:10126000F0EE680AB0EE480A2000FFF797FD012271
:101270000221F0EE680AB0EE480A2000FFF78EFD6A
:1012800039EECB0AF0EE000A70EECB0A80EE200AAF
:10129000B0EE40AA6A4604A9B0EE4A0A201D05F045
:1012A000DBFF02AA06A9B0EE4A0A14F14C0005F0D1
:1012B000D3FFF5EE409AF1EE10FA23DBB0EE000A10
:1012C00030EE4B0AF4EE409AF1EE10FA1AD50022F5
:1012D0000121F0EE680AB0EE480A2000FFF75EFD3B
:1012E00000220321F0EE680AB0EE480A2000FFF762
:1012F00055FDB0EE000A30EE4B0A89EE800AB0EEE2
:1013000040AA29E0B0EE000A30EE4B0AF4EE409A13
:10131000F1EE10FA20DBF4EE6B9AF1EE10FA1BD529
:1013200001220121F0EE680AB0EE480A2000FFF722
:1013300035FD01220321F0EE680AB0EE480A2000D4
:10134000FFF72CFD39EE8B0AF8EE000A30EE200A8A
:1013500080EE0B0AB0EE40AA01AA05A9B0EE4A0A37
:1013600014F1280005F078FF03AA07A9B0EE4A0A95
:1013700014F1700005F070FF0026042E20DADFF86B
:10138000400900EBC601091D00EBC6006A4602EBEE
:10139000860292ED000A79EE400A04AA02EB860268
:1013A00092ED000A05F0A0FC012807D00320207070
:1013B00000202860794800210160EAE0761CDCE723
:1013C0009FED190AF1EE00BAD5ED000AF5EE400ADC
:1013D000F1EE10FA08DBD5ED000A9FED731AF4EE7A
:1013E000410AF1EE10FA1AD4D5ED000A9FED701AF9
:1013F000F4EE410AF1EE10FA08DBD5ED000A9FED9C
:101400006D1AF4EE410AF1EE10FA08D4D5ED000A97
:101410009FED691AF4EE410AF1EE10FA06DB9FED3A
:1014200067CA05E000007A44000000009FED63CA2F
:101430000023B0EE6B1AF0EE4C0AB0EE4C0A584A9C
:101440005849DFF87C08FEF7B1FE95ED000ADFEDA4
:101450005C0AB4EE600AF1EE10FAC0F29A805B48C2
:101460000168012903D102212170002101600020BF
:1014700028604A484D4901608BE000BF0000C84227
:1014800001000040207802287CD102220021B0EE29
:10149000000AC8EE800AB0EE480A2000FFF77EFC82
:1014A00002220121B0EE000AC8EE800AB0EE480A1E
:1014B0002000FFF773FC02220221B0EE000AC8EE02
:1014C000800AB0EE480A2000FFF768FC02220321E0
:1014D000B0EE000AC8EE800AB0EE480A2000FFF71E
:1014E0005DFC0026042E2FDA684600EB860204A875
:1014F00000EB8601B0EE690A242000FB06F02044D0
:10150000001D05F0A9FEDFF8B80700EBC601091DB4
:1015100000EBC6006A4602EB860292ED000A79EE05
:10152000400A04AA02EB860292ED000A05F0DCFBF9
:10153000012807D0032020700020286017480021D0
:10154000016026E0761CCDE79FED1E0A0023B1EE78
:10155000001AF0EE400A124A1249DFF86407FEF75B
:1015600025FE95ED000ADFED180AB4EE600AF1EEF3
:1015700010FA0EDB032020700020286007480021AD
:10158000016006E02078032802D1FEF717FF00E093
:10159000FFE708B0BDEC0A8B70BD0000F4690020C5
:1015A00090680020706800200000A042000080BF0A
:1015B00000007044010082440000F04400000C422E
:1015C0000000FA440000C84200007A44FC69002090
:1015D00038B52DED028B90B00400B0EE408AF0EEED
:1015E000608A0CA8102105F0D7FC04A8102105F092
:1015F000D3FC04A880ED028A80ED038AB1EE680A6C
:101600008DED080A08A8B1EE680A80ED010A80EDA8
:10161000028A80ED038A6846102105F0BDFC8DED3D
:10162000008A8DED018A207801280DD10025042D36
:101630002DDA04AA0CA9242000FB05F02044001D8B
:1016400005F0F6FD6D1CF2E7207803280DD100258A
:10165000042D1CDA08AA0CA9242000FB05F0204464
:10166000001D05F0E5FD6D1CF2E7207805280DD181
:101670000025042D0BDA6A460CA9242000FB05F096
:101680002044001D05F0D4FD6D1CF2E7FFE710B00B
:10169000BDEC028B31BD0000F8B52DED088B88B094
:1016A00004009FEDB78ADFEDB78A9FEDB79ADFEDB3
:1016B000B79A04A8102105F06FFC6846102105F0C8
:1016C0006BFC0025042D0ADAB7EE000A242000FB8B
:1016D00005F02044001D05F0BCFD6D1CF2E7DFF8AD
:1016E000D85595ED000ADFEDAA0A80EE20AA2078F1
:1016F000012857D1F0EE680AB0EE480A2000FFF743
:1017000067FF0026042E2CDA684600EB860204A848
:1017100000EB8601B0EE4A0A242000FB06F02044CC
:10172000001D05F099FDDFF8980500EBC601091DC5
:1017300000EBC6006A4602EB860292ED000A79EEE3
:10174000C00A04AA02EB860292ED000A05F0CCFA68
:10175000012804D00620207000202860EDE1761CCE
:10176000D0E79FED8C0A0023B1EE001AF0EE400A9C
:10177000DFF8EC27DFF8EC17DFF84405FEF716FD7D
:1017800095ED000ADFED820AB4EE600AF1EE10FA80
:10179000C0F2D38102202070002028600A2004F0CB
:1017A000BEFDCAE12078022840F0FE800026042E0B
:1017B00015DADFF80C0500EBC601091D00EBC600C9
:1017C00079EEA80A9FED700A05F08EFA012804D080
:1017D0000620207000202860AFE1761CE7E7DFF8E4
:1017E000880790ED080ADFF88407D0ED000A30EE94
:1017F000600A10EE100A05F0D3FB31F0004141EC15
:101800001B0BDFF8BC54686805F0CAFB02000B0034
:1018100033F0004351EC1B0B05F0A8FE0022DFF86B
:10182000503703F08DFB03F079FC09EE100A9FEDB1
:10183000C50AB4EE409AF1EE10FA03DB9FEDC20A3E
:10184000B0EE409A0020042877DA0021022972DAEB
:10185000DFF8102702EBC002002342F8213005EB2D
:10186000C00202EB810292ED000AB5EE400AF1EEF1
:1018700010FA2FDD002801D0032815D101290AD143
:10188000DFF8DC2602EBC00202EB8102B1EE490A6E
:1018900082ED000A4DE0DFF8C82602EBC00202EB41
:1018A000810282ED009A44E0012908D1DFF8B026D8
:1018B00002EBC00202EB810282ED009A39E0DFF810
:1018C000A02602EBC00202EB8102B1EE490A82EDD2
:1018D000000A2EE0002801D0032815D1012908D1E3
:1018E000DFF87C2602EBC00202EB810282ED009A57
:1018F0001FE0DFF86C2602EBC00202EB8102B1EEC2
:10190000490A82ED000A14E001290AD1DFF85026C5
:1019100002EBC00202EB8102B1EE490A82ED000A3D
:1019200007E0DFF83C2602EBC00202EB810282ED09
:10193000009A491C8AE7401C85E79FED840ADFF87E
:101940002466DFF81C760023B1EE001AF0EE400AA0
:101950003A0031002800FEF729FC002004281DDA97
:101960000021022918DA06EBC002002342F82130D8
:1019700007EBC002002342F82130491CF1E700BF09
:10198000295C8F3D0AD7233E0000000098DD533EBE
:1019900000007A440000C842401CDFE7642004F0E5
:1019A000BEFC03202070C8E02078032851D1F0EE5F
:1019B000680AB0EE480A2000FFF70AFE0026042E4F
:1019C0002BDA684600EB860204A800EB8601B0EE35
:1019D0004A0A242000FB06F02044001D05F03CFCD0
:1019E000B74800EBC601091D00EBC6006A4602EBD2
:1019F000860292ED000A79EEC00A04AA02EB860282
:101A000092ED000A05F070F9012804D0062020703C
:101A10000020286091E0761CD1E79FEDA40A002306
:101A2000B1EE001AF0EE400ADFF83425DFF8341585
:101A3000A348FEF7BBFB95ED000ADFED9D0AB4EE6F
:101A4000600AF1EE10FA78DB042020700020286094
:101A500073E02078042814D10323B1EE001ADFEDDF
:101A6000950A9FED940ADFF8F824DFF8F8149448FB
:101A7000FEF79CFB4FF4FA6004F051FC0520207047
:101A80005BE02078052851D1F0EE680AB0EE480AF4
:101A90002000FFF79DFD0026042E2BDA684600EBA0
:101AA000860204A800EB8601B0EE4A0A242000FB5F
:101AB00006F02044001D05F0CFFB814800EBC60175
:101AC000091D00EBC6006A4602EB860292ED000A91
:101AD00079EEC00A04AA02EB860292ED000A05F034
:101AE00003F9012804D0062020700020286024E09B
:101AF000761CD1E79FED6D0A0023B1EE001AF0EEDF
:101B0000400ADFF85C24DFF85C146D48FEF74EFBFA
:101B100095ED000ADFED660AB4EE600AF1EE10FA08
:101B20000BDB062020700020286006E020780628C5
:101B300002D1FEF743FC00E0FFE708B0BDEC088BE4
:101B4000F1BD000001002042000020420000484397
:101B500038B52DED068BA0B00400B0EE408AF0EE53
:101B6000608AB0EE419ADFED559A39EEA80A79EE17
:101B7000C80A80EE200A20EE09AA0CA8102105F060
:101B80000BFA0CA880ED029A80ED039A8DED1C9A59
:101B90001CA880ED019AB1EE490A80ED020AB1EE6F
:101BA000490A80ED030AB1EE4A0A8DED180A18A819
:101BB000B1EE4A0A80ED010A80ED029A80ED039AA7
:101BC00008A8102105F0E8F98DED089A8DED099A25
:101BD00004A8102105F0E0F904A880ED028A80ED48
:101BE000038A8DED148A14A880ED018A80ED028AA3
:101BF00080ED038AB1EE680A8DED100A10A880ED21
:101C0000018A80ED028A80ED038A6846102105F082
:101C1000C3F98DED008A8DED018A207800280DD161
:101C20000025042D3EDA04AA0CA9242000FB05F0AF
:101C30002044001D05F0FCFA6D1CF2E72078012815
:101C40000DD10025042D2DDA14AA1CA9242000FB97
:101C500005F02044001D05F0EBFA6D1CF2E720783A
:101C600003280DD10025042D1CDA10AA18A9242060
:101C700000FB05F02044001D05F0DAFA6D1CF2E7C8
:101C8000207805280DD10025042D0BDA6A4608A915
:101C9000242000FB05F02044001D05F0C9FA6D1C4E
:101CA000F2E7FFE720B0BDEC068B31BD0000C84273
:101CB00000007A4400000000F069002098DD533EE7
:101CC0005068002038B52DED0A8BC0B00400B0EE8E
:101CD000408AF0EE608AB0EE419AF0EE619AB0EE82
:101CE00042AAF0EE62AA9FED9DBA3BEE280A7BEE77
:101CF000480A80EE200A60EE09BA30A8102105F0EB
:101D00004BF930A8B1EE490A80ED020AB1EE490A5A
:101D100080ED030A2CA8102105F03EF92CA8B1EEA5
:101D2000490A80ED020AB1EE490A80ED030A28A8AB
:101D3000102105F031F9B1EE6B0A8DED280A28A8C3
:101D4000B1EE490A80ED010A80ED039A24A8102122
:101D500005F022F98DED249A8DED259A20A8102109
:101D600005F01AF920A880ED028A80ED038A1CA8EC
:101D7000102105F011F91CA880ED028A80ED038A7C
:101D8000B1EE680A8DED380A38A880ED018A80ED41
:101D9000028A80ED038A18A8102105F0FDF88DED68
:101DA000188A8DED198A3BEE0A0A7BEE690A80EEED
:101DB000200A20EE2ACA14A8102105F0EDF814A874
:101DC000B1EE6A0A80ED020AB1EE6A0A80ED030AFA
:101DD00010A8102105F0E0F810A8B1EE6A0A80ED15
:101DE000020AB1EE6A0A80ED030A0CA8102105F080
:101DF000D3F8B1EE4C0A8DED0C0A0CA8B1EE6A0ACC
:101E000080ED010AC0ED03AA08A8102105F0C4F86E
:101E1000CDED08AACDED09AA3CA8102105F0BCF82B
:101E200004A8102105F0B8F804A8C0ED029AC0ED8E
:101E3000039AB1EE4A0A8DED340A34A8C0ED019A36
:101E4000C0ED029AC0ED039A6846102105F0A4F88F
:101E5000CDED009ACDED019A207800281BD1002508
:101E6000022D0ADA20AA30A9242000FB05F0204424
:101E7000001D05F0DDF96D1CF2E70225042D68DA7E
:101E80003CAA14A9242000FB05F02044001D05F005
:101E9000CFF96D1CF2E7207801281BD10025022D17
:101EA0000ADA1CAA2CA9242000FB05F02044001DFE
:101EB00005F0BEF96D1CF2E70225042D49DA04AAEB
:101EC00010A9242000FB05F02044001D05F0B0F906
:101ED0006D1CF2E7207803281BD10025022D0ADAB9
:101EE00038AA28A9242000FB05F02044001D05F095
:101EF0009FF96D1CF2E70225042D2ADA34AA0CA9F9
:101F0000242000FB05F02044001D05F091F96D1C14
:101F1000F2E7207805281BD10025022D0ADA18AA3D
:101F200024A9242000FB05F02044001D05F080F9C1
:101F30006D1CF2E70225042D0BDA6A4608A924205D
:101F400000FB05F02044001D05F072F96D1CF2E75E
:101F5000FFE740B0BDEC0A8B31BD000098DD533E79
:101F60009068002070680020A45B0020C804002056
:101F7000000024402DE9F0412DED108B8CB00400C1
:101F80009FED530A8DED0A0A9FED528A8DED090AE5
:101F90009FED51DA8DED08DAF0EE4DEADFF8E40856
:101FA000D0ED008ADFF8E00890ED009ADFF8DC68F9
:101FB000D6ED009ADFF8D80890ED00AADFF8D40833
:101FC000D0ED00AADFF8D07897ED00BADFEDCEBAF9
:101FD0009FEDCECA04A8102104F0DEFF6846102150
:101FE00004F0DAFF0025042D0ADAB7EE000A2420F7
:101FF00000FB05F02044001D05F02BF96D1CF2E7F5
:10200000DFF8985895ED000ADFEDC10AC0EE20CA4E
:102010002078012862D1F0EE4B2AB0EE6A2AF0EE69
:102020004A1AB0EE691AF0EE490AB0EE680A2000CA
:10203000FFF748FE0026042E2CDA684600EB8602E5
:1020400004A800EB8601B0EE6C0A242000FB06F029
:102050002044001D05F066FADFF8580800EBC601C1
:10206000091D00EBC6006A4602EB860292ED000AEB
:102070007CEE400A04AA02EB860292ED000A04F00C
:1020800033FE012804D0062020700020286029E2B9
:10209000761CD0E79FEDD00A0023B1EE001AF0EED7
:1020A000400ADFF80C28DFF81018DFF80808FEF700
:1020B0007DF895ED000ADFED960AB4EE600AF1EEC8
:1020C00010FAC0F20F82DFF8D80728600AE200BFDA
:1020D000EC51B83D8FC2753D295C8F3D20780228B8
:1020E00040F020813CEE090A7CEE680A80EE200A6E
:1020F00060EE29DA3CEE2A0A7CEE4A0A80EE200ADB
:1021000020EE0BEA0026022E15DADFF8A80700EB16
:10211000C601091D00EBC6007CEE090AB1EE6D0A8E
:1021200004F0E2FD012804D0062020700020286081
:10213000D8E1761CE7E70226042E15DADFF87407EB
:1021400000EBC601091D00EBC6007CEE2A0AB1EEC9
:102150004E0A04F0C9FD012804D00620207000209A
:102160002860BFE1761CE7E7DFF8380790ED080A42
:10217000DFF83407D0ED000A30EE600A10EE100AE6
:1021800004F00EFF31F0004141EC1F0BDFF8245743
:10219000686804F005FF02000B0033F0004351ECC7
:1021A0001F0B05F0E3F90022DFF8003702F0C8FE4C
:1021B00002F0B4FF0BEE900A9FEDCD0AF4EE40BAA8
:1021C000F1EE10FA03DB9FEDCB0AF0EE40BA0020EF
:1021D000042877DA0021022972DADFF8DC2602EB24
:1021E000C002002342F8213005EBC00202EB81025D
:1021F00092ED000AB5EE400AF1EE10FA2FDD00284C
:1022000001D0032815D101290AD1DFF8A42602EB59
:10221000C00202EB8102B1EE6B0A82ED000A4DE0D2
:10222000DFF88C2602EBC00202EB8102C2ED00BA9D
:1022300044E0012908D1DFF8782602EBC00202EB66
:102240008102C2ED00BA39E0DFF8642602EBC00279
:1022500002EB8102B1EE6B0A82ED000A2EE000284B
:1022600001D0032815D1012908D1DFF8442602EB5B
:10227000C00202EB8102C2ED00BA1FE0DFF8302697
:1022800002EBC00202EB8102B1EE6B0A82ED000AA2
:1022900014E001290AD1DFF8182602EBC00202EB94
:1022A0008102B1EE6B0A82ED000A07E0DFF800263A
:1022B00002EBC00202EB8102C2ED00BA491C8AE7C0
:1022C000401C85E7DFF8F065DFF8E4759FED420A12
:1022D0000523B1EE001AF0EE400A3A003100280062
:1022E000FDF764FF0020042816DA0021022911DA24
:1022F00006EBC002002342F8213007EBC0020023A6
:1023000042F82130491CF1E70000000098DD533EFF
:1023100000007A44401CE6E7642004F000F8032043
:102320002070DFE02078032858D1B0EE4D1AF0EE8F
:102330006E0A9DED080A2000FFF70AFC0026042E15
:102340002CDA684600EB860204A800EB8601B0EEAA
:102350006C0A242000FB06F02044001D04F07CFFE2
:10236000DFF8500500EBC601091D00EBC6006A4608
:1023700002EB860292ED000A7CEE400A04AA02EB10
:10238000860292ED000A04F0AFFC012804D006207A
:10239000207000202860A5E0761CD0E79FED0E0A93
:1023A0000023B1EE001AF0EE400ADFF80425DFF852
:1023B0000815DFF80005FDF7F9FE95ED000ADFEDE1
:1023C0004E0AB4EE600AF1EE10FAC0F28B800420DF
:1023D00020700020286085E00000C8422078042892
:1023E00015D10323B1EE001ADFED440A9FED430A35
:1023F000DFF8BC24DFF8C014DFF8B804FDF7D6FE20
:102400004FF4FA6003F08BFF052020706AE020781B
:10241000052860D1B0EE691AF0EE490AB0EE680AFC
:102420002000FFF795FB5FF00008B8F1040F2DDAEC
:10243000684600EB880204A800EB8801B0EE6C0A45
:10244000242000FB08F02044001D04F005FFDFF805
:10245000640400EBC801091D00EBC8006A4602EBEA
:10246000880292ED000A7CEE400A04AA02EB880280
:1024700092ED000A04F038FC012804D006202070F8
:10248000002028602EE018F10108CEE79FED190A20
:102490000023B1EE001AF0EE400ADFF81424DFF852
:1024A0001814DFF81004FDF781FE95ED000ADFED4A
:1024B000120AB4EE600AF1EE10FA13DB0620207067
:1024C00000202860DFF8700B0021016000203060E0
:1024D0000020386006E02078062802D1FDF76EFF64
:1024E00000E0FFE70CB0BDEC108BBDE8F081000010
:1024F000010020420000204200007A440000000059
:10250000F8B52DED088BB8B00600B0EE408AF0EEBD
:10251000608AB0EE419A0C001500DFED069A9FED3F
:1025200005AA7078002807D1F0EE489AB0EE68AAA4
:1025300009E000BF000000007078012803D1F0EE30
:10254000689AB0EE48AA96F9020000EE100AF8EE7A
:10255000C0AA24A8102104F01FFD24A829EEAA0A6D
:1025600080ED020A29EEAA0A80ED030A20A81021B4
:1025700004F012FD20A8B1EE690A20EE2A0A80EDCF
:10258000020AB1EE690A20EE2A0A80ED030A1CA8AD
:10259000102104F001FD29EEAA0A8DED1C0A29EE96
:1025A000AA0A8DED1D0A18A8102104F0F5FCB1EE61
:1025B000690A20EE2A0A8DED180AB1EE690A20EEAA
:1025C0002A0A8DED190AB1EE690A20EE2A0A8DED6C
:1025D000340A34A8B1EE690A20EE2A0A80ED010A15
:1025E00029EEAA0A80ED020A29EEAA0A80ED030A62
:1025F00029EEAA0A8DED300A30A829EEAA0A80ED4C
:10260000010AB1EE690A20EE2A0A80ED020AB1EE53
:10261000690A20EE2A0A80ED030A14A8102104F0AA
:10262000BBFC14A82AEE2A0A80ED020A2AEE2A0A26
:1026300080ED030A10A8102104F0AEFC10A8B1EE42
:102640004A0A20EE2A0A80ED020AB1EE4A0A20EE7A
:102650002A0A80ED030A0CA8102104F09DFC2AEE42
:102660002A0A8DED0C0A2AEE2A0A8DED0D0A08A819
:10267000102104F091FCB1EE4A0A20EE2A0A8DEDF9
:10268000080AB1EE4A0A20EE2A0A8DED090AB1EED7
:102690004A0A20EE2A0A8DED2C0A2CA8B1EE4A0A2D
:1026A00020EE2A0A80ED010A2AEE2A0A80ED020AAB
:1026B0002AEE2A0A80ED030A2AEE2A0A8DED280A5C
:1026C00028A82AEE2A0A80ED010AB1EE4A0A20EE75
:1026D0002A0A80ED020AB1EE4A0A20EE2A0A80EDAB
:1026E000030A04A8102104F057FC6846102104F0E6
:1026F00053FC9FED72BB6F4619EE100A04F050FCBC
:1027000002000B0051EC1B0B02F01AFCDFF8D02C7E
:10271000DFF8EC3C04F068FC02F000FD786019EE94
:10272000100A04F03DFC02000B0051EC1B0B02F000
:1027300007FCDFF8AC2CDFF8C83C04F055FC02F0D5
:10274000EDFCB8603078002822D1002C05D16A4613
:1027500024A9301D04F06CFD8FE0012C06D104AAE1
:1027600010A916F1280004F063FD86E0022C06D1C2
:102770006A4614A916F14C0004F05AFD7DE0032CC2
:102780007BD104AA20A916F1700004F051FD74E079
:10279000307801284AD1002D22D1002C05D104AA7D
:1027A00030A9301D04F044FD67E0012C06D16A46D3
:1027B0002CA916F1280004F03BFD5EE0022C06D1A6
:1027C00004AA28A916F14C0004F032FD55E0032CB0
:1027D00053D16A4634A916F1700004F029FD4CE08B
:1027E000012D22D1002C05D16A4634A9301D04F0F8
:1027F0001FFD42E0012C06D104AA28A916F12800E9
:1028000004F016FD39E0022C06D16A462CA916F117
:102810004C0004F00DFD30E0032C2ED104AA30A9A9
:1028200016F1700004F004FD27E026E0307802285D
:1028300022D1002C05D104AA1CA9301D04F0F8FCFB
:102840001BE0012C06D16A4608A916F1280004F005
:10285000EFFC12E0022C06D104AA0CA916F14C00E0
:1028600004F0E6FC09E0032C07D16A4618A916F12A
:10287000700004F0DDFC00E0FFE738B0BDEC088B31
:10288000F1BD0000F0040020F8040020046A0020DC
:10289000F4040020FC040020086A0020F0690020F5
:1028A00000007044A45B0020C80400200000244005
:1028B0009068002050680020706800200AD7A3703C
:1028C0003D0AB73F2DE9F8432DED0A8B88B004008F
:1028D000F0EE408AB0EE609AF0EE419AB0EE618A76
:1028E00004A8102104F058FB6846102104F054FBA2
:1028F0000025042D0ADAB7EE000A242000FB05F0BB
:102900002044001D04F0A5FC6D1CF2E7DFF8D45A4A
:1029100095ED000ADFED6F0A80EE20AADFED6EAACA
:10292000B7EE00BADFED6DBA2078002840F0938052
:1029300002220021B0EE691AB0EE000AC9EE000AC8
:10294000B0EE000A88EE800A2000FFF7D9FD0222CF
:102950000121B0EE691AB0EE000AC9EE000AB0EE2D
:10296000000A88EE800A2000FFF7CAFD0222022139
:10297000B0EE691AB0EE000AC9EE000AB0EE000A25
:1029800088EE800A2000FFF7BBFD02220321B0EE93
:10299000691AB0EE000AC9EE000AB0EE000A88EE2D
:1029A000800A2000FFF7ACFD0026042E30DA6846CE
:1029B00000EB860204A800EB8601B0EE4A0A242050
:1029C00000FB06F02044001D04F046FCDFF8240A5A
:1029D00000EBC601091D00EBC6006A4602EB860249
:1029E00092ED000A78EE400A04AA02EB860292ED0C
:1029F000000A04F079F9012808D003202070002093
:102A00002860DFF8000A00210160A1E2761CCCE713
:102A10009FED330A0023B1EE001AF0EE400ADFF812
:102A2000CC29DFF8CC19DFF8CC09FDF7BFFB95ED19
:102A3000000ADFED280AB4EE600AF1EE10FAC0F2E7
:102A400087820120207000202860DFF8B809DFF8B5
:102A5000981901607CE22078012840F0DF819FED29
:102A600021CAB4EE4CAAF1EE10FA03DBB0EE000A74
:102A7000B0EE40AA0026B5EE40AAF1EE10FA33DB24
:102A8000B4EE6BAAF1EE10FA2ED500220021B0EEC2
:102A9000691AB0EE000AC9EE000AB0EE000A88EE2C
:102AA000800A2000FFF72CFD00220221B0EE691AF7
:102AB000B0EE000AC9EE000AB0EE000A88EE800A05
:102AC0002000FFF71DFD8AEE2B0AF0EE40AA012040
:102AD000060050E000007A44000000009A99993FF7
:102AE0000000C84201000040B4EE6BAAF1EE10FAFB
:102AF00041DBB4EE4CAAF1EE10FA3CD501220021E4
:102B0000B0EE691AB0EE000AC9EE000AB0EE000A93
:102B100088EE800A2000FFF7F3FC01220221B0EECC
:102B2000691AB0EE000AC9EE000AB0EE000A88EE9B
:102B3000800A2000FFF7E4FC3AEE6B0A10EE100A60
:102B400004F02EFA804689461BEE900A04F028FA1B
:102B500002000B0000205FF0804104F0C5FD020080
:102B60000B004046494604F03FFA02F0D7FA0AEE5D
:102B7000900A022006006A4604A9B0EE6A0A201DE7
:102B800004F06AFB02AA06A9B0EE6A0A14F14C002E
:102B900004F062FBB5EE40AAF1EE10FA53DB1BEE37
:102BA000900A04F0FDF902000B0000205FF0804164
:102BB00004F09AFD02000B00904699461AEE100AA6
:102BC00004F0EEF942464B4604F000FE3BD20022F0
:102BD0000121B0EE691AB0EE000AC9EE000AB0EEAB
:102BE000000A88EE800A2000FFF78AFC00220321F9
:102BF000B0EE691AB0EE000AC9EE000AB0EE000AA3
:102C000088EE800A2000FFF77BFC1AEE100A04F021
:102C1000C7F9804689461BEE900A04F0C1F902000C
:102C20000B0000205FF0804104F05EFD02000B000D
:102C30004046494604F0D8F902F070FA0AEE900ACC
:102C40000120060057E01BEE900A04F0A9F90200EB
:102C50000B0000205FF0804104F046FD02000B00F5
:102C6000904699461AEE100A04F09AF942464B46ED
:102C700004F0C4FD3FD8B4EE4CAAF1EE10FA3AD5F8
:102C800001220121B0EE691AB0EE000AC9EE000A75
:102C9000B0EE000A88EE800A2000FFF731FC012226
:102CA0000321B0EE691AB0EE000AC9EE000AB0EED8
:102CB000000A88EE800A2000FFF722FC3AEE2B0A79
:102CC00010EE100A04F06CF900225FF0404304F0AB
:102CD0004DFC804689461BEE900A04F061F9020023
:102CE0000B004046494604F07FF902F017FA0AEE5D
:102CF000900A0220060001AA05A9B0EE6A0A14F1A2
:102D0000280004F0A9FA03AA07A9B0EE6A0A14F190
:102D1000700004F0A1FA0027042F21DADFF8D406AE
:102D200000EBC701091D00EBC7006A4602EB8702F2
:102D300092ED000A78EE400A04AA02EB870292EDB7
:102D4000000A03F0D1FF012808D0032020700020E2
:102D50002860DFF8B00600210160F9E07F1CDBE7A6
:102D60009FEDAC0AB1EE00CAD5ED000AF5EE400ABF
:102D7000F1EE10FA08DBD5ED000A9FEDA71AF4EE8C
:102D8000410AF1EE10FA1AD4D5ED000A9FEDA31A0C
:102D9000F4EE410AF1EE10FA08DBD5ED000A9FEDE2
:102DA000A01AF4EE410AF1EE10FA08D4D5ED000AAB
:102DB0009FED9C1AF4EE410AF1EE10FA02DBDFED12
:102DC0009ACA01E0DFED98CA0023B0EE4C1AF0EE8B
:102DD0006C0AB0EE6C0ADFF81426DFF81416DFF880
:102DE0001406FDF7E3F995ED000ADFED900AB4EE65
:102DF000600AF1EE10FAC0F2AB80DFF88C0C0168CB
:102E0000012903D1022121700021016000202860E6
:102E1000DFF8F005DFF8D015016099E0207802288E
:102E200040F0918002220021B0EE691AB0EE000A53
:102E3000C9EE000AB0EE000A88EE800A2000FFF713
:102E40005FFB02220121B0EE691AB0EE000AC9EE62
:102E5000000AB0EE000A88EE800A2000FFF750FB5F
:102E600002220221B0EE691AB0EE000AC9EE000A91
:102E7000B0EE000A88EE800A2000FFF741FB022234
:102E80000321B0EE691AB0EE000AC9EE000AB0EEF6
:102E9000000A88EE800A2000FFF732FB0026042E8D
:102EA00030DA684600EB860204A800EB8601B0EE3B
:102EB0004A0A242000FB06F02044001D04F0CCF94F
:102EC000DFF8300500EBC601091D00EBC6006A46BD
:102ED00002EB860292ED000A78EE400A04AA02EBA9
:102EE000860292ED000A03F0FFFE012808D00320BD
:102EF000207000202860DFF80C050021016027E029
:102F0000761CCCE79FED4A0A0023B1EE001AF0EEE2
:102F1000400ADFF8D824DFF8D814DFF8D804FDF72A
:102F200045F995ED000ADFED430AB4EE600AF1EED3
:102F300010FA0DDB0320207000202860DFF8C404A5
:102F40000021016004E02078032801D1FDF736FA62
:102F500008B0BDEC0A8BBDE8F183000010B52DED83
:102F6000068BB0EE408ADFED359A29EE88AAB0EEE6
:102F7000080ACAEE008AB1EE4A0AF0EE080A80EEAC
:102F8000200AF0EE000A20EE209A0024042C2FDA0A
:102F9000022C15DADFF85C0400EBC401091D00EB1C
:102FA000C400DFF8B82B92ED000A70EE680A9FEDBE
:102FB000190A03F099FE012818D0FDF7FFF926E061
:102FC000DFF8300400EBC401091D00EBC400DFF89A
:102FD0008C2B92ED000A70EE490A9FED0E0A03F069
:102FE00083FE012802D0FDF7E9F910E0641CCDE76B
:102FF0009FED130A0023B1EE001AF0EE400ADFF84D
:10300000EC23DFF8EC13DFF8EC03FDF7CFF8BDECB1
:10301000068B10BD000000000000A04200007044BC
:10302000010082440000F04400000C420000FA4419
:103030000000C84200007A44006A0020CDCCCC3E9B
:10304000000048422DE9F8432DED048BB0B0060096
:10305000B0EE408AF0EE608A0C001500B0EE089ADF
:1030600028EE890A10EE100A03F09AFF02000B0006
:103070009046994618EE100A03F092FFDFF8E42A12
:10308000DFF8DC3A04F072FA42464B4604F0B6FB35
:1030900018D918EE100A03F083FFDFF8C82ADFF80A
:1030A000C83A04F063FA02000B009046994628EEF5
:1030B000890A10EE100A03F073FF42464B4604F0F3
:1030C0009DFB00D886E12CA8102103F065FF2CA8F9
:1030D00080ED028A80ED038A28A8102103F05CFFAE
:1030E00028A8B1EE480A80ED020AB1EE480A80ED48
:1030F000030AB1EE480AF0EE000A80EE200A8DEDD8
:10310000180A18A8B1EE480AF0EE000A80EE200A6C
:1031100080ED010AB0EE000A88EE000A80ED020A96
:10312000B0EE000A88EE000A80ED030AB0EE000A55
:1031300088EE000A8DED140A14A8B0EE000A88EE9D
:10314000000A80ED010AB1EE480AF0EE000A80EEB6
:10315000200A80ED020AB1EE480AF0EE000A80EE85
:10316000200A80ED030A08A8102103F015FF8DED59
:10317000088A8DED098A04A8102103F00DFFB1EE35
:10318000480A8DED040AB1EE480A8DED050A24A81F
:10319000102103F001FF9FED989B24AF18EE900AD9
:1031A00003F0FEFE53EC192B04F0E0F901F0B6FF3A
:1031B000786018EE900A03F0F3FE53EC192B04F03C
:1031C000D5F901F0ABFFB860C7ED038A20A8102144
:1031D00003F0E2FE20A8B1EE680A80ED020AB1EE2B
:1031E000680A80ED030AB1EE680AF0EE000A80EE8C
:1031F000200A8DED100A10AFB0EE000A88EE800AAA
:1032000010EE100A03F0CCFE53EC192B04F0AEF9CB
:1032100001F084FF7860B0EE000A88EE800A10EEBC
:10322000100A03F0BDFE53EC192B04F09FF901F0D6
:1032300075FFB860B0EE000A88EE800A87ED030AD9
:10324000B0EE000A88EE800A8DED0C0A0CA8B0EEF4
:10325000000A88EE800A80ED010AB1EE680AF0EEFD
:10326000000A80EE200A80ED020AB1EE680AF0EE54
:10327000000A80EE200A80ED030A6846102103F060
:103280008BFECDED008ACDED018A1CA8DFF8481C2D
:10329000102204F0DBFAB1EE680A8DED1C0A3078DA
:1032A000002822D1002C05D124AA2CA9301D03F01E
:1032B000BFFF8FE0012C06D120AA28A916F1280013
:1032C00003F0B6FF86E0022C06D124AA2CA916F141
:1032D0004C0003F0ADFF7DE0032C7BD120AA28A990
:1032E00016F1700003F0A4FF74E0307801284AD191
:1032F000002D22D1002C05D10CAA14A9301D03F0F9
:1033000097FF67E0012C06D110AA18A916F1280032
:1033100003F08EFF5EE0022C06D10CAA14A916F170
:103320004C0003F085FF55E0032C53D110AA18A9D7
:1033300016F1700003F07CFF4CE0012D22D1002C2F
:1033400005D110AA18A9301D03F072FF42E0012C2C
:1033500006D10CAA14A916F1280003F069FF39E080
:10336000022C06D110AA18A916F14C0003F060FF38
:1033700030E0032C2ED10CAA14A916F1700003F032
:1033800057FF27E026E03078022822D1002C05D113
:103390006A4608A9301D03F04BFF1BE0012C06D143
:1033A0001CAA04A916F1280003F042FF12E0022C27
:1033B00006D16A4608A916F14C0003F039FF09E06E
:1033C000032C07D11CAA04A916F1700003F030FFEA
:1033D00000E0FFE730B0BDEC048BBDE8F1830000F6
:1033E00048E17A14F0690020000080BF9068002056
:1033F00070680020506800207B14AE47E17A843F5B
:10340000AE47B13FF4690020F8B52DED0E8B88B0C2
:103410000600B0EE409AF0EE609AB0EE41AAB0EE2F
:10342000618AF0EE428ADFF8847A97ED000ADFEDD8
:10343000850AC0EE20AA9FED84BA29EE890AF0EE33
:10344000080A80EE200A7AEE40BAF0EE00DA29EEA1
:10345000890AF0EE080A80EE200AB0EE4ACA00EEB1
:103460002DCA0024042C0ADAB7EE000A242000FB3F
:1034700004F03044001D03F0ECFE641CF2E7B7EEEC
:1034800000DAF0EE4DCA3078002840F0AD8002221C
:103490000021B0EE000AC8EE800AB0EE000A88EE05
:1034A000000A3000FFF7CEFD02220121B0EE000A33
:1034B000C8EE800AB0EE000A88EE000A3000FFF77E
:1034C000C1FD02220221B0EE000AC8EE800AB0EE71
:1034D000000A88EE000A3000FFF7B4FD0222032143
:1034E000B0EE000AC8EE800AB0EE000A88EE000ACC
:1034F0003000FFF7A7FD0024042C52DA684600EBE9
:10350000840204A800EB8401B0EE6A0A242000FBC8
:1035100004F03044001D03F09FFE022C1FDADFF898
:103520009C0900EBC401091D00EBC4006A4602EBD4
:10353000840292ED000A7BEEC00A04AA02EB840228
:1035400092ED000A03F0D0FB012828D00320307050
:1035500000203860DFF868090021016090E2DFF8A0
:103560005C0900EBC401091D00EBC4006A4602EBD4
:10357000840292ED000A7CEE400A04AA02EB840267
:1035800092ED000A03F0B0FB012808D00320307050
:1035900000203860DFF828090021016070E2641C17
:1035A000AAE79FEDD90A0023B1EE001AF0EE400A17
:1035B000DFF80029DFF80019DFF80009FCF7F6FD55
:1035C00097ED000ADFED1F0AB4EE600AF1EE10FA83
:1035D000C0F256820120307000203860DFF8E00829
:1035E000DFF8CC1801604BE23078012840F0908180
:1035F0009FEDC6EAF4EE4EAAF1EE10FA01DBF0EE12
:103600006DAAF5EE40AAF1EE10FA1FDBF4EE4DAA1A
:10361000F1EE10FA1AD500220021F0EE680AB0EEA1
:10362000480A3000FFF70EFD00220221F0EE680A82
:10363000B0EE480A3000FFF705FD8AEE8D0AB0EEC5
:1036400040BA3CE000007A4400000000F4EE4DAACD
:10365000F1EE10FA33DBF4EE4EAAF1EE10FA2ED5AD
:1036600001220021F0EE680AB0EE480A3000FFF7B0
:10367000E9FC01220221F0EE680AB0EE480A3000AF
:10368000FFF7E0FC3AEECD0A10EE100A03F088FCDA
:1036900004000D001DEE100A03F082FC02000B0076
:1036A00000205FF0804104F01FF802000B002000B2
:1036B000290003F099FC01F031FD0BEE100A6A4677
:1036C00004A9B0EE4B0A301D03F0C6FD02AA06A9FC
:1036D000B0EE4B0A16F14C0003F0BEFDF5EE40AA29
:1036E000F1EE10FA45DB1DEE100A03F059FC020062
:1036F0000B0000205FF0804103F0F6FF02000B009A
:1037000014001D001AEE900A03F04AFC22002B0060
:1037100004F05CF82DD200220121F0EE680AB0EE30
:10372000480A3000FFF78EFC00220321F0EE680A01
:10373000B0EE480A3000FFF785FC1AEE900A03F05D
:103740002FFC04000D001DEE100A03F029FC0200FE
:103750000B0000205FF0804103F0C6FF02000B0069
:103760002000290003F040FC01F0D8FC0BEE100A09
:1037700049E01DEE100A03F013FC02000B000020CC
:103780005FF0804103F0B0FF02000B0014001D0049
:103790001AEE900A03F004FC22002B0004F02EF82D
:1037A00031D8F4EE4EAAF1EE10FA2CD50122012107
:1037B000F0EE680AB0EE480A3000FFF743FC012241
:1037C0000321F0EE680AB0EE480A3000FFF73AFC39
:1037D0003AEE8D0A10EE100A03F0E2FB00225FF0D1
:1037E000404303F0C3FE04000D001DEE100A03F079
:1037F000D7FB02000B002000290003F0F5FB01F0CD
:103800008DFC0BEE100A01AA05A9B0EE4B0A16F1C9
:10381000280003F021FD03AA07A9B0EE4B0A16F118
:10382000700003F019FD0024042C43DA022C1FDA87
:10383000DFF8880600EBC401091D00EBC4006A46EE
:1038400002EB840292ED000A7BEEC00A04AA02EBAE
:10385000840292ED000A03F047FA012828D00320E1
:10386000307000203860DFF858060021016007E161
:10387000DFF8480600EBC401091D00EBC4006A46EE
:1038800002EB840292ED000A7CEE400A04AA02EBED
:10389000840292ED000A03F027FA012808D00320E1
:1038A000307000203860DFF8180600210160E7E082
:1038B000641CB9E79FED140A0023B1EE001AF0EE84
:1038C000400ADFF8F025DFF8F015DFF8F005FCF727
:1038D0006DFC97ED000ADFEDA50AB4EE600AF1EE8B
:1038E00010FAC0F2CD8068480168012903D1022195
:1038F00031700021016000203860DFF8C405DFF876
:10390000B0150160BCE000BF0000C84201000040EB
:103910003078022840F0AB8002220021B0EE000A8D
:10392000C8EE800AB0EE000A88EE000A3000FFF709
:1039300089FB02220121B0EE000AC8EE800AB0EE37
:10394000000A88EE000A3000FFF77CFB0222022109
:10395000B0EE000AC8EE800AB0EE000A88EE000A57
:103960003000FFF76FFB02220321B0EE000AC8EE21
:10397000800AB0EE000A88EE000A3000FFF762FB12
:103980000024042C52DA684600EB840204A800EB01
:103990008401B0EE6A0A242000FB04F03044001DCC
:1039A00003F05AFC022C1FDADFF8100500EBC4010B
:1039B000091D00EBC4006A4602EB840292ED000A86
:1039C0007BEEC00A04AA02EB840292ED000A03F027
:1039D0008BF9012828D00320307000203860DFF8F0
:1039E000E004002101604BE0DFF8D00400EBC401EB
:1039F000091D00EBC4006A4602EB840292ED000A46
:103A00007CEE400A04AA02EB840292ED000A03F065
:103A10006BF9012808D00320307000203860DFF8EF
:103A2000A004002101602BE0641CAAE79FED500A6E
:103A30000023B1EE001AF0EE400ADFF87824DFF838
:103A40007814DFF87804FCF7B1FB97ED000ADFED9E
:103A5000490AB4EE600AF1EE10FA11DB032030706F
:103A600000203860DFF858040021016008E0307859
:103A7000032804D19FED450AFFF770FA00E0FFE745
:103A800008B0BDEC0E8BF1BDFC69002010B52DED2A
:103A9000088BB0EE408ADFED389A29EE88AA9FEDB8
:103AA00037BB1AEE100A03F07BFA53EC1B2B01F024
:103AB00047FA01F033FB08EE900AB1EE4A0A10EE25
:103AC000100A03F06DFA53EC1B2B01F039FA01F0E8
:103AD00025FB09EE100A0024042C2FDA012C01D05A
:103AE000022C14D1DFF8D40300EBC401091D00EB54
:103AF000C4001A4A92ED000A70EE680A9FED210A8E
:103B000003F0F2F8012817D0FCF758FC22E0DFF8A8
:103B1000AC0300EBC401091D00EBC4000F4A92ED99
:103B2000000A70EE490A9FED170A03F0DDF801283C
:103B300002D0FCF743FC0DE0641CCDE79FED120AB8
:103B40000023B1EE001AF0EE400ADA4ADA49DB4807
:103B5000FCF72CFBBDEC088B10BD0000BC04002062
:103B60004D6250BFFCA9F1D24D62503F0000FA44B3
:103B70000000C84200007A443333B33E0000000026
:103B80000000E03F0000000000004842ABAAAA3E4F
:103B90002DE9F8432DED0A8BA8B00600B0EE408A5F
:103BA000F0EE608A0C0015009FEDC69A9FEDC6AB43
:103BB00019EE100A03F0F4F98046894618EE900ACF
:103BC00003F0EEF953EC1A2B01F0BAF942464B46DA
:103BD00003F0CCFC01F0A2FA09EE900A19EE100AEB
:103BE00003F0DEF98046894618EE900A03F0D8F912
:103BF00053EC1A2B01F0A4F902000B004046494691
:103C000003F072FD01F08AFA0AEE100A24A81021CE
:103C100003F0C2F924A880ED028A80ED038A20A86F
:103C2000102103F0B9F920A8B1EE480A80ED020A8C
:103C3000B1EE480A80ED030AB1EE480AF0EE000A40
:103C400080EE200A8DED1C0A1CA8B1EE480AF0EEA9
:103C5000000A80EE200A80ED010AB0EE000A88EE2C
:103C6000000A80ED020AB0EE000A88EE000A80ED3C
:103C7000030AB0EE000A88EE000A8DED180A18A8B3
:103C8000B0EE000A88EE000A80ED010AB1EE480AA3
:103C9000F0EE000A80EE200A80ED020AB1EE480A3A
:103CA000F0EE000A80EE200A80ED030A04A810213D
:103CB00003F072F98DED048A8DED058A68461021B6
:103CC00003F06AF9B1EE480A8DED000AB1EE480A38
:103CD0008DED010ACDED149A9FED7DBB14AF19EE69
:103CE000900A03F05DF953EC1B2B03F03FFC01F04D
:103CF00015FA78609FED79CB19EE900A03F050F930
:103D000053EC1C2B03F032FC01F008FAB860C7ED4D
:103D1000039A8DED10AA10AF1AEE100A03F040F9C5
:103D200053EC1B2B03F022FC01F0F8F978601AEE3B
:103D3000100A03F035F953EC1C2B03F017FC01F0CB
:103D4000EDF9B86087ED03AACDED0C9A0CA8C0ED93
:103D5000019AC0ED029AC0ED039A8DED08AA08A859
:103D600080ED01AA80ED02AA80ED03AA3078002838
:103D700022D1002C05D114AA24A9301D03F058FA31
:103D80008FE0012C06D108AA20A916F1280003F023
:103D90004FFA86E0022C06D110AA24A916F14C0095
:103DA00003F046FA7DE0032C7BD10CAA20A916F182
:103DB000700003F03DFA74E0307801284AD1002DFC
:103DC00022D1002C05D10CAA18A9301D03F030FA1D
:103DD00067E0012C06D110AA1CA916F1280003F0F7
:103DE00027FA5EE0022C06D108AA18A916F14C00A9
:103DF00003F01EFA55E0032C53D114AA1CA916F1A6
:103E0000700003F015FA4CE0012D22D1002C05D1F1
:103E100014AA1CA9301D03F00BFA42E0012C06D1B4
:103E200008AA18A916F1280003F002FA39E0022CBA
:103E300006D110AA1CA916F14C0003F0F9F930E0E4
:103E4000032C2ED10CAA18A916F1700003F0F0F97A
:103E500027E026E03078022822D1002C05D10CAAD8
:103E600004A9301D03F0E4F91BE0012C06D110AACF
:103E7000694616F1280003F0DBF912E0022C06D1A6
:103E800008AA04A916F14C0003F0D2F909E0032CAA
:103E900007D114AA694616F1700003F0C9F900E0D1
:103EA000FFE728B0BDEC0A8BBDE8F183F069002084
:103EB000000080BF906800207068002050680020DB
:103EC000F469002098DD533E000000000000E03F50
:103ED0007B14AE47E17AA4BF20FE00087B14AE47F6
:103EE000E17A94BFF8B52DED0A8B88B00600B0EEEC
:103EF000409AF0EE609AB0EE41AAB0EE618AF0EE20
:103F0000428ADFF8007A97ED000ADFED7B0AC0EE07
:103F100020AA9FED7ABA0024042C0ADAB7EE000A30
:103F2000242000FB04F03044001D03F092F9641CCF
:103F3000F2E7B7EE00CAF0EE4CBA3078002840F055
:103F4000AB8002220021B0EE000AC8EE800AB0EE7B
:103F5000000A88EE000A3000FFF71AFE0222012153
:103F6000B0EE000AC8EE800AB0EE000A88EE000A41
:103F70003000FFF70DFE02220221B0EE000AC8EE6B
:103F8000800AB0EE000A88EE000A3000FFF700FE5B
:103F900002220321B0EE000AC8EE800AB0EE000A49
:103FA00088EE000A3000FFF7F3FD0024042C50DAFD
:103FB000684600EB840204A800EB8401B0EE6A0AB4
:103FC000242000FB04F03044001D03F045F9012CCF
:103FD00001D0022C1DD1DFF83C0900EBC401091D02
:103FE00000EBC4006A4602EB8402D2ED000A04AA88
:103FF00002EB840292ED000A02F076FE012826D040
:104000000320307000203860DFF80C0900210160C7
:104010008CE2DFF8000900EBC401091D00EBC400CD
:104020006A4602EB8402D2ED000A04AA02EB840283
:1040300092ED000A02F058FE012808D003203070EB
:1040400000203860DFF8D008002101606EE2641CB7
:10405000ACE79FEDD90A0023B1EE001AF0EE400A5A
:10406000DFF8A828DFF8A818DFF8A808FCF79EF802
:1040700097ED000ADFED200AB4EE600AF1EE10FAC7
:10408000C0F254820120307000203860DFF88808C8
:10409000DFF87418016049E23078012840F090811F
:1040A000DFEDC6CAF4EE6CAAF1EE10FA03DBB0EE57
:1040B000000AF0EE40AAF5EE40AAF1EE10FA1FDB7E
:1040C000F4EE4CAAF1EE10FA1AD500220021F0EE1F
:1040D000680AB0EE480A3000FFF75AFD00220221BC
:1040E000F0EE680AB0EE480A3000FFF751FD8AEEA4
:1040F0008C0AB0EE40BA3CE000007A4400000000B8
:10410000F4EE4CAAF1EE10FA33DBF4EE6CAAF1EE09
:1041100010FA2ED501220021F0EE680AB0EE480A0E
:104120003000FFF735FD01220221F0EE680AB0EE03
:10413000480A3000FFF72CFD3AEECC0A10EE100AC8
:1041400002F02EFF04000D001CEE100A02F028FF02
:1041500002000B0000205FF0804103F0C5FA02006E
:104160000B002000290002F03FFF00F0D7FF0BEE0C
:10417000100A6A4604A9B0EE4B0A301D03F06CF831
:1041800002AA06A9B0EE4B0A16F14C0003F064F83F
:10419000F5EE40AAF1EE10FA45DB1CEE100A02F033
:1041A000FFFE02000B0000205FF0804103F09CFA4C
:1041B00002000B0014001D001AEE900A02F0F0FE3F
:1041C00022002B0003F002FB2DD200220121F0EE91
:1041D000680AB0EE480A3000FFF7DAFC002203213B
:1041E000F0EE680AB0EE480A3000FFF7D1FC1AEE94
:1041F000900A02F0D5FE04000D001CEE100A02F039
:10420000CFFE02000B0000205FF0804103F06CFA4B
:1042100002000B002000290002F0E6FE00F07EFF05
:104220000BEE100A49E01CEE100A02F0B9FE020083
:104230000B0000205FF0804103F056FA02000B00F3
:1042400014001D001AEE900A02F0AAFE22002B00B4
:1042500003F0D4FA31D8F4EE6CAAF1EE10FA2CD5B2
:1042600001220121F0EE680AB0EE480A3000FFF7A3
:104270008FFC01220321F0EE680AB0EE480A3000FC
:10428000FFF786FC3AEE8C0A10EE100A02F088FE68
:1042900000225FF0404303F069F904000D001CEEBA
:1042A000100A02F07DFE02000B002000290002F03F
:1042B0009BFE00F033FF0BEE100A01AA05A9B0EE39
:1042C0004B0A16F1280002F0C7FF03AA07A9B0EEB7
:1042D0004B0A16F1700002F0BFFF0024042C41DAF3
:1042E000012C01D0022C1DD1DFF8280600EBC401FF
:1042F000091D00EBC4006A4602EB8402D2ED000AFD
:1043000004AA02EB840292ED000A02F0EDFC0128FF
:1043100026D00320307000203860DFF8FC05002133
:10432000016003E1DFF8EC0500EBC401091D00EBBF
:10433000C4006A4602EB8402D2ED000A04AA02EB32
:10434000840292ED000A02F0CFFC012808D003207D
:10435000307000203860DFF8C00500210160E5E022
:10436000641CBBE79FED140A0023B1EE001AF0EEC7
:10437000400ADFF89825DFF89815DFF89805FBF775
:1043800015FF97ED000ADFED6B0AB4EE600AF1EE5F
:1043900010FAC0F2CB80DFF8E80A0168012903D1E6
:1043A000022131700021016000203860DFF86805CB
:1043B000DFF854150160B9E00000C8420100004078
:1043C0003078022840F0A98002220021B0EE000AD5
:1043D000C8EE800AB0EE000A88EE000A3000FFF74F
:1043E000D7FB02220121B0EE000AC8EE800AB0EE2F
:1043F000000A88EE000A3000FFF7CAFB0222022101
:10440000B0EE000AC8EE800AB0EE000A88EE000A9C
:104410003000FFF7BDFB02220321B0EE000AC8EE18
:10442000800AB0EE000A88EE000A3000FFF7B0FB09
:104430000024042C50DA684600EB840204A800EB48
:104440008401B0EE6A0A242000FB04F03044001D11
:1044500002F002FF012C01D0022C1DD1DFF8B404C0
:1044600000EBC401091D00EBC4006A4602EB8402A4
:10447000D2ED000A04AA02EB840292ED000A02F0D7
:1044800033FC012826D00320307000203860DFF88C
:1044900088040021016049E0DFF8780400EBC401E2
:1044A000091D00EBC4006A4602EB8402D2ED000A4B
:1044B00004AA02EB840292ED000A02F015FC012826
:1044C00008D00320307000203860DFF84C04002151
:1044D00001602BE0641CACE79FED170A0023B1EEEE
:1044E000001AF0EE400ADFF82424DFF82414DFF885
:1044F0002404FBF75BFE97ED000ADFED100AB4EE33
:10450000600AF1EE10FA11DB0320307000203860F1
:10451000DFF804040021016008E03078032804D1AA
:104520009FED070AFFF7B2FA00E0FFE708B0BDEC25
:104530000A8BF1BD0000FA440000C84200007A4432
:10454000302A893E38B52DED0C8BA4B00400B0EEB6
:10455000408AF0EE608AB0EE419AF0EE619AB0EED9
:1045600042AAF0EE62AA9FED06CADFED05CA6078A6
:10457000002807D1B0EE68CAF0EE48CA09E000BFD3
:10458000000000006078012803D1B0EE48CAF0EEC8
:1045900068CA39EE4CDA79EE6CDA6846102102F01E
:1045A000FBFC10A8102102F0F7FC10A8B0EE080ADE
:1045B0008DEE000A80ED010AB0EE000AF0EE080A66
:1045C000CDEE200A60EE800AC0ED020A80ED03DA2B
:1045D0000CA8102102F0E0FC0CA8F0EE080ACDEEC9
:1045E000A00AC0ED010AF0EE080ACDEEA00A60EEC6
:1045F000800AC0ED020AC0ED03DA08A8102102F01B
:10460000CBFC8DED08DA08A8F0EE080ACDEE200A02
:1046100060EE800AC0ED010AF0EE080ACDEE200A35
:10462000C0ED020A04A8102102F0B6FCCDED04DAB8
:1046300004A8F0EE080ACDEEA00A20EE800A80ED74
:10464000010AB0EE080A8DEE800A80ED020A8DEDB7
:1046500020DA9FEDB2BB20AD3DEE290A10EE100A24
:1046600002F09EFC53EC1B2B00F06AFCDFF81C28C8
:10467000DFF81C3802F0B8FC00F050FD68603DEE39
:10468000290A10EE100A02F08BFC53EC1B2B00F0F1
:1046900057FCDFF8F827DFF8F83702F0A5FC00F048
:1046A0003DFDA86085ED03DACDED1CDA1CAD3DEED5
:1046B000A90A10EE100A02F073FC53EC1B2B00F059
:1046C0003FFCDFF8C827DFF8C83702F08DFC00F0A8
:1046D00025FD68603DEEA90A10EE100A02F060FCAC
:1046E00053EC1B2B00F02CFCDFF8A027DFF8A037E1
:1046F00002F07AFC00F012FDA860C5ED03DA8DED42
:1047000018DA18A880ED01DA80ED02DA80ED03DA1C
:10471000CDED14DA14A8C0ED01DAC0ED02DAC0ED77
:1047200003DA2078002835D1B5EE40AAF1EE10FA70
:1047300005D110AA6946201D02F07AFDDDE0B7EE32
:10474000000AB4EE40AAF1EE10FA06D10CAA6946AE
:1047500014F1280002F06CFDCFE0B0EE000AB4EED8
:1047600040AAF1EE10FA06D10CAA694614F14C00E9
:1047700002F05EFDC1E0B0EE080AB4EE40AAF1EE30
:1047800010FA40F0BA8010AA694614F1700002F0E5
:104790004FFDB2E02078012876D1F5EE40AAF1EE87
:1047A00010FA34D1B5EE40AAF1EE10FA05D120AAE4
:1047B0006946201D02F03CFD9FE0B7EE000AB4EE12
:1047C00040AAF1EE10FA06D114AA694614F12800A5
:1047D00002F02EFD91E0B0EE000AB4EE40AAF1EE38
:1047E00010FA06D11CAA694614F14C0002F020FD13
:1047F00083E0B0EE080AB4EE40AAF1EE10FA7CD1E4
:1048000018AA694614F1700002F012FD75E0B7EEC7
:10481000000AF4EE40AAF1EE10FA34D1B5EE40AA47
:10482000F1EE10FA05D118AA6946201D02F000FD2C
:1048300063E0B7EE000AB4EE40AAF1EE10FA06D13A
:104840001CAA694614F1280002F0F2FC55E0B0EE13
:10485000000AB4EE40AAF1EE10FA06D114AA694695
:1048600014F14C0002F0E4FC47E0B0EE080AB4EEAC
:1048700040AAF1EE10FA40D120AA694614F1700066
:1048800002F0D6FC39E038E02078022834D1B5EEC9
:1048900040AAF1EE10FA05D108AA6946201D02F0DF
:1048A000C7FC2AE0B7EE000AB4EE40AAF1EE10FA17
:1048B00006D104AA694614F1280002F0B9FC1CE0F4
:1048C000B0EE000AB4EE40AAF1EE10FA06D104AA46
:1048D000694614F14C0002F0ABFC0EE0B0EE080AA1
:1048E000B4EE40AAF1EE10FA07D108AA694614F115
:1048F000700002F09DFC00E0FFE724B0BDEC0C8BE3
:1049000031BD0000F0690020000080BF90680020E9
:104910007068002050680020F46900200AD7A37056
:104920003D0AB73F70B52DED0A8B88B00400B0EE9C
:10493000408AF0EE608AB0EE419AF0EE619A04A8E7
:10494000102102F029FB6846102102F025FB00250A
:10495000042D0ADAB7EE000A242000FB05F02044FB
:10496000001D02F076FC6D1CF2E7DFF8285595ED8E
:10497000000ADFEDA90A80EE20AADFEDA8AAF7EE73
:1049800000BAB0EE6BBA2078002840F09380F0EEC9
:10499000002A9FEDA22AF0EE691AB0EE491AF0EE55
:1049A000680AB0EE480A2000FFF7CCFDF0EE002ABE
:1049B000B7EE002AF0EE691AB0EE491AF0EE680A76
:1049C000B0EE480A2000FFF7BDFDF0EE002AB0EE81
:1049D000002AF0EE691AB0EE491AF0EE680AB0EE5D
:1049E000480A2000FFF7AEFDF0EE002AB0EE082ADC
:1049F000F0EE691AB0EE491AF0EE680AB0EE480A15
:104A00002000FFF79FFD0026042E30DA684600EBF9
:104A1000860204A800EB8601B0EE4A0A242000FBBF
:104A200006F02044001D02F017FCDFF86C0400EBD8
:104A3000C601091D00EBC6006A4602EB860292ED34
:104A4000000A79EE400A04AA02EB860292ED000AFF
:104A500002F04AF9012808D00320207000202860C5
:104A6000DFF838040021016002E2761CCCE79FEDFC
:104A7000B30A0023B1EE001AF0EE400ADFF820245A
:104A8000DFF82014DFF81004FBF790FB95ED000A27
:104A9000DFED610AB4EE600AF1EE10FAC0F2E881CF
:104AA0000120207000202860DFF8F003DFF8F81301
:104AB0000160DDE12078012840F044819FEDA0CA2B
:104AC000B4EE4CAAF1EE10FA03DBB0EE000AB0EE41
:104AD00040AAB5EE40AAF1EE10FA27DBB4EE6BAABD
:104AE000F1EE10FA22D5DFED4D2A9FED4C2AF0EEC3
:104AF000691AB0EE491AF0EE680AB0EE480A2000D2
:104B0000FFF720FDDFED452AB0EE082AF0EE691A26
:104B1000B0EE491AF0EE680AB0EE480A2000FFF73E
:104B200011FD8AEE2B0AF0EE40AA31E0B4EE6BAA3A
:104B3000F1EE10FA2CDBB4EE4CAAF1EE10FA27D508
:104B4000F7EE002A9FED352AF0EE691AB0EE491A09
:104B5000F0EE680AB0EE480A2000FFF7F3FCF7EE2B
:104B6000002AB0EE082AF0EE691AB0EE491AF0EE0B
:104B7000680AB0EE480A2000FFF7E4FC3AEE6B0A40
:104B8000F0EE000A70EEEB0A80EE200AF0EE40AA8A
:104B90006A4604A9B0EE6A0A201D02F05DFB03AA72
:104BA00007A9B0EE6A0A14F1700002F055FBB5EEE9
:104BB00040AAF1EE10FA33DBB0EE000A30EE6B0AD9
:104BC000B4EE40AAF1EE10FA2AD5DFED142AB7EEC2
:104BD000002AF0EE691AB0EE491AF0EE680AB0EE5B
:104BE000480A2000FFF7AEFCDFED0C2AB0EE002AE9
:104BF000F0EE691AB0EE491AF0EE680AB0EE480A13
:104C00002000FFF79FFCB0EE000A30EE6B0A8AEE40
:104C1000000AF0EE40AA39E000007A4400000000EB
:104C2000B0EE000A30EE6B0AB4EE40AAF1EE10FAD4
:104C30002CDBB4EE4CAAF1EE10FA27D5F7EE002AE1
:104C4000B7EE002AF0EE691AB0EE491AF0EE680AE3
:104C5000B0EE480A2000FFF775FCF7EE002AB0EE30
:104C6000002AF0EE691AB0EE491AF0EE680AB0EECA
:104C7000480A2000FFF766FC3AEE2B0AF8EE000A1D
:104C800030EE200A80EE2B0AF0EE40AA01AA05A918
:104C9000B0EE6A0A14F1280002F0DEFA02AA06A9B0
:104CA000B0EE6A0A14F14C0002F0D6FA0026042E87
:104CB0001FDA794800EBC601091D00EBC6006A4601
:104CC00002EB860292ED000A79EE400A04AA02EB9A
:104CD000860292ED000A02F007F8012807D00320AF
:104CE0002070002028606D4800210160C0E0761C23
:104CF000DDE79FED120A0023B1EE001AF0EE400A44
:104D0000674A68496448FBF751FA95ED000ADFED00
:104D10005A0AB4EE600AF1EE10FAC0F2A9805848BF
:104D20000168012903D102212170002101600020C6
:104D300028605A485C4901609AE000BF0000C84200
:104D4000010000402078022840F08B80F0EE002A1D
:104D50009FED4A2AF0EE691AB0EE491AF0EE680AA1
:104D6000B0EE480A2000FFF7EDFBF0EE002AB7EEA8
:104D7000002AF0EE691AB0EE491AF0EE680AB0EEB9
:104D8000480A2000FFF7DEFBF0EE002AB0EE002A12
:104D9000F0EE691AB0EE491AF0EE680AB0EE480A71
:104DA0002000FFF7CFFBF0EE002AB0EE082AF0EE6D
:104DB000691AB0EE491AF0EE680AB0EE480A20000F
:104DC000FFF7C0FB0026042E2EDA684600EB8602B1
:104DD00004A800EB8601B0EE4A0A242000FB06F08E
:104DE0002044001D02F038FA2B4800EBC601091DD3
:104DF00000EBC6006A4602EB860292ED000A79EEED
:104E0000400A04AA02EB860292ED000A01F06CFF50
:104E1000012807D003202070002028601F480021AF
:104E2000016025E0761CCEE79FED160A0023B1EE67
:104E3000001AF0EE400A1A4A1A491748FBF7B6F969
:104E400095ED000ADFED100AB4EE600AF1EE10FAFB
:104E50000EDB032020700020286010480021016034
:104E600006E02078032802D1FBF7A8FA00E0FFE76C
:104E700008B0BDEC0A8B70BD0000FA4400000000D1
:104E8000FC6900200000C84200007A4448E17A141E
:104E9000AE47B13FF069002050680020F46900205F
:104EA0009068002070680020000080BF014648B173
:104EB000B0FA80F18840C91CC1F58461090501EB95
:104EC000D02140057047F0B4024610689568131869
:104ED000506803EB5004C0071DD54D441BE013F888
:104EE000017B05F8017B491EF9D1A0B1B60813F882
:104EF000011B06F00306032E08BF13F8016B01EB3C
:104F000006214942801C294405D011F8016B05F89F
:104F1000016B401EF9D1A3420ED013F8016B16F0BD
:104F2000030104BF13F8011BC91C30090F28DAD193
:104F300013F8010B0F30D6E7F0BC02F10C007047FC
:104F4000B0B581EA030C0CF0004C40F2FF7515EA95
:104F500011541DBF15EA1357AC42AF4239E0E419B2
:104F600023EA455343F48013C90241F0004141EA6A
:104F7000505EC7021100A7FB020200284FF000009C
:104F8000EEFB01204FF00001E3FB072118BF42F0C8
:104F90000102401800214941E3FB0E01A4F58064A1
:104FA0000F0302D252004041494154F101046CDD2B
:104FB000470872F1004250F1000051EB0451A1F595
:104FC00080115CBF41EA0C01B0BD4CEA05510020E4
:104FD000B0BD05EA1357AC4214BFAF4241E050EAFE
:104FE000410E1CBF52EA430E02E061460020B0BDF4
:104FF00024423C441BD15FEA070EF6D0090302BFEE
:1050000001460020AEF1140EB1FA81F7AEEB0704B1
:1050100001FA07FE0C37C7F1200100FA07F7C84074
:105020004EEA000E23EA455343F48013A2E733F01F
:105030000043B3FA83F704BFB2FA82FE77440B3F12
:10504000E41BB7F1200E2FBF02FA0EF3BB40C7F1ED
:10505000200E22FA0EFE38BF43EA0E03BA40641C4B
:1050600082E750EA410E14BF52EA430E6FF000018E
:105070004FF4001717EB430F8ABF194617EB410F88
:10508000B5E74CEA05510020B0BDD4F10104B4F1FC
:1050900020070FDAC4F12007520828BF42F00102AE
:1050A00010FA07F501FA07F7E1BF2A43E040384359
:1050B000E1400FE0352C98DCC7F1200452EA4002B1
:1050C00020FA07F218BF42F0010231FA07F0A140BE
:1050D0000A43002172F1004250F1000051EB0C0133
:1050E000B0BD30B4002513E050F8042BD30744BF03
:1050F000A9F101039A18091F042942F8045BFAD2A6
:1051000013468C0744BF15809B1CC90748BF1D7000
:1051100050F8041B0029E7D130BC704701F0004271
:105120008B1AA3F16051B1F5801F0ADBB1F17F6FDB
:105130001FD242EAC102C10071F1004142EB50703E
:1051400070470B15C3F10903212B10D2890241EAE4
:10515000905180020128494141F0004121FA03F0B9
:10516000C3F12003994071F1004150417047100094
:1051700070476FF0000013EB103F5CBF000E42EA77
:10518000C050704710B50400002C01D101205FE031
:10519000606A002806D16068B0F5827F06D00020E2
:1051A000E06103E000202061002060610020A06237
:1051B00094F85100002805D1002084F85000200008
:1051C00002F0CBFB022084F851002068006830F028
:1051D000400021680860606810F48270A16811F4D2
:1051E00004410843E16811F400610843217C11F097
:1051F00002010843217D11F001010843A16911F466
:1052000000710843217F11F03801084394F8201001
:1052100011F080010843A16A11F40051084321688C
:105220000860A069000C10F0040094F8241011F03C
:1052300010010843216848602068C06930F40060AC
:105240002168C86100206065012084F851000020B9
:1052500010BD2DE9F84306000D0017001C0002F0F8
:10526000F5FB8046B94696F85100012801D002208E
:10527000CDE0002D03D0380080B2002801D10120FC
:10528000C5E096F85000012801D10220BFE00120BE
:1052900086F85000032086F85100002070653563C1
:1052A000B786F7860020B0630020B0870020F08723
:1052B0000020706400203064B068B0F5004F0BD15E
:1052C0003068006830F0400031680860306800687D
:1052D00050F480403168086030680068400605D4AA
:1052E0003068006850F0400031680860F068B0F540
:1052F000006F35D17068002803D0484680B201287D
:1053000009D1306B00883168C860306B801C306315
:10531000F08E401EF086F08E002857D030688068EE
:1053200080070AD5306B00883168C860306B801CFC
:105330003063F08E401EF086EDE702F087FBB0EBA5
:105340000800A04202D314F1010F01D1002CE2D1D8
:10535000012086F85100002086F85000032056E016
:105360007068002803D0484680B2012809D1306B0C
:10537000007831680873306B401C3063F08E401E3B
:10538000F086F08E002821D03068806880070AD52A
:10539000306B007831680873306B401C3063F08EDE
:1053A000401EF086EDE702F051FBB0EB0800A04292
:1053B00002D314F1010F01D1002CE2D1012086F8B3
:1053C0005100002086F85000032020E042462100D2
:1053D000300000F02CF9002801D020207065B06862
:1053E000002808D1002000903068C0680090306824
:1053F000806800900098012086F85100002086F80F
:105400005000706D002801D0012000E00020BDE8B0
:10541000F2837CB50400206845682068866816F031
:105420004100012805D1680603D52000216C88477A
:1054300082E0B00705D5280603D52000616C8847B7
:105440007AE016F4B07F77D0A80675D570061BD524
:1054500094F8510003280DD0606D50F00400606591
:10546000002000902068C06800902068806800904C
:10547000009809E0002000902068C0680090206833
:1054800080680090009857E0B0060FD5606D50F02E
:10549000010060650020009020688068009020680E
:1054A000006830F04000216808600098F00509D5D8
:1054B000606D50F0080060650020009020688068F2
:1054C00000900098606D002835D02068406830F06A
:1054D000E00021684860012084F8510015F0030FB6
:1054E00026D0206840688008800021684860E06C11
:1054F00000280CD00FF24500E16C0865E06C02F06A
:10550000B0FB002803D0606D50F040006065A06CD7
:10551000002810D00FF22500A16C0865A06C02F0E5
:10552000A0FB002807D0606D50F04000606502E0ED
:10553000200002F035FDFFE773BD000038B5040020
:10554000A56B0020E8870020E886280002F028FDEF
:1055500031BD00002DE9FC4705000E0017009846FC
:10556000DDF8289002F072FA0400B8EB040419EB9D
:10557000040402F06BFA8246DFF83401006840014F
:10558000000D00FB04F00090286880683040B042B5
:1055900001D1012000E000203900C9B2884243D087
:1055A00018F1010FF0D002F051FAB0EB0A00A0425E
:1055B00001D2002C2FD12868406830F0E000296823
:1055C00048606868B0F5827F0DD1A868B0F5004FDB
:1055D00003D0A868B0F5806F05D12868006830F066
:1055E000400029680860A86AB0F5005F0BD1286800
:1055F000006830F40050296808602868006850F49A
:10560000005029680860012085F85100002085F8C5
:105610005000032009E00098002801D10020040078
:105620000098401E0090AFE70020BDE8F6877CB5EB
:1056300004000D00160000962B000122022120001C
:10564000FFF788FF002805D0606D50F020006065EE
:10565000032029E0154800681821B0FBF1F0154936
:10566000B0FBF1F14FF47A70414301916068B0F5FD
:10567000827F0ED100962B00002280212000FFF7B0
:1056800069FF00280FD0606D50F020006065032096
:105690000AE00198002806D00198401E0190206879
:1056A00080680006F5D4002076BD000008050020C3
:1056B0000805002040420F000100DFED692AB4EE2A
:1056C000620AF1EE10FA06DA9FED663AB4EE430A8A
:1056D000F1EE10FA01D500203EE0F4EE620AF1EEA0
:1056E00010FA04DAF4EE430AF1EE10FA01D50020C4
:1056F00032E0DFED5D3AB4EE631AF1EE10FA04DA4F
:10570000B5EE401AF1EE10FA01D5002024E0DFEDED
:10571000573AF4EE631AF1EE10FA04DAF5EE401A95
:10572000F1EE10FA01D5002016E0B4EE622AF1EE97
:1057300010FA04DAB4EE432AF1EE10FA01D5002093
:105740000AE081ED030AC1ED040A81ED051AC1EDFD
:10575000061A81ED072A0120704738B52DED068B1A
:1057600004000D00B0EE408AF0EE608AB0EE419A7F
:10577000F0EE619AB0EE42AA257120782072B0EE68
:105780004A2AF0EE691AB0EE491AF0EE680AB0EE55
:10579000480A2000FFF790FF002801D1002000E018
:1057A0000120BDEC068B32BD017102780272704798
:1057B00038B52DED028B04000D009FED2A8ADFED38
:1057C000698A1020B0EE681AF0EE480A94ED010ADA
:1057D00002F0E8FBA8600E20B0EE681AF0EE480A6E
:1057E00094ED020A02F0DEFBE8600A209FED6D1ADC
:1057F000DFED6D0A94ED030A02F0D4FB2861082066
:105800009FED6A1ADFED680A94ED040A02F0CAFB04
:1058100068611020B0EE681AF0EE480A94ED050AAF
:1058200002F0C0FBA861A8682870A868000A687028
:10583000E868A870E868000A10F03F00296950EA9B
:105840008110E87028698008287168696871A86902
:10585000A871A869000AE871BDEC028B31BD000097
:1058600001002042000020C201C07F4401004C42E0
:105870001300DBB20A2B06D143880B7043889BB21E
:105880001B0A4B7007E01300DBB2092B03D103782E
:105890000B7000234B7070470A784B7852EA032252
:1058A00002808A788270CA78C2700A794B7952EA8B
:1058B000032282808A79CB7952EA0322C280704720
:1058C0000A78027070470A78012A02D10122028008
:1058D00025E00A78022A02D1022202801FE00A781B
:1058E000042A02D10422028019E00A78082A02D18F
:1058F0000822028013E00A78102A02D110220280C6
:105900000DE00A78202A02D12022028007E00A78DE
:10591000402A02D14022028001E00022028070472A
:1059200038B504000D002079042805D1291D14F193
:105930000800FFF73DFF0CE020790A2802D020790B
:10594000092806D1227915F13C0114F13400FFF742
:105950008FFF31BD01000879097850EA411080B20B
:105960007047000000002042F8B504000D0016004A
:10597000257084F8466002212000FFF715FFDFF84C
:105980004C76201DFFF7E6FF38800020B87094F8B1
:105990004610380002F030FB002801D1002000E062
:1059A0000120F2BD00C07F440000000000004C4216
:1059B00038B52DED048B0400B0EE408AF0EE608A1D
:1059C000B0EE419A9FEDAE2AF0EE491AB0EE681A99
:1059D000DFEDAB0AB0EE480A04212000FFF7BDFE60
:1059E000002801D1002015E0DFF8E055201DFFF769
:1059F000B1FF28800820A87029002000FFF790FF41
:105A000094F84610280002F0F7FA002801D100208F
:105A100000E00120BDEC048B32BD000038B52DED57
:105A2000028B0400B0EE408AF0EE608A9FED942A6B
:105A3000F0EE681A9FED921AF0EE480A9FED900A78
:105A400004212000FFF789FE002801D1002015E085
:105A5000DFF87855201DFFF77DFF28800820A8700B
:105A600029002000FFF75CFF94F84610280002F0A0
:105A7000C3FA002801D1002000E00120BDEC028B18
:105A800032BD000038B52DED028B0400B0EE408A27
:105A9000B0EE482ADFED7A1A9FED791ADFED780A29
:105AA0009FED770A04212000FFF757FE002801D15F
:105AB000002015E0DFF81455201DFFF74BFF28806C
:105AC0000820A87029002000FFF72AFF94F846104C
:105AD000280002F091FA002801D1002000E0012006
