:020000040800F2
:10000000686E002045FD0008A9F80008ABF800085C
:10001000ADF80008AFF80008B1F8000800000000D3
:100020000000000000000000000000001DAC0008FF
:10003000B3F8000800000000C5AB0008B5F80008E0
:1000400049FE00084DFE000851FE000855FE00085C
:1000500059FE00085DFE000861FE000865FE00080C
:1000600069FE00086DFE000871FE000875FE0008BC
:10007000C9F8000879FE00087DFE000881FE00082E
:1000800085FE000889FE00088DFE000891FE00082C
:10009000D3F80008DDF8000895FE000899FE000876
:1000A0009DFE0008A1FE0008A5FE0008A9FE0008AC
:1000B000E7F80008ADFE0008B1FE0008B5FE000834
:1000C000B9FE0008BDFE0008C1FE0008C5FE00081C
:1000D000C9FE0008CDFE0008F1F80008FBF8000892
:1000E000D1FE0008D5FE0008D9FE0008DDFE00089C
:1000F000E1FE0008E5FE0008E9FE0008EDFE00084C
:10010000F1FE000805F90008F5FE0008F9FE0008F8
:10011000FDFE000801FF000805FF000809FF0008B8
:100120000DFF00080FF9000811FF000815FF000877
:1001300019FF00081DFF000821FF000825FF000827
:1001400019F9000823F9000829FF00082DFF00080D
:1001500031FF000835FF000839FF00082DF90008BD
:100160003DFF000841FF000845FF000849FF000867
:100170004DFF000851FF000855FF00080000000077
:1001800059FF00085DFF000861FF000865FF0008D7
:1001900037F9000869FF00086DFF000871FF0008CB
:1001A000000000000000000075FF00082DE9F84382
:1001B0002DED048B80460D001600B0EE408AF0EE67
:1001C000608AB0EE419A1F00DFF8784BD8F808003B
:1001D0002060D8F80C006060D8F81800A060D8F84B
:1001E0001C00E060A8682061E8686061A869A061FF
:1001F000E869E061B0682062F0686062B069A0629E
:10020000F069E062C4ED0C8A84ED0D9A3800C0B24A
:1002100004F0AEFD0022DFF8303B04F0F3FD04F003
:10022000DFFEA063DFF8249B4FF47A733C222100A9
:10023000484604F070FFD9F8000080680006FAD440
:100240003800C0B2002803D03800C0B2052862D1FF
:10025000DFF8FC9ADFF8FC4A3900C9B2B0EE492A4F
:10026000F0EE481A96ED011AD5ED010A99ED000A53
:10027000D8ED012A30EE620A200005F09FFC012033
:1002800005F0AFFF3900C9B2B0EE492AF0EE481AC6
:1002900096ED001AD5ED000A99ED010AD8ED002A75
:1002A00030EE220A14F1480005F088FC012005F028
:1002B00098FFDFF8A89ADFF8A84A3900C9B2B0EE73
:1002C000492AF0EE481A96ED051AD5ED050A99ED82
:1002D000000AD8ED052A30EE220A200005F06EFC57
:1002E000012005F07EFF3900C9B2B0EE492AF0EED8
:1002F000481A96ED041AD5ED040A99ED010AD8EDD5
:10030000042A30EE620A14F1480005F057FC01207F
:1003100005F067FF4DE0DFF83C4A3900C9B2B0EEA6
:10032000492AF0EE481A96ED011AD5ED010A9FED23
:10033000750A200005F042FC012005F052FF39004B
:10034000C9B2B0EE492AF0EE481A96ED001AD5ED82
:10035000000A9FED6C0A14F1480005F02FFC012003
:1003600005F03FFFDFF8F8493900C9B2B0EE492A7D
:10037000F0EE481A96ED051AD5ED050A9FED610AD3
:10038000200005F01BFC012005F02BFF3900C9B24D
:10039000B0EE492AF0EE481A96ED041AD5ED040A9B
:1003A0009FED580A14F1480005F008FC012005F003
:1003B00018FFBDEC048BBDE8F183000070B52DED96
:1003C000028B0024042C13DADFF8600C00EBC4016C
:1003D000091D00EBC400DFF8502CD2ED000A9FEDA0
:1003E000490A06F0E3FB012840F08980641CE9E734
:1003F000DFF85019DFF8344CA0680860E068486006
:10040000A0698860E069C86004200C2804DA002232
:1004100041F82020401CF8E79FED3B8A81ED0C8AD3
:100420005FF08140486300208863DFF820594FF473
:100430007A733C22280004F06EFE2868806800066B
:10044000FBD4DFF81059DFF808690021B1EE002A6B
:10045000F0EE481A9FED2B1ADFED2A0A96ED000AFE
:10046000D4ED012A30EE620A280005F0A7FB012036
:1004700005F0B7FE0021B1EE002AF0EE481A9FED1C
:10048000211ADFED200A96ED010AD4ED002A30EEA4
:10049000220A15F1480005F091FB012005F0A1FEAC
:1004A000DFF8BC58DFF8B4680021B1EE002AF0EEA6
:1004B000481A9FED141ADFED130A96ED000AD4EDE9
:1004C000052A30EE220A280005F078FB012005F00D
:1004D00088FE0021B1EE002AF0EE481A9FED091ABD
:1004E000DFED080A96ED010AD4ED042A30EE620A27
:1004F00015F1480005F062FB012005F072FEBDEC2D
:10050000028B70BD0000000000000C42F8B52DED1C
:10051000068BA0B00600B0EE408AF0EE608A0C00B8
:10052000150096F9010009EE100A1CA8102106F02A
:1005300095FC1CA8B8EEC90A20EE280A80ED020A34
:10054000B8EEC90A20EE280A80ED030A18A8102187
:1005500006F084FC18A8B8EEC90AF1EE680A20EE8D
:10056000800A80ED020AB8EEC90AF1EE680A20EEB0
:10057000800A80ED030A0CA8102106F06FFCB8EE8B
:10058000C90A20EE280A8DED0C0AB8EEC90A20EE41
:10059000280A8DED0D0A08A8102106F05FFCB8EEC0
:1005A000C90AF1EE680A20EE800A8DED080AB8EE5D
:1005B000C90AF1EE680A20EE800A8DED090AB1EE53
:1005C000680AF0EE000A80EE200AF8EEC90A20EE72
:1005D000200A8DED140A14A8B1EE680AF0EE000AA4
:1005E00080EE200AF8EEC90A20EE200A80ED010A0A
:1005F000B0EE000A88EE800AF8EEC90A20EE200A62
:1006000080ED020AB0EE000A88EE800AF8EEC90A10
:1006100020EE200A80ED030AB0EE000A88EE800A80
:10062000F8EEC90A20EE200A8DED100A10A8B0EEEF
:10063000000A88EE800AF8EEC90A20EE200A80ED52
:10064000010AB1EE680AF0EE000A80EE200AF8EE28
:10065000C90A20EE200A80ED020AB1EE680AF0EE27
:10066000000A80EE200AF8EEC90A20EE200A80ED8A
:10067000030A04A8102106F0F1FB6846102106F0D9
:10068000EDFB9FED64AB6F4618EE100A06F0EAFB37
:1006900002000B0051EC1A0B04F0B4FBDFF89029B8
:1006A000DFF8983906F002FC04F09AFC786018EE46
:1006B000100A06F0D7FB02000B0051EC1A0B04F0F5
:1006C000A1FBDFF86C29DFF8743906F0EFFB04F0CA
:1006D00087FCB8603078002822D1002C05D16A460A
:1006E0001CA9301D06F006FD8FE0012C06D104AADE
:1006F00018A916F1280006F0FDFC86E0022C06D1B0
:100700006A461CA916F14C0006F0F4FC7DE0032CAF
:100710007BD104AA18A916F1700006F0EBFC74E076
:10072000307801284AD1002D22D1002C05D104AA0D
:1007300010A9301D06F0DEFC67E0012C06D16A46E8
:1007400014A916F1280006F0D5FC5EE0022C06D1B3
:1007500004AA10A916F14C0006F0CCFC55E0032CBD
:1007600053D16A4614A916F1700006F0C3FC4CE0A0
:10077000012D22D1002C05D16A4614A9301D06F0A6
:10078000B9FC42E0012C06D104AA10A916F12800F8
:1007900006F0B0FC39E0022C06D16A4614A916F125
:1007A0004C0006F0A7FC30E0032C2ED104AA10A9BF
:1007B00016F1700006F09EFC27E026E03078022853
:1007C00022D1002C05D104AA0CA9301D06F092FC00
:1007D0001BE0012C06D16A4608A916F1280006F094
:1007E00089FC12E0022C06D104AA0CA916F14C00D7
:1007F00006F080FC09E0032C07D16A4608A916F12F
:10080000700006F077FC00E0FFE720B0BDEC068B3F
:10081000F1BD00000AD7A3703D0AB73FF8B52DED32
:10082000088B88B00400B0EE408AF0EE608AB0EE2B
:10083000419A04A8102106F011FB6846102106F029
:100840000DFB0025042D0ADAB7EE000A242000FB78
:1008500005F02044001D06F05EFC6D1CF2E7DFF899
:10086000985C95ED000ADFEDD50AC0EE209A9FED69
:10087000D4AAB7EE00BAF0EE4BAA2078002840F0D8
:10088000838002220021B0EE000AC8EE800AB0EE9A
:10089000480A2000FFF73AFE02220121B0EE000ACA
:1008A000C8EE800AB0EE480A2000FFF72FFE0222B1
:1008B0000221B0EE000AC8EE800AB0EE480A20001D
:1008C000FFF724FE02220321B0EE000AC8EE800AE0
:1008D000B0EE480A2000FFF719FE0026042E30DA99
:1008E000684600EB860204A800EB8601B0EE690AB8
:1008F000242000FB06F02044001D06F00FFCDFF86A
:100900002C0700EBC601091D00EBC6006A4602EB8E
:10091000860292ED000A79EE400A04AA02EB8602F2
:1009200092ED000A06F042F9012808D00320207059
:1009300000202860DFF8C40B00210160F9E1761C7B
:10094000CCE7B3EE090A0023B1EE001AF0EE400A3C
:10095000DFF8B02BDFF8B01BDFF8D006FFF726FC7E
:1009600095ED000ADFED950AB4EE600AF1EE10FA9B
:10097000C0F2DF810120207000202860DFF87C0BAE
:10098000DFF8881B0160D4E12078012840F046811F
:10099000DFEDA1BAF4EE6B9AF1EE10FA03DBB0EEE4
:1009A000000AF0EE409A0026F5EE409AF1EE10FAB9
:1009B0001DDBF4EE4B9AF1EE10FA18D5002200215F
:1009C000F0EE680AB0EE480A2000FFF79FFD002213
:1009D0000221F0EE680AB0EE480A2000FFF796FD0B
:1009E00089EE8B0AB0EE40AA0120060027E0F4EE63
:1009F0004B9AF1EE10FA22DBF4EE6B9AF1EE10FA5C
:100A00001DD501220021F0EE680AB0EE480A200050
:100A1000FFF77CFD01220221F0EE680AB0EE480AE1
:100A20002000FFF773FD39EECB0AF0EE000A70EEFE
:100A3000CB0A80EE200AB0EE40AA022006006A46E9
:100A400004A9B0EE4A0A201D06F068FB02AA06A916
:100A5000B0EE4A0A14F14C0006F060FBF5EE409A45
:100A6000F1EE10FA25DBB0EE000A30EE4B0AF4EEA0
:100A7000409AF1EE10FA1CD500220121F0EE680A2E
:100A8000B0EE480A2000FFF741FD00220321F0EEFE
:100A9000680AB0EE480A2000FFF738FDB0EE000A01
:100AA00030EE4B0A89EE800AB0EE40AA0120060023
:100AB0002BE0B0EE000A30EE4B0AF4EE409AF1EE75
:100AC00010FA22DBF4EE6B9AF1EE10FA1DD501223A
:100AD0000121F0EE680AB0EE480A2000FFF716FD8B
:100AE00001220321F0EE680AB0EE480A2000FFF769
:100AF0000DFD39EE8B0AF8EE000A30EE200A80EE8A
:100B00000B0AB0EE40AA0220060001AA05A9B0EE29
:100B10004A0A14F1280006F001FB03AA07A9B0EE67
:100B20004A0A14F1700006F0F9FA0027042F21DABE
:100B3000DFF8F80400EBC701091D00EBC7006A46A7
:100B400002EB870292ED000A79EE400A04AA02EB5A
:100B5000870292ED000A06F029F8012808D0032048
:100B6000207000202860DFF8940900210160E0E097
:100B70007F1CDBE7012E0FD10023B1EE001ADFED61
:100B80006F0AB3EE090ADFF87C29DFF87C19DFF879
:100B90009C04FFF70BFB24E0022E13D10023B1EEDF
:100BA000001AF3EE090A9FED650ADFF85829DFF80D
:100BB0005819DFF87804FFF7F9FA12E000007A44D8
:100BC00000000000B3EE090A0023B1EE001AF0EEB7
:100BD000400ADFF83029DFF83019DFF85004FFF75A
:100BE000E5FA95ED000ADFED560AB4EE600AF1EE83
:100BF00010FAC0F29E80DFF81C090168012903D1B8
:100C0000022121700021016000202860DFF8EC083B
:100C1000DFF8F81801608CE001000040207802281D
:100C200040F0808002220021B0EE000AC8EE800A67
:100C3000B0EE480A2000FFF769FC02220121B0EE65
:100C4000000AC8EE800AB0EE480A2000FFF75EFCFA
:100C500002220221B0EE000AC8EE800AB0EE480A75
:100C60002000FFF753FC02220321B0EE000AC8EE79
:100C7000800AB0EE480A2000FFF748FC0026042E48
:100C800030DA684600EB860204A800EB8601B0EE7D
:100C9000690A242000FB06F02044001D06F03EFAFD
:100CA000DFF8880300EBC601091D00EBC6006A46A9
:100CB00002EB860292ED000A79EE400A04AA02EBEA
:100CC000860292ED000A05F071FF012808D003208A
:100CD000207000202860DFF824080021016028E04F
:100CE000761CCCE7B3EE090A0023B1EE001AF0EE51
:100CF000400ADFF81028DFF81018CC48FFF756FA42
:100D000095ED000ADFED140AB4EE600AF1EE10FA78
:100D10000FDB0320207000202860DFF8E0070021AF
:100D2000016006E02078032802D1FFF747FB00E0CE
:100D3000FFE708B0BDEC088BF1BD000000000C42DD
:100D40000000FA44B46700200000F03F6465002012
:100D5000D0040020945B002000007A44E0040020CE
:100D6000D45D0020F8B52DED068BA0B00600B0EEE6
:100D7000408AF0EE608A0C00150096F9010000EE42
:100D8000100AB8EEC09A1CA8102106F067F81CA83B
:100D900028EE890A80ED020A28EE890A80ED030A0E
:100DA00018A8102106F05AF818A8B1EE680A20EE2B
:100DB000090A80ED020AB1EE680A20EE090A80ED08
:100DC000030A0CA8102106F049F828EE890A8DEDD7
:100DD0000C0A28EE890A8DED0D0A08A8102106F0EC
:100DE0003DF8B1EE680A20EE090A8DED080AB1EE71
:100DF000680A20EE090A8DED090AB1EE680AF0EEE4
:100E0000000A80EE200A20EE090A8DED140A14A8CB
:100E1000B1EE680AF0EE000A80EE200A20EE090A20
:100E200080ED010AB0EE000A88EE800A20EE090A81
:100E300080ED020AB0EE000A88EE800A20EE090A70
:100E400080ED030AB0EE000A88EE800A20EE090A5F
:100E50008DED100A10A8B0EE000A88EE800A20EE90
:100E6000090A80ED010AB1EE680AF0EE000A80EE90
:100E7000200A20EE090A80ED020AB1EE680AF0EEBF
:100E8000000A80EE200A20EE090A80ED030A04A879
:100E9000102105F0E3FF6846102105F0DFFF9FED0C
:100EA00065AB6F4618EE100A05F0DCFF02000B0080
:100EB00051EC1A0B03F0A6FF5D4A604B05F0F6FFFC
:100EC00004F08EF8786018EE100A05F0CBFF0200EF
:100ED0000B0051EC1A0B03F095FF554A574B05F0E8
:100EE000E5FF04F07DF8B8603078002822D1002CAE
:100EF00005D16A461CA9301D06F0FCF88FE0012CD4
:100F000006D104AA1CA916F1280006F0F3F886E021
:100F1000022C06D16A4618A916F14C0006F0EAF830
:100F20007DE0032C7BD104AA18A916F1700006F00D
:100F3000E1F874E0307801284AD1002D22D1002C4C
:100F400005D104AA10A9301D06F0D4F867E0012CE1
:100F500006D16A4610A916F1280006F0CBF85EE02B
:100F6000022C06D104AA14A916F14C0006F0C2F80E
:100F700055E0032C53D16A4614A916F1700006F00F
:100F8000B9F84CE0012D22D1002C05D16A4614A9F4
:100F9000301D06F0AFF842E0012C06D104AA14A9D6
:100FA00016F1280006F0A6F839E0022C06D16A46B0
:100FB00010A916F14C0006F09DF830E0032C2ED15C
:100FC00004AA10A916F1700006F094F827E026E0B4
:100FD0003078022822D1002C05D104AA0CA9301D9A
:100FE00006F088F81BE0012C06D16A460CA916F120
:100FF000280006F07FF812E0022C06D104AA08A906
:1010000016F14C0006F076F809E0032C07D16A4689
:1010100008A916F1700006F06DF800E0FFE720B0B7
:10102000BDEC068BF1BD0000C40400204068002028
:1010300048E17A140AD7A3703D0AB73FAE47B13FE3
:1010400070B52DED088B88B00400B0EE408AF0EE4C
:10105000608AB0EE419A04A8102105F0FFFE6846B0
:10106000102105F0FBFE0025042D0ADAB7EE000A78
:10107000242000FB05F02044001D06F04CF86D1CF8
:10108000F2E7DFF8745495ED000ADFEDD00AC0EE08
:10109000209A9FEDCFAAB7EE00BAF0EE4BAA2078C7
:1010A000002840F0818002220021B0EE000AC8EE44
:1010B000800AB0EE480A2000FFF754FE0222012108
:1010C000B0EE000AC8EE800AB0EE480A2000FFF732
:1010D00049FE02220221B0EE000AC8EE800AB0EEFC
:1010E000480A2000FFF73EFE02220321B0EE000A6C
:1010F000C8EE800AB0EE480A2000FFF733FE002653
:10110000042E30DA684600EB860204A800EB860164
:10111000B0EE690A242000FB06F02044001D05F013
:10112000FDFFDFF8E00A00EBC601091D00EBC60079
:101130006A4602EB860292ED000A79EE400A04AAA2
:1011400002EB860292ED000A05F030FD012808D07E
:101150000320207000202860DFF8A0030021016038
:10116000C4E1761CCCE79FEDD60A0023B1EE001A4D
:10117000F0EE400ADFF88C23DFF88C13DFF8840AE6
:10118000FFF714F895ED000ADFED900AB4EE600A5F
:10119000F1EE10FAC0F2AA81012020700020286030
:1011A000D648DA490160A1E12078012840F0128197
:1011B000DFEDD0BAF4EE6B9AF1EE10FA03DBB0EE8D
:1011C000000AF0EE409AF5EE409AF1EE10FA1BDBC1
:1011D000F4EE4B9AF1EE10FA16D500220021F0EE53
:1011E000680AB0EE480A2000FFF7BCFD0022022189
:1011F000F0EE680AB0EE480A2000FFF7B3FD89EE72
:101200008B0AB0EE40AA25E0F4EE4B9AF1EE10FA0C
:1012100020DBF4EE6B9AF1EE10FA1BD501220021CF
:10122000F0EE680AB0EE480A2000FFF79BFD0122AD
:101230000221F0EE680AB0EE480A2000FFF792FDA6
:1012400039EECB0AF0EE000A70EECB0A80EE200AEF
:10125000B0EE40AA6A4604A9B0EE4A0A201D05F085
:101260005DFF02AA06A9B0EE4A0A14F14C0005F08F
:1012700055FFF5EE409AF1EE10FA23DBB0EE000ACE
:1012800030EE4B0AF4EE409AF1EE10FA1AD5002235
:101290000121F0EE680AB0EE480A2000FFF762FD77
:1012A00000220321F0EE680AB0EE480A2000FFF7A2
:1012B00059FDB0EE000A30EE4B0A89EE800AB0EE1E
:1012C00040AA29E0B0EE000A30EE4B0AF4EE409A54
:1012D000F1EE10FA20DBF4EE6B9AF1EE10FA1BD56A
:1012E00001220121F0EE680AB0EE480A2000FFF763
:1012F00039FD01220321F0EE680AB0EE480A200011
:10130000FFF730FD39EE8B0AF8EE000A30EE200AC6
:1013100080EE0B0AB0EE40AA01AA05A9B0EE4A0A77
:1013200014F1280005F0FAFE03AA07A9B0EE4A0A54
:1013300014F1700005F0F2FE0026042E20DADFF82A
:10134000C40800EBC601091D00EBC6006A4602EBAB
:10135000860292ED000A79EE400A04AA02EB8602A8
:1013600092ED000A05F022FC012807D0032020702E
:1013700000202860614800210160B7E0761CDCE7AE
:101380009FED4F0A0023B1EE001AF0EE400A5D4ACD
:101390005D49DFF87008FEF709FF95ED000ADFED03
:1013A000580AB4EE600AF1EE10FAC0F29F80594874
:1013B0000168012903D10221217000210160002070
:1013C00028604E485149016090E000BF00007A4417
:1013D000000000002078022840F0818002220021D5
:1013E000B0EE000AC8EE800AB0EE480A2000FFF70F
:1013F000B9FC02220121B0EE000AC8EE800AB0EE6C
:10140000480A2000FFF7AEFC02220221B0EE000ADB
:10141000C8EE800AB0EE480A2000FFF7A3FC0222C3
:101420000321B0EE000AC8EE800AB0EE480A2000A0
:10143000FFF798FC0026042E2FDA684600EB8602A0
:1014400004A800EB8601B0EE690A242000FB06F038
:101450002044001D05F062FEDFF8A80700EBC6017E
:10146000091D00EBC6006A4602EB860292ED000AF7
:1014700079EE400A04AA02EB860292ED000A05F01A
:1014800095FB012807D003202070002028601B480E
:10149000002101602AE0761CCDE79FED090A0023B8
:1014A000B1EE001AF0EE400A164A1749DFF8540769
:1014B000FEF77CFE95ED000ADFED150A02E000BFA5
:1014C0000000C842B4EE600AF1EE10FA0EDB032011
:1014D00020700020286009480021016006E0207883
:1014E000032802D1FEF76AFF00E0FFE708B0BDEC79
:1014F000088B70BD01000040D4690020D86900202D
:101500000000FA448068002060680020000080BF6E
:1015100000007A44E069002038B52DED028B90B0D0
:101520000400B0EE408AF0EE608A0CA8102105F0AD
:1015300095FC04A8102105F091FC04A880ED028A16
:1015400080ED038AB1EE680A8DED080A08A8B1EEB5
:10155000680A80ED010A80ED028A80ED038A684600
:10156000102105F07BFC8DED008A8DED018A20783D
:1015700001280DD10025042D2DDA04AA0CA9242060
:1015800000FB05F02044001D05F0B4FD6D1CF2E7E2
:10159000207803280DD10025042D1CDA08AA0CA9F7
:1015A000242000FB05F02044001D05F0A3FD6D1C68
:1015B000F2E7207805280DD10025042D0BDA6A46C4
:1015C0000CA9242000FB05F02044001D05F092FD2D
:1015D0006D1CF2E7FFE710B0BDEC028B31BD0000DF
:1015E000F8B52DED088B88B004009FEDB78ADFEDCC
:1015F000B78A9FEDB79ADFEDB79A04A8102105F0DE
:101600002DFC6846102105F029FC0025042D0ADA7E
:10161000B7EE000A242000FB05F02044001D05F071
:101620007AFD6D1CF2E7DFF87C5895ED000ADFEDDE
:10163000AA0A80EE20AA2078012857D1F0EE680A85
:10164000B0EE480A2000FFF767FF0026042E2CDAD0
:10165000684600EB860204A800EB8601B0EE4A0A59
:10166000242000FB06F02044001D05F057FDDFF8A4
:10167000940500EBC601091D00EBC6006A4602EBAB
:10168000860292ED000A79EEC00A04AA02EB8602F5
:1016900092ED000A05F08AFA012804D00620207095
:1016A00000202860EDE1761CD0E79FED8C0A002336
:1016B000B1EE001AF0EE400ADFF8EC27DFF8EC1785
:1016C000DFF84005FEF772FD95ED000ADFED820AB6
:1016D000B4EE600AF1EE10FAC0F2D381022020705D
:1016E000002028600A2004F07CFDCAE1207802284E
:1016F00040F0FE800026042E15DADFF8080500EB26
:10170000C601091D00EBC60079EEA80A9FED700A1C
:1017100005F04CFA012804D0062020700020286033
:10172000AFE1761CE7E7DFF8880790ED080ADFF8FD
:101730008407D0ED000A30EE600A10EE100A05F0C2
:1017400091FB31F0004141EC1B0BDFF8B8546868A5
:1017500005F088FB02000B0033F0004351EC1B0B3B
:1017600005F066FE0022DFF8B43C03F04BFB03F00B
:1017700037FC09EE100A9FEDC50AB4EE409AF1EE6F
:1017800010FA03DB9FEDC20AB0EE409A0020042855
:1017900077DA0021022972DADFF8102702EBC002A3
:1017A000002342F8213005EBC00202EB810292EDEA
:1017B000000AB5EE400AF1EE10FA2FDD002801D044
:1017C000032815D101290AD1DFF8DC2602EBC0027B
:1017D00002EB8102B1EE490A82ED000A4DE0DFF82A
:1017E000C82602EBC00202EB810282ED009A44E0BF
:1017F000012908D1DFF8B02602EBC00202EB81021A
:1018000082ED009A39E0DFF8A02602EBC00202EB7D
:101810008102B1EE490A82ED000A2EE0002801D0D3
:10182000032815D1012908D1DFF87C2602EBC0027C
:1018300002EB810282ED009A1FE0DFF86C2602EBDA
:10184000C00202EB8102B1EE490A82ED000A14E007
:1018500001290AD1DFF8502602EBC00202EB810217
:10186000B1EE490A82ED000A07E0DFF83C2602EB00
:10187000C00202EB810282ED009A491C8AE7401CFB
:1018800085E79FED840ADFF82466DFF81C760023E5
:10189000B1EE001AF0EE400A3A0031002800FEF7DF
:1018A00085FC002004281DDA0021022918DA06EB45
:1018B000C002002342F8213007EBC002002342F8A7
:1018C0002130491CF1E700BF295C8F3D0AD7233E38
:1018D0000000000098DD533E00007A440000C8423A
:1018E000401CDFE7642004F07CFC03202070C8E08B
:1018F0002078032851D1F0EE680AB0EE480A2000A3
:10190000FFF70AFE0026042E2BDA684600EB86025B
:1019100004A800EB8601B0EE4A0A242000FB06F082
:101920002044001D05F0FAFBB64800EBC601091D76
:1019300000EBC6006A4602EB860292ED000A79EEE1
:10194000C00A04AA02EB860292ED000A05F02EF905
:10195000012804D0062020700020286091E0761C29
:10196000D1E79FEDA40A0023B1EE001AF0EE400A81
:10197000DFF83425DFF83415A248FEF717FC95EDA3
:10198000000ADFED9D0AB4EE600AF1EE10FA78DB92
:10199000042020700020286073E02078042814D1EF
:1019A0000323B1EE001ADFED950A9FED940ADFF8EC
:1019B000F824DFF8F8149348FEF7F8FB4FF4FA60C8
:1019C00004F00FFC052020705BE02078052851D141
:1019D000F0EE680AB0EE480A2000FFF79DFD0026F1
:1019E000042E2BDA684600EB860204A800EB860181
:1019F000B0EE4A0A242000FB06F02044001D05F04A
:101A00008DFB804800EBC601091D00EBC6006A464D
:101A100002EB860292ED000A79EEC00A04AA02EBFC
:101A2000860292ED000A05F0C1F8012804D00620D4
:101A300020700020286024E0761CD1E79FED6D0A1D
:101A40000023B1EE001AF0EE400ADFF85C24DFF864
:101A50005C146C48FEF7AAFB95ED000ADFED660A00
:101A6000B4EE600AF1EE10FA0BDB062020700020C5
:101A7000286006E02078062802D1FEF79FFC00E0EF
:101A8000FFE708B0BDEC088BF1BD0000010020426B
:101A9000000020420000484338B52DED068BA0B071
:101AA0000400B0EE408AF0EE608AB0EE419ADFEDBD
:101AB000549A39EEA80A79EEC80A80EE200A20EE80
:101AC00009AA0CA8102105F0C9F90CA880ED029A0A
:101AD00080ED039A8DED1C9A1CA880ED019AB1EE61
:101AE000490A80ED020AB1EE490A80ED030AB1EE1F
:101AF0004A0A8DED180A18A8B1EE4A0A80ED010ACB
:101B000080ED029A80ED039A08A8102105F0A6F94D
:101B10008DED089A8DED099A04A8102105F09EF923
:101B200004A880ED028A80ED038A8DED148A14A842
:101B300080ED018A80ED028A80ED038AB1EE680AA9
:101B40008DED100A10A880ED018A80ED028A80EDEB
:101B5000038A6846102105F081F98DED008A8DED2C
:101B6000018A207800280DD10025042D3EDA04AA30
:101B70000CA9242000FB05F02044001D05F0BAFA52
:101B80006D1CF2E7207801280DD10025042D2DDAF7
:101B900014AA1CA9242000FB05F02044001D05F018
:101BA000A9FA6D1CF2E7207803280DD10025042D39
:101BB0001CDA10AA18A9242000FB05F02044001DFF
:101BC00005F098FA6D1CF2E7207805280DD1002564
:101BD000042D0BDA6A4608A9242000FB05F02044F6
:101BE000001D05F087FA6D1CF2E7FFE720B0BDECA1
:101BF000068B31BD0000C84200007A44000000009E
:101C000098DD533E4068002038B52DED0A8BC0B0FA
:101C10000400B0EE408AF0EE608AB0EE419AF0EE39
:101C2000619AB0EE42AAF0EE62AA9FED9DBA3BEE39
:101C3000280A7BEE480A80EE200A60EE09BA30A836
:101C4000102105F00BF930A8B1EE490A80ED020A27
:101C5000B1EE490A80ED030A2CA8102105F0FEF828
:101C60002CA8B1EE490A80ED020AB1EE490A80EDD6
:101C7000030A28A8102105F0F1F8B1EE6B0A8DEDEA
:101C8000280A28A8B1EE490A80ED010A80ED039ADE
:101C900024A8102105F0E2F88DED249A8DED259A07
:101CA00020A8102105F0DAF820A880ED028A80ED46
:101CB000038A1CA8102105F0D1F81CA880ED028A27
:101CC00080ED038AB1EE680A8DED380A38A880ED00
:101CD000018A80ED028A80ED038A18A8102105F0A0
:101CE000BDF88DED188A8DED198A3BEE0A0A7BEE60
:101CF000690A80EE200A20EE2ACA14A8102105F0F5
:101D0000ADF814A8B1EE6A0A80ED020AB1EE6A0AD3
:101D100080ED030A10A8102105F0A0F810A8B1EE7C
:101D20006A0A80ED020AB1EE6A0A80ED030A0CA885
:101D3000102105F093F8B1EE4C0A8DED0C0A0CA8B9
:101D4000B1EE6A0A80ED010AC0ED03AA08A81021CD
:101D500005F084F8CDED08AACDED09AA3CA8102124
:101D600005F07CF804A8102105F078F804A8C0ED6F
:101D7000029AC0ED039AB1EE4A0A8DED340A34A8F6
:101D8000C0ED019AC0ED029AC0ED039A6846102199
:101D900005F064F8CDED009ACDED019A2078002889
:101DA0001BD10025022D0ADA20AA30A9242000FB2D
:101DB00005F02044001D05F09DF96D1CF2E7022599
:101DC000042D68DA3CAA14A9242000FB05F0204465
:101DD000001D05F08FF96D1CF2E7207801281BD15A
:101DE0000025022D0ADA1CAA2CA9242000FB05F0EC
:101DF0002044001D05F07EF96D1CF2E70225042D3C
:101E000049DA04AA10A9242000FB05F02044001D93
:101E100005F070F96D1CF2E7207803281BD100252E
:101E2000022D0ADA38AA28A9242000FB05F0204454
:101E3000001D05F05FF96D1CF2E70225042D2ADA7A
:101E400034AA0CA9242000FB05F02044001D05F055
:101E500051F96D1CF2E7207805281BD10025022DD1
:101E60000ADA18AA24A9242000FB05F02044001D4A
:101E700005F040F96D1CF2E70225042D0BDA6A46E5
:101E800008A9242000FB05F02044001D05F032F9CC
:101E90006D1CF2E7FFE740B0BDEC0A8B31BD0000DE
:101EA00098DD533ED46900208068002060680020DF
:101EB000945B0020D0040020F8B52DED108B8CB081
:101EC00004009FED4F0A8DED0A0A9FED4E8A8DEDBD
:101ED000090A9FED4DBA8DED08BAF0EE4BFAB0EE5F
:101EE0004BFA9FED4AAAF0EE4A8ADFED49AAB0EE1E
:101EF0006A9AF0EE4B9ADFEDD2BA9FEDD2CA04A8EF
:101F0000102104F0ABFF6846102104F0A7FF002564
:101F1000042D0ADAB7EE000A242000FB05F0204465
:101F2000001D05F0F8F86D1CF2E7DFF8445895ED58
:101F3000000ADFEDC50AC0EE20CA2078012869D169
:101F4000F0EE4B2AB0EE6A2AF0EE4A1AB0EE691AA9
:101F5000F0EE490AB0EE680A2000FFF755FE0026B1
:101F6000042E2CDA684600EB860204A800EB8601FA
:101F7000B0EE6C0A242000FB06F02044001D05F0A2
:101F800033FADFF8F00700EBC601091D00EBC600CD
:101F90006A4602EB860292ED000A7CEE400A04AA31
:101FA00002EB860292ED000A04F000FE012804D044
:101FB000062020700020286028E2761CD0E79FEDE4
:101FC000A30A0023B1EE001AF0EE400ADFF8A827BA
:101FD000DFF8A817DFF89C07FEF7E8F895ED000A90
:101FE000DFED990AB4EE600AF1EE10FAC0F20E824B
:101FF00002202070002028600A2004F0F2F805E298
:10200000EC51B83D8FC2753D295C8F3D0AD7A33D89
:102010009A99193E2078022840F022813CEE090A64
:102020007CEE680A80EE200A20EE29DA3CEE2A0ACD
:102030007CEE4A0A80EE200A60EE0BDA0026022EC1
:1020400015DADFF8300700EBC601091D00EBC6000A
:102050007CEE090AB1EE4D0A04F0A8FD012804D077
:102060000620207000202860D0E1761CE7E70226D9
:10207000042E15DADFF8FC0600EBC601091D00EBA3
:10208000C6007CEE2A0AB1EE6D0A04F08FFD01282D
:1020900004D00620207000202860B7E1761CE7E716
:1020A000DFF8DC0690ED080ADFF8D806D0ED000A6C
:1020B00030EE600A10EE100A04F0D4FE31F0004158
:1020C00041EC1E0BDFF8AC56686804F0CBFE020052
:1020D0000B0033F0004351EC1E0B05F0A9F9002270
:1020E000CE4B02F08FFE02F07BFF0BEE900A9FEDCD
:1020F000C90AF4EE40BAF1EE10FA03DB9FEDC60A0E
:10210000F0EE40BA0020042877DA0021022972DAC2
:10211000DFF8682602EBC002002342F8213005EB0D
:10212000C00202EB810292ED000AB5EE400AF1EE28
:1021300010FA2FDD002801D0032815D101290AD17A
:10214000DFF8342602EBC00202EB8102B1EE6B0A2B
:1021500082ED000A4DE0DFF8202602EBC00202EB20
:102160008102C2ED00BA44E0012908D1DFF8082657
:1021700002EBC00202EB8102C2ED00BA39E0DFF8E7
:10218000F82502EBC00202EB8102B1EE6B0A82ED90
:10219000000A2EE0002801D0032815D1012908D11A
:1021A000DFF8D42502EBC00202EB8102C2ED00BAD7
:1021B0001FE0DFF8C42502EBC00202EB8102B1EEA2
:1021C0006B0A82ED000A14E001290AD1DFF8A82584
:1021D00002EBC00202EB8102B1EE6B0A82ED000A53
:1021E00007E0DFF8942502EBC00202EB8102C2EDAA
:1021F00000BA491C8AE7401C85E79FED890ADFF891
:102200007C65DFF874750523B1EE041AF0EE400A20
:102210003A0031002800FDF7C9FF0020042819DA30
:102220000021022914DA06EBC002002342F8213013
:1022300007EBC002002342F82130491CF1E700BF40
:102240000000000098DD533E00007A440000C842C0
:10225000401CE3E7642003F0C4FF03202070D5E0B6
:102260002078032859D1B0EE4F1AF0EE6F0A9DED99
:10227000080A2000FFF710FC0026042E2CDA68461E
:1022800000EB860204A800EB8601B0EE6C0A242065
:1022900000FB06F02044001D04F040FFDFF8D404EA
:1022A00000EBC601091D00EBC6006A4602EB860280
:1022B00092ED000A7CEE400A04AA02EB860292ED3F
:1022C000000A04F073FC012804D0062020700020CE
:1022D00028609BE0761CD0E79FED520A0023B1EE08
:1022E000001AF0EE400ADFF89024DFF89014DFF8CF
:1022F0008404FDF75BFF95ED000ADFED4B0AB4EEB9
:10230000600AF1EE10FAC0F28180042020700020F3
:102310002860142003F065FF78E02078042815D1A8
:102320000323B1EE001ADFED410A9FED400ADFF80A
:102330004824DFF84814DFF83C04FDF737FF4FF47A
:10234000FA6003F04EFF052020705FE0207805283A
:1023500055D1B0EE691AF0EE490AB0EE680A2000D5
:10236000FFF79AFB0026042E2CDA684600EB860263
:1023700004A800EB8601B0EE6C0A242000FB06F0F6
:102380002044001D04F0CAFEDFF8E80300EBC6019C
:10239000091D00EBC6006A4602EB860292ED000AB8
:1023A0007CEE400A04AA02EB860292ED000A04F0D9
:1023B000FDFB012804D0062020700020286025E0C5
:1023C000761CD0E79FED140A0023B1EE001AF0EE60
:1023D000400ADFF8A423DFF8A413DFF89803FDF721
:1023E000E5FE95ED000ADFED100AB4EE600AF1EEAD
:1023F00010FA0BDB062020700020286006E0207811
:10240000062802D1FDF7DAFF00E0FFE70CB0BDECD3
:10241000108BF1BD0100204200002042000024404A
:102420000000FA430000C84200007A4400000000A7
:10243000F8B52DED068BB8B00600B0EE408AF0EE90
:10244000608AB0EE419A0C00150096F9020000EE89
:10245000100AF8EEC09A24A8102104F0FFFC24A86A
:1024600028EE290A80ED020A28EE290A80ED030AE7
:1024700020A8102104F0F2FC20A8B1EE480A20EEBA
:10248000290A80ED020AB1EE480A20EE290A80ED01
:10249000030A1CA8102104F0E1FC28EE290A8DEDA6
:1024A0001C0A28EE290A8DED1D0A18A8102104F037
:1024B000D5FCB1EE480A20EE290A8DED180AB1EEDE
:1024C000480A20EE290A8DED190AB1EE480A20EEDD
:1024D000290A8DED340A34A8B1EE480A20EE290A03
:1024E00080ED010A28EE290A80ED020A28EE290A69
:1024F00080ED030A28EE290A8DED300A30A828EE77
:10250000290A80ED010AB1EE480A20EE290A80ED81
:10251000020AB1EE480A20EE290A80ED030A14A847
:10252000102104F09BFC14A828EEA90A80ED020AF1
:1025300028EEA90A80ED030A10A8102104F08EFCF1
:1025400010A8B1EE680A20EE290A80ED020AB1EE69
:10255000680A20EE290A80ED030A0CA8102104F075
:102560007DFC28EEA90A8DED0C0A28EEA90A8DED56
:102570000D0A08A8102104F071FCB1EE680A20EEE3
:10258000290A8DED080AB1EE680A20EE290A8DEDC0
:10259000090AB1EE680A20EE290A8DED2C0A2CA852
:1025A000B1EE680A20EE290A80ED010A28EEA90A98
:1025B00080ED020A28EEA90A80ED030A28EEA90A96
:1025C0008DED280A28A828EEA90A80ED010AB1EEAF
:1025D000680A20EE290A80ED020AB1EE680A20EEB0
:1025E000290A80ED030A04A8102104F037FC68468C
:1025F000102104F033FC9FED64AB6F4619EE100A16
:1026000004F030FC02000B0051EC1A0B02F0FAFB54
:1026100002F0E6FC786019EE100A04F023FC0200D8
:102620000B0051EC1A0B02F0EDFB02F0D9FCB86084
:102630003078002822D1002C05D16A4624A9301D0B
:1026400004F058FD8FE0012C06D104AA10A916F160
:10265000280004F04FFD86E0022C06D16A4614A93A
:1026600016F14C0004F046FD7DE0032C7BD104AA5A
:1026700020A916F1700004F03DFD74E030780128C7
:102680004AD1002D22D1002C05D104AA30A9301D39
:1026900004F030FD67E0012C06D16A462CA916F142
:1026A000280004F027FD5EE0022C06D104AA28A928
:1026B00016F14C0004F01EFD55E0032C53D16A4680
:1026C00034A916F1700004F015FD4CE0012D22D163
:1026D000002C05D16A4634A9301D04F00BFD42E000
:1026E000012C06D104AA28A916F1280004F002FD45
:1026F00039E0022C06D16A462CA916F14C0004F0F0
:10270000F9FC30E0032C2ED104AA30A916F1700098
:1027100004F0F0FC27E026E03078022822D1002CDB
:1027200005D104AA1CA9301D04F0E4FC1BE0012C17
:1027300006D16A4608A916F1280004F0DBFC12E075
:10274000022C06D104AA0CA916F14C0004F0D2FC0C
:1027500009E0032C07D16A4618A916F1700004F0AD
:10276000C9FC00E0FFE738B0BDEC068BF1BD00000E
:10277000D469002040680020806800206068002044
:10278000945B0020D0040020000000000000F43F13
:102790002DE9F8432DED0A8B88B00400F0EE408A55
:1027A000B0EE609AF0EE419AB0EE618A04A8102172
:1027B00004F054FB6846102104F050FB0025042D62
:1027C0000ADAB7EE000A242000FB05F02044001DC1
:1027D00004F0A1FC6D1CF2E7DFF8D05A95ED000A79
:1027E000DFED700A80EE20AADFED6FAAF7EE00BAE7
:1027F000B0EE6BBA2078002840F0938002220021CE
:10280000B0EE691AB0EE000AC9EE000AB0EE000A96
:1028100088EE800A2000FFF70BFE02220121B0EEB5
:10282000691AB0EE000AC9EE000AB0EE000A88EE9E
:10283000800A2000FFF7FCFD02220221B0EE691A97
:10284000B0EE000AC9EE000AB0EE000A88EE800A77
:102850002000FFF7EDFD02220321B0EE691AB0EE71
:10286000000AC9EE000AB0EE000A88EE800A2000D5
:10287000FFF7DEFD0026042E30DA684600EB860204
:1028800004A800EB8601B0EE4A0A242000FB06F003
:102890002044001D04F042FCDFF8200A00EBC601D2
:1028A000091D00EBC6006A4602EB860292ED000AA3
:1028B00078EE400A04AA02EB860292ED000A04F0C8
:1028C00075F9012808D00320207000202860DFF867
:1028D000F80900210160A4E2761CCCE7B3EE090AF6
:1028E0000023B1EE001AF0EE400ADFF8C829DFF845
:1028F000C819DFF8C809FDF759FC95ED000ADFEDAE
:10290000290AB4EE600AF1EE10FAC0F28A820120C0
:10291000207000202860DFF8B009DFF8941901600A
:102920007FE22078012840F0E2819FED20CAB4EEDA
:102930004CAAF1EE10FA03DBB0EE000AB0EE40AAAA
:1029400000260027B5EE40AAF1EE10FA30DBB4EE17
:102950006BAAF1EE10FA2BD500220021B0EE691A15
:10296000B0EE000AC9EE000AB0EE000A88EE800A56
:102970002000FFF75DFD00220221B0EE691AB0EEE3
:10298000000AC9EE000AB0EE000A88EE800A2000B4
:10299000FFF74EFD8AEE2B0AF0EE40AA012006005A
:1029A0004DE000BF00007A4400000000010000403C
:1029B000B4EE6BAAF1EE10FA41DBB4EE4CAAF1EEE4
:1029C00010FA3CD501220021B0EE691AB0EE000ADF
:1029D000C9EE000AB0EE000A88EE800A2000FFF778
:1029E00027FD01220221B0EE691AB0EE000AC9EEFD
:1029F000000AB0EE000A88EE800A2000FFF718FDFA
:102A00003AEE6B0A10EE100A04F02CFA8046894662
:102A10001BEE900A04F026FA02000B0000205FF083
:102A2000804104F0C3FD02000B004046494604F01B
:102A30003DFA02F0D5FA0AEE900A022006006A4634
:102A400004A9B0EE6A0A201D04F068FB02AA06A9D8
:102A5000B0EE6A0A14F14C0004F060FBB5EE40AA37
:102A6000F1EE10FA53DB1BEE900A04F0FBF90200C2
:102A70000B0000205FF0804104F098FD02000B0085
:102A8000904699461AEE100A04F0ECF942464B467D
:102A900004F0FEFD3BD200220121B0EE691AB0EE37
:102AA000000AC9EE000AB0EE000A88EE800A200093
:102AB000FFF7BEFC00220321B0EE691AB0EE000A57
:102AC000C9EE000AB0EE000A88EE800A2000FFF787
:102AD000AFFC1AEE100A04F0C5F9804689461BEED9
:102AE000900A04F0BFF902000B0000205FF0804163
:102AF00004F05CFD02000B004046494604F0D6F9A4
:102B000002F06EFA0AEE900A0120070059E01BEE6F
:102B1000900A04F0A7F902000B0000205FF080414A
:102B200004F044FD02000B00904699461AEE100A8C
:102B300004F098F942464B4604F0C2FD41D8B4EE89
:102B40004CAAF1EE10FA3CD501220121B0EE691A2F
:102B5000B0EE000AC9EE000AB0EE000A88EE800A64
:102B60002000FFF765FC01220321B0EE691AB0EEE8
:102B7000000AC9EE000AB0EE000A88EE800A2000C2
:102B8000FFF756FC3AEE2B0A10EE100A04F06AF931
:102B900002000B0000205FF0404104F049FC804639
:102BA00089461BEE900A04F05DF902000B004046D6
:102BB000494604F07BF902F013FA0AEE900A02206B
:102BC000070001AA05A9B0EE6A0A14F1280004F072
:102BD000A5FA03AA07A9B0EE6A0A14F1700004F07E
:102BE0009DFA5FF00008B8F1040F22DADFF8CC0696
:102BF00000EBC801091D00EBC8006A4602EB880221
:102C000092ED000A78EE400A04AA02EB880292EDE7
:102C1000000A03F0CBFF012808D003202070002019
:102C20002860DFF8A40600210160FAE018F101082D
:102C3000D9E79FEDAC0AB1EE00CAD5ED000AF5EE7A
:102C4000400AF1EE10FA08DBD5ED000A9FEDA61A56
:102C5000F4EE410AF1EE10FA1AD4D5ED000A9FED18
:102C6000A31AF4EE410AF1EE10FA08DBD5ED000AE2
:102C70009FED9F1AF4EE410AF1EE10FA08D4D5ED5B
:102C8000000A9FED9C1AF4EE410AF1EE10FA02DB05
:102C9000DFED99CA01E0DFED99CA0023B0EE4C1ACE
:102CA000F0EE6C0AB0EE6C0ADFF80826DFF80816C2
:102CB000DFF80806FDF77AFA95ED000ADFED900AD5
:102CC000B4EE600AF1EE10FAC0F2AB80DFF87C0CD3
:102CD0000168012903D10221217000210160002037
:102CE0002860DFF8E405DFF8C815016099E0207876
:102CF000022840F0918002220021B0EE691AB0EE65
:102D0000000AC9EE000AB0EE000A88EE800A200030
:102D1000FFF78EFB02220121B0EE691AB0EE000A25
:102D2000C9EE000AB0EE000A88EE800A2000FFF724
:102D30007FFB02220221B0EE691AB0EE000AC9EE52
:102D4000000AB0EE000A88EE800A2000FFF770FB50
:102D500002220321B0EE691AB0EE000AC9EE000AA1
:102D6000B0EE000A88EE800A2000FFF761FB002623
:102D7000042E30DA684600EB860204A800EB8601D8
:102D8000B0EE4A0A242000FB06F02044001D04F0A7
:102D9000C5F9DFF8280500EBC601091D00EBC600E8
:102DA0006A4602EB860292ED000A78EE400A04AA17
:102DB00002EB860292ED000A03F0F8FE012808D02B
:102DC0000320207000202860DFF8FC04002101604F
:102DD00027E0761CCCE7B3EE090A0023B1EE001A17
:102DE000F0EE400ADFF8CC24DFF8CC14DFF8CC0496
:102DF000FDF7DCF995ED000ADFED420AB4EE600A5A
:102E0000F1EE10FA0DDB0320207000202860DFF8BF
:102E1000B8040021016004E02078032801D1FDF707
:102E2000CDFA08B0BDEC0A8BBDE8F18310B52DEDED
:102E3000068BB0EE408ADFED349A29EE88AAB0EE18
:102E4000080ACAEE008AB1EE4A0AF0EE080A80EEDD
:102E5000200AF0EE000A20EE209A0024042C2FDA3B
:102E6000022C15DADFF8540400EBC401091D00EB55
:102E7000C400DFF8AC2B92ED000A70EE680A9FEDFB
:102E8000190A03F093FE012818D0FDF797FA26E0FF
:102E9000DFF8280400EBC401091D00EBC400DFF8D3
:102EA000802B92ED000A70EE490A9FED0E0A03F0A6
:102EB0007DFE012802D0FDF781FA10E0641CCDE709
:102EC0009FED120A0023B1EE001AF0EE400ADFF87F
:102ED000E423DFF8E413DFF8E403FDF767F9BDEC62
:102EE000068B10BD000000000000704300005C4431
:102EF00001008C440000DC4400000C420000F04261
:102F00000000FA4400007A44CDCCCC3E0000484298
:102F10002DE9F8432DED048BB0B00600B0EE408AE9
:102F2000F0EE608A0C001500B0EE089A28EE890ACF
:102F300010EE100A03F096FF02000B00904699462F
:102F400018EE100A03F08EFFDFF8DC2ADFF8D43A1F
:102F500004F06EFA42464B4604F0B2FB18D918EE64
:102F6000100A03F07FFFDFF8C02ADFF8C03A04F050
:102F70005FFA02000B009046994628EE890A10EE8F
:102F8000100A03F06FFF42464B4604F099FB00D84D
:102F900086E12CA8102103F061FF2CA880ED028AA5
:102FA00080ED038A28A8102103F058FF28A8B1EE6D
:102FB000480A80ED020AB1EE480A80ED030AB1EE3C
:102FC000480AF0EE000A80EE200A8DED180A18A8D3
:102FD000B1EE480AF0EE000A80EE200A80ED010A08
:102FE000B0EE000A88EE000A80ED020AB0EE000A98
:102FF00088EE000A80ED030AB0EE000A88EE000AAF
:103000008DED140A14A8B0EE000A88EE000A80EDD7
:10301000010AB1EE480AF0EE000A80EE200A80EDC7
:10302000020AB1EE480AF0EE000A80EE200A80EDB6
:10303000030A08A8102103F011FF8DED088A8DED19
:10304000098A04A8102103F009FFB1EE480A8DEDAA
:10305000040AB1EE480A8DED050A24A8102103F0F8
:10306000FDFE9FED979B24AF18EE900A03F0FAFE49
:1030700053EC192B04F0DCF901F0B2FF786018EE84
:10308000900A03F0EFFE53EC192B04F0D1F901F094
:10309000A7FFB860C7ED038A20A8102103F0DEFE69
:1030A00020A8B1EE680A80ED020AB1EE680A80ED50
:1030B000030AB1EE680AF0EE000A80EE200A8DEDF8
:1030C000100A10AFB0EE000A88EE800A10EE100A67
:1030D00003F0C8FE53EC192B04F0AAF901F080FFAD
:1030E0007860B0EE000A88EE800A10EE100A03F055
:1030F000B9FE53EC192B04F09BF901F071FFB86095
:10310000B0EE000A88EE800A87ED030AB0EE000AEE
:1031100088EE800A8DED0C0A0CA8B0EE000A88EE4D
:10312000800A80ED010AB1EE680AF0EE000A80EE36
:10313000200A80ED020AB1EE680AF0EE000A80EE85
:10314000200A80ED030A6846102103F087FECDEDCA
:10315000008ACDED018A1CA8DFF8401C102204F083
:10316000D7FAB1EE680A8DED1C0A3078002822D11A
:10317000002C05D124AA2CA9301D03F0BBFF8FE041
:10318000012C06D120AA28A916F1280003F0B2FFCD
:1031900086E0022C06D124AA2CA916F14C0003F0DB
:1031A000A9FF7DE0032C7BD120AA28A916F170008D
:1031B00003F0A0FF74E0307801284AD1002D22D11D
:1031C000002C05D10CAA14A9301D03F093FF67E071
:1031D000012C06D110AA18A916F1280003F08AFFC5
:1031E0005EE0022C06D10CAA14A916F14C0003F0E3
:1031F00081FF55E0032C53D110AA18A916F17000D5
:1032000003F078FF4CE0012D22D1002C05D110AA4B
:1032100018A9301D03F06EFF42E0012C06D10CAA64
:1032200014A916F1280003F065FF39E0022C06D13D
:1032300010AA18A916F14C0003F05CFF30E0032C33
:103240002ED10CAA14A916F1700003F053FF27E049
:1032500026E03078022822D1002C05D16A4608A940
:10326000301D03F047FF1BE0012C06D11CAA04A966
:1032700016F1280003F03EFF12E0022C06D16A4648
:1032800008A916F14C0003F035FF09E0032C07D123
:103290001CAA04A916F1700003F02CFF00E0FFE760
:1032A00030B0BDEC048BBDE8F1830000D469002090
:1032B000000080BF80680020606800204068002017
:1032C0007B14AE47E17A843FD8690020F8B52DED34
:1032D0000E8B88B00600B0EE409AF0EE609AB0EE29
:1032E00041AAB0EE618AF0EE428ADFF8847A97ED67
:1032F000000ADFED850AC0EE20AA9FED84BA29EE10
:10330000890AF0EE080A80EE200A7AEE40BAF0EE62
:1033100000DA29EE890AF0EE080A80EE200AB0EE03
:103320004ACA00EE2DCA0024042C0ADAB7EE000ABD
:10333000242000FB04F03044001D03F0ECFE641C6C
:10334000F2E7B7EE00DAF0EE4DCA3078002840F030
:10335000AD8002220021B0EE000AC8EE800AB0EE75
:10336000000A88EE000A3000FFF7D2FD0222012198
:10337000B0EE000AC8EE800AB0EE000A88EE000A3D
:103380003000FFF7C5FD02220221B0EE000AC8EEB0
:10339000800AB0EE000A88EE000A3000FFF7B8FDA0
:1033A00002220321B0EE000AC8EE800AB0EE000A45
:1033B00088EE000A3000FFF7ABFD0024042C52DA3F
:1033C000684600EB840204A800EB8401B0EE6A0AB0
:1033D000242000FB04F03044001D03F09FFE022C6B
:1033E0001FDADFF89C0900EBC401091D00EBC400E3
:1033F0006A4602EB840292ED000A7BEEC00A04AA40
:1034000002EB840292ED000A03F0D0FB012828D0E1
:103410000320307000203860DFF868090021016067
:1034200090E2DFF85C0900EBC401091D00EBC40069
:103430006A4602EB840292ED000A7CEE400A04AA7E
:1034400002EB840292ED000A03F0B0FB012808D0E1
:103450000320307000203860DFF828090021016067
:1034600070E2641CAAE79FEDD90A0023B1EE001AAE
:10347000F0EE400ADFF80029DFF80019DFF8000954
:10348000FCF794FE97ED000ADFED1F0AB4EE600A28
:10349000F1EE10FAC0F25682012030700020386040
:1034A000DFF8E008DFF8CC1801604BE23078012843
:1034B00040F090819FEDC6EAF4EE4EAAF1EE10FACC
:1034C00001DBF0EE6DAAF5EE40AAF1EE10FA1FDB7B
:1034D000F4EE4DAAF1EE10FA1AD500220021F0EE1A
:1034E000680AB0EE480A3000FFF712FD0022022100
:1034F000F0EE680AB0EE480A3000FFF709FD8AEEE8
:103500008D0AB0EE40BA3CE000007A4400000000B2
:10351000F4EE4DAAF1EE10FA33DBF4EE4EAAF1EE22
:1035200010FA2ED501220021F0EE680AB0EE480A0A
:103530003000FFF7EDFC01220221F0EE680AB0EE48
:10354000480A3000FFF7E4FC3AEECD0A10EE100A0C
:1035500003F088FC04000D001DEE100A03F082FC4D
:1035600002000B0000205FF0804104F01FF8020011
:103570000B002000290003F099FC01F031FD0BEE57
:10358000100A6A4604A9B0EE4B0A301D03F0C6FDCE
:1035900002AA06A9B0EE4B0A16F14C0003F0BEFDDC
:1035A000F5EE40AAF1EE10FA45DB1DEE100A03F02D
:1035B00059FC02000B0000205FF0804103F0F6FF91
:1035C00002000B0014001D001AEE900A03F04AFCE2
:1035D00022002B0004F05CF82DD200220121F0EE35
:1035E000680AB0EE480A3000FFF792FC002203217F
:1035F000F0EE680AB0EE480A3000FFF789FC1AEED8
:10360000900A03F02FFC04000D001DEE100A03F0D9
:1036100029FC02000B0000205FF0804103F0C6FF90
:1036200002000B002000290003F040FC01F0D8FC50
:103630000BEE100A49E01DEE100A03F013FC020025
:103640000B0000205FF0804103F0B0FF02000B0090
:1036500014001D001AEE900A03F004FC22002B0057
:1036600004F02EF831D8F4EE4EAAF1EE10FA2CD573
:1036700001220121F0EE680AB0EE480A3000FFF79F
:1036800047FC01220321F0EE680AB0EE480A300040
:10369000FFF73EFC3AEE8D0A10EE100A03F0E2FB53
:1036A00000225FF0404303F0C3FE04000D001DEE56
:1036B000100A03F0D7FB02000B002000290003F0E2
:1036C000F5FB01F08DFC0BEE100A01AA05A9B0EE86
:1036D0004B0A16F1280003F021FD03AA07A9B0EE5A
:1036E0004B0A16F1700003F019FD0024042C43DA94
:1036F000022C1FDADFF8880600EBC401091D00EB7D
:10370000C4006A4602EB840292ED000A7BEEC00A16
:1037100004AA02EB840292ED000A03F047FA0128A2
:1037200028D00320307000203860DFF858060021D0
:10373000016007E1DFF8480600EBC401091D00EB5A
:10374000C4006A4602EB840292ED000A7CEE400A55
:1037500004AA02EB840292ED000A03F027FA012882
:1037600008D00320307000203860DFF818060021F0
:103770000160E7E0641CB9E79FED140A0023B1EE95
:10378000001AF0EE400ADFF8F025DFF8F015DFF858
:10379000F005FCF70BFD97ED000ADFEDA50AB4EE8E
:1037A000600AF1EE10FAC0F2CD8068480168012984
:1037B00003D1022131700021016000203860DFF860
:1037C000C405DFF8B0150160BCE000BF0000C842CE
:1037D000010000403078022840F0AB800222002136
:1037E000B0EE000AC8EE800AB0EE000A88EE000AC9
:1037F0003000FFF78DFB02220121B0EE000AC8EE77
:10380000800AB0EE000A88EE000A3000FFF780FB65
:1038100002220221B0EE000AC8EE800AB0EE000AD1
:1038200088EE000A3000FFF773FB02220321B0EE9E
:10383000000AC8EE800AB0EE000A88EE000A3000E6
:10384000FFF766FB0024042C52DA684600EB840282
:1038500004A800EB8401B0EE6A0A242000FB04F007
:103860003044001D03F05AFC022C1FDADFF810056B
:1038700000EBC401091D00EBC4006A4602EB8402A0
:1038800092ED000A7BEEC00A04AA02EB840292EDDC
:10389000000A03F08BF9012828D0032030700020A3
:1038A0003860DFF8E004002101604BE0DFF8D0046D
:1038B00000EBC401091D00EBC4006A4602EB840260
:1038C00092ED000A7CEE400A04AA02EB840292ED1B
:1038D000000A03F06BF9012808D0032030700020A3
:1038E0003860DFF8A004002101602BE0641CAAE727
:1038F0009FED500A0023B1EE001AF0EE400ADFF807
:103900007824DFF87814DFF87804FCF74FFC97EDA3
:10391000000ADFED490AB4EE600AF1EE10FA11DB9D
:103920000320307000203860DFF858040021016067
:1039300008E03078032804D19FED450AFFF776FAB6
:1039400000E0FFE708B0BDEC0E8BF1BDE0690020A0
:1039500010B52DED088BB0EE408ADFED389A29EED8
:1039600088AA9FED37BB1AEE100A03F07BFA53ECDE
:103970001B2B01F047FA01F033FB08EE900AB1EE81
:103980004A0A10EE100A03F06DFA53EC1B2B01F0FB
:1039900039FA01F025FB09EE100A0024042C2FDA75
:1039A000012C01D0022C14D1DFF8D40300EBC401A8
:1039B000091D00EBC4001A4A92ED000A70EE680A75
:1039C0009FED210A03F0F2F8012817D0FCF7F6FC6E
:1039D00022E0DFF8AC0300EBC401091D00EBC400DA
:1039E0000F4A92ED000A70EE490A9FED170A03F0A4
:1039F000DDF8012802D0FCF7E1FC0DE0641CCDE706
:103A00009FED120A0023B1EE001AF0EE400ADA4AE6
:103A1000DA49DB48FCF7CAFBBDEC088B10BD00009F
:103A2000C40400204D6250BFFCA9F1D24D62503F4A
:103A30000000FA440000C84200007A443333B33E29
:103A4000000000000000E03F0000000000004842CD
:103A5000ABAAAA3E2DE9F8432DED0A8BA8B00600CB
:103A6000B0EE408AF0EE608A0C0015009FEDC69A19
:103A70009FEDC6AB19EE100A03F0F4F980468946B3
:103A800018EE900A03F0EEF953EC1A2B01F0BAF994
:103A900042464B4603F0CCFC01F0A2FA09EE900A34
:103AA00019EE100A03F0DEF98046894618EE900AF6
:103AB00003F0D8F953EC1A2B01F0A4F902000B0023
:103AC0004046494603F072FD01F08AFA0AEE100AF8
:103AD00024A8102103F0C2F924A880ED028A80ED09
:103AE000038A20A8102103F0B9F920A8B1EE480AF2
:103AF00080ED020AB1EE480A80ED030AB1EE480AF1
:103B0000F0EE000A80EE200A8DED1C0A1CA8B1EE32
:103B1000480AF0EE000A80EE200A80ED010AB0EEBD
:103B2000000A88EE000A80ED020AB0EE000A88EE74
:103B3000000A80ED030AB0EE000A88EE000A8DED5F
:103B4000180A18A8B0EE000A88EE000A80ED010AF3
:103B5000B1EE480AF0EE000A80EE200A80ED020A7B
:103B6000B1EE480AF0EE000A80EE200A80ED030A6A
:103B700004A8102103F072F98DED048A8DED058AF9
:103B80006846102103F06AF9B1EE480A8DED000A8B
:103B9000B1EE480A8DED010ACDED149A9FED7DBB83
:103BA00014AF19EE900A03F05DF953EC1B2B03F0F0
:103BB0003FFC01F015FA78609FED79CB19EE900A81
:103BC00003F050F953EC1C2B03F032FC01F008FA1F
:103BD000B860C7ED039A8DED10AA10AF1AEE100A67
:103BE00003F040F953EC1B2B03F022FC01F0F8F931
:103BF00078601AEE100A03F035F953EC1C2B03F031
:103C000017FC01F0EDF9B86087ED03AACDED0C9A31
:103C10000CA8C0ED019AC0ED029AC0ED039A8DED9B
:103C200008AA08A880ED01AA80ED02AA80ED03AAE7
:103C30003078002822D1002C05D114AA24A9301DE7
:103C400003F058FA8FE0012C06D108AA20A916F13A
:103C5000280003F04FFA86E0022C06D110AA24A90E
:103C600016F14C0003F046FA7DE0032C7BD10CAA40
:103C700020A916F1700003F03DFA74E030780128B5
:103C80004AD1002D22D1002C05D10CAA18A9301D33
:103C900003F030FA67E0012C06D110AA1CA916F136
:103CA000280003F027FA5EE0022C06D108AA18A922
:103CB00016F14C0003F01EFA55E0032C53D114AA60
:103CC0001CA916F1700003F015FA4CE0012D22D169
:103CD000002C05D114AA1CA9301D03F00BFA42E0F8
:103CE000012C06D108AA18A916F1280003F002FA3F
:103CF00039E0022C06D110AA1CA916F14C0003F0E1
:103D0000F9F930E0032C2ED10CAA18A916F1700095
:103D100003F0F0F927E026E03078022822D1002CC9
:103D200005D10CAA04A9301D03F0E4F91BE0012C15
:103D300006D110AA694616F1280003F0DBF912E05B
:103D4000022C06D108AA04A916F14C0003F0D2F9FE
:103D500009E0032C07D114AA694616F1700003F09C
:103D6000C9F900E0FFE728B0BDEC0A8BBDE8F1839C
:103D7000D4690020000080BF8068002060680020B7
:103D800040680020D869002098DD533E0000000004
:103D90000000E03F7B14AE47E17AA4BF24FD000899
:103DA0007B14AE47E17A94BFF8B52DED0A8B88B04D
:103DB0000600B0EE409AF0EE609AB0EE41AAB0EE86
:103DC000618AF0EE428ADFF8007A97ED000ADFEDB3
:103DD0007B0AC0EE20AA9FED7ABA0024042C0ADAEE
:103DE000B7EE000A242000FB04F03044001D03F06D
:103DF00092F9641CF2E7B7EE00CAF0EE4CBA3078E4
:103E0000002840F0AB8002220021B0EE000AC8EE8C
:103E1000800AB0EE000A88EE000A3000FFF71AFEB2
:103E200002220121B0EE000AC8EE800AB0EE000ABC
:103E300088EE000A3000FFF70DFE02220221B0EEEC
:103E4000000AC8EE800AB0EE000A88EE000A3000D0
:103E5000FFF700FE02220321B0EE000AC8EE800A3E
:103E6000B0EE000A88EE000A3000FFF7F3FD0024F0
:103E7000042C50DA684600EB840204A800EB8401AD
:103E8000B0EE6A0A242000FB04F03044001D03F069
:103E900045F9012C01D0022C1DD1DFF83C0900EBC3
:103EA000C401091D00EBC4006A4602EB8402D2ED96
:103EB000000A04AA02EB840292ED000A02F076FEE8
:103EC000012826D00320307000203860DFF80C096C
:103ED000002101608CE2DFF8000900EBC401091D3C
:103EE00000EBC4006A4602EB8402D2ED000A04AA89
:103EF00002EB840292ED000A02F058FE012808D07D
:103F00000320307000203860DFF8D0080021016005
:103F10006EE2641CACE79FEDD90A0023B1EE001AF3
:103F2000F0EE400ADFF8A828DFF8A818DFF8A808A4
:103F3000FCF73CF997ED000ADFED200AB4EE600AC9
:103F4000F1EE10FAC0F25482012030700020386087
:103F5000DFF88808DFF87418016049E2307801283A
:103F600040F09081DFEDC6CAF4EE6CAAF1EE10FAD3
:103F700003DBB0EE000AF0EE40AAF5EE40AAF1EE47
:103F800010FA1FDBF4EE4CAAF1EE10FA1AD500225B
:103F90000021F0EE680AB0EE480A3000FFF75AFD43
:103FA00000220221F0EE680AB0EE480A3000FFF766
:103FB00051FD8AEE8C0AB0EE40BA3CE000007A4433
:103FC00000000000F4EE4CAAF1EE10FA33DBF4EE40
:103FD0006CAAF1EE10FA2ED501220021F0EE680A4B
:103FE000B0EE480A3000FFF735FD01220221F0EE65
:103FF000680AB0EE480A3000FFF72CFD3AEECC0A12
:1040000010EE100A02F02EFF04000D001CEE100A44
:1040100002F028FF02000B0000205FF0804103F057
:10402000C5FA02000B002000290002F03FFF00F05B
:10403000D7FF0BEE100A6A4604A9B0EE4B0A301DFA
:1040400003F06CF802AA06A9B0EE4B0A16F14C0078
:1040500003F064F8F5EE40AAF1EE10FA45DB1CEE31
:10406000100A02F0FFFE02000B0000205FF080410A
:1040700003F09CFA02000B0014001D001AEE900AD7
:1040800002F0F0FE22002B0003F002FB2DD20022F2
:104090000121F0EE680AB0EE480A3000FFF7DAFCC2
:1040A00000220321F0EE680AB0EE480A3000FFF764
:1040B000D1FC1AEE900A02F0D5FE04000D001CEEB1
:1040C000100A02F0CFFE02000B0000205FF08041DA
:1040D00003F06CFA02000B002000290002F0E6FE5B
:1040E00000F07EFF0BEE100A49E01CEE100A02F011
:1040F000B9FE02000B0000205FF0804103F056FA89
:1041000002000B0014001D001AEE900A02F0AAFE35
:1041100022002B0003F0D4FA31D8F4EE6CAAF1EEB1
:1041200010FA2CD501220121F0EE680AB0EE480AFF
:104130003000FFF78FFC01220321F0EE680AB0EE99
:10414000480A3000FFF786FC3AEE8C0A10EE100A9F
:1041500002F088FE00225FF0404303F069F904009A
:104160000D001CEE100A02F07DFE02000B00200084
:10417000290002F09BFE00F033FF0BEE100A01AAAB
:1041800005A9B0EE4B0A16F1280002F0C7FF03AAFA
:1041900007A9B0EE4B0A16F1700002F0BFFF002431
:1041A000042C41DA012C01D0022C1DD1DFF82806A5
:1041B00000EBC401091D00EBC4006A4602EB840257
:1041C000D2ED000A04AA02EB840292ED000A02F08A
:1041D000EDFC012826D00320307000203860DFF885
:1041E000FC050021016003E1DFF8EC0500EBC401F0
:1041F000091D00EBC4006A4602EB8402D2ED000AFE
:1042000004AA02EB840292ED000A02F0CFFC01281E
:1042100008D00320307000203860DFF8C00500218E
:104220000160E5E0641CBBE79FED140A0023B1EEDA
:10423000001AF0EE400ADFF89825DFF89815DFF84D
:104240009805FBF7B3FF97ED000ADFED6B0AB4EEBC
:10425000600AF1EE10FAC0F2CB80DFF8E80A0168DC
:10426000012903D102213170002101600020386052
:10427000DFF86805DFF854150160B9E00000C842B6
:10428000010000403078022840F0A980022200217D
:10429000B0EE000AC8EE800AB0EE000A88EE000A0E
:1042A0003000FFF7D7FB02220121B0EE000AC8EE72
:1042B000800AB0EE000A88EE000A3000FFF7CAFB61
:1042C00002220221B0EE000AC8EE800AB0EE000A17
:1042D00088EE000A3000FFF7BDFB02220321B0EE9A
:1042E000000AC8EE800AB0EE000A88EE000A30002C
:1042F000FFF7B0FB0024042C50DA684600EB840280
:1043000004A800EB8401B0EE6A0A242000FB04F04C
:104310003044001D02F002FF012C01D0022C1DD1FF
:10432000DFF8B40400EBC401091D00EBC4006A46C9
:1043300002EB8402D2ED000A04AA02EB840292EDA1
:10434000000A02F033FC012826D003203070002040
:104350003860DFF888040021016049E0DFF8780464
:1043600000EBC401091D00EBC4006A4602EB8402A5
:10437000D2ED000A04AA02EB840292ED000A02F0D8
:1043800015FC012808D00320307000203860DFF8C9
:104390004C04002101602BE0641CACE79FED170A80
:1043A0000023B1EE001AF0EE400ADFF82424DFF813
:1043B0002414DFF82404FBF7F9FE97ED000ADFED83
:1043C000100AB4EE600AF1EE10FA11DB032030702F
:1043D00000203860DFF804040021016008E0307834
:1043E000032804D19FED070AFFF7B2FA00E0FFE7C8
:1043F00008B0BDEC0A8BF1BD0000FA440000C842D1
:1044000000007A44302A893E38B52DED0C8BA4B0DB
:104410000400B0EE408AF0EE608AB0EE419AF0EE11
:10442000619AB0EE42AAF0EE62AA9FED06CADFEDF5
:1044300005CA6078002807D1B0EE68CAF0EE48CA15
:1044400009E000BF000000006078012803D1B0EE51
:1044500048CAF0EE68CA39EE4CDA79EE6CDA684692
:10446000102102F0FBFC10A8102102F0F7FC10A8AC
:10447000B0EE080A8DEE000A80ED010AB0EE000AE7
:10448000F0EE080ACDEE200A60EE800AC0ED020AC6
:1044900080ED03DA0CA8102102F0E0FC0CA8F0EE8D
:1044A000080ACDEEA00AC0ED010AF0EE080ACDEE32
:1044B000A00A60EE800AC0ED020AC0ED03DA08A887
:1044C000102102F0CBFC8DED08DA08A8F0EE080A06
:1044D000CDEE200A60EE800AC0ED010AF0EE080A77
:1044E000CDEE200AC0ED020A04A8102102F0B6FCAD
:1044F000CDED04DA04A8F0EE080ACDEEA00A20EE15
:10450000800A80ED010AB0EE080A8DEE800A80ED87
:10451000020A8DED20DA9FEDB2BB20AD3DEE290AF7
:1045200010EE100A02F09EFC53EC1B2B00F06AFC0C
:10453000DFF81C28DFF81C3802F0B8FC00F050FD52
:1045400068603DEE290A10EE100A02F08BFC53EC75
:104550001B2B00F057FCDFF8F827DFF8F83702F0E4
:10456000A5FC00F03DFDA86085ED03DACDED1CDA79
:104570001CAD3DEEA90A10EE100A02F073FC53ECDC
:104580001B2B00F03FFCDFF8C827DFF8C83702F02C
:104590008DFC00F025FD68603DEEA90A10EE100AC2
:1045A00002F060FC53EC1B2B00F02CFCDFF8A02782
:1045B000DFF8A03702F07AFC00F012FDA860C5ED2C
:1045C00003DA8DED18DA18A880ED01DA80ED02DA51
:1045D00080ED03DACDED14DA14A8C0ED01DAC0EDF8
:1045E00002DAC0ED03DA2078002835D1B5EE40AA12
:1045F000F1EE10FA05D110AA6946201D02F07AFDED
:10460000DDE0B7EE000AB4EE40AAF1EE10FA06D1F2
:104610000CAA694614F1280002F06CFDCFE0B0EE60
:10462000000AB4EE40AAF1EE10FA06D10CAA6946CF
:1046300014F14C0002F05EFDC1E0B0EE080AB4EEE9
:1046400040AAF1EE10FA40F0BA8010AA694614F1BF
:10465000700002F04FFDB2E02078012876D1F5EE2F
:1046600040AAF1EE10FA34D1B5EE40AAF1EE10FAFC
:1046700005D120AA6946201D02F03CFD9FE0B7EE5F
:10468000000AB4EE40AAF1EE10FA06D114AA694667
:1046900014F1280002F02EFD91E0B0EE000AB4EE15
:1046A00040AAF1EE10FA06D11CAA694614F14C009A
:1046B00002F020FD83E0B0EE080AB4EE40AAF1EE6D
:1046C00010FA7CD118AA694614F1700002F012FDAC
:1046D00075E0B7EE000AF4EE40AAF1EE10FA34D11C
:1046E000B5EE40AAF1EE10FA05D118AA6946201DD0
:1046F00002F000FD63E0B7EE000AB4EE40AAF1EE6E
:1047000010FA06D11CAA694614F1280002F0F2FC46
:1047100055E0B0EE000AB4EE40AAF1EE10FA06D170
:1047200014AA694614F14C0002F0E4FC47E0B0EE34
:10473000080AB4EE40AAF1EE10FA40D120AA694668
:1047400014F1700002F0D6FC39E038E0207802283D
:1047500034D1B5EE40AAF1EE10FA05D108AA6946A7
:10476000201D02F0C7FC2AE0B7EE000AB4EE40AA12
:10477000F1EE10FA06D104AA694614F1280002F0FD
:10478000B9FC1CE0B0EE000AB4EE40AAF1EE10FA5B
:1047900006D104AA694614F14C0002F0ABFC0EE00D
:1047A000B0EE080AB4EE40AAF1EE10FA07D108AA5A
:1047B000694614F1700002F09DFC00E0FFE724B0B0
:1047C000BDEC0C8B31BD0000D4690020000080BF1F
:1047D000806800206068002040680020D8690020C0
:1047E0000AD7A3703D0AB73F70B52DED0A8B88B08C
:1047F0000400B0EE408AF0EE608AB0EE419AF0EE2E
:10480000619A04A8102102F029FB6846102102F0E9
:1048100025FB0025042D0ADAB7EE000A242000FB50
:1048200005F02044001D02F076FC6D1CF2E7DFF875
:10483000285595ED000ADFEDA90A80EE20AADFEDEC
:10484000A8AAF7EE00BAB0EE6BBA2078002840F0C4
:104850009380F0EE002A9FEDA22AF0EE691AB0EEE6
:10486000491AF0EE680AB0EE480A2000FFF7CCFDC6
:10487000F0EE002AB7EE002AF0EE691AB0EE491AFF
:10488000F0EE680AB0EE480A2000FFF7BDFDF0EE3A
:10489000002AB0EE002AF0EE691AB0EE491AF0EEE6
:1048A000680AB0EE480A2000FFF7AEFDF0EE002ADD
:1048B000B0EE082AF0EE691AB0EE491AF0EE680A76
:1048C000B0EE480A2000FFF79FFD0026042E30DAE4
:1048D000684600EB860204A800EB8601B0EE4A0AA7
:1048E000242000FB06F02044001D02F017FCDFF836
:1048F0006C0400EBC601091D00EBC6006A4602EB22
:10490000860292ED000A79EE400A04AA02EB8602C2
:1049100092ED000A02F04AF9012808D00320207025
:1049200000202860DFF838040021016002E2761CD4
:10493000CCE79FEDB30A0023B1EE001AF0EE400A77
:10494000DFF82024DFF82014DFF81004FBF72EFC3A
:1049500095ED000ADFED610AB4EE600AF1EE10FA9F
:10496000C0F2E8810120207000202860DFF8F00309
:10497000DFF8F8130160DDE12078012840F0448180
:104980009FEDA0CAB4EE4CAAF1EE10FA03DBB0EE34
:10499000000AB0EE40AAB5EE40AAF1EE10FA27DB0D
:1049A000B4EE6BAAF1EE10FA22D5DFED4D2A9FEDA1
:1049B0004C2AF0EE691AB0EE491AF0EE680AB0EE31
:1049C000480A2000FFF720FDDFED452AB0EE082A57
:1049D000F0EE691AB0EE491AF0EE680AB0EE480A35
:1049E0002000FFF711FD8AEE2B0AF0EE40AA31E01D
:1049F000B4EE6BAAF1EE10FA2CDBB4EE4CAAF1EE99
:104A000010FA27D5F7EE002A9FED352AF0EE691A45
:104A1000B0EE491AF0EE680AB0EE480A2000FFF73F
:104A2000F3FCF7EE002AB0EE082AF0EE691AB0EEB9
:104A3000491AF0EE680AB0EE480A2000FFF7E4FCDD
:104A40003AEE6B0AF0EE000A70EEEB0A80EE200AF6
:104A5000F0EE40AA6A4604A9B0EE6A0A201D02F0F0
:104A60005DFB03AA07A9B0EE6A0A14F1700002F018
:104A700055FBB5EE40AAF1EE10FA33DBB0EE000ABA
:104A800030EE6B0AB4EE40AAF1EE10FA2AD5DFED53
:104A9000142AB7EE002AF0EE691AB0EE491AF0EEC9
:104AA000680AB0EE480A2000FFF7AEFCDFED0C2AE2
:104AB000B0EE002AF0EE691AB0EE491AF0EE680A7C
:104AC000B0EE480A2000FFF79FFCB0EE000A30EE7F
:104AD0006B0A8AEE000AF0EE40AA39E000007A4440
:104AE00000000000B0EE000A30EE6B0AB4EE40AAFF
:104AF000F1EE10FA2CDBB4EE4CAAF1EE10FA27D549
:104B0000F7EE002AB7EE002AF0EE691AB0EE491A65
:104B1000F0EE680AB0EE480A2000FFF775FCF7EEE9
:104B2000002AB0EE002AF0EE691AB0EE491AF0EE53
:104B3000680AB0EE480A2000FFF766FC3AEE2B0A3E
:104B4000F8EE000A30EE200A80EE2B0AF0EE40AAC2
:104B500001AA05A9B0EE6A0A14F1280002F0DEFAF3
:104B600002AA06A9B0EE6A0A14F14C0002F0D6FAC5
:104B70000026042E1FDA794800EBC601091D00EB60
:104B8000C6006A4602EB860292ED000A79EE400A00
:104B900004AA02EB860292ED000A02F007F801284F
:104BA00007D003202070002028606D48002101609C
:104BB000C0E0761CDDE79FED120A0023B1EE001A7B
:104BC000F0EE400A674A68496448FBF7EFFA95ED52
:104BD000000ADFED5A0AB4EE600AF1EE10FAC0F2F4
:104BE000A98058480168012903D1022121700021C0
:104BF0000160002028605A485C4901609AE000BFCB
:104C00000000C842010000402078022840F08B805C
:104C1000F0EE002A9FED4A2AF0EE691AB0EE491A2A
:104C2000F0EE680AB0EE480A2000FFF7EDFBF0EE68
:104C3000002AB7EE002AF0EE691AB0EE491AF0EE3B
:104C4000680AB0EE480A2000FFF7DEFBF0EE002A0B
:104C5000B0EE002AF0EE691AB0EE491AF0EE680ADA
:104C6000B0EE480A2000FFF7CFFBF0EE002AB0EECE
:104C7000082AF0EE691AB0EE491AF0EE680AB0EEB2
:104C8000480A2000FFF7C0FB0026042E2EDA6846F3
:104C900000EB860204A800EB8601B0EE4A0A24204D
:104CA00000FB06F02044001D02F038FA2B4800EB10
:104CB000C601091D00EBC6006A4602EB860292EDB2
:104CC000000A79EE400A04AA02EB860292ED000A7D
:104CD00001F06CFF012807D003202070002028601D
:104CE0001F480021016025E0761CCEE79FED160AE3
:104CF0000023B1EE001AF0EE400A1A4A1A4917488A
:104D0000FBF754FA95ED000ADFED100AB4EE600AE5
:104D1000F1EE10FA0EDB032020700020286010480E
:104D20000021016006E02078032802D1FBF746FB52
:104D300000E0FFE708B0BDEC0A8B70BD0000FA444C
:104D400000000000E06900200000C84200007A4432
:104D500048E17A14AE47B13FD46900204068002092
:104D6000D86900208068002060680020000080BFB3
:104D7000014648B1B0FA80F18840C91CC1F5846190
:104D8000090501EBD02140057047F0B402461068D8
:104D900095681318506803EB5004C0071DD54D44A7
:104DA0001BE013F8017B05F8017B491EF9D1A0B186
:104DB000B60813F8011B06F00306032E08BF13F80C
:104DC000016B01EB06214942801C294405D011F8F2
:104DD000016B05F8016B401EF9D1A3420ED013F808
:104DE000016B16F0030104BF13F8011BC91C300945
:104DF0000F28DAD113F8010B0F30D6E7F0BC02F11F
:104E00000C007047B0B581EA030C0CF0004C40F286
:104E1000FF7515EA11541DBF15EA1357AC42AF4296
:104E200039E0E41923EA455343F48013C90241F001
:104E3000004141EA505EC7021100A7FB02020028B0
:104E40004FF00000EEFB01204FF00001E3FB0721D3
:104E500018BF42F00102401800214941E3FB0E0156
:104E6000A4F580640F0302D252004041494154F13D
:104E700001046CDD470872F1004250F1000051EB73
:104E80000451A1F580115CBF41EA0C01B0BD4CEAB0
:104E900005510020B0BD05EA1357AC4214BFAF4224
:104EA00041E050EA410E1CBF52EA430E02E0614667
:104EB0000020B0BD24423C441BD15FEA070EF6D06F
:104EC000090302BF01460020AEF1140EB1FA81F7CA
:104ED000AEEB070401FA07FE0C37C7F1200100FA18
:104EE00007F7C8404EEA000E23EA455343F4801307
:104EF000A2E733F00043B3FA83F704BFB2FA82FEAD
:104F000077440B3FE41BB7F1200E2FBF02FA0EF3DC
:104F1000BB40C7F1200E22FA0EFE38BF43EA0E0353
:104F2000BA40641C82E750EA410E14BF52EA430EB5
:104F30006FF000014FF4001717EB430F8ABF1946BB
:104F400017EB410FB5E74CEA05510020B0BDD4F195
:104F50000104B4F120070FDAC4F12007520828BF7A
:104F600042F0010210FA07F501FA07F7E1BF2A4300
:104F7000E0403843E1400FE0352C98DCC7F12004D5
:104F800052EA400220FA07F218BF42F0010231FA59
:104F900007F0A1400A43002172F1004250F10000E5
:104FA00051EB0C01B0BD30B4002513E050F8042BD8
:104FB000D30744BFA9F101039A18091F042942F835
:104FC000045BFAD213468C0744BF15809B1CC907AB
:104FD00048BF1D7050F8041B0029E7D130BC704752
:104FE00001F000428B1AA3F16051B1F5801F0ADB7A
:104FF000B1F17F6F1FD242EAC102C10071F10041DD
:1050000042EB507070470B15C3F10903212B10D2EE
:10501000890241EA905180020128494141F0004152
:1050200021FA03F0C3F12003994071F1004150418E
:105030007047100070476FF0000013EB103F5CBF2B
:10504000000E42EAC050704710B50400002C01D198
:1050500001205FE0606A002806D16068B0F5827FB9
:1050600006D00020E06103E00020206100206061A4
:105070000020A06294F85100002805D1002084F897
:105080005000200002F0CBFB022084F85100206881
:10509000006830F0400021680860606810F4827099
:1050A000A16811F404410843E16811F40061084368
:1050B000217C11F002010843217D11F00101084318
:1050C000A16911F400710843217F11F038010843F0
:1050D00094F8201011F080010843A16A11F40051E6
:1050E000084321680860A069000C10F0040094F8DF
:1050F000241011F010010843216848602068C0693D
:1051000030F400602168C86100206065012084F8E7
:105110005100002010BD2DE9F84306000D001700D6
:105120001C0002F0F5FB8046B94696F851000128B4
:1051300001D00220CDE0002D03D0380080B200283D
:1051400001D10120C5E096F85000012801D10220CC
:10515000BFE0012086F85000032086F851000020AF
:1051600070653563B786F7860020B0630020B0878E
:105170000020F0870020706400203064B068B0F533
:10518000004F0BD13068006830F040003168086093
:105190003068006850F4804031680860306800680A
:1051A000400605D43068006850F04000316808605F
:1051B000F068B0F5006F35D17068002803D048461C
:1051C00080B2012809D1306B00883168C860306B2B
:1051D000801C3063F08E401EF086F08E002857D081
:1051E0003068806880070AD5306B00883168C860F5
:1051F000306B801C3063F08E401EF086EDE702F0CD
:1052000087FBB0EB0800A04202D314F1010F01D1DB
:10521000002CE2D1012086F85100002086F85000D1
:10522000032056E07068002803D0484680B2012869
:1052300009D1306B007831680873306B401C3063E3
:10524000F08E401EF086F08E002821D030688068F5
:1052500080070AD5306B007831680873306B401CCA
:105260003063F08E401EF086EDE702F051FBB0EBAC
:105270000800A04202D314F1010F01D1002CE2D1A9
:10528000012086F85100002086F85000032020E01D
:1052900042462100300000F02CF9002801D02020E7
:1052A0007065B068002808D1002000903068C068A0
:1052B00000903068806800900098012086F85100C6
:1052C000002086F85000706D002801D0012000E019
:1052D0000020BDE8F2837CB50400206845682068A2
:1052E000866816F04100012805D1680603D5200024
:1052F000216C884782E0B00705D5280603D5200039
:10530000616C88477AE016F4B07F77D0A80675D52F
:1053100070061BD594F8510003280DD0606D50F035
:1053200004006065002000902068C068009020683C
:1053300080680090009809E0002000902068C06814
:105340000090206880680090009857E0B0060FD564
:10535000606D50F00100606500200090206880685A
:1053600000902068006830F04000216808600098D4
:10537000F00509D5606D50F00800606500200090D0
:105380002068806800900098606D002835D0206803
:10539000406830F0E00021684860012084F8510046
:1053A00015F0030F26D0206840688008800021682F
:1053B0004860E06C00280CD00FF24500E16C0865F5
:1053C000E06C02F0B0FB002803D0606D50F04000AC
:1053D0006065A06C002810D00FF22500A16C086554
:1053E000A06C02F0A0FB002807D0606D50F04000D8
:1053F000606502E0200002F035FDFFE773BD0000AC
:1054000038B50400A56B0020E8870020E886280056
:1054100002F028FD31BD00002DE9FC4705000E001B
:1054200017009846DDF8289002F072FA0400B8EBF5
:10543000040419EB040402F06BFA8246DFF834012D
:1054400000684001000D00FB04F0009028688068AF
:105450003040B04201D1012000E000203900C9B243
:10546000884243D018F1010FF0D002F051FAB0EBAE
:105470000A00A04201D2002C2FD12868406830F0E9
:10548000E000296848606868B0F5827F0DD1A8689F
:10549000B0F5004F03D0A868B0F5806F05D128683B
:1054A000006830F0400029680860A86AB0F5005F25
:1054B0000BD12868006830F400502968086028681B
:1054C000006850F4005029680860012085F85100F8
:1054D000002085F85000032009E00098002801D141
:1054E000002004000098401E0090AFE70020BDE8B7
:1054F000F6877CB504000D00160000962B000122F3
:1055000002212000FFF788FF002805D0606D50F0D1
:1055100020006065032029E0154800681821B0FBD1
:10552000F1F01549B0FBF1F14FF47A70414301916C
:105530006068B0F5827F0ED100962B00002280219A
:105540002000FFF769FF00280FD0606D50F02000A9
:10555000606503200AE00198002806D00198401EEB
:105560000190206880680006F5D4002076BD000018
:10557000F8040020F804002040420F000100DFED95
:10558000692AB4EE620AF1EE10FA06DA9FED663A85
:10559000B4EE430AF1EE10FA01D500203EE0F4EE3D
:1055A000620AF1EE10FA04DAF4EE430AF1EE10FAB0
:1055B00001D5002032E0DFED5D3AB4EE631AF1EE82
:1055C00010FA04DAB5EE401AF1EE10FA01D5002017
:1055D00024E0DFED573AF4EE631AF1EE10FA04DA44
:1055E000F5EE401AF1EE10FA01D5002016E0B4EE07
:1055F000622AF1EE10FA04DAB4EE432AF1EE10FA60
:1056000001D500200AE081ED030AC1ED040A81ED15
:10561000051AC1ED061A81ED072A0120704738B539
:105620002DED068B04000D00B0EE408AF0EE608A8E
:10563000B0EE419AF0EE619AB0EE42AA2571207860
:105640002072B0EE4A2AF0EE691AB0EE491AF0EE76
:10565000680AB0EE480A2000FFF790FF002801D149
:10566000002000E00120BDEC068B32BD0171027804
:105670000272704738B52DED028B04000D009FEDCE
:105680002A8ADFED698A1020B0EE681AF0EE480A27
:1056900094ED010A02F0E8FBA8600E20B0EE681A53
:1056A000F0EE480A94ED020A02F0DEFBE8600A2000
:1056B0009FED6D1ADFED6D0A94ED030A02F0D4FB45
:1056C000286108209FED6A1ADFED680A94ED040A4C
:1056D00002F0CAFB68611020B0EE681AF0EE480ACA
:1056E00094ED050A02F0C0FBA861A8682870A868BC
:1056F000000A6870E868A870E868000A10F03F00C7
:10570000296950EA8110E870286980082871686961
:105710006871A869A871A869000AE871BDEC028BDC
:1057200031BD000001002042000020C201C07F44C2
:1057300001004C421300DBB20A2B06D143880B70E8
:1057400043889BB21B0A4B7007E01300DBB2092BA6
:1057500003D103780B7000234B7070470A784B78A5
:1057600052EA032202808A788270CA78C2700A796B
:105770004B7952EA032282808A79CB7952EA03225A
:10578000C28070470A78027070470A78012A02D1F5
:105790000122028025E00A78022A02D10222028038
:1057A0001FE00A78042A02D10422028019E00A7854
:1057B000082A02D10822028013E00A78102A02D1B6
:1057C000102202800DE00A78202A02D120220280D5
:1057D00007E00A78402A02D14022028001E000223C
:1057E0000280704738B504000D002079042805D1E7
:1057F000291D14F10800FFF73DFF0CE020790A286D
:1058000002D02079092806D1227915F13C0114F142
:105810003400FFF78FFF31BD01000879097850EAA5
:10582000411080B27047000000002042F8B504002B
:105830000D001600257084F8466002212000FFF755
:1058400015FFDFF84C76201DFFF7E6FF38800020BB
:10585000B87094F84610380002F030FB002801D1EF
:10586000002000E00120F2BD00C07F4400000000E5
:1058700000004C4238B52DED048B0400B0EE408A98
:10588000F0EE608AB0EE419A9FEDAE2AF0EE491A32
:10589000B0EE681ADFEDAB0AB0EE480A0421200032
:1058A000FFF7BDFE002801D1002015E0DFF8E0552C
:1058B000201DFFF7B1FF28800820A87029002000D4
:1058C000FFF790FF94F84610280002F0F7FA00283E
:1058D00001D1002000E00120BDEC048B32BD0000AE
:1058E00038B52DED028B0400B0EE408AF0EE608AF0
:1058F0009FED942AF0EE681A9FED921AF0EE480A96
:105900009FED900A04212000FFF789FE002801D1B5
:10591000002015E0DFF87855201DFFF77DFF288077
:105920000820A87029002000FFF75CFF94F84610BB
:10593000280002F0C3FA002801D1002000E0012075
:10594000BDEC028B32BD000038B52DED028B04009A
:10595000B0EE408AB0EE482ADFED7A1A9FED791A50
:10596000DFED780A9FED770A04212000FFF757FE4C
:10597000002801D1002015E0DFF81455201DFFF7A5
:105980004BFF28800820A87029002000FFF72AFF7D
:1059900094F84610280002F091FA002801D1002066
:1059A00000E00120BDEC028B32BD000038B52DEDCA
:1059B000028B0400B0EE408A9FED622AF0EE481A96
:1059C0009FED601ADFED5F0A9FED5E0A0421200063
:1059D000FFF725FE002801D1002015E0DFF8B054C4
:1059E000201DFFF719FF28800820A870290020003B
:1059F000FFF7F8FE94F84610280002F05FFA00283E
:105A000001D1002000E00120BDEC028B32BD00007E
:105A100038B504009FED4B2ADFED4A1A9FED491A75
:105A2000DFED480A9FED470A04212000FFF7F7FD4C
:105A3000002801D1002015E0DFF85454201DFFF7A5
:105A4000EBFE28800820A87029002000FFF7CAFE7E
:105A500094F84610280002F031FA002801D1002005
:105A600000E0012032BD000038B52DED048B0400AC
:105A7000B0EE408AF0EE608AB0EE419AF0EE619AA4
:105A8000B0EE682AF0EE691AB0EE491ADFED2D0A81
:105A9000B0EE480A04212000FFF7C1FD002801D123
:105AA000002015E0DFF8E853201DFFF7B5FE288041
:105AB0000820A87029002000FFF794FE94F84610F3
:105AC000280002F0FBF9002801D1002000E00120AD
:105AD000BDEC048B32BD000038B52DED048B040005
