:020000040800F2
:1000000008100020B5A3000891A1000893A10008E2
:1000100095A1000897A1000899A100080000000020
:100020000000000000000000000000009BA100088C
:100030009DA10008000000009FA10008A1A10008E8
:10004000F1A30008F5A30008F9A30008FDA3000828
:1000500001A4000805A4000809A40008A9A100083B
:100060000DA4000811A4000815A4000819A4000894
:100070001DA4000821A4000825A4000829A4000844
:100080002DA4000831A4000835A4000839A40008F4
:10009000B3A10008BDA100083DA4000841A40008C8
:1000A00045A4000849A400084DA4000851A4000874
:1000B000C7A1000855A4000859A400085DA40008C1
:1000C00061A4000865A4000869A400086DA40008E4
:1000D00071A4000875A4000879A40008D1A1000843
:1000E0007DA4000881A4000885A4000889A4000854
:1000F0008DA4000891A4000895A4000899A4000804
:100100009DA40008DBA10008A1A40008A5A4000884
:10011000A9A40008ADA40008B1A40008B5A4000873
:10012000B9A40008BDA40008C1A40008C5A4000823
:10013000C9A40008CDA40008D1A40008D5A40008D3
:10014000E5A10008EFA10008D9A40008DDA400087B
:10015000E1A40008E5A40008E9A40008F9A100084A
:10016000EDA40008F1A40008F5A40008F9A4000813
:10017000FDA4000801A5000805A500080000000076
:1001800009A500080DA5000803A200080DA200089B
:1001900011A5000815A5000819A500081DA500084F
:1001A000000000000000000021A500082DE9F84330
:1001B0002DED028B80460D001600B0EE408AF0EE69
:1001C000608A1F00DFF8384BD8F808002060D8F8A4
:1001D0000C006060D8F81800A060D8F81C00E0603F
:1001E000A8682061E8686061A869A061E869E061C9
:1001F000B0682062F0686062B069A062F069E06295
:1002000084ED0C8AC4ED0D8A3800C0B203F0D0F939
:100210000022DFF8F43A03F015FA03F001FBA063C3
:10022000DFF8E89A4FF47A733C222100484603F045
:1002300068FBD9F8000000684006FAD53800C0B263
:10024000002803D03800C0B2052862D1DFF8C09A78
:10025000DFF8C04A3900C9B2B0EE682AF0EE481A99
:1002600096ED011AD5ED010A99ED000AD8ED012AA3
:1002700030EE620A200004F035FB012004F0A0FCFF
:100280003900C9B2B0EE682AF0EE481A96ED001AAD
:10029000D5ED000A99ED010AD8ED002A30EE220AC8
:1002A00014F1480004F01EFB012004F089FCDFF883
:1002B000689ADFF8684A3900C9B2B0EE682AF0EEF1
:1002C000481A96ED051AD5ED050A99ED000AD8ED04
:1002D000052A30EE220A200004F004FB012004F07D
:1002E0006FFC3900C9B2B0EE682AF0EE481A96EDFC
:1002F000041AD5ED040A99ED010AD8ED042A30EE6E
:10030000620A14F1480004F0EDFA012004F058FCF0
:100310004DE0DFF8004A3900C9B2B0EE682AF0EECD
:10032000481A96ED011AD5ED010A9FED760A2000D4
:1003300004F0D8FA012004F043FC3900C9B2B0EE51
:10034000682AF0EE481A96ED001AD5ED000A9FEDE6
:100350006D0A14F1480004F0C5FA012004F030FCE5
:10036000DFF8B8493900C9B2B0EE682AF0EE481A91
:1003700096ED051AD5ED050A9FED620A200004F0FE
:10038000B1FA012004F01CFC3900C9B2B0EE682AB1
:10039000F0EE481A96ED041AD5ED040A9FED590ABD
:1003A00014F1480004F09EFA012004F009FCBDECB1
:1003B000028BBDE8F183000070B52DED028B0024A7
:1003C000042C13DADFF8200C00EBC401091D00EB4C
:1003D000C400DFF8102CD2ED000A9FED4A0A04F0A9
:1003E00003FC012840F08A80641CE9E7DFF810195B
:1003F000DFF8F44BA0680860E0684860A069886096
:10040000E069C86004200C2804DA002241F82020AA
:10041000401CF8E79FED3C8A81ED0C8AF1EE048ADE
:10042000C1ED0D8A00208863DFF8E0584FF47A733D
:100430003C22280003F065FA286800684006FBD5D6
:10044000DFF8D058DFF8C8680021B0EE682AF0EE77
:10045000481A9FED2C1ADFED2B0A96ED000AD4ED19
:10046000012A30EE620A280004F03CFA012004F070
:10047000A7FB0021B0EE682AF0EE481A9FED211A82
:10048000DFED200A96ED010AD4ED002A30EE220AB3
:1004900015F1480004F026FA012004F091FBDFF882
:1004A0007C58DFF874680021B0EE682AF0EE481A34
:1004B0009FED141ADFED130A96ED000AD4ED052A1C
:1004C00030EE220A280004F00DFA012004F078FB37
:1004D0000021B0EE682AF0EE481A9FED0A1ADFED0F
:1004E000090A96ED010AD4ED042A30EE620A15F1EC
:1004F000480004F0F7F9012004F062FBBDEC028B28
:1005000070BD0000000000000000C842F8B52DEDED
:10051000068BA0B00600B0EE408AF0EE608A0C00B8
:10052000150096F9010009EE100A1CA8102104F02C
:10053000B3FC1CA8B8EEC90A20EE280A80ED020A16
:10054000B8EEC90A20EE280A80ED030A18A8102187
:1005500004F0A2FC18A8B8EEC90AF1EE680A20EE71
:10056000800A80ED020AB8EEC90AF1EE680A20EEB0
:10057000800A80ED030A0CA8102104F08DFCB8EE6F
:10058000C90A20EE280A8DED0C0AB8EEC90A20EE41
:10059000280A8DED0D0A08A8102104F07DFCB8EEA4
:1005A000C90AF1EE680A20EE800A8DED080AB8EE5D
:1005B000C90AF1EE680A20EE800A8DED090AB1EE53
:1005C000680AF0EE000A80EE200AF8EEC90A20EE72
:1005D000200A8DED140A14A8B1EE680AF0EE000AA4
:1005E00080EE200AF8EEC90A20EE200A80ED010A0A
:1005F000B0EE000A88EE800AF8EEC90A20EE200A62
:1006000080ED020AB0EE000A88EE800AF8EEC90A10
:1006100020EE200A80ED030AB0EE000A88EE800A80
:10062000F8EEC90A20EE200A8DED100A10A8B0EEEF
:10063000000A88EE800AF8EEC90A20EE200A80ED52
:10064000010AB1EE680AF0EE000A80EE200AF8EE28
:10065000C90A20EE200A80ED020AB1EE680AF0EE27
:10066000000A80EE200AF8EEC90A20EE200A80ED8A
:10067000030A04A8102104F00FFC6846102104F0BE
:100680000BFC9FED64AB6F4618EE100A04F008FCFB
:1006900002000B0051EC1A0B02F0D4FFDFF84C29DA
:1006A000DFF8543904F020FC03F0BAF8786018EE53
:1006B000100A04F0F5FB02000B0051EC1A0B02F0DB
:1006C000C1FFDFF82829DFF8303904F00DFC03F012
:1006D000A7F8B8603078002822D1002C05D16A46EE
:1006E0001CA9301D04F024FD8FE0012C06D104AAC2
:1006F00018A916F1280004F01BFD86E0022C06D193
:100700006A461CA916F14C0004F012FD7DE0032C92
:100710007BD104AA18A916F1700004F009FD74E059
:10072000307801284AD1002D22D1002C05D104AA0D
:1007300010A9301D04F0FCFC67E0012C06D16A46CC
:1007400014A916F1280004F0F3FC5EE0022C06D197
:1007500004AA10A916F14C0004F0EAFC55E0032CA1
:1007600053D16A4614A916F1700004F0E1FC4CE084
:10077000012D22D1002C05D16A4614A9301D04F0A8
:10078000D7FC42E0012C06D104AA10A916F12800DA
:1007900004F0CEFC39E0022C06D16A4614A916F109
:1007A0004C0004F0C5FC30E0032C2ED104AA10A9A3
:1007B00016F1700004F0BCFC27E026E03078022837
:1007C00022D1002C05D104AA0CA9301D04F0B0FCE4
:1007D0001BE0012C06D16A4608A916F1280004F096
:1007E000A7FC12E0022C06D104AA0CA916F14C00B9
:1007F00004F09EFC09E0032C07D16A4608A916F113
:10080000700004F095FC00E0FFE720B0BDEC068B23
:10081000F1BD00000AD7A3703D0AB73F70B52DEDBA
:10082000088B88B00400F0EE408AB0EE609AB0EE1B
:10083000418A04A8102104F02FFB6846102104F01F
:100840002BFB0025042D0ADAB7EE000A242000FB5A
:1008500005F02044001D04F07CFC6D1CF2E7DFF87D
:10086000605C95ED000ADFED8E0AC0EE209A9FEDE8
:100870008DAAB7EE00BAF0EE4BAA2078002840F01F
:100880008A8002220021B0EE000AC9EE000AB0EE12
:10089000680A2000FFF73AFE02220121B0EE000AAA
:1008A000C9EE000AB0EE680A2000FFF72FFE022210
:1008B0000221B0EE000AC9EE000AB0EE680A20007C
:1008C000FFF724FE02220321B0EE000AC9EE000A5F
:1008D000B0EE680A2000FFF719FE0026042E31DA78
:1008E000684600EB860204A800EB8601B0EE690AB8
:1008F000242000FB06F02044001D04F02DFCDFF84E
:10090000E80600EBC601091D00EBC6006A4602EBD3
:10091000860292ED000A78EE400A04AA02EB8602F3
:1009200092ED000A04F060F9012809D0032020703C
:1009300000202860DFF8900BDFF8901B0160D7E102
:10094000761CCBE70023F1EE040A9FEDD80ADFF80E
:10095000802BDFF8801BDFF89006FFF727FC95ED72
:10096000000ADFED4F0AB4EE600AF1EE10FAC0F2B1
:10097000BF81D4F89C00012840F0BA81012020708A
:100980000020C4F89C0000202860DFF83C0BDFF852
:100990003C1B0160ACE12078012840F01081F5EEAD
:1009A000409AF1EE10FA1BDBF4EE4B9AF1EE10FADE
:1009B00016D500220021F0EE490AB0EE680A2000A8
:1009C000FFF7A4FD00220221F0EE490AB0EE680A0A
:1009D0002000FFF79BFD89EE8B0AB0EE40AA27E0CE
:1009E000F4EE4B9AF1EE10FA22DB9FEDC30AF4EE1F
:1009F000409AF1EE10FA1BD501220021F0EE490ACF
:100A0000B0EE680A2000FFF781FD01220221F0EE1E
:100A1000490AB0EE680A2000FFF778FD39EECB0AEC
:100A2000F0EE000A70EECB0A80EE200AB0EE40AA8B
:100A30006A4604A9B0EE4A0A201D04F08DFB02AA02
:100A400006A9B0EE4A0A14F14C0004F085FBF5EE5D
:100A5000409AF1EE10FA27DBB0EE000A30EE4B0AB6
:100A6000F4EE409AF1EE10FA1ED500220121F0EECC
:100A7000490AB0EE680A2000FFF748FD0022032172
:100A8000F0EE490AB0EE680A2000FFF73FFDB0EE35
:100A9000000A30EE4B0A89EE800AB0EE40AA2FE041
:100AA00000007A4400000000B0EE000A30EE4B0A6D
:100AB000F4EE409AF1EE10FA22DB9FED8F0AF4EE8D
:100AC000409AF1EE10FA1BD501220121F0EE490AFD
:100AD000B0EE680A2000FFF719FD01220321F0EEB5
:100AE000490AB0EE680A2000FFF710FD39EE8B0AC4
:100AF000F8EE000A30EE200A80EE0B0AB0EE40AAB3
:100B000001AA05A9B0EE4A0A14F1280004F024FB5A
:100B100003AA07A9B0EE4A0A14F1700004F01CFB06
:100B20000026042E22DADFF8C00400EBC601091DFE
:100B300000EBC6006A4602EB860292ED000A78EEF0
:100B4000400A04AA02EB860292ED000A04F04CF877
:100B5000012809D00320207000202860DFF86809F0
:100B6000DFF868190160C3E0761CDAE70023F1EED4
:100B7000040A9FED4E0ADFF85829DFF85819DFF80C
:100B80006804FFF713FB95ED000ADFED5C0AB4EE95
:100B9000600AF1EE10FAC0F2AB80D4F89C00012894
:100BA00040F0A680022020700020C4F89C000020A5
:100BB0002860DFF81409DFF81419016098E0207844
:100BC000022840F08B8002220021B0EE000AC9EE1C
:100BD000000AB0EE680A2000FFF798FC022201210B
:100BE000B0EE000AC9EE000AB0EE680A2000FFF776
:100BF0008DFC02220221B0EE000AC9EE000AB0EE1E
:100C0000680A2000FFF782FC02220321B0EE000AEE
:100C1000C9EE000AB0EE680A2000FFF777FC002654
:100C2000042E31DA684600EB860204A800EB860148
:100C3000B0EE690A242000FB06F02044001D04F0F9
:100C40008BFADFF8A40300EBC601091D00EBC60018
:100C50006A4602EB860292ED000A78EE400A04AA88
:100C600002EB860292ED000A03F0BEFF012809D0D4
:100C70000320207000202860DFF84C08DFF84C18B3
:100C8000016035E0761CCBE70023F1EE040A9FED0E
:100C9000070ADFF83C28DFF83C18D348FFF786FA4C
:100CA00095ED000ADFED170A02E000BF0000C84220
:100CB000B4EE600AF1EE10FA1AD1D4F89C000128C3
:100CC00016D1032020700020C4F89C00002028606A
:100CD000DFF8F407DFF8F417016009E02078032853
:100CE00005D10020C4F89800FFF766FB00E0FFE79D
:100CF00008B0BDEC088B70BD010000400000FA4454
:100D0000C80A002000007A440000F03F800A00205A
:100D1000C003002000040020D00300204006002073
:100D2000F8B52DED068BA0B00600B0EE408AF0EECF
:100D3000608A0C00150096F9010000EE100AB8EE6A
:100D4000C09A1CA8102104F0A7F81CA828EE890A54
:100D500080ED020A28EE890A80ED030A18A8102106
:100D600004F09AF818A8B1EE680A20EE090A80ED9E
:100D7000020AB1EE680A20EE090A80ED030A0CA807
:100D8000102104F089F828EE890A8DED0C0A28EE6E
:100D9000890A8DED0D0A08A8102104F07DF8B1EE46
:100DA000680A20EE090A8DED080AB1EE680A20EE05
:100DB000090A8DED090AB1EE680AF0EE000A80EE2C
:100DC000200A20EE090A8DED140A14A8B1EE680A73
:100DD000F0EE000A80EE200A20EE090A80ED010AFA
:100DE000B0EE000A88EE800A20EE090A80ED020AC1
:100DF000B0EE000A88EE800A20EE090A80ED030AB0
:100E0000B0EE000A88EE800A20EE090A8DED100A85
:100E100010A8B0EE000A88EE800A20EE090A80EDE4
:100E2000010AB1EE680AF0EE000A80EE200A20EE18
:100E3000090A80ED020AB1EE680AF0EE000A80EEBF
:100E4000200A20EE090A80ED030A04A8102104F00C
:100E500023F86846102104F01FF89FED65AB6F463C
:100E600018EE100A04F01CF802000B0051EC1A0BEB
:100E700002F0E8FB5D4A604B04F036F802F0D0FC6B
:100E8000786018EE100A04F00BF802000B0051EC29
:100E90001A0B02F0D7FB554A574B04F025F802F025
:100EA000BFFCB8603078002822D1002C05D16A46FA
:100EB0001CA9301D04F03CF98FE0012C06D104AAD6
:100EC0001CA916F1280004F033F986E0022C06D1A3
:100ED0006A4618A916F14C0004F02AF97DE0032CAB
:100EE0007BD104AA18A916F1700004F021F974E06E
:100EF000307801284AD1002D22D1002C05D104AA36
:100F000010A9301D04F014F967E0012C06D16A46DF
:100F100010A916F1280004F00BF95EE0022C06D1AE
:100F200004AA14A916F14C0004F002F955E0032CB0
:100F300053D16A4614A916F1700004F0F9F84CE098
:100F4000012D22D1002C05D16A4614A9301D04F0D0
:100F5000EFF842E0012C06D104AA14A916F12800EA
:100F600004F0E6F839E0022C06D16A4610A916F121
:100F70004C0004F0DDF830E0032C2ED104AA10A9B7
:100F800016F1700004F0D4F827E026E0307802284B
:100F900022D1002C05D104AA0CA9301D04F0C8F8F8
:100FA0001BE0012C06D16A460CA916F1280004F0BA
:100FB000BFF812E0022C06D104AA08A916F14C00D1
:100FC00004F0B6F809E0032C07D16A4608A916F127
:100FD000700004F0ADF800E0FFE720B0BDEC068B38
:100FE000F1BD0000BC030020540B002048E17A143E
:100FF0000AD7A3703D0AB73FAE47B13F70B52DED9C
:10100000088B88B00400F0EE408AB0EE609AB0EE33
:10101000418A04A8102103F03FFF6846102103F025
:101020003BFF0025042D0ADAB7EE000A242000FB5E
:1010300005F02044001D04F08CF86D1CF2E7DFF889
:10104000805495ED000ADFED8D0AC0EE209A9FEDE9
:101050008CAAB7EE00BAF0EE4BAA2078002840F038
:10106000888002220021B0EE000AC9EE000AB0EE2C
:10107000680A2000FFF754FE02220121B0EE000AA8
:10108000C9EE000AB0EE680A2000FFF749FE02220E
:101090000221B0EE000AC9EE000AB0EE680A200094
:1010A000FFF73EFE02220321B0EE000AC9EE000A5D
:1010B000B0EE680A2000FFF733FE0026042E31DA76
:1010C000684600EB860204A800EB8601B0EE690AD0
:1010D000242000FB06F02044001D04F03DF8DFF85A
:1010E000F80A00EBC601091D00EBC6006A4602EBD8
:1010F000860292ED000A78EE400A04AA02EB86020C
:1011000092ED000A03F070FD012809D00320207041
:1011100000202860DFF8B003DFF8B0130160C9E1F8
:10112000761CCBE70023F1EE040A9FEDD20ADFF82C
:10113000A023DFF8A013DFF8A00AFFF737F895ED3A
:10114000000ADFED4E0AB4EE600AF1EE10FAC0F2CA
:10115000B181D4F89C00012840F0AC8101202070BE
:101160000020C4F89C0000202860D748D7490160BF
:10117000A0E12078012840F00A81F5EE409AF1EED6
:1011800010FA1BDBF4EE4B9AF1EE10FA16D50022A2
:101190000021F0EE490AB0EE680A2000FFF7C0FD1A
:1011A00000220221F0EE490AB0EE680A2000FFF7A3
:1011B000B7FD89EE8B0AB0EE40AA27E0F4EE4B9A19
:1011C000F1EE10FA22DB9FEDBD0AF4EE409AF1EE4B
:1011D00010FA1BD501220021F0EE490AB0EE680A90
:1011E0002000FFF79DFD01220221F0EE490AB0EE3A
:1011F000680A2000FFF794FD39EECB0AF0EE000AF2
:1012000070EECB0A80EE200AB0EE40AA6A4604A92E
:10121000B0EE4A0A201D03F09FFF02AA06A9B0EE15
:101220004A0A14F14C0003F097FFF5EE409AF1EEF4
:1012300010FA27DBB0EE000A30EE4B0AF4EE409ACB
:10124000F1EE10FA1ED500220121F0EE490AB0EEAF
:10125000680A2000FFF764FD00220321F0EE490A2E
:10126000B0EE680A2000FFF75BFDB0EE000A30EE3A
:101270004B0A89EE800AB0EE40AA2FE000007A44C3
:1012800000000000B0EE000A30EE4B0AF4EE409A87
:10129000F1EE10FA22DB9FED890AF4EE409AF1EEAE
:1012A00010FA1BD501220121F0EE490AB0EE680ABE
:1012B0002000FFF735FD01220321F0EE490AB0EED0
:1012C000680A2000FFF72CFD39EE8B0AF8EE000AC1
:1012D00030EE200A80EE0B0AB0EE40AA01AA05A962
:1012E000B0EE4A0A14F1280003F036FF03AA07A95A
:1012F000B0EE4A0A14F1700003F02EFF0026042E0F
:1013000020DADFF8D40800EBC601091D00EBC600A7
:101310006A4602EB860292ED000A78EE400A04AAC1
:1013200002EB860292ED000A03F05EFC012807D072
:101330000320207000202860634864490160B9E000
:10134000761CDCE70023F1EE040A9FED4A0A604AAE
:101350006049DFF88408FEF729FF95ED000ADFED0C
:10136000590AB4EE600AF1EE10FA40F0A380D4F806
:101370009C00012840F09E80022020700020C4F8CC
:101380009C000020286050485049016092E020787D
:10139000022840F0858002220021B0EE000AC9EE4A
:1013A000000AB0EE680A2000FFF7BAFC0222012111
:1013B000B0EE000AC9EE000AB0EE680A2000FFF79E
:1013C000AFFC02220221B0EE000AC9EE000AB0EE24
:1013D000680A2000FFF7A4FC02220321B0EE000AF5
:1013E000C9EE000AB0EE680A2000FFF799FC00265B
:1013F000042E2FDA684600EB860204A800EB860173
:10140000B0EE690A242000FB06F02044001D03F022
:10141000A3FEDFF8C40700EBC601091D00EBC60000
:101420006A4602EB860292ED000A78EE400A04AAB0
:1014300002EB860292ED000A03F0D6FB012807D0EA
:1014400003202070002028601F482049016031E0FF
:10145000761CCDE70023F1EE040A9FED060A1C4A34
:101460001C49DFF87407FEF7A1FE95ED000ADFEDD9
:101470001A0A01E00000C842B4EE600AF1EE10FA68
:1014800018DBD4F89C00012814D103202070002020
:10149000C4F89C00002028600B480C49016009E05A
:1014A0002078032805D10020C4F89800FEF784FFB7
:1014B00000E0FFE708B0BDEC088B70BD0100004004
:1014C000F00B00200000FA44B8030020000080BFA9
:1014D000940B0020740B002000007A4438B52DEDE9
:1014E000028B90B00400B0EE408AF0EE608A0CA847
:1014F000102103F0D1FC04A8102103F0CDFC04A8B6
:1015000080ED028A80ED038AB1EE680A8DED080A4B
:1015100008A8B1EE680A80ED010A80ED028A80ED2C
:10152000038A6846102103F0B7FC8DED008A8DED2B
:10153000018A207800280DD10025042D2DDA04AA77
:101540000CA9242000FB05F02044001D03F0F0FD51
:101550006D1CF2E7207802280DD10025042D1CDA3D
:1015600008AA0CA9242000FB05F02044001D03F06C
:10157000DFFD6D1CF2E7207804280DD10025042D35
:101580000BDA6A460CA9242000FB05F02044001D5C
:1015900003F0CEFD6D1CF2E7FFE710B0BDEC028B4F
:1015A00031BD0000F8B52DED088B88B004009FED2B
:1015B000C08ADFEDC08A9FEDC09ADFEDC09A04A813
:1015C000102103F069FC6846102103F065FC00253A
:1015D000042D0ADAB7EE000A242000FB05F02044AF
:1015E000001D03F0B6FD6D1CF2E7DFF8105B95ED12
:1015F000000ADFEDB30A80EE20AA2078002867D128
:10160000F0EE680AB0EE480A2000FFF767FF0026F8
:10161000042E31DA684600EB860204A800EB86014E
:10162000B0EE4A0A242000FB06F02044001D03F01F
:1016300093FDDFF8A40500EBC601091D00EBC60011
:101640006A4602EB860292ED000A79EEC00A04AA0D
:1016500002EB860292ED000A03F0C6FA012809D0D7
:101660000520207000202860DFF8940ADFF8941A23
:1016700001601FE2761CCBE70023F1EE040A9FED28
:10168000910ADFF8842ADFF8841ADFF84C05FEF7A8
:101690008DFD95ED000ADFED8A0AB4EE600AF1EEE9
:1016A00010FAC0F20782D4F89800012840F00282B4
:1016B000012020700020C4F8980000202860DFF886
:1016C000400ADFF8401A01600A2003F079FAF1E1DC
:1016D0002078012840F000810026042E1ADADFF875
:1016E000F80400EBC601091D00EBC60079EEA80A5C
:1016F0009FED710A03F078FA012809D005202070C7
:1017000000202860DFF8F809DFF8F8190160D1E15E
:10171000761CE2E7DFF8F80990ED080ADFF8F40933
:10172000D0ED000A30EE600A10EE100A03F0B8FBAC
:1017300031F0004141EC1B0BDFF89C54686803F06A
:10174000AFFB02000B0033F0004351EC1B0B03F026
:1017500053FE0022DFF8C03901F074FF02F060F898
:1017600009EE100A9FED9A0AB4EE409AF1EE10FAD3
:1017700003DB9FED980AB0EE409A0020042877DA48
:101780000021022972DADFF8842902EBC00200236B
:1017900042F8213005EBC00202EB810292ED000A13
:1017A000B5EE400AF1EE10FA2FDD002801D0032833
:1017B00015D101290AD1DFF8502902EBC00202EB52
:1017C0008102B1EE490A82ED000A4DE0DFF83829C6
:1017D00002EBC00202EB810282ED009A44E0012993
:1017E00008D1DFF8242902EBC00202EB810282ED6E
:1017F000009A39E0DFF8102902EBC00202EB810207
:10180000B1EE490A82ED000A2EE0002801D003283B
:1018100015D1012908D1DFF8F02802EBC00202EB54
:10182000810282ED009A1FE0DFF8DC2802EBC002A3
:1018300002EB8102B1EE490A82ED000A14E00129AF
:101840000AD1DFF8C42802EBC00202EB8102B1EE3C
:10185000490A82ED000A07E0DFF8AC2802EBC0027B
:1018600002EB810282ED009A491C8AE7401C85E761
:10187000DFF89868DFF890780523F1EE040A9FED11
:101880008F0A3A0031002800FEF790FC002004285F
:101890001CDA0021022917DA06EBC002002342F805
:1018A000213007EBC002002342F82130491CF1E748
:1018B000295C8F3DCDCCCC3D000000000C026B3E7E
:1018C00000007A440000C842401CE0E7C82003F052
:1018D00077F902202070EDE02078022862D1F0EE46
:1018E000680AB0EE480A2000FFF7F8FD0026042E33
:1018F00030DA684600EB860204A800EB8601B0EE01
:101900004A0A242000FB06F02044001D03F024FCBA
:10191000B14800EBC601091D00EBC6006A4602EBA8
:10192000860292ED000A79EEC00A04AA02EB860252
:1019300092ED000A03F058F9012809D00520207023
:1019400000202860DFF8B807DFF8B8170160B1E0C1
:10195000761CCCE70023F1EE040A9FED9B0ADFF82A
:10196000A827DFF8A8179C48FEF720FC95ED000A91
:10197000DFED960AB4EE600AF1EE10FAC0F29A803A
:10198000D4F89800012840F09580032020700020B2
:10199000C4F8980000202860DFF86407DFF86417B7
:1019A000016087E02078032816D10323F1EE040AB2
:1019B0009FED870ADFF85027DFF850178648FEF7BB
:1019C000F5FB4FF4FA6003F0FBF80420207071E09F
:1019D00001002042000020422078042860D1F0EE6F
:1019E000680AB0EE480A2000FFF778FD0026042EB2
:1019F00030DA684600EB860204A800EB8601B0EE00
:101A00004A0A242000FB06F02044001D03F0A4FB3A
:101A1000714800EBC601091D00EBC6006A4602EBE7
:101A2000860292ED000A79EEC00A04AA02EB860251
:101A300092ED000A03F0D8F8012809D005202070A3
:101A400000202860DFF8B806DFF8B816016031E042
:101A5000761CCCE70023F1EE040A9FED5B0ADFF869
:101A6000A826DFF8A8165C48FEF7A0FB95ED000A53
:101A7000DFED560AB4EE600AF1EE10FA1ADBD4F884
:101A80009800012816D1052020700020C4F8980085
:101A900000202860DFF86806DFF86816016009E0BA
:101AA0002078052805D10020C4F89400FEF784FCB6
:101AB00000E0FFE708B0BDEC088BF1BD0000C843B3
:101AC00038B52DED068B98B00400B0EE408AF0EEEC
:101AD000608AB0EE419ADFED3F9A39EEA80A79EEBE
:101AE000C80A80EE200A20EE09AA14A8102103F0EB
:101AF000D3F90CA8102103F0CFF9B1EE4A0A8DED0D
:101B00000C0A0CA8B1EE490A80ED010A80ED039A97
:101B100008A8102103F0C0F98DED089A8DED099AFF
:101B200004A8102103F0B8F904A880ED028A80ED22
:101B3000038AB1EE680A8DED100A10A880ED018AC3
:101B400080ED028A80ED038A6846102103F0A4F933
:101B50008DED008A8DED018A207800280DD10025B9
:101B6000042D2DDA04AA14A9242000FB05F020443A
:101B7000001D03F0DDFA6D1CF2E7207802280DD17C
:101B80000025042D1CDA10AA0CA9242000FB05F066
:101B90002044001D03F0CCFA6D1CF2E720780428E5
:101BA0000DD10025042D0BDA6A4608A9242000FB7C
:101BB00005F02044001D03F0BBFA6D1CF2E7FFE7BF
:101BC00018B0BDEC068B31BD0000C84200007A445D
:101BD000000000000C026B3E540B0020F8B52DED08
:101BE0000A8B88B004009FEDC19AB0EE498AF0EEEE
:101BF000498ADFEDBF9A9FEDBFAA04A8102103F028
:101C00004BF96846102103F047F90025042D0ADA44
:101C1000B7EE000A242000FB05F02044001D03F06D
:101C200098FA6D1CF2E7DFF8D45495ED000ADFED69
:101C3000B20AC0EE20AA2078002869D1B0EE491A75
:101C4000F0EE680AB0EE480A2000FFF739FF0026E0
:101C5000042E31DA684600EB860204A800EB860108
:101C6000B0EE6A0A242000FB06F02044001D03F0B9
:101C700073FADFF82C0800EBC601091D00EBC60063
:101C80006A4602EB860292ED000A7AEE400A04AA46
:101C900002EB860292ED000A02F0A6FF012809D0AD
:101CA0000520207000202860DFF85404DFF8541469
:101CB000016017E2761CCBE70023F1EE040A9FEDEA
:101CC0008F0ADFF84424DFF84414DFF8D407FEF766
:101CD0006DFA95ED000ADFED880AB4EE600AF1EEC8
:101CE00010FAC0F2FF81D4F89800012840F0FA8180
:101CF000012020700020C4F8980000202860DFF840
:101D00000004DFF8001401600A2002F059FFE9E145
:101D10002078012840F0FC803AEE280A7AEE480A42
:101D200080EE200A20EE09BA0026042E1ADADFF827
:101D3000700700EBC601091D00EBC6007AEE280A09
:101D4000B1EE4B0A02F050FF012809D005202070A7
:101D500000202860DFF8A803DFF8A8130160C1E1C4
:101D6000761CE2E7DFF8A80390ED080ADFF8A40389
:101D7000D0ED000A30EE600A10EE100A03F090F881
:101D800031F0004141EC1C0BDFF81457686803F098
:101D900087F802000B0033F0004351EC1C0B03F0FA
:101DA0002BFB0022DFF8703301F04CFC01F038FD12
:101DB00009EE900A9FED930AF4EE409AF1EE10FAC4
:101DC00003DB9FED910AF0EE409A002004286FDAC1
:101DD000002102296ADADFF8342302EBC002002373
:101DE00042F8213005EBC00202EB810292ED000ABD
:101DF000B5EE400AF1EE10FA2BDD002801D00328E1
:101E000013D1012909D1C04A02EBC00202EB8102C1
:101E1000B1EE690A82ED000A46E0BB4A02EBC0025D
:101E200002EB8102C2ED009A3EE0012907D1B64AD9
:101E300002EBC00202EB8102C2ED009A34E0B24A2A
:101E400002EBC00202EB8102B1EE690A82ED000AE8
:101E50002AE0002801D0032813D1012907D1AA4A7A
:101E600002EBC00202EB8102C2ED009A1CE0A64A1E
:101E700002EBC00202EB8102B1EE690A82ED000AB8
:101E800012E0012909D1A04A02EBC00202EB810253
:101E9000B1EE690A82ED000A06E09B4A02EBC0023D
:101EA00002EB8102C2ED009A491C92E7401C8DE7CB
:101EB000964E954F0523F1EE040A9FED8C0A3A00E9
:101EC00031002800FEF772F9002004281ADA0021F8
:101ED000022915DA06EBC002002342F8213007EB95
:101EE000C002002342F82130491CF1E7295C8F3DF4
:101EF000000000000C026B3E00007A440000C84263
:101F0000401CE2E7C82002F05BFE02202070E9E0FE
:101F10002078022860D1B0EE491AF0EE680AB0EEDF
:101F2000480A2000FFF7CCFD0026042E2FDA684671
:101F300000EB860204A800EB8601B0EE6A0A2420BA
:101F400000FB06F02044001D03F006F9DFF8500501
:101F500000EBC601091D00EBC6006A4602EB8602D3
:101F600092ED000A7AEE400A04AA02EB860292ED94
:101F7000000A02F039FE012807D005202070002059
:101F800028605F485F490160ACE0761CCDE7002324
:101F9000F1EE040A9FED560A5B4A5C49DFF8000542
:101FA000FEF704F995ED000ADFED520AB4EE600A7F
:101FB000F1EE10FAC0F29680D4F89800012840F0B3
:101FC0009180032020700020C4F898000020286031
:101FD0004B484C49016085E02078032816D1032343
:101FE000F1EE040A9FED440A474A4849DFF8B0047D
:101FF000FEF7DCF84FF4FA6002F0E2FD04202070F6
:1020000070E000BF01002042000020422078042838
:102010005ED1B0EE491AF0EE680AB0EE480A200030
:10202000FFF74EFD0026042E2FDA684600EB8602ED
:1020300004A800EB8601B0EE6A0A242000FB06F03B
:102040002044001D03F088F8DFF8540400EBC601BB
:10205000091D00EBC6006A4602EB860292ED000AFB
:102060007AEE400A04AA02EB860292ED000A02F020
:10207000BBFD012807D005202070002028602048E3
:10208000204901602EE0761CCDE70023F1EE040A22
:102090009FED170A1C4A1D49DFF80404FEF786F875
:1020A00095ED000ADFED130AB4EE600AF1EE10FAC6
:1020B00018DBD4F89800012814D1052020700020E6
:1020C000C4F89800002028600D480E49016009E01E
:1020D0002078052805D10020C4F89400FEF76CF99B
:1020E00000E0FFE708B0BDEC0A8BF1BD0000C8437B
:1020F0000000C84200007A4400000000F00B0020FD
:10210000B8030020000080BF940B0020740B002057
:1021100000040020C003002000002440F8B52DED8D
:10212000088BB8B00600B0EE408AF0EE608AB0EEE0
:10213000419A0C001500DFED069A9FED05AA707814
:10214000002807D1F0EE489AB0EE68AA09E000BF77
:10215000000000007078012803D1F0EE689AB0EE1C
:1021600048AA96F9020000EE100AF8EEC0AA24A8C8
:10217000102102F091FE24A829EEAA0A80ED020A9D
:1021800029EEAA0A80ED030A20A8102102F084FE9D
:1021900020A8B1EE690A20EE2A0A80ED020AB1EE0B
:1021A000690A20EE2A0A80ED030A1CA8102102F019
:1021B00073FE29EEAA0A8DED1C0A29EEAA0A8DEDFE
:1021C0001D0A18A8102102F067FEB1EE690A20EE80
:1021D0002A0A8DED180AB1EE690A20EE2A0A8DED61
:1021E000190AB1EE690A20EE2A0A8DED340A34A8E4
:1021F000B1EE690A20EE2A0A80ED010A29EEAA0A48
:1022000080ED020A29EEAA0A80ED030A29EEAA0A45
:102210008DED300A30A829EEAA0A80ED010AB1EE50
:10222000690A20EE2A0A80ED020AB1EE690A20EE60
:102230002A0A80ED030A14A8102102F02DFE14A82A
:102240002AEE2A0A80ED020A2AEE2A0A80ED030A03
:1022500010A8102102F020FE10A8B1EE4A0A20EECC
:102260002A0A80ED020AB1EE4A0A20EE2A0A80ED1F
:10227000030A0CA8102102F00FFE2AEE2A0A8DEDA7
:102280000C0A2AEE2A0A8DED0D0A08A8102102F088
:1022900003FEB1EE4A0A20EE2A0A8DED080AB1EEDD
:1022A0004A0A20EE2A0A8DED090AB1EE4A0A20EE0A
:1022B0002A0A8DED2C0A2CA8B1EE4A0A20EE2A0A31
:1022C00080ED010A2AEE2A0A80ED020A2AEE2A0A85
:1022D00080ED030A2AEE2A0A8DED280A28A82AEEA4
:1022E0002A0A80ED010AB1EE4A0A20EE2A0A80EDA0
:1022F000020AB1EE4A0A20EE2A0A80ED030A04A877
:10230000102102F0C9FD6846102102F0C5FD9FEDC5
:1023100065BB6F4619EE100A02F0C2FD02000B0009
:1023200051EC1B0B01F08EF9DFF87C27DFF84C38FD
:1023300002F0DAFD01F074FA786019EE100A02F08A
:10234000AFFD02000B0051EC1B0B01F07BF9DFF835
:102350005827DFF8283802F0C7FD01F061FAB860AD
:102360003078002822D1002C05D16A4624A9301DDE
:1023700002F0DEFE8FE0012C06D104AA10A916F1AE
:10238000280002F0D5FE86E0022C06D16A4614A988
:1023900016F14C0002F0CCFE7DE0032C7BD104AAA8
:1023A00020A916F1700002F0C3FE74E03078012815
:1023B0004AD1002D22D1002C05D104AA30A9301D0C
:1023C00002F0B6FE67E0012C06D16A462CA916F190
:1023D000280002F0ADFE5EE0022C06D104AA28A976
:1023E00016F14C0002F0A4FE55E0032C53D16A46CE
:1023F00034A916F1700002F09BFE4CE0012D22D1B1
:10240000002C05D16A4634A9301D02F091FE42E04D
:10241000012C06D104AA28A916F1280002F088FE92
:1024200039E0022C06D16A462CA916F14C0002F0C4
:102430007FFE30E0032C2ED104AA30A916F17000E3
:1024400002F076FE27E026E03078022822D1002C28
:1024500005D104AA1CA9301D02F06AFE1BE0012C64
:1024600006D16A4608A916F1280002F061FE12E0C2
:10247000022C06D104AA0CA916F14C0002F058FE59
:1024800009E0032C07D16A4618A916F1700002F082
:102490004FFE00E0FFE738B0BDEC088BF1BD000057
:1024A000540B00200AD7A3703D0AB73FF8B52DEDB5
:1024B000088B88B00600F0EE408AB0EE609AF0EE2D
:1024C000419AB0EE618A04A8102102F0E5FC68464A
:1024D000102102F0E1FC0024042C0ADAB7EE000A15
:1024E000242000FB04F03044001D02F032FE641C86
:1024F000F2E7DFF8687697ED000ADFEDB70A80EEC5
:1025000020AADFEDB6AAF7EE00BAB0EE6BBA3078CB
:10251000002840F09A8002220021B0EE691AB0EE45
:10252000000AC9EE000AB0EE000A88EE800A300008
:10253000FFF7F4FD02220121B0EE691AB0EE000AA5
:10254000C9EE000AB0EE000A88EE800A3000FFF7FC
:10255000E5FD02220221B0EE691AB0EE000AC9EED2
:10256000000AB0EE000A88EE800A3000FFF7D6FDC0
:1025700002220321B0EE691AB0EE000AC9EE000A89
:10258000B0EE000A88EE800A3000FFF7C7FD002495
:10259000042C31DA684600EB840204A800EB8401C5
:1025A000B0EE4A0A242000FB04F03044001D02F083
:1025B000D3FDDFF8B40500EBC401091D00EBC40036
:1025C0006A4602EB840292ED000A78EE400A04AA01
:1025D00002EB840292ED000A02F006FB012809D00A
:1025E0000320307000203860DFF88005DFF83419F0
:1025F00001604DE2641CCBE70023F1EE040A9FED7D
:10260000C50ADFF85C25DFF85C15DFF85C05FDF72F
:10261000CDFD97ED000ADFED700AB4EE600AF1EE31
:1026200010FAC0F23582D6F89C00012840F03082C2
:10263000012030700020C6F89C0000203860DFF8D0
:102640002C05DFF8E018016022E23078012840F024
:102650007B81B5EE40AAF1EE10FA1FDBB4EE6BAA57
:10266000F1EE10FA1AD500220021B0EE691AF0EE50
:10267000490AB0EE680A3000FFF750FD002202213F
:10268000B0EE691AF0EE490AB0EE680A3000FFF7C2
:1026900045FD8AEE2B0AF0EE40AA3EE0B4EE6BAAAE
:1026A000F1EE10FA39DB9FED4E0AB4EE40AAF1EEDE
:1026B00010FA32D501220021B0EE691AF0EE490A73
:1026C000B0EE680A3000FFF729FD01220221B0EECA
:1026D000691AF0EE490AB0EE680A3000FFF71EFDF5
:1026E0003AEE6B0A10EE100A02F0DAFB04000D005D
:1026F0001BEE900A02F0D4FB02000B0000205FF0FA
:10270000804102F037FF02000B002000290002F098
:10271000EBFB01F085F80AEE900A6A4604A9B0EED8
:102720006A0A301D02F018FD02AA06A9B0EE6A0A74
:1027300016F14C0002F010FDB5EE40AAF1EE10FAD1
:1027400050DB1BEE900A02F0ABFB02000B000020F6
:102750005FF0804102F00EFF02000B0014001D002C
:102760001AEE100A02F09CFB22002B0002F074FF0C
:1027700038D200220121B0EE691AF0EE490AB0EE1B
:10278000680A3000FFF7CAFC00220321B0EE691A84
:10279000F0EE490AB0EE680A3000FFF7BFFC1AEE0F
:1027A000100A02F07DFB04000D001BEE900A02F0FF
:1027B00077FB02000B0000205FF0804102F0DAFEA0
:1027C00002000B002000290002F08EFB01F028F827
:1027D0000AEE900A56E000BF00007A4400000000B4
:1027E000010000401BEE900A02F05AFB02000B00B1
:1027F00000205FF0804102F0BDFE02000B001400DB
:102800001D001AEE100A02F04BFB22002B0002F012
:102810003BFF37D89FEDA00AB4EE40AAF1EE10FAC4
:1028200030D501220121B0EE691AF0EE490AB0EE6E
:10283000680A3000FFF772FC01220321B0EE691A2A
:10284000F0EE490AB0EE680A3000FFF767FC3AEE96
:102850002B0A10EE100A02F023FB00225FF0404327
:1028600002F0CAFD04000D001BEE900A02F018FBF6
:1028700002000B002000290002F036FB00F0D0FF20
:102880000AEE900A01AA05A9B0EE6A0A16F128001C
:1028900002F062FC03AA07A9B0EE6A0A16F1700002
:1028A00002F05AFC0024042C22DADFF8BC0200EB10
:1028B000C401091D00EBC4006A4602EB840292EDDC
:1028C000000A78EE400A04AA02EB840292ED000AA4
:1028D00002F08AF9012809D0032030700020386006
:1028E000DFF88802DFF83C160160D1E0641CDAE70B
:1028F0000023F1EE040A9FED070ADFF86422DFF8F7
:102900006412DFF86402FDF751FC97ED000ADFED79
:10291000630A01E00000C842B4EE600AF1EE10FA6A
:10292000C0F2B680D6F89C00012840F0B1800220A9
:1029300030700020C6F89C0000203860DFF82C02C0
:10294000DFF8E0150160A3E03078022840F09880BD
:1029500002220021B0EE691AB0EE000AC9EE000AA8
:10296000B0EE000A88EE800A3000FFF7D7FB0222A3
:102970000121B0EE691AB0EE000AC9EE000AB0EE0D
:10298000000A88EE800A3000FFF7C8FB022202210D
:10299000B0EE691AB0EE000AC9EE000AB0EE000A05
:1029A00088EE800A3000FFF7B9FB02220321B0EE67
:1029B000691AB0EE000AC9EE000AB0EE000A88EE0D
:1029C000800A3000FFF7AAFB0024042C31DA6846A5
:1029D00000EB840204A800EB8401B0EE4A0A242034
:1029E00000FB04F03044001D02F0B6FBDFF8780174
:1029F00000EBC401091D00EBC4006A4602EB84022F
:102A000092ED000A78EE400A04AA02EB840292EDED
:102A1000000A02F0E9F8012809D0032030700020F4
:102A20003860DFF84801DFF8FC14016030E0641C16
:102A3000CBE70023F1EE040A9FED190ADFF820210D
:102A4000DFF82011DFF82001FDF7B0FB97ED000A59
:102A5000DFED140AB4EE600AF1EE10FA18DBD6F8D6
:102A60009C00012814D1032030700020C6F89C007F
:102A700000203860DFF8F400DFF8A814016007E0F8
:102A80003078032804D10020C6F89800FDF794FCA4
:102A900008B0BDEC088BF1BD010000400000FA4415
:102AA0000000C84200007A4448E17A1410B52DEDC8
:102AB000068BB0EE408ADFED2F9A29EE88AAB0EEA1
:102AC000080ACAEE008AB1EE4A0AF0EE080A80EE61
:102AD000200AF0EE000A20EE209A0024042C2FDABF
:102AE000022C15DADFF88C0A00EBC401091D00EB9B
:102AF000C400DFF8942A92ED000A70EE680A9FED98
:102B00001C0A02F071F8012818D0FDF755FC22E0EC
:102B1000DFF8600A00EBC401091D00EBC400DFF818
:102B2000682A92ED000A70EE490A9FED110A02F040
:102B30005BF8012802D0FDF73FFC0CE0641CCDE7F8
:102B40000023F1EE040A9FED0C0A054A0549DFF85F
:102B5000240AFDF72BFBBDEC068B10BDF00B00200B
:102B6000940B0020740B0020540B0020B8030020AD
:102B700000000000CDCCCC3E00004842AE47B13F43
:102B80002DE9F8432DED048BB0B00600B0EE408A7D
:102B9000F0EE608A0C001500B0EE089A28EE890A63
:102BA00010EE100A02F07CF902000B0090469946E4
:102BB00018EE100A02F074F9DFF8D029DFF8D039E6
:102BC00002F01AFC42464B4602F05EFD18D918EEA0
:102BD000100A02F065F9DFF8B429DFF8B83902F01D
:102BE0000BFC02000B009046994628EE890A10EE75
:102BF000100A02F055F942464B4602F045FD00D856
:102C000086E12CA8102102F047F92CA880ED028A59
:102C100080ED038A28A8102102F03EF928A8B1EE21
:102C2000480A80ED020AB1EE480A80ED030AB1EECF
:102C3000480AF0EE000A80EE200A8DED180A18A866
:102C4000B1EE480AF0EE000A80EE200A80ED010A9B
:102C5000B0EE000A88EE000A80ED020AB0EE000A2B
:102C600088EE000A80ED030AB0EE000A88EE000A42
:102C70008DED140A14A8B0EE000A88EE000A80ED6B
:102C8000010AB1EE480AF0EE000A80EE200A80ED5B
:102C9000020AB1EE480AF0EE000A80EE200A80ED4A
:102CA000030A08A8102102F0F7F88DED088A8DEDCF
:102CB000098A04A8102102F0EFF8B1EE480A8DED60
:102CC000040AB1EE480A8DED050A24A8102102F08D
:102CD000E3F89FED929B24AF18EE900A02F0E0F823
:102CE00053EC192B02F088FB00F09AFD786018EE87
:102CF000900A02F0D5F853EC192B02F07DFB00F09E
:102D00008FFDB860C7ED038A20A8102102F0C4F837
:102D100020A8B1EE680A80ED020AB1EE680A80EDE3
:102D2000030AB1EE680AF0EE000A80EE200A8DED8B
:102D3000100A10AFB0EE000A88EE800A10EE100AFA
:102D400002F0AEF853EC192B02F056FB00F068FDD0
:102D50007860B0EE000A88EE800A10EE100A02F0E9
:102D60009FF853EC192B02F047FB00F059FDB860B7
:102D7000B0EE000A88EE800A87ED030AB0EE000A82
:102D800088EE800A8DED0C0A0CA8B0EE000A88EEE1
:102D9000800A80ED010AB1EE680AF0EE000A80EECA
:102DA000200A80ED020AB1EE680AF0EE000A80EE19
:102DB000200A80ED030A6846102102F06DF8CDED7F
:102DC000008ACDED018A1CA8DFF8CC17102202F092
:102DD00073FCB1EE680A8DED1C0A3078002822D110
:102DE000002C05D124AA2CA9301D02F0A1F98FE0F6
:102DF000012C06D120AA28A916F1280002F098F982
:102E000086E0022C06D124AA2CA916F14C0002F06F
:102E10008FF97DE0032C7BD120AA28A916F1700040
:102E200002F086F974E0307801284AD1002D22D1D1
:102E3000002C05D10CAA14A9301D02F079F967E025
:102E4000012C06D110AA18A916F1280002F070F979
:102E50005EE0022C06D10CAA14A916F14C0002F077
:102E600067F955E0032C53D110AA18A916F1700088
:102E700002F05EF94CE0012D22D1002C05D110AA00
:102E800018A9301D02F054F942E0012C06D10CAA19
:102E900014A916F1280002F04BF939E0022C06D1F2
:102EA00010AA18A916F14C0002F042F930E0032CE8
:102EB0002ED10CAA14A916F1700002F039F927E0FE
:102EC00026E03078022822D1002C05D16A4608A9D4
:102ED000301D02F02DF91BE0012C06D11CAA04A91B
:102EE00016F1280002F024F912E0022C06D16A46FD
:102EF00008A916F14C0002F01BF909E0032C07D1D8
:102F00001CAA04A916F1700002F012F900E0FFE714
:102F100030B0BDEC048BBDE8F18300007B14AE47FC
:102F2000E17A843F000080BFF8B52DED0C8B88B0AE
:102F30000600F0EE409AB0EE60AAB0EE418AF0EEE4
:102F4000618AB0EE429ADFF8547697ED000ADFED21
:102F5000CA0AC0EE20AA9FEDC9BA2AEE290AF0EEED
:102F6000080A80EE200A78EE40BA2AEE290AF0EE2E
:102F7000080A80EE200AF0EE000AB0EE48CA00EE21
:102F800020CA0024042C0ADAB7EE000A242000FB31
:102F900004F03044001D02F0DCF8641CF2E7B7EEE8
:102FA00000DAF0EE4DCA3078002840F0AB80022203
:102FB0000021B0EE000AC9EE000AB0EE000A88EE69
:102FC000800A3000FFF7DCFD02220121B0EE000A8A
:102FD000C9EE000AB0EE000A88EE800A3000FFF762
:102FE000CFFD02220221B0EE000AC9EE000AB0EEC7
:102FF000000A88EE800A3000FFF7C2FD022203219A
:10300000B0EE000AC9EE000AB0EE000A88EE800AAF
:103010003000FFF7B5FD0024042C4ADA684600EBC7
:10302000840204A800EB8401B0EE6A0A242000FBAD
:1030300004F03044001D02F08FF8022C1BDADFF898
:10304000340500EBC401091D00EBC4006A4602EB25
:10305000840292ED000A7BEEC00A04AA02EB84020D
:1030600092ED000A01F0C0FD012820D09FEDC20AB8
:10307000FFF71CFD7AE2DFF8FC0400EBC401091D38
:1030800000EBC4006A4602EB840292ED000A7CEE7B
:10309000400A04AA02EB840292ED000A01F0A4FDAA
:1030A000012804D09FEDB40AFFF700FD5EE2641C26
:1030B000B2E70023F1EE040A9FEDC70ADFF8E0242F
:1030C000DFF8E014DFF8AC04FDF770F897ED000AC4
:1030D000DFED690AB4EE600AF1EE10FAC0F2468242
:1030E000D6F89C00012840F0418201203070002079
:1030F000C6F89C0000203860DFF8AC04DFF8AC14A0
:10310000016033E23078012840F07E81F5EE40AA7C
:10311000F1EE10FA1BDBF4EE4DAAF1EE10FA16D523
:1031200000220021F0EE490AB0EE680A3000FFF7F5
:1031300027FD00220221F0EE490AB0EE680A3000B5
:10314000FFF71EFD8AEE8D0AB0EE40BA3AE0F4EECB
:103150004DAAF1EE10FA35DB9FED880AF4EE40AA95
:10316000F1EE10FA2ED501220021F0EE490AB0EE60
:10317000680A3000FFF704FD01220221F0EE490A3F
:10318000B0EE680A3000FFF7FBFC3AEECD0A10EE15
:10319000100A01F085FE04000D001DEE100A01F07A
:1031A0007FFE02000B0000205FF0804102F0E2F998
:1031B00002000B002000290001F096FE00F030FB19
:1031C0000BEE100A6A4604A9B0EE4B0A301D01F05E
:1031D000C3FF02AA06A9B0EE4B0A16F14C0001F09B
:1031E000BBFFF5EE40AAF1EE10FA49DB1DEE100A26
:1031F00001F056FE02000B0000205FF0804102F05B
:10320000B9F902000B0014001D001AEE900A01F03B
:1032100047FE22002B0002F01FFA31D200220121CA
:10322000F0EE490AB0EE680A3000FFF7A9FC002270
:103230000321F0EE490AB0EE680A3000FFF7A0FC67
:103240001AEE900A01F02CFE04000D001DEE100A8B
:1032500001F026FE02000B0000205FF0804102F02A
:1032600089F902000B002000290001F03DFE00F06A
:10327000D7FA0BEE100A4FE000007A44000000007D
:103280001DEE100A01F00CFE02000B0000205FF0A2
:10329000804102F06FF902000B0014001D001AEECD
:1032A000900A01F0FDFD22002B0002F0EDF933D869
:1032B0009FED320AF4EE40AAF1EE10FA2CD501226D
:1032C0000121F0EE490AB0EE680A3000FFF758FC21
:1032D00001220321F0EE490AB0EE680A3000FFF740
:1032E0004FFC3AEE8D0A10EE100A01F0D9FD0022D3
:1032F0005FF0404302F080F804000D001DEE100A5C
:1033000001F0CEFD02000B002000290001F0ECFDD1
:1033100000F086FA0BEE100A01AA05A9B0EE4B0ADE
:1033200016F1280001F018FF03AA07A9B0EE4B0A16
:1033300016F1700001F010FF0024042C3DDA022C7D
:103340001EDA8C4800EBC401091D00EBC4006A467C
:1033500002EB840292ED000A7BEEC00A04AA02EBA3
:10336000840292ED000A01F03FFC012823D09FED7A
:10337000020AFFF79BFBF9E0ABAAAA3E010000405E
:103380007C4800EBC401091D00EBC4006A4602EB57
:10339000840292ED000A7CEE400A04AA02EB840249
:1033A00092ED000A01F020FC012804D09FED720A82
:1033B000FFF77CFBDAE0641CBFE70023F1EE040AB0
:1033C0009FED050A764A77496A48FCF7EFFE97EDCC
:1033D000000ADFED6A0A01E00000C842B4EE600AAC
:1033E000F1EE10FAC0F2C280D6F89C00012840F03D
:1033F000BD80022030700020C6F89C00002038609C
:1034000069486A490160B1E03078022840F0A28042
:1034100002220021B0EE000AC9EE000AB0EE000A56
:1034200088EE800A3000FFF7ABFB02220121B0EEEC
:10343000000AC9EE000AB0EE000A88EE800A3000E9
:10344000FFF79EFB02220221B0EE000AC9EE000A3D
:10345000B0EE000A88EE800A3000FFF791FB0222EE
:103460000321B0EE000AC9EE000AB0EE000A88EEB1
:10347000800A3000FFF784FB0024042C48DA6846F9
:1034800000EB840204A800EB8401B0EE6A0A242059
:1034900000FB04F03044001D01F05EFE022C1ADA3D
:1034A000344800EBC401091D00EBC4006A4602EB7E
:1034B000840292ED000A7BEEC00A04AA02EB8402A9
:1034C00092ED000A01F090FB01281FD09FED2A0A1F
:1034D000FFF7ECFA4AE0274800EBC401091D00EBB6
:1034E000C4006A4602EB840292ED000A7CEE400AB8
:1034F00004AA02EB840292ED000A01F075FB012898
:1035000004D09FED1D0AFFF7D1FA2FE0641CB4E749
:103510000023F1EE040A9FED1A0A214A21491548B9
:10352000FCF744FE97ED000ADFED160AB4EE600AE0
:10353000F1EE10FA1ADBD6F89C00012816D1032010
:1035400030700020C6F89C000020386016481749EB
:1035500001600BE03078032807D10020C6F89800FE
:103560009FED050AFFF7A2FA00E0FFE708B0BDEC07
:103570000C8BF1BD540B0020ABAAAA3E0000FA440C
:103580000000C84200007A44BC030020FCA9F1D22C
:103590004D6250BF4D62503F94A30008F00B0020D5
:1035A000940B0020740B0020B8030020000080BFA3
:1035B000014648B1B0FA80F18840C91CC1F5846168
:1035C000090501EBD02140057047F0B402461068B0
:1035D00095681318506803EB5004C0071DD54D447F
:1035E0001BE013F8017B05F8017B491EF9D1A0B15E
:1035F000B60813F8011B06F00306032E08BF13F8E4
:10360000016B01EB06214942801C294405D011F8C9
:10361000016B05F8016B401EF9D1A3420ED013F8DF
:10362000016B16F0030104BF13F8011BC91C30091C
:103630000F28DAD113F8010B0F30D6E7F0BC02F1F6
:103640000C007047B0B581EA030C0CF0004C40F25E
:10365000FF7515EA11541DBF15EA1357AC42AF426E
:1036600039E0E41923EA455343F48013C90241F0D9
:10367000004141EA505EC7021100A7FB0202002888
:103680004FF00000EEFB01204FF00001E3FB0721AB
:1036900018BF42F00102401800214941E3FB0E012E
:1036A000A4F580640F0302D252004041494154F115
:1036B00001046CDD470872F1004250F1000051EB4B
:1036C0000451A1F580115CBF41EA0C01B0BD4CEA88
:1036D00005510020B0BD05EA1357AC4214BFAF42FC
:1036E00041E050EA410E1CBF52EA430E02E061463F
:1036F0000020B0BD24423C441BD15FEA070EF6D047
:10370000090302BF01460020AEF1140EB1FA81F7A1
:10371000AEEB070401FA07FE0C37C7F1200100FAEF
:1037200007F7C8404EEA000E23EA455343F48013DE
:10373000A2E733F00043B3FA83F704BFB2FA82FE84
:1037400077440B3FE41BB7F1200E2FBF02FA0EF3B4
:10375000BB40C7F1200E22FA0EFE38BF43EA0E032B
:10376000BA40641C82E750EA410E14BF52EA430E8D
:103770006FF000014FF4001717EB430F8ABF194693
:1037800017EB410FB5E74CEA05510020B0BDD4F16D
:103790000104B4F120070FDAC4F12007520828BF52
:1037A00042F0010210FA07F501FA07F7E1BF2A43D8
:1037B000E0403843E1400FE0352C98DCC7F12004AD
:1037C00052EA400220FA07F218BF42F0010231FA31
:1037D00007F0A1400A43002172F1004250F10000BD
:1037E00051EB0C01B0BD30B4002513E050F8042BB0
:1037F000D30744BFA9F101039A18091F042942F80D
:10380000045BFAD213468C0744BF15809B1CC90782
:1038100048BF1D7050F8041B0029E7D130BC704729
:1038200001F000428B1AA3F16051B1F5801F0ADB51
:10383000B1F17F6F1FD242EAC102C10071F10041B4
:1038400042EB507070470B15C3F10903212B10D2C6
:10385000890241EA905180020128494141F000412A
:1038600021FA03F0C3F12003994071F10041504166
:103870007047100070476FF0000013EB103F5CBF03
:10388000000E42EAC050704710B50400002C01D170
:10389000012035E0A0690028FFD194F841000028FC
:1038A00005D1002084F84000200001F0B7FF24205B
:1038B00084F841002068C06830F400502168C86076
:1038C000200000F06BFB2068006930F49040216814
:1038D00008612068406930F02A002168486120684A
:1038E000C06850F400502168C86000206064202047
:1038F00084F84100202084F842000020606300200A
:1039000010BD2DE9FC4706000D0017009846002465
:1039100096F84100202857D1002D03D0380080B2FE
:10392000002801D1012050E000207064212086F899
:10393000410002F069F88146B784F784B068B0F5B9
:10394000805F05D13069002802D10024AA4602E038
:103950002C005FF0000AF08C002821D0CDF8008008
:103960004B4600228021300000F0B6F9002804D038
:10397000202086F84100032027E0002C08D1BAF867
:103980000000C005C00D316848601AF1020A03E06A
:10399000207831684860641CF08C401EF084DAE7BF
:1039A000CDF800804B4600224021300000F094F911
:1039B000002804D0202086F84100032005E02020C4
:1039C00086F84100002000E00220BDE8F68770B5CF
:1039D00005000C00160095F84200202810D1002C9C
:1039E00003D0300080B2002801D1012009E000207E
:1039F0002863320092B22100280000F0AFF900E005
:103A0000022070BD2DE9FC47060030680768306869
:103A1000D0F80C803068D0F814900020002517F002
:103A20000F04002C08D1B80606D55FEA886003D5DC
:103A3000300000F038FA4DE1002C00F080805FEAA1
:103A4000C97002D418F4907F79D017F00100C0B289
:103A5000002806D05FEAC85003D5706C50F0010012
:103A60007064780708D519F00100C0B2002803D0AF
:103A7000706C50F002007064B80708D519F00100AE
:103A8000C0B2002803D0706C50F004007064380796
:103A90000BD55FEA886004D419F00100C0B2002899
:103AA00003D0706C50F008007064706C002845D032
:103AB000B80605D55FEA886002D5300000F0F3F95A
:103AC00030684069800910F001000500706C000743
:103AD00001D4002D2DD0300000F062F9306840692B
:103AE000400622D53068143050E8000F30F0400016
:103AF0000100306810F1140242E800100028F1D1F2
:103B0000F06B00280DD00FF20130F16B0865F06BFF
:103B100001F0CEFF002811D0F06BF16B096D8847E2
:103B20000CE0300001F0D8FF08E0300001F0D4FFD5
:103B300004E0300001F0D0FF00207064CAE0306B78
:103B4000012840F0B580F80640F1B2805FEAC86015
:103B500040F1AE800020009030680068009030682E
:103B60004068009000983068406940065DD5F06B71
:103B70000068D0F804A0504680B2002854D05046C7
:103B8000B18D80B288424FD2A6F82EA0F06BC069EA
:103B9000B0F5807F3FD030680C3050E8000F30F433
:103BA00080700100306810F10C0242E8001000281B
:103BB000F1D13068143050E8000F40084000010097
:103BC000306810F1140242E800100028F1D130688A
:103BD000143050E8000F30F040000100306810F160
:103BE000140242E800100028F1D1202086F842009B
:103BF0000020306330680C3050E8000F30F01000C7
:103C00000100306810F10C0242E800100028F1D1E8
:103C1000F06B01F0FFFE02207063B18DF08D091A88
:103C200089B2300001F059FF54E0B08DB6F82EA0F3
:103C3000B0EB0A0AF08D002839D0504680B2002837
:103C400035D030680C3050E8000F30F4907001002F
:103C5000306810F10C0242E800100028F1D1306801
:103C6000143050E8000F400840000100306810F1A7
:103C7000140242E800100028F1D1202086F842000A
:103C80000020306330680C3050E8000F30F0100036
:103C90000100306810F10C0242E800100028F1D158
:103CA00002207063514689B2300001F016FF11E026
:103CB000380606D55FEA086003D5300000F0B0F89A
:103CC00008E0780606D55FEA486003D5300000F0CA
:103CD000DAF8FFE7BDE8F3872DE9FC4105000E00A7
:103CE00017009846089C286800683040B04201D10F
:103CF000012000E000203900C9B288422BD114F124
:103D0000010FF0D001F080FEB0EB0800844201D337
:103D1000002C01D103201FE02868C0684007E2D5CD
:103D2000802EE0D0402EDED0286800680007DAD56B
:103D30000020009028680068009028684068009083
:103D40000098280000F02CF808206864002085F80E
:103D50004000012000E00020BDE8F68110B403001F
:103D600099629A85DA8500205864222083F84200FF
:103D70001869002805D01868C06850F480701C6865
:103D8000E0601868406950F001001C6860611868C4
:103D9000C06850F020001C68E060002010BC704734
:103DA00001680C3151E8001F31F490710A0001687C
:103DB00011F10C0343E800210029F1D1016814310D
:103DC00051E8001F490849000A00016811F1140375
:103DD00043E800210029F1D1016B01290DD10168CF
:103DE0000C3151E8001F31F010010A00016811F197
:103DF0000C0343E800210029F1D1202180F8421072
:103E0000002101637047000038B50400A56B002055
:103E1000E8850020E884280001F05EFE31BD000046
:103E2000010091F8410021282BD18868B0F5805F0E
:103E30000DD1086900280AD1086A02001088C0055F
:103E4000C00D0B685860086A801C086205E0086AAB
:103E5000431C0B6200780B685860C88C401EC884F5
:103E600080B200280BD10868C06830F080000B6871
:103E7000D8600868C06850F040000B68D860002027
:103E800000E00220704710B504002068C06830F0E0
:103E900040002168C860202084F84100200001F023
:103EA0001DFE002010BD7CB5040094F842002228BD
:103EB00072D1A068B0F5805F0DD1206900280AD1C9
:103EC0000025A66A20684068C005C00D3080A06A41
:103ED000801CA06217E0A56A0026A068B0F5805F8C
:103EE00005D0A068002806D12069002803D12068E9
:103EF0004068287004E02068406810F07F00287057
:103F0000A06A401CA062E08D401EE08580B20028BF
:103F100040D12068C06830F020002168C860206867
:103F2000C06830F480702168C8602068406940082B
:103F3000400021684861202084F84200002060632E
:103F4000206B012821D10020206320680C3050E82C
:103F5000000F30F010000100206810F10C0242E860
:103F600000100028F1D120680068C00608D50020A4
:103F700000902068006800902068406800900098D9
:103F8000A18D200001F0A9FD02E0200001F0CAFD92
:103F9000002002E0002000E0022076BD2DE9F84F6D
:103FA00084B005002868016931F44051E868014394
:103FB00028680161D5F808B0286950EA0B0B6869D8
:103FC00050EA0B0BE86950EA0B0B2868C168B2484D
:103FD00001405BEA01012868C1602868416931F449
:103FE0004071A8690143286841612868AB4988424B
:103FF00003D02868AA49884203D102F093F804004C
:1040000002E002F084F80400E869B0F5004F40F0E7
:10401000A1805FF0640A022600275FF019085FF0B4
:10402000000922000023A8FB020108FB031109FB81
:104030000211CDE9000168680021A6FB002306FB00
:10404000013307FB0033DDE9000102F0D3F86421FE
:10405000B0FBF1F0039022000023A8FB020108FB53
:10406000031109FB0211CDE9000168680021A6FBDC
:10407000002306FB013307FB0033DDE9000102F0FA
:10408000B9F8029022000023A8FB020108FB0311EB
:1040900009FB0211CDE9000168680021A6FB00239D
:1040A00006FB013307FB0033DDE9000102F0A2F853
:1040B0006421B0FBF1F102980AFB1101C800323013
:1040C0006421B0FBF1F0400010F4F870039910EB9C
:1040D0000110029022000023A8FB020108FB03113B
:1040E00009FB0211CDE9000168680021A6FB00234D
:1040F00006FB013307FB0033DDE9000102F07AF82B
:10410000009022000023A8FB020108FB031109FB19
:1041100002118046894668680021A6FB002306FB41
:10412000013307FB00334046494602F063F864213F
:10413000B0FBF1F100980AFB110A5FEACA003230C5
:104140006421B0FBF1F111F0070102980918286809
:1041500081609EE0042600275FF0640A5FF0190882
:104160005FF0000922000023A8FB020108FB0311F5
:1041700009FB0211CDE9000168680021A6FB0023BC
:1041800006FB013307FB0033DDE9000102F032F8E2
:104190006421B0FBF1F0039022000023A8FB020190
:1041A00008FB031109FB0211CDE900016868002139
:1041B000A6FB002306FB013307FB0033DDE900010A
:1041C00002F018F8029022000023A8FB020108FB6D
:1041D000031109FB0211CDE9000168680021A6FB6B
:1041E000002306FB013307FB0033DDE9000102F089
:1041F00001F86421B0FBF1F102980AFB11010801FA
:1042000032306421B0FBF1F010F0F000039910EBB4
:104210000110029022000023A8FB020108FB0311F9
:1042200009FB0211CDE9000168680021A6FB00230B
:1042300006FB013307FB0033DDE9000101F0DAFF83
:10424000009022000023A8FB020108FB031109FBD8
:1042500002118046894668680021A6FB002306FB00
:10426000013307FB00334046494601F0C3FF642198
:10427000B0FBF1F100980AFB110A5FEA0A10323034
:104280006421B0FBF1F111F00F01029809182868C0
:10429000816005B0BDE8F08FF369FFFF00100140B9
:1042A000001401400100DFED692AB4EE620AF1EE6C
:1042B00010FA06DA9FED663AB4EE430AF1EE10FA10
:1042C00001D500203EE0F4EE620AF1EE10FA04DAC5
:1042D000F4EE430AF1EE10FA01D5002032E0DFEDF2
:1042E0005D3AB4EE631AF1EE10FA04DAB5EE401A54
:1042F000F1EE10FA01D5002024E0DFED573AF4EE9C
:10430000631AF1EE10FA04DAF5EE401AF1EE10FA43
:1043100001D5002016E0B4EE622AF1EE10FA04DABC
:10432000B4EE432AF1EE10FA01D500200AE081ED47
:10433000030AC1ED040A81ED051AC1ED061A81EDEB
:10434000072A0120704738B52DED068B04000D00BB
:10435000B0EE408AF0EE608AB0EE419AF0EE619ADB
:10436000B0EE42AA257120782072B0EE4A2AF0EE13
:10437000691AB0EE491AF0EE680AB0EE480A200059
:10438000FFF790FF002801D1002000E00120BDECE4
:10439000068B32BD017102780272704738B52DED7F
:1043A000028B04000D009FED2A8ADFED698A102040
:1043B000B0EE681AF0EE480A94ED010A02F032F805
:1043C000A8600E20B0EE681AF0EE480A94ED020ADA
:1043D00002F028F8E8600A209FED6D1ADFED6D0A03
:1043E00094ED030A02F01EF8286108209FED6A1A76
:1043F000DFED680A94ED040A02F014F868611020F9
:10440000B0EE681AF0EE480A94ED050A02F00AF8D8
:10441000A861A8682870A868000A6870E868A87091
:10442000E868000A10F03F00296950EA8110E8703E
:1044300028698008287168696871A869A871A869E5
:10444000000AE871BDEC028B31BD00000100204282
:10445000000020C201C07F4401004C421300DBB2C7
:104460000A2B06D143880B7043889BB21B0A4B7002
:1044700007E01300DBB2092B03D103780B70002394
:104480004B7070470A784B7852EA032202808A7890
:104490008270CA78C2700A794B7952EA032282800C
:1044A0008A79CB7952EA0322C28070470A78027077
:1044B00070470A78012A02D10122028025E00A7899
:1044C000022A02D1022202801FE00A78042A02D1C5
:1044D0000422028019E00A78082A02D10822028008
:1044E00013E00A78102A02D1102202800DE00A7827
:1044F000202A02D12022028007E00A78402A02D135
:104500004022028001E000220280704738B504009A
:104510000D002079042805D1291D14F10800FFF7AA
:104520003DFF0CE020790A2802D02079092806D125
:10453000227915F13C0114F13400FFF78FFF31BDF2
:1045400001000879097850EA411080B270470000F4
:1045500000002042F8B504000D001600257084F814
:10456000466002212000FFF715FFDFF84C76201D82
:10457000FFF7E6FF38800020B87094F84610380046
:1045800001F07AFF002801D1002000E00120F2BDF7
:1045900000C07F440000000000004C4238B52DED03
:1045A000048B0400B0EE408AF0EE608AB0EE419ACF
:1045B0009FEDAE2AF0EE491AB0EE681ADFEDAB0AB5
:1045C000B0EE480A04212000FFF7BDFE002801D10B
:1045D000002015E0DFF8E055201DFFF7B1FF28802F
:1045E0000820A87029002000FFF790FF94F84610DB
:1045F000280001F041FF002801D1002000E0012047
:10460000BDEC048B32BD000038B52DED028B0400EB
:10461000B0EE408AF0EE608A9FED942AF0EE681AC0
:104620009FED921AF0EE480A9FED900A04212000B7
:10463000FFF789FE002801D1002015E0DFF878554A
:10464000201DFFF77DFF28800820A870290020008A
:10465000FFF75CFF94F84610280001F00DFF0028DA
:1046600001D1002000E00120BDEC028B32BD000032
:1046700038B52DED028B0400B0EE408AB0EE482A2A
:10468000DFED7A1A9FED791ADFED780A9FED770A50
:1046900004212000FFF757FE002801D1002015E07B
:1046A000DFF81455201DFFF74BFF28800820A87065
:1046B00029002000FFF72AFF94F84610280001F097
:1046C000DBFE002801D1002000E00120BDEC028BC0
:1046D00032BD000038B52DED028B0400B0EE408AEB
:1046E0009FED622AF0EE481A9FED601ADFED5F0A37
:1046F0009FED5E0A04212000FFF725FE002801D16E
:10470000002015E0DFF8B054201DFFF719FF2880C6
:104710000820A87029002000FFF7F8FE94F8461042
:10472000280001F0A9FE002801D1002000E00120AE
:10473000BDEC028B32BD000038B504009FED4B2A62
:10474000DFED4A1A9FED491ADFED480A9FED470A4F
:1047500004212000FFF7F7FD002801D1002015E01B
:10476000DFF85454201DFFF7EBFE28800820A870C6
:1047700029002000FFF7CAFE94F84610280001F037
:104780007BFE002801D1002000E0012032BD0000A6
:1047900038B52DED048B0400B0EE408AF0EE608A4F
:1047A000B0EE419AF0EE619AB0EE682AF0EE691A26
:1047B000B0EE491ADFED2D0AB0EE480A04212000C0
:1047C000FFF7C1FD002801D1002015E0DFF8E85314
:1047D000201DFFF7B5FE28800820A87029002000C2
:1047E000FFF794FE94F84610280001F045FE0028DB
:1047F00001D1002000E00120BDEC048B32BD00009F
:1048000038B52DED048B0400B0EE408AF0EE608ADE
:10481000B0EE419AB0EE682AF0EE491A9FED131AF5
:10482000F0EE480A9FED110A04212000FFF78BFDEE
:10483000002801D1002015E0DFF87C53201DFFF790
:104840007FFE28800820A87029002000FFF75EFE68
:1048500094F84610280001F00FFE002801D1002036
:1048600000E00120BDEC048B32BD00000000000020
:1048700038B52DED068B0400B0EE408AF0EE608A6C
:10488000B0EE419AF0EE619AB0EE42AAB0EE492A3B
:10489000F0EE4A1AB0EE691AF0EE680AB0EE480A75
:1048A00004212000FFF74FFD002801D1002015E072
:1048B000DFF80453201DFFF743FE28800820A8706E
:1048C00029002000FFF722FE94F84610280001F08E
:1048D000D3FD002801D1002000E00120BDEC068BB3
:1048E00032BD000038B52DED068B0400B0EE408AD5
:1048F000F0EE608AB0EE419AF0EE619AB0EE42AA14
:104900000D00B0EE492AF0EE4A1A9FED851AF0EE3E
:10491000680A9FED830A04212000FFF714FD002898
:1049200001D1002078E084F845502800C0B200286A
:104930000BD0022823D016D3042834D029D306283C
:1049400049D038D3072854D065E0B0EE4A1AF0EECB
:10495000690AB0EE480A2000FFF720FE002801D1C6
:10496000002059E057E0F0EE4A0AB0EE680A200055
:10497000FFF74AFE002801D100204DE04BE0B0EEE9
:10498000490A2000FFF774FE002801D1002043E00F
:1049900041E0B0EE4A0A2000FFF79CFE002801D15A
:1049A000002039E037E02000FFF7C6FE002801D1E3
:1049B000002031E02FE0F0EE4A1AB0EE691AF0EE76
:1049C000490AB0EE480A2000FFF7E2FE002801D1B4
:1049D000002021E01FE0B0EE4A1AF0EE490AB0EEE6
:1049E000680A2000FFF70CFF002801D1002013E027
:1049F00011E0B0EE4A2AF0EE691AB0EE491AF0EE74
:104A0000680AB0EE480A2000FFF732FF002801D103
:104A1000002001E0FFE70120BDEC068B32BD000065
:104A20002DE9F84F2DED028B84B004000D0000201D
:104A300002900020019000200090002600200390AA
:104A40002F78687857EA0027A878000410F47020BF
:104A5000074395F802805FFA88F85FEA18185FFA52
:104A600088F8E87858EA00182879000310F47F40A5
:104A700050EA080895F80590A87959EA002995F8B0
:104A800007A01AF0010A95F807B05FFA8BFB5FEAFE
:104A90005B0B5FFA8BFB9FED458ADFED458A1421A6
:104AA000F0EE680AB0EE480A380001F0D0FC84ED60
:104AB000000A1421F0EE680AB0EE480A404601F000
:104AC000C6FC84ED010A1021F0EE680AB0EE480A37
:104AD000484601F0BCFC84ED020A84F80CA0207B5F
:104AE00000280AD10721DFED330ABBEE040A58463D
:104AF00001F0ADFC84ED040A0CE0207B012809D113
:104B00000721DFED2C0ABBEE040A584601F09FFC9A
:104B100084ED040A04B0BDEC028BBDE8F18F000007
:104B20000000000070B504000D0016003000C0B297
:104B3000042806D115F1510114F12000FFF770FF90
:104B40001BE03000C0B2182806D115F1510114F154
:104B50003A00FFF797FC10E03000C0B2172806D1EA
:104B600015F1510114F14200FFF7A3FC05E015F126
:104B7000510114F14400FFF799FC70BDF8B5040031
:104B80000E4805682E00F6B2760915F01F00B0F148
:104B900010073200D2B208493B00DBB24820434341
:104BA00004EB03004838FFF7BDFFF1BD000020C251
:104BB000000020420000484304090020B40B0020FC
:104BC00070B5040000F020FF0500260016F1010F6B
:104BD00002D004480078361800F016FF401BB0429F
:104BE000FAD370BDFD0300202DE9F8432DED108BA5
:104BF00082B0B0EE40DAF0EE60DA06000F009FED12
:104C00009F9ADFED9F9A9FED9FAA6DEE0DAA4DEE44
:104C1000ADAA3AEE290A7AEE290A20EE20BAF0EE81
:104C200000BAB0EE4B0A09EE090A30EE6A0A69EEE4
:104C30002B0A39EE8A1A60EE810A80EE20CAB0EEA5
:104C40004C0A10EE101A490008000016401C0028FB
:104C500001D0002100E00902002901D0002008E174
:104C600069EE09CA49EEA9CA29EE2B0A20EE290AE3
:104C700040EE4CCA1AEE900A00F012F941EC100B0B
:104C800001F06CFCB0EE408AF0EE608A1DEE100A76
:104C900000F006F953EC182B00F026F941EC100B4C
:104CA00001F0E1FC51EC100BFEF7BAFD00901CEE98
:104CB000900A00F0F5F841EC100B01F04FFCB0EE5B
:104CC000408AF0EE608A3AEEAC0A0AEE4A0A10EE2A
:104CD000100A00F0E5F88046894653EC182B0020B6
:104CE0005FF08041FEF7AEFC04000D001AEE900A62
:104CF00000F0D6F841EC100B01F030FC51EC100B39
:104D000022002B00FEF79EFC02000B0040464946A5
:104D100000F0EAF8FEF784FD0EEE100AB0EE4E0A3F
:104D200010EE101A490008000016401C002801D09F
:104D3000002100E00902002901D0002099E01EEEC8
:104D4000100A00F0ADF841EC100B01F08CFC51ECB6
:104D5000100BFEF765FD0FEE900A9DED000A70EE58
:104D60002FEA1CEE900A00F09BF841EC100B01F0CA
:104D7000F5FBB0EE408AF0EE608AB0EE6C0A09EE08
:104D8000090A09EEE90A10EE100A00F089F8040099
:104D90000D0029EE2B0A10EE100A00F081F853ECFA
:104DA000182BFEF74FFC02000B002000290000F03A
:104DB0009BF841EC100B01F056FC51EC100BFEF788
:104DC0002FFD08EE100AB0EE480A10EE101A490046
:104DD00008000016401C002801D0002100E0090254
:104DE000002901D0002044E078EE6E8A1EEE900A81
:104DF00000F056F802000B002448254900F0BAFBE9
:104E000004000D0018EE100A00F04AF802000B0032
:104E10002000290000F0AEFBFEF702FD0FEE100AA5
:104E2000DFED19BA28EEAB0A10EE100A00F038F8E0
:104E300041EC100B01F01EFC51EC100B0022154B45
:104E400000F052F8FEF7ECFC30602FEE2B0A10EE6B
:104E5000100A00F025F841EC100B01F00BFC51ECAE
:104E6000100B00220B4B00F03FF8FEF7D9FC386026
:104E7000012002B0BDEC108BBDE8F2838FC2F53D7E
:104E80008FC2753ECDCCCC3C00007A446E861BF0C0
:104E9000F921094000408F40002201F01DBC0000B4
:104EA000C0F3C75181B1FF2906D0C110400721F0DE
:104EB000E04101F16051704741020CBF40F4E00154
:104EC0006FF000410020704700F0004100020AD05E
:104ED000B0FA80FC00FA0CF001F16051A1EB0C512A
:104EE00001EBD02140057047F0B540F2FF7581EA33
:104EF000030C0CF0004C15EA11541DBF15EA1357B2
:104F0000AC42AF42E5E0BC41C1F31301C3F313036C
:104F1000801A994143F4801304D2641E4000494131
:104F200080185941C90241EA5051B1FBF3F603FB25
:104F30001611A2FB0675D7EBC020A94102D2761E3E
:104F400080185941C90241EA5051B1FBF3FE03FBFD
:104F50001E11A2FB0E75D7EBC020A94103D2AEF102
:104F6000010E80185941890241EA9051760546EABE
:104F70008E2EB1FBF3F603FB1611A2FB0675D7EBE1
:104F80008020A94102D2761E80185941C90241EA07
:104F900050514EEA060EB1FBF3F603FB1611A2FBCD
:104FA0000675D7EBC020A94102D2761E8018594160
:104FB000C90241EA5051B1FBF3F703FB1711A2FB01
:104FC0000735D3EBC020A94167F100070CBF0042B1
:104FD00047F0010766F3D5274FEA1E31B80814F5EC
:104FE000806412DDBD0775F1004250EB0E5051EBAD
:104FF000045111F5801F5CBF41EA0C01F0BD4CF07B
:105000007F6141F0E0410020F0BDBD076D0840EA3E
:105010000E5041F48011D4F10104B4F120060ADAF3
:10502000C4F120060200E04001FA06F3E140184313
:10503000B24015430EE0342C13DCC6F1200445EADF
:1050400040056D0820FA06F2154321FA06F0A1404A
:105050000D43002175F1004250F1000051EB0C01AD
:10506000F0BD00205FEA0C01F0BDCFB992185B41A2
:10507000B3FA83F704BFB2FA82F6BF190B3FB7F158
:1050800020062FBF02FA06F3BB40C7F1200622FA22
:1050900006F638BF3343BA401CB1E419641E33E747
:1050A0007F4231F00041B1FA81F404BFB0FA80F6DA
:1050B000A4190B3CB4F120062FBF00FA06F1A14061
:1050C000C4F1200620FA06F638BF3143A0403C1B4D
:1050D0001AE7AC421ABF05EA1357AF4212E050EA92
:1050E00041061CBF52EA4306BFE750EA410730467B
:1050F00061461CBF41EA0551F0BD52EA430C08BFAE
:10510000C143F0BD00204FF4001616EB410F98BFCD
:1051100016EB430F08BF16EB410F24BFC14305E058
:1051200016EB430F0CBF61464CEA0551F0BD000081
:1051300030B40023042B0ADA51F8234040F823400E
:1051400000EB830452F8235025615B1CF2E730BC6E
:10515000704780ED080A70472DE9F0472DED0C8B64
:105160000600B0EE408A8A46170096ED080AB4EEB3
:10517000480AF1EE10FAC0F2378196ED080A88EE7F
:10518000008AB7EE000A30EE480A10EE100AFFF768
:1051900087FE41EC1A0BB7EE000A30EE480A10EE1B
:1051A000100AFFF77DFE41EC1D0B18EE100AFFF709
:1051B00077FE41EC1B0B18EE100AFFF771FE41EC75
:1051C0001C0BF0EE088A9FED8A9B53EC1A2B51ECD6
:1051D0001A0BFEF737FA53EC1A2BFEF733FA0400DA
:1051E0000D003068FFF75CFE22002B00FEF72AFA64
:1051F0008046894653EC1D2B51EC1D0BFEF722FA1D
:1052000053EC192BFEF71EFA04000D0018EE100ADD
:10521000FFF746FE22002B00FEF714FA04000D00F3
:105220007068FFF73DFE22002B00FEF70BFA4246A6
:105230004B4600F0E1F880468946B7EE000A30EEB2
:10524000480A20EE280A10EE100AFFF729FE040093
:105250000D0053EC1B2B51EC1B0BFEF7F3F9220056
:105260002B00FEF7EFF904000D00B068FFF718FE01
:1052700022002B00FEF7E6F942464B4600F0BCF850
:105280008046894653EC1C2B51EC1C0BFEF7DAF9D7
:1052900053EC1C2BFEF7D6F904000D00F068FFF765
:1052A000FFFD22002B00FEF7CDF942464B4600F0F1
:1052B000A3F8FEF7B5FACAF80000B7EE000A30EE20
:1052C000480A10EE100AFFF7EBFD41EC1A0BB7EE9F
:1052D000000A30EE480A10EE100AFFF7E1FD41EC3B
:1052E0001D0B18EE100AFFF7DBFD41EC1B0B18EE4F
:1052F000100AFFF7D5FD41EC1C0B53EC1A2B51ECB7
:105300001A0BFEF79FF953EC1A2BFEF79BF90400DA
:105310000D003069FFF7C4FD22002B00FEF792F963
:105320008046894653EC1D2B51EC1D0BFEF78AF984
:1053300053EC192BFEF786F904000D0018EE100A45
:10534000FFF7AEFD22002B00FEF77CF904000D00F4
:105350007069FFF7A5FD22002B00FEF773F94246A6
:105360004B4600F049F880468946B7EE000A30EE19
:10537000480A20EE280A10EE100AFFF791FD0400FB
:105380000D0053EC1B2B51EC1B0BFEF75BF92200BD
:105390002B00FEF757F904000D00B069FFF780FD00
:1053A00022002B00FEF74EF942464B4600F024F84F
:1053B0008046894653EC1C2B51EC1C0BFEF742F93E
:1053C00053EC1C2BFEF73EF904000D00F069FFF7CB
:1053D00067FD22002B00FEF735F942464B4600F0F0
:1053E0000BF8FEF71DFA3860BDEC0C8BBDE8F087BA
:1053F000000000000000084070B44FF0004591EA42
:10540000030F40F1BF806B40841A71EB030604D296
:105410006E40001BB141121973414FF4001C1CEB8C
:10542000410F34BF7CEB430683E00C0DA4EB135615
:10543000362E00F37C80012E45EAC32341DC43EA8B
:10544000525312BFD20292025B08240545EAC121E1
:1054500041EA5051D2EBC020994125D407D1B0FA8E
:1054600080F610FA06F162D00020203608E0B1FA8A
:1054700081F6B140C6F1200220FA02F21143B04099
:105480004FEAF474B4EB465434F001064FEA740466
:105490000AD8D6F50016760D04F00044F04061FA03
:1054A00006F25040F1404840C00A40EA415021F025
:1054B000004128BF5FEA500550F1000044EBD121C4
:1054C00035E0DB0A45EAC121C90AB6F120050EDD47
:1054D00042EA0242120CC5F1200603FA06F6EB403E
:1054E00042EA06056D42984161F100010DE062FA61
:1054F00006F5F240554063FA06FC82EA0C02F340DE
:105500005A406D42904161EB030111F4801F05D1B7
:10551000641E620502D06D004041494121F48011B2
:10552000430875F1004350F1000041EB045170BC99
:1055300070471CEB410F15D223F0004352EA43069B
:105540000BD04FEA4C0CBCEB410F04D80C0D661E7F
:10555000342EB7DDEBE7801A994150EA410608BFC7
:105560000021E4E708BF1CEB430F28BF6FF00001E8
:10557000DDE7000070B44FF0004591EA030F7FF5BE
:1055800043AF6B40841A71EB030603D2001BB14199
:10559000121973414FF4001C1CEB410F34BF7CEB1C
:1055A000430442E00C0DA4EB1356352E4FDC45EAC4
:1055B000C323DB0A45EAC121C912B6F120050DDD7E
:1055C00063FA05F6EB4086EA0305124218BF45F080
:1055D0000105C01851F100010CD213E062FA06F582
:1055E000F2405540F3415A40B340F3405A408018CE
:1055F000594107D349085FEA30005FEA350528BF03
:1056000045F0010501F58011420875F1004250F1A5
:10561000000041EB04514E0016F5001F70BC38BF6E
:1056200070470020090D090570471CEB410F10D28F
:1056300052EA43060BD0BCEB410F05D80C0DAB432F
:10564000661E342EB6DD02E0AB438018594170BCB3
:10565000704770BC704700004FF4001C1CEB410FFA
:1056600094BF1CEB430F09E041EA030C50EA4C0CD9
:1056700052EA0C0C03D2994208BF9042704714BF03
:105680008B428242704700004FF4001C1CEB410F1C
:1056900094BF1CEB430F09E041EA030C50EA4C0CA9
:1056A00052EA0C0C03D28B4208BF8242704714BFEF
:1056B0009942904270470000103A07D330B4B1E8E5
:1056C0003810103AA0E83810F9D230BC530724BF84
:1056D000B1E80810A0E8081044BF51F8043B40F8B6
:1056E000043BD20724BF31F8022B20F8022B44BF21
:1056F0000B7803707047121F17D35B0009D151F864
:10570000043B20F8023B1B0C121F20F8023BF6D290
:105710000BE051F8043B00F8013B1B0A20F8023B68
:105720001B0C121F00F8013BF3D238BF121D521E92
:1057300024BF11F8013B00F8013BF8D87047000086
:1057400080B5A148A14901605FF4E13141600021C9
:1057500081600021C160002101610C2141610021B3
:1057600081610021C161FEF78FF8002801D001F0AE
:1057700077F901BD10B5964C964820605FF4E13092
:1057800060600020A0600020E060002020610C200C
:1057900060610020A0610020E0612000FEF774F845
:1057A000002801D001F05CF903228B492000FEF7AC
:1057B0000EF910BD80B58948894901605FF4E13177
:1057C0004160002181600021C160002101610C2144
:1057D0004161002181610021C161FEF755F8002877
:1057E00001D001F03DF901BD80B57E487E490160E0
:1057F0005FF4E1314160002181600021C16000213E
:1058000001610C214161002181610021C161FEF72C
:105810003BF8002801D001F023F901BD10B586B096
:10582000040068461421FFF737FB20686749884267
:105830002ED1002005906D48016851F08041016033
:10584000006810F080400590059800200590684899
:10585000016851F020010160006810F020000590FF
:105860000598C020009002200190002002900320A3
:1058700003900820049069465E4801F0F3F8002286
:105880000021522001F0CCFA522001F0DEFA99E01A
:105890002068504988422ED1002005905348016865
:1058A00051F000410160006810F00040059005983B
:1058B000002005904E48016851F010010160006819
:1058C00010F0100005900598032000900220019030
:1058D0000020029003200390082004906946464867
:1058E00001F0C0F800220021532001F099FA532062
:1058F00001F0ABFA66E02068394988422FD10020D8
:1059000005903A48016851F480210160006810F464
:10591000802005900598002005903548016851F0D9
:1059200004010160006810F00400059005984FF430
:10593000406000900220019000200290032003901C
:105940000720049069462D4801F08CF800220021C0
:10595000272001F065FA272001F077FA32E020686D
:10596000214988422ED1002005902548016851F038
:1059700020010160006810F02000059005980020CB
:1059800005901B48016851F040010160006810F06B
:105990004000059005984FF484400090022001904B
:1059A00000200290032003900820049069461548C7
:1059B00001F058F800220021472001F031FA472079
:1059C00001F043FA06B010BDA8090020007800409D
:1059D000F0090020007C0040FC0B0020380A002069
:1059E00000480040800A0020001401404038024076
:1059F000303802400014024000100240000802400B
:105A0000443802400018024001480068704700BF57
:105A1000F80B002070B50400A56DFFF7F5FF060038
:105A200094F83500022806D080206065002084F8B4
:105A3000340001203BE02068006830F01600216847
:105A400008602068406930F0800021684861206C5F
:105A5000002802D1A06C002805D02068006830F032
:105A6000080021680860206800684008400021683C
:105A7000086020680068C0070ED5FFF7C5FF801BCF
:105A80000628F6D320206065032084F83500002026
:105A900084F8340003200AE03F21E06D8140A960D2
:105AA000012084F83500002084F83400002070BD07
:105AB000010091F83500022803D0802048650120BC
:105AC00009E0052081F835000868006840084000BA
:105AD0000A681060002070477047704770470000E8
