:020000040800F2
:10000000500B0020956A0008E5670008E7670008C4
:10001000E9670008EB670008ED67000800000000D2
:10002000000000000000000000000000EF67000872
:10003000F167000800000000F3670008F56700089A
:10004000C96A0008CD6A0008D16A0008D56A0008AC
:10005000D96A0008DD6A0008E16A0008FD67000847
:10006000E56A0008E96A0008ED6A0008F16A00081C
:10007000F56A0008F96A0008FD6A0008016B0008CB
:10008000056B0008096B00080D6B0008116B000878
:100090000768000811680008156B0008196B000854
:1000A0001D6B0008216B0008256B0008296B0008F8
:1000B0002D6B0008316B0008356B0008396B0008A8
:1000C0003D6B0008416B0008456B0008496B000858
:1000D0004D6B0008516B0008556B0008596B000808
:1000E0005D6B0008616B0008656B0008696B0008B8
:1000F0006D6B0008716B0008756B0008796B000868
:100100007D6B00081B680008816B0008856B000888
:10011000896B00088D6B0008916B0008956B0008D7
:10012000996B00089D6B0008A16B0008A56B000887
:10013000A96B0008AD6B0008B16B0008B56B000837
:10014000256800082F680008B96B0008BD6B00081F
:10015000C16B0008C56B0008C96B0008396800084E
:10016000CD6B0008D16B0008D56B0008D96B000877
:10017000DD6B0008E16B0008E56B00080000000083
:10018000E96B0008ED6B0008436800084D68000843
:10019000F16B0008F56B0008F96B0008FD6B0008B7
:1001A0000000000000000000016C000810B5040011
:1001B000002C01D101201AE094F83400002804D169
:1001C00000202077200000F037FF032084F834005F
:1001D000200000F00DF8002801D0012007E00020E9
:1001E000A06300202063012084F83400002010BDAB
:1001F000F0B589B004000020039000200490002096
:10020000059000200690002007907620089003A912
:1002100083B06846182200F071FF0EBC206800F021
:10022000B1FF07003800C0B2002801D001203CE037
:10023000DFF8305600202860206800F0C4FF01205D
:100240002860022001F00AFB200000F0E9FD060012
:10025000002E07D0012084F83400A06B3043A06347
:10026000012022E0200000F056FD0500002D07D0FF
:10027000012084F83400A06B2843A063012014E01F
:100280004FF40071206800F0DCFF010000290BD062
:10029000DFF8D40522689063A06B0843A0630120B7
:1002A00084F83400012000E0002009B0F0BD2DE901
:1002B000FF4F87B08146149C01F0E4FA0090DDF80E
:1002C00024A0DDF820B00898002807D1D9F838001C
:1002D00050F00060C9F8380001206DE199F8340051
:1002E000012840F062810020C9F83800D9F85C008C
:1002F0000A9911EB0A01884207D2D9F8380050F068
:100300000070C9F83800012056E1032089F8340054
:100310000020D9F80010C862D9F84400012803D0A1
:100320004FF4007000FB0AFA5FF0FF3001900A9969
:100330004FF40070414302919020039002200490FA
:10034000002005900120069001A9D9F8000000F0D6
:1003500061FF0A98022809D30220C9F830005146EB
:10036000D9F8000000F0A1FF060008E00120C9F85C
:1003700030005146D9F8000000F07DFF0600002E45
:1003800011D0DFF8E404D9F800108863D9F83800F8
:100390003043C9F83800012089F834000020C9F83A
:1003A0003000012008E1029DD9F80000406B40F2C6
:1003B0002A31084241D1D9F80000406B000421D510
:1003C000002D1FD000200700082F1BD2D9F80000F5
:1003D00000F0F0FE80468BF800801BF101006D1EDE
:1003E0004146090A0170401C6D1E4146090C01700E
:1003F000401C6D1E4146090E017010F1010B6D1E6F
:100400007F1CE1E701F03EFA0099401AA04201D2B8
:10041000002CC9D1DFF85004D9F800108863D9F84E
:10042000380050F00040C9F83800012089F8340045
:100430000020C9F830000320BEE0D9F80000406B6E
:10044000C0051FD50A9802281CD3D9F844000328F8
:1004500018D0D9F8000000F076FF0600002E11D069
:10046000DFF80404D9F800108863D9F83800304365
:10047000C9F83800012089F834000020C9F830009C
:10048000012099E0D9F80000406B000704D4D9F8A6
:100490000000406B800512D5DFF8CC03D9F80010BE
:1004A0008863D9F8380050F00800C9F838000120F6
:1004B00089F834000020C9F8300001207CE0D9F828
:1004C0000000406B800712D5DFF89C03D9F80010BC
:1004D0008863D9F8380050F00200C9F838000120CC
:1004E00089F834000020C9F83000012064E0D9F810
:1004F0000000406B800612D5DFF86C03D9F80010BD
:100500008863D9F8380050F02000C9F8380001207D
:1005100089F834000020C9F8300001204CE0D9F8F7
:100520000000406B800236D5002D34D0D9F8000091
:1005300000F040FE80468BF800801BF101006D1E2C
:100540004146090A0170401C6D1E4146090C0170AC
:10055000401C6D1E4146090E017010F1010B6D1E0D
:1005600001F090F90099401AA04201D2002CD6D196
:10057000DFF8F402D9F800108863D9F8380050F099
:100580000040C9F83800012089F834000020C9F87B
:100590003000012010E040F23A50D9F80010886392
:1005A000012089F83400002006E0D9F8380050F026
:1005B0000050C9F8380001200BB0BDE8F08F2DE9DC
:1005C000F74F88B080469946149C01F05BF9019082
:1005D000DDF828A0DDF824B00998002807D1D8F864
:1005E000380050F00060C8F83800012036E198F873
:1005F0003400012840F02B810020C8F83800D8F8DA
:100600005C0019EB0A01884207D2D8F8380050F094
:100610000070C8F83800012020E1032088F8340079
:100620000020D8F80010C862D8F84400012803D090
:100630004FF4007000FB0AFA5FF0FF3002904FF4B5
:10064000007000FB09F003909020049000200590BA
:10065000002006900120079002A9D8F8000000F0C1
:10066000D9FDB9F1020F09D32020C8F83000514656
:10067000D8F8000000F04DFE050008E01020C8F892
:1006800030005146D8F8000000F029FE0500002D8A
:1006900011D0DFF8D401D8F800108863D8F83800FA
:1006A0002843C8F83800012088F834000020C8F832
:1006B00030000120D2E0039ED8F80000406B40F2E9
:1006C0001A31084247D1D8F80000406B400428D5C1
:1006D000002E26D000200700082F22D29BF8000011
:1006E00000901BF10100761E0099027851EA022168
:1006F0000091401C761E0099027851EA0241009157
:10070000401C761E0099027851EA0261009110F1B6
:10071000010B761E6946D8F8000000F04EFD7F1CE4
:10072000DAE701F0AFF80199401AA04201D2002C9B
:10073000C2D1DFF83401D8F800108863D8F8380047
:100740002843C8F83800012088F834000020C8F891
:100750003000032082E0D8F80000406BC0051FD5B0
:10076000B9F1020F1CD3D8F84400032818D0D8F8E8
:10077000000000F0E8FD0500002D11D0DFF8E800D2
:10078000D8F800108863D8F838002843C8F8380033
:10079000012088F834000020C8F8300001205DE016
:1007A000D8F80000406B000704D4D8F80000406B74
:1007B000800512D5DFF8B000D8F800108863D8F8AB
:1007C000380050F00800C8F83800012088F83400DC
:1007D0000020C8F83000012040E0D8F80000406B4D
:1007E000800712D5DFF88000D8F800108863D8F8A9
:1007F000380050F00200C8F83800012088F83400B2
:100800000020C8F83000012028E0D8F80000406B34
:10081000C00612D5DFF85000D8F800108863D8F869
:10082000380050F01000C8F83800012088F8340073
:100830000020C8F83000012010E040F23A50D8F80B
:1008400000108863012088F83400002006E0D8F802
:10085000380050F00050C8F8380001200BB0BDE857
:10086000F08F0000A0802542FF05400070B5050014
:100870002E6B2868406B000405D5300703D528008F
:1008800000F055FBDBE02868406BC00557D54FF4FE
:100890008070296888632868C16BDFF850060140C2
:1008A0002868C1632868C06A400840002968C86297
:1008B000300722D516F0220F0BD0286800F043FD38
:1008C0000400002C05D0A86B2043A863280000F08A
:1008D000DFFF40F23A5029688863012085F8340030
:1008E0000020286316F0030F03D0280000F0DBFF80
:1008F000A5E0280000F0D2FFA1E0300640F19F8083
:10090000B0060BD5286800F01EFD0400002C05D0B1
:10091000A86B2043A863280000F0BAFF16F0030F6D
:1009200040F08D802868C06A30F008002968C862ED
:10093000012085F83400280000F0B0FF7FE028682F
:10094000406B400405D5300703D5280000F01BFBA1
:1009500075E02868406B40F23A2108426FD0286861
:10096000406B800703D5A86B50F00200A86328688D
:10097000406B000703D5A86B50F00800A8632868F7
:10098000406B800603D5A86B50F02000A863286850
:10099000406BC00603D5A86B50F01000A863286810
:1009A000406B800503D5A86B50F00800A86340F2A7
:1009B0003A70296888632868C16BDFF83405014004
:1009C0002868C163286800F0BEFCA96B0843A863CF
:1009D000300708D5012085F834000020286328005E
:1009E00000F056FF2BE0300629D516F0300F0CD062
:1009F0000FF28D20E96B0865E86B00F0A9FF002875
:100A00001DD0E86B00F03CF919E016F0030F0CD094
:100A10000FF2B920296C0865286C00F099FF0028B6
:100A20000DD0286C00F052F909E00020A8630120E5
:100A300085F8340000202863280000F02AFF70BDEC
:100A400010B40200506E800F0870506E800E10F0CF
:100A50000F004870506E000E10F003008870506E4A
:100A6000000CC870506E000A0871506E4871906E8C
:100A7000000DC880906E000C10F00F000872906E90
:100A8000C00B10F001004872906E800B10F0010056
:100A90008872906E400B10F00100C872906E000BCF
:100AA00010F00100087300204873506C00283CD1FE
:100AB000906E40F6FC7313EA8003D06E53EA907395
:100AC0000B61D06EC00E10F007000875D06E000EDE
:100AD00010F007004875D06E400D10F007008875C3
:100AE000D06E800C10F00700C875D06EC00B10F0EF
:100AF000070008760869401C50650120536D0C7E84
:100B000014F00704A41C10FA04F4634353650B7A31
:100B100013F00F0398409065506D936D5B0A584336
:100B2000D0654FF40070106625E0506C012815D197
:100B3000906E000410F47C10D36E50EA13400861EC
:100B40000B695B1C4FF4806043435365506DD06567
:100B50004FF400709065906D10660CE0DFF8940320
:100B600013689863906B50F080509063012082F876
:100B7000340001205CE0D06E800B10F0010048765C
:100B8000D06EC00910F07F00887692F86C0010F0EB
:100B90007F00C876106FC00F0877106F400F10F0FD
:100BA00003004877106F800E10F007008877106FF1
:100BB000800D10F00F00C877106F400D10F001008D
:100BC00081F82000002081F82100106F000C10F047
:100BD000010081F82200106FC00B10F0010081F8B5
:100BE0002300106F800B10F0010081F82400106FBB
:100BF000400B10F0010081F82500106F000B10F081
:100C0000010081F82600106F800A10F0030081F8BF
:100C10002700106F000A10F0030081F82800106F01
:100C2000C0F3460081F82900012081F82A00002045
:100C300010BC70470200506C0860906C4860D06C2B
:100C40008860106DC860506D0861906D4861D06D0E
:100C50008861106EC861002070471CB50400002038
:100C600000906946200000F049F90100002902D0F7
:100C7000A06B0843A0630098C0F3432016BD00009A
:100C800070B50400A56B40F23A50296888632800CB
:100C9000FFF7E3FF0600012085F8340000202863F9
:100CA000062E01D0052E05D1286800F04CFBA96B5B
:100CB0000843A863A86B002803D1280000F0E9FDD1
:100CC00002E0280000F0E4FD70BD000070B50400F3
:100CD000A56B40F23A50296888632800FFF7BDFFF2
:100CE0000600012085F8340000202863062E01D07C
:100CF000052E05D1286800F026FBA96B0843A863E0
:100D0000A86B002803D1280000F0C3FD02E02800F2
:100D100000F0BEFD70BD78B58FB004000120ADF8C5
:100D20000C00206800F054FA002802D15FF08060C7
:100D300074E0606C03281CD0206800F09CFB060067
:100D4000002E01D0300069E00021206800F05CFA3C
:100D500060670421206800F057FAA0670821206826
:100D600000F052FAE0670C21206800F04DFAC4F858
:100D70008000606C032808D003A9206800F0A9FB5C
:100D80000600002E01D0300048E0606C032820D01F
:100D9000BDF80C002065216D0904206800F082FB7D
:100DA0000600002E01D0300038E00021206800F05D
:100DB0002BFA60660421206800F026FAA06608215C
:100DC000206800F021FAE0660C21206800F01CFA8F
:100DD00020670421206800F017FA000DE06404A9E0
:100DE0002000FFF72DFE002802D05FF0805015E0B4
:100DF000226D12040023206800F0BFFA0500002DC8
:100E000001D028000AE0211D83B06846182200F0B6
:100E100075F90EBC206800F0B5F9002010B070BD67
:100E20002DE9FC410700002000905FF0000800253C
:100E3000386800F0BDFA0600002E01D0300053E003
:100E4000386800F0CCFA0400002C09D00020B86407
:100E5000386800F0ADFA0400002C03D0200043E015
:100E60000120B864B86C012809D10021386800F06D
:100E7000CEFA0400002C02D05FF0805034E04FF630
:100E8000FF700099814220D2002D1ED100213868C8
:100E900000F0BDFA0600002E01D0300024E0164913
:100EA000386800F0CEFA0400002C02D05FF08050C9
:100EB0001AE00021386800F0A7F980464046C00FCC
:100EC00005000098401C0090D9E70099814202D3A8
:100ED0005FF0807008E05FEA480002D50120786486
:100EE00001E0002078640020BDE8F681C53CFFFFEA
:100EF000C5FCFFFFFF054000000010C170B50600F3
:100F00000D00002D02D15FF000600FE0316D09048B
:100F1000306800F0F8FA0400002C01D0200005E051
:100F20000021306800F070F92860002070BD2DE9C4
:100F3000F0410500D5F82880EC6A002C21D0002073
:100F40000600082E1AD2286800F034F9070088F845
:100F5000007018F10100641E3900090A0170401C7C
:100F6000641E3900090C0170401C641E3900090E12
:100F7000017010F10108641E761CE2E7C5F82880B4
:100F8000EC62BDE8F081F8B505002F6A6C6A002CB0
:100F900024D000200600082E1ED238780090781C3D
:100FA000641E0099027851EA02210091401C641EDF
:100FB0000099027851EA02410091401C641E009998
:100FC000027851EA02610091471C641E6946286854
:100FD00000F0F3F8761CDEE72F626C62F1BD30B4EE
:100FE000002513E050F8042BD30744BFA9F10103F7
:100FF0009A18091F042942F8045BFAD213468C0799
:1010000044BF15809B1CC90748BF1D7050F8041BC6
:101010000029E7D130BC70473248334901600021D4
:101020004160002181600021C16000210161002137
:10103000416100218161704710B586B0040001A8AC
:10104000142100F099FC20682749884247D10020EC
:1010500000902648016851F400610160006810F4B6
:10106000006000900098002000902148016851F035
:1010700004010160016811F0040100910099002150
:101080000091016851F008010160006810F008004B
:10109000009000984FF488500190022002900020A8
:1010A0000390032004900C20059001A9114800F042
:1010B00067FC04200190022002900020039003208E
:1010C00004900C20059001A90B4800F059FC002267
:1010D0000021312000F030FE312000F042FE06B049
:1010E00010BD0000CC040020002C01404438024018
:1010F0003038024000080240000C0240103A07D38A
:1011000030B4B1E83810103AA0E83810F9D230BC49
:10111000530724BFB1E80810A0E8081044BF51F8F5
:10112000043B40F8043BD20724BF31F8022B20F8DF
:10113000022B44BF0B7803707047121F17D35B005C
:1011400009D151F8043B20F8023B1B0C121F20F878
:10115000023BF6D20BE051F8043B00F8013B1B0ABE
:1011600020F8023B1B0C121F00F8013BF3D238BFE2
:10117000121D521E24BF11F8013B00F8013BF8D8A4
:10118000704700000EB401000022009B0198034349
:1011900002980343039803430498034305980343C9
:1011A0001A434B68DFF8A006034013434B6000204E
:1011B00003B07047D0F88000704702000868C2F89A
:1011C0008000002070470100032008600020704765
:1011D000006810F00300704710B402000023086894
:1011E00090604C6888680443C868044308690443F5
:1011F0002343D068000B00031843D060002010BCCC
:1012000070470069C0B27047020012F1140008185C
:101210000068704710B402000023086850624868F4
:1012200090628C68C86804430869044348690443B1
:101230002343D06A30F0F7001843D062002010BC7E
:10124000704730B585B004000D0000951020019066
:1012500040200290002003904FF480600490694683
:101260002000FFF7B9FF41F288321021200000F082
:1012700064F905B030BD30B585B004000D000095AF
:101280001120019040200290002003904FF48060D4
:10129000049069462000FFF79FFF41F28832112138
:1012A000200000F04AF905B030BD30B585B004002B
:1012B0000D00009512200190402002900020039024
:1012C0004FF48060049069462000FFF785FF41F2EB
:1012D00088321221200000F030F905B030BD30B561
:1012E00085B004000D000095182001904020029068
:1012F000002003904FF48060049069462000FFF7BF
:101300006BFF41F288321821200000F016F905B079
:1013100030BD30B585B004000D0000951920019056
:1013200040200290002003904FF4806004906946B2
:101330002000FFF751FF41F288321921200000F010
:10134000FCF805B030BD18B585B004000020009051
:101350000C20019040200290002003904FF4806008
:10136000049069462000FFF737FFDFF8E0240C21E6
:10137000200000F0E2F806B010BD78B585B0060098
:1013800014001D00009407200190402002900020CE
:1013900003904FF48060049069463000FFF71CFF13
:1013A00041F288320721300000F0C7F806B070BD66
:1013B00018B585B0040000200090002001900020A6
:1013C0000290002003904FF4806004906946200052
:1013D000FFF702FF200000F01DFA06B010BD18B59F
:1013E00085B004004FF4D570009008200190402093
:1013F0000290002003904FF4806004906946200022
:10140000FFF7EAFE200000F0D7F906B010BD30B5B6
:1014100085B004000D000095372001904020029017
:10142000002003904FF48060049069462000FFF78D
:10143000D3FE41F288323721200000F07EF805B05B
:1014400030BD30B585B004000D00DFF8040428433A
:1014500000902920019040200290002003904FF43A
:101460008060049069462000FFF7B6FE200000F07F
:101470002CF905B030BD18B585B0040000200090EF
:1014800002200190C0200290002003904FF4806061
:10149000049069462000FFF79FFE200000F0EAF864
:1014A00006B010BD30B585B004000D0000950920D0
:1014B0000190C0200290002003904FF480600490BF
:1014C00069462000FFF788FE200000F0D3F805B041
:1014D00030BD30B585B004000D0000200090032021
:1014E000019040200290002003904FF4806004900F
:1014F00069462000FFF770FE2A000321200000F05B
:1015000008F905B030BD30B585B004000D00009578
:101510000D20019040200290002003904FF4806045
:10152000049069462000FFF757FE41F288320D21F2
:10153000200000F002F805B030BD2DE9F0410400B4
:101540000D001600DFF80C030068C0084FF47A7134
:10155000B0FBF1F808FB06F84046B0F1010800289E
:1015600002D15FF0004083E0606B070017F0450F89
:10157000F2D03805F0D4606B400703D50420A06397
:10158000042075E0606BC00703D50120A063012033
:101590006EE0C520A0632000FFF733FE2900C9B22A
:1015A000884201D0012063E000212000FFF72CFEDB
:1015B0000100A948014201D1002059E0002902D5CB
:1015C0005FF0007054E0480001D5402050E08800F2
:1015D00001D580204CE0C80002D54FF4807047E070
:1015E000080102D54FF4007042E0480102D54FF4E3
:1015F00080603DE0C80102D54FF4006038E0080289
:1016000002D54FF4805033E0480202D54FF4005029
:101610002EE0880202D54FF4804029E0C80202D5AE
:101620004FF4004024E0480302D55FF400301FE08F
:10163000880302D55FF480201AE0C80302D55FF466
:10164000002015E0080402D55FF4801010E0480483
:1016500002D55FF400100BE0880402D55FF480002F
:1016600006E0080702D55FF4000001E05FF4803077
:10167000BDE8F081010077480068C0084FF47A7334
:10168000B0FBF3F341F2883043431800431E0028B7
:1016900002D15FF0004017E0486B020012F0450FE6
:1016A000F3D01005F1D4486B400703D504208863BC
:1016B000042009E0486BC00703D50120886301209E
:1016C00002E0C5208863002070470100614800687F
:1016D000C0084FF47A73B0FBF3F341F28830434310
:1016E0001800431E002802D15FF0004010E0486B54
:1016F000020012F0450FF3D01005F1D4486B4007FB
:1017000003D504208863042002E0C52088630020FC
:1017100070472DE9F04104000D0016004D480068A7
:10172000C0084FF47A71B0FBF1F841F2883000FB49
:1017300008F84046B0F10108002802D15FF00040EF
:1017400038E0606B070017F0450FF2D03805F0D491
:10175000606B400703D50420A06304202AE0606B7F
:10176000C00703D50120A063012023E02000FFF77C
:1017700048FD2900C9B2884201D001201AE0C520E5
:10178000A06300212000FFF73FFD010011F4604F2E
:1017900004D10800000C308000200BE0480402D582
:1017A0004FF4005006E0080402D54FF4805001E0E9
:1017B0005FF48030BDE8F081010026480068C00871
:1017C0004FF47A73B0FBF3F341F2883043431800CF
:1017D000431E002802D15FF000401AE0486B02006F
:1017E00012F0450FF3D01005F1D4486B400703D534
:1017F0000420886304200CE0486BC00703D5012057
:101800008863012005E0486B400601D540208863CD
:101810000020704701000F480068C0084FF47A723A
:10182000B0FBF2F241F2883042431000421E002821
:1018300002D15FF0004005E0486B0006F5D5C520F9
:1018400088630020704700000081FFFF00E1F5057C
:10185000000010802800002008E0FFFD70B50400A3
:1018600000F010F80500260016F1010F02D0044820
:101870000078361800F006F8401BB042FAD370BD6D
:101880004900002001480068704700BF440700205D
:10189000704710B5040000F00BF810BD10B504003F
:1018A00000F07CFA10BD10B5040000F078FA10BD0D
:1018B0007047000070B50400A56DFFF7E3FF060058
:1018C00094F83500022806D080206065002084F856
:1018D000340001203BE02068006830F016002168E9
:1018E00008602068406930F0800021684861206C01
:1018F000002802D1A06C002805D02068006830F0D4
:1019000008002168086020680068400840002168DD
:10191000086020680068C0070ED5FFF7B3FF801B82
:101920000628F6D320206065032084F835000020C7
:1019300084F8340003200AE03F21E06D8140A96073
:10194000012084F83500002084F83400002070BDA8
:10195000010091F83500022803D08020486501205D
:1019600009E0052081F8350008680068400840005B
:101970000A68106000207047002200F011BA0000D1
:10198000F8B50023002400250026102E80F01781D2
:10199000012717FA06F213000A681A4014009C4245
:1019A00040F00B810A7912F00302012A04D00A796F
:1019B00012F00302022A1FD1D0F808C05FF0030E14
:1019C0003200D2B252001EFA02FE3CEA0E0CD1F8EE
:1019D0000CE03200D2B252001EFA02FE5EEA0C0C9B
:1019E000C0F808C04268B740BA434F68C7F3001751
:1019F000B7403A43150045600A7912F00302032A02
:101A000014D0C7685FF0030C3200D2B252001CFA47
:101A100002FC37EA0C07D1F808C03200D2B25200FB
:101A20001CFA02FC5CEA07073D00C5600A7912F067
:101A30000302022A1ED13200D20800EB8202176A8A
:101A40005FF00F0C16F00702D2B292001CFA02FCF3
:101A500037EA0C07D1F810C016F00702D2B2920094
:101A60001CFA02FC5CEA07073D003200D20800EBDA
:101A70008202156207685FF0030C3200D2B2520096
:101A80001CFA02FC37EA0C0791F804C01CF0030CA6
:101A90003200D2B252001CFA02FC5CEA07073D0099
:101AA00005604A6812F4403F00F0878000220092EF
:101AB000DFF84821176857F480471760126812F45E
:101AC00080420092009ADFF838C1320092085CF838
:101AD00022705FF00F0E16F00302D2B292001EFACF
:101AE00002FE37EA0E07DFF81C21904201D10025E3
:101AF00030E0DFF81421904201D101252AE0DFF81F
:101B00000C21904201D1022524E0DFF8042190420B
:101B100001D103251EE03F4A904201D1042519E07E
:101B20003D4A904201D1052514E03C4A904201D142
:101B300006250FE03A4A904201D107250AE0394ACA
:101B4000904201D1082505E0374A904201D109258C
:101B500000E00A25EDB216F00302D2B292009540E1
:101B60002F43320092084CF82270304D2A68A2436D
:101B7000D1F804C05FEACC2C00D522432A602C4F58
:101B80003D68A543D1F804C05FEA8C2C00D52543FD
:101B90003D60284F3A68A243D1F804C05FEA8C3C0C
:101BA00000D522433A60244F3D68A543D1F804C0D4
:101BB0005FEACC3C00D525433D60761CE5E6F1BDEF
:101BC0001300DBB2002B03D00B009BB2836103E058
:101BD0000B009BB21B048361704710B504001748CB
:101BE0000168220092B2114206D0210089B2016040
:101BF000200080B200F008F910BD00004438024017
:101C00000838014000000240000402400008024081
:101C1000000C024000100240001402400018024074
:101C2000001C02400020024000240240083C014009
:101C30000C3C0140043C0140003C0140143C01408C
:101C400010B410F00703DFF8344122684FF6FF01AB
:101C50000A40DFF82C1151EA03210A43226010BC2C
:101C60007047DFF818010068C0F3022070470000D9
:101C7000010049B200290AD4012210F01F018A4054
:101C8000DFF8001103005BB25B0941F823207047C5
:101C900010B4020052B2002A05D40A013A4B0400E3
:101CA00064B21A5508E00A01384B040064B214F01B
:101CB0000F04234403F8042C10BC704770B40300D5
:101CC00013F00704D4F10700052801D3042001E034
:101CD000D4F10700251D072D01D2002500E0E51EE7
:101CE000012616FA00F0401E0140A94016FA05F53B
:101CF0006D1E2A401143080070BC704710B50400E7
:101D0000601EB0F1807F01D301200EE0601E2049EB
:101D100008600F215FF0FF30FFF7BAFF00201D4978
:101D2000086007201C490860002010BD10B50400A1
:101D30002000FFF785FF10BD2DE9F04104000D00E4
:101D400016000027FFF78DFF80463200290040462D
:101D5000FFF7B4FF0100200040B2FFF799FFBDE894
:101D6000F08110B50400200040B2FFF781FF10BDE4
:101D700010B504002000FFF7C1FF10BD0CED00E01E
:101D80000000FA0500E100E000E400E018ED00E0EA
:101D900014E000E018E000E010E000E07047704759
:101DA00000B500BF130096469446103928BFA0E83E
:101DB0000C50FAD85FEA417C28BF0CC048BF40F8FD
:101DC000042BC90728BF20F8022B48BF00F8012BBD
:101DD00000BD000010B5040020682049884207D1EA
:101DE0001F49204800F0D7F81F4800F059FD0AE0CD
:101DF00020681E49884206D11D491A4800F0CBF8D8
:101E00001C4800F04DFD10BD010089B2022902D12D
:101E10000121194A1170704710B504002068174954
:101E200088420AD116498878012802D10120124A35
:101E300010700422134800F0F8FD2068124988420F
:101E40000AD10F498878012802D101200A4A10706E
:101E500004220E4800F0E9FD10BD000000640040BF
:101E600084060020500500204C000020006800403F
:101E7000AC0600208C0200204E07002000780040B5
:101E800048070020AC050020007C0040F40500203D
:101E9000012111FA00F0401E01EE900AF8EEE11A5D
:101EA00030EE600A21EE800A71EE600A80EE200AB0
:101EB000BCEEC00A10EE100A704701EE100A70EE78
:101EC000C00AB8EE411A60EE810A012010FA01F151
:101ED000491E01EE101AB8EEC11AC0EE810A30EEAA
:101EE000800A704770B586B004000D002800C0B2AB
:101EF000012805D02800C0B2022801D0002048E007
:101F00002800C0B2012802D12B48060005E02800B5
:101F1000C0B2022801D12948060020880090002084
:101F2000029000200390A078049000208DF8140007
:101F3000208880B24009042809D1214B221D69461E
:101F4000300001F057FB002822D0002021E020883B
:101F500080B2400980B2092804D0208880B24009AC
:101F60000A280AD1164B14F13C026946300001F0F0
:101F700041FB00280CD000200BE0114B14F148026B
:101F80006946300001F036FB002801D0002000E057
:101F9000012006B070BD38B504000D0014F15103E6
:101FA000084A0021280001F0B8FB002801D00020D9
:101FB00000E0012032BD000084060020AC060020B5
:101FC00034070020F40600200100DFED692AB4EE9A
:101FD000620AF1EE10FA06DA9FED663AB4EE430AB1
:101FE000F1EE10FA01D500203EE0F4EE620AF1EEC7
:101FF00010FA04DAF4EE430AF1EE10FA01D50020EB
:1020000032E0DFED5D3AB4EE631AF1EE10FA04DA75
:10201000B5EE401AF1EE10FA01D5002024E0DFED14
:10202000573AF4EE631AF1EE10FA04DAF5EE401ABC
:10203000F1EE10FA01D5002016E0B4EE622AF1EEBE
:1020400010FA04DAB4EE432AF1EE10FA01D50020BA
:102050000AE081ED030AC1ED040A81ED051AC1ED24
:10206000061A81ED072A0120704738B52DED068B41
:1020700004000D00B0EE408AF0EE608AB0EE419AA6
:10208000F0EE619AB0EE42AA257120782072B0EE8F
:102090004A2AF0EE691AB0EE491AF0EE680AB0EE7C
:1020A000480A2000FFF790FF002801D1002000E03F
:1020B0000120BDEC068B32BD0171027802727047BF
:1020C00038B52DED028B04000D009FED2A8ADFED5F
:1020D000698A1020B0EE681AF0EE480A94ED010A01
:1020E000FFF7D6FEA8600E20B0EE681AF0EE480AA0
:1020F00094ED020AFFF7CCFEE8600A209FED6D1A0E
:10210000DFED6D0A94ED030AFFF7C2FE2861082097
:102110009FED6A1ADFED680A94ED040AFFF7B8FE36
:1021200068611020B0EE681AF0EE480A94ED050AD6
:10213000FFF7AEFEA861A8682870A868000A68705A
:10214000E868A870E868000A10F03F00296950EAC2
:102150008110E87028698008287168696871A86929
:10216000A871A869000AE871BDEC028B31BD0000BE
:1021700001002042000020C201C07F4401004C4207
:102180001300DBB20A2B06D143880B7043889BB245
:102190001B0A4B7007E01300DBB2092B03D1037855
:1021A0000B7000234B7070470A784B7852EA032279
:1021B00002808A788270CA78C2700A794B7952EAB2
:1021C000032282808A79CB7952EA0322C280704747
:1021D0000A78027070470A78012A02D1012202802F
:1021E00025E00A78022A02D1022202801FE00A7842
:1021F000042A02D10422028019E00A78082A02D1B6
:102200000822028013E00A78102A02D110220280EC
:102210000DE00A78202A02D12022028007E00A7805
:10222000402A02D14022028001E000220280704751
:1022300038B504000D002079042805D1291D14F1BA
:102240000800FFF73DFF0CE020790A2802D0207932
:10225000092806D1227915F13C0114F13400FFF769
:102260008FFF31BD01000879097850EA411080B232
:102270007047000000002042F8B504000D00160071
:10228000257084F8466002212000FFF715FFDFF873
:102290004C76201DFFF7E6FF38800020B87094F8D8
:1022A00046103800FFF71EFE002801D1002000E094
:1022B0000120F2BD00C07F440000000000004C423D
:1022C00038B52DED048B0400B0EE408AF0EE608A44
:1022D000B0EE419A9FEDAE2AF0EE491AB0EE681AC0
:1022E000DFEDAB0AB0EE480A04212000FFF7BDFE87
:1022F000002801D1002015E0DFF8E055201DFFF790
:10230000B1FF28800820A87029002000FFF790FF67
:1023100094F846102800FFF7E5FD002801D10020C1
:1023200000E00120BDEC048B32BD000038B52DED7E
:10233000028B0400B0EE408AF0EE608A9FED942A92
:10234000F0EE681A9FED921AF0EE480A9FED900A9F
:1023500004212000FFF789FE002801D1002015E0AC
:10236000DFF87855201DFFF77DFF28800820A87032
:1023700029002000FFF75CFF94F846102800FFF7C3
:10238000B1FD002801D1002000E00120BDEC028B4E
:1023900032BD000038B52DED028B0400B0EE408A4E
:1023A000B0EE482ADFED7A1A9FED791ADFED780A50
:1023B0009FED770A04212000FFF757FE002801D186
:1023C000002015E0DFF81455201DFFF74BFF288093
:1023D0000820A87029002000FFF72AFF94F8461073
:1023E0002800FFF77FFD002801D1002000E0012038
:1023F000BDEC028B32BD000038B52DED028B040020
:10240000B0EE408A9FED622AF0EE481A9FED601A06
:10241000DFED5F0A9FED5E0A04212000FFF725FE35
:10242000002801D1002015E0DFF8B054201DFFF78F
:1024300019FF28800820A87029002000FFF7F8FE67
:1024400094F846102800FFF74DFD002801D1002028
:1024500000E00120BDEC028B32BD000038B5040065
:102460009FED4B2ADFED4A1A9FED491ADFED480A2E
:102470009FED470A04212000FFF7F7FD002801D156
:10248000002015E0DFF85454201DFFF7EBFE2880F4
:102490000820A87029002000FFF7CAFE94F8461013
:1024A0002800FFF71FFD002801D1002000E00120D7
:1024B00032BD000038B52DED048B0400B0EE408A2B
:1024C000F0EE608AB0EE419AF0EE619AB0EE682AC2
:1024D000F0EE691AB0EE491ADFED2D0AB0EE480AA7
:1024E00004212000FFF7C1FD002801D1002015E0E4
:1024F000DFF8E853201DFFF7B5FE28800820A870FC
:1025000029002000FFF794FE94F846102800FFF7FA
:10251000E9FC002801D1002000E00120BDEC048B83
:1025200032BD000038B52DED048B0400B0EE408ABA
:10253000F0EE608AB0EE419AB0EE682AF0EE491AE9
:102540009FED131AF0EE480A9FED110A04212000B6
:10255000FFF78BFD002801D1002015E0DFF87C5348
:10256000201DFFF77FFE28800820A870290020008A
:10257000FFF75EFE94F846102800FFF7B3FC002832
:1025800001D1002000E00120BDEC048B32BD000031
:102590000000000038B52DED068B0400B0EE408A37
:1025A000F0EE608AB0EE419AF0EE619AB0EE42AA87
:1025B000B0EE492AF0EE4A1AB0EE691AF0EE680A57
:1025C000B0EE480A04212000FFF74FFD002801D19A
:1025D000002015E0DFF80453201DFFF743FE28809C
:1025E0000820A87029002000FFF722FE94F846106A
:1025F0002800FFF777FC002801D1002000E001202F
:10260000BDEC068B32BD000038B52DED068B040005
:10261000B0EE408AF0EE608AB0EE419AF0EE619A38
:10262000B0EE42AA0D00B0EE492AF0EE4A1A9FED34
:10263000851AF0EE680A9FED830A04212000FFF757
:1026400014FD002801D1002078E084F845502800CE
:10265000C0B200280BD0022823D016D3042834D0CF
:1026600029D3062849D038D3072854D065E0B0EEE6
:102670004A1AF0EE690AB0EE480A2000FFF720FE81
:10268000002801D1002059E057E0F0EE4A0AB0EEF0
:10269000680A2000FFF74AFE002801D100204DE023
:1026A0004BE0B0EE490A2000FFF774FE002801D18C
:1026B000002043E041E0B0EE4A0A2000FFF79CFE14
:1026C000002801D1002039E037E02000FFF7C6FEE6
:1026D000002801D1002031E02FE0F0EE4A1AB0EEE0
:1026E000691AF0EE490AB0EE480A2000FFF7E2FE50
:1026F000002801D1002021E01FE0B0EE4A1AF0EEE0
:10270000490AB0EE680A2000FFF70CFF002801D14B
:10271000002013E011E0B0EE4A2AF0EE691AB0EEA4
:10272000491AF0EE680AB0EE480A2000FFF732FFBF
:10273000002801D1002001E0FFE70120BDEC068B5D
:1027400032BD00002DE9F84F2DED028B84B004005E
:102750000D00002002900020019000200090002633
:10276000002003902F78687857EA0027A8780004A3
:1027700010F47020074395F802805FFA88F85FEA4A
:1027800018185FFA88F8E87858EA001828790003E2
:1027900010F47F4050EA080895F80590A87959EAA6
:1027A000002995F807A01AF0010A95F807B05FFA1A
:1027B0008BFB5FEA5B0B5FFA8BFB9FED458ADFEDDE
:1027C000458A1421F0EE680AB0EE480A3800FFF797
:1027D00074FB84ED000A1421F0EE680AB0EE480A9A
:1027E0004046FFF76AFB84ED010A1021F0EE680A0B
:1027F000B0EE480A4846FFF760FB84ED020A84F811
:102800000CA0207B00280AD10721DFED330ABBEEA4
:10281000040A5846FFF751FB84ED040A0CE0207BC4
:10282000012809D10721DFED2C0ABBEE040A584626
:10283000FFF743FB84ED040A04B0BDEC028BBDE856
:10284000F18F00000000000070B504000D001600BC
:102850003000C0B2042806D115F1510114F1200056
:10286000FFF770FF1BE03000C0B2182806D115F149
:10287000510114F13A00FFF797FC10E03000C0B2AC
:10288000172806D115F1510114F14200FFF7A3FCFE
:1028900005E015F1510114F14400FFF799FC70BDFA
:1028A000F8B504000E4805682E00F6B2760915F05A
:1028B0001F00B0F110073200D2B208493B00DBB272
:1028C0004820434304EB03004838FFF7BDFFF1BD48
:1028D000000020C2000020420000484350050020B4
:1028E000F406002010B50400002C01D1012035E0D1
:1028F000A0690028FFD194F84100002805D10020EC
:1029000084F84000200001F041F9242084F84100BF
:102910002068C06830F400502168C860200000F0D2
:102920006BFB2068006930F49040216808612068E2
:10293000406930F02A00216848612068C06850F47E
:1029400000502168C86000206064202084F84100A5
:10295000202084F8420000206063002010BD2DE993
:10296000FC4706000D0017009846002496F8410029
:10297000202857D1002D03D0380080B2002801D183
:10298000012050E000207064212086F84100FEF70D
:1029900079FF8146B784F784B068B0F5805F05D1D0
:1029A0003069002802D10024AA4602E02C005FF022
:1029B000000AF08C002821D0CDF800804B46002280
:1029C0008021300000F0B6F9002804D0202086F8DD
:1029D0004100032027E0002C08D1BAF80000C00510
:1029E000C00D316848601AF1020A03E020783168AE
:1029F0004860641CF08C401EF084DAE7CDF800805B
:102A00004B4600224021300000F094F9002804D009
:102A1000202086F84100032005E0202086F84100B0
:102A2000002000E00220BDE8F68770B505000C002C
:102A3000160095F84200202810D1002C03D0300059
:102A400080B2002801D1012009E000202863320073
:102A500092B22100280000F0AFF900E0022070BD22
:102A60002DE9FC470600306807683068D0F80C8014
:102A70003068D0F814900020002517F00F04002CC7
:102A800008D1B80606D55FEA886003D5300000F0AB
:102A900038FA4DE1002C00F080805FEAC97002D462
:102AA00018F4907F79D017F00100C0B2002806D04A
:102AB0005FEAC85003D5706C50F00100706478076D
:102AC00008D519F00100C0B2002803D0706C50F096
:102AD00002007064B80708D519F00100C0B20028E0
:102AE00003D0706C50F00400706438070BD55FEAB7
:102AF000886004D419F00100C0B2002803D0706CC3
:102B000050F008007064706C002845D0B80605D5F8
:102B10005FEA886002D5300000F0F3F93068406960
:102B2000800910F001000500706C000701D4002D31
:102B30002DD0300000F062F930684069400622D59F
:102B40003068143050E8000F30F040000100306869
:102B500010F1140242E800100028F1D1F06B0028B7
:102B60000DD00FF20130F16B0865F06BFEF7F0FE4F
:102B7000002811D0F06BF16B096D88470CE0300034
:102B800001F0C0F808E0300001F0BCF804E03000CB
:102B900001F0B8F800207064CAE0306B012840F002
:102BA000B580F80640F1B2805FEAC86040F1AE80BF
:102BB0000020009030680068009030684068009005
:102BC00000983068406940065DD5F06B0068D0F829
:102BD00004A0504680B2002854D05046B18D80B237
:102BE00088424FD2A6F82EA0F06BC069B0F5807F66
:102BF0003FD030680C3050E8000F30F48070010096
:102C0000306810F10C0242E800100028F1D1306861
:102C1000143050E8000F400840000100306810F107
:102C2000140242E800100028F1D13068143050E856
:102C3000000F30F040000100306810F1140242E84B
:102C400000100028F1D1202086F8420000203063D7
:102C500030680C3050E8000F30F010000100306890
:102C600010F10C0242E800100028F1D1F06BFEF7E1
:102C700021FE02207063B18DF08D091A89B23000F7
:102C800001F041F854E0B08DB6F82EA0B0EB0A0A7E
:102C9000F08D002839D0504680B2002835D03068F9
:102CA0000C3050E8000F30F490700100306810F1E3
:102CB0000C0242E800100028F1D13068143050E8CE
:102CC000000F400840000100306810F1140242E893
:102CD00000100028F1D1202086F842000020306347
:102CE00030680C3050E8000F30F010000100306800
:102CF00010F10C0242E800100028F1D102207063AC
:102D0000514689B2300000F0FEFF11E0380606D5CA
:102D10005FEA086003D5300000F0B0F808E07806FC
:102D200006D55FEA486003D5300000F0DAF8FFE727
:102D3000BDE8F3872DE9FC4105000E001700984619
:102D4000089C286800683040B04201D1012000E0B2
:102D500000203900C9B288422BD114F1010FF0D004
:102D6000FEF790FDB0EB0800844201D3002C01D1A6
:102D700003201FE02868C0684007E2D5802EE0D01D
:102D8000402EDED0286800680007DAD500200090C9
:102D90002868006800902868406800900098280023
:102DA00000F02CF808206864002085F8400001201D
:102DB00000E00020BDE8F68110B4030099629A8516
:102DC000DA8500205864222083F842001869002820
:102DD00005D01868C06850F480701C68E0601868FE
:102DE000406950F001001C6860611868C06850F0CC
:102DF00020001C68E060002010BC704701680C31A6
:102E000051E8001F31F490710A00016811F10C03C0
:102E100043E800210029F1D10168143151E8001F75
:102E2000490849000A00016811F1140343E8002130
:102E30000029F1D1016B01290DD101680C3151E854
:102E4000001F31F010010A00016811F10C0343E882
:102E500000210029F1D1202180F8421000210163D6
:102E60007047000038B50400A56B0020E8850020FD
:102E7000E884280000F046FF31BD0000010091F811
:102E8000410021282BD18868B0F5805F0DD10869F9
:102E900000280AD1086A02001088C005C00D0B681E
:102EA0005860086A801C086205E0086A431C0B62CF
:102EB00000780B685860C88C401EC88480B2002817
:102EC0000BD10868C06830F080000B68D8600868D3
:102ED000C06850F040000B68D860002000E002207D
:102EE000704710B504002068C06830F040002168C9
:102EF000C860202084F84100200000F005FF002079
:102F000010BD7CB5040094F84200222872D1A0685C
:102F1000B0F5805F0DD1206900280AD10025A66A8E
:102F200020684068C005C00D3080A06A801CA06287
:102F300017E0A56A0026A068B0F5805F05D0A068FC
:102F4000002806D12069002803D120684068287035
:102F500004E02068406810F07F002870A06A401CE0
:102F6000A062E08D401EE08580B2002840D120683C
:102F7000C06830F020002168C8602068C06830F464
:102F800080702168C860206840694008400021685E
:102F90004861202084F8420000206063206B0128F3
:102FA00021D10020206320680C3050E8000F30F061
:102FB00010000100206810F10C0242E80010002807
:102FC000F1D120680068C00608D500200090206874
:102FD000006800902068406800900098A18D200053
:102FE00000F091FE02E02000FEF716FF002002E054
:102FF000002000E0022076BD2DE9F84F84B00500E6
:103000002868016931F44051E8680143286801618A
:10301000D5F808B0286950EA0B0B686950EA0B0B29
:10302000E86950EA0B0B2868C168B24801405BEAC6
:1030300001012868C1602868416931F44071A869BC
:103040000143286841612868AB49884203D0286859
:10305000AA49884203D100F007FF040002E000F013
:10306000F8FE0400E869B0F5004F40F0A1805FF081
:10307000640A022600275FF019085FF000092200A9
:103080000023A8FB020108FB031109FB0211CDE993
:10309000000168680021A6FB002306FB013307FB43
:1030A0000033DDE9000100F047FF6421B0FBF1F0DF
:1030B000039022000023A8FB020108FB031109FB77
:1030C0000211CDE9000168680021A6FB002306FB80
:1030D000013307FB0033DDE9000100F02DFF029012
:1030E00022000023A8FB020108FB031109FB0211C7
:1030F000CDE9000168680021A6FB002306FB01332F
:1031000007FB0033DDE9000100F016FF6421B0FB8E
:10311000F1F102980AFB1101C80032306421B0FBC2
:10312000F1F0400010F4F870039910EB01100290D8
:1031300022000023A8FB020108FB031109FB021176
:10314000CDE9000168680021A6FB002306FB0133DE
:1031500007FB0033DDE9000100F0EEFE00902200E5
:103160000023A8FB020108FB031109FB02118046A2
:10317000894668680021A6FB002306FB013307FB94
:1031800000334046494600F0D7FE6421B0FBF1F120
:1031900000980AFB110A5FEACA0032306421B0FBD2
:1031A000F1F111F0070102980918286881609EE08A
:1031B000042600275FF0640A5FF019085FF0000939
:1031C00022000023A8FB020108FB031109FB0211E6
:1031D000CDE9000168680021A6FB002306FB01334E
:1031E00007FB0033DDE9000100F0A6FE6421B0FB1F
:1031F000F1F0039022000023A8FB020108FB031159
:1032000009FB0211CDE9000168680021A6FB00233B
:1032100006FB013307FB0033DDE9000100F08CFE03
:10322000029022000023A8FB020108FB031109FB06
:103230000211CDE9000168680021A6FB002306FB0E
:10324000013307FB0033DDE9000100F075FE642166
:10325000B0FBF1F102980AFB110108013230642140
:10326000B0FBF1F010F0F000039910EB01100290A8
:1032700022000023A8FB020108FB031109FB021135
:10328000CDE9000168680021A6FB002306FB01339D
:1032900007FB0033DDE9000100F04EFE0090220044
:1032A0000023A8FB020108FB031109FB0211804661
:1032B000894668680021A6FB002306FB013307FB53
:1032C00000334046494600F037FE6421B0FBF1F17F
:1032D00000980AFB110A5FEA0A1032306421B0FB41
:1032E000F1F111F00F01029809182868816005B00A
:1032F000BDE8F08FF369FFFF0010014000140140AA
:1033000070B50400002C01D10120AEE094F820003B
:10331000002802D1200000F081FF2068006850F0F2
:10332000010021680860FEF7ADFA050020684068DA
:10333000C0070DD4FEF7A6FA401B0B28F6D3606A2F
:1033400050F400306062052084F8200001208CE0F9
:103350002068006830F0020021680860FEF792FAE9
:1033600006002068406880070DD5FEF78BFA801BA9
:103370000B28F6D3606A50F400306062052084F8B0
:103380002000012071E0207E012806D1206800681D
:1033900050F080002168086005E02068006830F087
:1033A000800021680860607E012806D120680068DE
:1033B00050F040002168086005E02068006830F0A7
:1033C000400021680860A07E012806D120680068BE
:1033D00050F020002168086005E02068006830F0A7
:1033E000200021680860E07E012806D1206800687E
:1033F00030F010002168086005E02068006850F097
:10340000100021680860207F012806D1206800682C
:1034100050F008002168086005E02068006830F07E
:10342000080021680860607F012806D120680068D4
:1034300050F004002168086005E02068006830F062
:10344000040021680860A168E06801432069014325
:10345000606901436068401E01432068C16100202B
:103460006062012084F82000002070BDF0B40200EA
:10347000146892F820301800C0B2012804D0180057
:10348000C0B2022840F07F80594DD5F8000250F0BC
:103490000100C5F80002D5F8000230F47C50C5F8F0
:1034A0000002D5F800024E6A50EA0620C5F8000274
:1034B00001200E7D16F01F0610FA06F6D5F81C0244
:1034C000B043C5F81C02C869002816D1D5F80C0213
:1034D000B043C5F80C02486905EBC000CC684F68E2
:1034E000C7EA0444C0F84042486905EBC0008C6854
:1034F0000F68C7EA0444C0F84442C869012816D1DD
:10350000D5F80C023043C5F80C02486905EBC00041
:103510000C684F68C7EA0444C0F84042486905EBAC
:10352000C0008C68CF68C7EA0444C0F84442886988
:10353000002805D1D5F80402B043C5F8040204E020
:10354000D5F804023043C5F804020869002805D103
:10355000D5F81402B043C5F8140204E0D5F81402FB
:103560003043C5F81402086A012804D1D5F81C02BA
:103570003043C5F81C02D5F8000240084000C5F8E9
:103580000002002004E0506A50F4802050620120C4
:10359000F0BC704738B5040094F82000012821D110
:1035A000022084F82000206800684008400021685C
:1035B0000860FEF767F9050020684068C0070DD570
:1035C000FEF760F9401B0B28F6D3606A50F4003018
:1035D0006062052084F82000012008E0002060627D
:1035E000002004E0606A50F400206062012032BDD7
:1035F00000640040F0B5040094F82050206886680C
:1036000088680028FFD02800C0B2012803D0280015
:10361000C0B202287BD116F0E05F72D0C6F301671A
:103620000120B8401860886800280BD10868D1F8DC
:103630000CC05CEA405C20685FEA071E7044C0F87A
:1036400080C10DE04868D1F808C05CEAC00CC868C9
:1036500050EA0C0C20685FEA071E7044C0F880C175
:103660000869D4F800C05FEA071EF444CCF884016E
:10367000087D01280ED120685FEA071C6044D0F85D
:10368000840150F48070D4F800C05FEA071EF4444F
:10369000CCF88401D07992F806C05FEA0C4C5CEA61
:1036A000006C50795CEA002C107950EA0C0C206810
:1036B0005FEA071E7044C0F88CC1D07892F802C04F
:1036C0005FEA0C4C5CEA006C50785CEA002C1078E5
:1036D00050EA0C0C20685FEA071E7044C0F888C1ED
:1036E00020685FEA071C6044D0F8800150F00100B8
:1036F000D4F800C05FEA071EF444CCF88001002033
:103700000AE0606A50F400106062012004E0606A20
:1037100050F4802060620120F0BD70B4040094F881
:1037200020502800C0B2012804D02800C0B20228CE
:1037300040F0A48000290AD12068C06810F0030F6F
:1037400010D1606A50F40010606201209BE0206894
:10375000006910F0030F05D1606A50F40010606238
:10376000012090E020680E013044D0F8B00110F044
:10377000040090609068002807D120680E01304452
:10378000D0F8B001400D106006E020680E01304412
:10379000D0F8B001C008506020680E013044D0F865
:1037A000B00110F00200D06020680E013044D0F863
:1037B000B40110F00F00082802D30820106107E0C0
:1037C00020680E013044D0F8B40110F00F001061F1
:1037D00020680E013044D0F8B401C0F30720906196
:1037E00020680E013044D0F8B401000C506120680C
:1037F0000E013044D0F8B801187020680E01304432
:10380000D0F8B801000A587020680E013044D0F892
:10381000B801000C987020680E013044D0F8B8014F
:10382000000ED87020680E013044D0F8BC01187129
:1038300020680E013044D0F8BC01000A587120689D
:103840000E013044D0F8BC01000C987120680E01C4
:103850003044D0F8BC01000ED871002906D1206890
:10386000C06850F020002668F06005E0206800691C
:1038700050F0200026683061002004E0606A50F4B7
:1038800080206062012070BC704710B4020092F882
:1038900020301800C0B2012803D01800C0B202289E
:1038A00006D110684069084314686061002004E094
:1038B000506A50F480205062012010BC70472DE9FE
:1038C000F84F05000024286846692868476828687A
:1038D000D0F808802868D0F80C902868D0F810A09C
:1038E0002868D0F818B0F00755D55FEAC87018D529
:1038F0000120296888605FEA887003D5280000F0FD
:1039000071FD0EE05FEA487002D554F4006408E0EF
:103910005FEA087002D554F4805402E0280000F0F9
:1039200062FD5FEAC85019D54FF48070296888603D
:103930005FEA885003D5280000F056FD0EE05FEAEC
:10394000485002D554F4005408E05FEA085002D50C
:1039500054F4804402E0280000F047FD5FEAC830DC
:1039600019D55FF48030296888605FEA883003D514
:10397000280000F03BFD0EE05FEA483002D554F429
:10398000004408E05FEA083002D554F4803402E0D5
:10399000280000F02CFD300707D55FEAC96004D588
:1039A00054F4007410202968C860700708D55FEAD5
:1039B000097005D508202968C860280000F018FDA6
:1039C000B00707D52868C06810F0030F02D02800A0
:1039D000FEF700FA700607D55FEACA6004D554F412
:1039E0008064102029680861B00608D55FEA0A7073
:1039F00005D5082029680861280000F0FAFCF006C7
:103A000007D52868006910F0030F02D0280000F0E5
:103A1000F1FCB00307D5F80605D5102029684860E9
:103A2000280000F0E8FCF00307D5380705D508208A
:103A300029684860280000F0DFFC300447D578078B
:103A400042D5F00506D51BF00100C0B2002801D018
:103A500054F00104B00504D55FEA8B7001D554F031
:103A60000204700504D55FEA4B7001D554F00404DC
:103A7000300529D51BF0700F26D01BF070001028E0
:103A80000AD020280BD030280CD040280DD0502848
:103A90000ED060280FD011E054F008040EE054F06E
:103AA00010040BE054F0200408E054F0400405E05A
:103AB00054F0800402E054F48074FFE728688069C1
:103AC00030F0700029688861042029684860002C63
:103AD00005D0686A20436862280000F08EFCBDE8CB
:103AE000F18F000080B57A487A4901605FF4E131D6
:103AF0004160002181600021C160002101610C2131
:103B00004161002181610021C161FEF7EBFE0028C7
:103B100001D000F03BFE01BD10B56F4C6F48206036
:103B20005FF4E13060600020A0600020E0600020D1
:103B300020610C2060610020A0610020E061200075
:103B4000FEF7D0FE002801D000F020FE04226449D8
:103B50002000FEF76AFF10BD80B56248624901602F
:103B60005FF4E1314160002181600021C1600021EA
:103B700001610C214161002181610021C161FEF7D9
:103B8000B1FE002801D000F001FE01BD10B586B0E5
:103B9000040068461421FDF7EFFE20684D49884275
:103BA0002ED1002005905148016851F080410160FC
:103BB000006810F0804005900598002005904C4862
:103BC000016851F020010160006810F020000590AC
:103BD0000598C02000900220019000200290032050
:103BE00003900820049069464248FDF7C9FE002270
:103BF00000215220FEF7A0F85220FEF7B2F865E04F
:103C00002068364988422ED1002005903748016847
:103C100051F000410160006810F0004005900598E7
:103C2000002005903248016851F0100101600068E1
:103C300010F01000059005980320009002200190DC
:103C400000200290032003900820049069462A482F
:103C5000FDF796FE002200215320FEF76DF8532059
:103C6000FEF77FF832E020681F4988422ED10020FD
:103C700005902248016851F020010160006810F0B1
:103C8000200005900598002005901948016851F022
:103C900040010160006810F04000059005984FF465
:103CA00084400090022001900020029003200390A5
:103CB0000820049069461248FDF762FE00220021A8
:103CC0004720FEF739F84720FEF74BF806B010BD45
:103CD000AC05002000780040F4050020007C004086
:103CE000480700203C0600200014014040380240F4
:103CF00030380240001402400010024044380240B4
:103D00000018024070477047704700002DE9F041ED
:103D100004000D00002C01D1012095E0584F3868B7
:103D200010F00F00A84207D23D70386810F00F0065
:103D3000A84201D0012087E02078800716D520789E
:103D4000400704D54F48016851F4E05101602078E4
:103D5000000704D54B48016851F4604101604949AE
:103D60000A6832F0F002A06802430A602078C007B7
:103D700038D56068012805D143480068800313D412
:103D8000012061E06068022802D06068032805D144
:103D90003D480068800107D4012055E03A4800689A
:103DA000800701D401204FE0DFF8D880D8F8001058
:103DB0008908890060680143C8F80010FDF762FDBA
:103DC0000600D8F8000010F00C006168B0EB810F1D
:103DD00008D0FDF757FD801B41F289318842F0D3AE
:103DE000032031E0386810F00F00854207D23D70A3
:103DF000386810F00F00A84201D0012024E020789C
:103E0000400706D51F490A6832F4E052E0680243D1
:103E10000A602078000707D51A48016831F460412C
:103E2000226951EAC201016000F038F81749154AC9
:103E30001268C2F30312895CC8401549086015482E
:103E4000006800F0A5FC0020BDE8F0811048006883
:103E5000704780B5FFF7FAFF0F490A4A1268C2F3AC
:103E60008222895CC84002BD80B5FFF7EFFF0A4996
:103E7000044A1268C2F34232895CC84002BD0000A5
:103E8000003C02400838024000380240846A0008C2
:103E90002800002024000020C06A00082DE9F0411D
:103EA00000240025002600271F48006810F00C00A1
:103EB000002804D0042804D0082804D031E01B488E
:103EC00030E01B482EE0DFF86C80D8F8000010F0DE
:103ED0003F000400D8F8000040020CD5D8F80000DC
:103EE000C0F388101249A1FB00012200002300F05A
:103EF00023F805000BE0D8F80000C0F388100B4948
:103F0000A1FB00012200002300F016F80500D8F8FC
:103F10000000C0F30140401C40000600B5FBF6F075
:103F200000E00248BDE8F081083802400024F400B7
:103F3000001BB70004380240BBBBE1B1B2F5803FC3
:103F400080F07E80022A1ED98C46B1FBF2F102FB82
:103F500011C31B0443EA1043B3FBF2FC02FB1C3306
:103F600080B240EA0343B3FBF2F002FB103240EAB6
:103F70000C4000237047022A05D98446B0FBF2F0BA
:103F800002FB10C270474AB105D100F00102490896
:103F90005FEA3000704700220023704700F01EBC2B
:103FA0000B000200002100207047904271EB030CCF
:103FB000F6D3B3F5803F2FD2F0B5B3FA83F7B1FA59
:103FC00081F4A7F10F0E3D1B5340CEF1200602FAFB
:103FD0000EF2F3415340B5F10F0746D80F3C2C4485
:103FE0004140C4F12006A040F1414140B1FBF3F64D
:103FF00003FB1611A2FB0645001BA94102D2761E47
:104000008018594180EA010221FA0EF362FA0EF299
:1040100000215A403046F0BD30B4B1FBF3FC03FB45
:104020001C11A2FB0C45001BA94103D2ACF1010CF1
:104030008018594130BC02460B466046002170474B
:10404000B2F1807F65D3F0B5B2FA82F7B1FA81F4AC
:10405000C7F10F063D1B22FA06F307F1110EF241DC
:1040600020355A40B5F10F07B8D94140C4F12006B8
:10407000A040F1414140B1FBF3FC03FB1C11A2FB4A
:104080000C45001BA94103D2BCF1010C8018594119
:104090000F2F12D30F3FC90341EA5041B1FBF3F692
:1040A00003FB1611A2FB0645D4EBC030A94102D296
:1040B000761E8018594146EACC3C07B34140C7F10F
:1040C0002006B840F1414140B1FBF3F603FB161165
:1040D000A2FB0645001BA94102D2761E8018594159
:1040E00080EA010221FA0EF3C7F1200462FA0EF20F
:1040F0000CFA07F05A402CFA04F13043F0BD80EA84
:10410000010221FA0EF3002162FA0EF260465A40D3
:10411000F0BD8C46B1FBF2F102FB11C31B0243EA76
:104120001063B3FBF2FC02FB1C331B024CEA0020C1
:1041300043EA1063B3FBF2FC02FB1C331B024CEAA4
:10414000002043EA1063B3FBF2FC02FB1C331B02AA
:104150004CEA002043EA1063B3FBF2FC02FB1C3282
:104160004CEA00200023704710B5954C954820601C
:10417000052060600020A0600020E0605FF4403017
:1041800020615FF44010606100202076002060769E
:104190000020A0760020E0760020207700206077C5
:1041A0002000FFF7ADF8002801D000F0EFFA00F092
:1041B000CDF82000FFF7EEF902212000FFF765FBA4
:1041C00010BD10B5804C8148206005206060002043
:1041D000A0600020E0605FF4403020615FF4401098
:1041E000606100202076002060760020A07600200C
:1041F000E07600202077002060772000FFF780F82D
:10420000002801D000F0C2FA00F0BCF82000FFF74F
:10421000C1F902212000FFF738FB10BD10B586B0B0
:10422000040001A81421FDF7A7FB20686549884216
:104230003DD167480168491C0160006801280BD125
:10424000002000906348016851F00071016000682F
:1042500010F0007000900098002000905E48016807
:1042600051F008010160006810F00800009000980B
:10427000032001900220029001200390032004906B
:104280000920059001A95548FDF77AFB002200217D
:104290001420FDF751FD1420FDF763FD00220021DD
:1042A0001520FDF749FD1520FDF75BFD4CE020686A
:1042B0004649884248D1002000904649086850F09D
:1042C00080600860086810F08060009000984048A6
:1042D0000268521C0260006801280AD10020009088
:1042E000086850F000700860086810F000700090D6
:1042F0000098002000903848016851F002010160E8
:10430000006810F00200009000984FF440500190B7
:1043100002200290012003900320049009200590C0
:1043200001A92F48FDF72CFB002200214020FDF7BA
:1043300003FD4020FDF715FD002200214120FDF77F
:10434000FBFC4120FDF70DFD06B010BD80B58AB025
:104350000020059000200090002001900020029095
:104360000020039000200490002006900120079078
:10437000012008900E20099069461148FFF776F851
:104380000BB000BD80B58AB00E20059000200090D3
:104390000020019000200290002003900020049053
:1043A0000020069001200790012008901C20099011
:1043B00069460548FFF75AF80BB000BD0000000041
:1043C0008406002000640040AC0600200068004025
:1043D000300700204038024030380240000C0240D4
:1043E000000402407047704770477047704770473D
:1043F0007047704770477047704770472DE9F84F16
:104400002DED048B82B000F0EBF900F044F900F0E0
:1044100001FAFFF7A9FEFFF7D4FEFCF7FDFD00F05F
:1044200083FAFFF799FBFFF75DFBFFF775FB4FF48E
:104430007A60FDF713FAC84C012201212000FDF734
:104440001BFFC64D012202212800FDF715FFC44EB7
:10445000022201213000FDF70FFF0222022116F196
:104460004800FDF709FF0120FDF7F8F9BD4FF3EE15
:10447000048AB1EE048A0021B0EE482AF0EE681AF0
:104480009FEDB01ADFEDAF0A97ED000A2000FEF7AE
:10449000BBF80120FDF7E2F90021B0EE482AF0EE6A
:1044A000681A9FEDA81ADFEDA70A97ED010A280008
:1044B000FEF7AAF80120FDF7D1F9DFF8AC82002160
:1044C000B0EE482AF0EE681A9FED9E1ADFED9D0AC5
:1044D00098ED000A3000FEF797F80120FDF7BEF9CD
:1044E0000021B0EE482AF0EE681A9FED961ADFED33
:1044F000950A98ED010A16F14800FEF785F84FF489
:10450000FA60FDF7ABF9994800780128FBD1DFF894
:104510006092DFF860A2DFED8C8A9FED8C9ADFED70
:104520008C9A00200090B0EE691AF0EE490AB0EEC5
:10453000680A00231AF104025146484600F03EFB87
:1045400000200090B0EE691AF0EE490AB0EE680A59
:1045500000231AF114021AF11001484600F02EFB54
:1045600000200090B0EE691AF0EE490AB0EE680A39
:1045700001231AF10C021AF10801484600F01EFB53
:1045800000200090B0EE691AF0EE490AB0EE680A19
:1045900001231AF11C021AF11801484600F00EFB23
:1045A0007549DAF808000860DAF80C004860DAF8B3
:1045B00018008860DAF81C00C860DFF8C0B14FF45A
:1045C0007A7310225846FEF7CAF9DBF8000000683B
:1045D0004006FAD5DFED5F8A0021B0EE482AF0EE02
:1045E000681A9FED581ADFED570A97ED000ADAEDC9
:1045F000012A30EE620A2000FEF706F80120FDF7DE
:104600002DF90021B0EE482AF0EE681A9FED4D1A00
:10461000DFED4C0A97ED010ADAED002A30EE220AAE
:104620002800FDF7F1FF0120FDF718F90021B0EE99
:10463000482AF0EE681A9FED431ADFED420A98ED22
:10464000000ADAED052A30EE220A3000FDF7DCFF21
:104650000120FDF703F90021B0EE482AF0EE681AB8
:104660009FED381ADFED370A98ED010ADAED042ADA
:1046700030EE620A16F14800FDF7C6FF0120FDF793
:10468000EDF899ED000A3E48D0ED000A30EE200A20
:1046900089ED000A37E780B592B006A83021FDF712
:1046A0006BF901A81421FDF767F900200090354847
:1046B000016851F080510160006810F08050009056
:1046C0000098002000903048016851F4404101609A
:1046D000006810F4404000900098012006905FF4BC
:1046E0008030079002200C905FF480000D9006202F
:1046F0000E90B4200F90022010900820119006A870
:1047000000F0D2FC002801D000F040F800F0C2FE1A
:10471000002801D000F03AF80F200190022002900A
:10472000002003904FF4A05004904FF48050059067
:10473000052101A8FFF7EAFA002801D000F026F8C9
:1047400013B000BD00000000CDCCCC3E0AD7233E04
:104750000AD7233D0000C8424C00002094000020EE
:104760008C02002000000020100000204E070020D6
:1047700040070020D4060020200700203C0600202F
:1047800020000020403802400070004072B6FEE772
:1047900010B504004FF47A700D490978B0FBF1F0C0
:1047A0000C490968B1FBF0F0FDF7E2FA002801D0EE
:1047B00001200CE0102C09D2002221005FF0FF3014
:1047C000FDF7BAFA04480460002000E0012010BDA3
:1047D000490000202800002024000020704700002D
:1047E00080B50B48016851F400710160016851F413
:1047F00080610160016851F4807101600320FDF760
:1048000095FA0F20FFF7C4FF00F082FE002002BDE2
:10481000003C024010B586B001A81421FDF7ACF8A9
:10482000002000903E48016851F0100101600168CD
:1048300011F010010091009900210091016851F0E0
:1048400040010160016811F04001009100990021D0
:104850000091016851F004010160016811F0040148
:104860000091009900210091016851F0010101605F
:10487000016811F001010091009900210091016887
:1048800051F008010160016811F0080100910099E0
:1048900000210091016851F020010160016811F0D0
:1048A00020010091009900210091016851F08001E0
:1048B0000160016811F080010091009900210091D0
:1048C000016851F002010160006810F002000090E0
:1048D0000098144C012201212000FDF771F90120FC
:1048E000019001200290002003900020049001A973
:1048F0002000FDF745F8022001905FF48810029037
:104900000220039001A92000FDF73AF800220021BF
:104910000720FDF711FA0720FDF723FA06B010BDB6
:10492000303802400014024080B50649064800F0C5
:1049300033FE064908700649064800F02DFE064978
:10494000087001BD38070020706A00084C0700207D
:104950003C0700202C0000204D0700202DE9F843E3
:104960002DED108B82B0B0EE40DAF0EE60DA06008A
:104970000F009FED8E9ADFED8E9A9FED8EAA6DEE61
:104980000DAA4DEEADAA3AEE290A7AEE290A20EEDA
:1049900020BAF0EE00BAB0EE4B0A09EE090A30EE8A
:1049A0006A0A69EE2B0A39EE8A1A60EE810A80EEF5
:1049B00020CA1CEE100A00F0FBFD41EC100B00F0C9
:1049C0001EFE51EC100B00F02DFE019069EE09CA9D
:1049D00049EEA9CA29EE2B0A20EE290A40EE4CCA5C
:1049E0001AEE900A00F0E4FD41EC100B00F04EFED0
:1049F000B0EE408AF0EE608A1DEE100A00F0D8FD9D
:104A000053EC182B00F0C4FE41EC100B00F0F7FD46
:104A100051EC100B00F006FE00901CEE900A00F026
:104A2000C7FD41EC100B00F031FEB0EE408AF0EE15
:104A3000608A3AEEAC0A0AEE4A0A10EE100A00F05A
:104A4000B7FD8046894653EC182B00205FF080416B
:104A500000F0C2FF04000D001AEE900A00F0A8FD5D
:104A600041EC100B00F012FE51EC100B22002B0059
:104A700000F0B2FF02000B004046494600F088FEFD
:104A800000F0D0FD0FEE900A1FEE900A00F090FDAE
:104A900041EC100B00F0B3FD51EC100B00F0C2FD27
:104AA0000FEE100A9DED000A30EE0FEA1CEE900AA0
:104AB00000F07EFD41EC100B00F0E8FDB0EE408A06
:104AC000F0EE608AB0EE6C0A09EE090A09EEE90A16
:104AD00010EE100A00F06CFD04000D0029EE2B0A08
:104AE00010EE100A00F064FD53EC182B00F074FF78
:104AF00002000B002000290000F04AFE41EC100BE0
:104B000000F07DFD51EC100B00F08CFD08EE100A5A
:104B100078EE4E8A1EEE100A00F04AFD02000B00ED
:104B2000DFF87405DFF8741501F028F804000D00B3
:104B300018EE100A00F03CFD02000B0020002900D6
:104B400001F01CF800F06EFD0BEE900ADFED1AEAA2
:104B500028EEAE0A10EE100A00F02AFD41EC100B10
:104B600001F07EF851EC100B0022DFF8343500F034
:104B70000FFE00F057FD30602BEEAE0A10EE100A6B
:104B800000F016FD41EC100B01F06AF851EC100B2F
:104B90000022DFF80C3500F0FBFD00F043FD38602B
:104BA00002B0BDEC108BBDE8F1830000EC51B83DC4
:104BB0008FC2753ECDCCCC3C00007A442DE9F74F36
:104BC0002DED0E8B07009B46B0EE409AF0EE609AFA
:104BD000B0EE41EADDF868A0B7EE00AADFED3AAA30
:104BE000B0EE4EBABAF1000F1CD1B1EE690A10EE68
:104BF000100A00F0DDFC00225FF0804300F0C8FDE9
:104C000000F010FD08EE100A19EE900A00F0D0FC3A
:104C100000225FF0804300F0BBFD00F003FD08EED2
:104C2000900A1EE0BAF1010F1BD119EE900A00F0B4
:104C3000BFFC00225FF0804300F0AAFD00F0F2FC10
:104C400008EE100AB1EE690A10EE100A00F0B0FC8E
:104C500000225FF0804300F09BFD00F0E3FC08EED3
:104C6000900ADFED1ABAD7ED00DA002697ED000AB8
:104C7000B4EE4A0AF1EE10FA01DB00203860BBF115
:104C8000000F40F0FC8097ED000AB5EE400AF1EE0F
:104C900010FA1DDB29EE0A0AD7ED000AF4EE400AED
:104CA000F1EE10FA14D5B0EE000A2BEE800AD7ED23
:104CB000000A20EE200A69EE0A0A80EE200AB0EE11
:104CC00040DA0020060027E0C8987B3ED00F49401C
:104CD00029EE0A0AD7ED000AF4EE400AF1EE10FAC6
:104CE0001ADB97ED000AB4EE4A0AF1EE10FA13D57A
:104CF000B0EE000A2BEE800AD7ED000A49EE4A0A10
:104D000020EE200AF0EE4A0A49EE4A0A80EE200A16
:104D1000B0EE40DA01200600002E69D138EEC80A54
:104D200010EE100A00F044FC804689461DEE100A81
:104D300000F03EFC04000D001DEE100A00F038FCEF
:104D400041EC100B00F067FC53EC102B2000290005
:104D500000F014FF42464B4600F03EFE04000D00FA
:104D6000B0EE000A2BEE800A10EE100A00F020FCD4
:104D700002000B002000290000F00AFD04000D00D5
:104D800018EE100A00F014FC22002B0000F09AFF2D
:104D900000F048FC0CEE100A1AEE900A00F008FC35
:104DA000804689461DEE100A00F002FC41EC100B13
:104DB00000F02BFC53EC102B0020DFF8E81200F081
:104DC00081FF04000D00B0EE000A8BEE000A10EE29
:104DD000100A00F0EDFB22002B0000F0FDFD424622
:104DE0004B4600F06FFF00F01DFC0CEE900A46E011
:104DF000012E44D138EEC80A10EE100A00F0D8FB9C
:104E0000804689461DEE100A00F0D2FB04000D001A
:104E10001DEE100A00F0CCFB41EC100B00F0FBFB88
:104E200053EC102B2000290000F0A8FE42464B4610
:104E300000F0D2FD04000D00B0EE000A2BEE800A57
:104E400010EE100A00F0B4FB02000B002000290055
:104E500000F09EFC04000D0018EE100A00F0A8FB04
:104E600022002B0000F02EFF0022DFF8383200F085
:104E7000B3FD00F0D7FB0CEE100AF0EE6ACABBF1EE
:104E8000010F40F0FC8097ED000AB5EE400AF1EE0C
:104E900010FA1CDBB0EE4A0A09EE4A0AD7ED000A06
:104EA000F4EE400AF1EE10FA11D5B0EE000A2BEE46
:104EB000800AD7ED000A20EE200AF0EE4A0A49EEF9
:104EC0004A0A80EE200AB0EE40DA00200600B0EE7A
:104ED0004A0A09EE4A0AD7ED000AF4EE400AF1EE5A
:104EE00010FA1ADB97ED000AB4EE4A0AF1EE10FA56
:104EF00013D5B0EE000A2BEE800AD7ED000A49EE7A
:104F00000A0A70EECA0A20EE200A69EE0A0A80EE4A
:104F1000200AB0EE40DA01200600012E68D138EEFA
:104F2000C80A10EE100A00F043FB804689461DEEC9
:104F3000100A00F03DFB04000D001DEE100A00F009
:104F400037FB41EC100B00F066FB53EC102B2000FC
:104F5000290000F013FE42464B4600F03DFD0400E0
:104F60000D00B0EE000A2BEE800A10EE100A00F0E1
:104F70001FFB02000B002000290000F009FC0400C8
:104F80000D0018EE100A00F013FB22002B0000F0B9
:104F900099FE00F047FB0CEE100A1AEE900A00F0A2
:104FA00007FB804689461DEE100A00F001FB41EC2C
:104FB000100B00F02AFB53EC102B0020DFF8E4105C
:104FC00000F080FE04000D00B0EE000A8BEE000A37
:104FD00010EE100A00F0ECFA22002B0000F0FCFCAE
:104FE00042464B4600F06EFE00F01CFB0CEE900AB1
:104FF000002E44D138EEC80A10EE100A00F0D8FA9C
:10500000804689461DEE100A00F0D2FA04000D0019
:105010001DEE100A00F0CCFA41EC100B00F0FBFA88
:1050200053EC102B2000290000F0A8FD42464B460F
:1050300000F0D2FC04000D00B0EE000A2BEE800A56
:1050400010EE100A00F0B4FA02000B002000290054
:1050500000F09EFB04000D0018EE100A00F0A8FA04
:1050600022002B0000F02EFE0022DFF8383000F086
:10507000B3FC00F0D7FA0CEE100AF0EE6ACA1099F1
:105080000F98F0EE6C0AB0EE4C0AFFF767FCBDEC2F
:105090000E8BBDE8F78F00006E861BF0F9210940EA
:1050A00000408F400000F0BF2DE9F8430400002CC1
:1050B00001D10120D8E12078C0075FD5DFF8AC032B
:1050C000016811F00C01042909D0006810F00C00EF
:1050D00008280ED1DFF898030068400209D5DFF8F0
:1050E00094030068800349D56068002846D10120F8
:1050F000BAE16068B0F5803F06D1DFF87803016857
:1051000051F48031016018E06068B0F5A02F0AD139
:10511000DFF86003016851F480210160016851F4F7
:105120008031016009E0DFF84C03016831F480311F
:105130000160016831F480210160606800280ED0B0
:10514000FCF7A0FB0500DFF82C030068800315D4F2
:10515000FCF798FB401B6528F5D3032084E1FCF79E
:1051600091FB0500DFF80C030068800306D5FCF70F
:1051700089FB401B6528F5D3032075E12078800763
:105180004CD5DFF8E802016811F00C0F08D0006878
:1051900010F00C00082814D1B5480068400210D463
:1051A000B4480168890704D5E168012901D00120CC
:1051B0005AE1016831F0F801226951EAC201016047
:1051C0002CE0E068002818D00120AB490860FCF70B
:1051D00059FB0500A7480168890706D4FCF752FB74
:1051E000401B0328F6D303203EE1016831F0F801AB
:1051F000226951EAC201016010E000209E49086066
:10520000FCF740FB05009B480068800706D5FCF7CB
:1052100039FB401B0328F6D3032025E12078000743
:1052200024D56069002810D0012094490860FCF75B
:1052300029FB050092480068800717D4FCF722FB81
:10524000401B0328F6D303200EE100208B490860A1
:10525000FCF718FB05008A480068800706D5FCF7B4
:1052600011FB401B0328F6D30320FDE02078400704
:105270007CD50027DFF80C82D8F80000C0000FD4DE
:1052800000200090D8F8000050F08050C8F80000CE
:10529000D8F8000010F0805000900098012007001E
:1052A000DFF8E491D9F80000C00513D4D9F8000064
:1052B00050F48070C9F80000FCF7E4FA0500D9F852
:1052C0000000C00506D4FCF7DDFA401B0328F6D326
:1052D0000320C9E0A068012805D16C48016851F09D
:1052E0000101016015E0A068052809D1674801683F
:1052F00051F004010160016851F00101016008E012
:1053000062480168490849000160016831F0040100
:105310000160A06800280FD0FCF7B4FA05005B48D4
:105320000068800718D4FCF7ADFA401B41F28931C0
:105330008842F4D3032097E0FCF7A4FA0500534811
:105340000068800708D5FCF79DFA401B41F28931BF
:105350008842F4D3032087E03800C0B2012805D189
:10536000D8F8000030F08050C8F80000A06900288C
:1053700079D03E48006810F00C00082847D0A0699A
:10538000022833D1424F00203860FCF77BFA804678
:10539000DFF8E090D9F80000800107D5FCF772FA39
:1053A000B0EB08000328F3D303205DE0E169206A35
:1053B0000143606A51EA8011A06A4008401E51EA28
:1053C0000041E06A51EA006129480160012038602B
:1053D000FCF758FA0500D9F80000800143D4FCF727
:1053E00051FA401B0328F6D303203DE00020284952
:1053F0000860FCF747FA05001E480068800132D5B6
:10540000FCF740FA401B0328F6D303202CE0A069E8
:10541000012801D1012027E0154800680600A06995
:1054200001281ED016F48000E169884219D116F0D7
:105430003F00216A884214D147F6C0703040616A4B
:10544000B0EB811F0DD116F44030A16A4908491E06
:10545000B0EB014F05D116F07060E16AB0EB016F5F
:1054600001D0012000E00020BDE8F28308380240AE
:10547000043802400038024000004742800E474294
:1054800074380240403802400070004070380240DA
:10549000600047427CB50024002000901948016854
:1054A00051F080510160006810F080500090009829
:1054B000012015490860FCF7E5F90500104C20684B
:1054C000C00308D4FCF7DEF9401B40F2E931884202
:1054D000F4D3032012E001200C490860FCF7D2F954
:1054E00006002068800308D4FCF7CCF9801B40F24A
:1054F000E9318842F5D3032000E0002076BD0000AA
:10550000047000404038024040000E4244000E4209
:1055100081B0002000900C48016851F48041016086
:10552000006810F480400090009800200090074828
:10553000016851F080510160006810F080500090C7
:10554000009801B0704700BF443802404038024024
:10555000F0B4030001200024144DAE7B022E18DAB3
:105560000026AF7BEE55AE7B05EB86067360AE7B07
:105570002E443273AE7B771CAF73340014F13005C8
:105580000D703A254D702F258D700025CD700025AA
:105590002800C0B2F0BC704738B504000D000022EE
:1055A00029002000FFF7D4FF32BD000010070020C3
:1055B000C0F3C75181B1FF2906D0C110400721F0C7
:1055C000E04101F16051704741020CBF40F4E0013D
:1055D0006FF000410020704700F0004100020AD047
:1055E000B0FA80FC00FA0CF001F16051A1EB0C5113
:1055F00001EBD0214005704741EC100B01BD80B597
:1056000051EC100B00F01CFCF6E780B551EC100BD0
:1056100000F098FEF0E780B551EC100B00F094FE1E
:10562000EAE7000001F000428B1AA3F16051B1F5E6
:10563000801F0ADBB1F17F6F1FD242EAC102C100B5
:1056400071F1004142EB507070470B15C3F1090333
:10565000212B10D2890241EA905180020128494150
:1056600041F0004121FA03F0C3F12003994071F1A8
:10567000004150417047100070476FF0000013EB7D
:10568000103F5CBF000E42EAC050704751EC100B57
:1056900000B500F003F841EC100B00BD40F2FF7CB8
:1056A0000B0D4DD0634566D230B421EA035141F46D
:1056B000801103F2FD3C5FEA5C0C01D30018494104
:1056C000890041EA907180004FF440140023E20207
:1056D000D50AB1F5100107D46D081DD2091B641954
:1056E00000184941491BF7D56D080AD20919641BF6
:1056F00000184941491BEFD56D08F7D301E0520866
:1057000017D0C01861419B1AAC4100184941801A5A
:10571000A941F4D452080AD0C01AA1419B186C4187
:1057200000184941801AA941E9D45208F4D15B1C00
:105730006C4161084FEA330001EB0C5130BC7047FB
:1057400050EA0103FBD030B4B1FA81F311B9B0FAD9
:1057500080F41B190B3BB3F120042FBF00FA04F1B6
:105760009940C3F1200420FA04F438BF2143984043
:10577000D3F101039DE7634514BF50EA410CDEE716
:1057800011F5801FDBD8D943AFF3008070470000CC
:10579000F0B540F2FF7581EA030C0CF0004C15EAFD
:1057A00011541DBF15EA1357AC42AF42E5E0BC41AE
:1057B000C1F31301C3F31303801A994143F4801317
:1057C00004D2641E4000494180185941C90241EA8F
:1057D0005051B1FBF3F603FB1611A2FB0675D7EB94
:1057E000C020A94102D2761E80185941C90241EA5F
:1057F0005051B1FBF3FE03FB1E11A2FB0E75D7EB5C
:10580000C020A94103D2AEF1010E8018594189028E
:1058100041EA9051760546EA8E2EB1FBF3F603FB82
:105820001611A2FB0675D7EB8020A94102D2761E85
:1058300080185941C90241EA50514EEA060EB1FBA7
:10584000F3F603FB1611A2FB0675D7EBC020A941A6
:1058500002D2761E80185941C90241EA5051B1FB6B
:10586000F3F703FB1711A2FB0735D3EBC020A941C7
:1058700067F100070CBF004247F0010766F3D52728
:105880004FEA1E31B80814F5806412DDBD0775F1CA
:10589000004250EB0E5051EB045111F5801F5CBFDC
:1058A00041EA0C01F0BD4CF07F6141F0E041002085
:1058B000F0BDBD076D0840EA0E5041F48011D4F1EF
:1058C0000104B4F120060ADAC4F120060200E04027
:1058D00001FA06F3E1401843B24015430EE0342CC0
:1058E00013DCC6F1200445EA40056D0820FA06F2F3
:1058F000154321FA06F0A1400D43002175F1004245
:1059000050F1000051EB0C01F0BD00205FEA0C01EA
:10591000F0BDCFB992185B41B3FA83F704BFB2FA76
:1059200082F6BF190B3FB7F120062FBF02FA06F32C
:10593000BB40C7F1200622FA06F638BF3343BA400F
:105940001CB1E419641E33E77F4231F00041B1FA23
:1059500081F404BFB0FA80F6A4190B3CB4F1200620
:105960002FBF00FA06F1A140C4F1200620FA06F686
:1059700038BF3143A0403C1B1AE7AC421ABF05EACE
:105980001357AF4212E050EA41061CBF52EA4306E9
:10599000BFE750EA4107304661461CBF41EA055166
:1059A000F0BD52EA430C08BFC143F0BD00204FF4E4
:1059B000001616EB410F98BF16EB430F08BF16EB0E
:1059C000410F24BFC14305E016EB430F0CBF6146F6
:1059D0004CEA0551F0BD0000B0B581EA030C0CF0B3
:1059E000004C40F2FF7515EA11541DBF15EA13571C
:1059F000AC42AF4239E0E41923EA455343F4801343
:105A0000C90241F0004141EA505EC7021100A7FB04
:105A1000020200284FF00000EEFB01204FF00001D1
:105A2000E3FB072118BF42F0010240180021494161
:105A3000E3FB0E01A4F580640F0302D25200404143
:105A4000494154F101046CDD470872F1004250F104
:105A5000000051EB0451A1F580115CBF41EA0C013B
:105A6000B0BD4CEA05510020B0BD05EA1357AC4269
:105A700014BFAF4241E050EA410E1CBF52EA430E50
:105A800002E061460020B0BD24423C441BD15FEAE5
:105A9000070EF6D0090302BF01460020AEF1140E36
:105AA000B1FA81F7AEEB070401FA07FE0C37C7F134
:105AB000200100FA07F7C8404EEA000E23EA4553DA
:105AC00043F48013A2E733F00043B3FA83F704BF33
:105AD000B2FA82FE77440B3FE41BB7F1200E2FBFD2
