:020000040800F2
:1000000000100020C1980008AD960008AF960008C7
:10001000B1960008B3960008B596000800000000ED
:10002000000000000000000000000000B79600087B
:10003000B996000800000000BB960008BD960008B5
:10004000FD98000801990008059900080999000821
:100050000D9900081199000815990008C596000827
:10006000199900081D990008219900082599000890
:10007000299900082D990008319900083599000840
:10008000399900083D9900084199000845990008F0
:10009000CF960008D9960008499900084D990008A4
:1000A0005199000855990008599900085D99000870
:1000B000E3960008619900086599000869990008AD
:1000C0006D990008719900087599000879990008E0
:1000D0007D9900088199000885990008ED9600082F
:1000E000899900088D990008919900089599000850
:1000F000999900089D990008A1990008A599000800
:10010000A9990008F7960008AD990008B199000870
:10011000B5990008B9990008BD990008C19900086F
:10012000C5990008C9990008CD990008D19900081F
:10013000D5990008D9990008DD990008E1990008CF
:10014000019700080B970008E5990008E999000855
:10015000ED990008F1990008F59900081597000835
:10016000F9990008FD990008019A0008059A00080D
:10017000099A00080D9A0008119A00080000000072
:10018000159A0008199A00081F9700082997000877
:100190001D9A0008219A0008259A0008299A00084B
:1001A00000000000000000002D9A00082DE9F8432F
:1001B0002DED028B80460D001600B0EE408AF0EE69
:1001C000608A1F00DFF8384BD8F808002060D8F8A4
:1001D0000C006060D8F81800A060D8F81C00E0603F
:1001E000A8682061E8686061A869A061E869E061C9
:1001F000B0682062F0686062B069A062F069E06295
:1002000084ED0C8AC4ED0D8A3800C0B202F06AFC9D
:100210000022DFF8F43A02F0AFFC02F09BFDA0638D
:10022000DFF8E89A4FF47A733C222100484602F046
:1002300002FED9F8000000684006FAD53800C0B2C6
:10024000002803D03800C0B2052862D1DFF8C09A78
:10025000DFF8C04A3900C9B2B0EE682AF0EE481A99
:1002600096ED011AD5ED010A99ED000AD8ED012AA3
:1002700030EE620A200003F0CFFD012003F03AFFC8
:100280003900C9B2B0EE682AF0EE481A96ED001AAD
:10029000D5ED000A99ED010AD8ED002A30EE220AC8
:1002A00014F1480003F0B8FD012003F023FFDFF84C
:1002B000689ADFF8684A3900C9B2B0EE682AF0EEF1
:1002C000481A96ED051AD5ED050A99ED000AD8ED04
:1002D000052A30EE220A200003F09EFD012003F0E3
:1002E00009FF3900C9B2B0EE682AF0EE481A96ED5F
:1002F000041AD5ED040A99ED010AD8ED042A30EE6E
:10030000620A14F1480003F087FD012003F0F2FEB9
:100310004DE0DFF8004A3900C9B2B0EE682AF0EECD
:10032000481A96ED011AD5ED010A9FED760A2000D4
:1003300003F072FD012003F0DDFE3900C9B2B0EE1A
:10034000682AF0EE481A96ED001AD5ED000A9FEDE6
:100350006D0A14F1480003F05FFD012003F0CAFEAE
:10036000DFF8B8493900C9B2B0EE682AF0EE481A91
:1003700096ED051AD5ED050A9FED620A200003F0FF
:100380004BFD012003F0B6FE3900C9B2B0EE682A79
:10039000F0EE481A96ED041AD5ED040A9FED590ABD
:1003A00014F1480003F038FD012003F0A3FEBDEC7A
:1003B000028BBDE8F183000070B52DED028B0024A7
:1003C000042C13DADFF8200C00EBC401091D00EB4C
:1003D000C400DFF8102CD2ED000A9FED4A0A03F0AA
:1003E0009DFE012840F08A80641CE9E7DFF81019BF
:1003F000DFF8F44BA0680860E0684860A069886096
:10040000E069C86004200C2804DA002241F82020AA
:10041000401CF8E79FED3C8A81ED0C8AF1EE048ADE
:10042000C1ED0D8A00208863DFF8E0584FF47A733D
:100430003C22280002F0FFFC286800684006FBD53B
:10044000DFF8D058DFF8C8680021B0EE682AF0EE77
:10045000481A9FED2C1ADFED2B0A96ED000AD4ED19
:10046000012A30EE620A280003F0D6FC012003F0D6
:1004700041FE0021B0EE682AF0EE481A9FED211AE5
:10048000DFED200A96ED010AD4ED002A30EE220AB3
:1004900015F1480003F0C0FC012003F02BFEDFF84B
:1004A0007C58DFF874680021B0EE682AF0EE481A34
:1004B0009FED141ADFED130A96ED000AD4ED052A1C
:1004C00030EE220A280003F0A7FC012003F012FE00
:1004D0000021B0EE682AF0EE481A9FED0A1ADFED0F
:1004E000090A96ED010AD4ED042A30EE620A15F1EC
:1004F000480003F091FC012003F0FCFDBDEC028BF1
:1005000070BD0000000000000000C842F8B52DEDED
:10051000068BA0B00600B0EE408AF0EE608A0C00B8
:10052000150096F9010009EE100A1CA8102103F02D
:100530004DFF1CA8B8EEC90A20EE280A80ED020A79
:10054000B8EEC90A20EE280A80ED030A18A8102187
:1005500003F03CFF18A8B8EEC90AF1EE680A20EED5
:10056000800A80ED020AB8EEC90AF1EE680A20EEB0
:10057000800A80ED030A0CA8102103F027FFB8EED3
:10058000C90A20EE280A8DED0C0AB8EEC90A20EE41
:10059000280A8DED0D0A08A8102103F017FFB8EE08
:1005A000C90AF1EE680A20EE800A8DED080AB8EE5D
:1005B000C90AF1EE680A20EE800A8DED090AB1EE53
:1005C000680AF0EE000A80EE200AF8EEC90A20EE72
:1005D000200A8DED140A14A8B1EE680AF0EE000AA4
:1005E00080EE200AF8EEC90A20EE200A80ED010A0A
:1005F000B0EE000A88EE800AF8EEC90A20EE200A62
:1006000080ED020AB0EE000A88EE800AF8EEC90A10
:1006100020EE200A80ED030AB0EE000A88EE800A80
:10062000F8EEC90A20EE200A8DED100A10A8B0EEEF
:10063000000A88EE800AF8EEC90A20EE200A80ED52
:10064000010AB1EE680AF0EE000A80EE200AF8EE28
:10065000C90A20EE200A80ED020AB1EE680AF0EE27
:10066000000A80EE200AF8EEC90A20EE200A80ED8A
:10067000030A04A8102103F0A9FE6846102103F024
:10068000A5FE9FED64AB6F4618EE100A03F0A2FEC4
:1006900002000B0051EC1A0B02F06EFADFF84C2945
:1006A000DFF8543903F0BAFE02F054FB786018EE1C
:1006B000100A03F08FFE02000B0051EC1A0B02F03F
:1006C0005BFADFF82829DFF8303903F0A7FE02F0E3
:1006D00041FBB8603078002822D1002C05D16A4651
:1006E0001CA9301D03F0BEFF8FE0012C06D104AA27
:1006F00018A916F1280003F0B5FF86E0022C06D1F8
:100700006A461CA916F14C0003F0ACFF7DE0032CF7
:100710007BD104AA18A916F1700003F0A3FF74E0BE
:10072000307801284AD1002D22D1002C05D104AA0D
:1007300010A9301D03F096FF67E0012C06D16A4630
:1007400014A916F1280003F08DFF5EE0022C06D1FB
:1007500004AA10A916F14C0003F084FF55E0032C05
:1007600053D16A4614A916F1700003F07BFF4CE0E8
:10077000012D22D1002C05D16A4614A9301D03F0A9
:1007800071FF42E0012C06D104AA10A916F128003D
:1007900003F068FF39E0022C06D16A4614A916F16D
:1007A0004C0003F05FFF30E0032C2ED104AA10A907
:1007B00016F1700003F056FF27E026E0307802289B
:1007C00022D1002C05D104AA0CA9301D03F04AFF48
:1007D0001BE0012C06D16A4608A916F1280003F097
:1007E00041FF12E0022C06D104AA0CA916F14C001C
:1007F00003F038FF09E0032C07D16A4608A916F177
:10080000700003F02FFF00E0FFE720B0BDEC068B87
:10081000F1BD00000AD7A3703D0AB73F70B52DEDBA
:10082000088B88B00400F0EE408AB0EE609AB0EE1B
:10083000418A04A8102103F0C9FD6846102103F085
:10084000C5FD0025042D0ADAB7EE000A242000FBBE
:1008500005F02044001D03F016FF6D1CF2E7DFF8E1
:10086000605C95ED000ADFED8E0AC0EE209A9FEDE8
:100870008DAAB7EE00BAF0EE4BAA2078002840F01F
:100880008A8002220021B0EE000AC9EE000AB0EE12
:10089000680A2000FFF73AFE02220121B0EE000AAA
:1008A000C9EE000AB0EE680A2000FFF72FFE022210
:1008B0000221B0EE000AC9EE000AB0EE680A20007C
:1008C000FFF724FE02220321B0EE000AC9EE000A5F
:1008D000B0EE680A2000FFF719FE0026042E31DA78
:1008E000684600EB860204A800EB8601B0EE690AB8
:1008F000242000FB06F02044001D03F0C7FEDFF8B3
:10090000E80600EBC601091D00EBC6006A4602EBD3
:10091000860292ED000A78EE400A04AA02EB8602F3
:1009200092ED000A03F0FAFB012809D003202070A1
:1009300000202860DFF8900BDFF8901B0160D7E102
:10094000761CCBE70023F1EE040A9FEDD80ADFF80E
:10095000802BDFF8801BDFF89006FFF727FC95ED72
:10096000000ADFED4F0AB4EE600AF1EE10FAC0F2B1
:10097000BF81D4F89C00012840F0BA81012020708A
:100980000020C4F89C0000202860DFF83C0BDFF852
:100990003C1B0160ACE12078012840F01081F5EEAD
:1009A000409AF1EE10FA1BDBF4EE4B9AF1EE10FADE
:1009B00016D500220021F0EE490AB0EE680A2000A8
:1009C000FFF7A4FD00220221F0EE490AB0EE680A0A
:1009D0002000FFF79BFD89EE8B0AB0EE40AA27E0CE
:1009E000F4EE4B9AF1EE10FA22DB9FEDC30AF4EE1F
:1009F000409AF1EE10FA1BD501220021F0EE490ACF
:100A0000B0EE680A2000FFF781FD01220221F0EE1E
:100A1000490AB0EE680A2000FFF778FD39EECB0AEC
:100A2000F0EE000A70EECB0A80EE200AB0EE40AA8B
:100A30006A4604A9B0EE4A0A201D03F027FE02AA66
:100A400006A9B0EE4A0A14F14C0003F01FFEF5EEC1
:100A5000409AF1EE10FA27DBB0EE000A30EE4B0AB6
:100A6000F4EE409AF1EE10FA1ED500220121F0EECC
:100A7000490AB0EE680A2000FFF748FD0022032172
:100A8000F0EE490AB0EE680A2000FFF73FFDB0EE35
:100A9000000A30EE4B0A89EE800AB0EE40AA2FE041
:100AA00000007A4400000000B0EE000A30EE4B0A6D
:100AB000F4EE409AF1EE10FA22DB9FED8F0AF4EE8D
:100AC000409AF1EE10FA1BD501220121F0EE490AFD
:100AD000B0EE680A2000FFF719FD01220321F0EEB5
:100AE000490AB0EE680A2000FFF710FD39EE8B0AC4
:100AF000F8EE000A30EE200A80EE0B0AB0EE40AAB3
:100B000001AA05A9B0EE4A0A14F1280003F0BEFDBF
:100B100003AA07A9B0EE4A0A14F1700003F0B6FD6B
:100B20000026042E22DADFF8C00400EBC601091DFE
:100B300000EBC6006A4602EB860292ED000A78EEF0
:100B4000400A04AA02EB860292ED000A03F0E6FADC
:100B5000012809D00320207000202860DFF86809F0
:100B6000DFF868190160C3E0761CDAE70023F1EED4
:100B7000040A9FED4E0ADFF85829DFF85819DFF80C
:100B80006804FFF713FB95ED000ADFED5C0AB4EE95
:100B9000600AF1EE10FAC0F2AB80D4F89C00012894
:100BA00040F0A680022020700020C4F89C000020A5
:100BB0002860DFF81409DFF81419016098E0207844
:100BC000022840F08B8002220021B0EE000AC9EE1C
:100BD000000AB0EE680A2000FFF798FC022201210B
:100BE000B0EE000AC9EE000AB0EE680A2000FFF776
:100BF0008DFC02220221B0EE000AC9EE000AB0EE1E
:100C0000680A2000FFF782FC02220321B0EE000AEE
:100C1000C9EE000AB0EE680A2000FFF777FC002654
:100C2000042E31DA684600EB860204A800EB860148
:100C3000B0EE690A242000FB06F02044001D03F0FA
:100C400025FDDFF8A40300EBC601091D00EBC6007B
:100C50006A4602EB860292ED000A78EE400A04AA88
:100C600002EB860292ED000A03F058FA012809D03F
:100C70000320207000202860DFF84C08DFF84C18B3
:100C8000016035E0761CCBE70023F1EE040A9FED0E
:100C9000070ADFF83C28DFF83C18D348FFF786FA4C
:100CA00095ED000ADFED170A02E000BF0000C84220
:100CB000B4EE600AF1EE10FA1AD1D4F89C000128C3
:100CC00016D1032020700020C4F89C00002028606A
:100CD000DFF8F407DFF8F417016009E02078032853
:100CE00005D10020C4F89800FFF766FB00E0FFE79D
:100CF00008B0BDEC088B70BD010000400000FA4454
:100D0000C80A002000007A440000F03F800A00205A
:100D1000C003002000040020D00300204006002073
:100D2000F8B52DED068BA0B00600B0EE408AF0EECF
:100D3000608A0C00150096F9010000EE100AB8EE6A
:100D4000C09A1CA8102103F041FB1CA828EE890AB8
:100D500080ED020A28EE890A80ED030A18A8102106
:100D600003F034FB18A8B1EE680A20EE090A80ED02
:100D7000020AB1EE680A20EE090A80ED030A0CA807
:100D8000102103F023FB28EE890A8DED0C0A28EED2
:100D9000890A8DED0D0A08A8102103F017FBB1EEAA
:100DA000680A20EE090A8DED080AB1EE680A20EE05
:100DB000090A8DED090AB1EE680AF0EE000A80EE2C
:100DC000200A20EE090A8DED140A14A8B1EE680A73
:100DD000F0EE000A80EE200A20EE090A80ED010AFA
:100DE000B0EE000A88EE800A20EE090A80ED020AC1
:100DF000B0EE000A88EE800A20EE090A80ED030AB0
:100E0000B0EE000A88EE800A20EE090A8DED100A85
:100E100010A8B0EE000A88EE800A20EE090A80EDE4
:100E2000010AB1EE680AF0EE000A80EE200A20EE18
:100E3000090A80ED020AB1EE680AF0EE000A80EEBF
:100E4000200A20EE090A80ED030A04A8102103F00D
:100E5000BDFA6846102103F0B9FA9FED65AB6F4605
:100E600018EE100A03F0B6FA02000B0051EC1A0B50
:100E700001F082FE5D4A604B03F0D0FA01F06AFF98
:100E8000786018EE100A03F0A5FA02000B0051EC8E
:100E90001A0B01F071FE554A574B03F0BFFA01F0EF
:100EA00059FFB8603078002822D1002C05D16A465D
:100EB0001CA9301D03F0D6FB8FE0012C06D104AA3B
:100EC0001CA916F1280003F0CDFB86E0022C06D108
:100ED0006A4618A916F14C0003F0C4FB7DE0032C10
:100EE0007BD104AA18A916F1700003F0BBFB74E0D3
:100EF000307801284AD1002D22D1002C05D104AA36
:100F000010A9301D03F0AEFB67E0012C06D16A4644
:100F100010A916F1280003F0A5FB5EE0022C06D113
:100F200004AA14A916F14C0003F09CFB55E0032C15
:100F300053D16A4614A916F1700003F093FB4CE0FC
:100F4000012D22D1002C05D16A4614A9301D03F0D1
:100F500089FB42E0012C06D104AA14A916F128004D
:100F600003F080FB39E0022C06D16A4610A916F185
:100F70004C0003F077FB30E0032C2ED104AA10A91B
:100F800016F1700003F06EFB27E026E030780228AF
:100F900022D1002C05D104AA0CA9301D03F062FB5C
:100FA0001BE0012C06D16A460CA916F1280003F0BB
:100FB00059FB12E0022C06D104AA08A916F14C0034
:100FC00003F050FB09E0032C07D16A4608A916F18B
:100FD000700003F047FB00E0FFE720B0BDEC068B9C
:100FE000F1BD0000BC030020540B002048E17A143E
:100FF0000AD7A3703D0AB73FAE47B13F70B52DED9C
:10100000088B88B00400F0EE408AB0EE609AB0EE33
:10101000418A04A8102103F0D9F96846102103F091
:10102000D5F90025042D0ADAB7EE000A242000FBCA
:1010300005F02044001D03F026FB6D1CF2E7DFF8ED
:10104000805495ED000ADFED8D0AC0EE209A9FEDE9
:101050008CAAB7EE00BAF0EE4BAA2078002840F038
:10106000888002220021B0EE000AC9EE000AB0EE2C
:10107000680A2000FFF754FE02220121B0EE000AA8
:10108000C9EE000AB0EE680A2000FFF749FE02220E
:101090000221B0EE000AC9EE000AB0EE680A200094
:1010A000FFF73EFE02220321B0EE000AC9EE000A5D
:1010B000B0EE680A2000FFF733FE0026042E31DA76
:1010C000684600EB860204A800EB8601B0EE690AD0
:1010D000242000FB06F02044001D03F0D7FADFF8BF
:1010E0000C0B00EBC601091D00EBC6006A4602EBC3
:1010F000860292ED000A78EE400A04AA02EB86020C
:1011000092ED000A03F00AF8012809D003202070AC
:1011100000202860DFF8B003DFF8B0130160C9E1F8
:10112000761CCBE70023F1EE040A9FEDD20ADFF82C
:10113000A023DFF8A013DFF8B40AFFF737F895ED26
:10114000000ADFED4E0AB4EE600AF1EE10FAC0F2CA
:10115000B181D4F89C00012840F0AC8101202070BE
:101160000020C4F89C0000202860D748D7490160BF
:10117000A0E12078012840F00A81F5EE409AF1EED6
:1011800010FA1BDBF4EE4B9AF1EE10FA16D50022A2
:101190000021F0EE490AB0EE680A2000FFF7C0FD1A
:1011A00000220221F0EE490AB0EE680A2000FFF7A3
:1011B000B7FD89EE8B0AB0EE40AA27E0F4EE4B9A19
:1011C000F1EE10FA22DB9FEDBD0AF4EE409AF1EE4B
:1011D00010FA1BD501220021F0EE490AB0EE680A90
:1011E0002000FFF79DFD01220221F0EE490AB0EE3A
:1011F000680A2000FFF794FD39EECB0AF0EE000AF2
:1012000070EECB0A80EE200AB0EE40AA6A4604A92E
:10121000B0EE4A0A201D03F039FA02AA06A9B0EE80
:101220004A0A14F14C0003F031FAF5EE409AF1EE5F
:1012300010FA27DBB0EE000A30EE4B0AF4EE409ACB
:10124000F1EE10FA1ED500220121F0EE490AB0EEAF
:10125000680A2000FFF764FD00220321F0EE490A2E
:10126000B0EE680A2000FFF75BFDB0EE000A30EE3A
:101270004B0A89EE800AB0EE40AA2FE000007A44C3
:1012800000000000B0EE000A30EE4B0AF4EE409A87
:10129000F1EE10FA22DB9FED890AF4EE409AF1EEAE
:1012A00010FA1BD501220121F0EE490AB0EE680ABE
:1012B0002000FFF735FD01220321F0EE490AB0EED0
:1012C000680A2000FFF72CFD39EE8B0AF8EE000AC1
:1012D00030EE200A80EE0B0AB0EE40AA01AA05A962
:1012E000B0EE4A0A14F1280003F0D0F903AA07A9C6
:1012F000B0EE4A0A14F1700003F0C8F90026042E7B
:1013000020DADFF8E80800EBC601091D00EBC60093
:101310006A4602EB860292ED000A78EE400A04AAC1
:1013200002EB860292ED000A02F0F8FE012807D0D7
:101330000320207000202860634864490160B9E000
:10134000761CDCE70023F1EE040A9FED4A0A604AAE
:101350006049DFF89808FEF729FF95ED000ADFEDF8
:10136000590AB4EE600AF1EE10FA40F0A380D4F806
:101370009C00012840F09E80022020700020C4F8CC
:101380009C000020286050485049016092E020787D
:10139000022840F0858002220021B0EE000AC9EE4A
:1013A000000AB0EE680A2000FFF7BAFC0222012111
:1013B000B0EE000AC9EE000AB0EE680A2000FFF79E
:1013C000AFFC02220221B0EE000AC9EE000AB0EE24
:1013D000680A2000FFF7A4FC02220321B0EE000AF5
:1013E000C9EE000AB0EE680A2000FFF799FC00265B
:1013F000042E2FDA684600EB860204A800EB860173
:10140000B0EE690A242000FB06F02044001D03F022
:101410003DF9DFF8D80700EBC601091D00EBC60057
:101420006A4602EB860292ED000A78EE400A04AAB0
:1014300002EB860292ED000A02F070FE012807D04E
:1014400003202070002028601F482049016031E0FF
:10145000761CCDE70023F1EE040A9FED060A1C4A34
:101460001C49DFF88807FEF7A1FE95ED000ADFEDC5
:101470001A0A01E00000C842B4EE600AF1EE10FA68
:1014800018DBD4F89C00012814D103202070002020
:10149000C4F89C00002028600B480C49016009E05A
:1014A0002078032805D10020C4F89800FEF784FFB7
:1014B00000E0FFE708B0BDEC088B70BD0100004004
:1014C000F00B00200000FA44B8030020000080BFA9
:1014D000940B0020740B002000007A4438B52DEDE9
:1014E000028B90B00400B0EE408AF0EE608A0CA847
:1014F000102102F06BFF04A8102102F067FF04A87E
:1015000080ED028A80ED038AB1EE680A8DED080A4B
:1015100008A8B1EE680A80ED010A80ED028A80ED2C
:10152000038A6846102102F051FF8DED008A8DED8F
:10153000018A207800280DD10025042D2DDA04AA77
:101540000CA9242000FB05F02044001D03F08AF8BC
:101550006D1CF2E7207802280DD10025042D1CDA3D
:1015600008AA0CA9242000FB05F02044001D03F06C
:1015700079F86D1CF2E7207804280DD10025042DA0
:101580000BDA6A460CA9242000FB05F02044001D5C
:1015900003F068F86D1CF2E7FFE710B0BDEC028BBA
:1015A00031BD0000F8B52DED088B88B004009FED2B
:1015B000C08ADFEDC08A9FEDC09ADFEDC09A04A813
:1015C000102102F003FF6846102102F0FFFE002503
:1015D000042D0ADAB7EE000A242000FB05F02044AF
:1015E000001D03F050F86D1CF2E7DFF82C5B95ED61
:1015F000000ADFEDB30A80EE20AA2078002867D128
:10160000F0EE680AB0EE480A2000FFF767FF0026F8
:10161000042E31DA684600EB860204A800EB86014E
:10162000B0EE4A0A242000FB06F02044001D03F01F
:101630002DF8DFF8B80500EBC601091D00EBC60068
:101640006A4602EB860292ED000A79EEC00A04AA0D
:1016500002EB860292ED000A02F060FD012809D03B
:101660000520207000202860DFF8B00ADFF8B01AEB
:1016700001601FE2761CCBE70023F1EE040A9FED28
:10168000910ADFF8A02ADFF8A01ADFF86005FEF75C
:101690008DFD95ED000ADFED8A0AB4EE600AF1EEE9
:1016A00010FAC0F20782D4F89800012840F00282B4
:1016B000012020700020C4F8980000202860DFF886
:1016C0005C0ADFF85C1A01600A2002F013FDF1E108
:1016D0002078012840F000810026042E1ADADFF875
:1016E0000C0500EBC601091D00EBC60079EEA80A47
:1016F0009FED710A02F012FD012809D0052020702B
:1017000000202860DFF8140ADFF8141A0160D1E124
:10171000761CE2E7DFF8140A90ED080ADFF8100AF9
:10172000D0ED000A30EE600A10EE100A02F052FE10
:1017300031F0004141EC1B0BDFF8B054686802F057
:1017400049FE02000B0033F0004351EC1B0B03F089
:10175000EDF80022DFF8DC3901F00EFA01F0FAFAB8
:1017600009EE100A9FED9A0AB4EE409AF1EE10FAD3
:1017700003DB9FED980AB0EE409A0020042877DA48
:101780000021022972DADFF8A02902EBC00200234F
:1017900042F8213005EBC00202EB810292ED000A13
:1017A000B5EE400AF1EE10FA2FDD002801D0032833
:1017B00015D101290AD1DFF86C2902EBC00202EB36
:1017C0008102B1EE490A82ED000A4DE0DFF85429AA
:1017D00002EBC00202EB810282ED009A44E0012993
:1017E00008D1DFF8402902EBC00202EB810282ED52
:1017F000009A39E0DFF82C2902EBC00202EB8102EB
:10180000B1EE490A82ED000A2EE0002801D003283B
:1018100015D1012908D1DFF80C2902EBC00202EB37
:10182000810282ED009A1FE0DFF8F82802EBC00287
:1018300002EB8102B1EE490A82ED000A14E00129AF
:101840000AD1DFF8E02802EBC00202EB8102B1EE20
:10185000490A82ED000A07E0DFF8C82802EBC0025F
:1018600002EB810282ED009A491C8AE7401C85E761
:10187000DFF8B468DFF8AC780523F1EE040A9FEDD9
:101880008F0A3A0031002800FEF790FC002004285F
:101890001CDA0021022917DA06EBC002002342F805
:1018A000213007EBC002002342F82130491CF1E748
:1018B000295C8F3DCDCCCC3D000000000C026B3E7E
:1018C00000007A440000C842401CE0E7C82002F053
:1018D00011FC02202070EDE02078022862D1F0EEA9
:1018E000680AB0EE480A2000FFF7F8FD0026042E33
:1018F00030DA684600EB860204A800EB8601B0EE01
:101900004A0A242000FB06F02044001D02F0BEFE1F
:10191000B64800EBC601091D00EBC6006A4602EBA3
:10192000860292ED000A79EEC00A04AA02EB860252
:1019300092ED000A02F0F2FB012809D00520207088
:1019400000202860DFF8D407DFF8D4170160B1E089
:10195000761CCCE70023F1EE040A9FEDA00ADFF825
:10196000C427DFF8C417A148FEF720FC95ED000A54
:10197000DFED9B0AB4EE600AF1EE10FAC0F29A8035
:10198000D4F89800012840F09580032020700020B2
:10199000C4F8980000202860DFF88007DFF880177F
:1019A000016087E02078032816D10323F1EE040AB2
:1019B0009FED8C0ADFF86C27DFF86C178B48FEF779
:1019C000F5FB4FF4FA6002F095FB0420207071E003
:1019D00001002042000020422078042860D1F0EE6F
:1019E000680AB0EE480A2000FFF778FD0026042EB2
:1019F00030DA684600EB860204A800EB8601B0EE00
:101A00004A0A242000FB06F02044001D02F03EFE9E
:101A1000764800EBC601091D00EBC6006A4602EBE2
:101A2000860292ED000A79EEC00A04AA02EB860251
:101A300092ED000A02F072FB012809D00520207007
:101A400000202860DFF8D406DFF8D416016031E00A
:101A5000761CCCE70023F1EE040A9FED600ADFF864
:101A6000C426DFF8C4166148FEF7A0FB95ED000A16
:101A7000DFED5B0AB4EE600AF1EE10FA1ADBD4F87F
:101A80009800012816D1052020700020C4F8980085
:101A900000202860DFF88406DFF88416016009E082
:101AA0002078052805D10020C4F89400FEF784FCB6
:101AB00000E0FFE708B0BDEC088BF1BD0000C843B3
:101AC00038B52DED068B98B00400B0EE408AF0EEEC
:101AD000608AB0EE419ADFED449A39EEA80A79EEB9
:101AE000C80A80EE200A20EE09AA10A8102102F0F0
:101AF0006DFC10A8B1EE490A80ED020AB1EE490A68
:101B000080ED030A0CA8102102F060FCB1EE4A0A35
:101B10008DED0C0A0CA8B1EE490A80ED010A80EDAA
:101B2000039A08A8102102F051FC8DED089A8DED62
:101B3000099A04A8102102F049FC04A880ED028A49
:101B400080ED038AB1EE680A8DED140A14A880EDC9
:101B5000018A80ED028A80ED038A6846102102F036
:101B600035FC8DED008A8DED018A207800280DD19D
:101B70000025042D2DDA04AA10A9242000FB05F06D
:101B80002044001D02F06EFD6D1CF2E72078022853
:101B90000DD10025042D1CDA14AA0CA9242000FB69
:101BA00005F02044001D02F05DFD6D1CF2E7207879
:101BB00004280DD10025042D0BDA6A4608A924203B
:101BC00000FB05F02044001D02F04CFD6D1CF2E707
:101BD000FFE718B0BDEC068B31BD00000000C84225
:101BE00000007A44000000000C026B3E540B002001
:101BF000F8B52DED0A8B88B004009FEDC18ADFEDAA
:101C0000C18A9FEDC19ADFEDC19A9FEDC1AA04A8D8
:101C1000102102F0DBFB6846102102F0D7FB002503
:101C2000042D0ADAB7EE000A242000FB05F0204458
:101C3000001D02F028FD6D1CF2E7DFF8DC5495ED85
:101C4000000ADFEDB40AC0EE20AA2078002869D18E
:101C5000B0EE491AF0EE680AB0EE480A2000FFF72D
:101C60002FFF0026042E31DA684600EB860204A816
:101C700000EB8601B0EE6A0A242000FB06F0204447
:101C8000001D02F003FDDFF8340800EBC601091D5A
:101C900000EBC6006A4602EB860292ED000A7AEE7D
:101CA000400A04AA02EB860292ED000A02F036FA1C
:101CB000012809D00520207000202860DFF85C048E
:101CC000DFF85C1401601BE2761CCBE70023F1EE29
:101CD000040A9FED910ADFF84C24DFF84C14DFF87A
:101CE000DC07FEF763FA95ED000ADFED8A0AB4EE31
:101CF000600AF1EE10FAC0F20382D4F898000128CD
:101D000040F0FE81012020700020C4F898000020DF
:101D10002860DFF80804DFF8081401600A2002F0E8
:101D2000E9F9EDE12078012840F000813AEE280A37
:101D30007AEE480A80EE200A20EE09BA0026042E28
:101D40001ADADFF8780700EBC601091D00EBC600C0
:101D50007AEE280AB1EE4B0A02F0E0F9012809D028
:101D60000520207000202860DFF8B003DFF8B013F2
:101D70000160C5E1761CE2E7DFF8B00390ED080AE8
:101D8000DFF8AC03D0ED000A30EE600A10EE100A66
:101D900002F020FB31F0004141EC1C0BDFF81C5736
:101DA000686802F017FB02000B0033F0004351ECAF
:101DB0001C0B02F0BBFD0022DFF8783300F0DCFEE4
:101DC00000F0C8FF09EE900A9FED950AF4EE409AE4
:101DD000F1EE10FA03DB9FED930AF0EE409A00203B
:101DE00004286FDA002102296ADADFF83C2302EBCB
:101DF000C002002342F8213005EBC00202EB810251
:101E000092ED000AB5EE400AF1EE10FA2BDD002843
:101E100001D0032813D1012909D1C24A02EBC00223
:101E200002EB8102B1EE690A82ED000A46E0BD4A8A
:101E300002EBC00202EB8102C2ED009A3EE00129F2
:101E400007D1B84A02EBC00202EB8102C2ED009A50
:101E500034E0B44A02EBC00202EB8102B1EE690A3F
:101E600082ED000A2AE0002801D0032813D10129BD
:101E700007D1AC4A02EBC00202EB8102C2ED009A2C
:101E80001CE0A84A02EBC00202EB8102B1EE690A33
:101E900082ED000A12E0012909D1A24A02EBC00238
:101EA00002EB8102B1EE690A82ED000A06E09D4A6A
:101EB00002EBC00202EB8102C2ED009A491C92E7DC
:101EC000401C8DE7984E974F0523F1EE040A9FEDD5
:101ED0008E0A3A0031002800FEF768F90020042835
:101EE0001EDA0021022919DA06EBC002002342F8AB
:101EF000213007EBC002002342F82130491CF1E7F2
:101F0000295C8F3DCDCCCC3D8FC2F53C000000005C
:101F10000C026B3E00007A440000C842401CDEE721
:101F2000C82002F0E7F802202070E9E020780228BB
:101F300060D1B0EE491AF0EE680AB0EE480A20000F
:101F4000FFF7BEFD0026042E2FDA684600EB86025E
:101F500004A800EB8601B0EE6A0A242000FB06F01C
:101F60002044001D02F092FBDFF8500500EBC60193
:101F7000091D00EBC6006A4602EB860292ED000ADC
:101F80007AEE400A04AA02EB860292ED000A02F001
:101F9000C5F8012807D005202070002028605F4880
:101FA0005F490160ACE0761CCDE70023F1EE040A46
:101FB0009FED560A5B4A5C49DFF80005FEF7F6F82C
:101FC00095ED000ADFED520AB4EE600AF1EE10FA68
:101FD000C0F29680D4F89800012840F09180032048
:101FE00020700020C4F89800002028604B484C491D
:101FF000016085E02078032816D10323F1EE040A5E
:102000009FED440A474A4849DFF8B004FEF7CEF88E
:102010004FF4FA6002F06EF80420207070E000BF08
:102020000100204200002042207804285ED1B0EE5A
:10203000491AF0EE680AB0EE480A2000FFF740FDAA
:102040000026042E2FDA684600EB860204A800EB77
:102050008601B0EE6A0A242000FB06F02044001D31
:1020600002F014FBDFF8540400EBC601091D00EB7D
:10207000C6006A4602EB860292ED000A7AEE400A3A
:1020800004AA02EB860292ED000A02F047F801284A
:1020900007D00520207000202860204820490160DA
:1020A0002EE0761CCDE70023F1EE040A9FED170A1F
:1020B0001C4A1D49DFF80404FEF778F895ED000A84
:1020C000DFED130AB4EE600AF1EE10FA18DBD4F873
:1020D0009800012814D1052020700020C4F8980031
:1020E000002028600D480E49016009E0207805288D
:1020F00005D10020C4F89400FEF75EF900E0FFE788
:1021000008B0BDEC0A8BF1BD0000C8430000C84216
:1021100000007A4400000000F00B0020B80300200B
:10212000000080BF940B0020740B002000040020EE
:10213000C003002000002440F8B52DED088BB8B096
:102140000600B0EE408AF0EE608AB0EE419A0C00D4
:102150001500DFED069A9FED05AA7078002807D1DB
:10216000F0EE489AB0EE68AA09E000BF0000000057
:102170007078012803D1F0EE689AB0EE48AA96F97B
:10218000020000EE100AF8EEC0AA24A8102102F006
:102190001DF924A829EEAA0A80ED020A29EEAA0A4E
:1021A00080ED030A20A8102102F010F920A8B1EE5A
:1021B000690A20EE2A0A80ED020AB1EE690A20EED1
:1021C0002A0A80ED030A1CA8102102F0FFF829EE6C
:1021D000AA0A8DED1C0A29EEAA0A8DED1D0A18A87F
:1021E000102102F0F3F8B1EE690A20EE2A0A8DED13
:1021F000180AB1EE690A20EE2A0A8DED190AB1EE2D
:10220000690A20EE2A0A8DED340A34A8B1EE690A73
:1022100020EE2A0A80ED010A29EEAA0A80ED020AC0
:1022200029EEAA0A80ED030A29EEAA0A8DED300AEA
:1022300030A829EEAA0A80ED010AB1EE690A20EE63
:102240002A0A80ED020AB1EE690A20EE2A0A80ED20
:10225000030A14A8102102F0B9F814A82AEE2A0AD9
:1022600080ED020A2AEE2A0A80ED030A10A8102146
:1022700002F0ACF810A8B1EE4A0A20EE2A0A80ED6E
:10228000020AB1EE4A0A20EE2A0A80ED030A0CA8DF
:10229000102102F09BF82AEE2A0A8DED0C0A2AEE94
:1022A0002A0A8DED0D0A08A8102102F08FF8B1EE70
:1022B0004A0A20EE2A0A8DED080AB1EE4A0A20EEFB
:1022C0002A0A8DED090AB1EE4A0A20EE2A0A8DED9E
:1022D0002C0A2CA8B1EE4A0A20EE2A0A80ED010A47
:1022E0002AEE2A0A80ED020A2AEE2A0A80ED030A63
:1022F0002AEE2A0A8DED280A28A82AEE2A0A80ED5D
:10230000010AB1EE4A0A20EE2A0A80ED020AB1EE75
:102310004A0A20EE2A0A80ED030A04A8102102F0DE
:1023200055F86846102102F051F89FED65BB6F46E5
:1023300019EE100A02F04EF802000B0051EC1B0BD4
:1023400000F01AFCDFF87C27DFF87C3702F066F833
:1023500000F000FD786019EE100A02F03BF8020070
:102360000B0051EC1B0B00F007FCDFF85827DFF8DF
:10237000583702F053F800F0EDFCB86030780028D0
:1023800022D1002C05D16A4624A9301D02F06AF939
:102390008FE0012C06D104AA10A916F1280002F042
:1023A00061F986E0022C06D16A4614A916F14C00A8
:1023B00002F058F97DE0032C7BD104AA20A916F184
:1023C000700002F04FF974E0307801284AD1002DF6
:1023D00022D1002C05D104AA30A9301D02F042F907
:1023E00067E0012C06D16A462CA916F1280002F0FC
:1023F00039F95EE0022C06D104AA28A916F14C0096
:1024000002F030F955E0032C53D16A4634A916F195
:10241000700002F027F94CE0012D22D1002C05D1EB
:102420006A4634A9301D02F01DF942E0012C06D1A4
:1024300004AA28A916F1280002F014F939E0022CA8
:1024400006D16A462CA916F14C0002F00BF930E0D7
:10245000032C2ED104AA30A916F1700002F002F963
:1024600027E026E03078022822D1002C05D104AAEA
:102470001CA9301D02F0F6F81BE0012C06D16A46BB
:1024800008A916F1280002F0EDF812E0022C06D19E
:1024900004AA0CA916F14C0002F0E4F809E0032CA0
:1024A00007D16A4618A916F1700002F0DBF800E0C7
:1024B000FFE738B0BDEC088BF1BD0000540B0020E5
:1024C0000AD7A3703D0AB73FF8B52DED088B88B049
:1024D0000600F0EE408AB0EE609AF0EE419AB0EE5F
:1024E000618A04A8102101F071FF6846102101F0F3
:1024F0006DFF0024042C0ADAB7EE000A242000FB4A
:1025000004F03044001D02F0BEF8641CF2E7DFF86E
:10251000BC7597ED000ADFEDB70A80EE20AADFED6B
:10252000B6AAF7EE00BAB0EE6BBA3078002840F0E9
:102530009A8002220021B0EE691AB0EE000AC9EEBC
:10254000000AB0EE000A88EE800A3000FFF7F4FDC2
:1025500002220121B0EE691AB0EE000AC9EE000AAB
:10256000B0EE000A88EE800A3000FFF7E5FD022297
:102570000221B0EE691AB0EE000AC9EE000AB0EE10
:10258000000A88EE800A3000FFF7D6FD0222032100
:10259000B0EE691AB0EE000AC9EE000AB0EE000A09
:1025A00088EE800A3000FFF7C7FD0024042C31DAE2
:1025B000684600EB840204A800EB8401B0EE4A0AEE
:1025C000242000FB04F03044001D02F05FF8DFF827
:1025D000000500EBC401091D00EBC4006A4602EBD4
:1025E000840292ED000A78EE400A04AA02EB84020B
:1025F00092ED000A01F092FD012809D0032030700D
:1026000000203860DFF8CC04DFF8CC1401604DE224
:10261000641CCBE70023F1EE040A9FEDC50ADFF846
:10262000BC24DFF8BC14DFF8A804FDF7BFFD97ED6C
:10263000000ADFED700AB4EE600AF1EE10FAC0F2A3
:102640003582D6F89C00012840F03082012030709D
:102650000020C6F89C0000203860DFF87804DFF81E
:102660007814016022E23078012840F07B81B5EED9
:1026700040AAF1EE10FA1FDBB4EE6BAAF1EE10FAED
:102680001AD500220021B0EE691AF0EE490AB0EE28
:10269000680A3000FFF750FD00220221B0EE691AEF
:1026A000F0EE490AB0EE680A3000FFF745FD8AEE09
:1026B0002B0AF0EE40AA3EE0B4EE6BAAF1EE10FA5F
:1026C00039DB9FED4E0AB4EE40AAF1EE10FA32D596
:1026D00001220021B0EE691AF0EE490AB0EE680A54
:1026E0003000FFF729FD01220221B0EE691AF0EE59
:1026F000490AB0EE680A3000FFF71EFD3AEE6B0A99
:1027000010EE100A01F066FE04000D001BEE900AA8
:1027100001F060FE02000B0000205FF0804102F03B
:10272000C3F902000B002000290001F077FE00F041
:1027300011FB0AEE900A6A4604A9B0EE6A0A301D3F
:1027400001F0A4FF02AA06A9B0EE6A0A16F14C0035
:1027500001F09CFFB5EE40AAF1EE10FA50DB1BEE43
:10276000900A01F037FE02000B0000205FF080416C
:1027700002F09AF902000B0014001D001AEE100A74
:1027800001F028FE22002B0002F000FA38D20022CD
:102790000121B0EE691AF0EE490AB0EE680A300085
:1027A000FFF7CAFC00220321B0EE691AF0EE490AD5
:1027B000B0EE680A3000FFF7BFFC1AEE100A01F015
:1027C00009FE04000D001BEE900A01F003FE02005A
:1027D0000B0000205FF0804102F066F902000B0060
:1027E0002000290001F01AFE00F0B4FA0AEE900A67
:1027F00056E000BF00007A440000000001000040E5
:102800001BEE900A01F0E6FD02000B0000205FF0D5
:10281000804102F049F902000B0014001D001AEE7D
:10282000100A01F0D7FD22002B0002F0C7F937D8BB
:102830009FEDA00AB4EE40AAF1EE10FA30D50122C5
:102840000121B0EE691AF0EE490AB0EE680A3000D4
:10285000FFF772FC01220321B0EE691AF0EE490A7B
:10286000B0EE680A3000FFF767FC3AEE2B0A10EE74
:10287000100A01F0AFFD00225FF0404302F056F86D
:1028800004000D001BEE900A01F0A4FD02000B00F5
:102890002000290001F0C2FD00F05CFA0AEE900A67
:1028A00001AA05A9B0EE6A0A16F1280001F0EEFEB1
:1028B00003AA07A9B0EE6A0A16F1700001F0E6FE5D
:1028C0000024042C22DADFF8080200EBC401091D01
:1028D00000EBC4006A4602EB840292ED000A78EE37
:1028E000400A04AA02EB840292ED000A01F016FCF1
:1028F000012809D00320307000203860DFF8D401AF
:10290000DFF8D4110160D1E0641CDAE70023F1EEB6
:10291000040A9FED070ADFF8C421DFF8C411DFF8CD
:10292000B001FDF743FC97ED000ADFED630A01E01B
:102930000000C842B4EE600AF1EE10FAC0F2B680B0
:10294000D6F89C00012840F0B180022030700020B1
:10295000C6F89C0000203860DFF87801DFF87811B5
:102960000160A3E03078022840F098800222002124
:10297000B0EE691AB0EE000AC9EE000AB0EE000A25
:1029800088EE800A3000FFF7D7FB02220121B0EE6B
:10299000691AB0EE000AC9EE000AB0EE000A88EE2D
:1029A000800A3000FFF7C8FB02220221B0EE691A4C
:1029B000B0EE000AC9EE000AB0EE000A88EE800A06
:1029C0003000FFF7B9FB02220321B0EE691AB0EE26
:1029D000000AC9EE000AB0EE000A88EE800A300054
:1029E000FFF7AAFB0024042C31DA684600EB8402CE
:1029F00004A800EB8401B0EE4A0A242000FB04F096
:102A00003044001D01F042FEDFF8C40000EBC401B9
:102A1000091D00EBC4006A4602EB840292ED000A35
:102A200078EE400A04AA02EB840292ED000A01F05B
:102A300075FB012809D00320307000203860DFF8D2
:102A40009400DFF89410016030E0641CCBE70023B1
:102A5000F1EE040A9FED190ADFF88020DFF88010FC
:102A6000DFF86C00FDF7A2FB97ED000ADFED140A1A
:102A7000B4EE600AF1EE10FA18DBD6F89C000128DB
:102A800014D1032030700020C6F89C00002038606C
:102A9000DFF84000DFF84010016007E030780328DD
:102AA00004D10020C6F89800FDF786FC08B0BDEC04
:102AB000088BF1BD010000400000FA440000C8424C
:102AC00000007A4448E17A14AE47B13FF00B002091
:102AD000540B0020B8030020000080BF940B00209E
:102AE000740B0020014648B1B0FA80F18840C91C3F
:102AF000C1F58461090501EBD02140057047F0B4B0
:102B00000246106895681318506803EB5004C0071C
:102B10001DD54D441BE013F8017B05F8017B491ED0
:102B2000F9D1A0B1B60813F8011B06F00306032E75
:102B300008BF13F8016B01EB06214942801C2944B0
:102B400005D011F8016B05F8016B401EF9D1A342C5
:102B50000ED013F8016B16F0030104BF13F8011B2C
:102B6000C91C30090F28DAD113F8010B0F30D6E752
:102B7000F0BC02F10C007047B0B581EA030C0CF018
:102B8000004C40F2FF7515EA11541DBF15EA1357AA
:102B9000AC42AF4239E0E41923EA455343F48013D1
:102BA000C90241F0004141EA505EC7021100A7FB93
:102BB000020200284FF00000EEFB01204FF0000160
:102BC000E3FB072118BF42F00102401800214941F0
:102BD000E3FB0E01A4F580640F0302D252004041D2
:102BE000494154F101046CDD470872F1004250F193
:102BF000000051EB0451A1F580115CBF41EA0C01CA
:102C0000B0BD4CEA05510020B0BD05EA1357AC42F7
:102C100014BFAF4241E050EA410E1CBF52EA430EDE
:102C200002E061460020B0BD24423C441BD15FEA73
:102C3000070EF6D0090302BF01460020AEF1140EC4
:102C4000B1FA81F7AEEB070401FA07FE0C37C7F1C2
:102C5000200100FA07F7C8404EEA000E23EA455368
:102C600043F48013A2E733F00043B3FA83F704BFC1
:102C7000B2FA82FE77440B3FE41BB7F1200E2FBF60
:102C800002FA0EF3BB40C7F1200E22FA0EFE38BF47
:102C900043EA0E03BA40641C82E750EA410E14BFB7
:102CA00052EA430E6FF000014FF4001717EB430F89
:102CB0008ABF194617EB410FB5E74CEA05510020D2
:102CC000B0BDD4F10104B4F120070FDAC4F120073C
:102CD000520828BF42F0010210FA07F501FA07F77F
:102CE000E1BF2A43E0403843E1400FE0352C98DC57
:102CF000C7F1200452EA400220FA07F218BF42F05E
:102D0000010231FA07F0A1400A43002172F10042AA
:102D100050F1000051EB0C01B0BD30B4002513E0C0
:102D200050F8042BD30744BFA9F101039A18091FD7
:102D3000042942F8045BFAD213468C0744BF15807D
:102D40009B1CC90748BF1D7050F8041B0029E7D120
:102D500030BC704701F000428B1AA3F16051B1F50D
:102D6000801F0ADBB1F17F6F1FD242EAC102C100AE
:102D700071F1004142EB507070470B15C3F109032C
:102D8000212B10D2890241EA905180020128494149
:102D900041F0004121FA03F0C3F12003994071F1A1
:102DA000004150417047100070476FF0000013EB76
:102DB000103F5CBF000E42EAC050704710B50400DF
:102DC000002C01D1012035E0A0690028FFD194F842
:102DD0004100002805D1002084F84000200001F0C7
:102DE00073FF242084F841002068C06830F400504C
:102DF0002168C860200000F06BFB2068006930F497
:102E00009040216808612068406930F02A002168FC
:102E100048612068C06850F400502168C8600020F4
:102E20006064202084F84100202084F842000020C3
:102E30006063002010BD2DE9FC4706000D0017005F
:102E40009846002496F84100202857D1002D03D041
:102E5000380080B2002801D1012050E000207064C9
:102E6000212086F8410002F025F88146B784F784D6
:102E7000B068B0F5805F05D13069002802D1002428
:102E8000AA4602E02C005FF0000AF08C002821D056
:102E9000CDF800804B4600228021300000F0B6F9CA
:102EA000002804D0202086F84100032027E0002CD1
:102EB00008D1BAF80000C005C00D316848601AF1A9
:102EC000020A03E0207831684860641CF08C401EE0
:102ED000F084DAE7CDF800804B4600224021300034
:102EE00000F094F9002804D0202086F84100032047
:102EF00005E0202086F84100002000E00220BDE827
:102F0000F68770B505000C00160095F842002028E1
:102F100010D1002C03D0300080B2002801D1012054
:102F200009E000202863320092B22100280000F05E
:102F3000AFF900E0022070BD2DE9FC4706003068C3
:102F400007683068D0F80C803068D0F81490002002
:102F5000002517F00F04002C08D1B80606D55FEA4B
:102F6000886003D5300000F038FA4DE1002C00F005
:102F700080805FEAC97002D418F4907F79D017F08E
:102F80000100C0B2002806D05FEAC85003D5706CBB
:102F900050F001007064780708D519F00100C0B244
:102FA000002803D0706C50F002007064B80708D598
:102FB00019F00100C0B2002803D0706C50F004007A
:102FC000706438070BD55FEA886004D419F00100FB
:102FD000C0B2002803D0706C50F008007064706CB0
:102FE000002845D0B80605D55FEA886002D53000D4
:102FF00000F0F3F930684069800910F00100050025
:10300000706C000701D4002D2DD0300000F062F963
:1030100030684069400622D53068143050E8000F0F
:1030200030F040000100306810F1140242E8001056
:103030000028F1D1F06B00280DD00FF20130F16BB8
:103040000865F06B01F08AFF002811D0F06BF16B7E
:10305000096D88470CE0300001F094FF08E0300073
:1030600001F090FF04E0300001F08CFF002070645C
:10307000CAE0306B012840F0B580F80640F1B2801C
:103080005FEAC86040F1AE800020009030680068C0
:1030900000903068406800900098306840694006B1
:1030A0005DD5F06B0068D0F804A0504680B20028CF
:1030B00054D05046B18D80B288424FD2A6F82EA08F
:1030C000F06BC069B0F5807F3FD030680C3050E8BD
:1030D000000F30F480700100306810F10C0242E8FB
:1030E00000100028F1D13068143050E8000F40087B
:1030F00040000100306810F1140242E8001000287E
:10310000F1D13068143050E8000F30F04000010079
:10311000306810F1140242E800100028F1D120209C
:1031200086F842000020306330680C3050E8000F11
:1031300030F010000100306810F10C0242E800107D
:103140000028F1D1F06B01F0BBFE02207063B18D5D
:10315000F08D091A89B2300001F015FF54E0B08DEE
:10316000B6F82EA0B0EB0A0AF08D002839D05046F0
:1031700080B2002835D030680C3050E8000F30F4B1
:1031800090700100306810F10C0242E80010002835
:10319000F1D13068143050E8000F400840000100C1
:1031A000306810F1140242E800100028F1D120200C
:1031B00086F842000020306330680C3050E8000F81
:1031C00030F010000100306810F10C0242E80010ED
:1031D0000028F1D102207063514689B2300001F01D
:1031E000D2FE11E0380606D55FEA086003D530004C
:1031F00000F0B0F808E0780606D55FEA486003D52D
:10320000300000F0DAF8FFE7BDE8F3872DE9FC4174
:1032100005000E0017009846089C2868006830409A
:10322000B04201D1012000E000203900C9B288423B
:103230002BD114F1010FF0D001F03CFEB0EB0800EF
:10324000844201D3002C01D103201FE02868C0680C
:103250004007E2D5802EE0D0402EDED028680068FE
:103260000007DAD5002000902868006800902868E0
:10327000406800900098280000F02CF8082068644E
:10328000002085F84000012000E00020BDE8F68124
:1032900010B4030099629A85DA85002058642220D0
:1032A00083F842001869002805D01868C06850F4F7
:1032B00080701C68E0601868406950F001001C686C
:1032C00060611868C06850F020001C68E060002051
:1032D00010BC704701680C3151E8001F31F4907147
:1032E0000A00016811F10C0343E800210029F1D123
:1032F0000168143151E8001F490849000A000168BB
:1033000011F1140343E800210029F1D1016B0129D7
:103310000DD101680C3151E8001F31F010010A0095
:10332000016811F10C0343E800210029F1D12021AB
:1033300080F84210002101637047000038B5040096
:10334000A56B0020E8850020E884280001F01AFE23
:1033500031BD0000010091F8410021282BD188687F
:10336000B0F5805F0DD1086900280AD1086A020013
:103370001088C005C00D0B685860086A801C086280
:1033800005E0086A431C0B6200780B685860C88C23
:10339000401EC88480B200280BD10868C06830F095
:1033A00080000B68D8600868C06850F040000B6867
:1033B000D860002000E00220704710B504002068AB
:1033C000C06830F040002168C860202084F84100C7
:1033D000200001F0D9FD002010BD7CB5040094F858
:1033E0004200222872D1A068B0F5805F0DD120691B
:1033F00000280AD10025A66A20684068C005C00DD3
:103400003080A06A801CA06217E0A56A0026A06830
:10341000B0F5805F05D0A068002806D1206900289B
:1034200003D120684068287004E02068406810F0EC
:103430007F002870A06A401CA062E08D401EE085DD
:1034400080B2002840D12068C06830F02000216898
:10345000C8602068C06830F480702168C860206847
:1034600040694008400021684861202084F84200FB
:1034700000206063206B012821D100202063206898
:103480000C3050E8000F30F010000100206810F1FF
:103490000C0242E800100028F1D120680068C00644
:1034A00008D50020009020680068009020684068DF
:1034B00000900098A18D200001F065FD02E0200041
:1034C00001F086FD002002E0002000E0022076BD31
:1034D0002DE9F84F84B005002868016931F44051A6
:1034E000E868014328680161D5F808B0286950EA06
:1034F0000B0B686950EA0B0BE86950EA0B0B286864
:10350000C168B24801405BEA01012868C1602868CF
:10351000416931F44071A869014328684161286814
:10352000AB49884203D02868AA49884203D102F0F7
:1035300013F8040002E002F004F80400E869B0F5B2
:10354000004F40F0A1805FF0640A022600275FF080
:1035500019085FF0000922000023A8FB020108FB04
:10356000031109FB0211CDE9000168680021A6FBE7
:10357000002306FB013307FB0033DDE9000102F005
:1035800053F86421B0FBF1F0039022000023A8FB64
:10359000020108FB031109FB0211CDE90001686873
:1035A0000021A6FB002306FB013307FB0033DDE906
:1035B000000102F039F8029022000023A8FB02016A
:1035C00008FB031109FB0211CDE900016868002125
:1035D000A6FB002306FB013307FB0033DDE90001F6
:1035E00002F022F86421B0FBF1F102980AFB11010C
:1035F000C80032306421B0FBF1F0400010F4F870E4
:10360000039910EB0110029022000023A8FB020195
:1036100008FB031109FB0211CDE9000168680021D4
:10362000A6FB002306FB013307FB0033DDE90001A5
:1036300001F0FAFF009022000023A8FB020108FB22
:10364000031109FB02118046894668680021A6FB28
:10365000002306FB013307FB00334046494601F0D7
:10366000E3FF6421B0FBF1F100980AFB110A5FEA65
:10367000CA0032306421B0FBF1F111F00701029869
:103680000918286881609EE0042600275FF0640A1C
:103690005FF019085FF0000922000023A8FB020177
:1036A00008FB031109FB0211CDE900016868002144
:1036B000A6FB002306FB013307FB0033DDE9000115
:1036C00001F0B2FF6421B0FBF1F00390220000236F
:1036D000A8FB020108FB031109FB0211CDE900015F
:1036E00068680021A6FB002306FB013307FB0033BB
:1036F000DDE9000101F098FF029022000023A8FB01
:10370000020108FB031109FB0211CDE90001686801
:103710000021A6FB002306FB013307FB0033DDE994
:10372000000101F081FF6421B0FBF1F102980AFB76
:103730001101080132306421B0FBF1F010F0F0000B
:10374000039910EB0110029022000023A8FB020154
:1037500008FB031109FB0211CDE900016868002193
:10376000A6FB002306FB013307FB0033DDE9000164
:1037700001F05AFF009022000023A8FB020108FB81
:10378000031109FB02118046894668680021A6FBE7
:10379000002306FB013307FB00334046494601F096
:1037A00043FF6421B0FBF1F100980AFB110A5FEAC4
:1037B0000A1032306421B0FBF1F111F00F010298D0
:1037C00009182868816005B0BDE8F08FF369FFFF34
:1037D00000100140001401400100DFED692AB4EE41
:1037E000620AF1EE10FA06DA9FED663AB4EE430A89
:1037F000F1EE10FA01D500203EE0F4EE620AF1EE9F
:1038000010FA04DAF4EE430AF1EE10FA01D50020C2
:1038100032E0DFED5D3AB4EE631AF1EE10FA04DA4D
:10382000B5EE401AF1EE10FA01D5002024E0DFEDEC
:10383000573AF4EE631AF1EE10FA04DAF5EE401A94
:10384000F1EE10FA01D5002016E0B4EE622AF1EE96
:1038500010FA04DAB4EE432AF1EE10FA01D5002092
:103860000AE081ED030AC1ED040A81ED051AC1EDFC
:10387000061A81ED072A0120704738B52DED068B19
:1038800004000D00B0EE408AF0EE608AB0EE419A7E
:10389000F0EE619AB0EE42AA257120782072B0EE67
:1038A0004A2AF0EE691AB0EE491AF0EE680AB0EE54
:1038B000480A2000FFF790FF002801D1002000E017
:1038C0000120BDEC068B32BD017102780272704797
:1038D00038B52DED028B04000D009FED2A8ADFED37
:1038E000698A1020B0EE681AF0EE480A94ED010AD9
:1038F00001F0B2FFA8600E20B0EE681AF0EE480AA0
:1039000094ED020A01F0A8FFE8600A209FED6D1A0D
:10391000DFED6D0A94ED030A01F09EFF2861082097
:103920009FED6A1ADFED680A94ED040A01F094FF36
:1039300068611020B0EE681AF0EE480A94ED050AAE
:1039400001F08AFFA861A8682870A868000A68705A
:10395000E868A870E868000A10F03F00296950EA9A
:103960008110E87028698008287168696871A86901
:10397000A871A869000AE871BDEC028B31BD000096
:1039800001002042000020C201C07F4401004C42DF
:103990001300DBB20A2B06D143880B7043889BB21D
:1039A0001B0A4B7007E01300DBB2092B03D103782D
:1039B0000B7000234B7070470A784B7852EA032251
:1039C00002808A788270CA78C2700A794B7952EA8A
:1039D000032282808A79CB7952EA0322C28070471F
:1039E0000A78027070470A78012A02D10122028007
:1039F00025E00A78022A02D1022202801FE00A781A
:103A0000042A02D10422028019E00A78082A02D18D
:103A10000822028013E00A78102A02D110220280C4
:103A20000DE00A78202A02D12022028007E00A78DD
:103A3000402A02D14022028001E000220280704729
:103A400038B504000D002079042805D1291D14F192
:103A50000800FFF73DFF0CE020790A2802D020790A
:103A6000092806D1227915F13C0114F13400FFF741
:103A70008FFF31BD01000879097850EA411080B20A
:103A80007047000000002042F8B504000D00160049
:103A9000257084F8466002212000FFF715FFDFF84B
:103AA0004C76201DFFF7E6FF38800020B87094F8B0
:103AB0004610380001F0FAFE002801D1002000E095
:103AC0000120F2BD00C07F440000000000004C4215
:103AD00038B52DED048B0400B0EE408AF0EE608A1C
:103AE000B0EE419A9FEDAE2AF0EE491AB0EE681A98
:103AF000DFEDAB0AB0EE480A04212000FFF7BDFE5F
:103B0000002801D1002015E0DFF8E055201DFFF767
:103B1000B1FF28800820A87029002000FFF790FF3F
:103B200094F84610280001F0C1FE002801D10020C1
:103B300000E00120BDEC048B32BD000038B52DED56
:103B4000028B0400B0EE408AF0EE608A9FED942A6A
:103B5000F0EE681A9FED921AF0EE480A9FED900A77
:103B600004212000FFF789FE002801D1002015E084
:103B7000DFF87855201DFFF77DFF28800820A8700A
:103B800029002000FFF75CFF94F84610280001F0A0
:103B90008DFE002801D1002000E00120BDEC028B49
:103BA00032BD000038B52DED028B0400B0EE408A26
:103BB000B0EE482ADFED7A1A9FED791ADFED780A28
:103BC0009FED770A04212000FFF757FE002801D15E
:103BD000002015E0DFF81455201DFFF74BFF28806B
:103BE0000820A87029002000FFF72AFF94F846104B
:103BF000280001F05BFE002801D1002000E0012038
:103C0000BDEC028B32BD000038B52DED028B0400F7
:103C1000B0EE408A9FED622AF0EE481A9FED601ADE
:103C2000DFED5F0A9FED5E0A04212000FFF725FE0D
:103C3000002801D1002015E0DFF8B054201DFFF767
:103C400019FF28800820A87029002000FFF7F8FE3F
:103C500094F84610280001F029FE002801D1002028
:103C600000E00120BDEC028B32BD000038B504003D
:103C70009FED4B2ADFED4A1A9FED491ADFED480A06
:103C80009FED470A04212000FFF7F7FD002801D12E
:103C9000002015E0DFF85454201DFFF7EBFE2880CC
:103CA0000820A87029002000FFF7CAFE94F84610EB
:103CB000280001F0FBFD002801D1002000E00120D8
:103CC00032BD000038B52DED048B0400B0EE408A03
:103CD000F0EE608AB0EE419AF0EE619AB0EE682A9A
:103CE000F0EE691AB0EE491ADFED2D0AB0EE480A7F
:103CF00004212000FFF7C1FD002801D1002015E0BC
:103D0000DFF8E853201DFFF7B5FE28800820A870D3
:103D100029002000FFF794FE94F84610280001F0D7
:103D2000C5FD002801D1002000E00120BDEC048B7E
:103D300032BD000038B52DED048B0400B0EE408A92
:103D4000F0EE608AB0EE419AB0EE682AF0EE491AC1
:103D50009FED131AF0EE480A9FED110A042120008E
:103D6000FFF78BFD002801D1002015E0DFF87C5320
:103D7000201DFFF77FFE28800820A8702900200062
:103D8000FFF75EFE94F84610280001F08FFD002832
:103D900001D1002000E00120BDEC048B32BD000009
:103DA0000000000038B52DED068B0400B0EE408A0F
:103DB000F0EE608AB0EE419AF0EE619AB0EE42AA5F
:103DC000B0EE492AF0EE4A1AB0EE691AF0EE680A2F
:103DD000B0EE480A04212000FFF74FFD002801D172
:103DE000002015E0DFF80453201DFFF743FE288074
:103DF0000820A87029002000FFF722FE94F8461042
:103E0000280001F053FD002801D1002000E001202E
:103E1000BDEC068B32BD000038B52DED068B0400DD
:103E2000B0EE408AF0EE608AB0EE419AF0EE619A10
:103E3000B0EE42AA0D00B0EE492AF0EE4A1A9FED0C
:103E4000851AF0EE680A9FED830A04212000FFF72F
:103E500014FD002801D1002078E084F845502800A6
:103E6000C0B200280BD0022823D016D3042834D0A7
:103E700029D3062849D038D3072854D065E0B0EEBE
:103E80004A1AF0EE690AB0EE480A2000FFF720FE59
:103E9000002801D1002059E057E0F0EE4A0AB0EEC8
:103EA000680A2000FFF74AFE002801D100204DE0FB
:103EB0004BE0B0EE490A2000FFF774FE002801D164
:103EC000002043E041E0B0EE4A0A2000FFF79CFEEC
:103ED000002801D1002039E037E02000FFF7C6FEBE
:103EE000002801D1002031E02FE0F0EE4A1AB0EEB8
:103EF000691AF0EE490AB0EE480A2000FFF7E2FE28
:103F0000002801D1002021E01FE0B0EE4A1AF0EEB7
:103F1000490AB0EE680A2000FFF70CFF002801D123
:103F2000002013E011E0B0EE4A2AF0EE691AB0EE7C
:103F3000491AF0EE680AB0EE480A2000FFF732FF97
:103F4000002801D1002001E0FFE70120BDEC068B35
:103F500032BD00002DE9F84F2DED028B84B0040036
:103F60000D0000200290002001900020009000260B
:103F7000002003902F78687857EA0027A87800047B
:103F800010F47020074395F802805FFA88F85FEA22
:103F900018185FFA88F8E87858EA001828790003BA
:103FA00010F47F4050EA080895F80590A87959EA7E
:103FB000002995F807A01AF0010A95F807B05FFAF2
:103FC0008BFB5FEA5B0B5FFA8BFB9FED458ADFEDB6
:103FD000458A1421F0EE680AB0EE480A380001F074
:103FE00050FC84ED000A1421F0EE680AB0EE480A95
:103FF000404601F046FC84ED010A1021F0EE680A0B
:10400000B0EE480A484601F03CFC84ED020A84F810
:104010000CA0207B00280AD10721DFED330ABBEE7C
:10402000040A584601F02DFC84ED040A0CE0207BC4
:10403000012809D10721DFED2C0ABBEE040A5846FE
:1040400001F01FFC84ED040A04B0BDEC028BBDE856
:10405000F18F00000000000070B504000D00160094
:104060003000C0B2042806D115F1510114F120002E
:10407000FFF770FF1BE03000C0B2182806D115F121
:10408000510114F13A00FFF797FC10E03000C0B284
:10409000172806D115F1510114F14200FFF7A3FCD6
:1040A00005E015F1510114F14400FFF799FC70BDD2
:1040B000F8B504000E4805682E00F6B2760915F032
:1040C0001F00B0F110073200D2B208493B00DBB24A
:1040D0004820434304EB03004838FFF7BDFFF1BD20
:1040E000000020C2000020420000484304090020D4
:1040F000B40B002070B5040000F0DCFE05002600C3
:1041000016F1010F02D004480078361800F0D2FEF4
:10411000401BB042FAD370BDFD0300202DE9F843E7
:104120002DED108B82B0B0EE40DAF0EE60DA0600D2
:104130000F009FED9F9ADFED9F9A9FED9FAA6DEE76
:104140000DAA4DEEADAA3AEE290A7AEE290A20EE22
:1041500020BAF0EE00BAB0EE4B0A09EE090A30EED2
:104160006A0A69EE2B0A39EE8A1A60EE810A80EE3D
:1041700020CAB0EE4C0A10EE101A490008000016D2
:10418000401C002801D0002100E00902002901D0D4
:10419000002008E169EE09CA49EEA9CA29EE2B0AF6
:1041A00020EE290A40EE4CCA1AEE900A00F012F9ED
:1041B00041EC100B01F0ECFBB0EE408AF0EE608AAF
:1041C0001DEE100A00F006F953EC182B00F026F94A
:1041D00041EC100B01F061FC51EC100BFEF7BAFD45
:1041E00000901CEE900A00F0F5F841EC100B01F085
:1041F000CFFBB0EE408AF0EE608A3AEEAC0A0AEEEF
:104200004A0A10EE100A00F0E5F88046894653ECA1
:10421000182B00205FF08041FEF7AEFC04000D007B
:104220001AEE900A00F0D6F841EC100B01F0B0FB4A
:1042300051EC100B22002B00FEF79EFC02000B003D
:104240004046494600F0EAF8FEF784FD0EEE100AFB
:10425000B0EE4E0A10EE101A490008000016401C7D
:10426000002801D0002100E00902002901D000202F
:1042700099E01EEE100A00F0ADF841EC100B01F0D1
:104280000CFC51EC100BFEF765FD0FEE900A9DED56
:10429000000A70EE2FEA1CEE900A00F09BF841EC49
:1042A000100B01F075FBB0EE408AF0EE608AB0EEC4
:1042B0006C0A09EE090A09EEE90A10EE100A00F08C
:1042C00089F804000D0029EE2B0A10EE100A00F008
:1042D00081F853EC182BFEF74FFC02000B00200076
:1042E000290000F09BF841EC100B01F0D6FB51ECDB
:1042F000100BFEF72FFD08EE100AB0EE480A10EE84
:10430000101A490008000016401C002801D00021A6
:1043100000E00902002901D0002044E078EE6E8A16
:104320001EEE900A00F056F802000B0024482549C2
:1043300000F0BAFB04000D0018EE100A00F04AF875
:1043400002000B002000290000F0AEFBFEF702FD8A
:104350000FEE100ADFED19BA28EEAB0A10EE100AC4
:1043600000F038F841EC100B01F09EFB51EC100B03
:104370000022154B00F052F8FEF7ECFC30602FEEF7
:104380002B0A10EE100A00F025F841EC100B01F09A
:104390008BFB51EC100B00220B4B00F03FF8FEF7AB
:1043A000D9FC3860012002B0BDEC108BBDE8F2836F
:1043B0008FC2F53D8FC2753ECDCCCC3C00007A4417
:1043C0006E861BF0F921094000408F40002201F069
:1043D0009DBB0000C0F3C75181B1FF2906D0C110B9
:1043E000400721F0E04101F16051704741020CBFEC
:1043F00040F4E0016FF000410020704700F0004100
:1044000000020AD0B0FA80FC00FA0CF001F1605111
:10441000A1EB0C5101EBD02140057047F0B540F203
:10442000FF7581EA030C0CF0004C15EA11541DBF16
:1044300015EA1357AC42AF42E5E0BC41C1F31301AA
:10444000C3F31303801A994143F4801304D2641E0A
:104450004000494180185941C90241EA5051B1FB1D
:10446000F3F603FB1611A2FB0675D7EBC020A9419A
:1044700002D2761E80185941C90241EA5051B1FB5F
:10448000F3FE03FB1E11A2FB0E75D7EBC020A94162
:1044900003D2AEF1010E80185941890241EA9051D0
:1044A000760546EA8E2EB1FBF3F603FB1611A2FB4E
:1044B0000675D7EB8020A94102D2761E801859419B
:1044C000C90241EA50514EEA060EB1FBF3F603FB76
:1044D0001611A2FB0675D7EBC020A94102D2761EA9
:1044E00080185941C90241EA5051B1FBF3F703FB6F
:1044F0001711A2FB0735D3EBC020A94167F10007D4
:104500000CBF004247F0010766F3D5274FEA1E3182
:10451000B80814F5806412DDBD0775F1004250EB58
:104520000E5051EB045111F5801F5CBF41EA0C01A4
:10453000F0BD4CF07F6141F0E0410020F0BDBD07CF
:104540006D0840EA0E5041F48011D4F10104B4F139
:1045500020060ADAC4F120060200E04001FA06F360
:10456000E1401843B24015430EE0342C13DCC6F191
:10457000200445EA40056D0820FA06F2154321FAA9
:1045800006F0A1400D43002175F1004250F10000FA
:1045900051EB0C01F0BD00205FEA0C01F0BDCFB97A
:1045A00092185B41B3FA83F704BFB2FA82F6BF19DF
:1045B0000B3FB7F120062FBF02FA06F3BB40C7F14D
:1045C000200622FA06F638BF3343BA401CB1E4197C
:1045D000641E33E77F4231F00041B1FA81F404BF39
:1045E000B0FA80F6A4190B3CB4F120062FBF00FAF4
:1045F00006F1A140C4F1200620FA06F638BF314387
:10460000A0403C1B1AE7AC421ABF05EA1357AF4261
:1046100012E050EA41061CBF52EA4306BFE750EAE7
:104620004107304661461CBF41EA0551F0BD52EAE0
:10463000430C08BFC143F0BD00204FF4001616EB39
:10464000410F98BF16EB430F08BF16EB410F24BF75
:10465000C14305E016EB430F0CBF61464CEA055120
:10466000F0BD000030B40023042B0ADA51F82340D7
:1046700040F8234000EB830452F8235025615B1C73
:10468000F2E730BC704780ED080A70472DE9F0472B
:104690002DED0C8B0600B0EE408A8A46170096ED91
:1046A000080AB4EE480AF1EE10FAC0F2378196ED2E
:1046B000080A88EE008AB7EE000A30EE480A10EECB
:1046C000100AFFF787FE41EC1A0BB7EE000A30EE36
:1046D000480A10EE100AFFF77DFE41EC1D0B18EEA4
:1046E000100AFFF777FE41EC1B0B18EE100AFFF7DC
:1046F00071FE41EC1C0BF0EE088A9FED8A9B53EC97
:104700001A2B51EC1A0BFEF737FA53EC1A2BFEF763
:1047100033FA04000D003068FFF75CFE22002B0026
:10472000FEF72AFA8046894653EC1D2B51EC1D0BEF
:10473000FEF722FA53EC192BFEF71EFA04000D00C7
:1047400018EE100AFFF746FE22002B00FEF714FABF
:1047500004000D007068FFF73DFE22002B00FEF7FD
:104760000BFA42464B4600F0E1F880468946B7EE28
:10477000000A30EE480A20EE280A10EE100AFFF771
:1047800029FE04000D0053EC1B2B51EC1B0BFEF714
:10479000F3F922002B00FEF7EFF904000D00B068DA
:1047A000FFF718FE22002B00FEF7E6F942464B46C3
:1047B00000F0BCF88046894653EC1C2B51EC1C0BD6
:1047C000FEF7DAF953EC1C2BFEF7D6F904000D00C6
:1047D000F068FFF7FFFD22002B00FEF7CDF94246FF
:1047E0004B4600F0A3F8FEF7B5FACAF80000B7EEA2
:1047F000000A30EE480A10EE100AFFF7EBFD41EC1C
:104800001A0BB7EE000A30EE480A10EE100AFFF756
:10481000E1FD41EC1D0B18EE100AFFF7DBFD41EC4A
:104820001B0B18EE100AFFF7D5FD41EC1C0B53ECE7
:104830001A2B51EC1A0BFEF79FF953EC1A2BFEF7CB
:104840009BF904000D003069FFF7C4FD22002B0026
:10485000FEF792F98046894653EC1D2B51EC1D0B57
:10486000FEF78AF953EC192BFEF786F904000D00C8
:1048700018EE100AFFF7AEFD22002B00FEF77CF9C0
:1048800004000D007069FFF7A5FD22002B00FEF764
:1048900073F942464B4600F049F880468946B7EE28
:1048A000000A30EE480A20EE280A10EE100AFFF740
:1048B00091FD04000D0053EC1B2B51EC1B0BFEF77C
:1048C0005BF922002B00FEF757F904000D00B069D8
:1048D000FFF780FD22002B00FEF74EF942464B46C3
:1048E00000F024F88046894653EC1C2B51EC1C0B3D
:1048F000FEF742F953EC1C2BFEF73EF904000D00C5
:10490000F069FFF767FD22002B00FEF735F94246FC
:104910004B4600F00BF8FEF71DFA3860BDEC0C8B2F
:10492000BDE8F087000000000000084070B44FF0C0
:10493000004591EA030F40F1BF806B40841A71EB90
:10494000030604D26E40001BB141121973414FF4AB
:10495000001C1CEB410F34BF7CEB430683E00C0DC5
:10496000A4EB1356362E00F37C80012E45EAC323B8
:1049700041DC43EA525312BFD20292025B08240583
:1049800045EAC12141EA5051D2EBC020994125D4DA
:1049900007D1B0FA80F610FA06F162D00020203676
:1049A00008E0B1FA81F6B140C6F1200220FA02F225
:1049B0001143B0404FEAF474B4EB465434F00106AE
:1049C0004FEA74040AD8D6F50016760D04F00044B8
:1049D000F04061FA06F25040F1404840C00A40EA17
:1049E000415021F0004128BF5FEA500550F100001E
:1049F00044EBD12135E0DB0A45EAC121C90AB6F111
:104A000020050EDD42EA0242120CC5F1200603FA2F
:104A100006F6EB4042EA06056D42984161F100015D
:104A20000DE062FA06F5F240554063FA06FC82EAB0
:104A30000C02F3405A406D42904161EB030111F4C6
:104A4000801F05D1641E620502D06D0040414941BE
:104A500021F48011430875F1004350F1000041EB4F
:104A6000045170BC70471CEB410F15D223F000437A
:104A700052EA43060BD04FEA4C0CBCEB410F04D872
:104A80000C0D661E342EB7DDEBE7801A994150EA13
:104A9000410608BF0021E4E708BF1CEB430F28BF15
:104AA0006FF00001DDE7000070B44FF0004591EABF
:104AB000030F7FF543AF6B40841A71EB030603D2FB
:104AC000001BB141121973414FF4001C1CEB410F44
:104AD00034BF7CEB430442E00C0DA4EB1356352E9F
:104AE0004FDC45EAC323DB0A45EAC121C912B6F10E
:104AF00020050DDD63FA05F6EB4086EA0305124258
:104B000018BF45F00105C01851F100010CD213E0A7
:104B100062FA06F5F2405540F3415A40B340F34083
:104B20005A408018594107D349085FEA30005FEACC
:104B3000350528BF45F0010501F58011420875F1E2
:104B4000004250F1000041EB04514E0016F5001FE9
:104B500070BC38BF70470020090D090570471CEB79
:104B6000410F10D252EA43060BD0BCEB410F05D8DF
:104B70000C0DAB43661E342EB6DD02E0AB4380184D
:104B8000594170BC704770BC704700004FF4001C66
:104B90001CEB410F94BF1CEB430F09E041EA030CEF
:104BA00050EA4C0C52EA0C0C03D2994208BF9042D6
:104BB000704714BF8B428242704700004FF4001CC4
:104BC0001CEB410F94BF1CEB430F09E041EA030CBF
:104BD00050EA4C0C52EA0C0C03D28B4208BF8242C2
:104BE000704714BF994290427047000080B5A148B9
:104BF000A14901605FF4E131416000218160002141
:104C0000C160002101610C2141610021816100210D
:104C1000C161FEF7D3F8002801D001F06BF901BDA6
:104C200010B5964C964820605FF4E130606000203B
:104C3000A0600020E060002020610C206061002066
:104C4000A0610020E0612000FEF7B8F8002801D044
:104C500001F050F903228B492000FEF752F910BDF4
:104C600080B58948894901605FF4E13141600021E4
:104C700081600021C160002101610C21416100219E
:104C800081610021C161FEF799F8002801D001F08F
:104C900031F901BD80B57E487E4901605FF4E131A4
:104CA0004160002181600021C160002101610C216F
:104CB0004161002181610021C161FEF77FF8002878
:104CC00001D001F017F901BD10B586B004006846A7
:104CD0001421FFF77BFB2068674988422ED1002012
:104CE00005906D48016851F080410160006810F046
:104CF000804005900598002005906848016851F0B3
:104D000020010160006810F0200005900598C02087
:104D100000900220019000200290032003900820C0
:104D2000049069465E4801F0E7F800220021522015
:104D300001F0C0FA522001F0D2FA99E020685049FF
:104D400088422ED1002005905348016851F000415F
:104D50000160006810F00040059005980020059063
:104D60004E48016851F010010160006810F0100019
:104D700005900598032000900220019000200290E9
:104D800003200390082004906946464801F0B4F8D7
:104D900000220021532001F08DFA532001F09FFAE8
:104DA00066E02068394988422FD1002005903A48B2
:104DB000016851F480210160006810F480200590A2
:104DC0000598002005903548016851F00401016004
:104DD000006810F00400059005984FF440600090C2
:104DE00002200190002002900320039007200490ED
:104DF00069462D4801F080F800220021272001F0AB
:104E000059FA272001F06BFA32E0206821498842E4
:104E10002ED1002005902548016851F02001016045
:104E2000006810F0200005900598002005901B48B0
:104E3000016851F040010160006810F040000590E9
:104E400005984FF4844000900220019000200290C9
:104E500003200390082004906946154801F04CF89F
:104E600000220021472001F025FA472001F037FAFF
:104E700006B010BDA809002000780040F00900200D
:104E8000007C0040F80B0020380A00200048004059
:104E9000800A0020001401404038024030380240AF
:104EA0000014024000100240000802404438024052
:104EB0000018024001480068704700BFF40B002052
:104EC00070B50400A56DFFF7F5FF060094F83500F6
:104ED000022806D080206065002084F8340001207C
:104EE0003BE02068006830F0160021680860206808
:104EF000406930F0800021684861206C002802D1B0
:104F0000A06C002805D02068006830F008002168F7
:104F10000860206800684008400021680860206838
:104F20000068C0070ED5FFF7C5FF801B0628F6D323
:104F300020206065032084F83500002084F83400C8
:104F400003200AE03F21E06D8140A960012084F840
:104F50003500002084F83400002070BD010091F875
:104F60003500022803D080204865012009E0052093
:104F700081F8350008680068400840000A68106041
:104F800000207047704770477047000010B504005C
:104F90002068DFF8081488420AD1DFF80414DFF82B
:104FA000040400F0DCFCDFF80004FFF781F80EE0F9
:104FB0002068DFF8F813884209D1DFF8F413DFF82E
:104FC000E40300F0CCFCDFF8EC03FFF771F810BD50
:104FD00070B505002868DFF8E013884240F0B6801D
:104FE000DFF8D8432078FF2840F0AB806078FF28B6
:104FF00040F0A780A07845286ED0462876D0472874
:105000006FD0482877D0642859D065280DD06628FD
:1050100032D067281CD0682841D06A2870D06D280B
:1050200077D06E2800F081808BE0DFF894030021B8
:105030000170012141700121C0F89810DFF884034C
:1050400000210160DFF88003DFF88013016078E061
:10505000DFF86C03002101705FF0FF314170012126
:10506000C0F89810DFF85C0300210160DFF85803F6
:10507000DFF85813016064E0DFF854030021017089
:10508000002141700121C0F89810DFF83803002199
:105090000160DFF83403DFF83413016051E0DFF81A
:1050A000300300210170012141700121C0F89810E6
:1050B000C44800210160C448C449016041E0C548BA
:1050C000002101700121C0F89410BE480021016048
:1050D000BD48BE49016034E00120B949C1F89C00D7
:1050E0002FE00120B649C1F89C002AE00120B84910
:1050F000C1F89C0025E00120B549C1F89C0020E0E2
:105100000120AF49C1F89C000120B349C1F89C00BF
:1051100017E0B24E3068FFF75DF9B14AB14BFFF7C7
:1051200005FCFDF717FE30600BE0AC4E3068FFF772
:1051300051F9AB4AAC4BFFF7F9FBFDF70BFE3060C2
:10514000FFE703222100A948FDF7DBFE70BD000048
:1051500010B504002068B0F1804F40F018819849E4
:105160000878002802D0087802281ED19FED880A0E
:105170009448D0ED000AF4EE400AF1EE10FA40F146
:105180000381D0ED000AB2EE041A70EE810AC0ED80
:10519000000AD0ED000AF4EE400AF1EE10FAC0F277
:1051A000F3800120C1F89C00EEE08B4908780028CC
:1051B00002D0087802281ED19FED750A8148D0EDF3
:1051C000000AF4EE400AF1EE10FA40F1DD80D0ED75
:1051D000000AB2EE041A70EE810AC0ED000AD0EDAA
:1051E000000AF4EE400AF1EE10FAC0F2CD80012080
:1051F000C1F89C00C8E07E490878002805D00878EE
:10520000042802D0087802282AD19FED610A6D484F
:10521000D0ED000AF4EE400AF1EE10FA40F1B4804D
:105220000A78022A08D1D0ED000A9FED5A1A70EED2
:10523000810AC0ED000A07E0D0ED000AB3EE041ABF
:1052400070EE810AC0ED000AD0ED000AF4EE400ACB
:10525000F1EE10FAC0F298800120C1F8980093E0B6
:105260005C490878002805D00878042802D008781E
:10527000022829D19FED460A5248D0ED000AF4EEEB
:10528000400AF1EE10FA40F17F800A78022A08D134
:10529000D0ED000A9FED3F1A70EE810AC0ED000AC2
:1052A00007E0D0ED000AB3EE041A70EE810AC0EDFB
:1052B000000AD0ED000AF4EE400AF1EE10FA63DBCA
:1052C0000120C1F898005FE041490878002802D029
:1052D000087802281CD19FED2E0A3A48D0ED000A2A
:1052E000F4EE400AF1EE10FA4ED5D0ED000AB2EE1F
:1052F000041A70EE810AC0ED000AD0ED000AF4EE47
:10530000400AF1EE10FA3FDB0120C1F89C003BE0BF
:1053100038490878002802D0087802281CD19FED6F
:105320001C0A2848D0ED000AF4EE400AF1EE10FA0B
:105330002AD5D0ED000AB2EE041A70EE810AC0ED53
:10534000000AD0ED000AF4EE400AF1EE10FA1BDB81
:105350000120C1F89C0017E01A4890ED000ADFED2B
:105360000E0AB4EE600AF1EE10FA08D590ED000ACC
:10537000F2EE040A30EE200A80ED000A04E000217B
:1053800001601148114901601B4801F012F810BD7D
:1053900000007A44000048420000FA4400640040E3
:1053A000040B0020040900200004002000680040D5
:1053B0002C0B002040060020007C0040F80B002051
:1053C00000000020F00B0020B8030020000080BF88
:1053D00078020020DC010020A0000020BC03002097
:1053E0007B14AE47E17A843FE17A84BFF009002064
:1053F0004001002018030020600900202DE9F04141
:1054000004000D00002C01D1012095E0584F3868B0
:1054100010F00F00A84207D23D70386810F00F005E
:10542000A84201D0012087E02078800716D5207897
:10543000400704D54F48016851F4E05101602078DD
:10544000000704D54B48016851F4604101604949A7
:105450000A6832F0F002A06802430A602078C007B0
:1054600038D56068012805D143480068800313D40B
:10547000012061E06068022802D06068032805D13D
:105480003D480068800107D4012055E03A48006893
:10549000800701D401204FE0DFF8D880D8F8001051
:1054A0008908890060680143C8F80010FFF702FD11
:1054B0000600D8F8000010F00C006168B0EB810F16
:1054C00008D0FFF7F7FC801B41F289318842F0D306
:1054D000032031E0386810F00F00854207D23D709C
:1054E000386810F00F00A84201D0012024E0207895
:1054F000400706D51F490A6832F4E052E0680243CB
:105500000A602078000707D51A48016831F4604125
:10551000226951EAC201016000F038F81749154AC2
:105520001268C2F30312895CC84015490860154827
:10553000006801F0B9F90020BDE8F081104800686A
:10554000704780B5FFF7FAFF0F490A4A1268C2F3A5
:105550008222895CC84002BD80B5FFF7EFFF0A498F
:10556000044A1268C2F34232895CC84002BD00009E
:10557000003C02400838024000380240B098000861
:10558000E4030020E0030020EC9800082DE9F0413E
:1055900000240025002600271F48006810F00C009A
:1055A000002804D0042804D0082804D031E01B4887
:1055B00030E01B482EE0DFF86C80D8F8000010F0D7
:1055C0003F000400D8F8000040020CD5D8F80000D5
:1055D000C0F388101249A1FB00012200002300F053
:1055E00023F805000BE0D8F80000C0F388100B4941
:1055F000A1FB00012200002300F016F80500D8F8F6
:105600000000C0F30140401C40000600B5FBF6F06E
:1056100000E00248BDE8F081083802400024F400B0
:10562000001BB70004380240BBBBE1B1B2F5803FBC
:1056300080F07E80022A1ED98C46B1FBF2F102FB7B
:1056400011C31B0443EA1043B3FBF2FC02FB1C33FF
:1056500080B240EA0343B3FBF2F002FB103240EAAF
:105660000C4000237047022A05D98446B0FBF2F0B3
:1056700002FB10C270474AB105D100F0010249088F
:105680005FEA3000704700220023704701F032B912
:105690000B000200002100207047904271EB030CC8
:1056A000F6D3B3F5803F2FD2F0B5B3FA83F7B1FA52
:1056B00081F4A7F10F0E3D1B5340CEF1200602FAF4
:1056C0000EF2F3415340B5F10F0746D80F3C2C447E
:1056D0004140C4F12006A040F1414140B1FBF3F646
:1056E00003FB1611A2FB0645001BA94102D2761E40
:1056F0008018594180EA010221FA0EF362FA0EF293
:1057000000215A403046F0BD30B4B1FBF3FC03FB3E
:105710001C11A2FB0C45001BA94103D2ACF1010CEA
:105720008018594130BC02460B4660460021704744
:10573000B2F1807F65D3F0B5B2FA82F7B1FA81F4A5
:10574000C7F10F063D1B22FA06F307F1110EF241D5
:1057500020355A40B5F10F07B8D94140C4F12006B1
:10576000A040F1414140B1FBF3FC03FB1C11A2FB43
:105770000C45001BA94103D2BCF1010C8018594112
:105780000F2F12D30F3FC90341EA5041B1FBF3F68B
:1057900003FB1611A2FB0645D4EBC030A94102D28F
:1057A000761E8018594146EACC3C07B34140C7F108
:1057B0002006B840F1414140B1FBF3F603FB16115E
:1057C000A2FB0645001BA94102D2761E8018594152
:1057D00080EA010221FA0EF3C7F1200462FA0EF208
:1057E0000CFA07F05A402CFA04F13043F0BD80EA7D
:1057F000010221FA0EF3002162FA0EF260465A40CD
:10580000F0BD8C46B1FBF2F102FB11C31B0243EA6F
:105810001063B3FBF2FC02FB1C331B024CEA0020BA
:1058200043EA1063B3FBF2FC02FB1C331B024CEA9D
:10583000002043EA1063B3FBF2FC02FB1C331B02A3
:105840004CEA002043EA1063B3FBF2FC02FB1C327B
:105850004CEA002000237047012111FA00F0401E9D
:1058600001EE900AF8EEE11A30EE600A21EE800AAD
:1058700071EE600A80EE200ABCEEC00A10EE100A3B
:10588000704701EE100A70EEC00AB8EE411A60EEE1
:10589000810A012010FA01F1491E01EE101AB8EE3A
:1058A000C11AC0EE810A30EE800A704770B586B02A
:1058B00004000D002800C0B2012805D02800C0B2A5
:1058C000022801D0002048E02800C0B2012802D1FF
:1058D0002B48060005E02800C0B2022801D1294863
:1058E0000600208800900020029000200390A078FD
:1058F000049000208DF81400208880B2400904280C
:1059000009D1214B221D6946300001F06FF90028B2
:1059100022D0002021E0208880B2400980B20928EE
:1059200004D0208880B240090A280AD1164B14F10D
:105930003C026946300001F059F900280CD00020E3
:105940000BE0114B14F148026946300001F04EF9AA
:10595000002801D0002000E0012006B070BD38B55D
:1059600004000D0014F15103084A0021280001F041
:10597000D0F9002801D0002000E0012032BD000055
:10598000040B00202C0B0020E40B0020B40B0020A3
:1059900051EC100B00B500F003F841EC100B00BD0A
:1059A00040F2FF7C0B0D4DD0634566D230B421EA46
:1059B000035141F4801103F2FD3C5FEA5C0C01D31A
:1059C00000184941890041EA907180004FF4401469
:1059D0000023E202D50AB1F5100107D46D081DD2EB
:1059E000091B641900184941491BF7D56D080AD2F3
:1059F0000919641B00184941491BEFD56D08F7D3FD
:105A000001E0520817D0C01861419B1AAC41001840
:105A10004941801AA941F4D452080AD0C01AA141C0
:105A20009B186C4100184941801AA941E9D45208D9
:105A3000F4D15B1C6C4161084FEA330001EB0C515F
:105A400030BC704750EA0103FBD030B4B1FA81F3A7
:105A500011B9B0FA80F41B190B3BB3F120042FBF2E
:105A600000FA04F19940C3F1200420FA04F438BF8D
:105A700021439840D3F101039DE7634514BF50EAE9
:105A8000410CDEE711F5801FDBD8D943AFF300806E
:105A90007047000041EC100B01BD80B551EC100BBC
:105AA00001F01CFBF6E7000051EC100B00B500F014
:105AB00003F841EC100B00BD40F2FF7C0CEA1152E0
:105AC00040F2FE33D21A17DD352A1DDAB2F1150382
:105AD00008DA6FEA4C53D34031EA5301C9189943AD
