:020000040800F2
:10000000980B0020F17900087577000877770008D1
:10001000797700087B7700087D77000800000000F2
:100020000000000000000000000000007F770008D2
:1000300081770008000000008377000885770008BA
:100040002D7A0008317A0008357A0008397A0008DC
:100050003D7A0008417A0008457A00088D7700084B
:10006000497A00084D7A0008517A0008557A00084C
:10007000597A00085D7A0008617A0008657A0008FC
:10008000697A00086D7A0008717A0008757A0008AC
:1000900097770008A1770008797A00087D7A000830
:1000A000817A0008857A0008897A00088D7A00082C
:1000B000AB770008917A0008957A0008997A0008D1
:1000C0009D7A0008A17A0008A57A0008A97A00089C
:1000D000AD7A0008B17A0008B57A0008B97A00084C
:1000E000BD7A0008C17A0008C57A0008C97A0008FC
:1000F000CD7A0008D17A0008D57A0008D97A0008AC
:10010000DD7A0008B5770008E17A0008E57A000892
:10011000E97A0008ED7A0008F17A0008F57A00081B
:10012000F97A0008FD7A0008017B0008057B0008C9
:10013000097B00080D7B0008117B0008157B000877
:10014000BF770008C9770008197B00081D7B0008ED
:10015000217B0008257B0008297B0008D377000855
:100160002D7B0008317B0008357B0008397B0008B7
:100170003D7B0008417B0008457B00080000000033
:10018000497B00084D7B0008DD770008E777000811
:10019000517B0008557B0008597B00085D7B0008F7
:1001A0000000000000000000617B00082DE9F8431A
:1001B0002DED108B82B0B0EE40DAF0EE60DA060082
:1001C0000F009FED8E9ADFED8E9A9FED8EAA6DEE59
:1001D0000DAA4DEEADAA3AEE290A7AEE290A20EED2
:1001E00020BAF0EE00BAB0EE4B0A09EE090A30EE82
:1001F0006A0A69EE2B0A39EE8A1A60EE810A80EEED
:1002000020CA1CEE100A00F0A3FF41EC100B00F016
:10021000C6FF51EC100B00F0C9FF019069EE09CA4E
:1002200049EEA9CA29EE2B0A20EE290A40EE4CCA53
:100230001AEE900A00F08CFF41EC100B00F0EAFF80
:10024000B0EE408AF0EE608A1DEE100A00F080FFEA
:1002500053EC182B01F060F841EC100B00F09FFFFD
:1002600051EC100B00F0A2FF00901CEE900A00F081
:100270006FFF41EC100B00F0CDFFB0EE408AF0EEC6
:10028000608A3AEEAC0A0AEE4A0A10EE100A00F052
:100290005FFF8046894653EC182B00205FF08041B9
:1002A00001F05EF904000D001AEE900A00F050FF14
:1002B00041EC100B00F0AEFF51EC100B22002B00B4
:1002C00001F04EF902000B004046494601F024F8C7
:1002D00000F06CFF0FEE900A1FEE900A00F038FF5E
:1002E00041EC100B00F05BFF51EC100B00F05EFFD7
:1002F0000FEE100A9DED000A30EE0FEA1CEE900A98
:1003000000F026FF41EC100B00F084FFB0EE408AB5
:10031000F0EE608AB0EE6C0A09EE090A09EEE90A0D
:1003200010EE100A00F014FF04000D0029EE2B0A55
:1003300010EE100A00F00CFF53EC182B01F010F92E
:1003400002000B002000290000F0E6FF41EC100B3A
:1003500000F025FF51EC100B00F028FF08EE100A0A
:1003600078EE4E8A1EEE100A00F0F2FE02000B003C
:10037000DFF89800DFF8981001F0C4F904000D00D0
:1003800018EE100A00F0E4FE02000B002000290025
:1003900001F0B8F900F00AFF0BEE900ADFED1AEA5F
:1003A00028EEAE0A10EE100A00F0D2FE41EC100B5F
:1003B00001F01AFA51EC100B0022DFF8583000F06F
:1003C000ABFF00F0F3FE30602BEEAE0A10EE100A29
:1003D00000F0BEFE41EC100B01F006FA51EC100BE0
:1003E0000022DFF8303000F097FF00F0DFFE3860C9
:1003F00002B0BDEC108BBDE8F1830000EC51B83DBC
:100400008FC2753ECDCCCC3C00007A446E861BF08A
:10041000F921094000408F402DE9FF4F81B02DEDBB
:10042000108B2DED060A8CB09DED0C0AF0EE000A43
:1004300060EE208ADFF8600B0B9000200A90DFED61
:10044000E4FA0F9808900DF120081098C8F80400FD
:100450000F9804909FEDDF0ADDED110A60EE800A2F
:100460009FEDDD1AC0EE810ACDED050A0D980290D0
:10047000DDED110A20EE800ADFEDD70A80EE200ABA
:100480008DED030A0D9806900DF118090E98C9F824
:1004900004009DF89800002840F0B682239890ED63
:1004A000000AF4EE408AF1EE10FAC0F24781239878
:1004B00090ED000A80EE280AB0EE408AB7EE000AFE
:1004C00030EE480A10EE100A00F042FE41EC1B0B21
:1004D000B7EE000A30EE480A10EE100A00F038FEBF
:1004E00041EC1C0B18EE100A00F032FE41EC1D0B23
:1004F00018EE100A00F02CFE41EC1E0BB0EE08AA1C
:100500009FEDB19B53EC1B2B51EC1B0B01F028F81A
:1005100053EC1B2B01F024F804000D00069800F0AA
:1005200017FE22002B0001F01BF804000D0053EC15
:100530001C2B51EC1C0B01F013F853EC192B01F0A0
:100540000FF806000F0018EE100A00F001FE32004E
:100550003B0001F005F806000F00029800F0F8FDDE
:1005600032003B0000F0FCFF22002B0001F06EF98E
:1005700004000D00B7EE000A30EE480A20EE0A0A29
:1005800010EE100A00F0E4FD06000F0053EC1D2BE6
:1005900051EC1D0B00F0E4FF32003B0000F0E0FFE7
:1005A00006000F00049800F0D3FD32003B0000F07D
:1005B000D7FF22002B0001F049F904000D0053EC95
:1005C0001E2B51EC1E0B00F0CBFF53EC1E2B00F04A
:1005D000C7FF06000F00089800F0BAFD32003B008C
:1005E00000F0BEFF22002B0001F030F900F0DEFD2C
:1005F0000190B7EE000A30EE480A10EE100A00F043
:10060000A7FD41EC1B0BB7EE000A30EE480A10EED6
:10061000100A00F09DFD41EC1C0B18EE100A00F0D2
:1006200097FD41EC1D0B18EE100A00F091FD41EC16
:100630001E0B1FEE900A00F08BFD82468B4653EC9A
:100640001B2B51EC1B0B00F08BFF53EC1B2B00F012
:1006500087FF04000D00D9F8040000F079FD2200A6
:100660002B0000F07DFF04000D0053EC1C2B51EC1F
:100670001C0B00F075FF53EC192B00F071FF060006
:100680000F0018EE100A00F063FD32003B0000F08E
:1006900067FF06000F00039800F05AFD32003B0090
:1006A00000F05EFF22002B0001F0D0F804000D00E6
:1006B000B7EE000A30EE480A20EE0A0A10EE100AE1
:1006C00000F046FD06000F0053EC1D2B51EC1D0BF6
:1006D00000F046FF32003B0000F042FF06000F0032
:1006E000059800F035FD32003B0000F039FF220094
:1006F0002B0001F0ABF804000D0053EC1E2B51EC65
:100700001E0B00F02DFF53EC1E2B00F029FF0600FE
:100710000F00D8F8040000F01BFD32003B0000F091
:100720001FFF22002B0001F091F802000B00504641
:10073000594600F0E7FF00F039FD0090239890ED56
:10074000000AF4EE408AF1EE10FA40F15D81239840
:1007500090ED000ADFED210AB4EE600AF1EE10FA26
:1007600040F15281239890ED000A30EE680AF0EED5
:10077000000A70EEE80A80EE200AB0EE408AB7EE7A
:10078000000A30EE480A10EE100A00F0E1FC41ECDD
:100790001A0BB7EE000A30EE480A10EE100A00F00D
:1007A000D7FC41EC1B0B18EE100A00F0D1FC41EC19
:1007B0001C0B18EE100A00F0CBFC41EC1D0BB0EE48
:1007C00008FA9FED019B0BE00000000000000840CC
:1007D000C8987B3EEC51B83D713D8A3D0100004018
:1007E00053EC1A2B51EC1A0B00F0BAFE53EC1A2BF7
:1007F00000F0B6FE04000D00089800F0A9FC2200ED
:100800002B0000F0ADFE04000D0053EC1B2B51EC4F
:100810001B0B00F0A5FE53EC192B00F0A1FE060007
:100820000F0018EE100A00F093FC32003B0000F0BD
:1008300097FE06000F00049800F08AFC32003B008F
:1008400000F08EFE22002B0001F000F804000D00E5
:10085000B7EE000A30EE480A20EE0F0A10EE100A3A
:1008600000F076FC06000F0053EC1C2B51EC1C0B27
:1008700000F076FE32003B0000F072FE06000F0032
:10088000029800F065FC32003B0000F069FE220097
:100890002B0000F0DBFF04000D0053EC1D2B51EC8E
:1008A0001D0B00F05DFE53EC1D2B00F059FE060001
:1008B0000F00069800F04CFC32003B0000F050FEA8
:1008C00022002B0000F0C2FF00F070FC0190B7EE98
:1008D000000A30EE480A10EE100A00F039FC41EC34
:1008E0001A0BB7EE000A30EE480A10EE100A00F0BC
:1008F0002FFC41EC1B0B18EE100A00F029FC41EC18
:100900001C0B18EE100A00F023FC41EC1D0B9FEDB0
:10091000ECEB1FEE900A00F01BFC82468B4653EC7A
:100920001A2B51EC1A0B00F01BFE53EC1A2B00F0A3
:1009300017FE04000D00D8F8040000F009FC2200A6
:100940002B0000F00DFE04000D0053EC1B2B51ECAE
:100950001B0B00F005FE53EC192B00F001FE060006
:100960000F0018EE100A00F0F3FB32003B0000F01D
:10097000F7FD53EC1E2B00F0F3FD22002B0000F0DE
:1009800065FF04000D00B7EE000A30EE480A20EEC5
:100990000F0A10EE100A00F0DBFB06000F0053EC0C
:1009A0001C2B51EC1C0B00F0DBFD32003B0000F077
:1009B000D7FD53EC1E2B00F0D3FD22002B0000F0DE
:1009C00045FF04000D0053EC1D2B51EC1D0B00F0F6
:1009D000C7FD53EC1D2B00F0C3FD06000F00D9F836
:1009E000040000F0B5FB32003B0000F0B9FD22002E
:1009F0002B0000F02BFF02000B005046594600F080
:100A000081FE00F0D3FB00909DF89800012840F093
:100A1000B282239890ED000AF4EE408AF1EE10FACB
:100A2000C0F23F81239890ED000A80EE280AB0EED4
:100A3000408AB7EE000A30EE480A10EE100A00F0C5
:100A400087FB41EC1A0BB7EE000A30EE480A10EEB5
:100A5000100A00F07DFB41EC1B0B18EE100A00F0B1
:100A600077FB41EC1C0B18EE100A00F071FB41EC17
:100A70001D0BB0EE08FA9FED949B53EC1A2B51EC32
:100A80001A0B00F06DFD53EC1A2B00F069FD040009
:100A90000D00069800F05CFB22002B0000F060FDCA
:100AA00004000D0053EC1B2B51EC1B0B00F058FD08
:100AB00053EC192B00F054FD06000F0018EE100A3D
:100AC00000F046FB32003B0000F04AFD06000F003C
:100AD000029800F03DFB32003B0000F041FD220097
:100AE0002B0000F0B3FE04000D00B7EE000A30EE5C
:100AF000480A20EE0F0A10EE100A00F029FB06004B
:100B00000F0053EC1C2B51EC1C0B00F029FD3200A4
:100B10003B0000F025FD06000F00049800F018FBD4
:100B200032003B0000F01CFD22002B0000F08EFE86
:100B300004000D0053EC1D2B51EC1D0B00F010FDBB
:100B400053EC1D2B00F00CFD06000F00089800F080
:100B5000FFFA32003B0000F003FD22002B0000F002
:100B600075FE00F023FB0190B7EE000A30EE480A54
:100B700010EE100A00F0ECFA41EC1A0BB7EE000A86
:100B800030EE480A10EE100A00F0E2FA41EC1B0BBE
:100B900018EE100A00F0DCFA41EC1C0B18EE100AFB
:100BA00000F0D6FA41EC1D0B9FED45EB1FEE900ACD
:100BB00000F0CEFA82468B4653EC1A2B51EC1A0BFE
:100BC00000F0CEFC53EC1A2B00F0CAFC04000D0020
:100BD000D9F8040000F0BCFA22002B0000F0C0FCA1
:100BE00004000D0053EC1B2B51EC1B0B00F0B8FC68
:100BF00053EC192B00F0B4FC06000F0018EE100A9D
:100C000000F0A6FA32003B0000F0AAFC53EC1E2BC9
:100C100000F0A6FC22002B0000F018FE04000D00DE
:100C2000B7EE000A30EE480A20EE0F0A10EE100A66
:100C300000F08EFA06000F0053EC1C2B51EC1C0B3D
:100C400000F08EFC32003B0000F08AFC53EC1E2BBF
:100C500000F086FC22002B0000F0F8FD04000D00DF
:100C600053EC1D2B51EC1D0B00F07AFC53EC1D2BAB
:100C700000F076FC06000F00D8F8040000F068FAD7
:100C800032003B0000F06CFC22002B0000F0DEFD87
:100C900002000B005046594600F034FD00F086FA81
:100CA0000090239890ED000AF4EE408AF1EE10FADD
:100CB00040F16181239890ED000ADFEDB60A07E06C
:100CC00000000000000000000000000000000840DC
:100CD000B4EE600AF1EE10FA40F14D81239890EDE8
:100CE000000A30EE680AF0EE000A70EEE80A80EEC4
:100CF000200AB0EE408AB7EE000A30EE480A10EE45
:100D0000100A00F025FA41EC1B0BB7EE000A30EE9A
:100D1000480A10EE100A00F01BFA41EC1C0B18EE0A
:100D2000100A00F015FA41EC1D0B18EE100A00F045
:100D30000FFA41EC1E0BB0EE08AA9FED989B53EC06
:100D40001B2B51EC1B0B00F00BFC53EC1B2B00F08E
:100D500007FC04000D00089800F0FAF922002B00AF
:100D600000F0FEFB04000D0053EC1C2B51EC1C0B9F
:100D700000F0F6FB53EC192B00F0F2FB06000F001D
:100D800018EE100A00F0E4F932003B0000F0E8FB36
:100D900006000F00049800F0DBF932003B0000F081
:100DA000DFFB22002B0000F051FD04000D00B7EE28
:100DB000000A30EE480A20EE0A0A10EE100A00F08F
:100DC000C7F906000F0053EC1D2B51EC1D0B00F072
:100DD000C7FB32003B0000F0C3FB06000F00029887
:100DE00000F0B6F932003B0000F0BAFB22002B0005
:100DF00000F02CFD04000D0053EC1E2B51EC1E0BDB
:100E000000F0AEFB53EC1E2B00F0AAFB06000F0017
:100E1000069800F09DF932003B0000F0A1FB220093
:100E20002B0000F013FD00F0C1F90190B7EE000AAD
:100E300030EE480A10EE100A00F08AF941EC1B0B64
:100E4000B7EE000A30EE480A10EE100A00F080F902
:100E500041EC1C0B18EE100A00F07AF941EC1D0B66
:100E600018EE100A00F074F941EC1E0B1FEE900A08
:100E700000F06EF982468B4653EC1B2B51EC1B0B9A
:100E800000F06EFB53EC1B2B00F06AFB04000D001E
:100E9000D8F8040000F05CF922002B0000F060FBA1
:100EA00004000D0053EC1C2B51EC1C0B00F058FB04
:100EB00053EC192B00F054FB06000F0018EE100A3B
:100EC00000F046F932003B0000F04AFB06000F003C
:100ED000059800F03DF932003B0000F041FB220094
:100EE0002B0000F0B3FC04000D00B7EE000A30EE5A
:100EF000480A20EE0A0A10EE100A00F029F906004E
:100F00000F0053EC1D2B51EC1D0B00F029FB3200A0
:100F10003B0000F025FB06000F00039800F018F9D5
:100F200032003B0000F01CFB22002B0000F08EFC86
:100F300004000D0053EC1E2B51EC1E0B00F010FBB7
:100F400053EC1E2B00F00CFB06000F00D9F8040038
:100F500000F0FEF832003B0000F002FB22002B0004
:100F600000F074FC02000B005046594600F0CAFB2A
:100F700000F01CF9009025992498DDED000A9DED04
:100F8000010AFFF713F912B0BDEC108B05B0BDE8F4
:100F9000F08F000001000040D00F49400000000029
:100FA0000000084070B52DED068B04000D00B0EE7A
:100FB000408AF0EE608AB0EE419AF0EE619AB0EEAF
:100FC00042AAF0EE62AA16003000C0B200284DD14D
:100FD000F0EE6A2AB0EE4A2AF0EE691AB0EE491A2B
:100FE000F0EE680AB0EE480A00232A1D290020000E
:100FF000FFF712FAF0EE6A2AB0EE492AF0EE681A0C
:10100000B0EE4A1AF0EE690AB0EE480A012315F173
:101010000C0215F108012000FFF7FEF9F0EE6A2A34
:10102000B0EE4A2AF0EE691AB0EE491AF0EE680AFC
:10103000B0EE480A002315F1140215F1100120004A
:10104000FFF7EAF9F0EE6A2AB0EE492AF0EE681AE4
:10105000B0EE4A1AF0EE690AB0EE480A012315F123
:101060001C0215F118012000FFF7D6F93000C0B2BC
:1010700001284DD1F0EE6A2AB0EE492AF0EE681A46
:10108000B0EE4A1AF0EE690AB0EE480A00232A1DB3
:1010900029002000FFF7C0F9F0EE6A2AB0EE4A2AD4
:1010A000F0EE691AB0EE491AF0EE680AB0EE480A9E
:1010B000012315F10C0215F108012000FFF7ACF92E
:1010C000F0EE6A2AB0EE492AF0EE681AB0EE4A1A3B
:1010D000F0EE690AB0EE480A002315F1140215F18A
:1010E00010012000FFF798F9F0EE6A2AB0EE4A2AC4
:1010F000F0EE691AB0EE491AF0EE680AB0EE480A4E
:10110000012315F11C0215F118012000FFF784F9E5
:10111000BDEC068B70BD30B4002513E050F8042BF5
:10112000D30744BFA9F101039A18091F042942F803
:10113000045BFAD213468C0744BF15809B1CC90779
:1011400048BF1D7050F8041B0029E7D130BC704720
:10115000C0F3C75181B1FF2906D0C110400721F06B
:10116000E04101F16051704741020CBF40F4E001E1
:101170006FF000410020704700F0004100020AD0EB
:10118000B0FA80FC00FA0CF001F16051A1EB0C51B7
:1011900001EBD0214005704741EC100B01BD80B53B
:1011A00051EC100B00F010FCF6E7000001F00042DB
:1011B0008B1AA3F16051B1F5801F0ADBB1F17F6F8B
:1011C0001FD242EAC102C10071F1004142EB5070EE
:1011D00070470B15C3F10903212B10D2890241EA94
:1011E000905180020128494141F0004121FA03F069
:1011F000C3F12003994071F1004150417047100044
:1012000070476FF0000013EB103F5CBF000E42EA26
:10121000C050704751EC100B00B500F003F841ECE2
:10122000100B00BD40F2FF7C0B0D4DD0634566D224
:1012300030B421EA035141F4801103F2FD3C5FEA2E
:101240005C0C01D300184941890041EA907180008B
:101250004FF440140023E202D50AB1F5100107D47F
:101260006D081DD2091B641900184941491BF7D5A7
:101270006D080AD20919641B00184941491BEFD5B2
:101280006D08F7D301E0520817D0C01861419B1ACE
:10129000AC4100184941801AA941F4D452080AD03F
:1012A000C01AA1419B186C4100184941801AA941FC
:1012B000E9D45208F4D15B1C6C4161084FEA330059
:1012C00001EB0C5130BC704750EA0103FBD030B445
:1012D000B1FA81F311B9B0FA80F41B190B3BB3F1E9
:1012E00020042FBF00FA04F19940C3F1200420FA32
:1012F00004F438BF21439840D3F101039DE76345CF
:1013000014BF50EA410CDEE711F5801FDBD8D9434A
:10131000AFF3008070470000F0B540F2FF7581EA3E
:10132000030C0CF0004C15EA11541DBF15EA1357BD
:10133000AC42AF42E5E0BC41C1F31301C3F3130378
:10134000801A994143F4801304D2641E400049413D
:1013500080185941C90241EA5051B1FBF3F603FB31
:101360001611A2FB0675D7EBC020A94102D2761E4A
:1013700080185941C90241EA5051B1FBF3FE03FB09
:101380001E11A2FB0E75D7EBC020A94103D2AEF10E
:10139000010E80185941890241EA9051760546EACA
:1013A0008E2EB1FBF3F603FB1611A2FB0675D7EBED
:1013B0008020A94102D2761E80185941C90241EA13
:1013C00050514EEA060EB1FBF3F603FB1611A2FBD9
:1013D0000675D7EBC020A94102D2761E801859416C
:1013E000C90241EA5051B1FBF3F703FB1711A2FB0D
:1013F0000735D3EBC020A94167F100070CBF0042BD
:1014000047F0010766F3D5274FEA1E31B80814F5F7
:10141000806412DDBD0775F1004250EB0E5051EBB8
:10142000045111F5801F5CBF41EA0C01F0BD4CF086
:101430007F6141F0E0410020F0BDBD076D0840EA4A
:101440000E5041F48011D4F10104B4F120060ADAFF
:10145000C4F120060200E04001FA06F3E14018431F
:10146000B24015430EE0342C13DCC6F1200445EAEB
:1014700040056D0820FA06F2154321FA06F0A14056
:101480000D43002175F1004250F1000051EB0C01B9
:10149000F0BD00205FEA0C01F0BDCFB992185B41AE
:1014A000B3FA83F704BFB2FA82F6BF190B3FB7F164
:1014B00020062FBF02FA06F3BB40C7F1200622FA2E
:1014C00006F638BF3343BA401CB1E419641E33E753
:1014D0007F4231F00041B1FA81F404BFB0FA80F6E6
:1014E000A4190B3CB4F120062FBF00FA06F1A1406D
:1014F000C4F1200620FA06F638BF3143A0403C1B59
:101500001AE7AC421ABF05EA1357AF4212E050EA9D
:1015100041061CBF52EA4306BFE750EA4107304686
:1015200061461CBF41EA0551F0BD52EA430C08BFB9
:10153000C143F0BD00204FF4001616EB410F98BFD9
:1015400016EB430F08BF16EB410F24BFC14305E064
:1015500016EB430F0CBF61464CEA0551F0BD00008D
:10156000B0B581EA030C0CF0004C40F2FF7515EAAF
:1015700011541DBF15EA1357AC42AF4239E0E419CC
:1015800023EA455343F48013C90241F0004141EA84
:10159000505EC7021100A7FB020200284FF00000B6
:1015A000EEFB01204FF00001E3FB072118BF42F0E2
:1015B0000102401800214941E3FB0E01A4F58064BB
:1015C0000F0302D252004041494154F101046CDD45
:1015D000470872F1004250F1000051EB0451A1F5AF
:1015E00080115CBF41EA0C01B0BD4CEA05510020FE
:1015F000B0BD05EA1357AC4214BFAF4241E050EA18
:10160000410E1CBF52EA430E02E061460020B0BD0D
:1016100024423C441BD15FEA070EF6D0090302BF07
:1016200001460020AEF1140EB1FA81F7AEEB0704CB
:1016300001FA07FE0C37C7F1200100FA07F7C8408E
:101640004EEA000E23EA455343F48013A2E733F039
:101650000043B3FA83F704BFB2FA82FE77440B3F2C
:10166000E41BB7F1200E2FBF02FA0EF3BB40C7F107
:10167000200E22FA0EFE38BF43EA0E03BA40641C65
:1016800082E750EA410E14BF52EA430E6FF00001A8
:101690004FF4001717EB430F8ABF194617EB410FA2
:1016A000B5E74CEA05510020B0BDD4F10104B4F116
:1016B00020070FDAC4F12007520828BF42F00102C8
:1016C00010FA07F501FA07F7E1BF2A43E040384373
:1016D000E1400FE0352C98DCC7F1200452EA4002CB
:1016E00020FA07F218BF42F0010231FA07F0A140D8
:1016F0000A43002172F1004250F1000051EB0C014D
:10170000B0BD000070B44FF0004591EA030F40F106
:10171000A5806B40841A71EB030603D2001BB14114
:10172000121973414FF4001C1CEB410F34BF7CEBCA
:10173000430442E00C0DA4EB1356352E4FDC45EA72
:10174000C323DB0A45EAC121C912B6F120050DDD2C
:1017500063FA05F6EB4086EA0305124218BF45F02E
:101760000105C01851F100010CD213E062FA06F530
:10177000F2405540F3415A40B340F3405A4080187C
:10178000594107D349085FEA30005FEA350528BFB1
:1017900045F0010501F58011420875F1004250F154
:1017A000000041EB04514E0016F5001F70BC38BF1D
:1017B00070470020090D090570471CEB410F10D23E
:1017C00052EA43060BD0BCEB410F05D80C0DAB43DE
:1017D000661E342EB6DD02E0AB438018594170BC62
:1017E000704770BC7047000051EC100B00B500F062
:1017F00003F841EC100B00BD40F2FF7C0CEA1152E3
:1018000040F2FE33D21A17DD352A1DDAB2F1150384
:1018100008DA6FEA4C53D34031EA5301C9189943AF
:10182000002070476FF00002DA4030EA5200801862
:1018300041F100019043704701F0004104BF41F0C5
:101840007C5141F4700100207047000070B44FF0EB
:10185000004591EA030F7FF55DAF6B40841A71EB91
:10186000030604D26E40001BB141121973414FF4BC
:10187000001C1CEB410F34BF7CEB430683E00C0DD6
:10188000A4EB1356362E00F37C80012E45EAC323C9
:1018900041DC43EA525312BFD20292025B08240594
:1018A00045EAC12141EA5051D2EBC020994125D4EB
:1018B00007D1B0FA80F610FA06F162D00020203687
:1018C00008E0B1FA81F6B140C6F1200220FA02F236
:1018D0001143B0404FEAF474B4EB465434F00106BF
:1018E0004FEA74040AD8D6F50016760D04F00044C9
:1018F000F04061FA06F25040F1404840C00A40EA28
:10190000415021F0004128BF5FEA500550F100002E
:1019100044EBD12135E0DB0A45EAC121C90AB6F121
:1019200020050EDD42EA0242120CC5F1200603FA40
:1019300006F6EB4042EA06056D42984161F100016E
:101940000DE062FA06F5F240554063FA06FC82EAC1
:101950000C02F3405A406D42904161EB030111F4D7
:10196000801F05D1641E620502D06D0040414941CF
:1019700021F48011430875F1004350F1000041EB60
:10198000045170BC70471CEB410F15D223F000438B
:1019900052EA43060BD04FEA4C0CBCEB410F04D883
:1019A0000C0D661E342EB7DDEBE7801A994150EA24
:1019B000410608BF0021E4E708BF1CEB430F28BF26
:1019C0006FF00001DDE70000D0B541EC100B4800DE
:1019D0004015401C2DED048B04D1090318BF51ECB8
:1019E000100B48D157EC106B51EC100BC80F21F0C5
:1019F0000040074647EC186B9FED219B14BF042461
:101A0000022451EC190B53EC182BFFF77BFE064612
:101A10000F4653EC182B51EC190BFFF717FF32460A
:101A20003B46FFF79DFDFFF7FDFB41EC190B51EC29
:101A3000180B154A154B00F02BF838BF53EC192B37
:101A40000AD301220D4B00F023F80ED284F00204D9
:101A500051EC190B53EC182BFFF75EFCBDEC048B1B
:101A60002246BDE8D04000F02BB8AFF300804FF025
:101A7000FF306FF00041BDEC048BD0BD0000F03FA3
:101A8000000000000000F03FCE3B7F669EA0E63FD6
:101A90004FF4001C1CEB410F94BF1CEB430F09E0FB
:101AA00041EA030C50EA4C0C52EA0C0C03D2994266
:101AB00008BF9042704714BF8B42824270470000BB
:101AC000D0B52DED048B41EC180B144653EC182BBC
:101AD00000206E4900F0DCF808BF9FED578B00F046
:101AE000838051EC180B564A564B00F0E1F81DD894
:101AF0009FED559B53EC182B51EC190BFFF730FD64
:101B00000022534BFFF7A2FE06460F4653EC182B5C
:101B100051EC190BFFF79AFE02460B463046394648
:101B2000FFF7FAFB41EC180B44F0010451EC180BE1
:101B300021F0004101224FF0795300F0B9F853D859
:101B400053EC182B51EC180BFFF70AFD41EC190B65
:101B500053EC182BFFF704FD06460F4653EC192BE8
:101B60003C483D49FFF7FCFC3C4A3D4BFFF76EFE0D
:101B700053EC192BFFF7F4FC3A4A3B4BFFF766FE98
:101B800032463B46FFF7ECFC53EC182BFFF75EFEAA
:101B900006460F4653EC192B34483549FFF7E0FC55
:101BA000344A354BFFF752FE53EC192BFFF7D8FCA4
:101BB000324A334BFFF74AFE53EC192BFFF7D0FCA8
:101BC000304A314BFFF742FE53EC192BFFF7C8FCAC
:101BD00000222E4BFFF73AFE02460B4630463946AE
:101BE000FFF79AFB41EC180BA00705D551EC180B39
:101BF00081F0004141EC180B14F007020CD00D4BA2
:101C00007B44303303EBC20251EC180B536812686B
:101C1000FFF71CFE41EC180B200705D551EC180B03
:101C200081F0004141EC180B51EC180BBDEC048B1A
:101C3000D0BD00BF3C5C0000182D4454FB21E93F9F
:101C400057CD9E5E1426D13FAA4C58E87AB6FB3F8A
:101C50000000F0BF845D57134B57B03FB2934C194F
:101C6000ED5EE43FBEDE02B90240F83FDE39028F8E
:101C7000C7C0743F8AAB1283000CC83F24D7E50865
:101C8000B6D8F03F0F34580E5895FD3F0000F03F96
:101C900090420CD141EA030C50EA4C0C07D0994217
:101CA00005D14FF4001C1CEB410F38BF894270472F
:101CB0004FF4001C1CEB410F94BF1CEB430F09E0D9
:101CC00041EA030C50EA4C0C52EA0C0C03D28B4252
:101CD00008BF8242704714BF99429042704700008B
:101CE00010B50400002C01D101201AE094F8340052
:101CF000002804D100202077200000F01BFF0320E3
:101D000084F83400200000F00DF8002801D00120F4
:101D100007E00020A06300202063012084F8340045
:101D2000002010BDF0B589B0040000200390002011
:101D30000490002005900020069000200790762057
:101D4000089003A983B06846182200F055FF0EBC26
:101D5000206800F095FF07003800C0B2002801D0CD
:101D600001203CE0DFF8305600202860206800F0B9
:101D7000A8FF01202860022001F0EEFA200000F008
:101D8000E9FD0600002E07D0012084F83400A06B86
:101D90003043A063012022E0200000F056FD050042
:101DA000002D07D0012084F83400A06B2843A063E5
:101DB000012014E04FF40071206800F0C0FF010022
:101DC00000290BD0DFF8D40522689063A06B08438C
:101DD000A063012084F83400012000E0002009B055
:101DE000F0BD2DE9FF4F87B08146149C01F0C8FA81
:101DF0000090DDF824A0DDF820B00898002807D175
:101E0000D9F8380050F00060C9F8380001206DE1C1
:101E100099F83400012840F062810020C9F83800A8
:101E2000D9F85C000A9911EB0A01884207D2D9F867
:101E3000380050F00070C9F83800012056E1032046
:101E400089F834000020D9F80010C862D9F844009D
:101E5000012803D04FF4007000FB0AFA5FF0FF3056
:101E600001900A994FF40070414302919020039031
:101E700002200490002005900120069001A9D9F8C5
:101E8000000000F045FF0A98022809D30220C9F893
:101E900030005146D9F8000000F085FF060008E048
:101EA0000120C9F830005146D9F8000000F061FF68
:101EB0000600002E11D0DFF8E404D9F80010886382
:101EC000D9F838003043C9F83800012089F83400C7
:101ED0000020C9F83000012008E1029DD9F8000077
:101EE000406B40F22A31084241D1D9F80000406BE2
:101EF000000421D5002D1FD000200700082F1BD281
:101F0000D9F8000000F0D4FE80468BF800801BF169
:101F100001006D1E4146090A0170401C6D1E4146BC
:101F2000090C0170401C6D1E4146090E017010F134
:101F3000010B6D1E7F1CE1E701F022FA0099401AA7
:101F4000A04201D2002CC9D1DFF85004D9F800100A
:101F50008863D9F8380050F00040C9F838000120F3
:101F600089F834000020C9F830000320BEE0D9F819
:101F70000000406BC0051FD50A9802281CD3D9F871
:101F80004400032818D0D9F8000000F05AFF0600DA
:101F9000002E11D0DFF80404D9F800108863D9F8B6
:101FA00038003043C9F83800012089F83400002097
:101FB000C9F83000012099E0D9F80000406B000713
:101FC00004D4D9F80000406B800512D5DFF8CC03AB
:101FD000D9F800108863D9F8380050F00800C9F823
:101FE0003800012089F834000020C9F830000120B1
:101FF0007CE0D9F80000406B800712D5DFF89C0325
:10200000D9F800108863D9F8380050F00200C9F8F8
:102010003800012089F834000020C9F83000012080
:1020200064E0D9F80000406B800612D5DFF86C033D
:10203000D9F800108863D9F8380050F02000C9F8AA
:102040003800012089F834000020C9F83000012050
:102050004CE0D9F80000406B800236D5002D34D01A
:10206000D9F8000000F024FE80468BF800801BF1B8
:1020700001006D1E4146090A0170401C6D1E41465B
:10208000090C0170401C6D1E4146090E017010F1D3
:10209000010B6D1E01F074F90099401AA04201D2A3
:1020A000002CD6D1DFF8F402D9F800108863D9F8F3
:1020B000380050F00040C9F83800012089F8340099
:1020C0000020C9F83000012010E040F23A50D9F861
:1020D00000108863012089F83400002006E0D9F858
:1020E000380050F00050C9F8380001200BB0BDE8AE
:1020F000F08F2DE9F74F88B080469946149C01F087
:102100003FF90190DDF828A0DDF824B009980028F7
:1021100007D1D8F8380050F00060C8F83800012026
:1021200036E198F83400012840F02B810020C8F8EF
:102130003800D8F85C0019EB0A01884207D2D8F8B9
:10214000380050F00070C8F83800012020E103206A
:1021500088F834000020D8F80010C862D8F844008D
:10216000012803D04FF4007000FB0AFA5FF0FF3043
:1021700002904FF4007000FB09F00390902004904F
:1021800000200590002006900120079002A9D8F8B1
:10219000000000F0BDFDB9F1020F09D32020C8F8FE
:1021A00030005146D8F8000000F031FE050008E08C
:1021B0001020C8F830005146D8F8000000F00DFE9D
:1021C0000500002D11D0DFF8D401D8F80010886385
:1021D000D8F838002843C8F83800012088F83400BF
:1021E0000020C8F830000120D2E0039ED8F800009B
:1021F000406B40F21A31084247D1D8F80000406BDA
:10220000400428D5002E26D000200700082F22D217
:102210009BF8000000901BF10100761E00990278E7
:1022200051EA02210091401C761E0099027851EA81
:1022300002410091401C761E0099027851EA026129
:10224000009110F1010B761E6946D8F8000000F0ED
:1022500032FD7F1CDAE701F093F80199401AA042A1
:1022600001D2002CC2D1DFF83401D8F80010886305
:10227000D8F838002843C8F83800012088F834001E
:102280000020C8F83000032082E0D8F80000406B3E
:10229000C0051FD5B9F1020F1CD3D8F8440003289C
:1022A00018D0D8F8000000F0CCFD0500002D11D0AA
:1022B000DFF8E800D8F800108863D8F83800284321
:1022C000C8F83800012088F834000020C8F8300031
:1022D00001205DE0D8F80000406B000704D4D8F876
:1022E0000000406B800512D5DFF8B000D8F8001070
:1022F0008863D8F8380050F00800C8F8380001208A
:1023000088F834000020C8F83000012040E0D8F8F8
:102310000000406B800712D5DFF88000D8F800106D
:102320008863D8F8380050F00200C8F8380001205F
:1023300088F834000020C8F83000012028E0D8F8E0
:102340000000406BC00612D5DFF85000D8F800102E
:102350008863D8F8380050F01000C8F83800012021
:1023600088F834000020C8F83000012010E040F266
:102370003A50D8F800108863012088F83400002013
:1023800006E0D8F8380050F00050C8F838000120B6
:102390000BB0BDE8F08F0000A0802542FF05400093
:1023A00070B505002E6B2868406B000405D530071A
:1023B00003D5280000F055FBDBE02868406BC00522
:1023C00057D54FF48070296888632868C16BDFF89F
:1023D000500601402868C1632868C06A4008400070
:1023E0002968C862300722D516F0220F0BD0286862
:1023F00000F027FD0400002C05D0A86B2043A86343
:10240000280000F0C3FF40F23A5029688863012099
:1024100085F834000020286316F0030F03D028004D
:1024200000F0BFFFA5E0280000F0B6FFA1E03006F5
:1024300040F19F80B0060BD5286800F002FD040033
:10244000002C05D0A86B2043A863280000F09EFF55
:1024500016F0030F40F08D802868C06A30F0080045
:102460002968C862012085F83400280000F094FF34
:102470007FE02868406B400405D5300703D528006D
:1024800000F01BFB75E02868406B40F23A210842DF
:102490006FD02868406B800703D5A86B50F002000E
:1024A000A8632868406B000703D5A86B50F00800AC
:1024B000A8632868406B800603D5A86B50F0200005
:1024C000A8632868406BC00603D5A86B50F01000C5
:1024D000A8632868406B800503D5A86B50F00800FE
:1024E000A86340F23A70296888632868C16BDFF8F6
:1024F000340501402868C163286800F0A2FCA96B7C
:102500000843A863300708D5012085F8340000206F
:102510002863280000F03AFF2BE0300629D516F09A
:10252000300F0CD00FF28D20E96B0865E86B00F0DE
:102530008DFF00281DD0E86B00F03CF919E016F083
:10254000030F0CD00FF2B920296C0865286C00F03D
:102550007DFF00280DD0286C00F052F909E0002022
:10256000A863012085F8340000202863280000F0CB
:102570000EFF70BD10B40200506E800F0870506ED8
:10258000800E10F00F004870506E000E10F0030027
:102590008870506E000CC870506E000A0871506E42
:1025A0004871906E000DC880906E000C10F00F0006
:1025B0000872906EC00B10F001004872906E800B94
:1025C00010F001008872906E400B10F00100C8728C
:1025D000906E000B10F00100087300204873506CDF
:1025E00000283CD1906E40F6FC7313EA8003D06E55
:1025F00053EA90730B61D06EC00E10F0070008759F
:10260000D06E000E10F007004875D06E400D10F02F
:1026100007008875D06E800C10F00700C875D06E6A
:10262000C00B10F0070008760869401C50650120B7
:10263000536D0C7E14F00704A41C10FA04F46343D9
:1026400053650B7A13F00F0398409065506D936DAE
:102650005B0A5843D0654FF40070106625E0506C5B
:10266000012815D1906E000410F47C10D36E50EA4E
:10267000134008610B695B1C4FF480604343536552
:10268000506DD0654FF400709065906D10660CE051
:10269000DFF8940313689863906B50F08050906358
:1026A000012082F8340001205CE0D06E800B10F035
:1026B00001004876D06EC00910F07F00887692F84D
:1026C0006C0010F07F00C876106FC00F0877106F95
:1026D000400F10F003004877106F800E10F00700D5
:1026E0008877106F800D10F00F00C877106F400DC5
:1026F00010F0010081F82000002081F82100106F07
:10270000000C10F0010081F82200106FC00B10F0D7
:10271000010081F82300106F800B10F0010081F898
:102720002400106F400B10F0010081F82500106F9D
:10273000000B10F0010081F82600106F800A10F0E5
:10274000030081F82700106F000A10F0030081F8E1
:102750002800106FC0F3460081F82900012081F89D
:102760002A00002010BC70470200506C0860906C7A
:102770004860D06C8860106DC860506D0861906DC5
:102780004861D06D8861106EC861002070471CB52B
:102790000400002000906946200000F049F9010083
:1027A000002902D0A06B0843A0630098C0F3432027
:1027B00016BD000070B50400A56B40F23A502968C0
:1027C00088632800FFF7E3FF0600012085F8340046
:1027D00000202863062E01D0052E05D1286800F0C0
:1027E00030FBA96B0843A863A86B002803D128001D
:1027F00000F0CDFD02E0280000F0C8FD70BD000033
:1028000070B50400A56B40F23A502968886328002F
:10281000FFF7BDFF0600012085F834000020286383
:10282000062E01D0052E05D1286800F00AFBA96B01
:102830000843A863A86B002803D1280000F0A7FD77
:1028400002E0280000F0A2FD70BD78B58FB0040052
:102850000120ADF80C00206800F038FA002802D101
:102860005FF0806074E0606C03281CD0206800F08A
:1028700080FB0600002E01D0300069E000212068B6
:1028800000F040FA60670421206800F03BFAA0677E
:102890000821206800F036FAE0670C21206800F07B
:1028A00031FAC4F88000606C032808D003A92068BE
:1028B00000F08DFB0600002E01D0300048E0606C77
:1028C000032820D0BDF80C002065216D0904206884
:1028D00000F066FB0600002E01D0300038E0002139
:1028E000206800F00FFA60660421206800F00AFA00
:1028F000A0660821206800F005FAE0660C21206837
:1029000000F000FA20670421206800F0FBF9000DB8
:10291000E06404A92000FFF72DFE002802D05FF03C
:10292000805015E0226D12040023206800F0A3FA05
:102930000500002D01D028000AE0211D83B0684663
:10294000182200F059F90EBC206800F099F9002017
:1029500010B070BD2DE9FC410700002000905FF031
:1029600000080025386800F0A1FA0600002E01D00A
:10297000300053E0386800F0B0FA0400002C09D0B1
:102980000020B864386800F091FA0400002C03D0ED
:10299000200043E00120B864B86C012809D100216F
:1029A000386800F0B2FA0400002C02D05FF08050CA
:1029B00034E04FF6FF700099814220D2002D1ED1E5
:1029C0000021386800F0A1FA0600002E01D0300086
:1029D00024E01649386800F0B2FA0400002C02D056
:1029E0005FF080501AE00021386800F08BF98046D3
:1029F0004046C00F05000098401C0090D9E70099A0
:102A0000814202D35FF0807008E05FEA480002D59F
:102A10000120786401E0002078640020BDE8F681A0
:102A2000C53CFFFFC5FCFFFFFF054000000010C1D3
:102A300070B506000D00002D02D15FF000600FE0C0
:102A4000316D0904306800F0DCFA0400002C01D07C
:102A5000200005E00021306800F054F928600020D3
:102A600070BD2DE9F0410500D5F82880EC6A002CF6
:102A700021D000200600082E1AD2286800F018F98C
:102A8000070088F8007018F10100641E3900090A77
:102A90000170401C641E3900090C0170401C641E4A
:102AA0003900090E017010F10108641E761CE2E77E
:102AB000C5F82880EC62BDE8F081F8B505002F6A02
:102AC0006C6A002C24D000200600082E1ED2387814
:102AD0000090781C641E0099027851EA022100914E
:102AE000401C641E0099027851EA02410091401C8A
:102AF000641E0099027851EA02610091471C641E2D
:102B00006946286800F0D7F8761CDEE72F626C6211
:102B1000F1BD0000324833490160002141600021CD
:102B200081600021C160002101610021416100211B
:102B30008161704710B586B0040001A8142100F02F
:102B400099FC20682749884247D1002000902648F8
:102B5000016851F400610160006810F400600090A9
:102B60000098002000902148016851F004010160A4
:102B7000016811F0040100910099002100910168A1
:102B800051F008010160006810F008000090009802
:102B90004FF48850019002200290002003900320FF
:102BA00004900C20059001A9114800F067FC042056
:102BB00001900220029000200390032004900C203A
:102BC000059001A90B4800F059FC0022002131209A
:102BD00000F032FE312000F044FE06B010BD0000CF
:102BE000C8040020002C0140443802403038024024
:102BF00000080240000C0240103A07D330B4B1E89C
:102C00003810103AA0E83810F9D230BC530724BF6E
:102C1000B1E80810A0E8081044BF51F8043B40F8A0
:102C2000043BD20724BF31F8022B20F8022B44BF0B
:102C30000B7803707047121F17D35B0009D151F84E
:102C4000043B20F8023B1B0C121F20F8023BF6D27B
:102C50000BE051F8043B00F8013B1B0A20F8023B53
:102C60001B0C121F00F8013BF3D238BF121D521E7D
:102C700024BF11F8013B00F8013BF8D87047000071
:102C80000EB401000022009B019803430298034305
:102C90000398034304980343059803431A434B687E
:102CA000DFF8A006034013434B60002003B07047D9
:102CB000D0F88000704702000868C2F88000002049
:102CC000704701000320086000207047006810F082
:102CD0000300704710B402000023086890604C683D
:102CE00088680443C8680443086904432343D068E0
:102CF000000B00031843D060002010BC704700692F
:102D0000C0B27047020012F1140008180068704742
:102D100010B40200002308685062486890628C6812
:102D2000C868044308690443486904432343D06ADC
:102D300030F0F7001843D062002010BC704730B567
:102D400085B004000D0000951020019040200290F5
:102D5000002003904FF48060049069462000FFF744
:102D6000B9FF41F288321021200000F064F905B06B
:102D700030BD30B585B004000D00009511200190E4
:102D800040200290002003904FF480600490694638
:102D90002000FFF79FFF41F288321121200000F050
:102DA0004AF905B030BD30B585B004000D0000957E
:102DB0001220019040200290002003904FF4806088
:102DC000049069462000FFF785FF41F28832122106
:102DD000200000F030F905B030BD30B585B00400FA
:102DE0000D000095182001904020029000200390D3
:102DF0004FF48060049069462000FFF76BFF41F2BA
:102E000088321821200000F016F905B030BD30B529
:102E100085B004000D00009519200190402002901B
:102E2000002003904FF48060049069462000FFF773
:102E300051FF41F288321921200000F0FCF805B062
:102E400030BD18B585B00400002000900C20019022
:102E500040200290002003904FF480600490694667
:102E60002000FFF737FFDFF8E0240C21200000F0FE
:102E7000E2F806B010BD78B585B0060014001D005C
:102E800000940720019040200290002003904FF40E
:102E90008060049069463000FFF71CFF41F28832E1
:102EA0000721300000F0C7F806B070BD18B585B036
:102EB00004000020009000200190002002900020DB
:102EC00003904FF48060049069462000FFF702FFF2
:102ED000200000F01DFA06B010BD18B585B0040042
:102EE0004FF4D570009008200190402002900020FF
:102EF00003904FF48060049069462000FFF7EAFEDB
:102F0000200000F0D7F906B010BD30B585B0040040
:102F10000D00009537200190402002900020039082
:102F20004FF48060049069462000FFF7D3FE41F221
:102F300088323721200000F07EF805B030BD30B572
:102F400085B004000D00DFF8040428430090292018
:102F5000019040200290002003904FF48060049084
:102F600069462000FFF7B6FE200000F02CF905B0FE
:102F700030BD18B585B004000020009002200190FB
:102F8000C0200290002003904FF4806004906946B6
:102F90002000FFF79FFE200000F0EAF806B010BD09
:102FA00030B585B004000D00009509200190C020C7
:102FB0000290002003904FF4806004906946200046
:102FC000FFF788FE200000F0D3F805B030BD30B523
:102FD00085B004000D0000200090032001904020E7
:102FE0000290002003904FF4806004906946200016
:102FF000FFF770FE2A000321200000F008F905B059
:1030000030BD30B585B004000D0000950D20019055
:1030100040200290002003904FF4806004906946A5
:103020002000FFF757FE41F288320D21200000F00A
:1030300002F805B030BD2DE9F04104000D00160086
:10304000DFF80C030068C0084FF47A71B0FBF1F8A8
:1030500008FB06F84046B0F10108002802D15FF0F5
:10306000004083E0606B070017F0450FF2D0380591
:10307000F0D4606B400703D50420A063042075E002
:10308000606BC00703D50120A06301206EE0C5205E
:10309000A0632000FFF733FE2900C9B2884201D0A7
:1030A000012063E000212000FFF72CFE0100A94869
:1030B000014201D1002059E0002902D55FF00070E3
:1030C00054E0480001D5402050E0880001D5802020
:1030D0004CE0C80002D54FF4807047E0080102D5EB
:1030E0004FF4007042E0480102D54FF480603DE0AB
:1030F000C80102D54FF4006038E0080202D54FF451
:10310000805033E0480202D54FF400502EE0880290
:1031100002D54FF4804029E0C80202D54FF40040A8
:1031200024E0480302D55FF400301FE0880302D595
:103130005FF480201AE0C80302D55FF4002015E098
:10314000080402D55FF4801010E0480402D55FF453
:1031500000100BE0880402D55FF4800006E0080749
:1031600002D55FF4000001E05FF48030BDE8F0813B
:10317000010077480068C0084FF47A73B0FBF3F39E
:1031800041F2883043431800431E002802D15FF00B
:10319000004017E0486B020012F0450FF3D0100515
:1031A000F1D4486B400703D504208863042009E06C
:1031B000486BC00703D501208863012002E0C520C9
:1031C000886300207047010061480068C0084FF420
:1031D0007A73B0FBF3F341F2883043431800431E87
:1031E000002802D15FF0004010E0486B020012F0AE
:1031F000450FF3D01005F1D4486B400703D50420E8
:103200008863042002E0C5208863002070472DE910
:10321000F04104000D0016004D480068C0084FF44E
:103220007A71B0FBF1F841F2883000FB08F84046B3
:10323000B0F10108002802D15FF0004038E0606B77
:10324000070017F0450FF2D03805F0D4606B400747
:1032500003D50420A06304202AE0606BC00703D5D7
:103260000120A063012023E02000FFF748FD290092
:10327000C9B2884201D001201AE0C520A063002114
:103280002000FFF73FFD010011F4604F04D108005A
:10329000000C308000200BE0480402D54FF40050B1
:1032A00006E0080402D54FF4805001E05FF480305E
:1032B000BDE8F081010026480068C0084FF47A7329
:1032C000B0FBF3F341F2883043431800431E00285B
:1032D00002D15FF000401AE0486B020012F0450F87
:1032E000F3D01005F1D4486B400703D50420886360
:1032F00004200CE0486BC00703D50120886301203F
:1033000005E0486B400601D54020886300207047E7
:1033100001000F480068C0084FF47A72B0FBF2F267
:1033200041F2883042431000421E002802D15FF073
:10333000004005E0486B0006F5D5C52088630020F5
:10334000704700000081FFFF00E1F50500001080DC
:103350002C00002008E0FFFD70B5040000F010F81C
:103360000500260016F1010F02D004480078361837
:1033700000F006F8401BB042FAD370BD45000020B3
:1033800001480068704700BF88070020704710B5EB
:10339000040000F00BF810BD10B5040000F07EFA38
:1033A00010BD10B5040000F07AFA10BD704700009F
:1033B00070B50400A56DFFF7E3FF060094F8350033
:1033C000022806D080206065002084F834000120A7
:1033D0003BE02068006830F0160021680860206833
:1033E000406930F0800021684861206C002802D1DB
:1033F000A06C002805D02068006830F00800216823
:103400000860206800684008400021680860206863
:103410000068C0070ED5FFF7B3FF801B0628F6D360
:1034200020206065032084F83500002084F83400F3
:1034300003200AE03F21E06D8140A960012084F86B
:103440003500002084F83400002070BD010091F8A0
:103450003500022803D080204865012009E00520BE
:1034600081F8350008680068400840000A6810606C
:1034700000207047002200F013BA0000F8B50023C6
:10348000002400250026102E80F01781012717FA4E
:1034900006F213000A681A4014009C4240F00B81A7
:1034A0000A7912F00302012A04D00A7912F0030209
:1034B000022A1FD1D0F808C05FF0030E3200D2B24A
:1034C00052001EFA02FE3CEA0E0CD1F80CE032006B
:1034D000D2B252001EFA02FE5EEA0C0CC0F808C01E
:1034E0004268B740BA434F68C7F30017B7403A4342
:1034F000150045600A7912F00302032A14D0C76848
:103500005FF0030C3200D2B252001CFA02FC37EA20
:103510000C07D1F808C03200D2B252001CFA02FCEB
:103520005CEA07073D00C5600A7912F00302022A2F
:103530001ED13200D20800EB8202176A5FF00F0C36
:1035400016F00702D2B292001CFA02FC37EA0C070E
:10355000D1F810C016F00702D2B292001CFA02FC99
:103560005CEA07073D003200D20800EB82021562D8
:1035700007685FF0030C3200D2B252001CFA02FC62
:1035800037EA0C0791F804C01CF0030C3200D2B2E9
:1035900052001CFA02FC5CEA07073D0005604A681D
:1035A00012F4403F00F0878000220092DFF84821AB
:1035B000176857F480471760126812F4804200922F
:1035C000009ADFF838C1320092085CF822705FF090
:1035D0000F0E16F00302D2B292001EFA02FE37EA74
:1035E0000E07DFF81C21904201D1002530E0DFF802
:1035F0001421904201D101252AE0DFF80C219042EC
:1036000001D1022524E0DFF80421904201D10325F5
:103610001EE03F4A904201D1042519E03D4A904204
:1036200001D1052514E03C4A904201D106250FE066
:103630003A4A904201D107250AE0394A904201D125
:10364000082505E0374A904201D1092500E00A2506
:10365000EDB216F00302D2B2920095402F43320031
:1036600092084CF82270304D2A68A243D1F804C069
:103670005FEACC2C00D522432A602C4F3D68A5433D
:10368000D1F804C05FEA8C2C00D525433D60284F5B
:103690003A68A243D1F804C05FEA8C3C00D52243CB
:1036A0003A60244F3D68A543D1F804C05FEACC3CA2
:1036B00000D525433D60761CE5E6F1BD1300DBB285
:1036C000002B03D00B009BB2836103E00B009BB285
:1036D0001B048361704710B504001748016822007D
:1036E00092B2114206D0210089B20160200080B25E
:1036F00000F024F810BD00004438024008380140B2
:10370000000002400004024000080240000C024099
:10371000001002400014024000180240001C024049
:103720000020024000240240083C01400C3C0140C3
:10373000043C0140003C0140143C01407047000043
:1037400010B410F00703DFF8344122684FF6FF0190
:103750000A40DFF82C1151EA03210A43226010BC11
:103760007047DFF818010068C0F3022070470000BE
:10377000010049B200290AD4012210F01F018A4039
:10378000DFF8001103005BB25B0941F823207047AA
:1037900010B4020052B2002A05D40A013A4B0400C8
:1037A00064B21A5508E00A01384B040064B214F000
:1037B0000F04234403F8042C10BC704770B40300BA
:1037C00013F00704D4F10700052801D3042001E019
:1037D000D4F10700251D072D01D2002500E0E51ECC
:1037E000012616FA00F0401E0140A94016FA05F520
:1037F0006D1E2A401143080070BC704710B50400CC
:10380000601EB0F1807F01D301200EE0601E2049D0
:1038100008600F215FF0FF30FFF7BAFF00201D495D
:10382000086007201C490860002010BD10B5040086
:103830002000FFF785FF10BD2DE9F04104000D00C9
:1038400016000027FFF78DFF804632002900404612
:10385000FFF7B4FF0100200040B2FFF799FFBDE879
:10386000F08110B50400200040B2FFF781FF10BDC9
:1038700010B504002000FFF7C1FF10BD0CED00E003
:103880000000FA0500E100E000E400E018ED00E0CF
:1038900014E000E018E000E010E000E0704770473E
:1038A00000B500BF130096469446103928BFA0E823
:1038B0000C50FAD85FEA417C28BF0CC048BF40F8E2
:1038C000042BC90728BF20F8022B48BF00F8012BA2
:1038D00000BD000010B50400002C01D1012035E02E
:1038E000A0690028FFD194F84100002805D10020EC
:1038F00084F84000200000F04FFD242084F84100AF
:103900002068C06830F400502168C860200000F0D2
:103910006BFB2068006930F49040216808612068E2
:10392000406930F02A00216848612068C06850F47E
:1039300000502168C86000206064202084F84100A5
:10394000202084F8420000206063002010BD2DE993
:10395000FC4706000D0017009846002496F8410029
:10396000202857D1002D03D0380080B2002801D183
:10397000012050E000207064212086F84100FFF70C
:10398000FFFC8146B784F784B068B0F5805F05D14D
:103990003069002802D10024AA4602E02C005FF022
:1039A000000AF08C002821D0CDF800804B46002280
:1039B0008021300000F0B6F9002804D0202086F8DD
:1039C0004100032027E0002C08D1BAF80000C00510
:1039D000C00D316848601AF1020A03E020783168AE
:1039E0004860641CF08C401EF084DAE7CDF800805B
:1039F0004B4600224021300000F094F9002804D00A
:103A0000202086F84100032005E0202086F84100B0
:103A1000002000E00220BDE8F68770B505000C002C
:103A2000160095F84200202810D1002C03D0300059
:103A300080B2002801D1012009E000202863320073
:103A400092B22100280000F0AFF900E0022070BD22
:103A50002DE9FC470600306807683068D0F80C8014
:103A60003068D0F814900020002517F00F04002CC7
:103A700008D1B80606D55FEA886003D5300000F0AB
:103A800038FA4DE1002C00F080805FEAC97002D462
:103A900018F4907F79D017F00100C0B2002806D04A
:103AA0005FEAC85003D5706C50F00100706478076D
:103AB00008D519F00100C0B2002803D0706C50F096
:103AC00002007064B80708D519F00100C0B20028E0
:103AD00003D0706C50F00400706438070BD55FEAB7
:103AE000886004D419F00100C0B2002803D0706CC3
:103AF00050F008007064706C002845D0B80605D5F9
:103B00005FEA886002D5300000F0F3F93068406960
:103B1000800910F001000500706C000701D4002D31
:103B20002DD0300000F062F930684069400622D59F
:103B30003068143050E8000F30F040000100306869
:103B400010F1140242E800100028F1D1F06B0028B7
:103B50000DD00FF20130F16B0865F06BFFF776FCCA
:103B6000002811D0F06BF16B096D88470CE0300034
:103B700000F0CEFC08E0300000F0CAFC04E03000A9
:103B800000F0C6FC00207064CAE0306B012840F0F1
:103B9000B580F80640F1B2805FEAC86040F1AE80BF
:103BA0000020009030680068009030684068009005
:103BB00000983068406940065DD5F06B0068D0F829
:103BC00004A0504680B2002854D05046B18D80B237
:103BD00088424FD2A6F82EA0F06BC069B0F5807F66
:103BE0003FD030680C3050E8000F30F48070010096
:103BF000306810F10C0242E800100028F1D1306862
:103C0000143050E8000F400840000100306810F107
:103C1000140242E800100028F1D13068143050E856
:103C2000000F30F040000100306810F1140242E84B
:103C300000100028F1D1202086F8420000203063D7
:103C400030680C3050E8000F30F010000100306890
:103C500010F10C0242E800100028F1D1F06BFFF7E0
:103C6000A7FB02207063B18DF08D091A89B2300074
:103C700000F04FFC54E0B08DB6F82EA0B0EB0A0A6D
:103C8000F08D002839D0504680B2002835D03068F9
:103C90000C3050E8000F30F490700100306810F1E3
:103CA0000C0242E800100028F1D13068143050E8CE
:103CB000000F400840000100306810F1140242E893
:103CC00000100028F1D1202086F842000020306347
:103CD00030680C3050E8000F30F010000100306800
:103CE00010F10C0242E800100028F1D102207063AC
:103CF000514689B2300000F00CFC11E0380606D5C0
:103D00005FEA086003D5300000F0B0F808E07806FC
:103D100006D55FEA486003D5300000F0DAF8FFE727
:103D2000BDE8F3872DE9FC4105000E001700984619
:103D3000089C286800683040B04201D1012000E0B2
:103D400000203900C9B288422BD114F1010FF0D004
:103D5000FFF716FBB0EB0800844201D3002C01D121
:103D600003201FE02868C0684007E2D5802EE0D01D
:103D7000402EDED0286800680007DAD500200090C9
:103D80002868006800902868406800900098280023
:103D900000F02CF808206864002085F8400001201D
:103DA00000E00020BDE8F68110B4030099629A8516
:103DB000DA8500205864222083F842001869002820
:103DC00005D01868C06850F480701C68E0601868FE
:103DD000406950F001001C6860611868C06850F0CC
:103DE00020001C68E060002010BC704701680C31A6
:103DF00051E8001F31F490710A00016811F10C03C1
:103E000043E800210029F1D10168143151E8001F75
:103E1000490849000A00016811F1140343E8002130
:103E20000029F1D1016B01290DD101680C3151E854
:103E3000001F31F010010A00016811F10C0343E882
:103E400000210029F1D1202180F8421000210163D6
:103E50007047000038B50400A56B0020E8850020FD
:103E6000E884280000F054FB31BD0000010091F807
:103E7000410021282BD18868B0F5805F0DD10869F9
:103E800000280AD1086A02001088C005C00D0B681E
:103E90005860086A801C086205E0086A431C0B62CF
:103EA00000780B685860C88C401EC88480B2002817
:103EB0000BD10868C06830F080000B68D8600868D3
:103EC000C06850F040000B68D860002000E002207D
:103ED000704710B504002068C06830F040002168C9
:103EE000C860202084F84100200000F013FB00206F
:103EF00010BD7CB5040094F84200222872D1A0685D
:103F0000B0F5805F0DD1206900280AD10025A66A8E
:103F100020684068C005C00D3080A06A801CA06287
:103F200017E0A56A0026A068B0F5805F05D0A068FC
:103F3000002806D12069002803D120684068287035
:103F400004E02068406810F07F002870A06A401CE0
:103F5000A062E08D401EE08580B2002840D120683C
:103F6000C06830F020002168C8602068C06830F464
:103F700080702168C860206840694008400021685E
:103F80004861202084F8420000206063206B0128F3
:103F900021D10020206320680C3050E8000F30F061
:103FA00010000100206810F10C0242E80010002807
:103FB000F1D120680068C00608D500200090206874
:103FC000006800902068406800900098A18D200053
:103FD00000F09FFA02E0200000F0B8FA002002E0B2
:103FE000002000E0022076BD2DE9F84F84B00500E6
:103FF0002868016931F44051E8680143286801618B
:10400000D5F808B0286950EA0B0B686950EA0B0B29
:10401000E86950EA0B0B2868C168B24801405BEAC6
:1040200001012868C1602868416931F44071A869BC
:104030000143286841612868AB49884203D0286859
:10404000AA49884203D100F0EBFB040002E000F033
:10405000DCFB0400E869B0F5004F40F0A1805FF0A0
:10406000640A022600275FF019085FF000092200A9
:104070000023A8FB020108FB031109FB0211CDE993
:10408000000168680021A6FB002306FB013307FB43
:104090000033DDE9000100F02BFC6421B0FBF1F0FE
:1040A000039022000023A8FB020108FB031109FB77
:1040B0000211CDE9000168680021A6FB002306FB80
:1040C000013307FB0033DDE9000100F011FC029031
:1040D00022000023A8FB020108FB031109FB0211C7
:1040E000CDE9000168680021A6FB002306FB01332F
:1040F00007FB0033DDE9000100F0FAFB6421B0FBAF
:10410000F1F102980AFB1101C80032306421B0FBC2
:10411000F1F0400010F4F870039910EB01100290D8
:1041200022000023A8FB020108FB031109FB021176
:10413000CDE9000168680021A6FB002306FB0133DE
:1041400007FB0033DDE9000100F0D2FB0090220004
:104150000023A8FB020108FB031109FB02118046A2
:10416000894668680021A6FB002306FB013307FB94
:1041700000334046494600F0BBFB6421B0FBF1F13F
:1041800000980AFB110A5FEACA0032306421B0FBD2
:10419000F1F111F0070102980918286881609EE08A
:1041A000042600275FF0640A5FF019085FF0000939
:1041B00022000023A8FB020108FB031109FB0211E6
:1041C000CDE9000168680021A6FB002306FB01334E
:1041D00007FB0033DDE9000100F08AFB6421B0FB3E
:1041E000F1F0039022000023A8FB020108FB031159
:1041F00009FB0211CDE9000168680021A6FB00233C
:1042000006FB013307FB0033DDE9000100F070FB22
:10421000029022000023A8FB020108FB031109FB06
:104220000211CDE9000168680021A6FB002306FB0E
:10423000013307FB0033DDE9000100F059FB642185
:10424000B0FBF1F102980AFB110108013230642140
:10425000B0FBF1F010F0F000039910EB01100290A8
:1042600022000023A8FB020108FB031109FB021135
:10427000CDE9000168680021A6FB002306FB01339D
:1042800007FB0033DDE9000100F032FB0090220063
:104290000023A8FB020108FB031109FB0211804661
:1042A000894668680021A6FB002306FB013307FB53
:1042B00000334046494600F01BFB6421B0FBF1F19E
:1042C00000980AFB110A5FEA0A1032306421B0FB41
:1042D000F1F111F00F01029809182868816005B00A
:1042E000BDE8F08FF369FFFF0010014000140140AA
:1042F00080B57A487A4901605FF4E131416000217C
:1043000081600021C160002101610C214161002117
:1043100081610021C161FFF7DDFA002801D000F0C2
:104320000FFD01BD10B56F4C6F4820605FF4E130A8
:1043300060600020A0600020E060002020610C2070
:1043400060610020A0610020E0612000FFF7C2FA58
:10435000002801D000F0F4FC042264492000FFF79B
:104360005CFB10BD80B56248624901605FF4E131D9
:104370004160002181600021C160002101610C21A8
:104380004161002181610021C161FFF7A3FA00288A
:1043900001D000F0D5FC01BD10B586B00400684620
:1043A0001421FFF767F820684D4988422ED100207C
:1043B00005905148016851F080410160006810F09B
:1043C000804005900598002005904C48016851F008
:1043D00020010160006810F0200005900598C020C1
:1043E00000900220019000200290032003900820FA
:1043F000049069464248FFF741F80022002152200C
:10440000FFF71AFA5220FFF72CFA65E020683649C8
:1044100088422ED1002005903748016851F00041B4
:104420000160006810F0004005900598002005909C
:104430003248016851F010010160006810F010006E
:104440000590059803200090022001900020029022
:10445000032003900820049069462A48FFF70EF8CD
:10446000002200215320FFF7E7F95320FFF7F9F965
:1044700032E020681F4988422ED100200590224852
:10448000016851F020010160006810F020000590E3
:104490000598002005901948016851F0400101601D
:1044A000006810F04000059005984FF4844000909B
:1044B0000220019000200290032003900820049025
:1044C00069461248FEF7DAFF002200214720FFF775
:1044D000B3F94720FFF7C5F906B010BDF00500207D
:1044E0000078004038060020007C00408C07002047
:1044F000800600200014014040380240303802405D
:1045000000140240001002404438024000180240EB
:10451000704770477047000010B504002068594983
:10452000884207D15849594800F08FFC584801F09B
:1045300011F90AE020685749884206D15649534884
:1045400000F083FC554801F005F910BD10B50400DA
:104550002068534988425DD15249087801280ED11C
:10456000487801280BD08878012808D0C87801281D
:1045700005D04D48002202700022427046E00878C3
:1045800001280ED0487801280BD18878012808D05E
:10459000C878012805D044480022027001224270E8
:1045A00034E00878012813D04878012810D08878A2
:1045B00001280DD1C87801280AD03B48007801288D
:1045C00002D10120394A10700120394A10701DE0D3
:1045D0000878012813D04878012810D0887801285D
:1045E0000DD0C87801280AD12F480078012802D1BF
:1045F00001202E4A107002202D4A107006E02A4831
:104600000078012802D10120284A1070042229488C
:10461000FFF703FA10BD000010B504002068B0F1E8
:10462000804F2CD19FED160A2348D0ED000AF4EEFE
:10463000400AF1EE10FA19D5D0ED000AB7EE001AD3
:1046400070EE810AC0ED000AD0ED000AF4EE400AD7
:10465000F1EE10FA10D114490878002802D0087839
:10466000022809D101201149087005E05FF07E5150
:104670000160124800210160114801F0DAF810BD14
:104680000000FA4400640040C80600204C050020E9
:104690004800002000680040F0060020880200204A
:1046A000007C00408C0700200000002092070020C2
:1046B00093070020380600208407002024000020F3
:1046C000A80500202DE9F04104000D00002C01D1C7
:1046D000012095E0584F386810F00F00A84207D22B
:1046E0003D70386810F00F00A84201D0012087E02B
:1046F0002078800716D52078400704D54F480168F8
:1047000051F4E05101602078000704D54B4801685E
:1047100051F46041016049490A6832F0F002A06832
:1047200002430A602078C00738D56068012805D1A7
:1047300043480068800313D4012061E060680228C8
:1047400002D06068032805D13D480068800107D485
:10475000012055E03A480068800701D401204FE06D
:10476000DFF8D880D8F80010890889006068014314
:10477000C8F80010FEF704FE0600D8F8000010F09C
:104780000C006168B0EB810F08D0FEF7F9FD801BCB
:1047900041F289318842F0D3032031E0386810F0CB
:1047A0000F00854207D23D70386810F00F00A84214
:1047B00001D0012024E02078400706D51F490A686F
:1047C00032F4E052E06802430A602078000707D51F
:1047D0001A48016831F46041226951EAC20101605E
:1047E00000F038F81749154A1268C2F30312895CC1
:1047F000C840154908601548006801F095FA002086
:10480000BDE8F08110480068704780B5FFF7FAFFF7
:104810000F490A4A1268C2F38222895CC84002BD6D
:1048200080B5FFF7EFFF0A49044A1268C2F342322B
:10483000895CC84002BD0000003C024008380240CC
:1048400000380240E07900082C00002028000020F9
:104850001C7A00082DE9F0410024002500260027DD
:104860001F48006810F00C00002804D0042804D071
:10487000082804D031E01B4830E01B482EE0DFF868
:104880006C80D8F8000010F03F000400D8F8000059
:1048900040020CD5D8F80000C0F388101249A1FBE3
:1048A00000012200002300F023F805000BE0D8F8F7
:1048B0000000C0F388100B49A1FB00012200002377
:1048C00000F016F80500D8F80000C0F30140401CC5
:1048D00040000600B5FBF6F000E00248BDE8F081BC
:1048E000083802400024F400001BB70004380240DE
:1048F000BBBBE1B1B2F5803F80F07E80022A1ED9B9
:104900008C46B1FBF2F102FB11C31B0443EA1043D6
:10491000B3FBF2FC02FB1C3380B240EA0343B3FB5F
:10492000F2F002FB103240EA0C4000237047022AEA
:1049300005D98446B0FBF2F002FB10C270474AB1C1
:1049400005D100F0010249085FEA300070470022FB
:104950000023704701F00EBA0B0002000021002076
:104960007047904271EB030CF6D3B3F5803F2FD222
:10497000F0B5B3FA83F7B1FA81F4A7F10F0E3D1B3E
:104980005340CEF1200602FA0EF2F3415340B5F146
:104990000F0746D80F3C2C444140C4F12006A040EC
:1049A000F1414140B1FBF3F603FB1611A2FB0645B2
:1049B000001BA94102D2761E8018594180EA0102EB
:1049C00021FA0EF362FA0EF200215A403046F0BD91
:1049D00030B4B1FBF3FC03FB1C11A2FB0C45001B24
:1049E000A94103D2ACF1010C8018594130BC0246F8
:1049F0000B46604600217047B2F1807F65D3F0B569
:104A0000B2FA82F7B1FA81F4C7F10F063D1B22FA20
:104A100006F307F1110EF24120355A40B5F10F07A8
:104A2000B8D94140C4F12006A040F1414140B1FB5A
:104A3000F3FC03FB1C11A2FB0C45001BA94103D294
:104A4000BCF1010C801859410F2F12D30F3FC9033D
:104A500041EA5041B1FBF3F603FB1611A2FB0645F8
:104A6000D4EBC030A94102D2761E8018594146EAE3
:104A7000CC3C07B34140C7F12006B840F14141406A
:104A8000B1FBF3F603FB1611A2FB0645001BA9417F
:104A900002D2761E8018594180EA010221FA0EF3F3
:104AA000C7F1200462FA0EF20CFA07F05A402CFA11
:104AB00004F13043F0BD80EA010221FA0EF3002137
:104AC00062FA0EF260465A40F0BD8C46B1FBF2F13C
:104AD00002FB11C31B0243EA1063B3FBF2FC02FBAF
:104AE0001C331B024CEA002043EA1063B3FBF2FCC8
:104AF00002FB1C331B024CEA002043EA1063B3FBA9
:104B0000F2FC02FB1C331B024CEA002043EA106358
:104B1000B3FBF2FC02FB1C324CEA0020002370477E
:104B20002DE9F0412DED028B01F026F900F09AF805
:104B300001F03CF901F0C4F901F0EFF9FDF7EAFFEB
:104B400001F0FCFAFFF70EFCFFF7D2FBFFF7EAFBE0
:104B500001F00EFB4FF47A60FEF7FEFB6E4C012273
:104B60000121200000F0E2FA14F14805012202219F
:104B7000280000F0DBFA694E02220121300000F02B
:104B8000D5FA16F1480702220221380000F0CEFAC9
:104B90000120FEF7E1FBDFF88881B3EE048AF1EE35
:104BA000048A0021B0EE682AF0EE481A9FED591AE7
:104BB000DFED580A98ED000A200000F07FFC01208C
:104BC000FEF7CAFB0021B0EE682AF0EE481A9FED0E
:104BD000511ADFED500A98ED010A280000F06EFC32
:104BE0000120FEF7B9FB4F4C0021B0EE682AF0EE31
:104BF000481A9FED481ADFED470A94ED000A30008D
:104C000000F05CFC0120FEF7A7FB0021B0EE682A53
:104C1000F0EE481A9FED3F1ADFED3E0A94ED010ACF
:104C2000380000F04BFC4FF4FA60FEF795FB3E4C69
:104C30003E4D95ED000AD4ED000AB4EE600AF1EEA7
:104C400010FAF4D03A4E300001F0F4FA307803282C
:104C5000EDD028682060374800210268516200F0DA
:104C60009BFDE4E780B592B006A83021FEF702FC78
:104C700001A81421FEF7FEFB002000902E480168D9
:104C800051F080510160006810F080500090009851
:104C9000002000902948016851F4404101600068FB
:104CA00010F4404000900098012006905FF480309E
:104CB000079002200C905FF480000D9006200E906B
:104CC000B4200F90022010900820119006A801F047
:104CD0007FFD002801D000F033F801F06FFF0028BD
:104CE00001D000F02DF80F2001900220029000204A
:104CF00003904FF4A05004904FF48050059005218C
:104D000001A8FFF7DFFC002801D000F019F813B06C
:104D100000BD0000000000004800002088020020C4
:104D2000040000201400002024000020840700203C
:104D300000000020A805002040380240007000401C
:104D400072B6FEE7012111FA00F0401E01EE900A52
:104D5000F8EEE11A30EE600A21EE800A71EE600A88
:104D600080EE200ABCEEC00A10EE100A704701EE79
:104D7000100A70EEC00AB8EE411A60EE810A0120F6
:104D800010FA01F1491E01EE101AB8EEC11AC0EE78
:104D9000810A30EE800A704770B586B004000D00BD
:104DA0002800C0B2012805D02800C0B2022801D0D6
:104DB000002048E02800C0B2012802D12B4806009C
:104DC00005E02800C0B2022801D129480600208849
:104DD00000900020029000200390A0780490002012
:104DE0008DF81400208880B24009042809D1214B95
:104DF000221D6946300002F099F8002822D00020D8
:104E000021E0208880B2400980B2092804D020889F
:104E100080B240090A280AD1164B14F13C026946B7
:104E2000300002F083F800280CD000200BE0114B7A
:104E300014F148026946300002F078F8002801D0E9
:104E4000002000E0012006B070BD38B504000D0060
:104E500014F15103084A0021280002F0FAF8002852
:104E600001D0002000E0012032BD0000C806002073
:104E7000F006002078070020380700200100DFED51
:104E8000692AB4EE620AF1EE10FA06DA9FED663A8C
:104E9000B4EE430AF1EE10FA01D500203EE0F4EE44
:104EA000620AF1EE10FA04DAF4EE430AF1EE10FAB7
:104EB00001D5002032E0DFED5D3AB4EE631AF1EE89
:104EC00010FA04DAB5EE401AF1EE10FA01D500201E
:104ED00024E0DFED573AF4EE631AF1EE10FA04DA4B
:104EE000F5EE401AF1EE10FA01D5002016E0B4EE0E
:104EF000622AF1EE10FA04DAB4EE432AF1EE10FA67
:104F000001D500200AE081ED030AC1ED040A81ED1C
:104F1000051AC1ED061A81ED072A0120704738B540
:104F20002DED068B04000D00B0EE408AF0EE608A95
:104F3000B0EE419AF0EE619AB0EE42AA2571207867
:104F40002072B0EE4A2AF0EE691AB0EE491AF0EE7D
:104F5000680AB0EE480A2000FFF790FF002801D150
:104F6000002000E00120BDEC068B32BD017102780B
:104F70000272704738B52DED028B04000D009FEDD5
:104F80002A8ADFED698A1020B0EE681AF0EE480A2E
:104F900094ED010AFFF7D6FEA8600E20B0EE681A65
:104FA000F0EE480A94ED020AFFF7CCFEE8600A2012
:104FB0009FED6D1ADFED6D0A94ED030AFFF7C2FE57
:104FC000286108209FED6A1ADFED680A94ED040A53
:104FD000FFF7B8FE68611020B0EE681AF0EE480ADC
:104FE00094ED050AFFF7AEFEA861A8682870A868CE
:104FF000000A6870E868A870E868000A10F03F00CE
:10500000296950EA8110E870286980082871686968
:105010006871A869A871A869000AE871BDEC028BE3
:1050200031BD000001002042000020C201C07F44C9
:1050300001004C421300DBB20A2B06D143880B70EF
:1050400043889BB21B0A4B7007E01300DBB2092BAD
:1050500003D103780B7000234B7070470A784B78AC
:1050600052EA032202808A788270CA78C2700A7972
:105070004B7952EA032282808A79CB7952EA032261
:10508000C28070470A78027070470A78012A02D1FC
:105090000122028025E00A78022A02D1022202803F
:1050A0001FE00A78042A02D10422028019E00A785B
:1050B000082A02D10822028013E00A78102A02D1BD
:1050C000102202800DE00A78202A02D120220280DC
:1050D00007E00A78402A02D14022028001E0002243
:1050E0000280704738B504000D002079042805D1EE
:1050F000291D14F10800FFF73DFF0CE020790A2874
:1051000002D02079092806D1227915F13C0114F149
:105110003400FFF78FFF31BD01000879097850EAAC
:10512000411080B27047000000002042F8B5040032
:105130000D001600257084F8466002212000FFF75C
:1051400015FFDFF84C76201DFFF7E6FF38800020C2
:10515000B87094F846103800FFF71EFE002801D101
:10516000002000E00120F2BD00C07F4400000000EC
:1051700000004C4238B52DED048B0400B0EE408A9F
:10518000F0EE608AB0EE419A9FEDAE2AF0EE491A39
:10519000B0EE681ADFEDAB0AB0EE480A0421200039
:1051A000FFF7BDFE002801D1002015E0DFF8E05533
:1051B000201DFFF7B1FF28800820A87029002000DB
:1051C000FFF790FF94F846102800FFF7E5FD002850
:1051D00001D1002000E00120BDEC048B32BD0000B5
:1051E00038B52DED028B0400B0EE408AF0EE608AF7
:1051F0009FED942AF0EE681A9FED921AF0EE480A9D
:105200009FED900A04212000FFF789FE002801D1BC
:10521000002015E0DFF87855201DFFF77DFF28807E
:105220000820A87029002000FFF75CFF94F84610C2
:105230002800FFF7B1FD002801D1002000E0012087
:10524000BDEC028B32BD000038B52DED028B0400A1
:10525000B0EE408AB0EE482ADFED7A1A9FED791A57
:10526000DFED780A9FED770A04212000FFF757FE53
:10527000002801D1002015E0DFF81455201DFFF7AC
:105280004BFF28800820A87029002000FFF72AFF84
:1052900094F846102800FFF77FFD002801D1002078
:1052A00000E00120BDEC028B32BD000038B52DEDD1
:1052B000028B0400B0EE408A9FED622AF0EE481A9D
:1052C0009FED601ADFED5F0A9FED5E0A042120006A
:1052D000FFF725FE002801D1002015E0DFF8B054CB
:1052E000201DFFF719FF28800820A8702900200042
:1052F000FFF7F8FE94F846102800FFF74DFD002850
:1053000001D1002000E00120BDEC028B32BD000085
:1053100038B504009FED4B2ADFED4A1A9FED491A7C
:10532000DFED480A9FED470A04212000FFF7F7FD53
:10533000002801D1002015E0DFF85454201DFFF7AC
:10534000EBFE28800820A87029002000FFF7CAFE85
:1053500094F846102800FFF71FFD002801D1002017
:1053600000E0012032BD000038B52DED048B0400B3
:10537000B0EE408AF0EE608AB0EE419AF0EE619AAB
:10538000B0EE682AF0EE691AB0EE491ADFED2D0A88
:10539000B0EE480A04212000FFF7C1FD002801D12A
:1053A000002015E0DFF8E853201DFFF7B5FE288048
:1053B0000820A87029002000FFF794FE94F84610FA
:1053C0002800FFF7E9FC002801D1002000E00120BF
:1053D000BDEC048B32BD000038B52DED048B04000C
:1053E000B0EE408AF0EE608AB0EE419AB0EE682AE4
:1053F000F0EE491A9FED131AF0EE480A9FED110ADC
:1054000004212000FFF78BFD002801D1002015E0CA
:10541000DFF87C53201DFFF77FFE28800820A8704E
:1054200029002000FFF75EFE94F846102800FFF7E1
:10543000B3FC002801D1002000E00120BDEC048B6A
:1054400032BD00000000000038B52DED068B0400D1
:10545000B0EE408AF0EE608AB0EE419AF0EE619ACA
:10546000B0EE42AAB0EE492AF0EE4A1AB0EE691A3E
:10547000F0EE680AB0EE480A04212000FFF74FFD65
:10548000002801D1002015E0DFF80453201DFFF7AC
:1054900043FE28800820A87029002000FFF722FE84
:1054A00094F846102800FFF777FC002801D100206F
:1054B00000E00120BDEC068B32BD000038B52DEDBB
:1054C000068B0400B0EE408AF0EE608AB0EE419A9E
:1054D000F0EE619AB0EE42AA0D00B0EE492AF0EE6D
:1054E0004A1A9FED851AF0EE680A9FED830A04219F
:1054F0002000FFF714FD002801D1002078E084F897
:1055000045502800C0B200280BD0022823D016D363
:10551000042834D029D3062849D038D3072854D0BA
:1055200065E0B0EE4A1AF0EE690AB0EE480A2000D3
:10553000FFF720FE002801D1002059E057E0F0EEEF
:105540004A0AB0EE680A2000FFF74AFE002801D19F
:1055500000204DE04BE0B0EE490A2000FFF774FE5A
:10556000002801D1002043E041E0B0EE4A0A2000CB
:10557000FFF79CFE002801D1002039E037E0200031
:10558000FFF7C6FE002801D1002031E02FE0F0EE49
:105590004A1AB0EE691AF0EE490AB0EE480A200045
:1055A000FFF7E2FE002801D1002021E01FE0B0EE6D
:1055B0004A1AF0EE490AB0EE680A2000FFF70CFF25
:1055C000002801D1002013E011E0B0EE4A2AF0EEED
:1055D000691AB0EE491AF0EE680AB0EE480A2000E7
:1055E000FFF732FF002801D1002001E0FFE7012092
:1055F000BDEC068B32BD00002DE9F84F2DED028B7E
:1056000084B004000D0000200290002001900020D2
:1056100000900026002003902F78687857EA002732
:10562000A878000410F47020074395F802805FFA10
:1056300088F85FEA18185FFA88F8E87858EA0018DE
:105640002879000310F47F4050EA080895F8059087
:10565000A87959EA002995F807A01AF0010A95F8E7
:1056600007B05FFA8BFB5FEA5B0B5FFA8BFB9FED8A
:10567000458ADFED458A1421F0EE680AB0EE480A4B
:105680003800FFF774FB84ED000A1421F0EE680A7D
:10569000B0EE480A4046FFF76AFB84ED010A10218C
:1056A000F0EE680AB0EE480A4846FFF760FB84ED6A
:1056B000020A84F80CA0207B00280AD10721DFED24
:1056C000330ABBEE040A5846FFF751FB84ED040A87
:1056D0000CE0207B012809D10721DFED2C0ABBEE6D
:1056E000040A5846FFF743FB84ED040A04B0BDECFE
:1056F000028BBDE8F18F00000000000070B50400CF
:105700000D0016003000C0B2042806D115F1510179
:1057100014F12000FFF770FF1BE03000C0B2182822
:1057200006D115F1510114F13A00FFF797FC10E092
:105730003000C0B2172806D115F1510114F1420012
:10574000FFF7A3FC05E015F1510114F14400FFF748
:1057500099FC70BDF8B504000E4805682E00F6B23D
:10576000760915F01F00B0F110073200D2B20849D7
:105770003B00DBB24820434304EB03004838FFF70B
:10578000BDFFF1BD000020C20000204200004843E0
:105790004C05002038070020010091F83D00012849
:1057A00001D0012044E0022081F83D000868C06873
:1057B00050F001000B68D8600868DFF8203198428B
:1057C00021D00868B0F1804F1DD00868DFF8103193
:1057D000984218D00868DFF80C31984213D0086856
:1057E000DFF8043198420ED00868DFF800319842A3
:1057F00009D00868DFF8F830984204D00868DFF86C
:10580000F43098420DD10868806810F0070002005B
:10581000062A0CD00868006850F001000B68186078
:1058200005E00868006850F001000B68186000206F
:10583000704701000868C068400840000A68D060EE
:105840000868006A41F2111210420BD10868006A20
:1058500040F24442104205D1086800684008400008
:105860000A681060012081F83D000020704710B5E3
:105870000400002C01D101202FE094F83D00002805
:1058800005D1002084F83C00200000F0B1FC02208B
:1058900084F83D00211D206800F001F9012084F802
:1058A0004600012084F83E00012084F83F000120DA
:1058B00084F84000012084F84100012084F842006F
:1058C000012084F84300012084F84400012084F87A
:1058D0004500012084F83D00002010BD000001407B
:1058E0000004004000080040000C0040000401409B
:1058F000004001400018004070B504002068C568F1
:1059000020680669B00718D5A80716D57FF00200F1
:1059100021680861012020772068806910F0030F5A
:1059200003D0200001F079FD05E0200001F076FDB4
:10593000200001F074FD00202077700718D568075B
:1059400016D57FF0040021680861022020772068C6
:10595000806910F4407F03D0200001F05EFD05E077
:10596000200001F05BFD200001F059FD00202077B0
:10597000300718D5280716D57FF008002168086180
:10598000042020772068C06910F0030F03D02000A6
:1059900001F043FD05E0200001F040FD200001F092
:1059A0003EFD00202077F00618D5E80616D57FF0DA
:1059B000100021680861082020772068C06910F471
:1059C000407F03D0200001F028FD05E0200001F019
:1059D00025FD200001F023FD00202077F00708D5E9
:1059E000E80706D57FF00100216808612000FEF776
:1059F00013FE300608D5280606D57FF08000216802
:105A00000861200001F00CFD700608D5680606D577
:105A10007FF0400021680861200001F002FDB0061F
:105A200008D5A80606D57FF020002168086120006F
:105A300001F0F8FC70BDF8B504000D001600002759
:105A400094F83C00012801D1022027E0012084F8CD
:105A50003C003000002806D0042809D008280CD0CB
:105A60000C280FD013E02900206800F081F810E026
:105A70002900206800F0AEF80BE02900206800F053
:105A8000E1F806E02900206800F012F901E00120A9
:105A90000700002084F83C003800C0B2F2BD10B40A
:105AA0000468DFF85832984212D0B0F1804F0FD01E
:105AB000DFF84C2290420BD0DFF84822904207D00A
:105AC000DFF84422904203D0DFF84022904203D115
:105AD00034F070044A68144398422AD0B0F1804FE1
