:020000040800F2
:10000000800C002041860008F5830008F783000873
:10001000F9830008FB830008FD830008000000004E
:10002000000000000000000000000000FF83000846
:100030000184000800000000038400080584000813
:100040007D8600088186000885860008898600086C
:100050008D86000891860008958600080D840008AA
:10006000998600089D860008A1860008A5860008DC
:10007000A9860008AD860008B1860008B58600088C
:10008000B9860008BD860008C1860008C58600083C
:100090001784000821840008C9860008CD8600085E
:1000A000D1860008D5860008D9860008DD860008BC
:1000B0002B840008E1860008E5860008E986000830
:1000C000ED860008F1860008F5860008F98600082C
:1000D000FD860008018700080587000835840008B0
:1000E000098700080D870008118700081587000898
:1000F000198700081D870008218700082587000848
:10010000298700083F8400082D87000831870008F0
:1001100035870008398700083D87000841870008B7
:1001200045870008498700084D8700085187000867
:1001300055870008598700085D8700086187000817
:10014000498400085384000865870008698700080F
:100150006D87000871870008758700085D840008B6
:10016000798700087D870008818700088587000857
:10017000898700088D87000891870008000000002B
:100180009587000899870008678400087184000833
:100190009D870008A1870008A5870008A987000897
:1001A0000000000000000000AD8700082DE9F843C2
:1001B0002DED028B80460D001600B0EE408AF0EE69
:1001C000608A1F00DFF8284AD8F808002060D8F8B5
:1001D0000C006060D8F81800A060D8F81C00E0603F
:1001E000A8682061E8686061A869A061E869E061C9
:1001F000B0682062F0686062B069A062F069E06295
:1002000084ED0C8AC4ED0D8A3800C0B201F052FCB6
:100210000022DFF8E03901F077FC01F047FDA06330
:10022000DFF8D4994FF47A733C222100484601F05C
:10023000AEFDD9F8000000684006FAD53800C0B21B
:10024000002803D03800C0B2052862D1DFF8AC998D
:10025000DFF8AC493900C9B2B0EE682AF0EE481AAE
:1002600096ED011AD5ED010A99ED000AD8ED012AA3
:1002700030EE620A200002F07BFD012002F0E6FE73
:100280003900C9B2B0EE682AF0EE481A96ED001AAD
:10029000D5ED000A99ED010AD8ED002A30EE220AC8
:1002A00014F1480002F064FD012002F0CFFEDFF8F7
:1002B0005499DFF854493900C9B2B0EE682AF0EE1B
:1002C000481A96ED051AD5ED050A99ED000AD8ED04
:1002D000052A30EE220A200002F04AFD012002F039
:1002E000B5FE3900C9B2B0EE682AF0EE481A96EDB4
:1002F000041AD5ED040A99ED010AD8ED042A30EE6E
:10030000620A14F1480002F033FD012002F09EFE63
:100310004DE0DFF8EC483900C9B2B0EE682AF0EEE3
:10032000481A96ED011AD5ED010A9FED230A200027
:1003300002F01EFD012002F089FE3900C9B2B0EEC4
:10034000682AF0EE481A96ED001AD5ED000A9FEDE6
:100350001A0A14F1480002F00BFD012002F076FEAB
:10036000DFF8A4483900C9B2B0EE682AF0EE481AA6
:1003700096ED051AD5ED050A9FED0F0A200002F053
:10038000F7FC012002F062FE3900C9B2B0EE682A23
:10039000F0EE481A96ED041AD5ED040A9FED060A10
:1003A00014F1480002F0E4FC012002F04FFEBDEC25
:1003B000028BBDE8F1830000000000002DE9F04150
:1003C0002DED068B8AB00400DFF8405895ED000A49
:1003D000DFEDA30A80EE200A8DED000A00200190D7
:1003E00006A8102102F046FE02A8102102F042FEEB
:1003F0009FED9C8AB7EE009AF0EE498A207800289B
:1004000040F0D0800020069006AE002070600020F2
:10041000B0600020F0609FED940A8DED020ADFEDE0
:10042000930A02AFC7ED010A87ED020AC7ED030A7E
:100430006078012807D1CDED020A87ED010AC7EDEA
:10044000020A87ED030A9DED000AB5EE400AF1EEBF
:1004500010FA5DDB9DED000ADFED850AB4EE600A5F
:10046000F1EE10FA54D5DFF8A8879FEDE33AF0EEED
:10047000482A9FEDE12ADDED021A9FEDDF1ADDED3E
:10048000060AB0EE680A18F104024146684602F016
:1004900025FF9FEDD93ADFEDD82A9FEDD72AD7ED7A
:1004A000011A9FEDD51AD6ED010AB0EE490A18F1EE
:1004B0000C0218F10801684602F010FF9FEDCE3AD9
:1004C000F0EE482A9FEDCC2AD7ED021A9FEDCA1A0A
:1004D000D6ED020AB0EE680A18F1140218F1100104
:1004E000684602F0FBFE9FEDC43ADFEDC32A9FEDA4
:1004F000C22AD7ED031A9FEDC01AD6ED030AB0EE5B
:10050000490A18F11C0218F11801684602F0E6FECB
:100510000020042814DA002102290FDADFF8F4267B
:1005200002EBC002002342F82130DFF8EC2602EB98
:10053000C002002342F82130491CEDE7401CE8E7E7
:10054000DFF8D8060168491C01600168B1F5FA6F4F
:1005500001D1002101600023F1EE040A9FEDA70AFA
:10056000DFF8B426DFF8AC16DFF8A406FFF71EFEAE
:1005700095ED000ADFED3A0AB4EE600AF1EE10FAEA
:10058000C0F22883E068012840F024830120207015
:100590000020E06000202860DFF88406DFF8841681
:1005A000016017E32078012840F0D2819DED000A18
:1005B000B5EE400AF1EE10FA5CDB9DED000AB4EEF8
:1005C000490AF1EE10FA55D59FED270A8DED060A7E
:1005D00006AE86ED020ADFED250ACDED020A02AF76
:1005E000C7ED020A6078012807D1CDED060AC6EDF5
:1005F000020A8DED020A87ED020A9DED000A80EEE7
:10060000090A8DED010ADFF808869FED7B3ADFEDE0
:100610007A2A9FED792ADDED021A9FED771ADDED3A
:10062000060AB0EE490A18F10402414601A802F098
:1006300055FE9FED713ADFED702A9FED6F2AD7EDE1
:10064000021A9FED6D1AD6ED020AB0EE490A18F1B2
:10065000140218F1100101A802F040FE6AE000BF88
:1006600000007A448FC2F53C8FC2753D8FC275BDC4
:100670000100803F9DED000AB4EE490AF1EE10FA48
:1006800058DB9DED000ADFEDC60AB4EE600AF1EE1C
:1006900010FA4FD5DFEDC30ACDED060A06AEC6ED62
:1006A000020A9FEDC10A8DED020A02AF87ED020A30
:1006B0006078012807D18DED060A86ED020ACDED9E
:1006C000020AC7ED020A9DED000A30EE490AF0EE7B
:1006D000000A70EEC90A80EE200A8DED010ADFF8EB
:1006E00030859FED453AF0EE482A9FED432ADDED37
:1006F000021A9FED411ADDED060AB0EE680A18F104
:100700000402414601A802F0E9FD9FED3B3AF0EEFC
:10071000482A9FED392AD7ED021A9FED371AD6EDF8
:10072000020AB0EE680A18F1140218F1100101A8CB
:1007300002F0D4FD9DED000AB5EE400AF1EE10FA8C
:100740005EDBB0EE000A30EE490ADDED000AF4EEA1
:10075000400AF1EE10FA53D5DFED920A06AEC6ED6F
:10076000010AC6ED030A9FED900A02AF87ED010A68
:1007700087ED030A6078012807D186ED010A86ED2E
:10078000030AC7ED010AC7ED030AB0EE000A30EE16
:10079000490ADDED000A80EE800A8DED010ADFF8DE
:1007A00070849FED153AF0EE482A9FED132AD7ED9D
:1007B000011A9FED111AD6ED010AB0EE680A18F180
:1007C0000C0218F1080101A802F088FD9FED0A3A19
:1007D000F0EE482A9FED082AD7ED031A9FED061A7E
:1007E000D6ED030AB0EE680A18F11C0218F11801E0
:1007F00001A802F073FD68E0000000000000C8429C
:10080000B0EE000A30EE490ADDED000AF4EE400ACF
:10081000F1EE10FA59DB9DED000ADFED610AB4EE4E
:10082000600AF1EE10FA50D59FED5F0A06AE86ED34
:10083000010A86ED030ADFED5B0A02AFC7ED010A8C
:10084000C7ED030A6078012807D1C6ED010AC6ED9D
:10085000030A87ED010A87ED030A9DED000A30EED9
:10086000090AF8EE000A30EE200A80EE090A8DED42
:10087000010ADFF89C839FEDA53ADFEDA42A9FEDE6
:10088000A32AD7ED011A9FEDA11AD6ED010AB0EE09
:10089000490A18F10C0218F1080101A802F01EFD26
:1008A0009FED9A3ADFED992A9FED982AD7ED031A2A
:1008B0009FED961AD6ED030AB0EE490A18F11C0214
:1008C00018F1180101A802F009FD0020042812DA2D
:1008D000002102290DDACF4A02EBC002002342F8C0
:1008E0002130CD4A02EBC002002342F82130491CDE
:1008F000EFE7401CEAE7DFF87C0B0168491C016068
:100900000168B1F5FA6F01D1002101600023F1EE19
:10091000040A9FEDB30AC04ABE49BD48FFF746FC32
:1009200095ED000ADFEDAF0AB4EE600AF1EE10FAC1
:10093000C0F25081E068012840F04C810220207014
:100940000020E06000202860B548B649016041E120
:100950002078022840F0C0809FED130A8DED060A32
:10096000DFED100A06AEC6ED010A86ED020AC6EDFD
:10097000030A0020029002AF002078600020B860D7
:100980000020F8606078012807D1CDED060A86EDD9
:10099000010AC6ED020A86ED030ADFF8748205E05B
:1009A000010000408FC275BD8FC2753D9FED573A63
:1009B000DFED562A9FED552ADDED021A9FED531A01
:1009C000DDED060AB0EE490A18F104024146684618
:1009D00002F084FC9FED4D3AF0EE482A9FED4B2A41
:1009E000D7ED011A9FED491AD6ED010AB0EE680A5B
:1009F00018F10C0218F10801684602F06FFC9FED37
:100A0000433ADFED422A9FED412AD7ED021A9FEDCE
:100A10003F1AD6ED020AB0EE490A18F1140218F195
:100A20001001684602F05AFC9FED383AF0EE482A71
:100A30009FED362AD7ED031A9FED341AD6ED030A3F
:100A4000B0EE680A18F11C0218F11801684602F0AD
:100A500045FC0020042812DA002102290DDA6D4A33
:100A600002EBC002002342F821306B4A02EBC002C5
:100A7000002342F82130491CEFE7401CEAE7DFF889
:100A8000FC090168491C01600168B1F5FA6F01D1E8
:100A9000002101600023F1EE040A9FED510A5E4A35
:100AA0005C494046FFF782FB95ED000ADFED4E0AF8
:100AB000B4EE600AF1EE10FA40F08C80E068012894
:100AC00040F08880032020700020E0600020286033
:100AD0005348544901607DE02078032879D1DFF83C
:100AE000A0090168491C01600168B1F5FA6F01D1E4
:100AF000002101600020A06000200C2808DA3C4999
:100B0000002241F82020401CF7E700BF0000000051
:100B10003749DFED339AC1ED0C9AB1EE04AA81EDAD
:100B20000DAA00208863344D4FF47A733C222800CC
:100B300001F02DF9286800684006FBD5304D2F4E96
:100B40000021B0EE4A2AF0EE691A9FED281ADFED77
:100B5000270A96ED000A280002F00AF9012002F0A7
:100B600075FA0021B0EE4A2AF0EE691A9FED1F1ABD
:100B7000DFED1E0A96ED010A15F1480002F0F8F8C3
:100B8000012002F063FA204D1E4E0021B0EE4A2AE9
:100B9000F0EE691A9FED151ADFED140A96ED000AC2
:100BA000280002F0E5F8012002F050FA0021B0EE32
:100BB0004A2AF0EE691A9FED0D1ADFED0C0A96ED48
:100BC000010A15F1480002F0D3F8012002F03EFAC4
:100BD00000E0FFE70AB0BDEC068BBDE8F081000045
:100BE0000000C8420000FA4400007A4400000000FF
:100BF000380700200000F03FF00600202C00002005
:100C0000700000203C000020B0020020700800208E
:100C100004080020C4070020E4070020600800202A
:100C20004C000020000080BF2DE9F0412DED068B27
:100C30008AB00400DFF84C5895ED000ADFEDAB0AEE
:100C400080EE200A8DED000A0020019006A81021F8
:100C500002F010FA02A8102102F00CFA9FEDA48A0B
:100C6000B7EE009AF0EE498A2078002840F0D08054
:100C70000020069006AE002070600020B0600020CA
:100C8000F0609FED9C0A8DED020A02AF87ED010A2C
:100C9000DFED990AC7ED020AC7ED030A6078002864
:100CA00007D1CDED020AC7ED010A87ED020A87EDF3
:100CB000030A9DED000AB5EE400AF1EE10FA5DDB85
:100CC0009DED000ADFED8D0AB4EE600AF1EE10FA38
:100CD00054D5DFF8B4879FEDE53AF0EE482A9FED52
:100CE000E32ADDED021A9FEDE11ADDED060AB0EE12
:100CF000680A18F104024146684602F0EFFA9FEDD7
:100D0000DB3ADFEDDA2A9FEDD92AD7ED011A9FED04
:100D1000D71AD6ED010AB0EE490A18F10C0218F103
:100D20000801684602F0DAFA9FEDD03AF0EE482A60
:100D30009FEDCE2AD7ED021A9FEDCC1AD6ED020A0E
:100D4000B0EE680A18F1140218F11001684602F0BA
:100D5000C5FA9FEDC63ADFEDC52A9FEDC42AD7ED4F
:100D6000031A9FEDC21AD6ED030AB0EE490A18F134
:100D70001C0218F11801684602F0B0FA002004289D
:100D800014DA002102290FDADFF8002702EBC00293
:100D9000002342F82130DFF8F82602EBC0020023DE
:100DA00042F82130491CEDE7401CE8E7DFF8E40693
:100DB0000168491C01600168B1F5FA6F01D1002199
:100DC00001600023F1EE040A9FEDA90ADFF8C026B6
:100DD000DFF8B816DFF8B006FFF7E8F995ED000A7E
:100DE000DFED420AB4EE600AF1EE10FAC0F2308391
:100DF000E068012840F02C83012020700020E06092
:100E000000202860DFF8740CDFF8741C01601FE319
:100E10002078012840F0D181DFED369ACDED069A99
:100E200006AEC6ED019A9FED34AA86ED02AA86EDC4
:100E300003AA8DED02AA02AF87ED01AAC7ED029ABF
:100E4000C7ED039A9DED000AB5EE400AF1EE10FAE7
:100E500056DB9DED000AB4EE490AF1EE10FA4FD5CB
:100E6000CDED069A86ED02AA8DED02AAC7ED029A93
:100E70006078002807D18DED06AAC6ED029ACDED67
:100E8000029A87ED02AA9DED000A80EE090A8DED17
:100E9000010ADFF8F4859FED753ADFED742A9FEDC6
:100EA000732ADDED021A9FED711ADDED060AB0EE30
:100EB000490A18F10402414601A802F00FFA9FED19
:100EC0006B3ADFED6A2A9FED692AD7ED021A9FED92
:100ED000671AD6ED020AB0EE490A18F1140218F1A9
:100EE000100101A802F0FAF964E000BF00007A44A2
:100EF0008FC2F53C0AD7233D0AD723BD0100803FAE
:100F00009DED000AB4EE490AF1EE10FA52DB9DEDB8
:100F1000000ADFEDC20AB4EE600AF1EE10FA49D51C
:100F20008DED06AAC6ED029ACDED029A87ED02AAD2
:100F30006078002807D1CDED069A86ED02AA8DEDE6
:100F400002AAC7ED029A9DED000A30EE490AF0EEC2
:100F5000000A70EEC90A80EE200A8DED010ADFF862
:100F600028859FED423AF0EE482A9FED402ADDEDBC
:100F7000021A9FED3E1ADDED060AB0EE680A18F17E
:100F80000402414601A802F0A9F99FED383AF0EEBB
:100F9000482A9FED362AD7ED021A9FED341AD6ED76
:100FA000020AB0EE680A18F1140218F1100101A843
:100FB00002F094F99DED000AB5EE400AF1EE10FA48
:100FC00058DBB0EE000A30EE490ADDED000AF4EE1F
:100FD000400AF1EE10FA4DD5C6ED019A86ED03AA4E
:100FE00087ED01AAC7ED039A6078002807D186ED46
:100FF00001AAC6ED039AC7ED019A87ED03AAB0EEE8
:10100000000A30EE490ADDED000A80EE800A8DED1F
:10101000010ADFF874849FED153AF0EE482A9FED3F
:10102000132AD7ED011A9FED111AD6ED010AB0EE81
:10103000680A18F10C0218F1080101A802F04EF933
:101040009FED0A3AF0EE482A9FED082AD7ED031AE1
:101050009FED061AD6ED030AB0EE680A18F11C02DD
:1010600018F1180101A802F039F962E0000000004F
:101070000000C842B0EE000A30EE490ADDED000A79
:10108000F4EE400AF1EE10FA53DB9DED000ADFEDBD
:10109000630AB4EE600AF1EE10FA4AD586ED01AAB1
:1010A000C6ED039AC7ED019A87ED03AA6078002880
:1010B00007D1C6ED019A86ED03AA87ED01AAC7ED17
:1010C000039A9DED000A30EE090AF8EE000A30EEB0
:1010D000200A80EE090A8DED010ADFF8AC839FED4E
:1010E000A73ADFEDA62A9FEDA52AD7ED011A9FEDBD
:1010F000A31AD6ED010AB0EE490A18F10C0218F154
:10110000080101A802F0EAF89FED9C3ADFED9B2A66
:101110009FED9A2AD7ED031A9FED981AD6ED030A90
:10112000B0EE490A18F11C0218F1180101A802F0EA
:10113000D5F80020042812DA002102290DDAD34A5A
:1011400002EBC002002342F82130D14A02EBC00278
:10115000002342F82130491CEFE7401CEAE7C5486C
:101160000168491C01600168B1F5FA6F01D10021E5
:1011700001600023F1EE040A9FEDB80AC44AC34996
:10118000C148FFF713F895ED000ADFEDB50AB4EE9C
:10119000600AF1EE10FA40F05B81E068012840F04F
:1011A0005781022020700020E06000202860DFF8D6
:1011B000CC08DFF8CC1801604AE12078022840F022
:1011C000CD809FEDA80A8DED060A06AE86ED010AD8
:1011D000DFEDA50AC6ED020AC6ED030A0020029063
:1011E00002AF002078600020B8600020F8606078CE
:1011F000002807D1CDED060AC6ED010A86ED020AE8
:1012000086ED030A9DED000AB5EE400AF1EE10FAF4
:1012100060DB9DED000ADFED950A01E00100004072
:10122000B4EE600AF1EE10FA54D5DFF85C829FED5F
:10123000533ADFED522A9FED512ADDED021A9FED60
:101240004F1ADDED060AB0EE490A18F104024146D4
:10125000684602F043F89FED493AF0EE482A9FEDC8
:10126000472AD7ED011A9FED451AD6ED010AB0EED7
:10127000680A18F10C0218F10801684602F02EF80D
:101280009FED3E3ADFED3D2A9FED3C2AD7ED021A55
:101290009FED3A1AD6ED020AB0EE490A18F114028F
:1012A00018F11001684602F019F89FED343AF0EE9B
:1012B000482A9FED322AD7ED031A9FED301AD6ED5A
:1012C000030AB0EE680A18F11C0218F1180168460A
:1012D00002F004F80020042812DA002102290DDAB5
:1012E0006A4A02EBC002002342F82130684A02EB4E
:1012F000C002002342F82130491CEFE7401CEAE716
:101300005E480168491C01600168B1F5FA6F01D1BE
:10131000002101600023F1EE040A9FED500A5C4AAF
:101320005A495948FEF742FF95ED000ADFED500A91
:10133000B4EE600AF1EE10FAC0F28A80E06801288B
:1013400040F08680032020700020E06000202860AC
:10135000DFF82807DFF82817016079E020780328F4
:1013600075D10020A06000200C2809DADFF81417DE
:10137000002241F82020401CF6E700BF00000000DA
:10138000DFF80017DFED359AC1ED0C9AB1EE04AA33
:1013900081ED0DAA00208863DFF8EC564FF47A73D4
:1013A0003C22280000F0F3FC286800684006FBD5CA
:1013B000DFF8D856DFF8D8660021B0EE4A2AF0EE02
:1013C000691A9FED2D1ADFED2C0A96ED000A280010
:1013D00001F0CEFC012001F039FE0021B0EE4A2AD6
:1013E000F0EE691A9FED241ADFED230A96ED010A4B
:1013F00015F1480001F0BCFC012001F027FEDFF8E8
:101400009456DFF894660021B0EE4A2AF0EE691A8D
:101410009FED191ADFED180A96ED000A280001F079
:10142000A7FC012001F012FE0021B0EE4A2AF0EEE6
:10143000691A9FED111ADFED100A96ED010A15F1F8
:10144000480001F095FC012001F000FE00E0FFE7FC
:101450000AB0BDEC068BBDE8F08100000000C84278
:101460000000FA440AD7233D0AD723BD0100803F7C
:1014700000007A4464080020000000006808002092
:101480006C0800207008002004080020C407002019
:10149000E40700206008002070B52DED048B82B0B9
:1014A00004009FEDA48ADFEDA48ADFF8F05595EDE6
:1014B000000ADFEDA20A80EE200A8DED000A2078F6
:1014C000002840F09680DFF8D8659FED9D3AF0EE59
:1014D000482AB0EE482ADFED9A1A9FED991ADFEDFF
:1014E000980AB7EE000A321D3100684601F0F6FE98
:1014F0009FED933AF0EE482AB0EE482ADFED901ABD
:101500009FED8F1ADFED8E0AB7EE000A16F10C027E
:1015100016F10801684601F0E1FE9FED893AF0EE10
:10152000482AB0EE482ADFED861A9FED851ADFEDD6
:10153000840AB7EE000A16F1140216F1100168468B
:1015400001F0CCFE9FED7E3AF0EE482AB0EE482A3C
:10155000DFED7B1A9FED7A1ADFED790AB7EE000A0C
:1015600016F11C0216F11801684601F0B7FE0020C2
:10157000042814DA002102290FDADFF8282502EB0B
:10158000C002002342F82130DFF81C2502EBC00224
:10159000002342F82130491CEDE7401CE8E7002316
:1015A000F1EE040A9FED670ADFF8FC24DFF8F4147B
:1015B0003000FEF7FBFD95ED000ADFED600AB4EEAA
:1015C000600AF1EE10FAC0F24D82A068012840F0E6
:1015D0004982012020700020A06000202860DFF8F0
:1015E0009C04DFF89C1401604FF47A7001F02EFD2A
:1015F00038E22078012840F0A9809FED539A002519
:10160000042D0EDADFF8980400EBC501091D00EB8C
:10161000C50079EE280A9FED4A0A01F02FFD6D1CE6
:10162000EEE70020042871DA002102296CDADFF8E5
:10163000742402EBC002002342F82130DFF860245A
:1016400002EBC00202EB810292ED000AB5EE400A05
:10165000F1EE10FA2BDD002801D0032813D1012967
:1016600008D1DFF8442402EBC002DFF8403442F82E
:10167000213047E0DFF8302402EBC002DFF83034DD
:1016800042F821303EE0012908D1DFF81C2402EBAA
:10169000C002DFF81C3442F8213033E0DFF80824C0
:1016A00002EBC002DFF8043442F821302AE00028BF
:1016B00001D0032813D1012908D1DFF8EC2302EB74
:1016C000C002DFF8EC3342F821301BE0DFF8D8230A
:1016D00002EBC002DFF8D43342F8213012E00129D6
:1016E00008D1DFF8C42302EBC002DFF8C03342F8B0
:1016F000213007E0DFF8B02302EBC002DFF8B0339F
:1017000042F82130491C90E7401C8BE70523F1EE9D
:10171000040A9FEDD60ADFF89023DFF88813DFF87C
:101720008003FEF743FDC82001F090FC02202070EA
:1017300098E100BFCDCC4C3DCDCCCC3D00007A44EF
:10174000000000000000C842C8987B3E20780228B4
:1017500040F08B80D24E9FEDC63AF0EE482AB0EEB4
:10176000482ADFEDC31AB1EE681ADFEDC10AB7EE01
:10177000000A321D3100684601F0B0FD9FEDBC3A11
:10178000F0EE482AB0EE482ADFEDB91AB1EE681A39
:10179000DFEDB70AB7EE000A16F10C0216F10801E8
:1017A000684601F09BFD9FEDB23AF0EE482AB0EE9C
:1017B000482ADFEDAF1AB1EE681ADFEDAD0AB7EED9
:1017C000000A16F1140216F11001684601F086FDB8
:1017D0009FEDA73AF0EE482AB0EE482ADFEDA41AB2
:1017E000B1EE681ADFEDA20AB7EE000A16F11C028C
:1017F00016F11801684601F071FD0020042812DA84
:10180000002102290DDAA74A02EBC002002342F8A8
:101810002130A54A02EBC002002342F82130491CC6
:10182000EFE7401CEAE70023F1EE040A9FED910A7E
:101830009D4A9C493000FEF7B9FC95ED000ADFEDAA
:101840008E0AB4EE600AF1EE10FAC0F20B81A068C5
:10185000012840F00781032020700020A0600020B4
:101860002860864886490160FCE02078032840F023
:1018700089808B4E9FED7E3AF0EE482A9FED7C2AC0
:10188000DFED7B1AB0EE481ADFED790AB7EE000AF9
:10189000321D3100684601F021FD9FED753AF0EEF2
:1018A000482A9FED732ADFED721AB0EE481ADFED79
:1018B000700AB7EE000A16F10C0216F1080168462C
:1018C00001F00CFD9FED6A3AF0EE482A9FED682A80
:1018D000DFED671AB0EE481ADFED650AB7EE000AD1
:1018E00016F1140216F11001684601F0F7FC9FEDA5
:1018F000603AF0EE482A9FED5E2ADFED5D1AB0EE09
:10190000481ADFED5B0AB7EE000A16F11C0216F169
:101910001801684601F0E2FC0020042812DA0021D8
:1019200002290DDA5F4A02EBC002002342F821309F
:101930005D4A02EBC002002342F82130491CEFE768
:10194000401CEAE70023F1EE040A9FED4A0A564ADA
:1019500054493000FEF72AFC95ED000ADFED460AF7
:10196000B4EE600AF1EE10FA7CDBA068012879D1B0
:10197000042020700020A060002028603F484049DB
:1019800001606FE0207804286BD1002060600020A7
:101990000C2805DA3B49002241F82020401CF7E7DB
:1019A00038499FED349A81ED0C9AF1EE049AC1ED1D
:1019B0000D9A00208863344D4FF47A733C2228003E
:1019C00000F0E5F9286800684006FBD52F4D304E41
:1019D0000021B0EE692AF0EE491A9FED251ADFEDDD
:1019E000240A96ED000A280001F0C2F9012001F056
:1019F0002DFB0021B0EE692AF0EE491A9FED1C1A6A
:101A0000DFED1B0A96ED010A15F1480001F0B0F96F
:101A1000012001F01BFB1F4D1F4E0021B0EE692A73
:101A2000F0EE491A9FED121ADFED110A96ED000A49
:101A3000280001F09DF9012001F008FB0021B0EE23
:101A4000692AF0EE491A9FED0A1ADFED090A96EDB0
:101A5000010A15F1480001F08BF9012001F0F6FAB6
:101A600000E0FFE702B0BDEC048B70BD0000C8438E
:101A7000000000000000C84200007A444C00002032
:101A8000000080BF38070020F00600207000002012
:101A90002C000020B00200203C0000207008002034
:101AA00004080020C4070020E40700200000C0C094
:101AB0000000C040014648B1B0FA80F18840C91C1E
:101AC000C1F58461090501EBD0214005704730B4B0
:101AD000002513E050F8042BD30744BFA9F10103FC
:101AE0009A18091F042942F8045BFAD213468C079E
:101AF00044BF15809B1CC90748BF1D7050F8041BCC
:101B00000029E7D130BC7047B0B581EA030C0CF076
:101B1000004C40F2FF7515EA11541DBF15EA13572A
:101B2000AC42AF4239E0E41923EA455343F4801351
:101B3000C90241F0004141EA505EC7021100A7FB13
:101B4000020200284FF00000EEFB01204FF00001E0
:101B5000E3FB072118BF42F0010240180021494170
:101B6000E3FB0E01A4F580640F0302D25200404152
:101B7000494154F101046CDD470872F1004250F113
:101B8000000051EB0451A1F580115CBF41EA0C014A
:101B9000B0BD4CEA05510020B0BD05EA1357AC4278
:101BA00014BFAF4241E050EA410E1CBF52EA430E5F
:101BB00002E061460020B0BD24423C441BD15FEAF4
:101BC000070EF6D0090302BF01460020AEF1140E45
:101BD000B1FA81F7AEEB070401FA07FE0C37C7F143
:101BE000200100FA07F7C8404EEA000E23EA4553E9
:101BF00043F48013A2E733F00043B3FA83F704BF42
:101C0000B2FA82FE77440B3FE41BB7F1200E2FBFE0
:101C100002FA0EF3BB40C7F1200E22FA0EFE38BFC7
:101C200043EA0E03BA40641C82E750EA410E14BF37
:101C300052EA430E6FF000014FF4001717EB430F09
:101C40008ABF194617EB410FB5E74CEA0551002052
:101C5000B0BDD4F10104B4F120070FDAC4F12007BC
:101C6000520828BF42F0010210FA07F501FA07F7FF
:101C7000E1BF2A43E0403843E1400FE0352C98DCD7
:101C8000C7F1200452EA400220FA07F218BF42F0DE
:101C9000010231FA07F0A1400A43002172F100422B
:101CA00050F1000051EB0C01B0BD000001F000420A
:101CB0008B1AA3F16051B1F5801F0ADBB1F17F6F80
:101CC0001FD242EAC102C10071F1004142EB5070E3
:101CD00070470B15C3F10903212B10D2890241EA89
:101CE000905180020128494141F0004121FA03F05E
:101CF000C3F12003994071F1004150417047100039
:101D000070476FF0000013EB103F5CBF000E42EA1B
:101D1000C050704710B50400002C01D1012035E0FF
:101D2000A0690028FFD194F84100002805D10020C7
:101D300084F84000200001F0FBFC242084F84100DE
:101D40002068C06830F400502168C860200000F0AE
:101D50006BFB2068006930F49040216808612068BE
:101D6000406930F02A00216848612068C06850F45A
:101D700000502168C86000206064202084F8410081
:101D8000202084F8420000206063002010BD2DE96F
:101D9000FC4706000D0017009846002496F8410005
:101DA000202857D1002D03D0380080B2002801D15F
:101DB000012050E000207064212086F8410001F0ED
:101DC000ADFD8146B784F784B068B0F5805F05D17A
:101DD0003069002802D10024AA4602E02C005FF0FE
:101DE000000AF08C002821D0CDF800804B4600225C
:101DF0008021300000F0B6F9002804D0202086F8B9
:101E00004100032027E0002C08D1BAF80000C005EB
:101E1000C00D316848601AF1020A03E02078316889
:101E20004860641CF08C401EF084DAE7CDF8008036
:101E30004B4600224021300000F094F9002804D0E5
:101E4000202086F84100032005E0202086F841008C
:101E5000002000E00220BDE8F68770B505000C0008
:101E6000160095F84200202810D1002C03D0300035
:101E700080B2002801D1012009E00020286332004F
:101E800092B22100280000F0AFF900E0022070BDFE
:101E90002DE9FC470600306807683068D0F80C80F0
:101EA0003068D0F814900020002517F00F04002CA3
:101EB00008D1B80606D55FEA886003D5300000F087
:101EC00038FA4DE1002C00F080805FEAC97002D43E
:101ED00018F4907F79D017F00100C0B2002806D026
:101EE0005FEAC85003D5706C50F001007064780749
:101EF00008D519F00100C0B2002803D0706C50F072
:101F000002007064B80708D519F00100C0B20028BB
:101F100003D0706C50F00400706438070BD55FEA92
:101F2000886004D419F00100C0B2002803D0706C9E
:101F300050F008007064706C002845D0B80605D5D4
:101F40005FEA886002D5300000F0F3F9306840693C
:101F5000800910F001000500706C000701D4002D0D
:101F60002DD0300000F062F930684069400622D57B
:101F70003068143050E8000F30F040000100306845
:101F800010F1140242E800100028F1D1F06B002893
:101F90000DD00FF20130F16B0865F06B01F012FD0E
:101FA000002811D0F06BF16B096D88470CE0300010
:101FB00001F01CFD08E0300001F018FD04E03000E5
:101FC00001F014FD00207064CAE0306B012840F07D
:101FD000B580F80640F1B2805FEAC86040F1AE809B
:101FE00000200090306800680090306840680090E1
:101FF00000983068406940065DD5F06B0068D0F805
:1020000004A0504680B2002854D05046B18D80B212
:1020100088424FD2A6F82EA0F06BC069B0F5807F41
:102020003FD030680C3050E8000F30F48070010071
:10203000306810F10C0242E800100028F1D130683D
:10204000143050E8000F400840000100306810F1E3
:10205000140242E800100028F1D13068143050E832
:10206000000F30F040000100306810F1140242E827
:1020700000100028F1D1202086F8420000203063B3
:1020800030680C3050E8000F30F01000010030686C
:1020900010F10C0242E800100028F1D1F06B01F0C1
:1020A00043FC02207063B18DF08D091A89B23000B3
:1020B00001F09DFC54E0B08DB6F82EA0B0EB0A0AFA
:1020C000F08D002839D0504680B2002835D03068D5
:1020D0000C3050E8000F30F490700100306810F1BF
:1020E0000C0242E800100028F1D13068143050E8AA
:1020F000000F400840000100306810F1140242E86F
:1021000000100028F1D1202086F842000020306322
:1021100030680C3050E8000F30F0100001003068DB
:1021200010F10C0242E800100028F1D10220706387
:10213000514689B2300001F05AFC11E0380606D54C
:102140005FEA086003D5300000F0B0F808E07806D8
:1021500006D55FEA486003D5300000F0DAF8FFE703
:10216000BDE8F3872DE9FC4105000E0017009846F5
:10217000089C286800683040B04201D1012000E08E
:1021800000203900C9B288422BD114F1010FF0D0E0
:1021900001F0C4FBB0EB0800844201D3002C01D154
:1021A00003201FE02868C0684007E2D5802EE0D0F9
:1021B000402EDED0286800680007DAD500200090A5
:1021C00028680068009028684068009000982800FF
:1021D00000F02CF808206864002085F840000120F9
:1021E00000E00020BDE8F68110B4030099629A85F2
:1021F000DA8500205864222083F8420018690028FC
:1022000005D01868C06850F480701C68E0601868D9
:10221000406950F001001C6860611868C06850F0A7
:1022200020001C68E060002010BC704701680C3181
:1022300051E8001F31F490710A00016811F10C039C
:1022400043E800210029F1D10168143151E8001F51
:10225000490849000A00016811F1140343E800210C
:102260000029F1D1016B01290DD101680C3151E830
:10227000001F31F010010A00016811F10C0343E85E
:1022800000210029F1D1202180F8421000210163B2
:102290007047000038B50400A56B0020E8850020D9
:1022A000E884280001F0A2FB31BD0000010091F894
:1022B000410021282BD18868B0F5805F0DD10869D5
:1022C00000280AD1086A02001088C005C00D0B68FA
:1022D0005860086A801C086205E0086A431C0B62AB
:1022E00000780B685860C88C401EC88480B20028F3
:1022F0000BD10868C06830F080000B68D8600868AF
:10230000C06850F040000B68D860002000E0022058
:10231000704710B504002068C06830F040002168A4
:10232000C860202084F84100200001F061FB0020FB
:1023300010BD7CB5040094F84200222872D1A06838
:10234000B0F5805F0DD1206900280AD10025A66A6A
:1023500020684068C005C00D3080A06A801CA06263
:1023600017E0A56A0026A068B0F5805F05D0A068D8
:10237000002806D12069002803D120684068287011
:1023800004E02068406810F07F002870A06A401CBC
:10239000A062E08D401EE08580B2002840D1206818
:1023A000C06830F020002168C8602068C06830F440
:1023B00080702168C860206840694008400021683A
:1023C0004861202084F8420000206063206B0128CF
:1023D00021D10020206320680C3050E8000F30F03D
:1023E00010000100206810F10C0242E800100028E3
:1023F000F1D120680068C00608D500200090206850
:10240000006800902068406800900098A18D20002E
:1024100001F0EDFA02E0200001F007FB002002E0ED
:10242000002000E0022076BD2DE9F84F84B00500C1
:102430002868016931F44051E86801432868016166
:10244000D5F808B0286950EA0B0B686950EA0B0B05
:10245000E86950EA0B0B2868C168B24801405BEAA2
:1024600001012868C1602868416931F44071A86998
:102470000143286841612868AB49884203D0286835
:10248000AA49884203D101F0F7FC040002E001F000
:10249000E8FC0400E869B0F5004F40F0A1805FF06F
:1024A000640A022600275FF019085FF00009220085
:1024B0000023A8FB020108FB031109FB0211CDE96F
:1024C000000168680021A6FB002306FB013307FB1F
:1024D0000033DDE9000101F037FD6421B0FBF1F0CC
:1024E000039022000023A8FB020108FB031109FB53
:1024F0000211CDE9000168680021A6FB002306FB5C
:10250000013307FB0033DDE9000101F01DFD0290FE
:1025100022000023A8FB020108FB031109FB0211A2
:10252000CDE9000168680021A6FB002306FB01330A
:1025300007FB0033DDE9000101F006FD6421B0FB7B
:10254000F1F102980AFB1101C80032306421B0FB9E
:10255000F1F0400010F4F870039910EB01100290B4
:1025600022000023A8FB020108FB031109FB021152
:10257000CDE9000168680021A6FB002306FB0133BA
:1025800007FB0033DDE9000101F0DEFC00902200D2
:102590000023A8FB020108FB031109FB021180467E
:1025A000894668680021A6FB002306FB013307FB70
:1025B00000334046494601F0C7FC6421B0FBF1F10D
:1025C00000980AFB110A5FEACA0032306421B0FBAE
:1025D000F1F111F0070102980918286881609EE066
:1025E000042600275FF0640A5FF019085FF0000915
:1025F00022000023A8FB020108FB031109FB0211C2
:10260000CDE9000168680021A6FB002306FB013329
:1026100007FB0033DDE9000101F096FC6421B0FB0B
:10262000F1F0039022000023A8FB020108FB031134
:1026300009FB0211CDE9000168680021A6FB002317
:1026400006FB013307FB0033DDE9000101F07CFCF0
:10265000029022000023A8FB020108FB031109FBE2
:102660000211CDE9000168680021A6FB002306FBEA
:10267000013307FB0033DDE9000101F065FC642153
:10268000B0FBF1F102980AFB11010801323064211C
:10269000B0FBF1F010F0F000039910EB0110029084
:1026A00022000023A8FB020108FB031109FB021111
:1026B000CDE9000168680021A6FB002306FB013379
:1026C00007FB0033DDE9000101F03EFC0090220031
:1026D0000023A8FB020108FB031109FB021180463D
:1026E000894668680021A6FB002306FB013307FB2F
:1026F00000334046494601F027FC6421B0FBF1F16C
:1027000000980AFB110A5FEA0A1032306421B0FB1C
:10271000F1F111F00F01029809182868816005B0E5
:10272000BDE8F08FF369FFFF001001400014014085
:102730000100DFED692AB4EE620AF1EE10FA06DA62
:102740009FED663AB4EE430AF1EE10FA01D500208F
:102750003EE0F4EE620AF1EE10FA04DAF4EE430A17
:10276000F1EE10FA01D5002032E0DFED5D3AB4EE73
:10277000631AF1EE10FA04DAB5EE401AF1EE10FA2F
:1027800001D5002024E0DFED573AF4EE631AF1EEB4
:1027900010FA04DAF5EE401AF1EE10FA01D5002035
:1027A00016E0B4EE622AF1EE10FA04DAB4EE432A2F
:1027B000F1EE10FA01D500200AE081ED030AC1ED27
:1027C000040A81ED051AC1ED061A81ED072A0120E0
:1027D000704738B52DED068B04000D00B0EE408A31
:1027E000F0EE608AB0EE419AF0EE619AB0EE42AA45
:1027F000257120782072B0EE4A2AF0EE691AB0EE08
:10280000491AF0EE680AB0EE480A2000FFF790FF80
:10281000002801D1002000E00120BDEC068B32BD74
:10282000017102780272704738B52DED028B0400F9
:102830000D009FED2A8ADFED698A1020B0EE681A3C
:10284000F0EE480A94ED010A01F096FCA8600E2013
:10285000B0EE681AF0EE480A94ED020A01F08CFC22
:10286000E8600A209FED6D1ADFED6D0A94ED030A12
:1028700001F082FC286108209FED6A1ADFED680AEA
:1028800094ED040A01F078FC68611020B0EE681A3B
:10289000F0EE480A94ED050A01F06EFCA861A86804
:1028A0002870A868000A6870E868A870E868000ADC
:1028B00010F03F00296950EA8110E870286980080B
:1028C000287168696871A869A871A869000AE87127
:1028D000BDEC028B31BD000001002042000020C28F
:1028E00001C07F4401004C421300DBB20A2B06D129
:1028F00043880B7043889BB21B0A4B7007E01300A0
:10290000DBB2092B03D103780B7000234B707047A7
:102910000A784B7852EA032202808A788270CA7859
:10292000C2700A794B7952EA032282808A79CB7984
:1029300052EA0322C28070470A78027070470A7810
:10294000012A02D10122028025E00A78022A02D15E
:10295000022202801FE00A78042A02D104220280A7
:1029600019E00A78082A02D10822028013E00A78C6
:10297000102A02D1102202800DE00A78202A02D10A
:102980002022028007E00A78402A02D140220280F9
:1029900001E000220280704738B504000D00207964
:1029A000042805D1291D14F10800FFF73DFF0CE0B4
:1029B00020790A2802D02079092806D1227915F138
:1029C0003C0114F13400FFF78FFF31BD010008799D
:1029D000097850EA411080B27047000000002042A0
:1029E000F8B504000D001600257084F84660022139
:1029F0002000FFF715FFDFF84C76201DFFF7E6FFFC
:102A000038800020B87094F84610380001F0DEFBE2
:102A1000002801D1002000E00120F2BD00C07F4469
:102A20000000000000004C4238B52DED048B04007E
:102A3000B0EE408AF0EE608AB0EE419A9FEDAE2A89
:102A4000F0EE491AB0EE681ADFEDAB0AB0EE480AB4
:102A500004212000FFF7BDFE002801D1002015E071
:102A6000DFF8E055201DFFF7B1FF28800820A8708F
:102A700029002000FFF790FF94F84610280001F08D
:102A8000A5FB002801D1002000E00120BDEC048B53
:102A900032BD000038B52DED028B0400B0EE408A47
:102AA000F0EE608A9FED942AF0EE681A9FED921A7C
:102AB000F0EE480A9FED900A04212000FFF789FEFE
:102AC000002801D1002015E0DFF87855201DFFF720
:102AD0007DFF28800820A87029002000FFF75CFFF8
:102AE00094F84610280001F071FB002801D1002065
:102AF00000E00120BDEC028B32BD000038B52DEDA9
:102B0000028B0400B0EE408AB0EE482ADFED7A1A5C
:102B10009FED791ADFED780A9FED770A04212000F6
:102B2000FFF757FE002801D1002015E0DFF814550B
:102B3000201DFFF74BFF28800820A87029002000E7
:102B4000FFF72AFF94F84610280001F03FFB002809
:102B500001D1002000E00120BDEC028B32BD00005D
:102B600038B52DED028B0400B0EE408A9FED622A4D
:102B7000F0EE481A9FED601ADFED5F0A9FED5E0AE6
:102B800004212000FFF725FE002801D1002015E0D8
:102B9000DFF8B054201DFFF719FF28800820A87027
:102BA00029002000FFF7F8FE94F84610280001F0F5
:102BB0000DFB002801D1002000E00120BDEC028BBC
:102BC00032BD000038B504009FED4B2ADFED4A1AF4
:102BD0009FED491ADFED480A9FED470A04212000C6
:102BE000FFF7F7FD002801D1002015E0DFF854546D
:102BF000201DFFF7EBFE28800820A8702900200088
:102C0000FFF7CAFE94F84610280001F0DFFA00280A
:102C100001D1002000E0012032BD000038B52DEDCB
:102C2000048B0400B0EE408AF0EE608AB0EE419A68
:102C3000F0EE619AB0EE682AF0EE691AB0EE491A29
:102C4000DFED2D0AB0EE480A04212000FFF7C1FD98
:102C5000002801D1002015E0DFF8E853201DFFF720
:102C6000B5FE28800820A87029002000FFF794FEF8
:102C700094F84610280001F0A9FA002801D100209C
:102C800000E00120BDEC048B32BD000038B52DED15
:102C9000048B0400B0EE408AF0EE608AB0EE419AF8
:102CA000B0EE682AF0EE491A9FED131AF0EE480ACA
:102CB0009FED110A04212000FFF78BFD002801D1B0
:102CC000002015E0DFF87C53201DFFF77FFE2880F1
:102CD0000820A87029002000FFF75EFE94F8461037
:102CE000280001F073FA002801D1002000E0012043
:102CF000BDEC048B32BD00000000000038B52DEDA6
:102D0000068B0400B0EE408AF0EE608AB0EE419A85
:102D1000F0EE619AB0EE42AAB0EE492AF0EE4A1AFD
:102D2000B0EE691AF0EE680AB0EE480A04212000FD
:102D3000FFF74FFD002801D1002015E0DFF8045314
:102D4000201DFFF743FE28800820A87029002000DE
:102D5000FFF722FE94F84610280001F037FA002809
:102D600001D1002000E00120BDEC068B32BD000047
:102D700038B52DED068B0400B0EE408AF0EE608A87
:102D8000B0EE419AF0EE619AB0EE42AA0D00B0EEBC
:102D9000492AF0EE4A1A9FED851AF0EE680A9FED77
:102DA000830A04212000FFF714FD002801D1002030
:102DB00078E084F845502800C0B200280BD00228E3
:102DC00023D016D3042834D029D3062849D038D3A9
:102DD000072854D065E0B0EE4A1AF0EE690AB0EE6A
:102DE000480A2000FFF720FE002801D1002059E00A
:102DF00057E0F0EE4A0AB0EE680A2000FFF74AFEFC
:102E0000002801D100204DE04BE0B0EE490A20003F
:102E1000FFF774FE002801D1002043E041E0B0EE4E
:102E20004A0A2000FFF79CFE002801D1002039E06B
:102E300037E02000FFF7C6FE002801D1002031E076
:102E40002FE0F0EE4A1AB0EE691AF0EE490AB0EE41
:102E5000480A2000FFF7E2FE002801D1002021E00F
:102E60001FE0B0EE4A1AF0EE490AB0EE680A200000
:102E7000FFF70CFF002801D1002013E011E0B0EEB5
:102E80004A2AF0EE691AB0EE491AF0EE680AB0EE7E
:102E9000480A2000FFF732FF002801D1002001E09E
:102EA000FFE70120BDEC068B32BD00002DE9F84F95
:102EB0002DED028B84B004000D0000200290002054
:102EC0000190002000900026002003902F78687861
:102ED00057EA0027A878000410F47020074395F8FB
:102EE00002805FFA88F85FEA18185FFA88F8E878D5
:102EF00058EA00182879000310F47F4050EA0808C7
:102F000095F80590A87959EA002995F807A01AF0D4
:102F1000010A95F807B05FFA8BFB5FEA5B0B5FFA7B
:102F20008BFB9FED458ADFED458A1421F0EE680AA0
:102F3000B0EE480A380001F034F984ED000A14219B
:102F4000F0EE680AB0EE480A404601F02AF984ED36
:102F5000010A1021F0EE680AB0EE480A484601F076
:102F600020F984ED020A84F80CA0207B00280AD105
:102F70000721DFED330ABBEE040A584601F011F9D0
:102F800084ED040A0CE0207B012809D10721DFED44
:102F90002C0ABBEE040A584601F003F984ED040A3A
:102FA00004B0BDEC028BBDE8F18F00000000000012
:102FB00070B504000D0016003000C0B2042806D120
:102FC00015F1510114F12000FFF770FF1BE03000F4
:102FD000C0B2182806D115F1510114F13A00FFF7DB
:102FE00097FC10E03000C0B2172806D115F151014E
:102FF00014F14200FFF7A3FC05E015F1510114F1B3
:103000004400FFF799FC70BDF8B504000E48056850
:103010002E00F6B2760915F01F00B0F1100732004D
:10302000D2B208493B00DBB24820434304EB030023
:103030004838FFF7BDFFF1BD000020C2000020426C
:1030400000004843740500202408002070B50400E7
:1030500000F064FC0500260016F1010F02D00448C0
:103060000078361800F05AFC401BB042FAD370BD0D
:103070006D000020002201F01BB900002DE9F8438B
:103080002DED108B82B0B0EE40DAF0EE60DA060083
:103090000F009FED8E9ADFED8E9A9FED8EAA6DEE5A
:1030A0000DAA4DEEADAA3AEE290A7AEE290A20EED3
:1030B00020BAF0EE00BAB0EE4B0A09EE090A30EE83
:1030C0006A0A69EE2B0A39EE8A1A60EE810A80EEEE
:1030D00020CA1CEE100A01F005F941EC100B01F0BA
:1030E00028F951EC100BFEF7E1FD019069EE09CAD9
:1030F00049EEA9CA29EE2B0A20EE290A40EE4CCA55
:103100001AEE900A01F0EEF841EC100B01F018F9FC
:10311000B0EE408AF0EE608A1DEE100A01F0E2F88F
:1031200053EC182B01F08EF941EC100B01F001F972
:1031300051EC100BFEF7BAFD00901CEE900A01F066
:10314000D1F841EC100B01F0FBF8B0EE408AF0EE44
:10315000608A3AEEAC0A0AEE4A0A10EE100A01F052
:10316000C1F88046894653EC182B00205FF080415F
:10317000FEF7CAFC04000D001AEE900A01F0B2F846
:1031800041EC100B01F0DCF851EC100B22002B008D
:10319000FEF7BAFC02000B004046494601F052F926
:1031A000FEF784FD0FEE900A1FEE900A01F09AF8E8
:1031B00041EC100B01F0BDF851EC100BFEF776FD61
:1031C0000FEE100A9DED000A30EE0FEA1CEE900A99
:1031D00001F088F841EC100B01F0B2F8B0EE408A33
:1031E000F0EE608AB0EE6C0A09EE090A09EEE90A0F
:1031F00010EE100A01F076F804000D0029EE2B0AFB
:1032000010EE100A01F06EF853EC182BFEF77CFC60
:1032100002000B002000290001F014F941EC100B12
:1032200001F087F851EC100BFEF740FD08EE100A94
:1032300078EE4E8A1EEE100A01F054F802000B00E0
:10324000DFF80404DFF8041401F020FA04000D0094
:1032500018EE100A01F046F802000B0020002900C9
:1032600001F014FAFEF722FD0BEE900ADFED1AEAE8
:1032700028EEAE0A10EE100A01F034F841EC100B03
:1032800001F076FA51EC100B0022DFF8C43301F0A4
:10329000D9F8FEF70BFD30602BEEAE0A10EE100AE7
:1032A00001F020F841EC100B01F062FA51EC100B28
:1032B0000022DFF89C3301F0C5F8FEF7F7FC386018
:1032C00002B0BDEC108BBDE8F1830000EC51B83DBD
:1032D0008FC2753ECDCCCC3C00007A442DE9F74F2F
:1032E0002DED108B2DED051A2DED010A8EB08146C6
:1032F000B0EE60FAB7EE008ADFEDCDFA00200C9058
:10330000DFEDCCAA10980A900DF128081198C8F8A2
:103310000400109808909FEDC80A08AEDDED120A6F
:1033200060EE800A9FEDC51AC0EE810AC6ED010A63
:103330008DED06FA06AFDDED120A20EE800ADFED14
:10334000BF0A80EE200A87ED010A8DED04FA04AC75
:103350000F98606099ED000A80EE080ADDED130A0F
:1033600070EE208A99ED000AB4EE408AF1EE10FA70
:10337000C0F25181B4EE688AF1EE10FAC0F24B81CE
:10338000F5EE408AF1EE10FAC0F2458199ED000A9F
:1033900080EE080AF0EE408AB7EE000A30EE680AC6
:1033A00010EE100A00F09EFF41EC1B0BB7EE000A76
:1033B00030EE680A10EE100A00F094FF41EC1C0B8E
:1033C00018EE900A00F08EFF41EC1D0B18EE900AEB
:1033D00000F088FF41EC1E0BB0EE08AA9FED989B11
:1033E00053EC1B2B51EC1B0BFEF78EFB53EC1B2BF2
:1033F000FEF78AFB82468B46049800F073FF524624
:103400005B46FEF781FBCDE9000153EC1C2B51EC30
:103410001C0BFEF779FB53EC192BFEF775FB82466C
:103420008B4618EE900A00F05DFF52465B46FEF7B1
:103430006BFB82468B46069800F054FF52465B4673
:10344000FEF762FBDDE9002301F0C4F9CDE90001DC
:10345000B7EE000A30EE680A20EE0A0A10EE100AF3
:1034600000F040FF82468B4653EC1D2B51EC1D0BA8
:10347000FEF74AFB52465B46FEF746FB82468B460A
:10348000089800F02FFF52465B46FEF73DFBDDE952
:10349000002301F09FF9CDE9000153EC1E2B51EC04
:1034A0001E0BFEF731FB53EC1E2BFEF72DFB824665
:1034B0008B460A9800F016FF52465B46FEF724FB47
:1034C000DDE9002301F086F9FEF7F0FB0390B7EE8B
:1034D000000A30EE680A10EE100A00F003FF41EC1B
:1034E0001B0BB7EE000A30EE680A10EE100A00F06F
:1034F000F9FE41EC1C0B18EE900A00F0F3FE41ECD3
:103500001D0B18EE900A00F0EDFE41EC1E0B1AEEBA
:10351000900A00F0E7FECDE9000153EC1B2B51ECC3
:103520001B0BFEF7F1FA53EC1B2BFEF7EDFA82466C
:103530008B46606800F0D6FE52465B46FEF7E4FA22
:1035400082468B4653EC1C2B51EC1C0BFEF7DCFA2D
:1035500053EC192BFEF7D8FA04000D0018EE900A70
:1035600000F0C0FE22002B00FEF7CEFA04000D0092
:10357000786800F0B7FE22002B00FEF7C5FA52462D
:103580005B4601F027F982468B46B7EE000A30EE23
:10359000680A20EE0A0A10EE100A00F0A3FE0400EA
:1035A0000D0053EC1D2B51EC1D0BFEF7ADFA220064
:1035B0002B00FEF7A9FA04000D00706800F092FEDF
:1035C00022002B00FEF7A0FA52465B4601F002F9FA
:1035D00004000D0053EC1E2B51EC1E0BFEF794FA69
:1035E00053EC1E2BFEF790FA06000F00D8F80400EB
:1035F00000F078FE32003B00FEF786FA22002B0036
:1036000001F0E8F802000B00DDE9000101F03EF8EE
:10361000FEF74CFB029026992598DDED020A9DED00
:10362000030AFFF72BFD14B0BDEC108BBDE8F78F3C
:10363000D00F4940C8987B3EEC51B83D713D8A3D62
:1036400000000000000008406E861BF0F9210940D0
:1036500000408F4080B5A148A14901605FF4E1318D
:103660004160002181600021C160002101610C21C5
:103670004161002181610021C161FEF74BFB0028FF
:1036800001D001F0ABFA01BD10B5964C9648206010
:103690005FF4E13060600020A0600020E060002066
:1036A00020610C2060610020A0610020E06120000A
:1036B000FEF730FB002801D001F090FA03228B497D
:1036C0002000FEF7CAFB10BD80B58948894901601A
:1036D0005FF4E1314160002181600021C16000217F
:1036E00001610C214161002181610021C161FEF76E
:1036F00011FB002801D001F071FA01BD80B57E48B0
:103700007E4901605FF4E131416000218160002168
:10371000C160002101610C21416100218161002112
:10372000C161FEF7F7FA002801D001F057FA01BD98
:1037300010B586B0040068461421FFF79BFC206892
:10374000674988422ED1002005906D48016851F0EC
:1037500080410160006810F08040059005980020CD
:1037600005906848016851F020010160006810F080
:10377000200005900598C0200090022001900020B4
:103780000290032003900820049069465E4801F0EF
:1037900027FA00220021522001F000FC522001F003
:1037A00012FC99E02068504988422ED100200590F3
:1037B0005348016851F000410160006810F000407A
:1037C00005900598002005904E48016851F01001C1
:1037D0000160006810F0100005900598032000902B
:1037E0000220019000200290032003900820049002
:1037F0006946464801F0F4F900220021532001F007
:10380000CDFB532001F0DFFB66E020683949884298
:103810002FD1002005903A48016851F480210160C1
:10382000006810F480200590059800200590354828
:10383000016851F004010160006810F00400059077
:1038400005984FF440600090022001900020029003
:10385000032003900720049069462D4801F0C0F929
:1038600000220021272001F099FB272001F0ABFB6B
:1038700032E02068214988422ED100200590254859
:10388000016851F020010160006810F020000590EF
:103890000598002005901B48016851F04001016027
:1038A000006810F04000059005984FF484400090A7
:1038B0000220019000200290032003900820049031
:1038C0006946154801F08CF900220021472001F0DB
:1038D00065FB472001F077FB06B010BD18060020FD
:1038E0000078004060060020007C0040780800203E
:1038F000A806002000480040F00600200014014007
:1039000040380240303802400014024000100240AB
:103910000008024044380240001802400148006894
:10392000704700BF7408002070B50400A56DFFF754
:10393000F5FF060094F83500022806D08020606567
:10394000002084F8340001203BE02068006830F05B
:103950001600216808602068406930F08000216806
:103960004861206C002802D1A06C002805D0206896
:10397000006830F00800216808602068006840088E
:1039800040002168086020680068C0070ED5FFF776
:10399000C5FF801B0628F6D320206065032084F82D
:1039A0003500002084F8340003200AE03F21E06D58
:1039B0008140A960012084F83500002084F834009B
:1039C000002070BD010091F83500022803D080204E
:1039D0004865012009E0052081F835000868006885
:1039E000400840000A681060002070477047704728
:1039F0007047000010B504002068DFF8DC12884230
:103A000007D1B649B64800F03AFCB648FFF7FCFAD1
:103A10000AE02068B449884206D1B449B04800F0B1
:103A20002EFCB348FFF7F0FA10BD10B50400206873
:103A3000B049884240F09980AF490878FF2840F0AB
:103A400090804878FF2840F08C808878452871D095
:103A5000462877D0472871D0482877D0642857D097
:103A6000652808D066282BD0672815D068283BD059
:103A70006E286FD075E0A1480022027000224270CB
:103A80000122826000209E4A90609E4800220260CF
:103A90009D489E4A026064E098480022027001221C
:103AA0004270012282600020954A90600020984A6E
:103AB00050609448002202609348944A026050E0AB
:103AC0008F48002202700022427000228B4B9A60C5
:103AD0000122826000208E4A50608A4800220260E3
:103AE00089488A4A02603CE085480022027001222F
:103AF00042700022814B9A60012282600020844A39
:103B000050608048002202607F48804A026028E0BE
:103B10007F4800220270012242600020784A9060B3
:103B20000020764A90607748002202607648774A03
:103B3000026016E00120714AD06012E001206F4A55
:103B4000D0600EE001206E4AD0600AE001206C4A8D
:103B5000D06006E00120694AD0600120684AD06048
:103B6000FFE703226B48FEF778F910BD10B504009B
:103B70002068B0F1804F40F0A480604908780028A8
:103B800002D0087802281DD19FED4E0A5D48D0ED85
:103B9000000AF4EE400AF1EE10FA40F18F80D0ED09
:103BA000000A9FED491A70EE810AC0ED000AD0EDBF
:103BB000000AF4EE400AF1EE10FAC0F27F80012014
:103BC000C8607BE04E490878002802D008780228B7
:103BD0001BD19FED3C0A4B48D0ED000AF4EE400AA1
:103BE000F1EE10FA6AD5D0ED000A9FED371A70EEAB
:103BF000810AC0ED000AD0ED000AF4EE400AF1EEB1
:103C000010FA5BDB0120C86058E0414908780028C1
:103C100008D00878032805D00878022802D0087850
:103C2000012833D19FED270A3648D0ED000AF4EE83
:103C3000400AF1EE10FA41D50A78022A08D1D0EDF7
:103C4000000A9FED221A70EE810AC0ED000A13E00F
:103C50000A78012A08D1D0ED000A9FED1D1A70EEF6
:103C6000810AC0ED000A07E0D0ED000AB3EE041AA5
:103C700070EE810AC0ED000AD0ED000AF4EE400AB1
:103C8000F1EE10FA1ADB0120886017E01D4890ED74
:103C9000000ADFED100AB4EE600AF1EE10FA08D562
:103CA00090ED000ADFED080A30EE200A80ED000AF0
:103CB00004E000210160144814490160164801F035
:103CC000ECF910BD00007A44000020420000484298
:103CD0000000C8420000FA4400640040740700205D
:103CE0007405002070000020006800409C07002040
:103CF000B0020020007C0040780800200000002076
:103D000010000020700800204C000020000080BF40
:103D10002000002060060020D00500202DE9F041A1
:103D200004000D00002C01D1012095E0584F3868A7
:103D300010F00F00A84207D23D70386810F00F0055
:103D4000A84201D0012087E02078800716D520788E
:103D5000400704D54F48016851F4E05101602078D4
:103D6000000704D54B48016851F46041016049499E
:103D70000A6832F0F002A06802430A602078C007A7
:103D800038D56068012805D143480068800313D402
:103D9000012061E06068022802D06068032805D134
:103DA0003D480068800107D4012055E03A4800688A
:103DB000800701D401204FE0DFF8D880D8F8001048
:103DC0008908890060680143C8F80010FFF7A6FD64
:103DD0000600D8F8000010F00C006168B0EB810F0D
:103DE00008D0FFF79BFD801B41F289318842F0D358
:103DF000032031E0386810F00F00854207D23D7093
:103E0000386810F00F00A84201D0012024E020788B
:103E1000400706D51F490A6832F4E052E0680243C1
:103E20000A602078000707D51A48016831F460411C
:103E3000226951EAC201016000F038F81749154AB9
:103E40001268C2F30312895CC8401549086015481E
:103E5000006801F09DFB0020BDE8F081104800687B
:103E6000704780B5FFF7FAFF0F490A4A1268C2F39C
:103E70008222895CC84002BD80B5FFF7EFFF0A4986
:103E8000044A1268C2F34232895CC84002BD000095
:103E9000003C0240083802400038024030860008EA
:103EA00054000020500000206C8600082DE9F041ED
:103EB00000240025002600271F48006810F00C0091
:103EC000002804D0042804D0082804D031E01B487E
:103ED00030E01B482EE0DFF86C80D8F8000010F0CE
:103EE0003F000400D8F8000040020CD5D8F80000CC
:103EF000C0F388101249A1FB00012200002300F04A
:103F000023F805000BE0D8F80000C0F388100B4937
:103F1000A1FB00012200002300F016F80500D8F8EC
:103F20000000C0F30140401C40000600B5FBF6F065
:103F300000E00248BDE8F081083802400024F400A7
:103F4000001BB70004380240BBBBE1B1B2F5803FB3
:103F500080F07E80022A1ED98C46B1FBF2F102FB72
:103F600011C31B0443EA1043B3FBF2FC02FB1C33F6
:103F700080B240EA0343B3FBF2F002FB103240EAA6
:103F80000C4000237047022A05D98446B0FBF2F0AA
:103F900002FB10C270474AB105D100F00102490886
:103FA0005FEA3000704700220023704701F016BB23
:103FB0000B000200002100207047904271EB030CBF
:103FC000F6D3B3F5803F2FD2F0B5B3FA83F7B1FA49
:103FD00081F4A7F10F0E3D1B5340CEF1200602FAEB
:103FE0000EF2F3415340B5F10F0746D80F3C2C4475
:103FF0004140C4F12006A040F1414140B1FBF3F63D
:1040000003FB1611A2FB0645001BA94102D2761E36
:104010008018594180EA010221FA0EF362FA0EF289
:1040200000215A403046F0BD30B4B1FBF3FC03FB35
:104030001C11A2FB0C45001BA94103D2ACF1010CE1
:104040008018594130BC02460B466046002170473B
:10405000B2F1807F65D3F0B5B2FA82F7B1FA81F49C
:10406000C7F10F063D1B22FA06F307F1110EF241CC
:1040700020355A40B5F10F07B8D94140C4F12006A8
:10408000A040F1414140B1FBF3FC03FB1C11A2FB3A
:104090000C45001BA94103D2BCF1010C8018594109
:1040A0000F2F12D30F3FC90341EA5041B1FBF3F682
:1040B00003FB1611A2FB0645D4EBC030A94102D286
:1040C000761E8018594146EACC3C07B34140C7F1FF
:1040D0002006B840F1414140B1FBF3F603FB161155
:1040E000A2FB0645001BA94102D2761E8018594149
:1040F00080EA010221FA0EF3C7F1200462FA0EF2FF
:104100000CFA07F05A402CFA04F13043F0BD80EA73
:10411000010221FA0EF3002162FA0EF260465A40C3
:10412000F0BD8C46B1FBF2F102FB11C31B0243EA66
:104130001063B3FBF2FC02FB1C331B024CEA0020B1
:1041400043EA1063B3FBF2FC02FB1C331B024CEA94
:10415000002043EA1063B3FBF2FC02FB1C331B029A
:104160004CEA002043EA1063B3FBF2FC02FB1C3272
:104170004CEA002000237047012111FA00F0401E94
:1041800001EE900AF8EEE11A30EE600A21EE800AA4
:1041900071EE600A80EE200ABCEEC00A10EE100A32
:1041A000704701EE100A70EEC00AB8EE411A60EED8
:1041B000810A012010FA01F1491E01EE101AB8EE31
:1041C000C11AC0EE810A30EE800A704770B586B021
:1041D00004000D002800C0B2012805D02800C0B29C
:1041E000022801D0002048E02800C0B2012802D1F6
:1041F0002B48060005E02800C0B2022801D129485A
:104200000600208800900020029000200390A078F3
:10421000049000208DF81400208880B24009042802
:1042200009D1214B221D6946300001F053FB0028C3
:1042300022D0002021E0208880B2400980B20928E5
:1042400004D0208880B240090A280AD1164B14F104
:104250003C026946300001F03DFB00280CD00020F4
:104260000BE0114B14F148026946300001F032FBBB
:10427000002801D0002000E0012006B070BD38B554
:1042800004000D0014F15103084A0021280001F038
:10429000B4FB002801D0002000E0012032BD000066
:1042A000740700209C0700205408002024080020E8
:1042B00000B500BF130096469446103928BFA0E809
:1042C0000C50FAD85FEA417C28BF0CC048BF40F8C8
:1042D000042BC90728BF20F8022B48BF00F8012B88
:1042E00000BD0000C0F3C75181B1FF2906D0C11045
:1042F000400721F0E04101F16051704741020CBFDD
:1043000040F4E0016FF000410020704700F00041F0
:1043100000020AD0B0FA80FC00FA0CF001F1605102
:10432000A1EB0C5101EBD0214005704741EC100B83
:1043300001BD80B551EC100B01F044FDF6E7000023
:1043400051EC100B00B500F003F841EC100B00BD70
:1043500040F2FF7C0B0D4DD0634566D230B421EAAC
:10436000035141F4801103F2FD3C5FEA5C0C01D380
:1043700000184941890041EA907180004FF44014CF
:104380000023E202D50AB1F5100107D46D081DD251
:10439000091B641900184941491BF7D56D080AD259
:1043A0000919641B00184941491BEFD56D08F7D363
:1043B00001E0520817D0C01861419B1AAC410018A7
:1043C0004941801AA941F4D452080AD0C01AA14127
:1043D0009B186C4100184941801AA941E9D4520840
:1043E000F4D15B1C6C4161084FEA330001EB0C51C6
:1043F00030BC704750EA0103FBD030B4B1FA81F30E
:1044000011B9B0FA80F41B190B3BB3F120042FBF94
:1044100000FA04F19940C3F1200420FA04F438BFF3
:1044200021439840D3F101039DE7634514BF50EA4F
:10443000410CDEE711F5801FDBD8D943AFF30080D4
:1044400070470000F0B540F2FF7581EA030C0CF0F4
:10445000004C15EA11541DBF15EA1357AC42AF4288
:10446000E5E0BC41C1F31301C3F31303801A994182
:1044700043F4801304D2641E40004941801859411E
:10448000C90241EA5051B1FBF3F603FB1611A2FB3E
:104490000675D7EBC020A94102D2761E801859417B
:1044A000C90241EA5051B1FBF3FE03FB1E11A2FB0E
:1044B0000E75D7EBC020A94103D2AEF1010E8018D2
:1044C0005941890241EA9051760546EA8E2EB1FBA8
:1044D000F3F603FB1611A2FB0675D7EB8020A9416A
:1044E00002D2761E80185941C90241EA50514EEA63
:1044F000060EB1FBF3F603FB1611A2FB0675D7EB14
:10450000C020A94102D2761E80185941C90241EA51
:104510005051B1FBF3F703FB1711A2FB0735D3EBA7
:10452000C020A94167F100070CBF004247F0010716
:1045300066F3D5274FEA1E31B80814F5806412DD02
:10454000BD0775F1004250EB0E5051EB045111F5CF
:10455000801F5CBF41EA0C01F0BD4CF07F6141F06F
:10456000E0410020F0BDBD076D0840EA0E5041F467
:104570008011D4F10104B4F120060ADAC4F1200656
:104580000200E04001FA06F3E1401843B24015434F
:104590000EE0342C13DCC6F1200445EA40056D081A
:1045A00020FA06F2154321FA06F0A1400D4300213E
:1045B00075F1004250F1000051EB0C01F0BD0020FC
:1045C0005FEA0C01F0BDCFB992185B41B3FA83F7F3
:1045D00004BFB2FA82F6BF190B3FB7F120062FBF16
:1045E00002FA06F3BB40C7F1200622FA06F638BFEE
:1045F0003343BA401CB1E419641E33E77F4231F003
:104600000041B1FA81F404BFB0FA80F6A4190B3C62
:10461000B4F120062FBF00FA06F1A140C4F1200634
:1046200020FA06F638BF3143A0403C1B1AE7AC42E3
:104630001ABF05EA1357AF4212E050EA41061CBF09
:1046400052EA4306BFE750EA4107304661461CBFC5
:1046500041EA0551F0BD52EA430C08BFC143F0BD29
:1046600000204FF4001616EB410F98BF16EB430FD6
:1046700008BF16EB410F24BFC14305E016EB430F03
:104680000CBF61464CEA0551F0BD000070B44FF01C
:10469000004591EA030F40F1A5806B40841A71EB4D
:1046A000030603D2001BB141121973414FF4001CE1
:1046B0001CEB410F34BF7CEB430442E00C0DA4EB38
:1046C0001356352E4FDC45EAC323DB0A45EAC121E8
:1046D000C912B6F120050DDD63FA05F6EB4086EA56
:1046E0000305124218BF45F00105C01851F1000141
:1046F0000CD213E062FA06F5F2405540F3415A40FD
:10470000B340F3405A408018594107D349085FEA43
:1047100030005FEA350528BF45F0010501F580113D
:10472000420875F1004250F1000041EB04514E0087
:1047300016F5001F70BC38BF70470020090D090531
:1047400070471CEB410F10D252EA43060BD0BCEB72
:10475000410F05D80C0DAB43661E342EB6DD02E0CA
:10476000AB438018594170BC704770BC7047000063
:1047700051EC100B00B500F003F841EC100B00BD3C
:1047800040F2FF7C0CEA115240F2FE33D21A17DDE0
:10479000352A1DDAB2F1150308DA6FEA4C53D3401B
:1047A00031EA5301C9189943002070476FF00002A5
:1047B000DA4030EA5200801841F10001904370471E
:1047C00001F0004104BF41F07C5141F47001002030
:1047D0007047000070B44FF0004591EA030F7FF579
:1047E0005DAF6B40841A71EB030604D26E40001B70
:1047F000B141121973414FF4001C1CEB410F34BF3F
:104800007CEB430683E00C0DA4EB1356362E00F32D
:104810007C80012E45EAC32341DC43EA525312BF98
:10482000D20292025B08240545EAC12141EA5051B7
:10483000D2EBC020994125D407D1B0FA80F610FA06
:1048400006F162D00020203608E0B1FA81F6B140CE
:10485000C6F1200220FA02F21143B0404FEAF4748C
:10486000B4EB465434F001064FEA74040AD8D6F586
:104870000016760D04F00044F04061FA06F2504054
:10488000F1404840C00A40EA415021F0004128BFB1
:104890005FEA500550F1000044EBD12135E0DB0A1E
:1048A00045EAC121C90AB6F120050EDD42EA0242FD
:1048B000120CC5F1200603FA06F6EB4042EA0605A3
:1048C0006D42984161F100010DE062FA06F5F24097
:1048D000554063FA06FC82EA0C02F3405A406D42EE
:1048E000904161EB030111F4801F05D1641E620544
:1048F00002D06D004041494121F48011430875F117
:10490000004350F1000041EB045170BC70471CEBB8
:10491000410F15D223F0004352EA43060BD04FEA71
:104920004C0CBCEB410F04D80C0D661E342EB7DDC9
:10493000EBE7801A994150EA410608BF0021E4E7FD
:1049400008BF1CEB430F28BF6FF00001DDE700003C
:104950002DE9F0412DED028B01F098FA00F0CCF832
:1049600001F0AEFA01F036FB01F061FB01F070FCE2
:1049700001F0E0FCFEF7C2FEFEF76CFEFEF784FEDF
:1049800001F0F2FCFEF7A0FE4FF47A60FEF75EFB4A
:10499000864C012201212000FEF722F814F148057F
:1049A000012202212800FEF71BF8814E022201217C
:1049B0003000FEF715F816F14807022202213800F0
:1049C000FEF70EF80120FEF741FBDFF8E881B3EEB9
:1049D000048AF1EE048A0021B0EE682AF0EE481A4B
:1049E0009FED711ADFED700A98ED000A2000FEF7C6
:1049F000BFF90120FEF72AFB0021B0EE682AF0EE95
:104A0000481A9FED691ADFED680A98ED010A28003F
:104A1000FEF7AEF90120FEF719FB674C0021B0EE5E
:104A2000682AF0EE481A9FED601ADFED5F0A94EDF8
:104A3000000A3000FEF79CF90120FEF707FB002179
:104A4000B0EE682AF0EE481A9FED571ADFED560ACD
:104A500094ED010A3800FEF78BF94FF4FA60FEF787
:104A6000F5FA564C564D95ED000AD4ED000AB4EE19
:104A7000600AF1EE10FAF4D0524EB06801280BD162
:104A800051488068002807D150484068002803D169
:104A90003000FBF793FC1BE0B06800280BD14A49BB
:104AA0008868012807D149484068002803D10800D8
:104AB000FCF7BAF80CE0B068002809D142488068D9
:104AC000002805D141484168012901D1FCF7E4FCE7
:104AD0003078032807D13C480078032803D13B48AD
:104AE00000780428BDD02868206039480021026879
:104AF000516200F085FAB4E780B592B006A8302183
:104B0000FEF7B8FA01A81421FEF7B4FA00200090CD
:104B10003048016851F080510160006810F0805009
:104B200000900098002000902B48016851F440410B
:104B30000160006810F44040009000980120069049
:104B40005FF48030079002200C905FF480000D909D
:104B500006200E90B4200F90022010900820119093
:104B600006A801F061FC002801D000F037F801F040
:104B700051FE002801D000F031F80F2001900220F2
:104B80000290002003904FF4A05004904FF4805006
:104B90000590052101A8FFF7C1F8002801D000F019
:104BA0001DF813B000BD00000000000070000020E0
:104BB000B00200202C0000203C0000204C0000200F
:104BC00070080020000000201000002020000020BD
:104BD000D0050020403802400070004072B6FEE769
:104BE000F8B50023002400250026102E80F0178140
:104BF000012717FA06F213000A681A4014009C42B3
:104C000040F00B810A7912F00302012A04D00A79DC
:104C100012F00302022A1FD1D0F808C05FF0030E81
:104C20003200D2B252001EFA02FE3CEA0E0CD1F85B
:104C30000CE03200D2B252001EFA02FE5EEA0C0C08
:104C4000C0F808C04268B740BA434F68C7F30017BE
:104C5000B7403A43150045600A7912F00302032A6F
:104C600014D0C7685FF0030C3200D2B252001CFAB5
:104C700002FC37EA0C07D1F808C03200D2B2520069
:104C80001CFA02FC5CEA07073D00C5600A7912F0D5
:104C90000302022A1ED13200D20800EB8202176AF8
:104CA0005FF00F0C16F00702D2B292001CFA02FC61
:104CB00037EA0C07D1F810C016F00702D2B2920002
:104CC0001CFA02FC5CEA07073D003200D20800EB48
:104CD0008202156207685FF0030C3200D2B2520004
:104CE0001CFA02FC37EA0C0791F804C01CF0030C14
:104CF0003200D2B252001CFA02FC5CEA07073D0007
:104D000005604A6812F4403F00F08780002200925C
:104D1000DFF84821176857F480471760126812F4CB
:104D200080420092009ADFF838C1320092085CF8A5
:104D300022705FF00F0E16F00302D2B292001EFA3C
:104D400002FE37EA0E07DFF81C21904201D1002550
:104D500030E0DFF81421904201D101252AE0DFF88C
:104D60000C21904201D1022524E0DFF80421904279
:104D700001D103251EE03F4A904201D1042519E0EC
:104D80003D4A904201D1052514E03C4A904201D1B0
:104D900006250FE03A4A904201D107250AE0394A38
:104DA000904201D1082505E0374A904201D10925FA
:104DB00000E00A25EDB216F00302D2B2920095404F
:104DC0002F43320092084CF82270304D2A68A243DB
:104DD000D1F804C05FEACC2C00D522432A602C4FC6
:104DE0003D68A543D1F804C05FEA8C2C00D525436B
:104DF0003D60284F3A68A243D1F804C05FEA8C3C7A
:104E000000D522433A60244F3D68A543D1F804C041
:104E10005FEACC3C00D525433D60761CE5E6F1BD5C
:104E20001300DBB2002B03D00B009BB2836103E0C5
:104E30000B009BB21B048361704710B50400174838
:104E40000168220092B2114206D0210089B20160AD
:104E5000200080B200F024F810BD00004438024069
:104E600008380140000002400004024000080240EF
:104E7000000C0240001002400014024000180240E2
:104E8000001C02400020024000240240083C014077
:104E90000C3C0140043C0140003C0140143C0140FA
:104EA0007047000010B410F00703DFF834412268A7
:104EB0004FF6FF010A40DFF82C1151EA03210A43A3
:104EC000226010BC7047DFF818010068C0F30220B0
:104ED00070470000010049B200290AD4012210F0F5
:104EE0001F018A40DFF8001103005BB25B0941F843
:104EF0002320704710B4020052B2002A05D40A01E0
:104F00003A4B040064B21A5508E00A01384B040019
:104F100064B214F00F04234403F8042C10BC70474F
:104F200070B4030013F00704D4F10700052801D37F
:104F3000042001E0D4F10700251D072D01D2002532
:104F400000E0E51E012616FA00F0401E0140A940CF
:104F500016FA05F56D1E2A401143080070BC704713
:104F600010B50400601EB0F1807F01D301200EE077
:104F7000601E204908600F215FF0FF30FFF7BAFF85
:104F800000201D49086007201C490860002010BD52
:104F900010B504002000FFF785FF10BD2DE9F0419A
:104FA00004000D0016000027FFF78DFF8046320039
:104FB00029004046FFF7B4FF0100200040B2FFF790
:104FC00099FFBDE8F08110B50400200040B2FFF762
:104FD00081FF10BD10B504002000FFF7C1FF10BD18
:104FE0000CED00E00000FA0500E100E000E400E064
:104FF00018ED00E014E000E018E000E010E000E050
:10500000010091F83D00012801D0012044E0022078
:1050100081F83D000868C06850F001000B68D86056
:105020000868DFF82031984221D00868B0F1804F3D
:105030001DD00868DFF81031984218D00868DFF8F2
:105040000C31984213D00868DFF8043198420ED032
:105050000868DFF80031984209D00868DFF8F830B6
:10506000984204D00868DFF8F43098420DD10868FF
:10507000806810F007000200062A0CD0086800685B
:1050800050F001000B68186005E00868006850F0F7
:1050900001000B6818600020704701000868C068B4
:1050A000400840000A68D0600868006A41F21112A6
:1050B00010420BD10868006A40F24442104205D108
:1050C00008680068400840000A681060012081F804
:1050D0003D000020704710B50400002C01D10120D4
:1050E0002FE094F83D00002805D1002084F83C0012
:1050F000200001F078F9022084F83D00211D20688D
:1051000000F001F9012084F84600012084F83E00F7
:10511000012084F83F00012084F84000012084F839
:105120004100012084F84200012084F8430001205E
:1051300084F84400012084F84500012084F83D00F3
:10514000002010BD000001400004004000080040A5
:10515000000C0040000401400040014000180040E5
:1051600070B504002068C56820680669B00718D5C6
:10517000A80716D57FF0020021680861012020777A
:105180002068806910F0030F03D0200001F080FB3D
:1051900005E0200001F07DFB200001F07BFB0020FA
:1051A0002077700718D5680716D57FF004002168AE
:1051B0000861022020772068806910F4407F03D0C6
:1051C000200001F065FB05E0200001F062FB2000FB
:1051D00001F060FB00202077300718D5280716D58E
:1051E0007FF0080021680861042020772068C069EA
:1051F00010F0030F03D0200001F04AFB05E020006F
:1052000001F047FB200001F045FB00202077F0066D
:1052100018D5E80616D57FF010002168086108202F
:1052200020772068C06910F4407F03D0200001F08F
:105230002FFB05E0200001F02CFB200001F02AFBF1
:1052400000202077F00708D5E80706D57FF0010099
:10525000216808612000FEF789FC300608D5280681
:1052600006D57FF0800021680861200001F013FB63
:10527000700608D5680606D57FF0400021680861F1
:10528000200001F009FBB00608D5A80606D57FF07E
:10529000200021680861200001F0FFFA70BDF8B518
:1052A00004000D001600002794F83C00012801D1ED
:1052B000022027E0012084F83C003000002806D0BE
:1052C000042809D008280CD00C280FD013E029009E
:1052D000206800F081F810E02900206800F0AEF8A6
:1052E0000BE02900206800F0E1F806E029002068C2
:1052F00000F012F901E001200700002084F83C00D2
:105300003800C0B2F2BD10B40468DFF858329842D9
:1053100012D0B0F1804F0FD0DFF84C2290420BD06A
:10532000DFF84822904207D0DFF84422904203D0B1
:10533000DFF84022904203D134F070044A681443ED
:1053400098422AD0B0F1804F27D0DFF81C2290423B
:1053500023D0DFF8182290421FD0DFF814229042A9
:105360001BD0DFF81022904217D0DFF80C229042B9
:1053700013D0DFF8082290420FD0DFF804229042C9
:105380000BD0DFF80022904207D0DFF8FC219042DA
:1053900003D0DFF8F821904203D134F44074CA6896
:1053A000144334F080044A69144304608A68C2627A
:1053B0000A688262984202D06E4A904201D10A691C
:1053C0000263012242610269D20703D502695208D1
:1053D0005200026110BC704770B4036A026A52083E
:1053E000520002624568846934F07004A408A40085
:1053F0000A68144333F002038A681343594EB042DB
:1054000002D05C4A904205D133F00803CA681343C6
:1054100033F00403B04202D0564A904207D135F42B
:10542000807535F400754A6915438A6915434560EE
:1054300084614A684263036270BC704770B4026A58
:10544000036A33F0100303624468836933F4E04372
:1054500033F440730D6853EA052332F020028D685F
:1054600052EA05123F4DA84202D0424EB04206D148
:1054700032F08002CE6852EA061232F04002A842B0
:1054800002D03C4DA84209D134F4806434F4006465
:105490004D6954EA85048D6954EA8504446083614A
:1054A0004D688563026270BC7047000070B4036A87
:1054B000026A32F4807202624568C46934F0700492
:1054C000A408A4000A68144333F400738A6853EAFA
:1054D0000223244A904202D0264EB04206D133F431
:1054E0000063CE6853EA062333F48063904202D00F
:1054F000204A904209D135F4805535F400554A6967
:1055000055EA02158A6955EA02154560C4614A6880
:10551000C263036270BC704730B4036A026A32F43B
:10552000805202624468C26932F4E04232F440724E
:105530000D6852EA052233F400538D6853EA0533AF
:10554000084DA84202D00B4DA84204D134F4804447
:105550004D6954EA85144460C2614D680564036274
:1055600030BC7047000001400004004000080040CB
:10557000000C004000040140004001400044014094
:105580000048014000180040001C0040002000407E
:1055900010B504004FF47A700D490978B0FBF1F0B2
:1055A0000C490968B1FBF0F0FFF714FD002801D0A9
:1055B00001200CE0102C09D2002221005FF0FF3006
:1055C000FFF7ECFC04480460002000E0012010BD5F
:1055D0006D000020540000205000002070470000A3
:1055E00070B50400002C01D10120AEE094F8200039
:1055F000002802D1200000F047FD2068006850F02C
:10560000010021680860FEF789F9050020684068FC
:10561000C0070DD4FEF782F9401B0B28F6D3606A51
:1056200050F400306062052084F8200001208CE0F6
:105630002068006830F0020021680860FEF76EF90B
:1056400006002068406880070DD5FEF767F9801BCB
:105650000B28F6D3606A50F400306062052084F8AD
:105660002000012071E0207E012806D1206800681A
:1056700050F080002168086005E02068006830F084
:10568000800021680860607E012806D120680068DB
:1056900050F040002168086005E02068006830F0A4
:1056A000400021680860A07E012806D120680068BB
:1056B00050F020002168086005E02068006830F0A4
:1056C000200021680860E07E012806D1206800687B
:1056D00030F010002168086005E02068006850F094
:1056E000100021680860207F012806D1206800682A
:1056F00050F008002168086005E02068006830F07C
:10570000080021680860607F012806D120680068D1
:1057100050F004002168086005E02068006830F05F
:10572000040021680860A168E06801432069014322
:10573000606901436068401E01432068C161002028
:105740006062012084F82000002070BDF0B40200E7
:10575000146892F820301800C0B2012804D0180054
:10576000C0B2022840F07F80594DD5F8000250F0B9
:105770000100C5F80002D5F8000230F47C50C5F8ED
:105780000002D5F800024E6A50EA0620C5F8000271
:1057900001200E7D16F01F0610FA06F6D5F81C0241
:1057A000B043C5F81C02C869002816D1D5F80C0210
:1057B000B043C5F80C02486905EBC000CC684F68DF
:1057C000C7EA0444C0F84042486905EBC0008C6851
:1057D0000F68C7EA0444C0F84442C869012816D1DA
:1057E000D5F80C023043C5F80C02486905EBC0003F
:1057F0000C684F68C7EA0444C0F84042486905EBAA
:10580000C0008C68CF68C7EA0444C0F84442886985
:10581000002805D1D5F80402B043C5F8040204E01D
:10582000D5F804023043C5F804020869002805D100
:10583000D5F81402B043C5F8140204E0D5F81402F8
:105840003043C5F81402086A012804D1D5F81C02B7
:105850003043C5F81C02D5F8000240084000C5F8E6
:105860000002002004E0506A50F4802050620120C1
:10587000F0BC704738B5040094F82000012821D10D
:10588000022084F820002068006840084000216859
:105890000860FEF743F8050020684068C0070DD592
:1058A000FEF73CF8401B0B28F6D3606A50F400303A
:1058B0006062052084F82000012008E0002060627A
:1058C000002004E0606A50F400206062012032BDD4
:1058D00000640040F0B5040094F820502068866809
:1058E00088680028FFD02800C0B2012803D0280013
:1058F000C0B202287BD116F0E05F72D0C6F3016718
:105900000120B8401860886800280BD10868D1F8D9
:105910000CC05CEA405C20685FEA071E7044C0F877
:1059200080C10DE04868D1F808C05CEAC00CC868C6
:1059300050EA0C0C20685FEA071E7044C0F880C172
:105940000869D4F800C05FEA071EF444CCF884016B
:10595000087D01280ED120685FEA071C6044D0F85A
:10596000840150F48070D4F800C05FEA071EF4444C
:10597000CCF88401D07992F806C05FEA0C4C5CEA5E
:10598000006C50795CEA002C107950EA0C0C20680D
:105990005FEA071E7044C0F88CC1D07892F802C04C
:1059A0005FEA0C4C5CEA006C50785CEA002C1078E2
:1059B00050EA0C0C20685FEA071E7044C0F888C1EA
:1059C00020685FEA071C6044D0F8800150F00100B5
:1059D000D4F800C05FEA071EF444CCF88001002030
:1059E0000AE0606A50F400106062012004E0606A1E
:1059F00050F4802060620120F0BD70B4040094F87F
:105A000020502800C0B2012804D02800C0B20228CB
:105A100040F0A48000290AD12068C06810F0030F6C
:105A200010D1606A50F40010606201209BE0206891
:105A3000006910F0030F05D1606A50F40010606235
:105A4000012090E020680E013044D0F8B00110F041
:105A5000040090609068002807D120680E0130444F
:105A6000D0F8B001400D106006E020680E0130440F
:105A7000D0F8B001C008506020680E013044D0F862
:105A8000B00110F00200D06020680E013044D0F860
:105A9000B40110F00F00082802D30820106107E0BD
:105AA00020680E013044D0F8B40110F00F001061EE
:105AB00020680E013044D0F8B401C0F30720906193
:105AC00020680E013044D0F8B401000C5061206809
:105AD0000E013044D0F8B801187020680E0130442F
