:020000040800F2
:10000000C00E0020658B0008518900085389000844
:100010005589000857890008598900080000000028
:100020000000000000000000000000005B890008E4
:100030005D890008000000005F89000861890008F0
:10004000A18B0008A58B0008A98B0008AD8B0008C8
:10005000B18B0008B58B0008B98B000869890008CE
:10006000BD8B0008C18B0008C58B0008C98B000838
:10007000CD8B0008D18B0008D58B0008D98B0008E8
:10008000DD8B0008E18B0008E58B0008E98B000898
:10009000738900087D890008ED8B0008F18B00084A
:1000A000F58B0008F98B0008FD8B0008018C000817
:1000B00087890008058C0008098C00080D8C000851
:1000C000118C0008158C0008198C00081D8C000884
:1000D000218C0008258C0008298C000891890008D3
:1000E0002D8C0008318C0008358C0008398C0008F4
:1000F0003D8C0008418C0008458C0008498C0008A4
:100100004D8C00089B890008518C0008558C000814
:10011000598C00085D8C0008618C0008658C000813
:10012000698C00086D8C0008718C0008758C0008C3
:10013000798C00087D8C0008818C0008858C000873
:10014000A5890008AF890008898C00088D8C0008FB
:10015000918C0008958C0008998C0008B9890008DA
:100160009D8C0008A18C0008A58C0008A98C0008B3
:10017000AD8C0008B18C0008B58C000800000000B0
:10018000B98C0008BD8C0008C3890008CD8900081F
:10019000C18C0008C58C0008C98C0008CD8C0008F3
:1001A0000000000000000000D18C00082DE9F84399
:1001B0002DED028B80460D001600B0EE408AF0EE69
:1001C000608A1F00DFF8A04AD8F808002060D8F83D
:1001D0000C006060D8F81800A060D8F81C00E0603F
:1001E000A8682061E8686061A869A061E869E061C9
:1001F000B0682062F0686062B069A062F069E06295
:1002000084ED0C8AC4ED0D8A3800C0B201F0D0FE36
:100210000022DFF8583A01F015FF02F001F8A06360
:10022000DFF84C9A4FF47A733C222100484602F0E2
:1002300068F8D9F8000000684006FAD53800C0B266
:10024000002803D03800C0B2052862D1DFF8E89C4E
:10025000DFF8F04C3900C9B2B0EE682AF0EE481A67
:1002600096ED011AD5ED010A99ED000AD8ED012AA3
:1002700030EE620A200003F035F8012003F0A0F907
:100280003900C9B2B0EE682AF0EE481A96ED001AAD
:10029000D5ED000A99ED010AD8ED002A30EE220AC8
:1002A00014F1480003F01EF8012003F089F9DFF88B
:1002B0008C9CDFF88C4C3900C9B2B0EE682AF0EEA5
:1002C000481A96ED051AD5ED050A99ED000AD8ED04
:1002D000052A30EE220A200003F004F8012003F082
:1002E0006FF93900C9B2B0EE682AF0EE481A96EDFF
:1002F000041AD5ED040A99ED010AD8ED042A30EE6E
:10030000620A14F1480002F0EDFF012003F058F9F1
:100310004DE0DFF8304C3900C9B2B0EE682AF0EE9B
:10032000481A96ED011AD5ED010A9FED5E0A2000EC
:1003300002F0D8FF012003F043F93900C9B2B0EE52
:10034000682AF0EE481A96ED001AD5ED000A9FEDE6
:10035000550A14F1480002F0C5FF012003F030F9FE
:10036000DFF8DC4B3900C9B2B0EE682AF0EE481A6B
:1003700096ED051AD5ED050A9FED4A0A200002F018
:10038000B1FF012003F01CF93900C9B2B0EE682AB0
:10039000F0EE481A96ED041AD5ED040A9FED410AD5
:1003A00014F1480002F09EFF012003F009F9BDECB2
:1003B000028BBDE8F183000038B52DED028B0020E3
:1003C0000C2806DADFF8A018002241F82020401C93
:1003D000F6E79FED358ADFF8901881ED0C8AF1EE93
:1003E000048AC1ED0D8A00208863DFF884484FF449
:1003F0007A733C22200001F084FF206800684006E8
:10040000FBD5DFF8404BDFF8305B0021B0EE682A07
:10041000F0EE481A9FED231ADFED220A95ED000A4F
:10042000200002F05FFF012003F0CAF80021B0EEC7
:10043000682AF0EE481A9FED1B1ADFED1A0A95EDB7
:10044000010A14F1480002F04DFF012003F0B8F852
:10045000DFF8EC4ADFF8E45A0021B0EE682AF0EE4B
:10046000481A9FED101ADFED0F0A95ED000A2000E3
:1004700002F038FF012003F0A3F80021B0EE682A53
:10048000F0EE481A9FED071ADFED060A95ED010A16
:1004900014F1480002F026FF012003F091F8BDECB2
:1004A000028B31BD000000000000C842F8B52DED00
:1004B000068BA0B00600B0EE408AF0EE608A0C0019
:1004C000150096F9010009EE100A1CA8102103F08E
:1004D0008BF81CA8B8EEC90A20EE280A80ED020AA3
:1004E000B8EEC90A20EE280A80ED030A18A81021E8
:1004F00003F07AF818A8B8EEC90AF1EE680A20EEFF
:10050000800A80ED020AB8EEC90AF1EE680A20EE10
:10051000800A80ED030A0CA8102103F065F8B8EEFC
:10052000C90A20EE280A8DED0C0AB8EEC90A20EEA1
:10053000280A8DED0D0A08A8102103F055F8B8EE31
:10054000C90AF1EE680A20EE800A8DED080AB8EEBD
:10055000C90AF1EE680A20EE800A8DED090AB1EEB3
:10056000680AF0EE000A80EE200AF8EEC90A20EED2
:10057000200A8DED140A14A8B1EE680AF0EE000A04
:1005800080EE200AF8EEC90A20EE200A80ED010A6A
:10059000B0EE000A88EE800AF8EEC90A20EE200AC2
:1005A00080ED020AB0EE000A88EE800AF8EEC90A71
:1005B00020EE200A80ED030AB0EE000A88EE800AE1
:1005C000F8EEC90A20EE200A8DED100A10A8B0EE50
:1005D000000A88EE800AF8EEC90A20EE200A80EDB3
:1005E000010AB1EE680AF0EE000A80EE200AF8EE89
:1005F000C90A20EE200A80ED020AB1EE680AF0EE88
:10060000000A80EE200AF8EEC90A20EE200A80EDEA
:10061000030A04A8102102F0E7FF6846102102F047
:10062000E3FF9FED64AB6F4618EE100A02F0E0FFA7
:1006300002000B0051EC1A0B01F004FDDFF8082951
:10064000DFF8103902F0F8FF01F0EAFD786018EEEB
:10065000100A02F0CDFF02000B0051EC1A0B01F062
:10066000F1FCDFF8E428DFF8EC3802F0E5FF01F0F8
:10067000D7FDB8603078002822D1002C05D16A4619
:100680001CA9301D03F0FCF88FE0012C06D104AA50
:1006900018A916F1280003F0F3F886E0022C06D121
:1006A0006A461CA916F14C0003F0EAF87DE0032C21
:1006B0007BD104AA18A916F1700003F0E1F874E0E8
:1006C000307801284AD1002D22D1002C05D104AA6E
:1006D00010A9301D03F0D4F867E0012C06D16A465A
:1006E00014A916F1280003F0CBF85EE0022C06D125
:1006F00004AA10A916F14C0003F0C2F855E0032C2F
:1007000053D16A4614A916F1700003F0B9F84CE011
:10071000012D22D1002C05D16A4614A9301D03F009
:10072000AFF842E0012C06D104AA10A916F1280066
:1007300003F0A6F839E0022C06D16A4614A916F196
:100740004C0003F09DF830E0032C2ED104AA10A930
:1007500016F1700003F094F827E026E030780228C4
:1007600022D1002C05D104AA0CA9301D03F088F871
:100770001BE0012C06D16A4608A916F1280003F0F7
:100780007FF812E0022C06D104AA0CA916F14C0045
:1007900003F076F809E0032C07D16A4608A916F1A0
:1007A000700003F06DF800E0FFE720B0BDEC068BB1
:1007B000F1BD00000AD7A3703D0AB73F70B52DED1B
:1007C000088B88B004009FED988ADFED988A9FED32
:1007D000989A04A8102102F007FF6846102102F041
:1007E00003FF0025042D0ADAB7EE000A242000FBDF
:1007F00005F02044001D03F054F86D1CF2E7DFF80B
:10080000DC5B95ED000ADFED8B0AC0EE209A9FEDD0
:100810008AAAB7EE00BAF0EE4BAA207800287DD164
:1008200002220021B0EE000AC8EE800AB0EE480AAB
:100830002000FFF73BFE02220121B0EE000AC8EEC5
:10084000800AB0EE480A2000FFF730FE02220221A3
:10085000B0EE000AC8EE800AB0EE480A2000FFF7AA
:1008600025FE02220321B0EE000AC8EE800AB0EE97
:10087000480A2000FFF71AFE0026042E25DA6846F3
:1008800000EB860204A800EB8601B0EE690A242082
:1008900000FB06F02044001D03F006F8DFF8440BCF
:1008A00000EBC601091D00EBC6006A4602EB86029A
:1008B00092ED000A79EE400A04AA02EB860292ED5C
:1008C000000A03F041F9761CD7E70023F1EE040A91
:1008D0009FEDD80ADFF8102BDFF8101BDFF8040BB0
:1008E000FFF764FC95ED000ADFED520AB4EE600AF2
:1008F000F1EE10FAC0F2AE81D4F89C00012840F06D
:10090000A981012020700020C4F89C0000202860EC
:10091000DFF8DC0ADFF8DC1A01609BE120780128AF
:1009200040F00B81F5EE409AF1EE10FA1BDBF4EE8D
:100930004B9AF1EE10FA16D500220021F0EE680A6B
:10094000B0EE480A2000FFF7B1FD00220221F0EED0
:10095000680AB0EE480A2000FFF7A8FD89EE8B0A6E
:10096000B0EE40AA27E0F4EE4B9AF1EE10FA22DB4B
:100970009FEDBA0AF4EE409AF1EE10FA1BD501226F
:100980000021F0EE680AB0EE480A2000FFF78EFD65
:1009900001220221F0EE680AB0EE480A2000FFF7BB
:1009A00085FD39EECB0AF0EE000A70EECB0A80EE40
:1009B000200AB0EE40AA6A4604A9B0EE4A0A201DF9
:1009C00002F072FF02AA06A9B0EE4A0A14F14C0026
:1009D00002F06AFFF5EE409AF1EE10FA2EDBB0EE6F
:1009E000000A30EE4B0AF4EE409AF1EE10FA25D5EB
:1009F00000220121F0EE680AB0EE480A2000FFF75D
:100A000055FD00220321F0EE680AB0EE480A2000EE
:100A1000FFF74CFDB0EE000A30EE4B0A89EE800A7B
:100A2000B0EE40AA36E000BF8FC2F53C8FC2F53D64
:100A30000C026B3E00007A4400000000B0EE000A99
:100A400030EE4B0AF4EE409AF1EE10FA22DB9FED05
:100A5000830AF4EE409AF1EE10FA1BD5012201212F
:100A6000F0EE680AB0EE480A2000FFF71FFD0122F1
:100A70000321F0EE680AB0EE480A2000FFF716FDE9
:100A800039EE8B0AF8EE000A30EE200A80EE0B0AEF
:100A9000B0EE40AA01AA05A9B0EE4A0A14F1280056
:100AA00002F002FF03AA07A9B0EE4A0A14F170008F
:100AB00002F0FAFE0026042E16DADFF8280900EB11
:100AC000C601091D00EBC6006A4602EB860292EDE4
:100AD000000A79EE400A04AA02EB860292ED000AAF
:100AE00003F032F8761CE6E70023F1EE040A9FEDEE
:100AF000510ADFF8F428DFF8F418DFF8E808FFF708
:100B000055FB95ED000ADFED560AB4EE600AF1EEF2
:100B100010FAC0F29F80D4F89C00012840F09A801F
:100B2000022020700020C4F89C0000202860DFF81C
:100B3000C008DFF8C01801608CE02078022840F07F
:100B40007F8002220021B0EE000AC8EE800AB0EEDB
:100B5000480A2000FFF7AAFC02220121B0EE000A99
:100B6000C8EE800AB0EE480A2000FFF79FFC022280
:100B70000221B0EE000AC8EE800AB0EE480A20005A
:100B8000FFF794FC02220321B0EE000AC8EE800AAF
:100B9000B0EE480A2000FFF789FC0026042E25DA73
:100BA000684600EB860204A800EB8601B0EE690AF5
:100BB000242000FB06F02044001D02F075FEDFF843
:100BC000240800EBC601091D00EBC6006A4602EBD3
:100BD000860292ED000A79EE400A04AA02EB860230
:100BE00092ED000A02F0B0FF761CD7E70023F1EE89
:100BF000040A9FED100ADFF8F027DFF8F017DFF89E
:100C0000E407FFF7D3FA95ED000ADFED160AB4EE1C
:100C1000600AF1EE10FA1DD1D4F89C00012819D118
:100C2000032020700020C4F89C0000202860DFF81A
:100C3000C00701E00000C842DFF8B817016009E012
:100C40002078032805D10020C4F89800FFF7B4FBF2
:100C500000E0FFE708B0BDEC088B70BD010000406C
:100C60000000FA4400007A44840900200000F03FAC
:100C70003C090020F8B52DED068BA0B00600B0EEC3
:100C8000408AF0EE608A0C00150096F9010000EE33
:100C9000100AB8EEC09A1CA8102102F0A5FC1CA8EE
:100CA00028EE890A80ED020A28EE890A80ED030AFF
:100CB00018A8102102F098FC18A8B1EE680A20EEDE
:100CC000090A80ED020AB1EE680A20EE090A80EDF9
:100CD000030A0CA8102102F087FC28EE890A8DED8A
:100CE0000C0A28EE890A8DED0D0A08A8102102F0E1
:100CF0007BFCB1EE680A20EE090A8DED080AB1EE20
:100D0000680A20EE090A8DED090AB1EE680AF0EED4
:100D1000000A80EE200A20EE090A8DED140A14A8BC
:100D2000B1EE680AF0EE000A80EE200A20EE090A11
:100D300080ED010AB0EE000A88EE800A20EE090A72
:100D400080ED020AB0EE000A88EE800A20EE090A61
:100D500080ED030AB0EE000A88EE800A20EE090A50
:100D60008DED100A10A8B0EE000A88EE800A20EE81
:100D7000090A80ED010AB1EE680AF0EE000A80EE81
:100D8000200A20EE090A80ED020AB1EE680AF0EEB0
:100D9000000A80EE200A20EE090A80ED030A04A86A
:100DA000102102F021FC6846102102F01DFC9FED8D
:100DB00067AB6F4618EE100A02F01AFC02000B0037
:100DC00051EC1A0B01F03EF95F4A624B02F034FC21
:100DD00001F026FA786018EE100A02F009FC020011
:100DE0000B0051EC1A0B01F02DF9574A594B02F048
:100DF00023FC01F015FAB8603078002822D1002CCD
:100E000005D16A461CA9301D02F03AFD8FE0012C85
:100E100006D104AA1CA916F1280002F031FD86E0D3
:100E2000022C06D16A4618A916F14C0002F028FDE2
:100E30007DE0032C7BD104AA18A916F1700002F002
:100E40001FFD74E0307801284AD1002D22D1002CFA
:100E500005D104AA10A9301D02F012FD67E0012C93
:100E600006D16A4610A916F1280002F009FD5EE0DD
:100E7000022C06D104AA14A916F14C0002F000FDC0
:100E800055E0032C53D16A4614A916F1700002F004
:100E9000F7FC4CE0012D22D1002C05D16A4614A9A3
:100EA000301D02F0EDFC42E0012C06D104AA14A989
:100EB00016F1280002F0E4FC39E0022C06D16A4663
:100EC00010A916F14C0002F0DBFC30E0032C2ED10F
:100ED00004AA10A916F1700002F0D2FC27E026E067
:100EE0003078022822D1002C05D104AA0CA9301D8B
:100EF00002F0C6FC1BE0012C06D16A460CA916F1D3
:100F0000280002F0BDFC12E0022C06D104AA08A9B8
:100F100016F14C0002F0B4FC09E0032C07D16A463C
:100F200008A916F1700002F0ABFC00E0FFE720B06A
:100F3000BDEC068BF1BD00007C0200208C0200207D
:100F4000FC040020BC02002048E17A140AD7A370F8
:100F50003D0AB73FAE47B13F70B52DED088B88B065
:100F600004009FED968ADFED968A9FED969A04A87D
:100F7000102102F039FB6846102102F035FB0025F4
:100F8000042D0ADAB7EE000A242000FB05F0204405
:100F9000001D02F086FC6D1CF2E7DFF8405495ED71
:100FA000000ADFED890AC0EE209A9FED88AAB7EE0D
:100FB00000BAF0EE4BAA207800287AD10222002154
:100FC000B0EE000AC8EE800AB0EE480A2000FFF733
:100FD00051FE02220121B0EE000AC8EE800AB0EEF6
:100FE000480A2000FFF746FE02220221B0EE000A66
:100FF000C8EE800AB0EE480A2000FFF73BFE02224E
:101000000321B0EE000AC8EE800AB0EE480A2000C4
:10101000FFF730FE0026042E25DA684600EB860234
:1010200004A800EB8601B0EE690A242000FB06F05C
:101030002044001D02F038FCDFF8A80300EBC601D5
:10104000091D00EBC6006A4602EB860292ED000A1B
:1010500079EE400A04AA02EB860292ED000A02F041
:1010600073FD761CD7E70023F1EE040A9FEDD00A4A
:10107000DFF87423DFF87413DA48FFF797F895ED7B
:10108000000ADFED510AB4EE600AF1EE10FAC0F288
:101090009E81D4F89C00012840F0998101202070A5
:1010A0000020C4F89C0000202860D148D14901608C
:1010B0008DE12078012840F00481F5EE409AF1EEB0
:1010C00010FA1BDBF4EE4B9AF1EE10FA16D5002263
:1010D0000021F0EE680AB0EE480A2000FFF7CAFDD2
:1010E00000220221F0EE680AB0EE480A2000FFF765
:1010F000C1FD89EE8B0AB0EE40AA27E0F4EE4B9AD0
:10110000F1EE10FA22DB9FEDB40AF4EE409AF1EE14
:1011100010FA1BD501220021F0EE680AB0EE480A51
:101120002000FFF7A7FD01220221F0EE680AB0EED1
:10113000480A2000FFF79EFD39EECB0AF0EE000AC8
:1011400070EECB0A80EE200AB0EE40AA6A4604A9EF
:10115000B0EE4A0A201D02F0A7FB02AA06A9B0EED3
:101160004A0A14F14C0002F09FFBF5EE409AF1EEB2
:1011700010FA2DDBB0EE000A30EE4B0AF4EE409A86
:10118000F1EE10FA24D500220121F0EE680AB0EE4B
:10119000480A2000FFF76EFD00220321F0EE680AE6
:1011A000B0EE480A2000FFF765FDB0EE000A30EE11
:1011B0004B0A89EE800AB0EE40AA35E08FC2F53CBA
:1011C0008FC2F53D0C026B3E00007A440000000027
:1011D000B0EE000A30EE4B0AF4EE409AF1EE10FA4F
:1011E00022DB9FED7D0AF4EE409AF1EE10FA1BD55A
:1011F00001220121F0EE680AB0EE480A2000FFF754
:1012000039FD01220321F0EE680AB0EE480A200001
:10121000FFF730FD39EE8B0AF8EE000A30EE200AB7
:1012200080EE0B0AB0EE40AA01AA05A9B0EE4A0A68
:1012300014F1280002F038FB03AA07A9B0EE4A0A0D
:1012400014F1700002F030FB0026042E15DA654818
:1012500000EBC601091D00EBC6006A4602EB8602E0
:1012600092ED000A79EE400A04AA02EB860292EDA2
:10127000000A02F069FC761CE7E70023F1EE040A9D
:101280009FED4B0A584A59495648FEF78FFF95ED96
:10129000000ADFED530AB4EE600AF1EE10FA40F0F6
:1012A0009680D4F89C00012840F0918002202070A4
:1012B0000020C4F89C00002028604D484D49016082
:1012C00085E02078022878D102220021B0EE000AC1
:1012D000C8EE800AB0EE480A2000FFF7CBFC0222DD
:1012E0000121B0EE000AC8EE800AB0EE480A2000E4
:1012F000FFF7C0FC02220221B0EE000AC8EE800A0D
:10130000B0EE480A2000FFF7B5FC02220321B0EE40
:10131000000AC8EE800AB0EE480A2000FFF7AAFCD7
:101320000026042E24DA684600EB860204A800EBAF
:101330008601B0EE690A242000FB06F02044001D5F
:1013400002F0B2FA274800EBC601091D00EBC60007
:101350006A4602EB860292ED000A79EE400A04AA80
:1013600002EB860292ED000A02F0EEFB761CD8E753
:101370000023F1EE040A9FED0E0A1B4A1B4919488F
:10138000FEF714FF95ED000ADFED1B0AB4EE600ACC
:10139000F1EE10FA1BDBD4F89C00012817D10320D2
:1013A00020700020C4F89C0000202860104801E054
:1013B0000000C8420F49016009E02078032805D1E8
:1013C0000020C4F89800FEF7F7FF00E0FFE708B040
:1013D000BDEC088B70BD000001000040AC0A00208D
:1013E0000000FA44100A0020500A0020300A0020B1
:1013F00078020020000080BF00007A4438B52DED4F
:10140000028B90B00400B0EE408AF0EE608A0CA827
:10141000102102F0E9F804A8102102F0E5F804A870
:1014200080ED028A80ED038AB1EE680A8DED080A2C
:1014300008A8B1EE680A80ED010A80ED028A80ED0D
:10144000038A6846102102F0CFF88DED008A8DEDF9
:10145000018A207800280DD10025042D2DDA04AA58
:101460000CA9242000FB05F02044001D02F008FA1E
:101470006D1CF2E7207802280DD10025042D1CDA1E
:1014800008AA0CA9242000FB05F02044001D02F04E
:10149000F7F96D1CF2E7207804280DD10025042D02
:1014A0000BDA6A460CA9242000FB05F02044001D3D
:1014B00002F0E6F96D1CF2E7FFE710B0BDEC028B1D
:1014C00031BD0000F8B52DED088B88B004009FED0C
:1014D000B58ADFEDB58A9FEDB59ADFEDB59A04A820
:1014E000102102F081F86846102102F07DF80025F5
:1014F000042D0ADAB7EE000A242000FB05F0204490
:10150000001D02F0CEF96D1CF2E7DFF8805A95ED70
:10151000000ADFEDA80A80EE20AA207800285BD11F
:10152000F0EE680AB0EE480A2000FFF767FF0026D9
:10153000042E25DA684600EB860204A800EB86013B
:10154000B0EE4A0A242000FB06F02044001D02F001
:10155000ABF9DFF83C0A00EBC601091D00EBC60041
:101560006A4602EB860292ED000A79EEC00A04AAEE
:1015700002EB860292ED000A02F0E6FA761CD7E74B
:101580000023F1EE040A9FED8C0ADFF8082ADFF849
:10159000081ADFF8FC09FEF709FE95ED000ADFEDF9
:1015A000850AB4EE600AF1EE10FAC0F2E881D4F8D0
:1015B0009800012840F0E381012020700020C4F849
:1015C000980000202860DFF8D409DFF8D419016002
:1015D0000A2001F0F5FFD2E12078012840F0F680E2
:1015E000DFEDCDAA0025042D0EDADFF8A40900EB0B
:1015F000C501091D00EBC5007AEEA80A9FED6B0A34
:1016000002F0A2FA6D1CEEE7DFF8980990ED080AE7
:10161000DFF89409D0ED000A30EE600A10EE100AEF
:1016200001F0E6FF31F0004141EC1B0BDFF860599F
:10163000686801F0DDFF02000B0033F0004351EC5D
:101640001B0B02F0B3FB0022DFF8603900F0FAFC5C
:1016500000F0E6FD09EE100A9FEDCB0AB4EE409AC9
:10166000F1EE10FA03DB9FEDC90AB0EE409A0020BC
:10167000042877DA0021022972DADFF81C2902EB4C
:10168000C002002342F8213005EBC00202EB8102C8
:1016900092ED000AB5EE400AF1EE10FA2FDD0028B7
:1016A00001D0032815D101290AD1DFF8E82802EB7F
:1016B000C00202EB8102B1EE490A82ED000A4DE060
:1016C000DFF8D02802EBC00202EB810282ED009A23
:1016D00044E0012908D1DFF8BC2802EBC00202EB8C
:1016E000810282ED009A39E0DFF8A82802EBC002FF
:1016F00002EB8102B1EE490A82ED000A2EE00028D9
:1017000001D0032815D1012908D1DFF8882802EB80
:10171000C00202EB810282ED009A1FE0DFF874281C
:1017200002EBC00202EB8102B1EE490A82ED000A2F
:1017300014E001290AD1DFF85C2802EBC00202EBB9
:101740008102B1EE490A82ED000A07E0DFF8442881
:1017500002EBC00202EB810282ED009A491C8AE78B
:10176000401C85E7DFF83068DFF828780523F7EEBE
:10177000000A9FED870A3A0031002800FEF716FDA7
:10178000002004281CDA0021022917DA06EBC00227
:10179000002342F8213007EBC002002342F8213039
:1017A000491CF1E7CDCC4C3DCDCCCC3D0000000038
:1017B0000C026B3E00007A440000C842401CE0E787
:1017C000C82001F0FDFE02202070D8E02078022819
:1017D00058D1F0EE680AB0EE480A2000FFF70EFE7E
:1017E0000026042E25DA684600EB860204A800EBEA
:1017F0008601B0EE4A0A242000FB06F02044001DBA
:1018000002F052F8DFF8880700EBC601091D00EB73
:10181000C6006A4602EB860292ED000A79EEC00A23
:1018200004AA02EB860292ED000A02F08DF9761C02
:10183000D7E70023F1EE040A9FED9D0ADFF8542755
:10184000DFF85417DFF84807FEF7B0FC95ED000A03
:10185000DFED980AB4EE600AF1EE10FAC0F28F8064
:10186000D4F89800012840F08A80032020700020DE
:10187000C4F8980000202860DFF82007DFF8201760
:1018800001607CE02078032813D10323F1EE040AE1
:101890009FED890ADFF8FC26DFF8FC16DFF8F0067A
:1018A000FEF784FC40F6B83001F08AFE0420207078
:1018B00065E02078042858D1F0EE680AB0EE480AB6
:1018C0002000FFF79BFD0026042E27DA684600EB78
:1018D000860204A800EB8601B0EE4A0A242000FB31
:1018E00006F02044001D01F0DFFFDFF8A40600EB46
:1018F000C601091D00EBC6006A4602EB860292EDA6
:10190000000A79EEC00A04AA02EB860292ED000AF0
:1019100002F01AF9761CD7E7C8987B3E0023F1EE57
:10192000040A9FED630ADFF86C26DFF86C16DFF817
:101930006006FEF73BFC95ED000ADFED5E0AB4EEB3
:10194000600AF1EE10FA1ADBD4F89800012816D1DB
:10195000052020700020C4F8980000202860DFF8DF
:101960003C06DFF83C16016009E02078052805D127
:101970000020C4F89400FEF71FFD00E0FFE708B068
:10198000BDEC088BF1BD00000100204200002042A8
:101990000000C84338B52DED068B98B00400B0EEBA
:1019A000408AF0EE608AB0EE419ADFED449A39EE5B
:1019B000A80A79EEC80A80EE200A20EE09AA10A82B
:1019C000102101F011FE10A8B1EE490A80ED020AC3
:1019D000B1EE490A80ED030A0CA8102101F004FEC3
:1019E000B1EE4A0A8DED0C0A0CA8B1EE490A80ED61
:1019F000010A80ED039A08A8102101F0F5FD8DED94
:101A0000089A8DED099A04A8102101F0EDFD04A8B3
:101A100080ED028A80ED038AB1EE680A8DED140A2A
:101A200014A880ED018A80ED028A80ED038A684661
:101A3000102101F0D9FD8DED008A8DED018A20780D
:101A400000280DD10025042D2DDA04AA10A9242088
:101A500000FB05F02044001D01F012FF6D1CF2E7B1
:101A6000207802280DD10025042D1CDA14AA0CA917
:101A7000242000FB05F02044001D01F001FF6D1C37
:101A8000F2E7207804280DD10025042D0BDA6A46F0
:101A900008A9242000FB05F02044001D01F0F0FE01
:101AA0006D1CF2E7FFE718B0BDEC068B31BD0000FE
:101AB0000000C84200007A44000000000C026B3EA7
:101AC000F8B52DED0A8B88B004009FEDB69ADFEDD6
:101AD000B69A9FEDB6AADFEDB6AA9FEDB6BA04A8F6
:101AE000102101F081FD6846102101F07DFD0025E7
:101AF000042D0ADAB7EE000A242000FB05F020448A
:101B0000001D01F0CEFE6D1CF2E7DFF8805495ED6C
:101B1000000ADFEDA90AC0EE20BA207800285DD1C6
:101B2000B0EE4A1AF0EE690AB0EE490A2000FFF75B
:101B300031FF0026042E25DA684600EB860204A851
:101B400000EB8601B0EE6B0A242000FB06F0204477
:101B5000001D01F0A9FEDFF8380400EBC601091DE5
:101B600000EBC6006A4602EB860292ED000A7BEEAD
:101B7000400A04AA02EB860292ED000A01F0E4FF9B
:101B8000761CD7E70023F1EE040A9FED8C0ADFF8FC
:101B90000424DFF80414DFF8F803FEF707FB95EDE3
:101BA000000ADFED850AB4EE600AF1EE10FAC0F229
:101BB000DD81D4F89800012840F0D8810120207000
:101BC0000020C4F8980000202860DFF8D003DFF878
:101BD000D01301600A2001F0F3FCC7E1207801284E
:101BE00040F0F6809FEDCACA3BEE290A7BEE490A17
:101BF00080EE200A60EE0ACA0025042D0EDADFF816
:101C0000900300EBC501091D00EBC5007CEE290A1D
:101C1000B1EE6C0A01F098FF6D1CEEE7DFF884036B
:101C200090ED080ADFF88003D0ED000A30EE600A7C
:101C300010EE100A01F0DCFC31F0004141EC180B11
:101C4000DFF84C53686801F0D3FC02000B0033F05E
:101C5000004351EC180B02F0A9F80022DFF84C33D6
:101C600000F0F0F900F0DCFA0AEE900A9FEDC10AEC
:101C7000F4EE40AAF1EE10FA03DB9FEDBF0AF0EE9E
:101C800040AA002004286EDA0021022969DAC24A3B
:101C900002EBC002002342F8213005EBC00202EB48
:101CA000810292ED000AB5EE400AF1EE10FA2BDD4A
:101CB000002801D0032813D1012909D1B54A02EB2C
:101CC000C00202EB8102B1EE6A0A82ED000A46E030
:101CD000B04A02EBC00202EB8102C2ED00AA3EE074
:101CE000012907D1AB4A02EBC00202EB8102C2ED2F
:101CF00000AA34E0A74A02EBC00202EB8102B1EE77
:101D00006A0A82ED000A2AE0002801D0032813D1D4
:101D1000012907D19F4A02EBC00202EB8102C2ED0A
:101D200000AA1CE09B4A02EBC00202EB8102B1EE6A
:101D30006A0A82ED000A12E0012909D1954A02EBF4
:101D4000C00202EB8102B1EE6A0A82ED000A06E0EF
:101D5000904A02EBC00202EB8102C2ED00AA491CCC
:101D600093E7401C8EE78C4E8A4F0523F7EE000A5E
:101D70009FED820A3A0031002800FEF717FA002092
:101D800004281FDA002102291ADA06EBC002002318
:101D900042F8213007EBC002002342F82130491CF1
:101DA000F1E700BFCDCC4C3DCDCCCC3D0AD7A33C18
:101DB000000000000C026B3E00007A440000C842A4
:101DC000401CDDE7C82001F0FBFB02202070CDE0C5
:101DD0002078022854D1B0EE4A1AF0EE690AB0EE2B
:101DE000490A2000FFF7D6FD0026042E24DA6846B3
:101DF00000EB860204A800EB8601B0EE6B0A2420FB
:101E000000FB06F02044001D01F04EFD604800EB91
:101E1000C601091D00EBC6006A4602EB860292ED80
:101E2000000A7BEE400A04AA02EB860292ED000A49
:101E300001F08AFE761CD8E70023F1EE040A9FED3C
:101E4000500A544A54495248FEF7B0F995ED000A39
:101E5000DFED4C0AB4EE600AF1EE10FAC0F28680B3
:101E6000D4F89800012840F08180032020700020E1
:101E7000C4F898000020286048484949016075E08E
:101E80002078032810D10323F2EE040A9FED3E0AC6
:101E9000404A41493E48FEF789F940F6B83001F022
:101EA0008FFB0420207061E02078042854D1B0EE2C
:101EB0004A1AF0EE690AB0EE490A2000FFF76AFDFF
:101EC0000026042E26DA684600EB860204A800EB02
:101ED0008601B0EE6B0A242000FB06F02044001DB2
:101EE00001F0E2FC2A4800EBC601091D00EBC60028
:101EF0006A4602EB860292ED000A7BEE400A04AAD3
:101F000002EB860292ED000A01F01EFE761CD8E775
:101F1000C8987B3E0023F1EE040A9FED190A1D4A82
:101F20001D491B48FEF742F995ED000ADFED150A41
:101F3000B4EE600AF1EE10FA18DBD4F8980001282C
:101F400014D1052020700020C4F8980000202860DB
:101F500012481349016009E02078052805D10020C6
:101F6000C4F89400FEF728FA00E0FFE708B0BDECE3
:101F70000A8BF1BD01002042000020420000C8434E
:101F80000000C84200007A4400000000AC0A0020B3
:101F9000100A0020500A0020300A00207802002099
:101FA000000080BFBC0200207C0200200000244012
:101FB000014648B1B0FA80F18840C91CC1F584617E
:101FC000090501EBD02140057047F0B402461068C6
:101FD00095681318506803EB5004C0071DD54D4495
:101FE0001BE013F8017B05F8017B491EF9D1A0B174
:101FF000B60813F8011B06F00306032E08BF13F8FA
:10200000016B01EB06214942801C294405D011F8DF
:10201000016B05F8016B401EF9D1A3420ED013F8F5
:10202000016B16F0030104BF13F8011BC91C300932
:102030000F28DAD113F8010B0F30D6E7F0BC02F10C
:102040000C007047B0B581EA030C0CF0004C40F274
:10205000FF7515EA11541DBF15EA1357AC42AF4284
:1020600039E0E41923EA455343F48013C90241F0EF
:10207000004141EA505EC7021100A7FB020200289E
:102080004FF00000EEFB01204FF00001E3FB0721C1
:1020900018BF42F00102401800214941E3FB0E0144
:1020A000A4F580640F0302D252004041494154F12B
:1020B00001046CDD470872F1004250F1000051EB61
:1020C0000451A1F580115CBF41EA0C01B0BD4CEA9E
:1020D00005510020B0BD05EA1357AC4214BFAF4212
:1020E00041E050EA410E1CBF52EA430E02E0614655
:1020F0000020B0BD24423C441BD15FEA070EF6D05D
:10210000090302BF01460020AEF1140EB1FA81F7B7
:10211000AEEB070401FA07FE0C37C7F1200100FA05
:1021200007F7C8404EEA000E23EA455343F48013F4
:10213000A2E733F00043B3FA83F704BFB2FA82FE9A
:1021400077440B3FE41BB7F1200E2FBF02FA0EF3CA
:10215000BB40C7F1200E22FA0EFE38BF43EA0E0341
:10216000BA40641C82E750EA410E14BF52EA430EA3
:102170006FF000014FF4001717EB430F8ABF1946A9
:1021800017EB410FB5E74CEA05510020B0BDD4F183
:102190000104B4F120070FDAC4F12007520828BF68
:1021A00042F0010210FA07F501FA07F7E1BF2A43EE
:1021B000E0403843E1400FE0352C98DCC7F12004C3
:1021C00052EA400220FA07F218BF42F0010231FA47
:1021D00007F0A1400A43002172F1004250F10000D3
:1021E00051EB0C01B0BD30B4002513E050F8042BC6
:1021F000D30744BFA9F101039A18091F042942F823
:10220000045BFAD213468C0744BF15809B1CC90798
:1022100048BF1D7050F8041B0029E7D130BC70473F
:1022200001F000428B1AA3F16051B1F5801F0ADB67
:10223000B1F17F6F1FD242EAC102C10071F10041CA
:1022400042EB507070470B15C3F10903212B10D2DC
:10225000890241EA905180020128494141F0004140
:1022600021FA03F0C3F12003994071F1004150417C
:102270007047100070476FF0000013EB103F5CBF19
:10228000000E42EAC050704710B50400002C01D186
:10229000012035E0A0690028FFD194F84100002812
:1022A00005D1002084F84000200001F0ABFE24207E
:1022B00084F841002068C06830F400502168C8608C
:1022C000200000F06BFB2068006930F4904021682A
:1022D00008612068406930F02A0021684861206860
:1022E000C06850F400502168C8600020606420205D
:1022F00084F84100202084F8420000206063002020
:1023000010BD2DE9FC4706000D001700984600247B
:1023100096F84100202857D1002D03D0380080B214
:10232000002801D1012050E000207064212086F8AF
:10233000410001F05DFF8146B784F784B068B0F5D5
:10234000805F05D13069002802D10024AA4602E04E
:102350002C005FF0000AF08C002821D0CDF800801E
:102360004B4600228021300000F0B6F9002804D04E
:10237000202086F84100032027E0002C08D1BAF87D
:102380000000C005C00D316848601AF1020A03E080
:10239000207831684860641CF08C401EF084DAE7D5
:1023A000CDF800804B4600224021300000F094F927
:1023B000002804D0202086F84100032005E02020DA
:1023C00086F84100002000E00220BDE8F68770B5E5
:1023D00005000C00160095F84200202810D1002CB2
:1023E00003D0300080B2002801D1012009E0002094
:1023F0002863320092B22100280000F0AFF900E01B
:10240000022070BD2DE9FC4706003068076830687F
:10241000D0F80C803068D0F814900020002517F018
:102420000F04002C08D1B80606D55FEA886003D5F2
:10243000300000F038FA4DE1002C00F080805FEAB7
:10244000C97002D418F4907F79D017F00100C0B29F
:10245000002806D05FEAC85003D5706C50F0010028
:102460007064780708D519F00100C0B2002803D0C5
:10247000706C50F002007064B80708D519F00100C4
:10248000C0B2002803D0706C50F0040070643807AC
:102490000BD55FEA886004D419F00100C0B20028AF
:1024A00003D0706C50F008007064706C002845D048
:1024B000B80605D55FEA886002D5300000F0F3F970
:1024C00030684069800910F001000500706C000759
:1024D00001D4002D2DD0300000F062F93068406941
:1024E000400622D53068143050E8000F30F040002C
:1024F0000100306810F1140242E800100028F1D108
:10250000F06B00280DD00FF20130F16B0865F06B15
:1025100001F0C2FE002811D0F06BF16B096D884705
:102520000CE0300001F0CCFE08E0300001F0C8FE05
:1025300004E0300001F0C4FE00207064CAE0306B9B
:10254000012840F0B580F80640F1B2805FEAC8602B
:1025500040F1AE8000200090306800680090306844
:102560004068009000983068406940065DD5F06B87
:102570000068D0F804A0504680B2002854D05046DD
:10258000B18D80B288424FD2A6F82EA0F06BC06900
:10259000B0F5807F3FD030680C3050E8000F30F449
:1025A00080700100306810F10C0242E80010002831
:1025B000F1D13068143050E8000F400840000100AD
:1025C000306810F1140242E800100028F1D13068A0
:1025D000143050E8000F30F040000100306810F176
:1025E000140242E800100028F1D1202086F84200B1
:1025F0000020306330680C3050E8000F30F01000DD
:102600000100306810F10C0242E800100028F1D1FE
:10261000F06B01F0F3FD02207063B18DF08D091AAB
:1026200089B2300001F04DFE54E0B08DB6F82EA016
:10263000B0EB0A0AF08D002839D0504680B200284D
:1026400035D030680C3050E8000F30F49070010045
:10265000306810F10C0242E800100028F1D1306817
:10266000143050E8000F400840000100306810F1BD
:10267000140242E800100028F1D1202086F8420020
:102680000020306330680C3050E8000F30F010004C
:102690000100306810F10C0242E800100028F1D16E
:1026A00002207063514689B2300001F00AFE11E049
:1026B000380606D55FEA086003D5300000F0B0F8B0
:1026C00008E0780606D55FEA486003D5300000F0E0
:1026D000DAF8FFE7BDE8F3872DE9FC4105000E00BD
:1026E00017009846089C286800683040B04201D125
:1026F000012000E000203900C9B288422BD114F13A
:10270000010FF0D001F074FDB0EB0800844201D35A
:10271000002C01D103201FE02868C0684007E2D5E3
:10272000802EE0D0402EDED0286800680007DAD581
:102730000020009028680068009028684068009099
:102740000098280000F02CF808206864002085F824
:102750004000012000E00020BDE8F68110B4030035
:1027600099629A85DA8500205864222083F8420015
:102770001869002805D01868C06850F480701C687B
:10278000E0601868406950F001001C6860611868DA
:10279000C06850F020001C68E060002010BC70474A
:1027A00001680C3151E8001F31F490710A00016892
:1027B00011F10C0343E800210029F1D10168143123
:1027C00051E8001F490849000A00016811F114038B
:1027D00043E800210029F1D1016B01290DD10168E5
:1027E0000C3151E8001F31F010010A00016811F1AD
:1027F0000C0343E800210029F1D1202180F8421088
:10280000002101637047000038B50400A56B00206B
:10281000E8850020E884280001F052FD31BD000069
:10282000010091F8410021282BD18868B0F5805F24
:102830000DD1086900280AD1086A02001088C00575
:10284000C00D0B685860086A801C086205E0086AC1
:10285000431C0B6200780B685860C88C401EC8840B
:1028600080B200280BD10868C06830F080000B6887
:10287000D8600868C06850F040000B68D86000203D
:1028800000E00220704710B504002068C06830F0F6
:1028900040002168C860202084F84100200001F039
:1028A00011FD002010BD7CB5040094F842002228E0
:1028B00072D1A068B0F5805F0DD1206900280AD1DF
:1028C0000025A66A20684068C005C00D3080A06A57
:1028D000801CA06217E0A56A0026A068B0F5805FA2
:1028E00005D0A068002806D12069002803D12068FF
:1028F0004068287004E02068406810F07F0028706D
:10290000A06A401CA062E08D401EE08580B20028D5
:1029100040D12068C06830F020002168C86020687D
:10292000C06830F480702168C86020684069400841
:10293000400021684861202084F842000020606344
:10294000206B012821D10020206320680C3050E842
:10295000000F30F010000100206810F10C0242E876
:1029600000100028F1D120680068C00608D50020BA
:1029700000902068006800902068406800900098EF
:10298000A18D200001F09DFC02E0200001F0BAFCC6
:10299000002002E0002000E0022076BD2DE9F84F83
:1029A00084B005002868016931F44051E8680143AA
:1029B00028680161D5F808B0286950EA0B0B6869EE
:1029C00050EA0B0BE86950EA0B0B2868C168B24863
:1029D00001405BEA01012868C1602868416931F45F
:1029E0004071A8690143286841612868AB49884261
:1029F00003D02868AA49884203D101F0BBFE040035
:102A000002E001F0ACFE0400E869B0F5004F40F0D0
:102A1000A1805FF0640A022600275FF019085FF0CA
:102A2000000922000023A8FB020108FB031109FB97
:102A30000211CDE9000168680021A6FB002306FB16
:102A4000013307FB0033DDE9000101F0FBFE6421E7
:102A5000B0FBF1F0039022000023A8FB020108FB69
:102A6000031109FB0211CDE9000168680021A6FBF2
:102A7000002306FB013307FB0033DDE9000101F011
:102A8000E1FE029022000023A8FB020108FB0311D3
:102A900009FB0211CDE9000168680021A6FB0023B3
:102AA00006FB013307FB0033DDE9000101F0CAFE3C
:102AB0006421B0FBF1F102980AFB1101C800323029
:102AC0006421B0FBF1F0400010F4F870039910EBB2
:102AD0000110029022000023A8FB020108FB031151
:102AE00009FB0211CDE9000168680021A6FB002363
:102AF00006FB013307FB0033DDE9000101F0A2FE14
:102B0000009022000023A8FB020108FB031109FB2F
:102B100002118046894668680021A6FB002306FB57
:102B2000013307FB00334046494601F08BFE642128
:102B3000B0FBF1F100980AFB110A5FEACA003230DB
:102B40006421B0FBF1F111F007010298091828681F
:102B500081609EE0042600275FF0640A5FF0190898
:102B60005FF0000922000023A8FB020108FB03110B
:102B700009FB0211CDE9000168680021A6FB0023D2
:102B800006FB013307FB0033DDE9000101F05AFECB
:102B90006421B0FBF1F0039022000023A8FB0201A6
:102BA00008FB031109FB0211CDE90001686800214F
:102BB000A6FB002306FB013307FB0033DDE9000120
:102BC00001F040FE029022000023A8FB020108FB56
:102BD000031109FB0211CDE9000168680021A6FB81
:102BE000002306FB013307FB0033DDE9000101F0A0
:102BF00029FE6421B0FBF1F102980AFB11010801E2
:102C000032306421B0FBF1F010F0F000039910EBCA
:102C10000110029022000023A8FB020108FB03110F
:102C200009FB0211CDE9000168680021A6FB002321
:102C300006FB013307FB0033DDE9000101F002FE72
:102C4000009022000023A8FB020108FB031109FBEE
:102C500002118046894668680021A6FB002306FB16
:102C6000013307FB00334046494601F0EBFD642188
:102C7000B0FBF1F100980AFB110A5FEA0A1032304A
:102C80006421B0FBF1F111F00F01029809182868D6
:102C9000816005B0BDE8F08FF369FFFF00100140CF
:102CA000001401400100DFED692AB4EE620AF1EE82
:102CB00010FA06DA9FED663AB4EE430AF1EE10FA26
:102CC00001D500203EE0F4EE620AF1EE10FA04DADB
:102CD000F4EE430AF1EE10FA01D5002032E0DFED08
:102CE0005D3AB4EE631AF1EE10FA04DAB5EE401A6A
:102CF000F1EE10FA01D5002024E0DFED573AF4EEB2
:102D0000631AF1EE10FA04DAF5EE401AF1EE10FA59
:102D100001D5002016E0B4EE622AF1EE10FA04DAD2
:102D2000B4EE432AF1EE10FA01D500200AE081ED5D
:102D3000030AC1ED040A81ED051AC1ED061A81ED01
:102D4000072A0120704738B52DED068B04000D00D1
:102D5000B0EE408AF0EE608AB0EE419AF0EE619AF1
:102D6000B0EE42AA257120782072B0EE4A2AF0EE29
:102D7000691AB0EE491AF0EE680AB0EE480A20006F
:102D8000FFF790FF002801D1002000E00120BDECFA
:102D9000068B32BD017102780272704738B52DED95
:102DA000028B04000D009FED2A8ADFED698A102056
:102DB000B0EE681AF0EE480A94ED010A01F05AFEEE
:102DC000A8600E20B0EE681AF0EE480A94ED020AF0
:102DD00001F050FEE8600A209FED6D1ADFED6D0AEC
:102DE00094ED030A01F046FE286108209FED6A1A5F
:102DF000DFED680A94ED040A01F03CFE68611020E2
:102E0000B0EE681AF0EE480A94ED050A01F032FEC1
:102E1000A861A8682870A868000A6870E868A870A7
:102E2000E868000A10F03F00296950EA8110E87054
:102E300028698008287168696871A869A871A869FB
:102E4000000AE871BDEC028B31BD00000100204298
:102E5000000020C201C07F4401004C421300DBB2DD
:102E60000A2B06D143880B7043889BB21B0A4B7018
:102E700007E01300DBB2092B03D103780B700023AA
:102E80004B7070470A784B7852EA032202808A78A6
:102E90008270CA78C2700A794B7952EA0322828022
:102EA0008A79CB7952EA0322C28070470A7802708D
:102EB00070470A78012A02D10122028025E00A78AF
:102EC000022A02D1022202801FE00A78042A02D1DB
:102ED0000422028019E00A78082A02D1082202801E
:102EE00013E00A78102A02D1102202800DE00A783D
:102EF000202A02D12022028007E00A78402A02D14B
:102F00004022028001E000220280704738B50400B0
:102F10000D002079042805D1291D14F10800FFF7C0
:102F20003DFF0CE020790A2802D02079092806D13B
:102F3000227915F13C0114F13400FFF78FFF31BD08
:102F400001000879097850EA411080B2704700000A
:102F500000002042F8B504000D001600257084F82A
:102F6000466002212000FFF715FFDFF84C76201D98
:102F7000FFF7E6FF38800020B87094F8461038005C
:102F800001F0A2FD002801D1002000E00120F2BDE7
:102F900000C07F440000000000004C4238B52DED19
:102FA000048B0400B0EE408AF0EE608AB0EE419AE5
:102FB0009FEDAE2AF0EE491AB0EE681ADFEDAB0ACB
:102FC000B0EE480A04212000FFF7BDFE002801D121
:102FD000002015E0DFF8E055201DFFF7B1FF288045
:102FE0000820A87029002000FFF790FF94F84610F1
:102FF000280001F069FD002801D1002000E0012037
:10300000BDEC048B32BD000038B52DED028B040001
:10301000B0EE408AF0EE608A9FED942AF0EE681AD6
:103020009FED921AF0EE480A9FED900A04212000CD
:10303000FFF789FE002801D1002015E0DFF8785560
:10304000201DFFF77DFF28800820A87029002000A0
:10305000FFF75CFF94F84610280001F035FD0028CA
:1030600001D1002000E00120BDEC028B32BD000048
:1030700038B52DED028B0400B0EE408AB0EE482A40
:10308000DFED7A1A9FED791ADFED780A9FED770A66
:1030900004212000FFF757FE002801D1002015E091
:1030A000DFF81455201DFFF74BFF28800820A8707B
:1030B00029002000FFF72AFF94F84610280001F0AD
:1030C00003FD002801D1002000E00120BDEC028BAF
:1030D00032BD000038B52DED028B0400B0EE408A01
:1030E0009FED622AF0EE481A9FED601ADFED5F0A4D
:1030F0009FED5E0A04212000FFF725FE002801D184
:10310000002015E0DFF8B054201DFFF719FF2880DC
:103110000820A87029002000FFF7F8FE94F8461058
:10312000280001F0D1FC002801D1002000E001209E
:10313000BDEC028B32BD000038B504009FED4B2A78
:10314000DFED4A1A9FED491ADFED480A9FED470A65
:1031500004212000FFF7F7FD002801D1002015E031
:10316000DFF85454201DFFF7EBFE28800820A870DC
:1031700029002000FFF7CAFE94F84610280001F04D
:10318000A3FC002801D1002000E0012032BD000096
:1031900038B52DED048B0400B0EE408AF0EE608A65
:1031A000B0EE419AF0EE619AB0EE682AF0EE691A3C
:1031B000B0EE491ADFED2D0AB0EE480A04212000D6
:1031C000FFF7C1FD002801D1002015E0DFF8E8532A
:1031D000201DFFF7B5FE28800820A87029002000D8
:1031E000FFF794FE94F84610280001F06DFC0028CB
:1031F00001D1002000E00120BDEC048B32BD0000B5
:1032000038B52DED048B0400B0EE408AF0EE608AF4
:10321000B0EE419AB0EE682AF0EE491A9FED131A0B
:10322000F0EE480A9FED110A04212000FFF78BFD04
:10323000002801D1002015E0DFF87C53201DFFF7A6
:103240007FFE28800820A87029002000FFF75EFE7E
:1032500094F84610280001F037FC002801D1002026
:1032600000E00120BDEC048B32BD00000000000036
:1032700038B52DED068B0400B0EE408AF0EE608A82
:10328000B0EE419AF0EE619AB0EE42AAB0EE492A51
:10329000F0EE4A1AB0EE691AF0EE680AB0EE480A8B
:1032A00004212000FFF74FFD002801D1002015E088
:1032B000DFF80453201DFFF743FE28800820A87084
:1032C00029002000FFF722FE94F84610280001F0A4
:1032D000FBFB002801D1002000E00120BDEC068BA3
:1032E00032BD000038B52DED068B0400B0EE408AEB
:1032F000F0EE608AB0EE419AF0EE619AB0EE42AA2A
:103300000D00B0EE492AF0EE4A1A9FED851AF0EE54
:10331000680A9FED830A04212000FFF714FD0028AE
:1033200001D1002078E084F845502800C0B2002880
:103330000BD0022823D016D3042834D029D3062852
:1033400049D038D3072854D065E0B0EE4A1AF0EEE1
:10335000690AB0EE480A2000FFF720FE002801D1DC
:10336000002059E057E0F0EE4A0AB0EE680A20006B
:10337000FFF74AFE002801D100204DE04BE0B0EEFF
:10338000490A2000FFF774FE002801D1002043E025
:1033900041E0B0EE4A0A2000FFF79CFE002801D170
:1033A000002039E037E02000FFF7C6FE002801D1F9
:1033B000002031E02FE0F0EE4A1AB0EE691AF0EE8C
:1033C000490AB0EE480A2000FFF7E2FE002801D1CA
:1033D000002021E01FE0B0EE4A1AF0EE490AB0EEFC
:1033E000680A2000FFF70CFF002801D1002013E03D
:1033F00011E0B0EE4A2AF0EE691AB0EE491AF0EE8A
:10340000680AB0EE480A2000FFF732FF002801D119
:10341000002001E0FFE70120BDEC068B32BD00007B
:103420002DE9F84F2DED028B84B004000D00002033
:1034300002900020019000200090002600200390C0
:103440002F78687857EA0027A878000410F47020D5
:10345000074395F802805FFA88F85FEA18185FFA68
:1034600088F8E87858EA00182879000310F47F40BB
:1034700050EA080895F80590A87959EA002995F8C6
:1034800007A01AF0010A95F807B05FFA8BFB5FEA14
:103490005B0B5FFA8BFB9FED458ADFED458A1421BC
:1034A000F0EE680AB0EE480A380001F0F8FA84ED50
:1034B000000A1421F0EE680AB0EE480A404601F016
:1034C000EEFA84ED010A1021F0EE680AB0EE480A27
:1034D000484601F0E4FA84ED020A84F80CA0207B4F
:1034E00000280AD10721DFED330ABBEE040A584653
:1034F00001F0D5FA84ED040A0CE0207B012809D103
:103500000721DFED2C0ABBEE040A584601F0C7FA8A
:1035100084ED040A04B0BDEC028BBDE8F18F00001D
:103520000000000070B504000D0016003000C0B2AD
:10353000042806D115F1510114F12000FFF770FFA6
:103540001BE03000C0B2182806D115F1510114F16A
:103550003A00FFF797FC10E03000C0B2172806D100
:1035600015F1510114F14200FFF7A3FC05E015F13C
:10357000510114F14400FFF799FC70BDF8B5040047
:103580000E4805682E00F6B2760915F01F00B0F15E
:1035900010073200D2B208493B00DBB24820434357
:1035A00004EB03004838FFF7BDFFF1BD000020C267
:1035B0000000204200004843C0070020700A00209D
:1035C00070B5040000F014FE0500260016F1010F8E
:1035D00002D004480078361800F00AFE401BB042C2
:1035E000FAD370BDB9020020002201F0DFBA00005A
:1035F000C0F3C75181B1FF2906D0C110400721F0A7
:10360000E04101F16051704741020CBF40F4E0011C
:103610006FF000410020704700F0004100020AD026
:10362000B0FA80FC00FA0CF001F16051A1EB0C51F2
:1036300001EBD02140057047F0B540F2FF7581EAFB
:10364000030C0CF0004C15EA11541DBF15EA13577A
:10365000AC42AF42E5E0BC41C1F31301C3F3130335
:10366000801A994143F4801304D2641E40004941FA
:1036700080185941C90241EA5051B1FBF3F603FBEE
:103680001611A2FB0675D7EBC020A94102D2761E07
:1036900080185941C90241EA5051B1FBF3FE03FBC6
:1036A0001E11A2FB0E75D7EBC020A94103D2AEF1CB
:1036B000010E80185941890241EA9051760546EA87
:1036C0008E2EB1FBF3F603FB1611A2FB0675D7EBAA
:1036D0008020A94102D2761E80185941C90241EAD0
:1036E00050514EEA060EB1FBF3F603FB1611A2FB96
:1036F0000675D7EBC020A94102D2761E8018594129
:10370000C90241EA5051B1FBF3F703FB1711A2FBC9
:103710000735D3EBC020A94167F100070CBF004279
:1037200047F0010766F3D5274FEA1E31B80814F5B4
:10373000806412DDBD0775F1004250EB0E5051EB75
:10374000045111F5801F5CBF41EA0C01F0BD4CF043
:103750007F6141F0E0410020F0BDBD076D0840EA07
:103760000E5041F48011D4F10104B4F120060ADABC
:10377000C4F120060200E04001FA06F3E1401843DC
:10378000B24015430EE0342C13DCC6F1200445EAA8
:1037900040056D0820FA06F2154321FA06F0A14013
:1037A0000D43002175F1004250F1000051EB0C0176
:1037B000F0BD00205FEA0C01F0BDCFB992185B416B
:1037C000B3FA83F704BFB2FA82F6BF190B3FB7F121
:1037D00020062FBF02FA06F3BB40C7F1200622FAEB
:1037E00006F638BF3343BA401CB1E419641E33E710
:1037F0007F4231F00041B1FA81F404BFB0FA80F6A3
:10380000A4190B3CB4F120062FBF00FA06F1A14029
:10381000C4F1200620FA06F638BF3143A0403C1B15
:103820001AE7AC421ABF05EA1357AF4212E050EA5A
:1038300041061CBF52EA4306BFE750EA4107304643
:1038400061461CBF41EA0551F0BD52EA430C08BF76
:10385000C143F0BD00204FF4001616EB410F98BF96
:1038600016EB430F08BF16EB410F24BFC14305E021
:1038700016EB430F0CBF61464CEA0551F0BD00004A
:1038800030B40023042B0ADA51F8234040F82340D7
:1038900000EB830452F8235025615B1CF2E730BC37
:1038A000704780ED080A70472DE9F0472DED0C8B2D
:1038B0000600B0EE408A8A46170096ED080AB4EE7C
:1038C000480AF1EE10FAC0F2378196ED080A88EE48
:1038D000008AB7EE000A30EE480A10EE100AFFF731
:1038E00087FE41EC1A0BB7EE000A30EE480A10EEE4
:1038F000100AFFF77DFE41EC1D0B18EE100AFFF7D2
:1039000077FE41EC1B0B18EE100AFFF771FE41EC3D
:103910001C0BF0EE088A9FED8A9B53EC1A2B51EC9E
:103920001A0BFEF78FFB53EC1A2BFEF78BFB0400F0
:103930000D003068FFF75CFE22002B00FEF782FBD3
:103940008046894653EC1D2B51EC1D0BFEF77AFB8C
:1039500053EC192BFEF776FB04000D0018EE100A4D
:10396000FFF746FE22002B00FEF76CFB04000D0063
:103970007068FFF73DFE22002B00FEF763FB424616
:103980004B4600F013FA80468946B7EE000A30EE47
:10399000480A20EE280A10EE100AFFF729FE04005C
:1039A0000D0053EC1B2B51EC1B0BFEF74BFB2200C5
:1039B0002B00FEF747FB04000D00B068FFF718FE70
:1039C00022002B00FEF73EFB42464B4600F0EEF98C
:1039D0008046894653EC1C2B51EC1C0BFEF732FB46
:1039E00053EC1C2BFEF72EFB04000D00F068FFF7D4
:1039F000FFFD22002B00FEF725FB42464B4600F060
:103A0000D5F9FEF70DFCCAF80000B7EE000A30EE5B
:103A1000480A10EE100AFFF7EBFD41EC1A0BB7EE67
:103A2000000A30EE480A10EE100AFFF7E1FD41EC03
:103A30001D0B18EE100AFFF7DBFD41EC1B0B18EE17
:103A4000100AFFF7D5FD41EC1C0B53EC1A2B51EC7F
:103A50001A0BFEF7F7FA53EC1A2BFEF7F3FA0400F1
:103A60000D003069FFF7C4FD22002B00FEF7EAFAD3
:103A70008046894653EC1D2B51EC1D0BFEF7E2FAF4
:103A800053EC192BFEF7DEFA04000D0018EE100AB5
:103A9000FFF7AEFD22002B00FEF7D4FA04000D0064
:103AA0007069FFF7A5FD22002B00FEF7CBFA424616
:103AB0004B4600F07BF980468946B7EE000A30EEAF
:103AC000480A20EE280A10EE100AFFF791FD0400C4
:103AD0000D0053EC1B2B51EC1B0BFEF7B3FA22002D
:103AE0002B00FEF7AFFA04000D00B069FFF780FD70
:103AF00022002B00FEF7A6FA42464B4600F056F98C
:103B00008046894653EC1C2B51EC1C0BFEF79AFAAD
:103B100053EC1C2BFEF796FA04000D00F069FFF73A
:103B200067FD22002B00FEF78DFA42464B4600F05F
:103B30003DF9FEF775FB3860BDEC0C8BBDE8F087F6
:103B400000000000000008402DE9F8432DED108B27
:103B500082B0B0EE40DAF0EE60DA06000F009FEDC2
:103B60008C9ADFED8C9A9FED8CAA6DEE0DAA4DEE2E
:103B7000ADAA3AEE290A7AEE290A20EE20BAF0EE32
:103B800000BAB0EE4B0A09EE090A30EE6A0A69EE95
:103B90002B0A39EE8A1A60EE810A80EE20CA1CEEEA
:103BA000100AFFF725FD41EC100B01F01CF851EC59
:103BB000100BFEF735FB019069EE09CA49EEA9CA60
:103BC00029EE2B0A20EE290A40EE4CCA1AEE900A82
:103BD000FFF70EFD41EC100B01F00CF8B0EE408A3F
:103BE000F0EE608A1DEE100AFFF702FD53EC182B71
:103BF000FFF722FD41EC100B00F0F5FF51EC100B2C
:103C0000FEF70EFB00901CEE900AFFF7F1FC41EC72
:103C1000100B00F0EFFFB0EE408AF0EE608A3AEE53
:103C2000AC0A0AEE4A0A10EE100AFFF7E1FC8046E1
:103C3000894653EC182B00205FF08041FEF702FA12
:103C400004000D001AEE900AFFF7D2FC41EC100BB5
:103C500000F0D0FF51EC100B22002B00FEF7F2F920
:103C600002000B0040464946FFF7E6FCFEF7D8FA93
:103C70000FEE900A1FEE900AFFF7BAFC41EC100B12
:103C800000F0B1FF51EC100BFEF7CAFA0FEE100A6C
:103C90009DED000A30EE0FEA1CEE900AFFF7A8FC3B
:103CA00041EC100B00F0A6FFB0EE408AF0EE608A07
:103CB000B0EE6C0A09EE090A09EEE90A10EE100AE4
:103CC000FFF796FC04000D0029EE2B0A10EE100AF7
:103CD000FFF78EFC53EC182BFEF7B4F902000B0033
:103CE00020002900FFF7A8FC41EC100B00F07BFF3F
:103CF00051EC100BFEF794FA08EE100A78EE4E8A9B
:103D00001EEE100AFFF774FC02000B002448254940
:103D100000F0F2FF04000D0018EE100AFFF768FC37
:103D200002000B002000290000F0E6FFFEF778FA01
:103D30000BEE900ADFED19EA28EEAE0A10EE100A3B
:103D4000FFF756FC41EC100B01F048F851EC100B5A
:103D50000022154BFFF770FCFEF762FA30602BEE85
:103D6000AE0A10EE100AFFF743FC41EC100B01F015
:103D700035F851EC100B00220B4BFFF75DFCFEF702
:103D80004FFA386002B0BDEC108BBDE8F183000043
:103D90008FC2F53D8FC2753ECDCCCC3C00007A443D
:103DA0006E861BF0F921094000408F4070B44FF03F
:103DB000004591EA030F40F1A7876B40841A71EB2D
:103DC000030604D26E40001BB141121973414FF437
:103DD000001C1CEB410F34BF7CEB430683E00C0D51
:103DE000A4EB1356362E00F37C80012E45EAC32344
:103DF00041DC43EA525312BFD20292025B0824050F
:103E000045EAC12141EA5051D2EBC020994125D465
:103E100007D1B0FA80F610FA06F162D00020203601
:103E200008E0B1FA81F6B140C6F1200220FA02F2B0
:103E30001143B0404FEAF474B4EB465434F0010639
:103E40004FEA74040AD8D6F50016760D04F0004443
:103E5000F04061FA06F25040F1404840C00A40EAA2
:103E6000415021F0004128BF5FEA500550F10000A9
:103E700044EBD12135E0DB0A45EAC121C90AB6F19C
:103E800020050EDD42EA0242120CC5F1200603FABB
:103E900006F6EB4042EA06056D42984161F10001E9
:103EA0000DE062FA06F5F240554063FA06FC82EA3C
:103EB0000C02F3405A406D42904161EB030111F452
:103EC000801F05D1641E620502D06D00404149414A
:103ED00021F48011430875F1004350F1000041EBDB
:103EE000045170BC70471CEB410F15D223F0004306
:103EF00052EA43060BD04FEA4C0CBCEB410F04D8FE
:103F00000C0D661E342EB7DDEBE7801A994150EA9E
:103F1000410608BF0021E4E708BF1CEB430F28BFA0
:103F20006FF00001DDE7000080B5A148A149016004
:103F30005FF4E1314160002181600021C160002116
:103F400001610C214161002181610021C161FEF705
:103F50009BF9002801D001F0EFF801BD10B5964C97
:103F6000964820605FF4E13060600020A06000208F
:103F7000E060002020610C2060610020A061002032
:103F8000E0612000FEF780F9002801D001F0D4F8AC
:103F900003228B492000FEF71AFA10BD80B589482C
:103FA000894901605FF4E1314160002181600021B5
:103FB000C160002101610C2141610021816100216A
:103FC000C161FEF761F9002801D001F0B5F801BD2B
:103FD00080B57E487E4901605FF4E1314160002197
:103FE00081600021C160002101610C21416100213B
:103FF00081610021C161FEF747F9002801D001F07D
:104000009BF801BD10B586B0040068461421FFF787
:10401000EBFA2068674988422ED1002005906D4850
:10402000016851F080410160006810F08040059007
:104030000598002005906848016851F02001016052
:10404000006810F0200005900598C0200090022024
:1040500001900020029003200390082004906946FC
:104060005E4801F06BF800220021522001F044FA72
:10407000522001F056FA99E02068504988422ED12A
:10408000002005905348016851F00041016000682C
:1040900010F0004005900598002005904E480168FA
:1040A00051F010010160006810F0100005900598B3
:1040B0000320009002200190002002900320039032
:1040C000082004906946464801F038F80022002193
:1040D000532001F011FA532001F023FA66E0206822
:1040E000394988422FD1002005903A48016851F49F
:1040F00080210160006810F4802005900598002060
:1041000005903548016851F004010160006810F025
:104110000400059005984FF4406000900220019043
:1041200000200290032003900720049069462D4848
:1041300001F004F800220021272001F0DDF92720FA
:1041400001F0EFF932E02068214988422ED10020A9
:1041500005902548016851F020010160006810F0C9
:10416000200005900598002005901B48016851F03B
:1041700040010160006810F04000059005984FF480
:1041800084400090022001900020029003200390C0
:10419000082004906946154800F0D0FF0022002155
:1041A000472001F0A9F9472001F0BBF906B010BD86
:1041B0006408002000780040AC080020007C00402B
:1041C000B40A0020F4080020004800403C09002008
:1041D00000140140403802403038024000140240D0
:1041E000001002400008024044380240001802401B
:1041F00001480068704700BFB00A002070B5040095
:10420000A56DFFF7F5FF060094F83500022806D0EB
:1042100080206065002084F8340001203BE02068A5
:10422000006830F01600216808602068406930F0AE
:10423000800021684861206C002802D1A06C002811
:1042400005D02068006830F0080021680860206808
:104250000068400840002168086020680068C007C6
:104260000ED5FFF7C5FF801B0628F6D3202060651A
:10427000032084F83500002084F8340003200AE08D
:104280003F21E06D8140A960012084F835000020C5
:1042900084F83400002070BD010091F83500022838
:1042A00003D080204865012009E0052081F8350011
:1042B00008680068400840000A68106000207047E5
:1042C000704770477047000010B504002068DFF8A1
:1042D000041388420AD1DFF80013DFF8000300F06E
:1042E0004CFCDFF8FC02FFF749F90AE02068BD4901
:1042F000884206D1BC49B94800F03FFCBB48FFF7F3
:104300003DF910BD10B504002068B949884240F05D
:10431000B880B8490878FF2840F0AF804878FF2877
:1043200040F0AB808878452800F08A80462800F06D
:104330009180472800F08980482800F09080642808
:1043400069D0652809D0662836D067281CD068282F
:104350004AD06E2800F088808FE0A74800220270C3
:10436000012242700122C0F898200020A34AC2F81E
:1043700098000020A24AC2F89400A24800220260DD
:10438000A148A24A026078E09B48002202705FF0D8
:10439000FF3242700122C0F898200020974AC2F8EC
:1043A00098000020964AC2F89400964800220260C5
:1043B0009548964A026060E09048002202705FF0E3
:1043C000FF32427000228C4BC3F898200122C0F8C3
:1043D000982000208A4AC2F894008A48002202608D
:1043E00089488A4A026048E084480022027001221B
:1043F00042700022804BC3F898200122C0F8982018
:1044000000207F4AC2F894007E48002202607E4865
:104410007E4A026031E07A48002202700122C0F830
:1044200094200020754AC2F898000020724AC2F811
:1044300098007448002202607348744A02601CE0CD
:1044400001206D4AC2F89C0017E001206A4AC2F8B8
:104450009C0012E00120694AC2F89C000DE0012096
:10446000664AC2F89C0008E00120634AC2F89C003A
:104470000120624AC2F89C00FFE703226448FDF76E
:10448000A6FF10BD10B504002068B0F1804F40F0C9
:10449000978059490878002802D0087802281DD151
:1044A0009FED480A5748D0ED000AF4EE400AF1EEBD
:1044B00010FA40F18280D0ED000A9FED431A70EEB1
:1044C000810AC0ED000AD0ED000AF4EE400AF1EED8
:1044D00010FA72DB0120C1F89C006EE047490878B1
:1044E000002802D0087802281CD19FED360A4548E2
:1044F000D0ED000AF4EE400AF1EE10FA5DD5D0EDF1
:10450000000A9FED311A70EE810AC0ED000AD0ED6D
:10451000000AF4EE400AF1EE10FA4EDB0120C1F879
:104520009C004AE036490878002805D0087804281D
:1045300002D00878022828D19FED220A3148D0ED18
:10454000000AF4EE400AF1EE10FA36D50A78022A93
:1045500008D1D0ED000A9FED1D1A70EE810AC0ED62
:10456000000A07E0D0ED000AB3EE041A70EE810AEB
:10457000C0ED000AD0ED000AF4EE400AF1EE10FAA8
:104580001BDB0120C1F8980017E01E4890ED000ADF
:10459000DFED0F0AB4EE600AF1EE10FA08D590EDE7
:1045A000000ADFED090A30EE200A80ED000A04E07F
:1045B00000210160144815490160164801F01BF8FC
:1045C00010BD000000007A44000020420000484274
:1045D0000000FA4400640040C0090020C007002029
:1045E000BC02002000680040E8090020FC04002014
:1045F000007C0040B40A002000000020A000002041
:1046000040010020AC0A002078020020000080BF9A
:10461000AC0800201C0800202DE9F04104000D002A
:10462000002C01D1012095E0584F386810F00F00A0
:10463000A84207D23D70386810F00F00A84201D0A0
:10464000012087E02078800716D52078400704D520
:104650004F48016851F4E05101602078000704D50B
:104660004B48016851F46041016049490A6832F0E1
:10467000F002A06802430A602078C00738D560685D
:10468000012805D143480068800313D4012061E06C
:104690006068022802D06068032805D13D480068A0
:1046A000800107D4012055E03A480068800701D412
:1046B00001204FE0DFF8D880D8F800108908890081
:1046C00060680143C8F80010FFF792FD0600D8F8B3
:1046D000000010F00C006168B0EB810F08D0FFF70C
:1046E00087FD801B41F289318842F0D3032031E0FD
:1046F000386810F00F00854207D23D70386810F01E
:104700000F00A84201D0012024E02078400706D500
:104710001F490A6832F4E052E06802430A602078D8
:10472000000707D51A48016831F46041226951EA4F
:10473000C201016000F038F81749154A1268C2F347
:104740000312895CC840154908601548006801F0EB
:10475000CDF90020BDE8F08110480068704780B5B1
:10476000FFF7FAFF0F490A4A1268C2F38222895CF6
:10477000C84002BD80B5FFF7EFFF0A49044A12683E
:10478000C2F34232895CC84002BD0000003C0240D6
:104790000838024000380240548B0008A002002074
:1047A0009C020020908B00082DE9F0410024002598
:1047B000002600271F48006810F00C00002804D0D5
:1047C000042804D0082804D031E01B4830E01B48FE
:1047D0002EE0DFF86C80D8F8000010F03F000400F5
:1047E000D8F8000040020CD5D8F80000C0F38810BB
:1047F0001249A1FB00012200002300F023F805006C
:104800000BE0D8F80000C0F388100B49A1FB0001B1
:104810002200002300F016F80500D8F80000C0F3CD
:104820000140401C40000600B5FBF6F000E00248E5
:10483000BDE8F081083802400024F400001BB700F6
:1048400004380240BBBBE1B1B2F5803F80F07E800E
:10485000022A1ED98C46B1FBF2F102FB11C31B04E4
:1048600043EA1043B3FBF2FC02FB1C3380B240EA84
:104870000343B3FBF2F002FB103240EA0C4000238A
:104880007047022A05D98446B0FBF2F002FB10C241
:1048900070474AB105D100F0010249085FEA3000D3
:1048A000704700220023704701F046B90B00020058
:1048B000002100207047904271EB030CF6D3B3F552
:1048C000803F2FD2F0B5B3FA83F7B1FA81F4A7F1A4
:1048D0000F0E3D1B5340CEF1200602FA0EF2F341BB
:1048E0005340B5F10F0746D80F3C2C444140C4F16A
:1048F0002006A040F1414140B1FBF3F603FB161145
:10490000A2FB0645001BA94102D2761E8018594120
:1049100080EA010221FA0EF362FA0EF200215A40F7
:104920003046F0BD30B4B1FBF3FC03FB1C11A2FB1D
:104930000C45001BA94103D2ACF1010C8018594170
:1049400030BC02460B46604600217047B2F1807FC2
:1049500065D3F0B5B2FA82F7B1FA81F4C7F10F0668
:104960003D1B22FA06F307F1110EF24120355A40A1
:10497000B5F10F07B8D94140C4F12006A040F1417C
:104980004140B1FBF3FC03FB1C11A2FB0C45001BD7
:10499000A94103D2BCF1010C801859410F2F12D349
:1049A0000F3FC90341EA5041B1FBF3F603FB161177
:1049B000A2FB0645D4EBC030A94102D2761E801876
:1049C000594146EACC3C07B34140C7F12006B84004
:1049D000F1414140B1FBF3F603FB1611A2FB064582
:1049E000001BA94102D2761E8018594180EA0102BB
:1049F00021FA0EF3C7F1200462FA0EF20CFA07F066
:104A00005A402CFA04F13043F0BD80EA010221FA49
:104A10000EF3002162FA0EF260465A40F0BD8C4659
:104A2000B1FBF2F102FB11C31B0243EA1063B3FBBB
:104A3000F2FC02FB1C331B024CEA002043EA106329
:104A4000B3FBF2FC02FB1C331B024CEA002043EADE
:104A50001063B3FBF2FC02FB1C331B024CEA002088
:104A600043EA1063B3FBF2FC02FB1C324CEA002069
:104A700000237047012111FA00F0401E01EE900A58
:104A8000F8EEE11A30EE600A21EE800A71EE600A5B
:104A900080EE200ABCEEC00A10EE100A704701EE4C
:104AA000100A70EEC00AB8EE411A60EE810A0120C9
:104AB00010FA01F1491E01EE101AB8EEC11AC0EE4B
:104AC000810A30EE800A704770B586B004000D0090
:104AD0002800C0B2012805D02800C0B2022801D0A9
:104AE000002048E02800C0B2012802D12B4806006F
:104AF00005E02800C0B2022801D12948060020881C
:104B000000900020029000200390A07804900020E4
:104B10008DF81400208880B24009042809D1214B67
:104B2000221D6946300001F083F9002822D00020C0
:104B300021E0208880B2400980B2092804D0208872
:104B400080B240090A280AD1164B14F13C0269468A
:104B5000300001F06DF900280CD000200BE0114B63
:104B600014F148026946300001F062F9002801D0D2
:104B7000002000E0012006B070BD38B504000D0033
:104B800014F15103084A0021280001F0E4F900283B
:104B900001D0002000E0012032BD0000C00900204B
:104BA000E8090020A00A0020700A002000B500BF1C
:104BB000130096469446103928BFA0E80C50FAD846
:104BC0005FEA417C28BF0CC048BF40F8042BC907EE
:104BD00028BF20F8022B48BF00F8012B00BD0000C1
:104BE00041EC100B01BD80B551EC100B01F098FBAE
:104BF000F6E7000051EC100B00B500F003F841ECB3
:104C0000100B00BD40F2FF7C0B0D4DD0634566D20A
:104C100030B421EA035141F4801103F2FD3C5FEA14
:104C20005C0C01D300184941890041EA9071800071
:104C30004FF440140023E202D50AB1F5100107D465
:104C40006D081DD2091B641900184941491BF7D58D
:104C50006D080AD20919641B00184941491BEFD598
:104C60006D08F7D301E0520817D0C01861419B1AB4
:104C7000AC4100184941801AA941F4D452080AD025
:104C8000C01AA1419B186C4100184941801AA941E2
:104C9000E9D45208F4D15B1C6C4161084FEA33003F
:104CA00001EB0C5130BC704750EA0103FBD030B42B
:104CB000B1FA81F311B9B0FA80F41B190B3BB3F1CF
:104CC00020042FBF00FA04F19940C3F1200420FA18
:104CD00004F438BF21439840D3F101039DE76345B5
:104CE00014BF50EA410CDEE711F5801FDBD8D94331
:104CF000AFF300807047000070B44FF0004591EAB8
:104D0000030F7FF55BA86B40841A71EB030603D297
:104D1000001BB141121973414FF4001C1CEB410FF1
:104D200034BF7CEB430442E00C0DA4EB1356352E4C
:104D30004FDC45EAC323DB0A45EAC121C912B6F1BB
:104D400020050DDD63FA05F6EB4086EA0305124205
:104D500018BF45F00105C01851F100010CD213E055
:104D600062FA06F5F2405540F3415A40B340F34031
:104D70005A408018594107D349085FEA30005FEA7A
:104D8000350528BF45F0010501F58011420875F190
:104D9000004250F1000041EB04514E0016F5001F97
:104DA00070BC38BF70470020090D090570471CEB27
:104DB000410F10D252EA43060BD0BCEB410F05D88D
:104DC0000C0DAB43661E342EB6DD02E0AB438018FB
:104DD000594170BC704770BC7047000051EC100B1B
:104DE00000B500F003F841EC100B00BD40F2FF7C71
:104DF0000CEA115240F2FE33D21A17DD352A1DDAC1
:104E0000B2F1150308DA6FEA4C53D34031EA53018B
:104E1000C9189943002070476FF00002DA4030EA69
:104E20005200801841F100019043704701F00041A9
:104E300004BF41F07C5141F4700100207047000034
:104E40002DE9F0412DED028B01F0CEFA00F000F9D2
:104E500001F0E4FA01F06CFB01F097FB01F0A6FC15
:104E600001F016FDFFF7B4F8FFF75EF8FFF776F8EC
:104E700001F028FDFFF792F840F6B830FEF7A0FBEE
:104E8000A04C012201212000FEF764F814F148052E
:104E9000012202212800FEF75DF89B4E022201212B
:104EA0003000FEF757F816F14807022202213800B9
:104EB000FEF750F80120FEF783FBDFF85082B3EED7
:104EC000048AF1EE048A0021B0EE682AF0EE481A56
:104ED0009FED8B1ADFED8A0A98ED000A2000FEF79D
:104EE00001FA0120FEF76CFB0021B0EE682AF0EE1B
:104EF000481A9FED831ADFED820A98ED010A280017
:104F0000FEF7F0F90120FEF75BFB814C0021B0EECB
:104F1000682AF0EE481A9FED7A1ADFED790A94EDCF
:104F2000000A3000FEF7DEF90120FEF749FB002100
:104F3000B0EE682AF0EE481A9FED711ADFED700AA4
:104F400094ED010A3800FEF7CDF94FF4FA60FEF750
:104F500037FB704C704D95ED000AD4ED000AB4EEAD
:104F6000600AF1EE10FAF4D06C4ED6F898000028E2
:104F700012D06B48D0F8980000280DD16948D0F8BD
:104F80009400002808D16848D0F89400002803D184
:104F90003000FBF713FC43E0D6F89800002812D14C
:104FA0005F49D1F8980000280DD05E48D0F89400F1
:104FB000002808D15C48D0F89400002803D10800EC
:104FC000FBF7CAFF2CE0D6F89800002812D154480D
:104FD000D0F8980000280DD15249D1F8940000284B
:104FE00008D05148D0F89400002803D10800FCF7FD
:104FF00069FA15E0D6F89800002811D14848D0F891
:10500000980000280CD14748D0F89400002807D118
:105010004549D1F89400002802D00800FCF750FD63
:10502000307803280BD13E480078032807D13D484B
:105030000078052803D13C480078052889D02868E5
:1050400020603A4800210268516200F087FA80E748
:1050500080B592B006A83021FEF7C6FA01A8142147
:10506000FEF7C2FA002000903148016851F08051EB
:105070000160006810F080500090009800200090BF
:105080002C48016851F440410160006810F4404030
:1050900000900098012006905FF480300790022075
:1050A0000C905FF480000D9006200E90B4200F90BD
:1050B000022010900820119006A801F063FC00283F
:1050C00001D000F039F801F053FE002801D000F0C3
:1050D00033F80F20019002200290002003904FF43B
:1050E000A05004904FF480500590052101A8FFF7CF
:1050F00093FA002801D000F01FF813B000BD0000A3
:1051000000000000BC020020FC0400207C02002003
:105110008C02002078020020AC0A00200000002051
:10512000A000002040010020DC0100201C0800201D
:10513000403802400070004072B6FEE7F8B5002328
:10514000002400250026102E80F01781012717FA71
:1051500006F213000A681A4014009C4240F00B81CA
:105160000A7912F00302012A04D00A7912F003022C
:10517000022A1FD1D0F808C05FF0030E3200D2B26D
:1051800052001EFA02FE3CEA0E0CD1F80CE032008E
:10519000D2B252001EFA02FE5EEA0C0CC0F808C041
:1051A0004268B740BA434F68C7F30017B7403A4365
:1051B000150045600A7912F00302032A14D0C7686B
:1051C0005FF0030C3200D2B252001CFA02FC37EA44
:1051D0000C07D1F808C03200D2B252001CFA02FC0F
:1051E0005CEA07073D00C5600A7912F00302022A53
:1051F0001ED13200D20800EB8202176A5FF00F0C5A
:1052000016F00702D2B292001CFA02FC37EA0C0731
:10521000D1F810C016F00702D2B292001CFA02FCBC
:105220005CEA07073D003200D20800EB82021562FB
:1052300007685FF0030C3200D2B252001CFA02FC85
:1052400037EA0C0791F804C01CF0030C3200D2B20C
:1052500052001CFA02FC5CEA07073D0005604A6840
:1052600012F4403F00F0878000220092DFF84821CE
:10527000176857F480471760126812F48042009252
:10528000009ADFF838C1320092085CF822705FF0B3
:105290000F0E16F00302D2B292001EFA02FE37EA97
:1052A0000E07DFF81C21904201D1002530E0DFF825
:1052B0001421904201D101252AE0DFF80C2190420F
:1052C00001D1022524E0DFF80421904201D1032519
:1052D0001EE03F4A904201D1042519E03D4A904228
:1052E00001D1052514E03C4A904201D106250FE08A
:1052F0003A4A904201D107250AE0394A904201D149
:10530000082505E0374A904201D1092500E00A2529
:10531000EDB216F00302D2B2920095402F43320054
:1053200092084CF82270304D2A68A243D1F804C08C
:105330005FEACC2C00D522432A602C4F3D68A54360
:10534000D1F804C05FEA8C2C00D525433D60284F7E
:105350003A68A243D1F804C05FEA8C3C00D52243EE
:105360003A60244F3D68A543D1F804C05FEACC3CC5
:1053700000D525433D60761CE5E6F1BD1300DBB2A8
:10538000002B03D00B009BB2836103E00B009BB2A8
:105390001B048361704710B50400174801682200A0
:1053A00092B2114206D0210089B20160200080B281
:1053B00000F024F810BD00004438024008380140D5
:1053C000000002400004024000080240000C0240BD
:1053D000001002400014024000180240001C02406D
:1053E0000020024000240240083C01400C3C0140E7
:1053F000043C0140003C0140143C01407047000067
:1054000010B410F00703DFF8344122684FF6FF01B3
:105410000A40DFF82C1151EA03210A43226010BC34
:105420007047DFF818010068C0F3022070470000E1
:10543000010049B200290AD4012210F01F018A405C
:10544000DFF8001103005BB25B0941F823207047CD
:1054500010B4020052B2002A05D40A013A4B0400EB
:1054600064B21A5508E00A01384B040064B214F023
:105470000F04234403F8042C10BC704770B40300DD
:1054800013F00704D4F10700052801D3042001E03C
:10549000D4F10700251D072D01D2002500E0E51EEF
:1054A000012616FA00F0401E0140A94016FA05F543
:1054B0006D1E2A401143080070BC704710B50400EF
:1054C000601EB0F1807F01D301200EE0601E2049F4
:1054D00008600F215FF0FF30FFF7BAFF00201D4981
:1054E000086007201C490860002010BD10B50400AA
:1054F0002000FFF785FF10BD2DE9F04104000D00ED
:1055000016000027FFF78DFF804632002900404635
:10551000FFF7B4FF0100200040B2FFF799FFBDE89C
:10552000F08110B50400200040B2FFF781FF10BDEC
:1055300010B504002000FFF7C1FF10BD0CED00E026
:105540000000FA0500E100E000E400E018ED00E0F2
:1055500014E000E018E000E010E000E0010091F845
:105560003D00012801D0012044E0022081F83D00E7
:105570000868C06850F001000B68D8600868DFF860
:105580002031984221D00868B0F1804F1DD00868C2
:10559000DFF81031984218D00868DFF80C319842D3
:1055A00013D00868DFF8043198420ED00868DFF89D
:1055B0000031984209D00868DFF8F830984204D0EA
:1055C0000868DFF8F43098420DD10868806810F060
:1055D00007000200062A0CD00868006850F001009D
:1055E0000B68186005E00868006850F001000B685F
:1055F00018600020704701000868C068400840003B
:105600000A68D0600868006A41F2111210420BD19A
:105610000868006A40F24442104205D108680068F8
:10562000400840000A681060012081F83D00002019
:10563000704710B50400002C01D101202FE094F830
:105640003D00002805D1002084F83C00200001F036
:1056500078F9022084F83D00211D206800F001F94E
:10566000012084F84600012084F83E00012084F8DF
:105670003F00012084F84000012084F8410001200F
:1056800084F84200012084F84300012084F844009B
:10569000012084F84500012084F83D00002010BD61
:1056A000000001400004004000080040000C0040E1
:1056B00000040140004001400018004070B50400A3
:1056C0002068C56820680669B00718D5A80716D5F0
:1056D0007FF002002168086101202077206880693E
:1056E00010F0030F03D0200001F080FB05E0200044
:1056F00001F07DFB200001F07BFB0020207770078C
:1057000018D5680716D57FF00400216808610220CB
:1057100020772068806910F4407F03D0200001F0DA
:1057200065FB05E0200001F062FB200001F060FB5A
:1057300000202077300718D5280716D57FF00800FD
:1057400021680861042020772068C06910F0030FE9
:1057500003D0200001F04AFB05E0200001F047FBE8
:10576000200001F045FB00202077F00618D5E80660
:1057700016D57FF010002168086108202077206886
:10578000C06910F4407F03D0200001F02FFB05E03A
:10579000200001F02CFB200001F02AFB00202077E4
:1057A000F00708D5E80706D57FF0010021680861F9
:1057B0002000FEF767FE300608D5280606D57FF0E4
:1057C000800021680861200001F013FB700608D5F5
:1057D000680606D57FF0400021680861200001F0CE
:1057E00009FBB00608D5A80606D57FF02000216881
:1057F0000861200001F0FFFA70BDF8B504000D004B
:105800001600002794F83C00012801D1022027E06F
:10581000012084F83C003000002806D0042809D07C
:1058200008280CD00C280FD013E02900206800F0C5
:1058300081F810E02900206800F0AEF80BE02900A4
:10584000206800F0E1F806E02900206800F012F975
:1058500001E001200700002084F83C003800C0B2BD
:10586000F2BD10B40468DFF85832984212D0B0F19B
:10587000804F0FD0DFF84C2290420BD0DFF8482247
:10588000904207D0DFF84422904203D0DFF8402254
:10589000904203D134F070044A68144398422AD0ED
:1058A000B0F1804F27D0DFF81C22904223D0DFF8E0
:1058B000182290421FD0DFF8142290421BD0DFF84C
:1058C0001022904217D0DFF80C22904213D0DFF85C
:1058D000082290420FD0DFF8042290420BD0DFF86C
:1058E0000022904207D0DFF8FC21904203D0DFF87D
:1058F000F821904203D134F44074CA68144334F060
:1059000080044A69144304608A68C2620A68826239
:10591000984202D06E4A904201D10A690263012284
:1059200042610269D20703D502695208520002613E
:1059300010BC704770B4036A026A520852000262D7
:105940004568846934F07004A408A4000A6814430C
:1059500033F002038A681343594EB04202D05C4AC6
:10596000904205D133F00803CA68134333F00403AF
:10597000B04202D0564A904207D135F4807535F4D2
:1059800000754A6915438A691543456084614A6810
:105990004263036270BC704770B4026A036A33F0FA
:1059A000100303624468836933F4E04333F44073C3
:1059B0000D6853EA052332F020028D6852EA051281
:1059C0003F4DA84202D0424EB04206D132F0800292
:1059D000CE6852EA061232F04002A84202D03C4D94
:1059E000A84209D134F4806434F400644D6954EA67
:1059F00085048D6954EA8504446083614D6885633C
:105A0000026270BC7047000070B4036A026A32F42C
:105A1000807202624568C46934F07004A408A4006E
:105A20000A68144333F400738A6853EA0223244A51
:105A3000904202D0264EB04206D133F40063CE68C5
:105A400053EA062333F48063904202D0204A904206
:105A500009D135F4805535F400554A6955EA0215E7
:105A60008A6955EA02154560C4614A68C2630362E7
:105A700070BC704730B4036A026A32F4805202622A
:105A80004468C26932F4E04232F440720D6852EA6E
:105A9000052233F400538D6853EA0533084DA842BC
:105AA00002D00B4DA84204D134F480444D6954EA2D
:105AB00085144460C2614D680564036230BC704760
:105AC000000001400004004000080040000C0040BD
:105AD00000040140004001400044014000480140F2
